{
  "contractName": "ChainlinkPriceOracle",
  "abi": [
    {
      "inputs": [
        {
          "internalType": "address",
          "name": "hToken",
          "type": "address"
        }
      ],
      "name": "getUnderlyingPrice",
      "outputs": [
        {
          "internalType": "uint256",
          "name": "",
          "type": "uint256"
        }
      ],
      "stateMutability": "view",
      "type": "function"
    },
    {
      "inputs": [
        {
          "internalType": "string",
          "name": "symbol",
          "type": "string"
        },
        {
          "internalType": "address",
          "name": "addr",
          "type": "address"
        }
      ],
      "name": "_setPriceFeedAddress",
      "outputs": [],
      "stateMutability": "nonpayable",
      "type": "function"
    }
  ],
  "bytecode": "0x608060405234801561001057600080fd5b50610790806100206000396000f3fe608060405234801561001057600080fd5b50600436106100365760003560e01c806388371fd01461003b578063fc57d4df14610116575b600080fd5b6101146004803603604081101561005157600080fd5b810190808035906020019064010000000081111561006e57600080fd5b82018360208201111561008057600080fd5b803590602001918460018302840111640100000000831117156100a257600080fd5b91908080601f016020809104026020016040519081016040528093929190818152602001838380828437600081840152601f19601f820116905080830192505050505050509192919290803573ffffffffffffffffffffffffffffffffffffffff16906020019092919050505061016e565b005b6101586004803603602081101561012c57600080fd5b81019080803573ffffffffffffffffffffffffffffffffffffffff16906020019092919050505061021a565b6040518082815260200191505060405180910390f35b806000836040518082805190602001908083835b602083106101a55780518252602082019150602081019050602083039250610182565b6001836020036101000a038019825116818451168082178552505050505050905001915050908152602001604051809103902060006101000a81548173ffffffffffffffffffffffffffffffffffffffff021916908373ffffffffffffffffffffffffffffffffffffffff1602179055505050565b600060608273ffffffffffffffffffffffffffffffffffffffff166392e6077f6040518163ffffffff1660e01b815260040160006040518083038186803b15801561026457600080fd5b505afa158015610278573d6000803e3d6000fd5b505050506040513d6000823e3d601f19601f8201168201806040525060208110156102a257600080fd5b81019080805160405193929190846401000000008211156102c257600080fd5b838201915060208201858111156102d857600080fd5b82518660018202830111640100000000821117156102f557600080fd5b8083526020830192505050908051906020019080838360005b8381101561032957808201518184015260208101905061030e565b50505050905090810190601f1680156103565780820380516001836020036101000a031916815260200191505b50604052505050905061039e816040518060400160405280600381526020017f55534400000000000000000000000000000000000000000000000000000000008152506103c6565b156103b457670de0b6b3a76400009150506103c1565b6103bd8161049c565b9150505b919050565b60006060839050606083905080518251146103e657600092505050610496565b60005b82518161ffff16101561048e57818161ffff168151811061040657fe5b602001015160f81c60f81b7effffffffffffffffffffffffffffffffffffffffffffffffffffffffffffff1916838261ffff168151811061044357fe5b602001015160f81c60f81b7effffffffffffffffffffffffffffffffffffffffffffffffffffffffffffff1916146104815760009350505050610496565b80806001019150506103e9565b506001925050505b92915050565b6000806000836040518082805190602001908083835b602083106104d557805182526020820191506020810190506020830392506104b2565b6001836020036101000a038019825116818451168082178552505050505050905001915050908152602001604051809103902060009054906101000a900473ffffffffffffffffffffffffffffffffffffffff169050600073ffffffffffffffffffffffffffffffffffffffff168173ffffffffffffffffffffffffffffffffffffffff16141561056a5760009150506106ae565b60008173ffffffffffffffffffffffffffffffffffffffff1663feaf968c6040518163ffffffff1660e01b815260040160a06040518083038186803b1580156105b257600080fd5b505afa1580156105c6573d6000803e3d6000fd5b505050506040513d60a08110156105dc57600080fd5b81019080805190602001909291908051906020019092919080519060200190929190805190602001909291908051906020019092919050505050505091505060008113610691576040517f08c379a00000000000000000000000000000000000000000000000000000000081526004018080602001828103825260108152602001807f556e65787065637465642070726963650000000000000000000000000000000081525060200191505060405180910390fd5b6106a96402540be400826106b390919063ffffffff16565b925050505b919050565b6000808314156106c65760009050610733565b60008284029050828482816106d757fe5b041461072e576040517f08c379a000000000000000000000000000000000000000000000000000000000815260040180806020018281038252602181526020018061073a6021913960400191505060405180910390fd5b809150505b9291505056fe536166654d6174683a206d756c7469706c69636174696f6e206f766572666c6f77a264697066735822122004110a8155a22e858f321cc7729906c2afac8e4747e33f7aca26f38638bbe2e864736f6c63430006000033",
  "source": "pragma solidity ^0.6.0;\n\nimport \"./interfaces/PriceOracleInterface.sol\";\nimport \"./interfaces/ChainlinkAggregatorV3Interface.sol\";\nimport \"./interfaces/HTokenInterface.sol\";\nimport \"./libraries/Strings.sol\";\nimport \"./libraries/SafeMath.sol\";\n\ncontract ChainlinkPriceOracle is PriceOracleInterface {\n\tusing SafeMath for uint256;\n\n\tmapping(string => ChainlinkAggregatorV3Interface) priceFeeds;\n\n\tfunction getUnderlyingPrice(address hToken) external override view returns (uint256) {\n\t\tstring memory symbol = HTokenInterface(hToken).anchorSymbol();\n\t\tif (Strings.equals(symbol, \"USD\")) {\n\t\t\treturn 1e18;\n\t\t}\n\t\treturn queryChainlink(symbol);\n\t}\n\n\tfunction _setPriceFeedAddress(string memory symbol, address addr) public {\n\t\tpriceFeeds[symbol] = ChainlinkAggregatorV3Interface(addr);\n\t}\n\n\tfunction queryChainlink(string memory symbol) internal view returns (uint256) {\n\t\tChainlinkAggregatorV3Interface priceFeed = priceFeeds[symbol];\n\t\tif (address(priceFeed) == address(0)) {\n\t\t\treturn 0;\n\t\t}\n\t\t(, int256 price, , , ) = priceFeed.latestRoundData();\n\t\trequire(price > 0, \"Unexpected price\");\n\t\treturn uint256(price).mul(1e10);\n\t}\n}\n",
  "sourcePath": "/hades/evm-contracts/src/ChainklinkPriceOracle.sol",
  "compiler": {
    "name": "solc",
    "version": "0.6.0+commit.26b70077.Emscripten.clang"
  },
  "schemaVersion": "3.2.4",
  "updatedAt": "2020-10-27T12:00:19.251Z",
  "devdoc": {
    "methods": {}
  },
  "userdoc": {
    "methods": {}
  }
}