{
  "contractName": "DefaultInterestRateStrategy",
  "abi": [
    {
      "anonymous": false,
      "inputs": [
        {
          "indexed": false,
          "internalType": "uint256",
          "name": "baseRatePerBlock",
          "type": "uint256"
        },
        {
          "indexed": false,
          "internalType": "uint256",
          "name": "multiplierPerBlock",
          "type": "uint256"
        },
        {
          "indexed": false,
          "internalType": "uint256",
          "name": "jumpMultiplierPerBlock",
          "type": "uint256"
        },
        {
          "indexed": false,
          "internalType": "uint256",
          "name": "kink",
          "type": "uint256"
        }
      ],
      "name": "NewInterestParams",
      "type": "event"
    },
    {
      "inputs": [],
      "name": "admin",
      "outputs": [
        {
          "internalType": "address",
          "name": "",
          "type": "address"
        }
      ],
      "stateMutability": "view",
      "type": "function"
    },
    {
      "inputs": [],
      "name": "baseRatePerBlock",
      "outputs": [
        {
          "internalType": "uint256",
          "name": "",
          "type": "uint256"
        }
      ],
      "stateMutability": "view",
      "type": "function"
    },
    {
      "inputs": [],
      "name": "blocksPerYear",
      "outputs": [
        {
          "internalType": "uint256",
          "name": "",
          "type": "uint256"
        }
      ],
      "stateMutability": "view",
      "type": "function"
    },
    {
      "inputs": [],
      "name": "jumpMultiplierPerBlock",
      "outputs": [
        {
          "internalType": "uint256",
          "name": "",
          "type": "uint256"
        }
      ],
      "stateMutability": "view",
      "type": "function"
    },
    {
      "inputs": [],
      "name": "kink",
      "outputs": [
        {
          "internalType": "uint256",
          "name": "",
          "type": "uint256"
        }
      ],
      "stateMutability": "view",
      "type": "function"
    },
    {
      "inputs": [],
      "name": "multiplierPerBlock",
      "outputs": [
        {
          "internalType": "uint256",
          "name": "",
          "type": "uint256"
        }
      ],
      "stateMutability": "view",
      "type": "function"
    },
    {
      "inputs": [
        {
          "internalType": "address",
          "name": "_admin",
          "type": "address"
        }
      ],
      "name": "initialize",
      "outputs": [],
      "stateMutability": "nonpayable",
      "type": "function"
    },
    {
      "inputs": [
        {
          "internalType": "uint256",
          "name": "baseRatePerYear",
          "type": "uint256"
        },
        {
          "internalType": "uint256",
          "name": "multiplierPerYear",
          "type": "uint256"
        },
        {
          "internalType": "uint256",
          "name": "jumpMultiplierPerYear",
          "type": "uint256"
        },
        {
          "internalType": "uint256",
          "name": "_kink",
          "type": "uint256"
        }
      ],
      "name": "updateStrategy",
      "outputs": [],
      "stateMutability": "nonpayable",
      "type": "function"
    },
    {
      "inputs": [
        {
          "internalType": "uint256",
          "name": "cash",
          "type": "uint256"
        },
        {
          "internalType": "uint256",
          "name": "borrows",
          "type": "uint256"
        },
        {
          "internalType": "uint256",
          "name": "reserves",
          "type": "uint256"
        }
      ],
      "name": "utilizationRate",
      "outputs": [
        {
          "internalType": "uint256",
          "name": "",
          "type": "uint256"
        }
      ],
      "stateMutability": "pure",
      "type": "function"
    },
    {
      "inputs": [
        {
          "internalType": "uint256",
          "name": "cash",
          "type": "uint256"
        },
        {
          "internalType": "uint256",
          "name": "borrows",
          "type": "uint256"
        },
        {
          "internalType": "uint256",
          "name": "reserves",
          "type": "uint256"
        }
      ],
      "name": "getBorrowRate",
      "outputs": [
        {
          "internalType": "uint256",
          "name": "",
          "type": "uint256"
        }
      ],
      "stateMutability": "view",
      "type": "function"
    },
    {
      "inputs": [
        {
          "internalType": "uint256",
          "name": "cash",
          "type": "uint256"
        },
        {
          "internalType": "uint256",
          "name": "borrows",
          "type": "uint256"
        },
        {
          "internalType": "uint256",
          "name": "reserves",
          "type": "uint256"
        },
        {
          "internalType": "uint256",
          "name": "reserveFactorMantissa",
          "type": "uint256"
        }
      ],
      "name": "getSupplyRate",
      "outputs": [
        {
          "internalType": "uint256",
          "name": "",
          "type": "uint256"
        }
      ],
      "stateMutability": "view",
      "type": "function"
    }
  ],
  "bytecode": "0x608060405234801561001057600080fd5b50610b68806100206000396000f3fe608060405234801561001057600080fd5b50600436106100a95760003560e01c8063b9f9850a11610071578063b9f9850a146101f6578063c4d66de814610214578063e62697a114610258578063f14039de146102a4578063f851a440146102c2578063fd2da3391461030c576100a9565b806315f24053146100ae5780636e71e2d8146101045780638726bb891461015a578063a385fb9614610178578063b816881614610196575b600080fd5b6100ee600480360360608110156100c457600080fd5b8101908080359060200190929190803590602001909291908035906020019092919050505061032a565b6040518082815260200191505060405180910390f35b6101446004803603606081101561011a57600080fd5b81019080803590602001909291908035906020019092919080359060200190929190505050610340565b6040518082815260200191505060405180910390f35b6101626103ae565b6040518082815260200191505060405180910390f35b6101806103b4565b6040518082815260200191505060405180910390f35b6101e0600480360360808110156101ac57600080fd5b81019080803590602001909291908035906020019092919080359060200190929190803590602001909291905050506103bb565b6040518082815260200191505060405180910390f35b6101fe61045f565b6040518082815260200191505060405180910390f35b6102566004803603602081101561022a57600080fd5b81019080803573ffffffffffffffffffffffffffffffffffffffff169060200190929190505050610465565b005b6102a26004803603608081101561026e57600080fd5b81019080803590602001909291908035906020019092919080359060200190929190803590602001909291905050506104e3565b005b6102ac61059a565b6040518082815260200191505060405180910390f35b6102ca6105a0565b604051808273ffffffffffffffffffffffffffffffffffffffff1673ffffffffffffffffffffffffffffffffffffffff16815260200191505060405180910390f35b6103146105c5565b6040518082815260200191505060405180910390f35b60006103378484846105cb565b90509392505050565b60008083141561035357600090506103a7565b6103a461037b8361036d86886106df90919063ffffffff16565b61076790919063ffffffff16565b610396670de0b6b3a7640000866107b190919063ffffffff16565b61083790919063ffffffff16565b90505b9392505050565b60015481565b6220148081565b6000806103d983670de0b6b3a764000061076790919063ffffffff16565b905060006103e88787876105cb565b90506000610419670de0b6b3a764000061040b85856107b190919063ffffffff16565b61083790919063ffffffff16565b9050610452670de0b6b3a7640000610444836104368c8c8c610340565b6107b190919063ffffffff16565b61083790919063ffffffff16565b9350505050949350505050565b60035481565b806000806101000a81548173ffffffffffffffffffffffffffffffffffffffff021916908373ffffffffffffffffffffffffffffffffffffffff1602179055506000809050600066b1a2bc2ec5000090506000670f207539952d000090506000670b1a2bc2ec50000090506104dc84848484610881565b5050505050565b6000809054906101000a900473ffffffffffffffffffffffffffffffffffffffff1673ffffffffffffffffffffffffffffffffffffffff163373ffffffffffffffffffffffffffffffffffffffff1614610588576040517f08c379a0000000000000000000000000000000000000000000000000000000008152600401808060200182810382526026815260200180610aec6026913960400191505060405180910390fd5b61059484848484610881565b50505050565b60025481565b6000809054906101000a900473ffffffffffffffffffffffffffffffffffffffff1681565b60045481565b6000806105d9858585610340565b9050600454811161062f57610627600254610619670de0b6b3a764000061060b600154866107b190919063ffffffff16565b61083790919063ffffffff16565b6106df90919063ffffffff16565b9150506106d8565b6000610676600254610668670de0b6b3a764000061065a6001546004546107b190919063ffffffff16565b61083790919063ffffffff16565b6106df90919063ffffffff16565b9050600061068f6004548461076790919063ffffffff16565b90506106d2826106c4670de0b6b3a76400006106b6600354866107b190919063ffffffff16565b61083790919063ffffffff16565b6106df90919063ffffffff16565b93505050505b9392505050565b60008082840190508381101561075d576040517f08c379a000000000000000000000000000000000000000000000000000000000815260040180806020018281038252601b8152602001807f536166654d6174683a206164646974696f6e206f766572666c6f77000000000081525060200191505060405180910390fd5b8091505092915050565b60006107a983836040518060400160405280601f81526020017f536166654d6174683a207375627472616374696f6e20756e646572666c6f7700815250610965565b905092915050565b6000808314156107c45760009050610831565b60008284029050828482816107d557fe5b041461082c576040517f08c379a0000000000000000000000000000000000000000000000000000000008152600401808060200182810382526021815260200180610b126021913960400191505060405180910390fd5b809150505b92915050565b600061087983836040518060400160405280601a81526020017f536166654d6174683a206469766973696f6e206279207a65726f000000000000815250610a25565b905092915050565b610897622014808561083790919063ffffffff16565b6002819055506108df6108b682622014806107b190919063ffffffff16565b6108d1670de0b6b3a7640000866107b190919063ffffffff16565b61083790919063ffffffff16565b6001819055506108fb622014808361083790919063ffffffff16565b600381905550806004819055507f6960ab234c7ef4b0c9197100f5393cfcde7c453ac910a27bd2000aa1dd4c068d6002546001546003546004546040518085815260200184815260200183815260200182815260200194505050505060405180910390a150505050565b6000838311158290610a12576040517f08c379a00000000000000000000000000000000000000000000000000000000081526004018080602001828103825283818151815260200191508051906020019080838360005b838110156109d75780820151818401526020810190506109bc565b50505050905090810190601f168015610a045780820380516001836020036101000a031916815260200191505b509250505060405180910390fd5b5060008385039050809150509392505050565b60008083118290610ad1576040517f08c379a00000000000000000000000000000000000000000000000000000000081526004018080602001828103825283818151815260200191508051906020019080838360005b83811015610a96578082015181840152602081019050610a7b565b50505050905090810190601f168015610ac35780820380516001836020036101000a031916815260200191505b509250505060405180910390fd5b506000838581610add57fe5b04905080915050939250505056fe6f6e6c79207468652061646d696e206d61792063616c6c20746869732066756e6374696f6e2e536166654d6174683a206d756c7469706c69636174696f6e206f766572666c6f77a264697066735822122036048bf423b1874f36b1824c752a1556b45a15e9b167d31bcbd0b9b8e6a5891c64736f6c63430006000033",
  "source": "pragma solidity ^0.6.0;\n\nimport \"./interfaces/InterestRateStrategyInterface.sol\";\nimport \"./libraries/SafeMath.sol\";\n\n/**\n * @title Hades' DefaultInterestRateStrategy\n * @notice Enabling updateable parameters.\n */\ncontract DefaultInterestRateStrategy is InterestRateStrategyInterface {\n\tusing SafeMath for uint256;\n\n\tevent NewInterestParams(\n\t\tuint256 baseRatePerBlock,\n\t\tuint256 multiplierPerBlock,\n\t\tuint256 jumpMultiplierPerBlock,\n\t\tuint256 kink\n\t);\n\n\t/**\n\t * @notice The address of the admin, i.e. the Timelock contract, which can update parameters directly\n\t */\n\taddress public admin;\n\n\t/**\n\t * @notice The approximate number of blocks per year that is assumed by the interest rate model\n\t */\n\tuint256 public constant blocksPerYear = 2102400;\n\n\t/**\n\t * @notice The multiplier of utilization rate that gives the slope of the interest rate\n\t */\n\tuint256 public multiplierPerBlock;\n\n\t/**\n\t * @notice The base interest rate which is the y-intercept when utilization rate is 0\n\t */\n\tuint256 public baseRatePerBlock;\n\n\t/**\n\t * @notice The multiplierPerBlock after hitting a specified utilization point\n\t */\n\tuint256 public jumpMultiplierPerBlock;\n\n\t/**\n\t * @notice The utilization point at which the jump multiplier is applied\n\t */\n\tuint256 public kink;\n\n\t/**\n\t * @notice Construct an interest rate model\n\t * @param _admin The address of the admin, i.e. the Timelock contract (which has the ability to update parameters directly)\n\t */\n\tfunction initialize(address _admin) public {\n\t\tadmin = _admin;\n\t\tuint256 baseRatePerYear = 0;\n\t\tuint256 multiplierPerYear = 0.05e18;\n\t\tuint256 jumpMultiplierPerYear = 1.09e18;\n\t\tuint256 _kink = 0.8e18;\n\t\tupdateStrategyInternal(baseRatePerYear, multiplierPerYear, jumpMultiplierPerYear, _kink);\n\t}\n\n\t/**\n\t * @notice Update the parameters of the interest rate model (only callable by admin, i.e. Timelock)\n\t * @param baseRatePerYear The approximate target base APR, as a mantissa (scaled by 1e18)\n\t * @param multiplierPerYear The rate of increase in interest rate wrt utilization (scaled by 1e18)\n\t * @param jumpMultiplierPerYear The multiplierPerBlock after hitting a specified utilization point\n\t * @param _kink The utilization point at which the jump multiplier is applied\n\t */\n\tfunction updateStrategy(\n\t\tuint256 baseRatePerYear,\n\t\tuint256 multiplierPerYear,\n\t\tuint256 jumpMultiplierPerYear,\n\t\tuint256 _kink\n\t) external {\n\t\trequire(msg.sender == admin, \"only the admin may call this function.\");\n\n\t\tupdateStrategyInternal(baseRatePerYear, multiplierPerYear, jumpMultiplierPerYear, _kink);\n\t}\n\n\t/**\n\t * @notice Calculates the utilization rate of the market: `borrows / (cash + borrows - reserves)`\n\t * @param cash The amount of cash in the market\n\t * @param borrows The amount of borrows in the market\n\t * @param reserves The amount of reserves in the market (currently unused)\n\t * @return The utilization rate as a mantissa between [0, 1e18]\n\t */\n\tfunction utilizationRate(\n\t\tuint256 cash,\n\t\tuint256 borrows,\n\t\tuint256 reserves\n\t) public pure returns (uint256) {\n\t\t// Utilization rate is 0 when there are no borrows\n\t\tif (borrows == 0) {\n\t\t\treturn 0;\n\t\t}\n\n\t\treturn borrows.mul(1e18).div(cash.add(borrows).sub(reserves));\n\t}\n\n\t/**\n\t * @notice Calculates the current borrow rate per block, with the error code expected by the market\n\t * @param cash The amount of cash in the market\n\t * @param borrows The amount of borrows in the market\n\t * @param reserves The amount of reserves in the market\n\t * @return The borrow rate percentage per block as a mantissa (scaled by 1e18)\n\t */\n\tfunction getBorrowRate(\n\t\tuint256 cash,\n\t\tuint256 borrows,\n\t\tuint256 reserves\n\t) external override view returns (uint256) {\n\t\treturn getBorrowRateInternal(cash, borrows, reserves);\n\t}\n\n\t/**\n\t * @notice Calculates the current supply rate per block\n\t * @param cash The amount of cash in the market\n\t * @param borrows The amount of borrows in the market\n\t * @param reserves The amount of reserves in the market\n\t * @param reserveFactorMantissa The current reserve factor for the market\n\t * @return The supply rate percentage per block as a mantissa (scaled by 1e18)\n\t */\n\tfunction getSupplyRate(\n\t\tuint256 cash,\n\t\tuint256 borrows,\n\t\tuint256 reserves,\n\t\tuint256 reserveFactorMantissa\n\t) external override view returns (uint256) {\n\t\tuint256 oneMinusReserveFactor = uint256(1e18).sub(reserveFactorMantissa);\n\t\tuint256 borrowRate = getBorrowRateInternal(cash, borrows, reserves);\n\t\tuint256 rateToPool = borrowRate.mul(oneMinusReserveFactor).div(1e18);\n\t\treturn utilizationRate(cash, borrows, reserves).mul(rateToPool).div(1e18);\n\t}\n\n\t/**\n\t * @notice Internal function to update the parameters of the interest rate model\n\t * @param baseRatePerYear The approximate target base APR, as a mantissa (scaled by 1e18)\n\t * @param multiplierPerYear The rate of increase in interest rate wrt utilization (scaled by 1e18)\n\t * @param jumpMultiplierPerYear The multiplierPerBlock after hitting a specified utilization point\n\t * @param _kink The utilization point at which the jump multiplier is applied\n\t */\n\tfunction updateStrategyInternal(\n\t\tuint256 baseRatePerYear,\n\t\tuint256 multiplierPerYear,\n\t\tuint256 jumpMultiplierPerYear,\n\t\tuint256 _kink\n\t) internal {\n\t\tbaseRatePerBlock = baseRatePerYear.div(blocksPerYear);\n\t\tmultiplierPerBlock = (multiplierPerYear.mul(1e18)).div(blocksPerYear.mul(_kink));\n\t\tjumpMultiplierPerBlock = jumpMultiplierPerYear.div(blocksPerYear);\n\t\tkink = _kink;\n\n\t\temit NewInterestParams(baseRatePerBlock, multiplierPerBlock, jumpMultiplierPerBlock, kink);\n\t}\n\n\tfunction getBorrowRateInternal(\n\t\tuint256 cash,\n\t\tuint256 borrows,\n\t\tuint256 reserves\n\t) internal view returns (uint256) {\n\t\tuint256 util = utilizationRate(cash, borrows, reserves);\n\n\t\tif (util <= kink) {\n\t\t\treturn util.mul(multiplierPerBlock).div(1e18).add(baseRatePerBlock);\n\t\t} else {\n\t\t\tuint256 normalRate = kink.mul(multiplierPerBlock).div(1e18).add(baseRatePerBlock);\n\t\t\tuint256 excessUtil = util.sub(kink);\n\t\t\treturn excessUtil.mul(jumpMultiplierPerBlock).div(1e18).add(normalRate);\n\t\t}\n\t}\n}\n",
  "sourcePath": "/hades/evm-contracts/src/DefaultInterestRateStrategy.sol",
  "compiler": {
    "name": "solc",
    "version": "0.6.0+commit.26b70077.Emscripten.clang"
  },
  "schemaVersion": "3.2.4",
  "updatedAt": "2020-10-27T12:03:42.932Z",
  "networkType": "ethereum",
  "devdoc": {
    "methods": {
      "getBorrowRate(uint256,uint256,uint256)": {
        "params": {
          "borrows": "The amount of borrows in the market",
          "cash": "The amount of cash in the market",
          "reserves": "The amount of reserves in the market"
        },
        "returns": {
          "_0": "The borrow rate percentage per block as a mantissa (scaled by 1e18)"
        }
      },
      "getSupplyRate(uint256,uint256,uint256,uint256)": {
        "params": {
          "borrows": "The amount of borrows in the market",
          "cash": "The amount of cash in the market",
          "reserveFactorMantissa": "The current reserve factor for the market",
          "reserves": "The amount of reserves in the market"
        },
        "returns": {
          "_0": "The supply rate percentage per block as a mantissa (scaled by 1e18)"
        }
      },
      "initialize(address)": {
        "params": {
          "_admin": "The address of the admin, i.e. the Timelock contract (which has the ability to update parameters directly)"
        }
      },
      "updateStrategy(uint256,uint256,uint256,uint256)": {
        "params": {
          "_kink": "The utilization point at which the jump multiplier is applied",
          "baseRatePerYear": "The approximate target base APR, as a mantissa (scaled by 1e18)",
          "jumpMultiplierPerYear": "The multiplierPerBlock after hitting a specified utilization point",
          "multiplierPerYear": "The rate of increase in interest rate wrt utilization (scaled by 1e18)"
        }
      },
      "utilizationRate(uint256,uint256,uint256)": {
        "params": {
          "borrows": "The amount of borrows in the market",
          "cash": "The amount of cash in the market",
          "reserves": "The amount of reserves in the market (currently unused)"
        },
        "returns": {
          "_0": "The utilization rate as a mantissa between [0, 1e18]"
        }
      }
    },
    "title": "Hades' DefaultInterestRateStrategy"
  },
  "userdoc": {
    "methods": {
      "getBorrowRate(uint256,uint256,uint256)": {
        "notice": "Calculates the current borrow rate per block, with the error code expected by the market"
      },
      "getSupplyRate(uint256,uint256,uint256,uint256)": {
        "notice": "Calculates the current supply rate per block"
      },
      "initialize(address)": {
        "notice": "Construct an interest rate model"
      },
      "updateStrategy(uint256,uint256,uint256,uint256)": {
        "notice": "Update the parameters of the interest rate model (only callable by admin, i.e. Timelock)"
      },
      "utilizationRate(uint256,uint256,uint256)": {
        "notice": "Calculates the utilization rate of the market: `borrows / (cash + borrows - reserves)`"
      }
    },
    "notice": "Enabling updateable parameters."
  }
}