{
  "contractName": "DOL",
  "abi": [
    {
      "anonymous": false,
      "inputs": [
        {
          "indexed": true,
          "internalType": "address",
          "name": "owner",
          "type": "address"
        },
        {
          "indexed": true,
          "internalType": "address",
          "name": "spender",
          "type": "address"
        },
        {
          "indexed": false,
          "internalType": "uint256",
          "name": "amount",
          "type": "uint256"
        }
      ],
      "name": "Approval",
      "type": "event"
    },
    {
      "anonymous": false,
      "inputs": [
        {
          "indexed": true,
          "internalType": "address",
          "name": "from",
          "type": "address"
        },
        {
          "indexed": true,
          "internalType": "address",
          "name": "to",
          "type": "address"
        },
        {
          "indexed": false,
          "internalType": "uint256",
          "name": "amount",
          "type": "uint256"
        }
      ],
      "name": "Transfer",
      "type": "event"
    },
    {
      "inputs": [],
      "name": "DELEGATION_TYPEHASH",
      "outputs": [
        {
          "internalType": "bytes32",
          "name": "",
          "type": "bytes32"
        }
      ],
      "stateMutability": "view",
      "type": "function"
    },
    {
      "inputs": [],
      "name": "DOMAIN_TYPEHASH",
      "outputs": [
        {
          "internalType": "bytes32",
          "name": "",
          "type": "bytes32"
        }
      ],
      "stateMutability": "view",
      "type": "function"
    },
    {
      "inputs": [],
      "name": "decimals",
      "outputs": [
        {
          "internalType": "uint8",
          "name": "",
          "type": "uint8"
        }
      ],
      "stateMutability": "view",
      "type": "function"
    },
    {
      "inputs": [],
      "name": "name",
      "outputs": [
        {
          "internalType": "string",
          "name": "",
          "type": "string"
        }
      ],
      "stateMutability": "view",
      "type": "function"
    },
    {
      "inputs": [],
      "name": "superior",
      "outputs": [
        {
          "internalType": "address",
          "name": "",
          "type": "address"
        }
      ],
      "stateMutability": "view",
      "type": "function"
    },
    {
      "inputs": [],
      "name": "symbol",
      "outputs": [
        {
          "internalType": "string",
          "name": "",
          "type": "string"
        }
      ],
      "stateMutability": "view",
      "type": "function"
    },
    {
      "inputs": [],
      "name": "totalSupply",
      "outputs": [
        {
          "internalType": "uint96",
          "name": "",
          "type": "uint96"
        }
      ],
      "stateMutability": "view",
      "type": "function"
    },
    {
      "inputs": [
        {
          "internalType": "address",
          "name": "_superior",
          "type": "address"
        }
      ],
      "name": "initialize",
      "outputs": [],
      "stateMutability": "nonpayable",
      "type": "function"
    },
    {
      "inputs": [
        {
          "internalType": "address",
          "name": "account",
          "type": "address"
        },
        {
          "internalType": "address",
          "name": "spender",
          "type": "address"
        }
      ],
      "name": "allowance",
      "outputs": [
        {
          "internalType": "uint256",
          "name": "",
          "type": "uint256"
        }
      ],
      "stateMutability": "view",
      "type": "function"
    },
    {
      "inputs": [
        {
          "internalType": "address",
          "name": "spender",
          "type": "address"
        },
        {
          "internalType": "uint256",
          "name": "rawAmount",
          "type": "uint256"
        }
      ],
      "name": "approve",
      "outputs": [
        {
          "internalType": "bool",
          "name": "",
          "type": "bool"
        }
      ],
      "stateMutability": "nonpayable",
      "type": "function"
    },
    {
      "inputs": [
        {
          "internalType": "address",
          "name": "account",
          "type": "address"
        }
      ],
      "name": "balanceOf",
      "outputs": [
        {
          "internalType": "uint256",
          "name": "",
          "type": "uint256"
        }
      ],
      "stateMutability": "view",
      "type": "function"
    },
    {
      "inputs": [
        {
          "internalType": "address",
          "name": "dst",
          "type": "address"
        },
        {
          "internalType": "uint256",
          "name": "rawAmount",
          "type": "uint256"
        }
      ],
      "name": "transfer",
      "outputs": [
        {
          "internalType": "bool",
          "name": "",
          "type": "bool"
        }
      ],
      "stateMutability": "nonpayable",
      "type": "function"
    },
    {
      "inputs": [
        {
          "internalType": "address",
          "name": "src",
          "type": "address"
        },
        {
          "internalType": "address",
          "name": "dst",
          "type": "address"
        },
        {
          "internalType": "uint256",
          "name": "rawAmount",
          "type": "uint256"
        }
      ],
      "name": "transferFrom",
      "outputs": [
        {
          "internalType": "bool",
          "name": "",
          "type": "bool"
        }
      ],
      "stateMutability": "nonpayable",
      "type": "function"
    },
    {
      "inputs": [
        {
          "internalType": "address",
          "name": "account",
          "type": "address"
        },
        {
          "internalType": "uint256",
          "name": "rawAmount",
          "type": "uint256"
        }
      ],
      "name": "mint",
      "outputs": [],
      "stateMutability": "nonpayable",
      "type": "function"
    },
    {
      "inputs": [
        {
          "internalType": "address",
          "name": "account",
          "type": "address"
        },
        {
          "internalType": "uint256",
          "name": "rawAmount",
          "type": "uint256"
        }
      ],
      "name": "burn",
      "outputs": [],
      "stateMutability": "nonpayable",
      "type": "function"
    }
  ],
  "bytecode": "0x608060405234801561001057600080fd5b50611ce1806100206000396000f3fe608060405234801561001057600080fd5b50600436106100f55760003560e01c806370a0823111610097578063a9059cbb11610066578063a9059cbb14610276578063c4d66de8146102a6578063dd62ed3e146102c2578063e7a324dc146102f2576100f5565b806370a08231146101ee57806395d89b411461021e57806395f658981461023c5780639dc29fac1461025a576100f5565b806320606b70116100d357806320606b701461016657806323b872dd14610184578063313ce567146101b457806340c10f19146101d2576100f5565b806306fdde03146100fa578063095ea7b31461011857806318160ddd14610148575b600080fd5b610102610310565b60405161010f91906118c3565b60405180910390f35b610132600480360361012d919081019061150d565b610349565b60405161013f919061188d565b60405180910390f35b6101506104dc565b60405161015d91906119b8565b60405180910390f35b61016e6104f9565b60405161017b91906118a8565b60405180910390f35b61019e600480360361019991908101906114be565b610510565b6040516101ab919061188d565b60405180910390f35b6101bc61073f565b6040516101c99190611982565b60405180910390f35b6101ec60048036036101e7919081019061150d565b610744565b005b61020860048036036102039190810190611459565b6109f1565b6040516102159190611967565b60405180910390f35b610226610a60565b60405161023391906118c3565b60405180910390f35b610244610a99565b6040516102519190611872565b60405180910390f35b610274600480360361026f919081019061150d565b610abf565b005b610290600480360361028b919081019061150d565b610e8d565b60405161029d919061188d565b60405180910390f35b6102c060048036036102bb9190810190611459565b610eca565b005b6102dc60048036036102d79190810190611482565b610f0e565b6040516102e99190611967565b60405180910390f35b6102fa610fbb565b60405161030791906118a8565b60405180910390f35b6040518060400160405280600e81526020017f444f4c20537461626c65636f696e00000000000000000000000000000000000081525081565b6000807fffffffffffffffffffffffffffffffffffffffffffffffffffffffffffffffff83141561039c577fffffffffffffffffffffffffffffffffffffffffffffffffffffffffffffffff90506103c1565b6103be83604051806060016040528060248152602001611b9e60249139610fd2565b90505b80600160003373ffffffffffffffffffffffffffffffffffffffff1673ffffffffffffffffffffffffffffffffffffffff16815260200190815260200160002060008673ffffffffffffffffffffffffffffffffffffffff1673ffffffffffffffffffffffffffffffffffffffff16815260200190815260200160002060006101000a8154816bffffffffffffffffffffffff02191690836bffffffffffffffffffffffff1602179055508373ffffffffffffffffffffffffffffffffffffffff163373ffffffffffffffffffffffffffffffffffffffff167f8c5be1e5ebec7d5bd14f71427d1e84f3dd0314c0f7b2291e5b200ac8c7c3b925836040516104c9919061199d565b60405180910390a3600191505092915050565b6000809054906101000a90046bffffffffffffffffffffffff1681565b60405161050590611848565b604051809103902081565b6000803390506000600160008773ffffffffffffffffffffffffffffffffffffffff1673ffffffffffffffffffffffffffffffffffffffff16815260200190815260200160002060008373ffffffffffffffffffffffffffffffffffffffff1673ffffffffffffffffffffffffffffffffffffffff16815260200190815260200160002060009054906101000a90046bffffffffffffffffffffffff16905060006105d385604051806060016040528060248152602001611b9e60249139610fd2565b90508673ffffffffffffffffffffffffffffffffffffffff168373ffffffffffffffffffffffffffffffffffffffff161415801561064d57507fffffffffffffffffffffffffffffffffffffffffffffffffffffffffffffffff6bffffffffffffffffffffffff16826bffffffffffffffffffffffff1614155b1561072657600061067783836040518060600160405280603c8152602001611c70603c9139611030565b905080600160008a73ffffffffffffffffffffffffffffffffffffffff1673ffffffffffffffffffffffffffffffffffffffff16815260200190815260200160002060008673ffffffffffffffffffffffffffffffffffffffff1673ffffffffffffffffffffffffffffffffffffffff16815260200190815260200160002060006101000a8154816bffffffffffffffffffffffff02191690836bffffffffffffffffffffffff160217905550505b6107318787836110a1565b600193505050509392505050565b600881565b3373ffffffffffffffffffffffffffffffffffffffff16600360009054906101000a900473ffffffffffffffffffffffffffffffffffffffff1673ffffffffffffffffffffffffffffffffffffffff16146107d4576040517f08c379a00000000000000000000000000000000000000000000000000000000081526004016107cb90611927565b60405180910390fd5b60006107f882604051806060016040528060218152602001611b3660219139610fd2565b9050610891600260008573ffffffffffffffffffffffffffffffffffffffff1673ffffffffffffffffffffffffffffffffffffffff16815260200190815260200160002060009054906101000a90046bffffffffffffffffffffffff16826040518060400160405280601c81526020017f4844533a3a6d696e743a2062616c616e6365206f766572666c6f7773000000008152506113b9565b600260008573ffffffffffffffffffffffffffffffffffffffff1673ffffffffffffffffffffffffffffffffffffffff16815260200190815260200160002060006101000a8154816bffffffffffffffffffffffff02191690836bffffffffffffffffffffffff1602179055506109576000809054906101000a90046bffffffffffffffffffffffff16826040518060400160405280602081526020017f4844533a3a6d696e743a20746f74616c537570706c79206f766572666c6f77738152506113b9565b6000806101000a8154816bffffffffffffffffffffffff02191690836bffffffffffffffffffffffff1602179055508273ffffffffffffffffffffffffffffffffffffffff16600073ffffffffffffffffffffffffffffffffffffffff167fddf252ad1be2c89b69c2b068fc378daa952ba7f163c4a11628f55a4df523b3ef836040516109e4919061199d565b60405180910390a3505050565b6000600260008373ffffffffffffffffffffffffffffffffffffffff1673ffffffffffffffffffffffffffffffffffffffff16815260200190815260200160002060009054906101000a90046bffffffffffffffffffffffff166bffffffffffffffffffffffff169050919050565b6040518060400160405280600381526020017f444f4c000000000000000000000000000000000000000000000000000000000081525081565b600360009054906101000a900473ffffffffffffffffffffffffffffffffffffffff1681565b6000610ae382604051806060016040528060218152602001611b5760219139610fd2565b905060003390508073ffffffffffffffffffffffffffffffffffffffff168473ffffffffffffffffffffffffffffffffffffffff1614610ccf576000600160008673ffffffffffffffffffffffffffffffffffffffff1673ffffffffffffffffffffffffffffffffffffffff16815260200190815260200160002060008373ffffffffffffffffffffffffffffffffffffffff1673ffffffffffffffffffffffffffffffffffffffff16815260200190815260200160002060009054906101000a90046bffffffffffffffffffffffff1690507fffffffffffffffffffffffffffffffffffffffffffffffffffffffffffffffff6bffffffffffffffffffffffff16816bffffffffffffffffffffffff1614610ccd576000610c1e8285604051806060016040528060308152602001611bec60309139611030565b905080600160008873ffffffffffffffffffffffffffffffffffffffff1673ffffffffffffffffffffffffffffffffffffffff16815260200190815260200160002060008573ffffffffffffffffffffffffffffffffffffffff1673ffffffffffffffffffffffffffffffffffffffff16815260200190815260200160002060006101000a8154816bffffffffffffffffffffffff02191690836bffffffffffffffffffffffff160217905550505b505b610d49600260008673ffffffffffffffffffffffffffffffffffffffff1673ffffffffffffffffffffffffffffffffffffffff16815260200190815260200160002060009054906101000a90046bffffffffffffffffffffffff1683604051806060016040528060268152602001611b7860269139611030565b600260008673ffffffffffffffffffffffffffffffffffffffff1673ffffffffffffffffffffffffffffffffffffffff16815260200190815260200160002060006101000a8154816bffffffffffffffffffffffff02191690836bffffffffffffffffffffffff160217905550610df26000809054906101000a90046bffffffffffffffffffffffff16836040518060600160405280602a8152602001611bc2602a9139611030565b6000806101000a8154816bffffffffffffffffffffffff02191690836bffffffffffffffffffffffff160217905550600073ffffffffffffffffffffffffffffffffffffffff168473ffffffffffffffffffffffffffffffffffffffff167fddf252ad1be2c89b69c2b068fc378daa952ba7f163c4a11628f55a4df523b3ef84604051610e7f919061199d565b60405180910390a350505050565b600080610eb283604051806060016040528060258152602001611c4b60259139610fd2565b9050610ebf3385836110a1565b600191505092915050565b80600360006101000a81548173ffffffffffffffffffffffffffffffffffffffff021916908373ffffffffffffffffffffffffffffffffffffffff16021790555050565b6000600160008473ffffffffffffffffffffffffffffffffffffffff1673ffffffffffffffffffffffffffffffffffffffff16815260200190815260200160002060008373ffffffffffffffffffffffffffffffffffffffff1673ffffffffffffffffffffffffffffffffffffffff16815260200190815260200160002060009054906101000a90046bffffffffffffffffffffffff166bffffffffffffffffffffffff16905092915050565b604051610fc79061185d565b604051809103902081565b60006c0100000000000000000000000083108290611026576040517f08c379a000000000000000000000000000000000000000000000000000000000815260040161101d91906118e5565b60405180910390fd5b5082905092915050565b6000836bffffffffffffffffffffffff16836bffffffffffffffffffffffff1611158290611094576040517f08c379a000000000000000000000000000000000000000000000000000000000815260040161108b91906118e5565b60405180910390fd5b5082840390509392505050565b600073ffffffffffffffffffffffffffffffffffffffff168373ffffffffffffffffffffffffffffffffffffffff161415611111576040517f08c379a000000000000000000000000000000000000000000000000000000000815260040161110890611947565b60405180910390fd5b600073ffffffffffffffffffffffffffffffffffffffff168273ffffffffffffffffffffffffffffffffffffffff161415611181576040517f08c379a000000000000000000000000000000000000000000000000000000000815260040161117890611907565b60405180910390fd5b6111fb600260008573ffffffffffffffffffffffffffffffffffffffff1673ffffffffffffffffffffffffffffffffffffffff16815260200190815260200160002060009054906101000a90046bffffffffffffffffffffffff1682604051806060016040528060358152602001611b0160359139611030565b600260008573ffffffffffffffffffffffffffffffffffffffff1673ffffffffffffffffffffffffffffffffffffffff16815260200190815260200160002060006101000a8154816bffffffffffffffffffffffff02191690836bffffffffffffffffffffffff1602179055506112e2600260008473ffffffffffffffffffffffffffffffffffffffff1673ffffffffffffffffffffffffffffffffffffffff16815260200190815260200160002060009054906101000a90046bffffffffffffffffffffffff16826040518060600160405280602f8152602001611c1c602f91396113b9565b600260008473ffffffffffffffffffffffffffffffffffffffff1673ffffffffffffffffffffffffffffffffffffffff16815260200190815260200160002060006101000a8154816bffffffffffffffffffffffff02191690836bffffffffffffffffffffffff1602179055508173ffffffffffffffffffffffffffffffffffffffff168373ffffffffffffffffffffffffffffffffffffffff167fddf252ad1be2c89b69c2b068fc378daa952ba7f163c4a11628f55a4df523b3ef836040516113ac919061199d565b60405180910390a3505050565b6000808385019050846bffffffffffffffffffffffff16816bffffffffffffffffffffffff1610158390611423576040517f08c379a000000000000000000000000000000000000000000000000000000000815260040161141a91906118e5565b60405180910390fd5b50809150509392505050565b60008135905061143e81611ad2565b92915050565b60008135905061145381611ae9565b92915050565b60006020828403121561146b57600080fd5b60006114798482850161142f565b91505092915050565b6000806040838503121561149557600080fd5b60006114a38582860161142f565b92505060206114b48582860161142f565b9150509250929050565b6000806000606084860312156114d357600080fd5b60006114e18682870161142f565b93505060206114f28682870161142f565b925050604061150386828701611444565b9150509250925092565b6000806040838503121561152057600080fd5b600061152e8582860161142f565b925050602061153f85828601611444565b9150509250929050565b61155281611a05565b82525050565b61156181611a17565b82525050565b61157081611a23565b82525050565b6000611581826119de565b61158b81856119e9565b935061159b818560208601611a8e565b6115a481611ac1565b840191505092915050565b60006115ba826119d3565b6115c481856119e9565b93506115d4818560208601611a8e565b6115dd81611ac1565b840191505092915050565b60006115f56039836119e9565b91507f4844533a3a5f7472616e73666572546f6b656e733a2063616e6e6f742074726160008301527f6e7366657220746f20746865207a65726f2061646472657373000000000000006020830152604082019050919050565b600061165b6043836119fa565b91507f454950373132446f6d61696e28737472696e67206e616d652c75696e7432353660008301527f20636861696e49642c6164647265737320766572696679696e67436f6e74726160208301527f63742900000000000000000000000000000000000000000000000000000000006040830152604382019050919050565b60006116e76026836119e9565b91507f5468652063616c6c6572206d7573742062652061207375706572696f7220636f60008301527f6e747261637400000000000000000000000000000000000000000000000000006020830152604082019050919050565b600061174d603a836119fa565b91507f44656c65676174696f6e28616464726573732064656c6567617465652c75696e60008301527f74323536206e6f6e63652c75696e7432353620657870697279290000000000006020830152603a82019050919050565b60006117b3603b836119e9565b91507f4844533a3a5f7472616e73666572546f6b656e733a2063616e6e6f742074726160008301527f6e736665722066726f6d20746865207a65726f206164647265737300000000006020830152604082019050919050565b61181581611a4d565b82525050565b61182481611a57565b82525050565b61183381611a7c565b82525050565b61184281611a64565b82525050565b60006118538261164e565b9150819050919050565b600061186882611740565b9150819050919050565b60006020820190506118876000830184611549565b92915050565b60006020820190506118a26000830184611558565b92915050565b60006020820190506118bd6000830184611567565b92915050565b600060208201905081810360008301526118dd81846115af565b905092915050565b600060208201905081810360008301526118ff8184611576565b905092915050565b60006020820190508181036000830152611920816115e8565b9050919050565b60006020820190508181036000830152611940816116da565b9050919050565b60006020820190508181036000830152611960816117a6565b9050919050565b600060208201905061197c600083018461180c565b92915050565b6000602082019050611997600083018461181b565b92915050565b60006020820190506119b2600083018461182a565b92915050565b60006020820190506119cd6000830184611839565b92915050565b600081519050919050565b600081519050919050565b600082825260208201905092915050565b600081905092915050565b6000611a1082611a2d565b9050919050565b60008115159050919050565b6000819050919050565b600073ffffffffffffffffffffffffffffffffffffffff82169050919050565b6000819050919050565b600060ff82169050919050565b60006bffffffffffffffffffffffff82169050919050565b6000611a8782611a64565b9050919050565b60005b83811015611aac578082015181840152602081019050611a91565b83811115611abb576000848401525b50505050565b6000601f19601f8301169050919050565b611adb81611a05565b8114611ae657600080fd5b50565b611af281611a4d565b8114611afd57600080fd5b5056fe4844533a3a5f7472616e73666572546f6b656e733a207472616e7366657220616d6f756e7420657863656564732062616c616e63654844533a3a6d696e743a20616d6f756e74206578636565647320393620626974734844533a3a6275726e3a20616d6f756e74206578636565647320393620626974734844533a3a6275726e3a206275726e20616d6f756e7420657863656564732062616c616e63654844533a3a617070726f76653a20616d6f756e74206578636565647320393620626974734844533a3a6275726e3a206275726e20616d6f756e74206578636565647320746f74616c537570706c794844533a3a6275726e3a206275726e20616d6f756e742065786365656473207370656e64657220616c6c6f77616e63654844533a3a5f7472616e73666572546f6b656e733a207472616e7366657220616d6f756e74206f766572666c6f77734844533a3a7472616e736665723a20616d6f756e74206578636565647320393620626974734844533a3a7472616e7366657246726f6d3a207472616e7366657220616d6f756e742065786365656473207370656e64657220616c6c6f77616e6365a2646970667358221220f88aaeb21e143d86d0acd4b4a6c2f96c53a2f533780d81637939a3990ac3e7b064736f6c63430006000033",
  "source": "pragma solidity ^0.6.0;\npragma experimental ABIEncoderV2;\n\ncontract DOL {\n\t/// @notice EIP-20 token name for this token\n\tstring public constant name = \"DOL Stablecoin\";\n\n\t/// @notice EIP-20 token symbol for this token\n\tstring public constant symbol = \"DOL\";\n\n\t/// @notice EIP-20 token decimals for this token\n\tuint8 public constant decimals = 8;\n\n\t/// @notice Total number of tokens in circulation\n\tuint96 public totalSupply;\n\n\t/// @notice Allowance amounts on behalf of others\n\tmapping(address => mapping(address => uint96)) internal allowances;\n\n\t/// @notice Official record of token balances for each account\n\tmapping(address => uint96) internal balances;\n\n\t/// @notice The EIP-712 typehash for the contract's domain\n\tbytes32 public constant DOMAIN_TYPEHASH = keccak256(\n\t\t\"EIP712Domain(string name,uint256 chainId,address verifyingContract)\"\n\t);\n\n\t/// @notice The EIP-712 typehash for the delegation struct used by the contract\n\tbytes32 public constant DELEGATION_TYPEHASH = keccak256(\"Delegation(address delegatee,uint256 nonce,uint256 expiry)\");\n\n\t/// @notice The market controller address that have the auth to mint or burn tokens\n\taddress public superior;\n\n\t/// @notice The standard EIP-20 transfer event\n\tevent Transfer(address indexed from, address indexed to, uint256 amount);\n\n\t/// @notice The standard EIP-20 approval event\n\tevent Approval(address indexed owner, address indexed spender, uint256 amount);\n\n\t/// @notice For safety auditor: the superior should be the deployed MarketController contract address\n\tmodifier onlySuperior {\n\t\trequire(superior == msg.sender, \"The caller must be a superior contract\");\n\t\t_;\n\t}\n\n\tfunction initialize(address _superior) external {\n\t\tsuperior = _superior;\n\t}\n\n\t/**\n\t * @notice Get the number of tokens `spender` is approved to spend on behalf of `account`\n\t * @param account The address of the account holding the funds\n\t * @param spender The address of the account spending the funds\n\t * @return The number of tokens approved\n\t */\n\tfunction allowance(address account, address spender) external view returns (uint256) {\n\t\treturn allowances[account][spender];\n\t}\n\n\t/**\n\t * @notice Approve `spender` to transfer up to `amount` from `src`\n\t * @dev This will overwrite the approval amount for `spender`\n\t *  and is subject to issues noted [here](https://eips.ethereum.org/EIPS/eip-20#approve)\n\t * @param spender The address of the account which may transfer tokens\n\t * @param rawAmount The number of tokens that are approved (2^256-1 means infinite)\n\t * @return Whether or not the approval succeeded\n\t */\n\tfunction approve(address spender, uint256 rawAmount) external returns (bool) {\n\t\tuint96 amount;\n\t\tif (rawAmount == uint256(-1)) {\n\t\t\tamount = uint96(-1);\n\t\t} else {\n\t\t\tamount = safe96(rawAmount, \"HDS::approve: amount exceeds 96 bits\");\n\t\t}\n\n\t\tallowances[msg.sender][spender] = amount;\n\n\t\temit Approval(msg.sender, spender, amount);\n\t\treturn true;\n\t}\n\n\t/**\n\t * @notice Get the number of tokens held by the `account`\n\t * @param account The address of the account to get the balance of\n\t * @return The number of tokens held\n\t */\n\tfunction balanceOf(address account) external view returns (uint256) {\n\t\treturn balances[account];\n\t}\n\n\t/**\n\t * @notice Transfer `amount` tokens from `msg.sender` to `dst`\n\t * @param dst The address of the destination account\n\t * @param rawAmount The number of tokens to transfer\n\t * @return Whether or not the transfer succeeded\n\t */\n\tfunction transfer(address dst, uint256 rawAmount) external returns (bool) {\n\t\tuint96 amount = safe96(rawAmount, \"HDS::transfer: amount exceeds 96 bits\");\n\t\t_transferTokens(msg.sender, dst, amount);\n\t\treturn true;\n\t}\n\n\t/**\n\t * @notice Transfer `amount` tokens from `src` to `dst`\n\t * @param src The address of the source account\n\t * @param dst The address of the destination account\n\t * @param rawAmount The number of tokens to transfer\n\t * @return Whether or not the transfer succeeded\n\t */\n\tfunction transferFrom(\n\t\taddress src,\n\t\taddress dst,\n\t\tuint256 rawAmount\n\t) external returns (bool) {\n\t\taddress spender = msg.sender;\n\t\tuint96 spenderAllowance = allowances[src][spender];\n\t\tuint96 amount = safe96(rawAmount, \"HDS::approve: amount exceeds 96 bits\");\n\n\t\tif (spender != src && spenderAllowance != uint96(-1)) {\n\t\t\tuint96 newAllowance = sub96(\n\t\t\t\tspenderAllowance,\n\t\t\t\tamount,\n\t\t\t\t\"HDS::transferFrom: transfer amount exceeds spender allowance\"\n\t\t\t);\n\t\t\tallowances[src][spender] = newAllowance;\n\t\t}\n\n\t\t_transferTokens(src, dst, amount);\n\t\treturn true;\n\t}\n\n\t/**\n\t * @notice Mint `amount` tokens for 'account'\n\t * @param account The address to receive the mint tokens\n\t * @param rawAmount The number of tokens to mint\n\t */\n\tfunction mint(address account, uint256 rawAmount) external onlySuperior {\n\t\t// TODO auth validate\n\t\tuint96 amount = safe96(rawAmount, \"HDS::mint: amount exceeds 96 bits\");\n\t\tbalances[account] = add96(balances[account], amount, \"HDS::mint: balance overflows\");\n\t\ttotalSupply = add96(totalSupply, amount, \"HDS::mint: totalSupply overflows\");\n\t\temit Transfer(address(0), account, amount);\n\t}\n\n\t/**\n\t * @notice Burn `amount` tokens for 'account'\n\t * @param account The address to burn tokens\n\t * @param rawAmount The number of tokens to burn\n\t */\n\tfunction burn(address account, uint256 rawAmount) external {\n\t\tuint96 amount = safe96(rawAmount, \"HDS::burn: amount exceeds 96 bits\");\n\t\taddress spender = msg.sender;\n\t\tif (account != spender) {\n\t\t\tuint96 spenderAllowance = allowances[account][spender];\n\t\t\tif (spenderAllowance != uint96(-1)) {\n\t\t\t\tuint96 newAllowance = sub96(spenderAllowance, amount, \"HDS::burn: burn amount exceeds spender allowance\");\n\t\t\t\tallowances[account][spender] = newAllowance;\n\t\t\t}\n\t\t}\n\t\tbalances[account] = sub96(balances[account], amount, \"HDS::burn: burn amount exceeds balance\");\n\t\ttotalSupply = sub96(totalSupply, amount, \"HDS::burn: burn amount exceeds totalSupply\");\n\t\temit Transfer(account, address(0), amount);\n\t}\n\n\tfunction _transferTokens(\n\t\taddress src,\n\t\taddress dst,\n\t\tuint96 amount\n\t) internal {\n\t\trequire(src != address(0), \"HDS::_transferTokens: cannot transfer from the zero address\");\n\t\trequire(dst != address(0), \"HDS::_transferTokens: cannot transfer to the zero address\");\n\n\t\tbalances[src] = sub96(balances[src], amount, \"HDS::_transferTokens: transfer amount exceeds balance\");\n\t\tbalances[dst] = add96(balances[dst], amount, \"HDS::_transferTokens: transfer amount overflows\");\n\t\temit Transfer(src, dst, amount);\n\t}\n\n\tfunction safe32(uint256 n, string memory errorMessage) internal pure returns (uint32) {\n\t\trequire(n < 2**32, errorMessage);\n\t\treturn uint32(n);\n\t}\n\n\tfunction safe96(uint256 n, string memory errorMessage) internal pure returns (uint96) {\n\t\trequire(n < 2**96, errorMessage);\n\t\treturn uint96(n);\n\t}\n\n\tfunction add96(\n\t\tuint96 a,\n\t\tuint96 b,\n\t\tstring memory errorMessage\n\t) internal pure returns (uint96) {\n\t\tuint96 c = a + b;\n\t\trequire(c >= a, errorMessage);\n\t\treturn c;\n\t}\n\n\tfunction sub96(\n\t\tuint96 a,\n\t\tuint96 b,\n\t\tstring memory errorMessage\n\t) internal pure returns (uint96) {\n\t\trequire(b <= a, errorMessage);\n\t\treturn a - b;\n\t}\n}\n",
  "sourcePath": "/hades/evm-contracts/src/DOL.sol",
  "compiler": {
    "name": "solc",
    "version": "0.6.0+commit.26b70077.Emscripten.clang"
  },
  "schemaVersion": "3.2.4",
  "updatedAt": "2020-10-27T12:03:42.926Z",
  "networkType": "ethereum",
  "devdoc": {
    "methods": {
      "allowance(address,address)": {
        "params": {
          "account": "The address of the account holding the funds",
          "spender": "The address of the account spending the funds"
        },
        "returns": {
          "_0": "The number of tokens approved"
        }
      },
      "approve(address,uint256)": {
        "details": "This will overwrite the approval amount for `spender` and is subject to issues noted [here](https://eips.ethereum.org/EIPS/eip-20#approve)",
        "params": {
          "rawAmount": "The number of tokens that are approved (2^256-1 means infinite)",
          "spender": "The address of the account which may transfer tokens"
        },
        "returns": {
          "_0": "Whether or not the approval succeeded"
        }
      },
      "balanceOf(address)": {
        "params": {
          "account": "The address of the account to get the balance of"
        },
        "returns": {
          "_0": "The number of tokens held"
        }
      },
      "burn(address,uint256)": {
        "params": {
          "account": "The address to burn tokens",
          "rawAmount": "The number of tokens to burn"
        }
      },
      "mint(address,uint256)": {
        "params": {
          "account": "The address to receive the mint tokens",
          "rawAmount": "The number of tokens to mint"
        }
      },
      "transfer(address,uint256)": {
        "params": {
          "dst": "The address of the destination account",
          "rawAmount": "The number of tokens to transfer"
        },
        "returns": {
          "_0": "Whether or not the transfer succeeded"
        }
      },
      "transferFrom(address,address,uint256)": {
        "params": {
          "dst": "The address of the destination account",
          "rawAmount": "The number of tokens to transfer",
          "src": "The address of the source account"
        },
        "returns": {
          "_0": "Whether or not the transfer succeeded"
        }
      }
    }
  },
  "userdoc": {
    "methods": {
      "allowance(address,address)": {
        "notice": "Get the number of tokens `spender` is approved to spend on behalf of `account`"
      },
      "approve(address,uint256)": {
        "notice": "Approve `spender` to transfer up to `amount` from `src`"
      },
      "balanceOf(address)": {
        "notice": "Get the number of tokens held by the `account`"
      },
      "burn(address,uint256)": {
        "notice": "Burn `amount` tokens for 'account'"
      },
      "mint(address,uint256)": {
        "notice": "Mint `amount` tokens for 'account'"
      },
      "transfer(address,uint256)": {
        "notice": "Transfer `amount` tokens from `msg.sender` to `dst`"
      },
      "transferFrom(address,address,uint256)": {
        "notice": "Transfer `amount` tokens from `src` to `dst`"
      }
    }
  }
}