{
  "contractName": "Governance",
  "abi": [
    {
      "anonymous": false,
      "inputs": [
        {
          "indexed": false,
          "internalType": "uint256",
          "name": "id",
          "type": "uint256"
        }
      ],
      "name": "ProposalCanceled",
      "type": "event"
    },
    {
      "anonymous": false,
      "inputs": [
        {
          "indexed": false,
          "internalType": "uint256",
          "name": "id",
          "type": "uint256"
        },
        {
          "indexed": false,
          "internalType": "address",
          "name": "proposer",
          "type": "address"
        },
        {
          "indexed": false,
          "internalType": "address[]",
          "name": "targets",
          "type": "address[]"
        },
        {
          "indexed": false,
          "internalType": "uint256[]",
          "name": "values",
          "type": "uint256[]"
        },
        {
          "indexed": false,
          "internalType": "string[]",
          "name": "signatures",
          "type": "string[]"
        },
        {
          "indexed": false,
          "internalType": "bytes[]",
          "name": "calldatas",
          "type": "bytes[]"
        },
        {
          "indexed": false,
          "internalType": "uint256",
          "name": "startBlock",
          "type": "uint256"
        },
        {
          "indexed": false,
          "internalType": "uint256",
          "name": "endBlock",
          "type": "uint256"
        },
        {
          "indexed": false,
          "internalType": "string",
          "name": "description",
          "type": "string"
        }
      ],
      "name": "ProposalCreated",
      "type": "event"
    },
    {
      "anonymous": false,
      "inputs": [
        {
          "indexed": false,
          "internalType": "uint256",
          "name": "id",
          "type": "uint256"
        }
      ],
      "name": "ProposalExecuted",
      "type": "event"
    },
    {
      "anonymous": false,
      "inputs": [
        {
          "indexed": false,
          "internalType": "uint256",
          "name": "id",
          "type": "uint256"
        },
        {
          "indexed": false,
          "internalType": "uint256",
          "name": "eta",
          "type": "uint256"
        }
      ],
      "name": "ProposalQueued",
      "type": "event"
    },
    {
      "anonymous": false,
      "inputs": [
        {
          "indexed": false,
          "internalType": "address",
          "name": "voter",
          "type": "address"
        },
        {
          "indexed": false,
          "internalType": "uint256",
          "name": "proposalId",
          "type": "uint256"
        },
        {
          "indexed": false,
          "internalType": "bool",
          "name": "support",
          "type": "bool"
        },
        {
          "indexed": false,
          "internalType": "uint256",
          "name": "votes",
          "type": "uint256"
        }
      ],
      "name": "VoteCast",
      "type": "event"
    },
    {
      "inputs": [],
      "name": "BALLOT_TYPEHASH",
      "outputs": [
        {
          "internalType": "bytes32",
          "name": "",
          "type": "bytes32"
        }
      ],
      "stateMutability": "view",
      "type": "function"
    },
    {
      "inputs": [],
      "name": "DOMAIN_TYPEHASH",
      "outputs": [
        {
          "internalType": "bytes32",
          "name": "",
          "type": "bytes32"
        }
      ],
      "stateMutability": "view",
      "type": "function"
    },
    {
      "inputs": [],
      "name": "guardian",
      "outputs": [
        {
          "internalType": "address",
          "name": "",
          "type": "address"
        }
      ],
      "stateMutability": "view",
      "type": "function"
    },
    {
      "inputs": [],
      "name": "hds",
      "outputs": [
        {
          "internalType": "contract HDSInterface",
          "name": "",
          "type": "address"
        }
      ],
      "stateMutability": "view",
      "type": "function"
    },
    {
      "inputs": [
        {
          "internalType": "address",
          "name": "",
          "type": "address"
        }
      ],
      "name": "latestProposalIds",
      "outputs": [
        {
          "internalType": "uint256",
          "name": "",
          "type": "uint256"
        }
      ],
      "stateMutability": "view",
      "type": "function"
    },
    {
      "inputs": [],
      "name": "name",
      "outputs": [
        {
          "internalType": "string",
          "name": "",
          "type": "string"
        }
      ],
      "stateMutability": "view",
      "type": "function"
    },
    {
      "inputs": [],
      "name": "proposalCount",
      "outputs": [
        {
          "internalType": "uint256",
          "name": "",
          "type": "uint256"
        }
      ],
      "stateMutability": "view",
      "type": "function"
    },
    {
      "inputs": [
        {
          "internalType": "uint256",
          "name": "",
          "type": "uint256"
        }
      ],
      "name": "proposals",
      "outputs": [
        {
          "internalType": "uint256",
          "name": "id",
          "type": "uint256"
        },
        {
          "internalType": "address",
          "name": "proposer",
          "type": "address"
        },
        {
          "internalType": "uint256",
          "name": "eta",
          "type": "uint256"
        },
        {
          "internalType": "uint256",
          "name": "startBlock",
          "type": "uint256"
        },
        {
          "internalType": "uint256",
          "name": "endBlock",
          "type": "uint256"
        },
        {
          "internalType": "uint256",
          "name": "forVotes",
          "type": "uint256"
        },
        {
          "internalType": "uint256",
          "name": "againstVotes",
          "type": "uint256"
        },
        {
          "internalType": "bool",
          "name": "canceled",
          "type": "bool"
        },
        {
          "internalType": "bool",
          "name": "executed",
          "type": "bool"
        }
      ],
      "stateMutability": "view",
      "type": "function"
    },
    {
      "inputs": [],
      "name": "timelock",
      "outputs": [
        {
          "internalType": "contract TimelockInterface",
          "name": "",
          "type": "address"
        }
      ],
      "stateMutability": "view",
      "type": "function"
    },
    {
      "inputs": [],
      "name": "quorumVotes",
      "outputs": [
        {
          "internalType": "uint256",
          "name": "",
          "type": "uint256"
        }
      ],
      "stateMutability": "pure",
      "type": "function"
    },
    {
      "inputs": [],
      "name": "proposalThreshold",
      "outputs": [
        {
          "internalType": "uint256",
          "name": "",
          "type": "uint256"
        }
      ],
      "stateMutability": "pure",
      "type": "function"
    },
    {
      "inputs": [],
      "name": "proposalMaxOperations",
      "outputs": [
        {
          "internalType": "uint256",
          "name": "",
          "type": "uint256"
        }
      ],
      "stateMutability": "pure",
      "type": "function"
    },
    {
      "inputs": [],
      "name": "votingDelay",
      "outputs": [
        {
          "internalType": "uint256",
          "name": "",
          "type": "uint256"
        }
      ],
      "stateMutability": "pure",
      "type": "function"
    },
    {
      "inputs": [],
      "name": "votingPeriod",
      "outputs": [
        {
          "internalType": "uint256",
          "name": "",
          "type": "uint256"
        }
      ],
      "stateMutability": "pure",
      "type": "function"
    },
    {
      "inputs": [
        {
          "internalType": "address",
          "name": "_guardian",
          "type": "address"
        },
        {
          "internalType": "address",
          "name": "_timelock",
          "type": "address"
        },
        {
          "internalType": "address",
          "name": "_hds",
          "type": "address"
        }
      ],
      "name": "initialize",
      "outputs": [],
      "stateMutability": "nonpayable",
      "type": "function"
    },
    {
      "inputs": [
        {
          "internalType": "address[]",
          "name": "targets",
          "type": "address[]"
        },
        {
          "internalType": "uint256[]",
          "name": "values",
          "type": "uint256[]"
        },
        {
          "internalType": "string[]",
          "name": "signatures",
          "type": "string[]"
        },
        {
          "internalType": "bytes[]",
          "name": "calldatas",
          "type": "bytes[]"
        },
        {
          "internalType": "string",
          "name": "description",
          "type": "string"
        }
      ],
      "name": "propose",
      "outputs": [
        {
          "internalType": "uint256",
          "name": "",
          "type": "uint256"
        }
      ],
      "stateMutability": "nonpayable",
      "type": "function"
    },
    {
      "inputs": [
        {
          "internalType": "uint256",
          "name": "proposalId",
          "type": "uint256"
        }
      ],
      "name": "queue",
      "outputs": [],
      "stateMutability": "nonpayable",
      "type": "function"
    },
    {
      "inputs": [
        {
          "internalType": "uint256",
          "name": "proposalId",
          "type": "uint256"
        }
      ],
      "name": "execute",
      "outputs": [],
      "stateMutability": "payable",
      "type": "function"
    },
    {
      "inputs": [
        {
          "internalType": "uint256",
          "name": "proposalId",
          "type": "uint256"
        }
      ],
      "name": "cancel",
      "outputs": [],
      "stateMutability": "nonpayable",
      "type": "function"
    },
    {
      "inputs": [
        {
          "internalType": "uint256",
          "name": "proposalId",
          "type": "uint256"
        }
      ],
      "name": "getActions",
      "outputs": [
        {
          "internalType": "address[]",
          "name": "targets",
          "type": "address[]"
        },
        {
          "internalType": "uint256[]",
          "name": "values",
          "type": "uint256[]"
        },
        {
          "internalType": "string[]",
          "name": "signatures",
          "type": "string[]"
        },
        {
          "internalType": "bytes[]",
          "name": "calldatas",
          "type": "bytes[]"
        }
      ],
      "stateMutability": "view",
      "type": "function"
    },
    {
      "inputs": [
        {
          "internalType": "uint256",
          "name": "proposalId",
          "type": "uint256"
        },
        {
          "internalType": "address",
          "name": "voter",
          "type": "address"
        }
      ],
      "name": "getReceipt",
      "outputs": [
        {
          "components": [
            {
              "internalType": "bool",
              "name": "hasVoted",
              "type": "bool"
            },
            {
              "internalType": "bool",
              "name": "support",
              "type": "bool"
            },
            {
              "internalType": "uint96",
              "name": "votes",
              "type": "uint96"
            }
          ],
          "internalType": "struct Governance.Receipt",
          "name": "",
          "type": "tuple"
        }
      ],
      "stateMutability": "view",
      "type": "function"
    },
    {
      "inputs": [
        {
          "internalType": "uint256",
          "name": "proposalId",
          "type": "uint256"
        }
      ],
      "name": "state",
      "outputs": [
        {
          "internalType": "enum Governance.ProposalState",
          "name": "",
          "type": "uint8"
        }
      ],
      "stateMutability": "view",
      "type": "function"
    },
    {
      "inputs": [
        {
          "internalType": "uint256",
          "name": "proposalId",
          "type": "uint256"
        },
        {
          "internalType": "bool",
          "name": "support",
          "type": "bool"
        }
      ],
      "name": "castVote",
      "outputs": [],
      "stateMutability": "nonpayable",
      "type": "function"
    },
    {
      "inputs": [
        {
          "internalType": "uint256",
          "name": "proposalId",
          "type": "uint256"
        },
        {
          "internalType": "bool",
          "name": "support",
          "type": "bool"
        },
        {
          "internalType": "uint8",
          "name": "v",
          "type": "uint8"
        },
        {
          "internalType": "bytes32",
          "name": "r",
          "type": "bytes32"
        },
        {
          "internalType": "bytes32",
          "name": "s",
          "type": "bytes32"
        }
      ],
      "name": "castVoteBySig",
      "outputs": [],
      "stateMutability": "nonpayable",
      "type": "function"
    },
    {
      "inputs": [],
      "name": "__acceptAdmin",
      "outputs": [],
      "stateMutability": "nonpayable",
      "type": "function"
    },
    {
      "inputs": [],
      "name": "__abdicate",
      "outputs": [],
      "stateMutability": "nonpayable",
      "type": "function"
    },
    {
      "inputs": [
        {
          "internalType": "address",
          "name": "newPendingAdmin",
          "type": "address"
        },
        {
          "internalType": "uint256",
          "name": "eta",
          "type": "uint256"
        }
      ],
      "name": "__queueSetTimelockPendingAdmin",
      "outputs": [],
      "stateMutability": "nonpayable",
      "type": "function"
    },
    {
      "inputs": [
        {
          "internalType": "address",
          "name": "newPendingAdmin",
          "type": "address"
        },
        {
          "internalType": "uint256",
          "name": "eta",
          "type": "uint256"
        }
      ],
      "name": "__executeSetTimelockPendingAdmin",
      "outputs": [],
      "stateMutability": "nonpayable",
      "type": "function"
    }
  ],
  "bytecode": "0x608060405234801561001057600080fd5b5061539e806100206000396000f3fe6080604052600436106101b75760003560e01c8063760fbc13116100ec578063d33219b41161008a578063ddf0b00911610064578063ddf0b009146105f5578063deaaa7cc1461061e578063e23a9a5214610649578063fe0d94c114610686576101b7565b8063d33219b414610562578063da35c6641461058d578063da95691a146105b8576101b7565b806391500671116100c657806391500671146104ce578063b58131b0146104f7578063b9a6196114610522578063c0c53b8b14610539576101b7565b8063760fbc1314610461578063764b0c57146104785780637bdbe4d0146104a3576101b7565b806324bc1a64116101595780633e4f49e6116101335780633e4f49e6146103a757806340e58ee5146103e4578063452a93201461040d5780634634c61f14610438576101b7565b806324bc1a6414610311578063328dd9821461033c5780633932abb11461037c576101b7565b806315373e3d1161019557806315373e3d1461025757806317977c611461028057806320606b70146102bd57806321f43e42146102e8576101b7565b8063013cf08b146101bc57806302a251a31461020157806306fdde031461022c575b600080fd5b3480156101c857600080fd5b506101e360048036036101de91908101906134cb565b6106a2565b6040516101f899989796959493929190614d7a565b60405180910390f35b34801561020d57600080fd5b5061021661072a565b6040516102239190614caf565b60405180910390f35b34801561023857600080fd5b50610241610734565b60405161024e91906149d2565b60405180910390f35b34801561026357600080fd5b5061027e60048036036102799190810190613559565b61076d565b005b34801561028c57600080fd5b506102a760048036036102a29190810190613295565b61077c565b6040516102b49190614caf565b60405180910390f35b3480156102c957600080fd5b506102d2610794565b6040516102df91906148a5565b60405180910390f35b3480156102f457600080fd5b5061030f600480360361030a919081019061330d565b6107ab565b005b34801561031d57600080fd5b50610326610938565b6040516103339190614caf565b60405180910390f35b34801561034857600080fd5b50610363600480360361035e91908101906134cb565b61094a565b6040516103739493929190614844565b60405180910390f35b34801561038857600080fd5b50610391610c27565b60405161039e9190614caf565b60405180910390f35b3480156103b357600080fd5b506103ce60048036036103c991908101906134cb565b610c30565b6040516103db91906149b7565b60405180910390f35b3480156103f057600080fd5b5061040b600480360361040691908101906134cb565b610e14565b005b34801561041957600080fd5b506104226111b0565b60405161042f9190614671565b60405180910390f35b34801561044457600080fd5b5061045f600480360361045a9190810190613595565b6111d6565b005b34801561046d57600080fd5b506104766113a5565b005b34801561048457600080fd5b5061048d611479565b60405161049a9190614981565b60405180910390f35b3480156104af57600080fd5b506104b861149f565b6040516104c59190614caf565b60405180910390f35b3480156104da57600080fd5b506104f560048036036104f0919081019061330d565b6114a8565b005b34801561050357600080fd5b5061050c611630565b6040516105199190614caf565b60405180910390f35b34801561052e57600080fd5b50610537611642565b005b34801561054557600080fd5b50610560600480360361055b91908101906132be565b611755565b005b34801561056e57600080fd5b5061057761181c565b604051610584919061499c565b60405180910390f35b34801561059957600080fd5b506105a2611841565b6040516105af9190614caf565b60405180910390f35b3480156105c457600080fd5b506105df60048036036105da9190810190613349565b611847565b6040516105ec9190614caf565b60405180910390f35b34801561060157600080fd5b5061061c600480360361061791908101906134cb565b611e14565b005b34801561062a57600080fd5b50610633612163565b60405161064091906148a5565b60405180910390f35b34801561065557600080fd5b50610670600480360361066b919081019061351d565b61217a565b60405161067d9190614c94565b60405180910390f35b6106a0600480360361069b91908101906134cb565b61225c565b005b60046020528060005260406000206000915090508060000154908060010160009054906101000a900473ffffffffffffffffffffffffffffffffffffffff169080600201549080600701549080600801549080600901549080600a01549080600b0160009054906101000a900460ff169080600b0160019054906101000a900460ff16905089565b6000614380905090565b6040518060400160405280601081526020017f486164657320476f7665726e616e63650000000000000000000000000000000081525081565b6107783383836124a9565b5050565b60056020528060005260406000206000915090505481565b6040516107a090614647565b604051809103902081565b600260009054906101000a900473ffffffffffffffffffffffffffffffffffffffff1673ffffffffffffffffffffffffffffffffffffffff163373ffffffffffffffffffffffffffffffffffffffff161461083b576040517f08c379a0000000000000000000000000000000000000000000000000000000008152600401610832906149f4565b60405180910390fd5b6000809054906101000a900473ffffffffffffffffffffffffffffffffffffffff1673ffffffffffffffffffffffffffffffffffffffff16630825f38f6000809054906101000a900473ffffffffffffffffffffffffffffffffffffffff166000856040516020016108ad9190614671565b604051602081830303815290604052856040518563ffffffff1660e01b81526004016108dc94939291906146b5565b600060405180830381600087803b1580156108f657600080fd5b505af115801561090a573d6000803e3d6000fd5b505050506040513d6000823e3d601f19601f82011682018060405250610933919081019061348a565b505050565b60006954b40b1f852bda000000905090565b606080606080600060046000878152602001908152602001600020905080600301816004018260050183600601838054806020026020016040519081016040528092919081815260200182805480156109f857602002820191906000526020600020905b8160009054906101000a900473ffffffffffffffffffffffffffffffffffffffff1673ffffffffffffffffffffffffffffffffffffffff16815260200190600101908083116109ae575b5050505050935082805480602002602001604051908101604052809291908181526020018280548015610a4a57602002820191906000526020600020905b815481526020019060010190808311610a36575b5050505050925081805480602002602001604051908101604052809291908181526020016000905b82821015610b2e578382906000526020600020018054600181600116156101000203166002900480601f016020809104026020016040519081016040528092919081815260200182805460018160011615610100020316600290048015610b1a5780601f10610aef57610100808354040283529160200191610b1a565b820191906000526020600020905b815481529060010190602001808311610afd57829003601f168201915b505050505081526020019060010190610a72565b50505050915080805480602002602001604051908101604052809291908181526020016000905b82821015610c11578382906000526020600020018054600181600116156101000203166002900480601f016020809104026020016040519081016040528092919081815260200182805460018160011615610100020316600290048015610bfd5780601f10610bd257610100808354040283529160200191610bfd565b820191906000526020600020905b815481529060010190602001808311610be057829003601f168201915b505050505081526020019060010190610b55565b5050505090509450945094509450509193509193565b60006001905090565b60008160035410158015610c445750600082115b610c83576040517f08c379a0000000000000000000000000000000000000000000000000000000008152600401610c7a90614c14565b60405180910390fd5b600060046000848152602001908152602001600020905080600b0160009054906101000a900460ff1615610cbb576002915050610e0f565b80600701544311610cd0576000915050610e0f565b80600801544311610ce5576001915050610e0f565b80600a01548160090154111580610d065750610cff610938565b8160090154105b15610d15576003915050610e0f565b600081600201541415610d2c576004915050610e0f565b80600b0160019054906101000a900460ff1615610d4d576007915050610e0f565b610df981600201546000809054906101000a900473ffffffffffffffffffffffffffffffffffffffff1673ffffffffffffffffffffffffffffffffffffffff1663c1a287e26040518163ffffffff1660e01b815260040160206040518083038186803b158015610dbc57600080fd5b505afa158015610dd0573d6000803e3d6000fd5b505050506040513d601f19601f82011682018060405250610df491908101906134f4565b612778565b4210610e09576006915050610e0f565b60059150505b919050565b6000610e1f82610c30565b9050600780811115610e2d57fe5b816007811115610e3957fe5b1415610e7a576040517f08c379a0000000000000000000000000000000000000000000000000000000008152600401610e7190614ab4565b60405180910390fd5b6000600460008481526020019081526020016000209050600260009054906101000a900473ffffffffffffffffffffffffffffffffffffffff1673ffffffffffffffffffffffffffffffffffffffff163373ffffffffffffffffffffffffffffffffffffffff161480610fdb5750610ef0611630565b600160009054906101000a900473ffffffffffffffffffffffffffffffffffffffff1673ffffffffffffffffffffffffffffffffffffffff1663782d6fe18360010160009054906101000a900473ffffffffffffffffffffffffffffffffffffffff16610f5e4360016127cd565b6040518363ffffffff1660e01b8152600401610f7b929190614714565b60206040518083038186803b158015610f9357600080fd5b505afa158015610fa7573d6000803e3d6000fd5b505050506040513d601f19601f82011682018060405250610fcb919081019061360c565b6bffffffffffffffffffffffff16105b61101a576040517f08c379a000000000000000000000000000000000000000000000000000000000815260040161101190614bd4565b60405180910390fd5b600181600b0160006101000a81548160ff02191690831515021790555060008090505b8160030180549050811015611173576000809054906101000a900473ffffffffffffffffffffffffffffffffffffffff1673ffffffffffffffffffffffffffffffffffffffff1663591fcdfe83600301838154811061109857fe5b9060005260206000200160009054906101000a900473ffffffffffffffffffffffffffffffffffffffff168460040184815481106110d257fe5b90600052602060002001548560050185815481106110ec57fe5b9060005260206000200186600601868154811061110557fe5b9060005260206000200187600201546040518663ffffffff1660e01b81526004016111349594939291906147e3565b600060405180830381600087803b15801561114e57600080fd5b505af1158015611162573d6000803e3d6000fd5b50505050808060010191505061103d565b507f789cf55be980739dad1d0699b93b58e806b51c9d96619bfa8fe0a28abaa7b30c836040516111a39190614caf565b60405180910390a1505050565b600260009054906101000a900473ffffffffffffffffffffffffffffffffffffffff1681565b60006040516111e490614647565b60405180910390206040518060400160405280601081526020017f486164657320476f7665726e616e6365000000000000000000000000000000008152508051906020012061123161281d565b3060405160200161124594939291906148c0565b604051602081830303815290604052805190602001209050600060405161126b9061465c565b6040518091039020878760405160200161128793929190614905565b604051602081830303815290604052805190602001209050600082826040516020016112b4929190614610565b6040516020818303038152906040528051906020012090506000600182888888604051600081526020016040526040516112f1949392919061493c565b6020604051602081039080840390855afa158015611313573d6000803e3d6000fd5b505050602060405103519050600073ffffffffffffffffffffffffffffffffffffffff168173ffffffffffffffffffffffffffffffffffffffff16141561138f576040517f08c379a000000000000000000000000000000000000000000000000000000000815260040161138690614af4565b60405180910390fd5b61139a818a8a6124a9565b505050505050505050565b600260009054906101000a900473ffffffffffffffffffffffffffffffffffffffff1673ffffffffffffffffffffffffffffffffffffffff163373ffffffffffffffffffffffffffffffffffffffff1614611435576040517f08c379a000000000000000000000000000000000000000000000000000000000815260040161142c90614bb4565b60405180910390fd5b6000600260006101000a81548173ffffffffffffffffffffffffffffffffffffffff021916908373ffffffffffffffffffffffffffffffffffffffff160217905550565b600160009054906101000a900473ffffffffffffffffffffffffffffffffffffffff1681565b6000600a905090565b600260009054906101000a900473ffffffffffffffffffffffffffffffffffffffff1673ffffffffffffffffffffffffffffffffffffffff163373ffffffffffffffffffffffffffffffffffffffff1614611538576040517f08c379a000000000000000000000000000000000000000000000000000000000815260040161152f90614b14565b60405180910390fd5b6000809054906101000a900473ffffffffffffffffffffffffffffffffffffffff1673ffffffffffffffffffffffffffffffffffffffff16633a66f9016000809054906101000a900473ffffffffffffffffffffffffffffffffffffffff166000856040516020016115aa9190614671565b604051602081830303815290604052856040518563ffffffff1660e01b81526004016115d994939291906146b5565b602060405180830381600087803b1580156115f357600080fd5b505af1158015611607573d6000803e3d6000fd5b505050506040513d601f19601f8201168201806040525061162b9190810190613461565b505050565b600069152d02c7e14af6800000905090565b600260009054906101000a900473ffffffffffffffffffffffffffffffffffffffff1673ffffffffffffffffffffffffffffffffffffffff163373ffffffffffffffffffffffffffffffffffffffff16146116d2576040517f08c379a00000000000000000000000000000000000000000000000000000000081526004016116c990614a94565b60405180910390fd5b6000809054906101000a900473ffffffffffffffffffffffffffffffffffffffff1673ffffffffffffffffffffffffffffffffffffffff16630e18b6816040518163ffffffff1660e01b8152600401600060405180830381600087803b15801561173b57600080fd5b505af115801561174f573d6000803e3d6000fd5b50505050565b816000806101000a81548173ffffffffffffffffffffffffffffffffffffffff021916908373ffffffffffffffffffffffffffffffffffffffff16021790555080600160006101000a81548173ffffffffffffffffffffffffffffffffffffffff021916908373ffffffffffffffffffffffffffffffffffffffff16021790555082600260006101000a81548173ffffffffffffffffffffffffffffffffffffffff021916908373ffffffffffffffffffffffffffffffffffffffff160217905550505050565b6000809054906101000a900473ffffffffffffffffffffffffffffffffffffffff1681565b60035481565b6000611851611630565b600160009054906101000a900473ffffffffffffffffffffffffffffffffffffffff1673ffffffffffffffffffffffffffffffffffffffff1663782d6fe13361189b4360016127cd565b6040518363ffffffff1660e01b81526004016118b892919061468c565b60206040518083038186803b1580156118d057600080fd5b505afa1580156118e4573d6000803e3d6000fd5b505050506040513d601f19601f82011682018060405250611908919081019061360c565b6bffffffffffffffffffffffff1611611956576040517f08c379a000000000000000000000000000000000000000000000000000000000815260040161194d90614a54565b60405180910390fd5b84518651148015611968575083518651145b8015611975575082518651145b6119b4576040517f08c379a00000000000000000000000000000000000000000000000000000000081526004016119ab90614a14565b60405180910390fd5b6000865114156119f9576040517f08c379a00000000000000000000000000000000000000000000000000000000081526004016119f090614a74565b60405180910390fd5b611a0161149f565b86511115611a44576040517f08c379a0000000000000000000000000000000000000000000000000000000008152600401611a3b90614bf4565b60405180910390fd5b6000600560003373ffffffffffffffffffffffffffffffffffffffff1673ffffffffffffffffffffffffffffffffffffffff16815260200190815260200160002054905060008114611b53576000611a9b82610c30565b905060016007811115611aaa57fe5b816007811115611ab657fe5b1415611af7576040517f08c379a0000000000000000000000000000000000000000000000000000000008152600401611aee90614c34565b60405180910390fd5b60006007811115611b0457fe5b816007811115611b1057fe5b1415611b51576040517f08c379a0000000000000000000000000000000000000000000000000000000008152600401611b4890614b74565b60405180910390fd5b505b6000611b6643611b61610c27565b612778565b90506000611b7b82611b7661072a565b612778565b9050600360008154809291906001019190505550611b976129fe565b604051806101a0016040528060035481526020013373ffffffffffffffffffffffffffffffffffffffff168152602001600081526020018b81526020018a815260200189815260200188815260200184815260200183815260200160008152602001600081526020016000151581526020016000151581525090508060046000836000015181526020019081526020016000206000820151816000015560208201518160010160006101000a81548173ffffffffffffffffffffffffffffffffffffffff021916908373ffffffffffffffffffffffffffffffffffffffff160217905550604082015181600201556060820151816003019080519060200190611ca1929190612a80565b506080820151816004019080519060200190611cbe929190612b0a565b5060a0820151816005019080519060200190611cdb929190612b57565b5060c0820151816006019080519060200190611cf8929190612bb7565b5060e082015181600701556101008201518160080155610120820151816009015561014082015181600a015561016082015181600b0160006101000a81548160ff02191690831515021790555061018082015181600b0160016101000a81548160ff021916908315150217905550905050806000015160056000836020015173ffffffffffffffffffffffffffffffffffffffff1673ffffffffffffffffffffffffffffffffffffffff168152602001908152602001600020819055507f7d84a6263ae0d98d3329bd7b46bb4e8d6f98cd35a7adb45c274c8b7fd5ebd5e08160000151338c8c8c8c89898e604051611df899989796959493929190614cca565b60405180910390a1806000015194505050505095945050505050565b60046007811115611e2157fe5b611e2a82610c30565b6007811115611e3557fe5b14611e75576040517f08c379a0000000000000000000000000000000000000000000000000000000008152600401611e6c90614ad4565b60405180910390fd5b60006004600083815260200190815260200160002090506000611f36426000809054906101000a900473ffffffffffffffffffffffffffffffffffffffff1673ffffffffffffffffffffffffffffffffffffffff16636a42b8f86040518163ffffffff1660e01b815260040160206040518083038186803b158015611ef957600080fd5b505afa158015611f0d573d6000803e3d6000fd5b505050506040513d601f19601f82011682018060405250611f3191908101906134f4565b612778565b905060008090505b826003018054905081101561211b5761210e836003018281548110611f5f57fe5b9060005260206000200160009054906101000a900473ffffffffffffffffffffffffffffffffffffffff16846004018381548110611f9957fe5b9060005260206000200154856005018481548110611fb357fe5b906000526020600020018054600181600116156101000203166002900480601f0160208091040260200160405190810160405280929190818152602001828054600181600116156101000203166002900480156120515780601f1061202657610100808354040283529160200191612051565b820191906000526020600020905b81548152906001019060200180831161203457829003601f168201915b505050505086600601858154811061206557fe5b906000526020600020018054600181600116156101000203166002900480601f0160208091040260200160405190810160405280929190818152602001828054600181600116156101000203166002900480156121035780601f106120d857610100808354040283529160200191612103565b820191906000526020600020905b8154815290600101906020018083116120e657829003601f168201915b50505050508661282a565b8080600101915050611f3e565b508082600201819055507f9a2e42fd6722813d69113e7d0079d3d940171428df7373df9c7f7617cfda28928382604051612156929190614e07565b60405180910390a1505050565b60405161216f9061465c565b604051809103902081565b612182612c17565b60046000848152602001908152602001600020600c0160008373ffffffffffffffffffffffffffffffffffffffff1673ffffffffffffffffffffffffffffffffffffffff1681526020019081526020016000206040518060600160405290816000820160009054906101000a900460ff161515151581526020016000820160019054906101000a900460ff161515151581526020016000820160029054906101000a90046bffffffffffffffffffffffff166bffffffffffffffffffffffff166bffffffffffffffffffffffff1681525050905092915050565b6005600781111561226957fe5b61227282610c30565b600781111561227d57fe5b146122bd576040517f08c379a00000000000000000000000000000000000000000000000000000000081526004016122b490614c54565b60405180910390fd5b6000600460008381526020019081526020016000209050600181600b0160016101000a81548160ff02191690831515021790555060008090505b816003018054905081101561246d576000809054906101000a900473ffffffffffffffffffffffffffffffffffffffff1673ffffffffffffffffffffffffffffffffffffffff16630825f38f83600401838154811061235257fe5b906000526020600020015484600301848154811061236c57fe5b9060005260206000200160009054906101000a900473ffffffffffffffffffffffffffffffffffffffff168560040185815481106123a657fe5b90600052602060002001548660050186815481106123c057fe5b906000526020600020018760060187815481106123d957fe5b9060005260206000200188600201546040518763ffffffff1660e01b81526004016124089594939291906147e3565b6000604051808303818588803b15801561242157600080fd5b505af1158015612435573d6000803e3d6000fd5b50505050506040513d6000823e3d601f19601f8201168201806040525061245f919081019061348a565b5080806001019150506122f7565b507f712ae1383f79ac853f8d882153778e0260ef8f03b504e2866e0593e04d2b291f8260405161249d9190614caf565b60405180910390a15050565b600160078111156124b657fe5b6124bf83610c30565b60078111156124ca57fe5b1461250a576040517f08c379a000000000000000000000000000000000000000000000000000000000815260040161250190614a34565b60405180910390fd5b6000600460008481526020019081526020016000209050600081600c0160008673ffffffffffffffffffffffffffffffffffffffff1673ffffffffffffffffffffffffffffffffffffffff1681526020019081526020016000209050600015158160000160009054906101000a900460ff161515146125be576040517f08c379a00000000000000000000000000000000000000000000000000000000081526004016125b590614b54565b60405180910390fd5b6000600160009054906101000a900473ffffffffffffffffffffffffffffffffffffffff1673ffffffffffffffffffffffffffffffffffffffff1663782d6fe18785600701546040518363ffffffff1660e01b8152600401612621929190614714565b60206040518083038186803b15801561263957600080fd5b505afa15801561264d573d6000803e3d6000fd5b505050506040513d601f19601f82011682018060405250612671919081019061360c565b905083156126a2576126958360090154826bffffffffffffffffffffffff16612778565b83600901819055506126c7565b6126be83600a0154826bffffffffffffffffffffffff16612778565b83600a01819055505b60018260000160006101000a81548160ff021916908315150217905550838260000160016101000a81548160ff021916908315150217905550808260000160026101000a8154816bffffffffffffffffffffffff02191690836bffffffffffffffffffffffff1602179055507f877856338e13f63d0c36822ff0ef736b80934cd90574a3a5bc9262c39d217c4686868684604051612768949392919061473d565b60405180910390a1505050505050565b6000808284019050838110156127c3576040517f08c379a00000000000000000000000000000000000000000000000000000000081526004016127ba90614b94565b60405180910390fd5b8091505092915050565b600082821115612812576040517f08c379a000000000000000000000000000000000000000000000000000000000815260040161280990614c74565b60405180910390fd5b818303905092915050565b6000804690508091505090565b6000809054906101000a900473ffffffffffffffffffffffffffffffffffffffff1673ffffffffffffffffffffffffffffffffffffffff1663f2b065378686868686604051602001612880959493929190614782565b604051602081830303815290604052805190602001206040518263ffffffff1660e01b81526004016128b291906148a5565b60206040518083038186803b1580156128ca57600080fd5b505afa1580156128de573d6000803e3d6000fd5b505050506040513d601f19601f820116820180604052506129029190810190613438565b15612942576040517f08c379a000000000000000000000000000000000000000000000000000000000815260040161293990614b34565b60405180910390fd5b6000809054906101000a900473ffffffffffffffffffffffffffffffffffffffff1673ffffffffffffffffffffffffffffffffffffffff16633a66f90186868686866040518663ffffffff1660e01b81526004016129a4959493929190614782565b602060405180830381600087803b1580156129be57600080fd5b505af11580156129d2573d6000803e3d6000fd5b505050506040513d601f19601f820116820180604052506129f69190810190613461565b505050505050565b604051806101a0016040528060008152602001600073ffffffffffffffffffffffffffffffffffffffff1681526020016000815260200160608152602001606081526020016060815260200160608152602001600081526020016000815260200160008152602001600081526020016000151581526020016000151581525090565b828054828255906000526020600020908101928215612af9579160200282015b82811115612af85782518260006101000a81548173ffffffffffffffffffffffffffffffffffffffff021916908373ffffffffffffffffffffffffffffffffffffffff16021790555091602001919060010190612aa0565b5b509050612b069190612c4a565b5090565b828054828255906000526020600020908101928215612b46579160200282015b82811115612b45578251825591602001919060010190612b2a565b5b509050612b539190612c8d565b5090565b828054828255906000526020600020908101928215612ba6579160200282015b82811115612ba5578251829080519060200190612b95929190612cb2565b5091602001919060010190612b77565b5b509050612bb39190612d32565b5090565b828054828255906000526020600020908101928215612c06579160200282015b82811115612c05578251829080519060200190612bf5929190612d5e565b5091602001919060010190612bd7565b5b509050612c139190612dde565b5090565b604051806060016040528060001515815260200160001515815260200160006bffffffffffffffffffffffff1681525090565b612c8a91905b80821115612c8657600081816101000a81549073ffffffffffffffffffffffffffffffffffffffff021916905550600101612c50565b5090565b90565b612caf91905b80821115612cab576000816000905550600101612c93565b5090565b90565b828054600181600116156101000203166002900490600052602060002090601f016020900481019282601f10612cf357805160ff1916838001178555612d21565b82800160010185558215612d21579182015b82811115612d20578251825591602001919060010190612d05565b5b509050612d2e9190612c8d565b5090565b612d5b91905b80821115612d575760008181612d4e9190612e0a565b50600101612d38565b5090565b90565b828054600181600116156101000203166002900490600052602060002090601f016020900481019282601f10612d9f57805160ff1916838001178555612dcd565b82800160010185558215612dcd579182015b82811115612dcc578251825591602001919060010190612db1565b5b509050612dda9190612c8d565b5090565b612e0791905b80821115612e035760008181612dfa9190612e52565b50600101612de4565b5090565b90565b50805460018160011615610100020316600290046000825580601f10612e305750612e4f565b601f016020900490600052602060002090810190612e4e9190612c8d565b5b50565b50805460018160011615610100020316600290046000825580601f10612e785750612e97565b601f016020900490600052602060002090810190612e969190612c8d565b5b50565b600081359050612ea9816152de565b92915050565b600082601f830112612ec057600080fd5b8135612ed3612ece82614e5d565b614e30565b91508181835260208401935060208101905083856020840282011115612ef857600080fd5b60005b83811015612f285781612f0e8882612e9a565b845260208401935060208301925050600181019050612efb565b5050505092915050565b600082601f830112612f4357600080fd5b8135612f56612f5182614e85565b614e30565b9150818183526020840193506020810190508360005b83811015612f9c5781358601612f8288826130f1565b845260208401935060208301925050600181019050612f6c565b5050505092915050565b600082601f830112612fb757600080fd5b8135612fca612fc582614ead565b614e30565b9150818183526020840193506020810190508360005b838110156130105781358601612ff68882613199565b845260208401935060208301925050600181019050612fe0565b5050505092915050565b600082601f83011261302b57600080fd5b813561303e61303982614ed5565b614e30565b9150818183526020840193506020810190508385602084028201111561306357600080fd5b60005b8381101561309357816130798882613241565b845260208401935060208301925050600181019050613066565b5050505092915050565b6000813590506130ac816152f5565b92915050565b6000815190506130c1816152f5565b92915050565b6000813590506130d68161530c565b92915050565b6000815190506130eb8161530c565b92915050565b600082601f83011261310257600080fd5b813561311561311082614efd565b614e30565b9150808252602083016020830185838301111561313157600080fd5b61313c838284615274565b50505092915050565b600082601f83011261315657600080fd5b815161316961316482614f29565b614e30565b9150808252602083016020830185838301111561318557600080fd5b613190838284615283565b50505092915050565b600082601f8301126131aa57600080fd5b81356131bd6131b882614f55565b614e30565b915080825260208301602083018583830111156131d957600080fd5b6131e4838284615274565b50505092915050565b600082601f8301126131fe57600080fd5b813561321161320c82614f81565b614e30565b9150808252602083016020830185838301111561322d57600080fd5b613238838284615274565b50505092915050565b60008135905061325081615323565b92915050565b60008151905061326581615323565b92915050565b60008135905061327a8161533a565b92915050565b60008151905061328f81615351565b92915050565b6000602082840312156132a757600080fd5b60006132b584828501612e9a565b91505092915050565b6000806000606084860312156132d357600080fd5b60006132e186828701612e9a565b93505060206132f286828701612e9a565b925050604061330386828701612e9a565b9150509250925092565b6000806040838503121561332057600080fd5b600061332e85828601612e9a565b925050602061333f85828601613241565b9150509250929050565b600080600080600060a0868803121561336157600080fd5b600086013567ffffffffffffffff81111561337b57600080fd5b61338788828901612eaf565b955050602086013567ffffffffffffffff8111156133a457600080fd5b6133b08882890161301a565b945050604086013567ffffffffffffffff8111156133cd57600080fd5b6133d988828901612fa6565b935050606086013567ffffffffffffffff8111156133f657600080fd5b61340288828901612f32565b925050608086013567ffffffffffffffff81111561341f57600080fd5b61342b888289016131ed565b9150509295509295909350565b60006020828403121561344a57600080fd5b6000613458848285016130b2565b91505092915050565b60006020828403121561347357600080fd5b6000613481848285016130dc565b91505092915050565b60006020828403121561349c57600080fd5b600082015167ffffffffffffffff8111156134b657600080fd5b6134c284828501613145565b91505092915050565b6000602082840312156134dd57600080fd5b60006134eb84828501613241565b91505092915050565b60006020828403121561350657600080fd5b600061351484828501613256565b91505092915050565b6000806040838503121561353057600080fd5b600061353e85828601613241565b925050602061354f85828601612e9a565b9150509250929050565b6000806040838503121561356c57600080fd5b600061357a85828601613241565b925050602061358b8582860161309d565b9150509250929050565b600080600080600060a086880312156135ad57600080fd5b60006135bb88828901613241565b95505060206135cc8882890161309d565b94505060406135dd8882890161326b565b93505060606135ee888289016130c7565b92505060806135ff888289016130c7565b9150509295509295909350565b60006020828403121561361e57600080fd5b600061362c84828501613280565b91505092915050565b6000613641838361369c565b60208301905092915050565b600061365983836138dd565b905092915050565b600061366d8383613a1a565b905092915050565b600061368183836145c5565b60208301905092915050565b613696816151c0565b82525050565b6136a581615136565b82525050565b6136b481615136565b82525050565b60006136c582615017565b6136cf81856150a3565b93506136da83614fad565b8060005b8381101561370b5781516136f28882613635565b97506136fd8361506f565b9250506001810190506136de565b5085935050505092915050565b600061372382615022565b61372d81856150b4565b93508360208202850161373f85614fbd565b8060005b8581101561377b578484038952815161375c858261364d565b94506137678361507c565b925060208a01995050600181019050613743565b50829750879550505050505092915050565b60006137988261502d565b6137a281856150c5565b9350836020820285016137b485614fcd565b8060005b858110156137f057848403895281516137d18582613661565b94506137dc83615089565b925060208a019950506001810190506137b8565b50829750879550505050505092915050565b600061380d82615038565b61381781856150d6565b935061382283614fdd565b8060005b8381101561385357815161383a8882613675565b975061384583615096565b925050600181019050613826565b5085935050505092915050565b61386981615148565b82525050565b61387881615148565b82525050565b61388781615154565b82525050565b61389e61389982615154565b6152b6565b82525050565b60006138af8261504e565b6138b981856150f8565b93506138c9818560208601615283565b6138d2816152c0565b840191505092915050565b60006138e882615043565b6138f281856150e7565b9350613902818560208601615283565b61390b816152c0565b840191505092915050565b60008154600181166000811461393357600181146139595761399d565b607f600283041661394481876150f8565b955060ff19831686526020860193505061399d565b6002820461396781876150f8565b955061397285614fed565b60005b8281101561399457815481890152600182019150602081019050613975565b80880195505050505b505092915050565b6139ae816151d2565b82525050565b6139bd816151f6565b82525050565b6139cc8161521a565b82525050565b6139db8161522c565b82525050565b60006139ec82615064565b6139f6818561511a565b9350613a06818560208601615283565b613a0f816152c0565b840191505092915050565b6000613a2582615059565b613a2f8185615109565b9350613a3f818560208601615283565b613a48816152c0565b840191505092915050565b6000613a5e82615059565b613a68818561511a565b9350613a78818560208601615283565b613a81816152c0565b840191505092915050565b600081546001811660008114613aa95760018114613acf57613b13565b607f6002830416613aba818761511a565b955060ff198316865260208601935050613b13565b60028204613add818761511a565b9550613ae885615002565b60005b82811015613b0a57815481890152600182019150602081019050613aeb565b80880195505050505b505092915050565b6000613b2860498361511a565b91507f476f7665726e616e63653a3a5f5f6578656375746553657454696d656c6f636b60008301527f50656e64696e6741646d696e3a2073656e646572206d75737420626520676f7660208301527f20677561726469616e00000000000000000000000000000000000000000000006040830152606082019050919050565b6000613bb460418361511a565b91507f476f7665726e616e63653a3a70726f706f73653a2070726f706f73616c20667560008301527f6e6374696f6e20696e666f726d6174696f6e206172697479206d69736d61746360208301527f68000000000000000000000000000000000000000000000000000000000000006040830152606082019050919050565b6000613c4060278361511a565b91507f476f7665726e616e63653a3a5f63617374566f74653a20766f74696e6720697360008301527f20636c6f736564000000000000000000000000000000000000000000000000006020830152604082019050919050565b6000613ca6603c8361511a565b91507f476f7665726e616e63653a3a70726f706f73653a2070726f706f73657220766f60008301527f7465732062656c6f772070726f706f73616c207468726573686f6c64000000006020830152604082019050919050565b6000613d0c60028361512b565b91507f19010000000000000000000000000000000000000000000000000000000000006000830152600282019050919050565b6000613d4c60298361511a565b91507f476f7665726e616e63653a3a70726f706f73653a206d7573742070726f76696460008301527f6520616374696f6e7300000000000000000000000000000000000000000000006020830152604082019050919050565b6000613db260368361511a565b91507f476f7665726e616e63653a3a5f5f61636365707441646d696e3a2073656e646560008301527f72206d75737420626520676f7620677561726469616e000000000000000000006020830152604082019050919050565b6000613e1860338361511a565b91507f476f7665726e616e63653a3a63616e63656c3a2063616e6e6f742063616e636560008301527f6c2065786563757465642070726f706f73616c000000000000000000000000006020830152604082019050919050565b6000613e7e60188361511a565b91507f73657450656e64696e6741646d696e28616464726573732900000000000000006000830152602082019050919050565b6000613ebe60418361511a565b91507f476f7665726e616e63653a3a71756575653a2070726f706f73616c2063616e2060008301527f6f6e6c792062652071756575656420696620697420697320737563636565646560208301527f64000000000000000000000000000000000000000000000000000000000000006040830152606082019050919050565b6000613f4a602c8361511a565b91507f476f7665726e616e63653a3a63617374566f746542795369673a20696e76616c60008301527f6964207369676e617475726500000000000000000000000000000000000000006020830152604082019050919050565b6000613fb060478361511a565b91507f476f7665726e616e63653a3a5f5f717565756553657454696d656c6f636b506560008301527f6e64696e6741646d696e3a2073656e646572206d75737420626520676f76206760208301527f7561726469616e000000000000000000000000000000000000000000000000006040830152606082019050919050565b600061403c60418361511a565b91507f476f7665726e616e63653a3a5f71756575654f725265766572743a2070726f7060008301527f6f73616c20616374696f6e20616c72656164792071756575656420617420657460208301527f61000000000000000000000000000000000000000000000000000000000000006040830152606082019050919050565b60006140c8602a8361511a565b91507f476f7665726e616e63653a3a5f63617374566f74653a20766f74657220616c7260008301527f6561647920766f746564000000000000000000000000000000000000000000006020830152604082019050919050565b600061412e60368361511a565b91507f476f7665726e616e63653a3a70726f706f73653a20666f756e6420616e20616c60008301527f72656164792070656e64696e672070726f706f73616c000000000000000000006020830152604082019050919050565b600061419460118361511a565b91507f6164646974696f6e206f766572666c6f770000000000000000000000000000006000830152602082019050919050565b60006141d460438361512b565b91507f454950373132446f6d61696e28737472696e67206e616d652c75696e7432353660008301527f20636861696e49642c6164647265737320766572696679696e67436f6e74726160208301527f63742900000000000000000000000000000000000000000000000000000000006040830152604382019050919050565b600061426060278361512b565b91507f42616c6c6f742875696e743235362070726f706f73616c49642c626f6f6c207360008301527f7570706f727429000000000000000000000000000000000000000000000000006020830152602782019050919050565b60006142c660338361511a565b91507f476f7665726e616e63653a3a5f5f61626469636174653a2073656e646572206d60008301527f75737420626520676f7620677561726469616e000000000000000000000000006020830152604082019050919050565b600061432c602c8361511a565b91507f476f7665726e616e63653a3a63616e63656c3a2070726f706f7365722061626f60008301527f7665207468726573686f6c6400000000000000000000000000000000000000006020830152604082019050919050565b600061439260258361511a565b91507f476f7665726e616e63653a3a70726f706f73653a20746f6f206d616e7920616360008301527f74696f6e730000000000000000000000000000000000000000000000000000006020830152604082019050919050565b60006143f860268361511a565b91507f476f7665726e616e63653a3a73746174653a20696e76616c69642070726f706f60008301527f73616c20696400000000000000000000000000000000000000000000000000006020830152604082019050919050565b600061445e60368361511a565b91507f476f7665726e616e63653a3a70726f706f73653a2020666f756e6420616e206160008301527f6c7265616479206163746976652070726f706f73616c000000000000000000006020830152604082019050919050565b60006144c460428361511a565b91507f476f7665726e616e63653a3a657865637574653a2070726f706f73616c20636160008301527f6e206f6e6c79206265206578656375746564206966206974206973207175657560208301527f65640000000000000000000000000000000000000000000000000000000000006040830152606082019050919050565b600061455060158361511a565b91507f7375627472616374696f6e20756e646572666c6f7700000000000000000000006000830152602082019050919050565b6060820160008201516145996000850182613860565b5060208201516145ac6020850182613860565b5060408201516145bf6040850182614601565b50505050565b6145ce81615191565b82525050565b6145dd81615191565b82525050565b6145ec8161519b565b82525050565b6145fb81615262565b82525050565b61460a816151a8565b82525050565b600061461b82613cff565b9150614627828561388d565b602082019150614637828461388d565b6020820191508190509392505050565b6000614652826141c7565b9150819050919050565b600061466782614253565b9150819050919050565b600060208201905061468660008301846136ab565b92915050565b60006040820190506146a1600083018561368d565b6146ae60208301846145d4565b9392505050565b600060a0820190506146ca60008301876136ab565b6146d760208301866139d2565b81810360408301526146e881613e71565b905081810360608301526146fc81856138a4565b905061470b60808301846145d4565b95945050505050565b600060408201905061472960008301856136ab565b61473660208301846145d4565b9392505050565b600060808201905061475260008301876136ab565b61475f60208301866145d4565b61476c604083018561386f565b61477960608301846145f2565b95945050505050565b600060a08201905061479760008301886136ab565b6147a460208301876145d4565b81810360408301526147b681866139e1565b905081810360608301526147ca81856138a4565b90506147d960808301846145d4565b9695505050505050565b600060a0820190506147f860008301886136ab565b61480560208301876145d4565b81810360408301526148178186613a8c565b9050818103606083015261482b8185613916565b905061483a60808301846145d4565b9695505050505050565b6000608082019050818103600083015261485e81876136ba565b905081810360208301526148728186613802565b90508181036040830152614886818561378d565b9050818103606083015261489a8184613718565b905095945050505050565b60006020820190506148ba600083018461387e565b92915050565b60006080820190506148d5600083018761387e565b6148e2602083018661387e565b6148ef60408301856145d4565b6148fc60608301846136ab565b95945050505050565b600060608201905061491a600083018661387e565b61492760208301856145d4565b614934604083018461386f565b949350505050565b6000608082019050614951600083018761387e565b61495e60208301866145e3565b61496b604083018561387e565b614978606083018461387e565b95945050505050565b600060208201905061499660008301846139a5565b92915050565b60006020820190506149b160008301846139b4565b92915050565b60006020820190506149cc60008301846139c3565b92915050565b600060208201905081810360008301526149ec8184613a53565b905092915050565b60006020820190508181036000830152614a0d81613b1b565b9050919050565b60006020820190508181036000830152614a2d81613ba7565b9050919050565b60006020820190508181036000830152614a4d81613c33565b9050919050565b60006020820190508181036000830152614a6d81613c99565b9050919050565b60006020820190508181036000830152614a8d81613d3f565b9050919050565b60006020820190508181036000830152614aad81613da5565b9050919050565b60006020820190508181036000830152614acd81613e0b565b9050919050565b60006020820190508181036000830152614aed81613eb1565b9050919050565b60006020820190508181036000830152614b0d81613f3d565b9050919050565b60006020820190508181036000830152614b2d81613fa3565b9050919050565b60006020820190508181036000830152614b4d8161402f565b9050919050565b60006020820190508181036000830152614b6d816140bb565b9050919050565b60006020820190508181036000830152614b8d81614121565b9050919050565b60006020820190508181036000830152614bad81614187565b9050919050565b60006020820190508181036000830152614bcd816142b9565b9050919050565b60006020820190508181036000830152614bed8161431f565b9050919050565b60006020820190508181036000830152614c0d81614385565b9050919050565b60006020820190508181036000830152614c2d816143eb565b9050919050565b60006020820190508181036000830152614c4d81614451565b9050919050565b60006020820190508181036000830152614c6d816144b7565b9050919050565b60006020820190508181036000830152614c8d81614543565b9050919050565b6000606082019050614ca96000830184614583565b92915050565b6000602082019050614cc460008301846145d4565b92915050565b600061012082019050614ce0600083018c6145d4565b614ced602083018b61368d565b8181036040830152614cff818a6136ba565b90508181036060830152614d138189613802565b90508181036080830152614d27818861378d565b905081810360a0830152614d3b8187613718565b9050614d4a60c08301866145d4565b614d5760e08301856145d4565b818103610100830152614d6a81846139e1565b90509a9950505050505050505050565b600061012082019050614d90600083018c6145d4565b614d9d602083018b6136ab565b614daa604083018a6145d4565b614db760608301896145d4565b614dc460808301886145d4565b614dd160a08301876145d4565b614dde60c08301866145d4565b614deb60e083018561386f565b614df961010083018461386f565b9a9950505050505050505050565b6000604082019050614e1c60008301856145d4565b614e2960208301846145d4565b9392505050565b6000604051905081810181811067ffffffffffffffff82111715614e5357600080fd5b8060405250919050565b600067ffffffffffffffff821115614e7457600080fd5b602082029050602081019050919050565b600067ffffffffffffffff821115614e9c57600080fd5b602082029050602081019050919050565b600067ffffffffffffffff821115614ec457600080fd5b602082029050602081019050919050565b600067ffffffffffffffff821115614eec57600080fd5b602082029050602081019050919050565b600067ffffffffffffffff821115614f1457600080fd5b601f19601f8301169050602081019050919050565b600067ffffffffffffffff821115614f4057600080fd5b601f19601f8301169050602081019050919050565b600067ffffffffffffffff821115614f6c57600080fd5b601f19601f8301169050602081019050919050565b600067ffffffffffffffff821115614f9857600080fd5b601f19601f8301169050602081019050919050565b6000819050602082019050919050565b6000819050602082019050919050565b6000819050602082019050919050565b6000819050602082019050919050565b60008190508160005260206000209050919050565b60008190508160005260206000209050919050565b600081519050919050565b600081519050919050565b600081519050919050565b600081519050919050565b600081519050919050565b600081519050919050565b600081519050919050565b600081519050919050565b6000602082019050919050565b6000602082019050919050565b6000602082019050919050565b6000602082019050919050565b600082825260208201905092915050565b600082825260208201905092915050565b600082825260208201905092915050565b600082825260208201905092915050565b600082825260208201905092915050565b600082825260208201905092915050565b600082825260208201905092915050565b600082825260208201905092915050565b600081905092915050565b600061514182615171565b9050919050565b60008115159050919050565b6000819050919050565b600081905061516c826152d1565b919050565b600073ffffffffffffffffffffffffffffffffffffffff82169050919050565b6000819050919050565b600060ff82169050919050565b60006bffffffffffffffffffffffff82169050919050565b60006151cb8261523e565b9050919050565b60006151dd826151e4565b9050919050565b60006151ef82615171565b9050919050565b600061520182615208565b9050919050565b600061521382615171565b9050919050565b60006152258261515e565b9050919050565b600061523782615191565b9050919050565b600061524982615250565b9050919050565b600061525b82615171565b9050919050565b600061526d826151a8565b9050919050565b82818337600083830152505050565b60005b838110156152a1578082015181840152602081019050615286565b838111156152b0576000848401525b50505050565b6000819050919050565b6000601f19601f8301169050919050565b600881106152db57fe5b50565b6152e781615136565b81146152f257600080fd5b50565b6152fe81615148565b811461530957600080fd5b50565b61531581615154565b811461532057600080fd5b50565b61532c81615191565b811461533757600080fd5b50565b6153438161519b565b811461534e57600080fd5b50565b61535a816151a8565b811461536557600080fd5b5056fea2646970667358221220643e9866054f5058879f120cda1b8886c642e03002e2d32a2f8da1d7d1e8b0ad64736f6c63430006000033",
  "source": "pragma solidity ^0.6.0;\npragma experimental ABIEncoderV2;\n\ncontract Governance {\n\t/// @notice The name of this contract\n\tstring public constant name = \"Hades Governance\";\n\n\t/// @notice The number of votes in support of a proposal required in order for a quorum to be reached and for a vote to succeed\n\tfunction quorumVotes() public pure returns (uint256) {\n\t\treturn 400000e18;\n\t}\n\n\t/// @notice The number of votes required in order for a voter to become a proposer\n\tfunction proposalThreshold() public pure returns (uint256) {\n\t\treturn 100000e18;\n\t}\n\n\t/// @notice The maximum number of actions that can be included in a proposal\n\tfunction proposalMaxOperations() public pure returns (uint256) {\n\t\treturn 10;\n\t} // 10 actions\n\n\t/// @notice The delay before voting on a proposal may take place, once proposed\n\tfunction votingDelay() public pure returns (uint256) {\n\t\treturn 1;\n\t} // 1 block\n\n\t/// @notice The duration of voting on a proposal, in blocks\n\tfunction votingPeriod() public pure returns (uint256) {\n\t\treturn 17280;\n\t} // ~3 days in blocks (assuming 15s blocks)\n\n\t/// @notice The address of the Hades Protocol Timelock\n\tTimelockInterface public timelock;\n\n\t/// @notice The address of the Hades governance token\n\tHDSInterface public hds;\n\n\t/// @notice The address of the Governor Guardian\n\taddress public guardian;\n\n\t/// @notice The total number of proposals\n\tuint256 public proposalCount;\n\n\tstruct Proposal {\n\t\t/// Unique id for looking up a proposal\n\t\tuint256 id;\n\t\t/// Creator of the proposal\n\t\taddress proposer;\n\t\t/// The timestamp that the proposal will be available for execution, set once the vote succeeds\n\t\tuint256 eta;\n\t\t/// the ordered list of target addresses for calls to be made\n\t\taddress[] targets;\n\t\t/// The ordered list of values (i.e. msg.value) to be passed to the calls to be made\n\t\tuint256[] values;\n\t\t/// The ordered list of function signatures to be called\n\t\tstring[] signatures;\n\t\t/// @notice The ordered list of calldata to be passed to each call\n\t\tbytes[] calldatas;\n\t\t/// The block at which voting begins: holders must delegate their votes prior to this block\n\t\tuint256 startBlock;\n\t\t/// The block at which voting ends: votes must be cast prior to this block\n\t\tuint256 endBlock;\n\t\t/// Current number of votes in favor of this proposal\n\t\tuint256 forVotes;\n\t\t/// Current number of votes in opposition to this proposal\n\t\tuint256 againstVotes;\n\t\t/// Flag marking whether the proposal has been canceled\n\t\tbool canceled;\n\t\t/// Flag marking whether the proposal has been executed\n\t\tbool executed;\n\t\t/// Receipts of ballots for the entire set of voters\n\t\tmapping(address => Receipt) receipts;\n\t}\n\n\t/// @notice Ballot receipt record for a voter\n\tstruct Receipt {\n\t\t/// Whether or not a vote has been cast\n\t\tbool hasVoted;\n\t\t/// Whether or not the voter supports the proposal\n\t\tbool support;\n\t\t/// The number of votes the voter had, which were cast\n\t\tuint96 votes;\n\t}\n\n\t/// @notice Possible states that a proposal may be in\n\tenum ProposalState { Pending, Active, Canceled, Defeated, Succeeded, Queued, Expired, Executed }\n\n\t/// @notice The official record of all proposals ever proposed\n\tmapping(uint256 => Proposal) public proposals;\n\n\t/// @notice The latest proposal for each proposer\n\tmapping(address => uint256) public latestProposalIds;\n\n\t/// @notice The EIP-712 typehash for the contract's domain\n\tbytes32 public constant DOMAIN_TYPEHASH = keccak256(\n\t\t\"EIP712Domain(string name,uint256 chainId,address verifyingContract)\"\n\t);\n\n\t/// @notice The EIP-712 typehash for the ballot struct used by the contract\n\tbytes32 public constant BALLOT_TYPEHASH = keccak256(\"Ballot(uint256 proposalId,bool support)\");\n\n\t/// @notice An event emitted when a new proposal is created\n\tevent ProposalCreated(\n\t\tuint256 id,\n\t\taddress proposer,\n\t\taddress[] targets,\n\t\tuint256[] values,\n\t\tstring[] signatures,\n\t\tbytes[] calldatas,\n\t\tuint256 startBlock,\n\t\tuint256 endBlock,\n\t\tstring description\n\t);\n\n\t/// @notice An event emitted when a vote has been cast on a proposal\n\tevent VoteCast(address voter, uint256 proposalId, bool support, uint256 votes);\n\n\t/// @notice An event emitted when a proposal has been canceled\n\tevent ProposalCanceled(uint256 id);\n\n\t/// @notice An event emitted when a proposal has been queued in the Timelock\n\tevent ProposalQueued(uint256 id, uint256 eta);\n\n\t/// @notice An event emitted when a proposal has been executed in the Timelock\n\tevent ProposalExecuted(uint256 id);\n\n\tfunction initialize(\n\t\taddress _guardian,\n\t\taddress _timelock,\n\t\taddress _hds\n\t) public {\n\t\ttimelock = TimelockInterface(_timelock);\n\t\thds = HDSInterface(_hds);\n\t\tguardian = _guardian;\n\t}\n\n\tfunction propose(\n\t\taddress[] memory targets,\n\t\tuint256[] memory values,\n\t\tstring[] memory signatures,\n\t\tbytes[] memory calldatas,\n\t\tstring memory description\n\t) public returns (uint256) {\n\t\trequire(\n\t\t\thds.getPriorVotes(msg.sender, sub256(block.number, 1)) > proposalThreshold(),\n\t\t\t\"Governance::propose: proposer votes below proposal threshold\"\n\t\t);\n\t\trequire(\n\t\t\ttargets.length == values.length && targets.length == signatures.length && targets.length == calldatas.length,\n\t\t\t\"Governance::propose: proposal function information arity mismatch\"\n\t\t);\n\t\trequire(targets.length != 0, \"Governance::propose: must provide actions\");\n\t\trequire(targets.length <= proposalMaxOperations(), \"Governance::propose: too many actions\");\n\n\t\tuint256 latestProposalId = latestProposalIds[msg.sender];\n\t\tif (latestProposalId != 0) {\n\t\t\tProposalState proposersLatestProposalState = state(latestProposalId);\n\t\t\trequire(\n\t\t\t\tproposersLatestProposalState != ProposalState.Active,\n\t\t\t\t\"Governance::propose:  found an already active proposal\"\n\t\t\t);\n\t\t\trequire(\n\t\t\t\tproposersLatestProposalState != ProposalState.Pending,\n\t\t\t\t\"Governance::propose: found an already pending proposal\"\n\t\t\t);\n\t\t}\n\n\t\tuint256 startBlock = add256(block.number, votingDelay());\n\t\tuint256 endBlock = add256(startBlock, votingPeriod());\n\n\t\tproposalCount++;\n\t\tProposal memory newProposal = Proposal({\n\t\t\tid: proposalCount,\n\t\t\tproposer: msg.sender,\n\t\t\teta: 0,\n\t\t\ttargets: targets,\n\t\t\tvalues: values,\n\t\t\tsignatures: signatures,\n\t\t\tcalldatas: calldatas,\n\t\t\tstartBlock: startBlock,\n\t\t\tendBlock: endBlock,\n\t\t\tforVotes: 0,\n\t\t\tagainstVotes: 0,\n\t\t\tcanceled: false,\n\t\t\texecuted: false\n\t\t});\n\n\t\tproposals[newProposal.id] = newProposal;\n\t\tlatestProposalIds[newProposal.proposer] = newProposal.id;\n\n\t\temit ProposalCreated(\n\t\t\tnewProposal.id,\n\t\t\tmsg.sender,\n\t\t\ttargets,\n\t\t\tvalues,\n\t\t\tsignatures,\n\t\t\tcalldatas,\n\t\t\tstartBlock,\n\t\t\tendBlock,\n\t\t\tdescription\n\t\t);\n\t\treturn newProposal.id;\n\t}\n\n\tfunction queue(uint256 proposalId) public {\n\t\trequire(\n\t\t\tstate(proposalId) == ProposalState.Succeeded,\n\t\t\t\"Governance::queue: proposal can only be queued if it is succeeded\"\n\t\t);\n\t\tProposal storage proposal = proposals[proposalId];\n\t\tuint256 eta = add256(block.timestamp, timelock.delay());\n\t\tfor (uint256 i = 0; i < proposal.targets.length; i++) {\n\t\t\t_queueOrRevert(proposal.targets[i], proposal.values[i], proposal.signatures[i], proposal.calldatas[i], eta);\n\t\t}\n\t\tproposal.eta = eta;\n\t\temit ProposalQueued(proposalId, eta);\n\t}\n\n\tfunction _queueOrRevert(\n\t\taddress target,\n\t\tuint256 value,\n\t\tstring memory signature,\n\t\tbytes memory data,\n\t\tuint256 eta\n\t) internal {\n\t\trequire(\n\t\t\t!timelock.queuedTransactions(keccak256(abi.encode(target, value, signature, data, eta))),\n\t\t\t\"Governance::_queueOrRevert: proposal action already queued at eta\"\n\t\t);\n\t\ttimelock.queueTransaction(target, value, signature, data, eta);\n\t}\n\n\tfunction execute(uint256 proposalId) public payable {\n\t\trequire(\n\t\t\tstate(proposalId) == ProposalState.Queued,\n\t\t\t\"Governance::execute: proposal can only be executed if it is queued\"\n\t\t);\n\t\tProposal storage proposal = proposals[proposalId];\n\t\tproposal.executed = true;\n\t\tfor (uint256 i = 0; i < proposal.targets.length; i++) {\n\t\t\ttimelock.executeTransaction.value(proposal.values[i])(\n\t\t\t\tproposal.targets[i],\n\t\t\t\tproposal.values[i],\n\t\t\t\tproposal.signatures[i],\n\t\t\t\tproposal.calldatas[i],\n\t\t\t\tproposal.eta\n\t\t\t);\n\t\t}\n\t\temit ProposalExecuted(proposalId);\n\t}\n\n\tfunction cancel(uint256 proposalId) public {\n\t\tProposalState state = state(proposalId);\n\t\trequire(state != ProposalState.Executed, \"Governance::cancel: cannot cancel executed proposal\");\n\n\t\tProposal storage proposal = proposals[proposalId];\n\t\trequire(\n\t\t\tmsg.sender == guardian || hds.getPriorVotes(proposal.proposer, sub256(block.number, 1)) < proposalThreshold(),\n\t\t\t\"Governance::cancel: proposer above threshold\"\n\t\t);\n\n\t\tproposal.canceled = true;\n\t\tfor (uint256 i = 0; i < proposal.targets.length; i++) {\n\t\t\ttimelock.cancelTransaction(\n\t\t\t\tproposal.targets[i],\n\t\t\t\tproposal.values[i],\n\t\t\t\tproposal.signatures[i],\n\t\t\t\tproposal.calldatas[i],\n\t\t\t\tproposal.eta\n\t\t\t);\n\t\t}\n\n\t\temit ProposalCanceled(proposalId);\n\t}\n\n\tfunction getActions(uint256 proposalId)\n\t\tpublic\n\t\tview\n\t\treturns (\n\t\t\taddress[] memory targets,\n\t\t\tuint256[] memory values,\n\t\t\tstring[] memory signatures,\n\t\t\tbytes[] memory calldatas\n\t\t)\n\t{\n\t\tProposal storage p = proposals[proposalId];\n\t\treturn (p.targets, p.values, p.signatures, p.calldatas);\n\t}\n\n\tfunction getReceipt(uint256 proposalId, address voter) public view returns (Receipt memory) {\n\t\treturn proposals[proposalId].receipts[voter];\n\t}\n\n\tfunction state(uint256 proposalId) public view returns (ProposalState) {\n\t\trequire(proposalCount >= proposalId && proposalId > 0, \"Governance::state: invalid proposal id\");\n\t\tProposal storage proposal = proposals[proposalId];\n\t\tif (proposal.canceled) {\n\t\t\treturn ProposalState.Canceled;\n\t\t} else if (block.number <= proposal.startBlock) {\n\t\t\treturn ProposalState.Pending;\n\t\t} else if (block.number <= proposal.endBlock) {\n\t\t\treturn ProposalState.Active;\n\t\t} else if (proposal.forVotes <= proposal.againstVotes || proposal.forVotes < quorumVotes()) {\n\t\t\treturn ProposalState.Defeated;\n\t\t} else if (proposal.eta == 0) {\n\t\t\treturn ProposalState.Succeeded;\n\t\t} else if (proposal.executed) {\n\t\t\treturn ProposalState.Executed;\n\t\t} else if (block.timestamp >= add256(proposal.eta, timelock.GRACE_PERIOD())) {\n\t\t\treturn ProposalState.Expired;\n\t\t} else {\n\t\t\treturn ProposalState.Queued;\n\t\t}\n\t}\n\n\tfunction castVote(uint256 proposalId, bool support) public {\n\t\treturn _castVote(msg.sender, proposalId, support);\n\t}\n\n\tfunction castVoteBySig(\n\t\tuint256 proposalId,\n\t\tbool support,\n\t\tuint8 v,\n\t\tbytes32 r,\n\t\tbytes32 s\n\t) public {\n\t\tbytes32 domainSeparator = keccak256(\n\t\t\tabi.encode(DOMAIN_TYPEHASH, keccak256(bytes(name)), getChainId(), address(this))\n\t\t);\n\t\tbytes32 structHash = keccak256(abi.encode(BALLOT_TYPEHASH, proposalId, support));\n\t\tbytes32 digest = keccak256(abi.encodePacked(\"\\x19\\x01\", domainSeparator, structHash));\n\t\taddress signatory = ecrecover(digest, v, r, s);\n\t\trequire(signatory != address(0), \"Governance::castVoteBySig: invalid signature\");\n\t\treturn _castVote(signatory, proposalId, support);\n\t}\n\n\tfunction _castVote(\n\t\taddress voter,\n\t\tuint256 proposalId,\n\t\tbool support\n\t) internal {\n\t\trequire(state(proposalId) == ProposalState.Active, \"Governance::_castVote: voting is closed\");\n\t\tProposal storage proposal = proposals[proposalId];\n\t\tReceipt storage receipt = proposal.receipts[voter];\n\t\trequire(receipt.hasVoted == false, \"Governance::_castVote: voter already voted\");\n\t\tuint96 votes = hds.getPriorVotes(voter, proposal.startBlock);\n\n\t\tif (support) {\n\t\t\tproposal.forVotes = add256(proposal.forVotes, votes);\n\t\t} else {\n\t\t\tproposal.againstVotes = add256(proposal.againstVotes, votes);\n\t\t}\n\n\t\treceipt.hasVoted = true;\n\t\treceipt.support = support;\n\t\treceipt.votes = votes;\n\n\t\temit VoteCast(voter, proposalId, support, votes);\n\t}\n\n\tfunction __acceptAdmin() public {\n\t\trequire(msg.sender == guardian, \"Governance::__acceptAdmin: sender must be gov guardian\");\n\t\ttimelock.acceptAdmin();\n\t}\n\n\tfunction __abdicate() public {\n\t\trequire(msg.sender == guardian, \"Governance::__abdicate: sender must be gov guardian\");\n\t\tguardian = address(0);\n\t}\n\n\tfunction __queueSetTimelockPendingAdmin(address newPendingAdmin, uint256 eta) public {\n\t\trequire(msg.sender == guardian, \"Governance::__queueSetTimelockPendingAdmin: sender must be gov guardian\");\n\t\ttimelock.queueTransaction(address(timelock), 0, \"setPendingAdmin(address)\", abi.encode(newPendingAdmin), eta);\n\t}\n\n\tfunction __executeSetTimelockPendingAdmin(address newPendingAdmin, uint256 eta) public {\n\t\trequire(msg.sender == guardian, \"Governance::__executeSetTimelockPendingAdmin: sender must be gov guardian\");\n\t\ttimelock.executeTransaction(address(timelock), 0, \"setPendingAdmin(address)\", abi.encode(newPendingAdmin), eta);\n\t}\n\n\tfunction add256(uint256 a, uint256 b) internal pure returns (uint256) {\n\t\tuint256 c = a + b;\n\t\trequire(c >= a, \"addition overflow\");\n\t\treturn c;\n\t}\n\n\tfunction sub256(uint256 a, uint256 b) internal pure returns (uint256) {\n\t\trequire(b <= a, \"subtraction underflow\");\n\t\treturn a - b;\n\t}\n\n\tfunction getChainId() internal pure returns (uint256) {\n\t\tuint256 chainId;\n\t\tassembly {\n\t\t\tchainId := chainid()\n\t\t}\n\t\treturn chainId;\n\t}\n}\n\ninterface TimelockInterface {\n\tfunction delay() external view returns (uint256);\n\n\tfunction GRACE_PERIOD() external view returns (uint256);\n\n\tfunction acceptAdmin() external;\n\n\tfunction queuedTransactions(bytes32 hash) external view returns (bool);\n\n\tfunction queueTransaction(\n\t\taddress target,\n\t\tuint256 value,\n\t\tstring calldata signature,\n\t\tbytes calldata data,\n\t\tuint256 eta\n\t) external returns (bytes32);\n\n\tfunction cancelTransaction(\n\t\taddress target,\n\t\tuint256 value,\n\t\tstring calldata signature,\n\t\tbytes calldata data,\n\t\tuint256 eta\n\t) external;\n\n\tfunction executeTransaction(\n\t\taddress target,\n\t\tuint256 value,\n\t\tstring calldata signature,\n\t\tbytes calldata data,\n\t\tuint256 eta\n\t) external payable returns (bytes memory);\n}\n\ninterface HDSInterface {\n\tfunction getPriorVotes(address account, uint256 blockNumber) external view returns (uint96);\n}\n",
  "sourcePath": "/hades/evm-contracts/src/Governance.sol",
  "compiler": {
    "name": "solc",
    "version": "0.6.0+commit.26b70077.Emscripten.clang"
  },
  "schemaVersion": "3.2.4",
  "updatedAt": "2020-10-27T12:03:43.007Z",
  "networkType": "ethereum",
  "devdoc": {
    "methods": {}
  },
  "userdoc": {
    "methods": {
      "proposalMaxOperations()": {
        "notice": "The maximum number of actions that can be included in a proposal"
      },
      "proposalThreshold()": {
        "notice": "The number of votes required in order for a voter to become a proposer"
      },
      "quorumVotes()": {
        "notice": "The number of votes in support of a proposal required in order for a quorum to be reached and for a vote to succeed"
      },
      "votingDelay()": {
        "notice": "The delay before voting on a proposal may take place, once proposed"
      },
      "votingPeriod()": {
        "notice": "The duration of voting on a proposal, in blocks"
      }
    }
  }
}