{
  "contractName": "HadesLens",
  "abi": [
    {
      "inputs": [
        {
          "internalType": "contract HToken",
          "name": "hToken",
          "type": "address"
        }
      ],
      "name": "hTokenMetadata",
      "outputs": [
        {
          "components": [
            {
              "internalType": "address",
              "name": "hToken",
              "type": "address"
            },
            {
              "internalType": "uint256",
              "name": "exchangeRateCurrent",
              "type": "uint256"
            },
            {
              "internalType": "uint256",
              "name": "supplyRatePerBlock",
              "type": "uint256"
            },
            {
              "internalType": "uint256",
              "name": "borrowRatePerBlock",
              "type": "uint256"
            },
            {
              "internalType": "uint256",
              "name": "reserveFactorMantissa",
              "type": "uint256"
            },
            {
              "internalType": "uint256",
              "name": "totalBorrows",
              "type": "uint256"
            },
            {
              "internalType": "uint256",
              "name": "totalReserves",
              "type": "uint256"
            },
            {
              "internalType": "uint256",
              "name": "totalSupply",
              "type": "uint256"
            },
            {
              "internalType": "uint256",
              "name": "totalCash",
              "type": "uint256"
            },
            {
              "internalType": "bool",
              "name": "isListed",
              "type": "bool"
            },
            {
              "internalType": "uint256",
              "name": "collateralFactorMantissa",
              "type": "uint256"
            },
            {
              "internalType": "address",
              "name": "underlyingAssetAddress",
              "type": "address"
            },
            {
              "internalType": "uint256",
              "name": "hTokenDecimals",
              "type": "uint256"
            },
            {
              "internalType": "uint256",
              "name": "underlyingDecimals",
              "type": "uint256"
            }
          ],
          "internalType": "struct HadesLens.HTokenMetadata",
          "name": "",
          "type": "tuple"
        }
      ],
      "stateMutability": "view",
      "type": "function"
    },
    {
      "inputs": [
        {
          "internalType": "contract HToken[]",
          "name": "hTokens",
          "type": "address[]"
        }
      ],
      "name": "hTokenMetadataAll",
      "outputs": [
        {
          "components": [
            {
              "internalType": "address",
              "name": "hToken",
              "type": "address"
            },
            {
              "internalType": "uint256",
              "name": "exchangeRateCurrent",
              "type": "uint256"
            },
            {
              "internalType": "uint256",
              "name": "supplyRatePerBlock",
              "type": "uint256"
            },
            {
              "internalType": "uint256",
              "name": "borrowRatePerBlock",
              "type": "uint256"
            },
            {
              "internalType": "uint256",
              "name": "reserveFactorMantissa",
              "type": "uint256"
            },
            {
              "internalType": "uint256",
              "name": "totalBorrows",
              "type": "uint256"
            },
            {
              "internalType": "uint256",
              "name": "totalReserves",
              "type": "uint256"
            },
            {
              "internalType": "uint256",
              "name": "totalSupply",
              "type": "uint256"
            },
            {
              "internalType": "uint256",
              "name": "totalCash",
              "type": "uint256"
            },
            {
              "internalType": "bool",
              "name": "isListed",
              "type": "bool"
            },
            {
              "internalType": "uint256",
              "name": "collateralFactorMantissa",
              "type": "uint256"
            },
            {
              "internalType": "address",
              "name": "underlyingAssetAddress",
              "type": "address"
            },
            {
              "internalType": "uint256",
              "name": "hTokenDecimals",
              "type": "uint256"
            },
            {
              "internalType": "uint256",
              "name": "underlyingDecimals",
              "type": "uint256"
            }
          ],
          "internalType": "struct HadesLens.HTokenMetadata[]",
          "name": "",
          "type": "tuple[]"
        }
      ],
      "stateMutability": "view",
      "type": "function"
    },
    {
      "inputs": [
        {
          "internalType": "contract HToken",
          "name": "hToken",
          "type": "address"
        },
        {
          "internalType": "address payable",
          "name": "account",
          "type": "address"
        }
      ],
      "name": "hTokenBalances",
      "outputs": [
        {
          "components": [
            {
              "internalType": "address",
              "name": "hToken",
              "type": "address"
            },
            {
              "internalType": "uint256",
              "name": "balanceOf",
              "type": "uint256"
            },
            {
              "internalType": "uint256",
              "name": "borrowBalanceCurrent",
              "type": "uint256"
            },
            {
              "internalType": "uint256",
              "name": "balanceOfUnderlying",
              "type": "uint256"
            },
            {
              "internalType": "uint256",
              "name": "tokenBalance",
              "type": "uint256"
            },
            {
              "internalType": "uint256",
              "name": "tokenAllowance",
              "type": "uint256"
            }
          ],
          "internalType": "struct HadesLens.HTokenBalances",
          "name": "",
          "type": "tuple"
        }
      ],
      "stateMutability": "nonpayable",
      "type": "function"
    },
    {
      "inputs": [
        {
          "internalType": "contract HToken[]",
          "name": "hTokens",
          "type": "address[]"
        },
        {
          "internalType": "address payable",
          "name": "account",
          "type": "address"
        }
      ],
      "name": "hTokenBalancesAll",
      "outputs": [
        {
          "components": [
            {
              "internalType": "address",
              "name": "hToken",
              "type": "address"
            },
            {
              "internalType": "uint256",
              "name": "balanceOf",
              "type": "uint256"
            },
            {
              "internalType": "uint256",
              "name": "borrowBalanceCurrent",
              "type": "uint256"
            },
            {
              "internalType": "uint256",
              "name": "balanceOfUnderlying",
              "type": "uint256"
            },
            {
              "internalType": "uint256",
              "name": "tokenBalance",
              "type": "uint256"
            },
            {
              "internalType": "uint256",
              "name": "tokenAllowance",
              "type": "uint256"
            }
          ],
          "internalType": "struct HadesLens.HTokenBalances[]",
          "name": "",
          "type": "tuple[]"
        }
      ],
      "stateMutability": "nonpayable",
      "type": "function"
    },
    {
      "inputs": [
        {
          "internalType": "contract HToken",
          "name": "hToken",
          "type": "address"
        }
      ],
      "name": "hTokenUnderlyingPrice",
      "outputs": [
        {
          "components": [
            {
              "internalType": "address",
              "name": "hToken",
              "type": "address"
            },
            {
              "internalType": "uint256",
              "name": "underlyingPrice",
              "type": "uint256"
            }
          ],
          "internalType": "struct HadesLens.HTokenUnderlyingPrice",
          "name": "",
          "type": "tuple"
        }
      ],
      "stateMutability": "view",
      "type": "function"
    },
    {
      "inputs": [
        {
          "internalType": "contract HToken[]",
          "name": "hTokens",
          "type": "address[]"
        }
      ],
      "name": "hTokenUnderlyingPriceAll",
      "outputs": [
        {
          "components": [
            {
              "internalType": "address",
              "name": "hToken",
              "type": "address"
            },
            {
              "internalType": "uint256",
              "name": "underlyingPrice",
              "type": "uint256"
            }
          ],
          "internalType": "struct HadesLens.HTokenUnderlyingPrice[]",
          "name": "",
          "type": "tuple[]"
        }
      ],
      "stateMutability": "view",
      "type": "function"
    },
    {
      "inputs": [
        {
          "internalType": "contract MarketControllerLensInterface",
          "name": "controller",
          "type": "address"
        },
        {
          "internalType": "address",
          "name": "account",
          "type": "address"
        }
      ],
      "name": "getAccountLimits",
      "outputs": [
        {
          "components": [
            {
              "internalType": "contract HToken[]",
              "name": "markets",
              "type": "address[]"
            },
            {
              "internalType": "uint256",
              "name": "liquidity",
              "type": "uint256"
            },
            {
              "internalType": "uint256",
              "name": "shortfall",
              "type": "uint256"
            }
          ],
          "internalType": "struct HadesLens.AccountLimits",
          "name": "",
          "type": "tuple"
        }
      ],
      "stateMutability": "view",
      "type": "function"
    },
    {
      "inputs": [
        {
          "internalType": "contract Governance",
          "name": "governor",
          "type": "address"
        },
        {
          "internalType": "address",
          "name": "voter",
          "type": "address"
        },
        {
          "internalType": "uint256[]",
          "name": "proposalIds",
          "type": "uint256[]"
        }
      ],
      "name": "getGovReceipts",
      "outputs": [
        {
          "components": [
            {
              "internalType": "uint256",
              "name": "proposalId",
              "type": "uint256"
            },
            {
              "internalType": "bool",
              "name": "hasVoted",
              "type": "bool"
            },
            {
              "internalType": "bool",
              "name": "support",
              "type": "bool"
            },
            {
              "internalType": "uint96",
              "name": "votes",
              "type": "uint96"
            }
          ],
          "internalType": "struct HadesLens.GovReceipt[]",
          "name": "",
          "type": "tuple[]"
        }
      ],
      "stateMutability": "view",
      "type": "function"
    },
    {
      "inputs": [
        {
          "internalType": "contract Governance",
          "name": "governor",
          "type": "address"
        },
        {
          "internalType": "uint256[]",
          "name": "proposalIds",
          "type": "uint256[]"
        }
      ],
      "name": "getGovProposals",
      "outputs": [
        {
          "components": [
            {
              "internalType": "uint256",
              "name": "proposalId",
              "type": "uint256"
            },
            {
              "internalType": "address",
              "name": "proposer",
              "type": "address"
            },
            {
              "internalType": "uint256",
              "name": "eta",
              "type": "uint256"
            },
            {
              "internalType": "address[]",
              "name": "targets",
              "type": "address[]"
            },
            {
              "internalType": "uint256[]",
              "name": "values",
              "type": "uint256[]"
            },
            {
              "internalType": "string[]",
              "name": "signatures",
              "type": "string[]"
            },
            {
              "internalType": "bytes[]",
              "name": "calldatas",
              "type": "bytes[]"
            },
            {
              "internalType": "uint256",
              "name": "startBlock",
              "type": "uint256"
            },
            {
              "internalType": "uint256",
              "name": "endBlock",
              "type": "uint256"
            },
            {
              "internalType": "uint256",
              "name": "forVotes",
              "type": "uint256"
            },
            {
              "internalType": "uint256",
              "name": "againstVotes",
              "type": "uint256"
            },
            {
              "internalType": "bool",
              "name": "canceled",
              "type": "bool"
            },
            {
              "internalType": "bool",
              "name": "executed",
              "type": "bool"
            }
          ],
          "internalType": "struct HadesLens.GovProposal[]",
          "name": "",
          "type": "tuple[]"
        }
      ],
      "stateMutability": "view",
      "type": "function"
    },
    {
      "inputs": [
        {
          "internalType": "contract HDS",
          "name": "hds",
          "type": "address"
        },
        {
          "internalType": "address",
          "name": "account",
          "type": "address"
        }
      ],
      "name": "getCompBalanceMetadata",
      "outputs": [
        {
          "components": [
            {
              "internalType": "uint256",
              "name": "balance",
              "type": "uint256"
            },
            {
              "internalType": "uint256",
              "name": "votes",
              "type": "uint256"
            },
            {
              "internalType": "address",
              "name": "delegate",
              "type": "address"
            }
          ],
          "internalType": "struct HadesLens.CompBalanceMetadata",
          "name": "",
          "type": "tuple"
        }
      ],
      "stateMutability": "view",
      "type": "function"
    },
    {
      "inputs": [
        {
          "internalType": "contract HDS",
          "name": "hds",
          "type": "address"
        },
        {
          "internalType": "contract MarketControllerLensInterface",
          "name": "controller",
          "type": "address"
        },
        {
          "internalType": "address",
          "name": "account",
          "type": "address"
        }
      ],
      "name": "getCompBalanceMetadataExt",
      "outputs": [
        {
          "components": [
            {
              "internalType": "uint256",
              "name": "balance",
              "type": "uint256"
            },
            {
              "internalType": "uint256",
              "name": "votes",
              "type": "uint256"
            },
            {
              "internalType": "address",
              "name": "delegate",
              "type": "address"
            },
            {
              "internalType": "uint256",
              "name": "allocated",
              "type": "uint256"
            }
          ],
          "internalType": "struct HadesLens.CompBalanceMetadataExt",
          "name": "",
          "type": "tuple"
        }
      ],
      "stateMutability": "nonpayable",
      "type": "function"
    },
    {
      "inputs": [
        {
          "internalType": "contract HDS",
          "name": "hds",
          "type": "address"
        },
        {
          "internalType": "address",
          "name": "account",
          "type": "address"
        },
        {
          "internalType": "uint32[]",
          "name": "blockNumbers",
          "type": "uint32[]"
        }
      ],
      "name": "getCompVotes",
      "outputs": [
        {
          "components": [
            {
              "internalType": "uint256",
              "name": "blockNumber",
              "type": "uint256"
            },
            {
              "internalType": "uint256",
              "name": "votes",
              "type": "uint256"
            }
          ],
          "internalType": "struct HadesLens.CompVotes[]",
          "name": "",
          "type": "tuple[]"
        }
      ],
      "stateMutability": "view",
      "type": "function"
    }
  ],
  "bytecode": "0x608060405234801561001057600080fd5b50614a45806100206000396000f3fe608060405234801561001057600080fd5b50600436106100b45760003560e01c80637dd8f6d9116100715780637dd8f6d9146101d9578063855c5411146102095780639481b272146102395780639699486914610269578063995ed99f14610299578063eef0e403146102c9576100b4565b8063056803f8146100b95780630caa7a79146100e9578063168d9506146101195780631ea6374114610149578063416405d71461017957806359564219146101a9575b600080fd5b6100d360048036036100ce919081019061305e565b6102f9565b6040516100e091906142cc565b60405180910390f35b61010360048036036100fe9190810190612dd3565b6104c1565b6040516101109190614195565b60405180910390f35b610133600480360361012e9190810190612d8e565b610573565b60405161014091906141b7565b60405180910390f35b610163600480360361015e919081019061300f565b610623565b604051610170919061425f565b60405180910390f35b610193600480360361018e9190810190612f67565b610a28565b6040516101a0919061427a565b60405180910390f35b6101c360048036036101be9190810190612fa3565b610c0f565b6040516101d0919061412f565b60405180910390f35b6101f360048036036101ee91908101906130ec565b610d87565b604051610200919061423d565b60405180910390f35b610223600480360361021e919081019061305e565b610f19565b60405161023091906142b0565b60405180910390f35b610253600480360361024e9190810190613087565b611795565b6040516102609190614295565b60405180910390f35b610283600480360361027e9190810190612f0f565b611c3a565b6040516102909190614151565b60405180910390f35b6102b360048036036102ae9190810190612ea8565b611e1b565b6040516102c09190614173565b60405180910390f35b6102e360048036036102de9190810190612d8e565b611f9c565b6040516102f091906141d9565b60405180910390f35b6103016122a7565b60008273ffffffffffffffffffffffffffffffffffffffff1663f77c47916040518163ffffffff1660e01b815260040160206040518083038186803b15801561034957600080fd5b505afa15801561035d573d6000803e3d6000fd5b505050506040513d601f19601f8201168201806040525061038191908101906130c3565b905060008173ffffffffffffffffffffffffffffffffffffffff16637dc0d1d06040518163ffffffff1660e01b815260040160206040518083038186803b1580156103cb57600080fd5b505afa1580156103df573d6000803e3d6000fd5b505050506040513d601f19601f820116820180604052506104039190810190613128565b905060405180604001604052808573ffffffffffffffffffffffffffffffffffffffff1681526020018273ffffffffffffffffffffffffffffffffffffffff1663fc57d4df876040518263ffffffff1660e01b815260040161046591906140a7565b60206040518083038186803b15801561047d57600080fd5b505afa158015610491573d6000803e3d6000fd5b505050506040513d601f19601f820116820180604052506104b591908101906131bb565b81525092505050919050565b6060600084849050905060608160405190808252806020026020018201604052801561050757816020015b6104f46122d7565b8152602001906001900390816104ec5790505b50905060008090505b828110156105665761054287878381811061052757fe5b905060200201602061053c919081019061305e565b86611795565b82828151811061054e57fe5b60200260200101819052508080600101915050610510565b5080925050509392505050565b606060008383905090506060816040519080825280602002602001820160405280156105b957816020015b6105a6612323565b81526020019060019003908161059e5790505b50905060008090505b82811015610617576105f38686838181106105d957fe5b90506020020160206105ee919081019061305e565b610f19565b8282815181106105ff57fe5b602002602001018190525080806001019150506105c2565b50809250505092915050565b61062b6123c0565b60008473ffffffffffffffffffffffffffffffffffffffff166370a08231846040518263ffffffff1660e01b815260040161066691906140a7565b60206040518083038186803b15801561067e57600080fd5b505afa158015610692573d6000803e3d6000fd5b505050506040513d601f19601f820116820180604052506106b691908101906131bb565b90508373ffffffffffffffffffffffffffffffffffffffff1663e9af0292846040518263ffffffff1660e01b81526004016106f191906140a7565b600060405180830381600087803b15801561070b57600080fd5b505af115801561071f573d6000803e3d6000fd5b5050505060008573ffffffffffffffffffffffffffffffffffffffff166370a08231856040518263ffffffff1660e01b815260040161075e91906140a7565b60206040518083038186803b15801561077657600080fd5b505afa15801561078a573d6000803e3d6000fd5b505050506040513d601f19601f820116820180604052506107ae91908101906131bb565b905060008573ffffffffffffffffffffffffffffffffffffffff1663cc7ebdc4866040518263ffffffff1660e01b81526004016107eb91906140a7565b60206040518083038186803b15801561080357600080fd5b505afa158015610817573d6000803e3d6000fd5b505050506040513d601f19601f8201168201806040525061083b91908101906131bb565b9050600061087f82846040518060400160405280600e81526020017f73756d20636f6d7020746f74616c00000000000000000000000000000000000081525061204c565b905060006108c382866040518060400160405280600d81526020017f73756220616c6c6f6361746564000000000000000000000000000000000000008152506120a6565b905060405180608001604052808681526020018a73ffffffffffffffffffffffffffffffffffffffff1663b4b5ea578a6040518263ffffffff1660e01b815260040161090f91906140a7565b60206040518083038186803b15801561092757600080fd5b505afa15801561093b573d6000803e3d6000fd5b505050506040513d601f19601f8201168201806040525061095f919081019061334b565b6bffffffffffffffffffffffff1681526020018a73ffffffffffffffffffffffffffffffffffffffff1663587cde1e8a6040518263ffffffff1660e01b81526004016109ab91906140a7565b60206040518083038186803b1580156109c357600080fd5b505afa1580156109d7573d6000803e3d6000fd5b505050506040513d601f19601f820116820180604052506109fb9190810190612ca2565b73ffffffffffffffffffffffffffffffffffffffff16815260200182815250955050505050509392505050565b610a306123fe565b60405180606001604052808473ffffffffffffffffffffffffffffffffffffffff166370a08231856040518263ffffffff1660e01b8152600401610a7491906140a7565b60206040518083038186803b158015610a8c57600080fd5b505afa158015610aa0573d6000803e3d6000fd5b505050506040513d601f19601f82011682018060405250610ac491908101906131bb565b81526020018473ffffffffffffffffffffffffffffffffffffffff1663b4b5ea57856040518263ffffffff1660e01b8152600401610b0291906140a7565b60206040518083038186803b158015610b1a57600080fd5b505afa158015610b2e573d6000803e3d6000fd5b505050506040513d601f19601f82011682018060405250610b52919081019061334b565b6bffffffffffffffffffffffff1681526020018473ffffffffffffffffffffffffffffffffffffffff1663587cde1e856040518263ffffffff1660e01b8152600401610b9e91906140a7565b60206040518083038186803b158015610bb657600080fd5b505afa158015610bca573d6000803e3d6000fd5b505050506040513d601f19601f82011682018060405250610bee9190810190612ca2565b73ffffffffffffffffffffffffffffffffffffffff16815250905092915050565b60608083839050604051908082528060200260200182016040528015610c4f57816020015b610c3c612435565b815260200190600190039081610c345790505b50905060008090505b84849050811015610d7a576040518060400160405280868684818110610c7a57fe5b9050602002016020610c8f91908101906132f9565b63ffffffff1681526020018873ffffffffffffffffffffffffffffffffffffffff1663782d6fe189898987818110610cc357fe5b9050602002016020610cd891908101906132f9565b6040518363ffffffff1660e01b8152600401610cf5929190614106565b60206040518083038186803b158015610d0d57600080fd5b505afa158015610d21573d6000803e3d6000fd5b505050506040513d601f19601f82011682018060405250610d45919081019061334b565b6bffffffffffffffffffffffff16815250828281518110610d6257fe5b60200260200101819052508080600101915050610c58565b5080915050949350505050565b610d8f61244f565b60008060008573ffffffffffffffffffffffffffffffffffffffff16635ec88c79866040518263ffffffff1660e01b8152600401610dcd91906140a7565b60606040518083038186803b158015610de557600080fd5b505afa158015610df9573d6000803e3d6000fd5b505050506040513d601f19601f82011682018060405250610e1d91908101906132aa565b92509250925060008314610e66576040517f08c379a0000000000000000000000000000000000000000000000000000000008152600401610e5d9061421d565b60405180910390fd5b60405180606001604052808773ffffffffffffffffffffffffffffffffffffffff1663abfceffc886040518263ffffffff1660e01b8152600401610eaa91906140a7565b60006040518083038186803b158015610ec257600080fd5b505afa158015610ed6573d6000803e3d6000fd5b505050506040513d6000823e3d601f19601f82011682018060405250610eff9190810190612e2b565b815260200183815260200182815250935050505092915050565b610f21612470565b60008273ffffffffffffffffffffffffffffffffffffffff1663bd6d894d6040518163ffffffff1660e01b815260040160206040518083038186803b158015610f6957600080fd5b505afa158015610f7d573d6000803e3d6000fd5b505050506040513d601f19601f82011682018060405250610fa191908101906131bb565b905060008373ffffffffffffffffffffffffffffffffffffffff1663f77c47916040518163ffffffff1660e01b815260040160206040518083038186803b158015610feb57600080fd5b505afa158015610fff573d6000803e3d6000fd5b505050506040513d601f19601f8201168201806040525061102391908101906130c3565b90506000808273ffffffffffffffffffffffffffffffffffffffff16638e8f294b876040518263ffffffff1660e01b815260040161106191906140a7565b604080518083038186803b15801561107857600080fd5b505afa15801561108c573d6000803e3d6000fd5b505050506040513d601f19601f820116820180604052506110b09190810190612e6c565b915091506000806111788873ffffffffffffffffffffffffffffffffffffffff166395d89b416040518163ffffffff1660e01b815260040160006040518083038186803b15801561110057600080fd5b505afa158015611114573d6000803e3d6000fd5b505050506040513d6000823e3d601f19601f8201168201806040525061113d9190810190613151565b6040518060400160405280600481526020017f6345544800000000000000000000000000000000000000000000000000000000815250612101565b1561118a576000915060129050611311565b60008890508073ffffffffffffffffffffffffffffffffffffffff16636f307dc36040518163ffffffff1660e01b815260040160206040518083038186803b1580156111d557600080fd5b505afa1580156111e9573d6000803e3d6000fd5b505050506040513d601f19601f8201168201806040525061120d9190810190612ca2565b92508073ffffffffffffffffffffffffffffffffffffffff16636f307dc36040518163ffffffff1660e01b815260040160206040518083038186803b15801561125557600080fd5b505afa158015611269573d6000803e3d6000fd5b505050506040513d601f19601f8201168201806040525061128d9190810190612ca2565b73ffffffffffffffffffffffffffffffffffffffff1663313ce5676040518163ffffffff1660e01b815260040160206040518083038186803b1580156112d257600080fd5b505afa1580156112e6573d6000803e3d6000fd5b505050506040513d601f19601f8201168201806040525061130a9190810190613322565b60ff169150505b604051806101c001604052808973ffffffffffffffffffffffffffffffffffffffff1681526020018781526020018973ffffffffffffffffffffffffffffffffffffffff1663ae9d70b06040518163ffffffff1660e01b815260040160206040518083038186803b15801561138557600080fd5b505afa158015611399573d6000803e3d6000fd5b505050506040513d601f19601f820116820180604052506113bd91908101906131bb565b81526020018973ffffffffffffffffffffffffffffffffffffffff1663f8f9da286040518163ffffffff1660e01b815260040160206040518083038186803b15801561140857600080fd5b505afa15801561141c573d6000803e3d6000fd5b505050506040513d601f19601f8201168201806040525061144091908101906131bb565b81526020018973ffffffffffffffffffffffffffffffffffffffff1663173b99046040518163ffffffff1660e01b815260040160206040518083038186803b15801561148b57600080fd5b505afa15801561149f573d6000803e3d6000fd5b505050506040513d601f19601f820116820180604052506114c391908101906131bb565b81526020018973ffffffffffffffffffffffffffffffffffffffff166347bd37186040518163ffffffff1660e01b815260040160206040518083038186803b15801561150e57600080fd5b505afa158015611522573d6000803e3d6000fd5b505050506040513d601f19601f8201168201806040525061154691908101906131bb565b81526020018973ffffffffffffffffffffffffffffffffffffffff16638f840ddd6040518163ffffffff1660e01b815260040160206040518083038186803b15801561159157600080fd5b505afa1580156115a5573d6000803e3d6000fd5b505050506040513d601f19601f820116820180604052506115c991908101906131bb565b81526020018973ffffffffffffffffffffffffffffffffffffffff166318160ddd6040518163ffffffff1660e01b815260040160206040518083038186803b15801561161457600080fd5b505afa158015611628573d6000803e3d6000fd5b505050506040513d601f19601f8201168201806040525061164c91908101906131bb565b81526020018973ffffffffffffffffffffffffffffffffffffffff16633b1d21a26040518163ffffffff1660e01b815260040160206040518083038186803b15801561169757600080fd5b505afa1580156116ab573d6000803e3d6000fd5b505050506040513d601f19601f820116820180604052506116cf91908101906131bb565b815260200185151581526020018481526020018373ffffffffffffffffffffffffffffffffffffffff1681526020018973ffffffffffffffffffffffffffffffffffffffff1663313ce5676040518163ffffffff1660e01b815260040160206040518083038186803b15801561174457600080fd5b505afa158015611758573d6000803e3d6000fd5b505050506040513d601f19601f8201168201806040525061177c9190810190613322565b60ff168152602001828152509650505050505050919050565b61179d61250d565b60008373ffffffffffffffffffffffffffffffffffffffff166370a08231846040518263ffffffff1660e01b81526004016117d891906140c2565b60206040518083038186803b1580156117f057600080fd5b505afa158015611804573d6000803e3d6000fd5b505050506040513d601f19601f8201168201806040525061182891908101906131bb565b905060008473ffffffffffffffffffffffffffffffffffffffff166317bfdfbc856040518263ffffffff1660e01b815260040161186591906140c2565b60206040518083038186803b15801561187d57600080fd5b505afa158015611891573d6000803e3d6000fd5b505050506040513d601f19601f820116820180604052506118b591908101906131bb565b905060008573ffffffffffffffffffffffffffffffffffffffff16633af9e669866040518263ffffffff1660e01b81526004016118f291906140c2565b602060405180830381600087803b15801561190c57600080fd5b505af1158015611920573d6000803e3d6000fd5b505050506040513d601f19601f8201168201806040525061194491908101906131bb565b9050600080611a0a8873ffffffffffffffffffffffffffffffffffffffff166395d89b416040518163ffffffff1660e01b815260040160006040518083038186803b15801561199257600080fd5b505afa1580156119a6573d6000803e3d6000fd5b505050506040513d6000823e3d601f19601f820116820180604052506119cf9190810190613151565b6040518060400160405280600481526020017f6345544800000000000000000000000000000000000000000000000000000000815250612101565b15611a48578673ffffffffffffffffffffffffffffffffffffffff163191508673ffffffffffffffffffffffffffffffffffffffff16319050611bea565b600088905060008173ffffffffffffffffffffffffffffffffffffffff16636f307dc36040518163ffffffff1660e01b815260040160206040518083038186803b158015611a9557600080fd5b505afa158015611aa9573d6000803e3d6000fd5b505050506040513d601f19601f82011682018060405250611acd9190810190612ca2565b90508073ffffffffffffffffffffffffffffffffffffffff166370a082318a6040518263ffffffff1660e01b8152600401611b0891906140c2565b60206040518083038186803b158015611b2057600080fd5b505afa158015611b34573d6000803e3d6000fd5b505050506040513d601f19601f82011682018060405250611b5891908101906131bb565b93508073ffffffffffffffffffffffffffffffffffffffff1663dd62ed3e8a8c6040518363ffffffff1660e01b8152600401611b959291906140dd565b60206040518083038186803b158015611bad57600080fd5b505afa158015611bc1573d6000803e3d6000fd5b505050506040513d601f19601f82011682018060405250611be591908101906131bb565b925050505b6040518060c001604052808973ffffffffffffffffffffffffffffffffffffffff168152602001868152602001858152602001848152602001838152602001828152509550505050505092915050565b60608083839050604051908082528060200260200182016040528015611c7a57816020015b611c67612559565b815260200190600190039081611c5f5790505b50905060008090505b84849050811015611e0f576060806060808973ffffffffffffffffffffffffffffffffffffffff1663328dd9828a8a88818110611cbc57fe5b905060200201356040518263ffffffff1660e01b8152600401611cdf91906142e7565b60006040518083038186803b158015611cf757600080fd5b505afa158015611d0b573d6000803e3d6000fd5b505050506040513d6000823e3d601f19601f82011682018060405250611d349190810190612ccb565b9350935093509350604051806101a0016040528060008152602001600073ffffffffffffffffffffffffffffffffffffffff168152602001600081526020018581526020018481526020018381526020018281526020016000815260200160008152602001600081526020016000815260200160001515815260200160001515815250868681518110611dc357fe5b6020026020010181905250611dfe868681518110611ddd57fe5b60200260200101518b8b8b89818110611df257fe5b9050602002013561215a565b505050508080600101915050611c83565b50809150509392505050565b6060600082519050606081604051908082528060200260200182016040528015611e5f57816020015b611e4c6125db565b815260200190600190039081611e445790505b50905060008090505b82811015611f8f57611e78612615565b8773ffffffffffffffffffffffffffffffffffffffff1663e23a9a52878481518110611ea057fe5b6020026020010151896040518363ffffffff1660e01b8152600401611ec6929190614302565b60606040518083038186803b158015611ede57600080fd5b505afa158015611ef2573d6000803e3d6000fd5b505050506040513d601f19601f82011682018060405250611f169190810190613192565b90506040518060800160405280878481518110611f2f57fe5b6020026020010151815260200182600001511515815260200182602001511515815260200182604001516bffffffffffffffffffffffff16815250838381518110611f7657fe5b6020026020010181905250508080600101915050611e68565b5080925050509392505050565b60606000838390509050606081604051908082528060200260200182016040528015611fe257816020015b611fcf612648565b815260200190600190039081611fc75790505b50905060008090505b828110156120405761201c86868381811061200257fe5b9050602002016020612017919081019061305e565b6102f9565b82828151811061202857fe5b60200260200101819052508080600101915050611feb565b50809250505092915050565b600080838501905084811015839061209a576040517f08c379a000000000000000000000000000000000000000000000000000000000815260040161209191906141fb565b60405180910390fd5b50809150509392505050565b60008383111582906120ee576040517f08c379a00000000000000000000000000000000000000000000000000000000081526004016120e591906141fb565b60405180910390fd5b5060008385039050809150509392505050565b6000816040516020016121149190614090565b604051602081830303815290604052805190602001208360405160200161213b9190614090565b6040516020818303038152906040528051906020012014905092915050565b6000806000806000806000808973ffffffffffffffffffffffffffffffffffffffff1663013cf08b8a6040518263ffffffff1660e01b815260040161219f91906142e7565b6101206040518083038186803b1580156121b857600080fd5b505afa1580156121cc573d6000803e3d6000fd5b505050506040513d601f19601f820116820180604052506121f091908101906131e4565b9850985098509850985098509850985050888b6000018181525050878b6020019073ffffffffffffffffffffffffffffffffffffffff16908173ffffffffffffffffffffffffffffffffffffffff1681525050868b6040018181525050858b60e0018181525050848b610100018181525050838b610120018181525050828b610140018181525050818b610160019015159081151581525050808b6101800190151590811515815250505050505050505050505050565b6040518060400160405280600073ffffffffffffffffffffffffffffffffffffffff168152602001600081525090565b6040518060c00160405280600073ffffffffffffffffffffffffffffffffffffffff16815260200160008152602001600081526020016000815260200160008152602001600081525090565b604051806101c00160405280600073ffffffffffffffffffffffffffffffffffffffff168152602001600081526020016000815260200160008152602001600081526020016000815260200160008152602001600081526020016000815260200160001515815260200160008152602001600073ffffffffffffffffffffffffffffffffffffffff16815260200160008152602001600081525090565b60405180608001604052806000815260200160008152602001600073ffffffffffffffffffffffffffffffffffffffff168152602001600081525090565b60405180606001604052806000815260200160008152602001600073ffffffffffffffffffffffffffffffffffffffff1681525090565b604051806040016040528060008152602001600081525090565b60405180606001604052806060815260200160008152602001600081525090565b604051806101c00160405280600073ffffffffffffffffffffffffffffffffffffffff168152602001600081526020016000815260200160008152602001600081526020016000815260200160008152602001600081526020016000815260200160001515815260200160008152602001600073ffffffffffffffffffffffffffffffffffffffff16815260200160008152602001600081525090565b6040518060c00160405280600073ffffffffffffffffffffffffffffffffffffffff16815260200160008152602001600081526020016000815260200160008152602001600081525090565b604051806101a0016040528060008152602001600073ffffffffffffffffffffffffffffffffffffffff1681526020016000815260200160608152602001606081526020016060815260200160608152602001600081526020016000815260200160008152602001600081526020016000151581526020016000151581525090565b60405180608001604052806000815260200160001515815260200160001515815260200160006bffffffffffffffffffffffff1681525090565b604051806060016040528060001515815260200160001515815260200160006bffffffffffffffffffffffff1681525090565b6040518060400160405280600073ffffffffffffffffffffffffffffffffffffffff168152602001600081525090565b600081359050612687816148e4565b92915050565b60008151905061269c816148e4565b92915050565b6000813590506126b1816148fb565b92915050565b600082601f8301126126c857600080fd5b81516126db6126d682614358565b61432b565b9150818183526020840193506020810190508385602084028201111561270057600080fd5b60005b838110156127305781612716888261268d565b845260208401935060208301925050600181019050612703565b5050505092915050565b600082601f83011261274b57600080fd5b815161275e61275982614380565b61432b565b9150818183526020840193506020810190508360005b838110156127a4578151860161278a8882612a9e565b845260208401935060208301925050600181019050612774565b5050505092915050565b60008083601f8401126127c057600080fd5b8235905067ffffffffffffffff8111156127d957600080fd5b6020830191508360208202830111156127f157600080fd5b9250929050565b600082601f83011261280957600080fd5b815161281c612817826143a8565b61432b565b9150818183526020840193506020810190508385602084028201111561284157600080fd5b60005b8381101561287157816128578882612b31565b845260208401935060208301925050600181019050612844565b5050505092915050565b600082601f83011261288c57600080fd5b815161289f61289a826143d0565b61432b565b9150818183526020840193506020810190508360005b838110156128e557815186016128cb8882612b85565b8452602084019350602083019250506001810190506128b5565b5050505092915050565b60008083601f84011261290157600080fd5b8235905067ffffffffffffffff81111561291a57600080fd5b60208301915083602082028301111561293257600080fd5b9250929050565b600082601f83011261294a57600080fd5b813561295d612958826143f8565b61432b565b9150818183526020840193506020810190508385602084028201111561298257600080fd5b60005b838110156129b257816129988882612c39565b845260208401935060208301925050600181019050612985565b5050505092915050565b600082601f8301126129cd57600080fd5b81516129e06129db826143f8565b61432b565b91508181835260208401935060208101905083856020840282011115612a0557600080fd5b60005b83811015612a355781612a1b8882612c4e565b845260208401935060208301925050600181019050612a08565b5050505092915050565b60008083601f840112612a5157600080fd5b8235905067ffffffffffffffff811115612a6a57600080fd5b602083019150836020820283011115612a8257600080fd5b9250929050565b600081519050612a9881614912565b92915050565b600082601f830112612aaf57600080fd5b8151612ac2612abd82614420565b61432b565b91508082526020830160208301858383011115612ade57600080fd5b612ae98382846148a0565b50505092915050565b600081359050612b0181614929565b92915050565b600081359050612b1681614940565b92915050565b600081359050612b2b81614957565b92915050565b600081519050612b4081614957565b92915050565b600081519050612b558161496e565b92915050565b600081359050612b6a81614985565b92915050565b600081519050612b7f8161499c565b92915050565b600082601f830112612b9657600080fd5b8151612ba9612ba48261444c565b61432b565b91508082526020830160208301858383011115612bc557600080fd5b612bd08382846148a0565b50505092915050565b600060608284031215612beb57600080fd5b612bf5606061432b565b90506000612c0584828501612a89565b6000830152506020612c1984828501612a89565b6020830152506040612c2d84828501612c8d565b60408301525092915050565b600081359050612c48816149b3565b92915050565b600081519050612c5d816149b3565b92915050565b600081359050612c72816149ca565b92915050565b600081519050612c87816149e1565b92915050565b600081519050612c9c816149f8565b92915050565b600060208284031215612cb457600080fd5b6000612cc28482850161268d565b91505092915050565b60008060008060808587031215612ce157600080fd5b600085015167ffffffffffffffff811115612cfb57600080fd5b612d07878288016126b7565b945050602085015167ffffffffffffffff811115612d2457600080fd5b612d30878288016129bc565b935050604085015167ffffffffffffffff811115612d4d57600080fd5b612d598782880161287b565b925050606085015167ffffffffffffffff811115612d7657600080fd5b612d828782880161273a565b91505092959194509250565b60008060208385031215612da157600080fd5b600083013567ffffffffffffffff811115612dbb57600080fd5b612dc7858286016127ae565b92509250509250929050565b600080600060408486031215612de857600080fd5b600084013567ffffffffffffffff811115612e0257600080fd5b612e0e868287016127ae565b93509350506020612e21868287016126a2565b9150509250925092565b600060208284031215612e3d57600080fd5b600082015167ffffffffffffffff811115612e5757600080fd5b612e63848285016127f8565b91505092915050565b60008060408385031215612e7f57600080fd5b6000612e8d85828601612a89565b9250506020612e9e85828601612c4e565b9150509250929050565b600080600060608486031215612ebd57600080fd5b6000612ecb86828701612af2565b9350506020612edc86828701612678565b925050604084013567ffffffffffffffff811115612ef957600080fd5b612f0586828701612939565b9150509250925092565b600080600060408486031215612f2457600080fd5b6000612f3286828701612af2565b935050602084013567ffffffffffffffff811115612f4f57600080fd5b612f5b868287016128ef565b92509250509250925092565b60008060408385031215612f7a57600080fd5b6000612f8885828601612b07565b9250506020612f9985828601612678565b9150509250929050565b60008060008060608587031215612fb957600080fd5b6000612fc787828801612b07565b9450506020612fd887828801612678565b935050604085013567ffffffffffffffff811115612ff557600080fd5b61300187828801612a3f565b925092505092959194509250565b60008060006060848603121561302457600080fd5b600061303286828701612b07565b935050602061304386828701612b5b565b925050604061305486828701612678565b9150509250925092565b60006020828403121561307057600080fd5b600061307e84828501612b1c565b91505092915050565b6000806040838503121561309a57600080fd5b60006130a885828601612b1c565b92505060206130b9858286016126a2565b9150509250929050565b6000602082840312156130d557600080fd5b60006130e384828501612b46565b91505092915050565b600080604083850312156130ff57600080fd5b600061310d85828601612b5b565b925050602061311e85828601612678565b9150509250929050565b60006020828403121561313a57600080fd5b600061314884828501612b70565b91505092915050565b60006020828403121561316357600080fd5b600082015167ffffffffffffffff81111561317d57600080fd5b61318984828501612b85565b91505092915050565b6000606082840312156131a457600080fd5b60006131b284828501612bd9565b91505092915050565b6000602082840312156131cd57600080fd5b60006131db84828501612c4e565b91505092915050565b60008060008060008060008060006101208a8c03121561320357600080fd5b60006132118c828d01612c4e565b99505060206132228c828d0161268d565b98505060406132338c828d01612c4e565b97505060606132448c828d01612c4e565b96505060806132558c828d01612c4e565b95505060a06132668c828d01612c4e565b94505060c06132778c828d01612c4e565b93505060e06132888c828d01612a89565b92505061010061329a8c828d01612a89565b9150509295985092959850929598565b6000806000606084860312156132bf57600080fd5b60006132cd86828701612c4e565b93505060206132de86828701612c4e565b92505060406132ef86828701612c4e565b9150509250925092565b60006020828403121561330b57600080fd5b600061331984828501612c63565b91505092915050565b60006020828403121561333457600080fd5b600061334284828501612c78565b91505092915050565b60006020828403121561335d57600080fd5b600061336b84828501612c8d565b91505092915050565b60006133808383613480565b60208301905092915050565b600061339883836138fc565b905092915050565b60006133ac8383613935565b60208301905092915050565b60006133c483836139ae565b905092915050565b60006133d88383613b0e565b60408301905092915050565b60006133f08383613b3d565b905092915050565b60006134048383613c6b565b60808301905092915050565b600061341c8383613d3b565b60c08301905092915050565b60006134348383613ed6565b6101c08301905092915050565b600061344d8383614025565b60408301905092915050565b60006134658383614054565b60208301905092915050565b61347a81614834565b82525050565b61348981614739565b82525050565b61349881614739565b82525050565b60006134a982614528565b6134b38185614651565b93506134be83614478565b8060005b838110156134ef5781516134d68882613374565b97506134e1836145c2565b9250506001810190506134c2565b5085935050505092915050565b600061350782614533565b6135118185614662565b93508360208202850161352385614488565b8060005b8581101561355f5784840389528151613540858261338c565b945061354b836145cf565b925060208a01995050600181019050613527565b50829750879550505050505092915050565b600061357c8261453e565b6135868185614651565b935061359183614498565b8060005b838110156135c25781516135a988826133a0565b97506135b4836145dc565b925050600181019050613595565b5085935050505092915050565b60006135da82614549565b6135e48185614673565b9350836020820285016135f6856144a8565b8060005b85811015613632578484038952815161361385826133b8565b945061361e836145e9565b925060208a019950506001810190506135fa565b50829750879550505050505092915050565b600061364f82614554565b6136598185614684565b9350613664836144b8565b8060005b8381101561369557815161367c88826133cc565b9750613687836145f6565b925050600181019050613668565b5085935050505092915050565b60006136ad8261455f565b6136b78185614695565b9350836020820285016136c9856144c8565b8060005b8581101561370557848403895281516136e685826133e4565b94506136f183614603565b925060208a019950506001810190506136cd565b50829750879550505050505092915050565b60006137228261456a565b61372c81856146a6565b9350613737836144d8565b8060005b8381101561376857815161374f88826133f8565b975061375a83614610565b92505060018101905061373b565b5085935050505092915050565b600061378082614575565b61378a81856146b7565b9350613795836144e8565b8060005b838110156137c65781516137ad8882613410565b97506137b88361461d565b925050600181019050613799565b5085935050505092915050565b60006137de82614580565b6137e881856146c8565b93506137f3836144f8565b8060005b8381101561382457815161380b8882613428565b97506138168361462a565b9250506001810190506137f7565b5085935050505092915050565b600061383c8261458b565b61384681856146d9565b935061385183614508565b8060005b838110156138825781516138698882613441565b975061387483614637565b925050600181019050613855565b5085935050505092915050565b600061389a82614596565b6138a481856146ea565b93506138af83614518565b8060005b838110156138e05781516138c78882613459565b97506138d283614644565b9250506001810190506138b3565b5085935050505092915050565b6138f68161475d565b82525050565b6000613907826145a1565b61391181856146fb565b93506139218185602086016148a0565b61392a816148d3565b840191505092915050565b61393e81614846565b82525050565b600061394f826145b7565b613959818561471d565b93506139698185602086016148a0565b613972816148d3565b840191505092915050565b6000613988826145b7565b613992818561472e565b93506139a28185602086016148a0565b80840191505092915050565b60006139b9826145ac565b6139c3818561470c565b93506139d38185602086016148a0565b6139dc816148d3565b840191505092915050565b60006139f4601f8361471d565b91507f4661696c656420746f20676574206163636f756e74206c6971756964697479006000830152602082019050919050565b60006060830160008301518482036000860152613a448282613571565b9150506020830151613a596020860182614054565b506040830151613a6c6040860182614054565b508091505092915050565b608082016000820151613a8d6000850182614054565b506020820151613aa06020850182614054565b506040820151613ab36040850182613480565b506060820151613ac66060850182614054565b50505050565b606082016000820151613ae26000850182614054565b506020820151613af56020850182614054565b506040820151613b086040850182613480565b50505050565b604082016000820151613b246000850182614054565b506020820151613b376020850182614054565b50505050565b60006101a083016000830151613b566000860182614054565b506020830151613b696020860182613480565b506040830151613b7c6040860182614054565b5060608301518482036060860152613b94828261349e565b91505060808301518482036080860152613bae828261388f565b91505060a083015184820360a0860152613bc882826135cf565b91505060c083015184820360c0860152613be282826134fc565b91505060e0830151613bf760e0860182614054565b50610100830151613c0c610100860182614054565b50610120830151613c21610120860182614054565b50610140830151613c36610140860182614054565b50610160830151613c4b6101608601826138ed565b50610180830151613c606101808601826138ed565b508091505092915050565b608082016000820151613c816000850182614054565b506020820151613c9460208501826138ed565b506040820151613ca760408501826138ed565b506060820151613cba6060850182614081565b50505050565b60c082016000820151613cd66000850182613480565b506020820151613ce96020850182614054565b506040820151613cfc6040850182614054565b506060820151613d0f6060850182614054565b506080820151613d226080850182614054565b5060a0820151613d3560a0850182614054565b50505050565b60c082016000820151613d516000850182613480565b506020820151613d646020850182614054565b506040820151613d776040850182614054565b506060820151613d8a6060850182614054565b506080820151613d9d6080850182614054565b5060a0820151613db060a0850182614054565b50505050565b6101c082016000820151613dcd6000850182613480565b506020820151613de06020850182614054565b506040820151613df36040850182614054565b506060820151613e066060850182614054565b506080820151613e196080850182614054565b5060a0820151613e2c60a0850182614054565b5060c0820151613e3f60c0850182614054565b5060e0820151613e5260e0850182614054565b50610100820151613e67610100850182614054565b50610120820151613e7c6101208501826138ed565b50610140820151613e91610140850182614054565b50610160820151613ea6610160850182613480565b50610180820151613ebb610180850182614054565b506101a0820151613ed06101a0850182614054565b50505050565b6101c082016000820151613eed6000850182613480565b506020820151613f006020850182614054565b506040820151613f136040850182614054565b506060820151613f266060850182614054565b506080820151613f396080850182614054565b5060a0820151613f4c60a0850182614054565b5060c0820151613f5f60c0850182614054565b5060e0820151613f7260e0850182614054565b50610100820151613f87610100850182614054565b50610120820151613f9c6101208501826138ed565b50610140820151613fb1610140850182614054565b50610160820151613fc6610160850182613480565b50610180820151613fdb610180850182614054565b506101a0820151613ff06101a0850182614054565b50505050565b60408201600082015161400c6000850182613480565b50602082015161401f6020850182614054565b50505050565b60408201600082015161403b6000850182613480565b50602082015161404e6020850182614054565b50505050565b61405d816147f5565b82525050565b61406c816147f5565b82525050565b61407b8161488e565b82525050565b61408a8161481c565b82525050565b600061409c828461397d565b915081905092915050565b60006020820190506140bc600083018461348f565b92915050565b60006020820190506140d76000830184613471565b92915050565b60006040820190506140f26000830185613471565b6140ff602083018461348f565b9392505050565b600060408201905061411b600083018561348f565b6141286020830184614072565b9392505050565b600060208201905081810360008301526141498184613644565b905092915050565b6000602082019050818103600083015261416b81846136a2565b905092915050565b6000602082019050818103600083015261418d8184613717565b905092915050565b600060208201905081810360008301526141af8184613775565b905092915050565b600060208201905081810360008301526141d181846137d3565b905092915050565b600060208201905081810360008301526141f38184613831565b905092915050565b600060208201905081810360008301526142158184613944565b905092915050565b60006020820190508181036000830152614236816139e7565b9050919050565b600060208201905081810360008301526142578184613a27565b905092915050565b60006080820190506142746000830184613a77565b92915050565b600060608201905061428f6000830184613acc565b92915050565b600060c0820190506142aa6000830184613cc0565b92915050565b60006101c0820190506142c66000830184613db6565b92915050565b60006040820190506142e16000830184613ff6565b92915050565b60006020820190506142fc6000830184614063565b92915050565b60006040820190506143176000830185614063565b614324602083018461348f565b9392505050565b6000604051905081810181811067ffffffffffffffff8211171561434e57600080fd5b8060405250919050565b600067ffffffffffffffff82111561436f57600080fd5b602082029050602081019050919050565b600067ffffffffffffffff82111561439757600080fd5b602082029050602081019050919050565b600067ffffffffffffffff8211156143bf57600080fd5b602082029050602081019050919050565b600067ffffffffffffffff8211156143e757600080fd5b602082029050602081019050919050565b600067ffffffffffffffff82111561440f57600080fd5b602082029050602081019050919050565b600067ffffffffffffffff82111561443757600080fd5b601f19601f8301169050602081019050919050565b600067ffffffffffffffff82111561446357600080fd5b601f19601f8301169050602081019050919050565b6000819050602082019050919050565b6000819050602082019050919050565b6000819050602082019050919050565b6000819050602082019050919050565b6000819050602082019050919050565b6000819050602082019050919050565b6000819050602082019050919050565b6000819050602082019050919050565b6000819050602082019050919050565b6000819050602082019050919050565b6000819050602082019050919050565b600081519050919050565b600081519050919050565b600081519050919050565b600081519050919050565b600081519050919050565b600081519050919050565b600081519050919050565b600081519050919050565b600081519050919050565b600081519050919050565b600081519050919050565b600081519050919050565b600081519050919050565b600081519050919050565b6000602082019050919050565b6000602082019050919050565b6000602082019050919050565b6000602082019050919050565b6000602082019050919050565b6000602082019050919050565b6000602082019050919050565b6000602082019050919050565b6000602082019050919050565b6000602082019050919050565b6000602082019050919050565b600082825260208201905092915050565b600082825260208201905092915050565b600082825260208201905092915050565b600082825260208201905092915050565b600082825260208201905092915050565b600082825260208201905092915050565b600082825260208201905092915050565b600082825260208201905092915050565b600082825260208201905092915050565b600082825260208201905092915050565b600082825260208201905092915050565b600082825260208201905092915050565b600082825260208201905092915050565b600081905092915050565b6000614744826147d5565b9050919050565b6000614756826147d5565b9050919050565b60008115159050919050565b600061477482614739565b9050919050565b600061478682614739565b9050919050565b600061479882614739565b9050919050565b60006147aa82614739565b9050919050565b60006147bc82614739565b9050919050565b60006147ce82614739565b9050919050565b600073ffffffffffffffffffffffffffffffffffffffff82169050919050565b6000819050919050565b600063ffffffff82169050919050565b600060ff82169050919050565b60006bffffffffffffffffffffffff82169050919050565b600061483f8261486a565b9050919050565b600061485182614858565b9050919050565b6000614863826147d5565b9050919050565b60006148758261487c565b9050919050565b6000614887826147d5565b9050919050565b6000614899826147ff565b9050919050565b60005b838110156148be5780820151818401526020810190506148a3565b838111156148cd576000848401525b50505050565b6000601f19601f8301169050919050565b6148ed81614739565b81146148f857600080fd5b50565b6149048161474b565b811461490f57600080fd5b50565b61491b8161475d565b811461492657600080fd5b50565b61493281614769565b811461493d57600080fd5b50565b6149498161477b565b811461495457600080fd5b50565b6149608161478d565b811461496b57600080fd5b50565b6149778161479f565b811461498257600080fd5b50565b61498e816147b1565b811461499957600080fd5b50565b6149a5816147c3565b81146149b057600080fd5b50565b6149bc816147f5565b81146149c757600080fd5b50565b6149d3816147ff565b81146149de57600080fd5b50565b6149ea8161480f565b81146149f557600080fd5b50565b614a018161481c565b8114614a0c57600080fd5b5056fea2646970667358221220b816b8aac578b5868e1431a0f951b40f8884b079321b8c6e4ea9c7dbaaabcf8f64736f6c63430006000033",
  "source": "pragma solidity ^0.6.0;\npragma experimental ABIEncoderV2;\n\nimport \"./interfaces/EIP20Interface.sol\";\nimport \"./interfaces/PriceOracleInterface.sol\";\nimport \"./HErc20.sol\";\nimport \"./HToken.sol\";\nimport \"./Governance.sol\";\nimport \"./HDS.sol\";\n\ninterface MarketControllerLensInterface {\n\tfunction markets(address) external view returns (bool, uint256);\n\n\tfunction oracle() external view returns (PriceOracleInterface);\n\n\tfunction getAccountLiquidity(address)\n\t\texternal\n\t\tview\n\t\treturns (\n\t\t\tuint256,\n\t\t\tuint256,\n\t\t\tuint256\n\t\t);\n\n\tfunction getAssetsIn(address) external view returns (HToken[] memory);\n\n\tfunction claimComp(address) external;\n\n\tfunction compAccrued(address) external view returns (uint256);\n}\n\ncontract HadesLens {\n\tstruct HTokenMetadata {\n\t\taddress hToken;\n\t\tuint256 exchangeRateCurrent;\n\t\tuint256 supplyRatePerBlock;\n\t\tuint256 borrowRatePerBlock;\n\t\tuint256 reserveFactorMantissa;\n\t\tuint256 totalBorrows;\n\t\tuint256 totalReserves;\n\t\tuint256 totalSupply;\n\t\tuint256 totalCash;\n\t\tbool isListed;\n\t\tuint256 collateralFactorMantissa;\n\t\taddress underlyingAssetAddress;\n\t\tuint256 hTokenDecimals;\n\t\tuint256 underlyingDecimals;\n\t}\n\n\tfunction hTokenMetadata(HToken hToken) public view returns (HTokenMetadata memory) {\n\t\tuint256 exchangeRateCurrent = hToken.exchangeRateCurrent();\n\t\tMarketControllerLensInterface controller = MarketControllerLensInterface(address(hToken.controller()));\n\t\t(bool isListed, uint256 collateralFactorMantissa) = controller.markets(address(hToken));\n\t\taddress underlyingAssetAddress;\n\t\tuint256 underlyingDecimals;\n\n\t\tif (compareStrings(hToken.symbol(), \"cETH\")) {\n\t\t\tunderlyingAssetAddress = address(0);\n\t\t\tunderlyingDecimals = 18;\n\t\t} else {\n\t\t\tHErc20 hErc20 = HErc20(address(hToken));\n\t\t\tunderlyingAssetAddress = hErc20.underlying();\n\t\t\tunderlyingDecimals = EIP20Interface(hErc20.underlying()).decimals();\n\t\t}\n\n\t\treturn\n\t\t\tHTokenMetadata({\n\t\t\t\thToken: address(hToken),\n\t\t\t\texchangeRateCurrent: exchangeRateCurrent,\n\t\t\t\tsupplyRatePerBlock: hToken.supplyRatePerBlock(),\n\t\t\t\tborrowRatePerBlock: hToken.borrowRatePerBlock(),\n\t\t\t\treserveFactorMantissa: hToken.reserveFactorMantissa(),\n\t\t\t\ttotalBorrows: hToken.totalBorrows(),\n\t\t\t\ttotalReserves: hToken.totalReserves(),\n\t\t\t\ttotalSupply: hToken.totalSupply(),\n\t\t\t\ttotalCash: hToken.getCash(),\n\t\t\t\tisListed: isListed,\n\t\t\t\tcollateralFactorMantissa: collateralFactorMantissa,\n\t\t\t\tunderlyingAssetAddress: underlyingAssetAddress,\n\t\t\t\thTokenDecimals: hToken.decimals(),\n\t\t\t\tunderlyingDecimals: underlyingDecimals\n\t\t\t});\n\t}\n\n\tfunction hTokenMetadataAll(HToken[] calldata hTokens) external view returns (HTokenMetadata[] memory) {\n\t\tuint256 hTokenCount = hTokens.length;\n\t\tHTokenMetadata[] memory res = new HTokenMetadata[](hTokenCount);\n\t\tfor (uint256 i = 0; i < hTokenCount; i++) {\n\t\t\tres[i] = hTokenMetadata(hTokens[i]);\n\t\t}\n\t\treturn res;\n\t}\n\n\tstruct HTokenBalances {\n\t\taddress hToken;\n\t\tuint256 balanceOf;\n\t\tuint256 borrowBalanceCurrent;\n\t\tuint256 balanceOfUnderlying;\n\t\tuint256 tokenBalance;\n\t\tuint256 tokenAllowance;\n\t}\n\n\tfunction hTokenBalances(HToken hToken, address payable account) public returns (HTokenBalances memory) {\n\t\tuint256 balanceOf = hToken.balanceOf(account);\n\t\tuint256 borrowBalanceCurrent = hToken.borrowBalanceCurrent(account);\n\t\tuint256 balanceOfUnderlying = hToken.balanceOfUnderlying(account);\n\t\tuint256 tokenBalance;\n\t\tuint256 tokenAllowance;\n\n\t\tif (compareStrings(hToken.symbol(), \"cETH\")) {\n\t\t\ttokenBalance = account.balance;\n\t\t\ttokenAllowance = account.balance;\n\t\t} else {\n\t\t\tHErc20 hErc20 = HErc20(address(hToken));\n\t\t\tEIP20Interface underlying = EIP20Interface(hErc20.underlying());\n\t\t\ttokenBalance = underlying.balanceOf(account);\n\t\t\ttokenAllowance = underlying.allowance(account, address(hToken));\n\t\t}\n\n\t\treturn\n\t\t\tHTokenBalances({\n\t\t\t\thToken: address(hToken),\n\t\t\t\tbalanceOf: balanceOf,\n\t\t\t\tborrowBalanceCurrent: borrowBalanceCurrent,\n\t\t\t\tbalanceOfUnderlying: balanceOfUnderlying,\n\t\t\t\ttokenBalance: tokenBalance,\n\t\t\t\ttokenAllowance: tokenAllowance\n\t\t\t});\n\t}\n\n\tfunction hTokenBalancesAll(HToken[] calldata hTokens, address payable account)\n\t\texternal\n\t\treturns (HTokenBalances[] memory)\n\t{\n\t\tuint256 hTokenCount = hTokens.length;\n\t\tHTokenBalances[] memory res = new HTokenBalances[](hTokenCount);\n\t\tfor (uint256 i = 0; i < hTokenCount; i++) {\n\t\t\tres[i] = hTokenBalances(hTokens[i], account);\n\t\t}\n\t\treturn res;\n\t}\n\n\tstruct HTokenUnderlyingPrice {\n\t\taddress hToken;\n\t\tuint256 underlyingPrice;\n\t}\n\n\tfunction hTokenUnderlyingPrice(HToken hToken) public view returns (HTokenUnderlyingPrice memory) {\n\t\tMarketControllerLensInterface controller = MarketControllerLensInterface(address(hToken.controller()));\n\t\tPriceOracleInterface oracle = controller.oracle();\n\n\t\treturn\n\t\t\tHTokenUnderlyingPrice({ hToken: address(hToken), underlyingPrice: oracle.getUnderlyingPrice(address(hToken)) });\n\t}\n\n\tfunction hTokenUnderlyingPriceAll(HToken[] calldata hTokens) external view returns (HTokenUnderlyingPrice[] memory) {\n\t\tuint256 hTokenCount = hTokens.length;\n\t\tHTokenUnderlyingPrice[] memory res = new HTokenUnderlyingPrice[](hTokenCount);\n\t\tfor (uint256 i = 0; i < hTokenCount; i++) {\n\t\t\tres[i] = hTokenUnderlyingPrice(hTokens[i]);\n\t\t}\n\t\treturn res;\n\t}\n\n\tstruct AccountLimits {\n\t\tHToken[] markets;\n\t\tuint256 liquidity;\n\t\tuint256 shortfall;\n\t}\n\n\tfunction getAccountLimits(MarketControllerLensInterface controller, address account)\n\t\tpublic\n\t\tview\n\t\treturns (AccountLimits memory)\n\t{\n\t\t(uint256 errorCode, uint256 liquidity, uint256 shortfall) = controller.getAccountLiquidity(account);\n\t\trequire(errorCode == 0, \"Failed to get account liquidity\");\n\n\t\treturn AccountLimits({ markets: controller.getAssetsIn(account), liquidity: liquidity, shortfall: shortfall });\n\t}\n\n\tstruct GovReceipt {\n\t\tuint256 proposalId;\n\t\tbool hasVoted;\n\t\tbool support;\n\t\tuint96 votes;\n\t}\n\n\tfunction getGovReceipts(\n\t\tGovernance governor,\n\t\taddress voter,\n\t\tuint256[] memory proposalIds\n\t) public view returns (GovReceipt[] memory) {\n\t\tuint256 proposalCount = proposalIds.length;\n\t\tGovReceipt[] memory res = new GovReceipt[](proposalCount);\n\t\tfor (uint256 i = 0; i < proposalCount; i++) {\n\t\t\tGovernance.Receipt memory receipt = governor.getReceipt(proposalIds[i], voter);\n\t\t\tres[i] = GovReceipt({\n\t\t\t\tproposalId: proposalIds[i],\n\t\t\t\thasVoted: receipt.hasVoted,\n\t\t\t\tsupport: receipt.support,\n\t\t\t\tvotes: receipt.votes\n\t\t\t});\n\t\t}\n\t\treturn res;\n\t}\n\n\tstruct GovProposal {\n\t\tuint256 proposalId;\n\t\taddress proposer;\n\t\tuint256 eta;\n\t\taddress[] targets;\n\t\tuint256[] values;\n\t\tstring[] signatures;\n\t\tbytes[] calldatas;\n\t\tuint256 startBlock;\n\t\tuint256 endBlock;\n\t\tuint256 forVotes;\n\t\tuint256 againstVotes;\n\t\tbool canceled;\n\t\tbool executed;\n\t}\n\n\tfunction setProposal(\n\t\tGovProposal memory res,\n\t\tGovernance governor,\n\t\tuint256 proposalId\n\t) internal view {\n\t\t(\n\t\t\t,\n\t\t\taddress proposer,\n\t\t\tuint256 eta,\n\t\t\tuint256 startBlock,\n\t\t\tuint256 endBlock,\n\t\t\tuint256 forVotes,\n\t\t\tuint256 againstVotes,\n\t\t\tbool canceled,\n\t\t\tbool executed\n\t\t) = governor.proposals(proposalId);\n\t\tres.proposalId = proposalId;\n\t\tres.proposer = proposer;\n\t\tres.eta = eta;\n\t\tres.startBlock = startBlock;\n\t\tres.endBlock = endBlock;\n\t\tres.forVotes = forVotes;\n\t\tres.againstVotes = againstVotes;\n\t\tres.canceled = canceled;\n\t\tres.executed = executed;\n\t}\n\n\tfunction getGovProposals(Governance governor, uint256[] calldata proposalIds)\n\t\texternal\n\t\tview\n\t\treturns (GovProposal[] memory)\n\t{\n\t\tGovProposal[] memory res = new GovProposal[](proposalIds.length);\n\t\tfor (uint256 i = 0; i < proposalIds.length; i++) {\n\t\t\t(\n\t\t\t\taddress[] memory targets,\n\t\t\t\tuint256[] memory values,\n\t\t\t\tstring[] memory signatures,\n\t\t\t\tbytes[] memory calldatas\n\t\t\t) = governor.getActions(proposalIds[i]);\n\t\t\tres[i] = GovProposal({\n\t\t\t\tproposalId: 0,\n\t\t\t\tproposer: address(0),\n\t\t\t\teta: 0,\n\t\t\t\ttargets: targets,\n\t\t\t\tvalues: values,\n\t\t\t\tsignatures: signatures,\n\t\t\t\tcalldatas: calldatas,\n\t\t\t\tstartBlock: 0,\n\t\t\t\tendBlock: 0,\n\t\t\t\tforVotes: 0,\n\t\t\t\tagainstVotes: 0,\n\t\t\t\tcanceled: false,\n\t\t\t\texecuted: false\n\t\t\t});\n\t\t\tsetProposal(res[i], governor, proposalIds[i]);\n\t\t}\n\t\treturn res;\n\t}\n\n\tstruct CompBalanceMetadata {\n\t\tuint256 balance;\n\t\tuint256 votes;\n\t\taddress delegate;\n\t}\n\n\tfunction getCompBalanceMetadata(HDS hds, address account) external view returns (CompBalanceMetadata memory) {\n\t\treturn\n\t\t\tCompBalanceMetadata({\n\t\t\t\tbalance: hds.balanceOf(account),\n\t\t\t\tvotes: uint256(hds.getCurrentVotes(account)),\n\t\t\t\tdelegate: hds.delegates(account)\n\t\t\t});\n\t}\n\n\tstruct CompBalanceMetadataExt {\n\t\tuint256 balance;\n\t\tuint256 votes;\n\t\taddress delegate;\n\t\tuint256 allocated;\n\t}\n\n\tfunction getCompBalanceMetadataExt(\n\t\tHDS hds,\n\t\tMarketControllerLensInterface controller,\n\t\taddress account\n\t) external returns (CompBalanceMetadataExt memory) {\n\t\tuint256 balance = hds.balanceOf(account);\n\t\tcontroller.claimComp(account);\n\t\tuint256 newBalance = hds.balanceOf(account);\n\t\tuint256 accrued = controller.compAccrued(account);\n\t\tuint256 total = add(accrued, newBalance, \"sum comp total\");\n\t\tuint256 allocated = sub(total, balance, \"sub allocated\");\n\n\t\treturn\n\t\t\tCompBalanceMetadataExt({\n\t\t\t\tbalance: balance,\n\t\t\t\tvotes: uint256(hds.getCurrentVotes(account)),\n\t\t\t\tdelegate: hds.delegates(account),\n\t\t\t\tallocated: allocated\n\t\t\t});\n\t}\n\n\tstruct CompVotes {\n\t\tuint256 blockNumber;\n\t\tuint256 votes;\n\t}\n\n\tfunction getCompVotes(\n\t\tHDS hds,\n\t\taddress account,\n\t\tuint32[] calldata blockNumbers\n\t) external view returns (CompVotes[] memory) {\n\t\tCompVotes[] memory res = new CompVotes[](blockNumbers.length);\n\t\tfor (uint256 i = 0; i < blockNumbers.length; i++) {\n\t\t\tres[i] = CompVotes({\n\t\t\t\tblockNumber: uint256(blockNumbers[i]),\n\t\t\t\tvotes: uint256(hds.getPriorVotes(account, blockNumbers[i]))\n\t\t\t});\n\t\t}\n\t\treturn res;\n\t}\n\n\tfunction compareStrings(string memory a, string memory b) internal pure returns (bool) {\n\t\treturn (keccak256(abi.encodePacked((a))) == keccak256(abi.encodePacked((b))));\n\t}\n\n\tfunction add(\n\t\tuint256 a,\n\t\tuint256 b,\n\t\tstring memory errorMessage\n\t) internal pure returns (uint256) {\n\t\tuint256 c = a + b;\n\t\trequire(c >= a, errorMessage);\n\t\treturn c;\n\t}\n\n\tfunction sub(\n\t\tuint256 a,\n\t\tuint256 b,\n\t\tstring memory errorMessage\n\t) internal pure returns (uint256) {\n\t\trequire(b <= a, errorMessage);\n\t\tuint256 c = a - b;\n\t\treturn c;\n\t}\n}\n",
  "sourcePath": "/home/sqf/workspace/defi/example/metacoin-box/src/CompoundLens.sol",
  "compiler": {
    "name": "solc",
    "version": "0.6.0+commit.26b70077.Emscripten.clang"
  },
  "schemaVersion": "3.2.4",
  "updatedAt": "2020-09-09T17:17:54.439Z",
  "devdoc": {
    "methods": {}
  },
  "userdoc": {
    "methods": {}
  }
}