{
  "contractName": "HDS",
  "abi": [
    {
      "inputs": [],
      "stateMutability": "nonpayable",
      "type": "constructor"
    },
    {
      "anonymous": false,
      "inputs": [
        {
          "indexed": true,
          "internalType": "address",
          "name": "owner",
          "type": "address"
        },
        {
          "indexed": true,
          "internalType": "address",
          "name": "spender",
          "type": "address"
        },
        {
          "indexed": false,
          "internalType": "uint256",
          "name": "amount",
          "type": "uint256"
        }
      ],
      "name": "Approval",
      "type": "event"
    },
    {
      "anonymous": false,
      "inputs": [
        {
          "indexed": true,
          "internalType": "address",
          "name": "delegator",
          "type": "address"
        },
        {
          "indexed": true,
          "internalType": "address",
          "name": "fromDelegate",
          "type": "address"
        },
        {
          "indexed": true,
          "internalType": "address",
          "name": "toDelegate",
          "type": "address"
        }
      ],
      "name": "DelegateChanged",
      "type": "event"
    },
    {
      "anonymous": false,
      "inputs": [
        {
          "indexed": true,
          "internalType": "address",
          "name": "delegate",
          "type": "address"
        },
        {
          "indexed": false,
          "internalType": "uint256",
          "name": "previousBalance",
          "type": "uint256"
        },
        {
          "indexed": false,
          "internalType": "uint256",
          "name": "newBalance",
          "type": "uint256"
        }
      ],
      "name": "DelegateVotesChanged",
      "type": "event"
    },
    {
      "anonymous": false,
      "inputs": [
        {
          "indexed": true,
          "internalType": "address",
          "name": "from",
          "type": "address"
        },
        {
          "indexed": true,
          "internalType": "address",
          "name": "to",
          "type": "address"
        },
        {
          "indexed": false,
          "internalType": "uint256",
          "name": "amount",
          "type": "uint256"
        }
      ],
      "name": "Transfer",
      "type": "event"
    },
    {
      "inputs": [],
      "name": "DELEGATION_TYPEHASH",
      "outputs": [
        {
          "internalType": "bytes32",
          "name": "",
          "type": "bytes32"
        }
      ],
      "stateMutability": "view",
      "type": "function"
    },
    {
      "inputs": [],
      "name": "DOMAIN_TYPEHASH",
      "outputs": [
        {
          "internalType": "bytes32",
          "name": "",
          "type": "bytes32"
        }
      ],
      "stateMutability": "view",
      "type": "function"
    },
    {
      "inputs": [],
      "name": "admin",
      "outputs": [
        {
          "internalType": "address",
          "name": "",
          "type": "address"
        }
      ],
      "stateMutability": "view",
      "type": "function"
    },
    {
      "inputs": [
        {
          "internalType": "address",
          "name": "",
          "type": "address"
        },
        {
          "internalType": "uint32",
          "name": "",
          "type": "uint32"
        }
      ],
      "name": "checkpoints",
      "outputs": [
        {
          "internalType": "uint32",
          "name": "fromBlock",
          "type": "uint32"
        },
        {
          "internalType": "uint256",
          "name": "votes",
          "type": "uint256"
        }
      ],
      "stateMutability": "view",
      "type": "function"
    },
    {
      "inputs": [],
      "name": "decimals",
      "outputs": [
        {
          "internalType": "uint8",
          "name": "",
          "type": "uint8"
        }
      ],
      "stateMutability": "view",
      "type": "function"
    },
    {
      "inputs": [
        {
          "internalType": "address",
          "name": "",
          "type": "address"
        }
      ],
      "name": "delegates",
      "outputs": [
        {
          "internalType": "address",
          "name": "",
          "type": "address"
        }
      ],
      "stateMutability": "view",
      "type": "function"
    },
    {
      "inputs": [],
      "name": "maxSupply",
      "outputs": [
        {
          "internalType": "uint256",
          "name": "",
          "type": "uint256"
        }
      ],
      "stateMutability": "view",
      "type": "function"
    },
    {
      "inputs": [],
      "name": "name",
      "outputs": [
        {
          "internalType": "string",
          "name": "",
          "type": "string"
        }
      ],
      "stateMutability": "view",
      "type": "function"
    },
    {
      "inputs": [
        {
          "internalType": "address",
          "name": "",
          "type": "address"
        }
      ],
      "name": "nonces",
      "outputs": [
        {
          "internalType": "uint256",
          "name": "",
          "type": "uint256"
        }
      ],
      "stateMutability": "view",
      "type": "function"
    },
    {
      "inputs": [
        {
          "internalType": "address",
          "name": "",
          "type": "address"
        }
      ],
      "name": "numCheckpoints",
      "outputs": [
        {
          "internalType": "uint32",
          "name": "",
          "type": "uint32"
        }
      ],
      "stateMutability": "view",
      "type": "function"
    },
    {
      "inputs": [],
      "name": "superior",
      "outputs": [
        {
          "internalType": "address",
          "name": "",
          "type": "address"
        }
      ],
      "stateMutability": "view",
      "type": "function"
    },
    {
      "inputs": [],
      "name": "symbol",
      "outputs": [
        {
          "internalType": "string",
          "name": "",
          "type": "string"
        }
      ],
      "stateMutability": "view",
      "type": "function"
    },
    {
      "inputs": [],
      "name": "totalSupply",
      "outputs": [
        {
          "internalType": "uint256",
          "name": "",
          "type": "uint256"
        }
      ],
      "stateMutability": "view",
      "type": "function"
    },
    {
      "inputs": [
        {
          "internalType": "address",
          "name": "_superior",
          "type": "address"
        }
      ],
      "name": "initialize",
      "outputs": [],
      "stateMutability": "nonpayable",
      "type": "function"
    },
    {
      "inputs": [
        {
          "internalType": "address",
          "name": "account",
          "type": "address"
        },
        {
          "internalType": "address",
          "name": "spender",
          "type": "address"
        }
      ],
      "name": "allowance",
      "outputs": [
        {
          "internalType": "uint256",
          "name": "",
          "type": "uint256"
        }
      ],
      "stateMutability": "view",
      "type": "function"
    },
    {
      "inputs": [
        {
          "internalType": "address",
          "name": "spender",
          "type": "address"
        },
        {
          "internalType": "uint256",
          "name": "amount",
          "type": "uint256"
        }
      ],
      "name": "approve",
      "outputs": [
        {
          "internalType": "bool",
          "name": "",
          "type": "bool"
        }
      ],
      "stateMutability": "nonpayable",
      "type": "function"
    },
    {
      "inputs": [
        {
          "internalType": "address",
          "name": "account",
          "type": "address"
        }
      ],
      "name": "balanceOf",
      "outputs": [
        {
          "internalType": "uint256",
          "name": "",
          "type": "uint256"
        }
      ],
      "stateMutability": "view",
      "type": "function"
    },
    {
      "inputs": [
        {
          "internalType": "address",
          "name": "dst",
          "type": "address"
        },
        {
          "internalType": "uint256",
          "name": "amount",
          "type": "uint256"
        }
      ],
      "name": "transfer",
      "outputs": [
        {
          "internalType": "bool",
          "name": "",
          "type": "bool"
        }
      ],
      "stateMutability": "nonpayable",
      "type": "function"
    },
    {
      "inputs": [
        {
          "internalType": "address",
          "name": "src",
          "type": "address"
        },
        {
          "internalType": "address",
          "name": "dst",
          "type": "address"
        },
        {
          "internalType": "uint256",
          "name": "amount",
          "type": "uint256"
        }
      ],
      "name": "transferFrom",
      "outputs": [
        {
          "internalType": "bool",
          "name": "",
          "type": "bool"
        }
      ],
      "stateMutability": "nonpayable",
      "type": "function"
    },
    {
      "inputs": [
        {
          "internalType": "address",
          "name": "src",
          "type": "address"
        },
        {
          "internalType": "uint256",
          "name": "amount",
          "type": "uint256"
        }
      ],
      "name": "mint",
      "outputs": [],
      "stateMutability": "nonpayable",
      "type": "function"
    },
    {
      "inputs": [
        {
          "internalType": "address",
          "name": "src",
          "type": "address"
        },
        {
          "internalType": "uint256",
          "name": "amount",
          "type": "uint256"
        }
      ],
      "name": "burn",
      "outputs": [],
      "stateMutability": "nonpayable",
      "type": "function"
    },
    {
      "inputs": [
        {
          "internalType": "address",
          "name": "delegatee",
          "type": "address"
        }
      ],
      "name": "delegate",
      "outputs": [],
      "stateMutability": "nonpayable",
      "type": "function"
    },
    {
      "inputs": [
        {
          "internalType": "address",
          "name": "delegatee",
          "type": "address"
        },
        {
          "internalType": "uint256",
          "name": "nonce",
          "type": "uint256"
        },
        {
          "internalType": "uint256",
          "name": "expiry",
          "type": "uint256"
        },
        {
          "internalType": "uint8",
          "name": "v",
          "type": "uint8"
        },
        {
          "internalType": "bytes32",
          "name": "r",
          "type": "bytes32"
        },
        {
          "internalType": "bytes32",
          "name": "s",
          "type": "bytes32"
        }
      ],
      "name": "delegateBySig",
      "outputs": [],
      "stateMutability": "nonpayable",
      "type": "function"
    },
    {
      "inputs": [
        {
          "internalType": "address",
          "name": "account",
          "type": "address"
        }
      ],
      "name": "getCurrentVotes",
      "outputs": [
        {
          "internalType": "uint256",
          "name": "",
          "type": "uint256"
        }
      ],
      "stateMutability": "view",
      "type": "function"
    },
    {
      "inputs": [
        {
          "internalType": "address",
          "name": "account",
          "type": "address"
        },
        {
          "internalType": "uint256",
          "name": "blockNumber",
          "type": "uint256"
        }
      ],
      "name": "getPriorVotes",
      "outputs": [
        {
          "internalType": "uint256",
          "name": "",
          "type": "uint256"
        }
      ],
      "stateMutability": "view",
      "type": "function"
    }
  ],
  "bytecode": "0x608060405234801561001057600080fd5b5033600660006101000a81548173ffffffffffffffffffffffffffffffffffffffff021916908373ffffffffffffffffffffffffffffffffffffffff160217905550600066017dfcdece400090508060026000600660009054906101000a900473ffffffffffffffffffffffffffffffffffffffff1673ffffffffffffffffffffffffffffffffffffffff1673ffffffffffffffffffffffffffffffffffffffff168152602001908152602001600020819055508060008190555050613581806100db6000396000f3fe608060405234801561001057600080fd5b50600436106101735760003560e01c80637ecebe00116100de578063c3cda52011610097578063dd62ed3e11610071578063dd62ed3e14610486578063e7a324dc146104b6578063f1127ed8146104d4578063f851a4401461050557610173565b8063c3cda52014610430578063c4d66de81461044c578063d5abeb011461046857610173565b80637ecebe001461034857806395d89b411461037857806395f65898146103965780639dc29fac146103b4578063a9059cbb146103d0578063b4b5ea571461040057610173565b806340c10f191161013057806340c10f1914610250578063587cde1e1461026c5780635c19a95c1461029c5780636fcfff45146102b857806370a08231146102e8578063782d6fe11461031857610173565b806306fdde0314610178578063095ea7b31461019657806318160ddd146101c657806320606b70146101e457806323b872dd14610202578063313ce56714610232575b600080fd5b610180610523565b60405161018d9190613122565b60405180910390f35b6101b060048036036101ab91908101906128cb565b61055c565b6040516101bd919061301d565b60405180910390f35b6101ce6106c3565b6040516101db9190613346565b60405180910390f35b6101ec6106c9565b6040516101f99190613038565b60405180910390f35b61021c6004803603610217919081019061287c565b6106e0565b604051610229919061301d565b60405180910390f35b61023a610d48565b60405161024791906133ce565b60405180910390f35b61026a600480360361026591908101906128cb565b610d4d565b005b61028660048036036102819190810190612817565b610fc5565b6040516102939190613002565b60405180910390f35b6102b660048036036102b19190810190612817565b610ff8565b005b6102d260048036036102cd9190810190612817565b611005565b6040516102df919061338a565b60405180910390f35b61030260048036036102fd9190810190612817565b611028565b60405161030f9190613346565b60405180910390f35b610332600480360361032d91908101906128cb565b611071565b60405161033f9190613346565b60405180910390f35b610362600480360361035d9190810190612817565b611420565b60405161036f9190613346565b60405180910390f35b610380611438565b60405161038d9190613122565b60405180910390f35b61039e611471565b6040516103ab9190613002565b60405180910390f35b6103ce60048036036103c991908101906128cb565b611497565b005b6103ea60048036036103e591908101906128cb565b611944565b6040516103f7919061301d565b60405180910390f35b61041a60048036036104159190810190612817565b611959565b6040516104279190613346565b60405180910390f35b61044a60048036036104459190810190612907565b611a2f565b005b61046660048036036104619190810190612817565b611cd2565b005b610470611e37565b60405161047d9190613346565b60405180910390f35b6104a0600480360361049b9190810190612840565b611e42565b6040516104ad9190613346565b60405180910390f35b6104be611ec9565b6040516104cb9190613038565b60405180910390f35b6104ee60048036036104e99190810190612990565b611ee0565b6040516104fc9291906133a5565b60405180910390f35b61050d611f21565b60405161051a9190613002565b60405180910390f35b6040518060400160405280601681526020017f486164657320676f7665726e616e636520746f6b656e0000000000000000000081525081565b600080339050600073ffffffffffffffffffffffffffffffffffffffff168473ffffffffffffffffffffffffffffffffffffffff1614156105d2576040517f08c379a00000000000000000000000000000000000000000000000000000000081526004016105c990613206565b60405180910390fd5b82600160008373ffffffffffffffffffffffffffffffffffffffff1673ffffffffffffffffffffffffffffffffffffffff16815260200190815260200160002060008673ffffffffffffffffffffffffffffffffffffffff1673ffffffffffffffffffffffffffffffffffffffff168152602001908152602001600020819055508373ffffffffffffffffffffffffffffffffffffffff168173ffffffffffffffffffffffffffffffffffffffff167f8c5be1e5ebec7d5bd14f71427d1e84f3dd0314c0f7b2291e5b200ac8c7c3b925856040516106b09190613346565b60405180910390a3600191505092915050565b60005481565b6040516106d590612fd8565b604051809103902081565b600081600260008673ffffffffffffffffffffffffffffffffffffffff1673ffffffffffffffffffffffffffffffffffffffff168152602001908152602001600020541015610764576040517f08c379a000000000000000000000000000000000000000000000000000000000815260040161075b906131e6565b60405180910390fd5b600073ffffffffffffffffffffffffffffffffffffffff168473ffffffffffffffffffffffffffffffffffffffff1614156107d4576040517f08c379a00000000000000000000000000000000000000000000000000000000081526004016107cb90613266565b60405180910390fd5b600073ffffffffffffffffffffffffffffffffffffffff168373ffffffffffffffffffffffffffffffffffffffff161415610844576040517f08c379a000000000000000000000000000000000000000000000000000000000815260040161083b90613306565b60405180910390fd5b60003390506000600160008773ffffffffffffffffffffffffffffffffffffffff1673ffffffffffffffffffffffffffffffffffffffff16815260200190815260200160002060008373ffffffffffffffffffffffffffffffffffffffff1673ffffffffffffffffffffffffffffffffffffffff1681526020019081526020016000205490508573ffffffffffffffffffffffffffffffffffffffff168273ffffffffffffffffffffffffffffffffffffffff161415801561092657507fffffffffffffffffffffffffffffffffffffffffffffffffffffffffffffffff8114155b15610ae3578381101561096e576040517f08c379a0000000000000000000000000000000000000000000000000000000008152600401610965906132e6565b60405180910390fd5b6109818482611f4790919063ffffffff16565b600160008873ffffffffffffffffffffffffffffffffffffffff1673ffffffffffffffffffffffffffffffffffffffff16815260200190815260200160002060008473ffffffffffffffffffffffffffffffffffffffff1673ffffffffffffffffffffffffffffffffffffffff168152602001908152602001600020819055508173ffffffffffffffffffffffffffffffffffffffff168673ffffffffffffffffffffffffffffffffffffffff167f8c5be1e5ebec7d5bd14f71427d1e84f3dd0314c0f7b2291e5b200ac8c7c3b925600160008a73ffffffffffffffffffffffffffffffffffffffff1673ffffffffffffffffffffffffffffffffffffffff16815260200190815260200160002060008673ffffffffffffffffffffffffffffffffffffffff1673ffffffffffffffffffffffffffffffffffffffff16815260200190815260200160002054604051610ada9190613346565b60405180910390a35b610b3584600260008973ffffffffffffffffffffffffffffffffffffffff1673ffffffffffffffffffffffffffffffffffffffff16815260200190815260200160002054611f4790919063ffffffff16565b600260008873ffffffffffffffffffffffffffffffffffffffff1673ffffffffffffffffffffffffffffffffffffffff16815260200190815260200160002081905550610bca84600260008873ffffffffffffffffffffffffffffffffffffffff1673ffffffffffffffffffffffffffffffffffffffff16815260200190815260200160002054611f9190919063ffffffff16565b600260008773ffffffffffffffffffffffffffffffffffffffff1673ffffffffffffffffffffffffffffffffffffffff168152602001908152602001600020819055508473ffffffffffffffffffffffffffffffffffffffff168673ffffffffffffffffffffffffffffffffffffffff167fddf252ad1be2c89b69c2b068fc378daa952ba7f163c4a11628f55a4df523b3ef86604051610c6a9190613346565b60405180910390a3610d3b600360008873ffffffffffffffffffffffffffffffffffffffff1673ffffffffffffffffffffffffffffffffffffffff16815260200190815260200160002060009054906101000a900473ffffffffffffffffffffffffffffffffffffffff16600360008873ffffffffffffffffffffffffffffffffffffffff1673ffffffffffffffffffffffffffffffffffffffff16815260200190815260200160002060009054906101000a900473ffffffffffffffffffffffffffffffffffffffff1686611fe6565b6001925050509392505050565b600881565b3373ffffffffffffffffffffffffffffffffffffffff16600760009054906101000a900473ffffffffffffffffffffffffffffffffffffffff1673ffffffffffffffffffffffffffffffffffffffff1614610ddd576040517f08c379a0000000000000000000000000000000000000000000000000000000008152600401610dd4906131c6565b60405180910390fd5b660775f05a074000610dfa82600054611f9190919063ffffffff16565b1115610e3b576040517f08c379a0000000000000000000000000000000000000000000000000000000008152600401610e3290613186565b60405180910390fd5b600073ffffffffffffffffffffffffffffffffffffffff168273ffffffffffffffffffffffffffffffffffffffff161415610eab576040517f08c379a0000000000000000000000000000000000000000000000000000000008152600401610ea290613246565b60405180910390fd5b610efd81600260008573ffffffffffffffffffffffffffffffffffffffff1673ffffffffffffffffffffffffffffffffffffffff16815260200190815260200160002054611f9190919063ffffffff16565b600260008473ffffffffffffffffffffffffffffffffffffffff1673ffffffffffffffffffffffffffffffffffffffff16815260200190815260200160002081905550610f5581600054611f9190919063ffffffff16565b6000819055508173ffffffffffffffffffffffffffffffffffffffff16600073ffffffffffffffffffffffffffffffffffffffff167fddf252ad1be2c89b69c2b068fc378daa952ba7f163c4a11628f55a4df523b3ef83604051610fb99190613346565b60405180910390a35050565b60036020528060005260406000206000915054906101000a900473ffffffffffffffffffffffffffffffffffffffff1681565b6110023382612283565b50565b60056020528060005260406000206000915054906101000a900463ffffffff1681565b6000600260008373ffffffffffffffffffffffffffffffffffffffff1673ffffffffffffffffffffffffffffffffffffffff168152602001908152602001600020549050919050565b60004382106110b5576040517f08c379a00000000000000000000000000000000000000000000000000000000081526004016110ac906132c6565b60405180910390fd5b6000600560008573ffffffffffffffffffffffffffffffffffffffff1673ffffffffffffffffffffffffffffffffffffffff16815260200190815260200160002060009054906101000a900463ffffffff16905060008163ffffffff16141561112257600091505061141a565b82600460008673ffffffffffffffffffffffffffffffffffffffff1673ffffffffffffffffffffffffffffffffffffffff16815260200190815260200160002060006001840363ffffffff1663ffffffff16815260200190815260200160002060000160009054906101000a900463ffffffff1663ffffffff161161120c57600460008573ffffffffffffffffffffffffffffffffffffffff1673ffffffffffffffffffffffffffffffffffffffff16815260200190815260200160002060006001830363ffffffff1663ffffffff1681526020019081526020016000206001015491505061141a565b82600460008673ffffffffffffffffffffffffffffffffffffffff1673ffffffffffffffffffffffffffffffffffffffff16815260200190815260200160002060008063ffffffff16815260200190815260200160002060000160009054906101000a900463ffffffff1663ffffffff16111561128d57600091505061141a565b600080905060006001830390505b8163ffffffff168163ffffffff1611156113b4576000600283830363ffffffff16816112c357fe5b04820390506112d061278e565b600460008973ffffffffffffffffffffffffffffffffffffffff1673ffffffffffffffffffffffffffffffffffffffff16815260200190815260200160002060008363ffffffff1663ffffffff1681526020019081526020016000206040518060400160405290816000820160009054906101000a900463ffffffff1663ffffffff1663ffffffff168152602001600182015481525050905086816000015163ffffffff16141561138c5780602001519550505050505061141a565b86816000015163ffffffff1610156113a6578193506113ad565b6001820392505b505061129b565b600460008773ffffffffffffffffffffffffffffffffffffffff1673ffffffffffffffffffffffffffffffffffffffff16815260200190815260200160002060008363ffffffff1663ffffffff1681526020019081526020016000206001015493505050505b92915050565b60086020528060005260406000206000915090505481565b6040518060400160405280600381526020017f484453000000000000000000000000000000000000000000000000000000000081525081565b600760009054906101000a900473ffffffffffffffffffffffffffffffffffffffff1681565b80600260008473ffffffffffffffffffffffffffffffffffffffff1673ffffffffffffffffffffffffffffffffffffffff168152602001908152602001600020541015611519576040517f08c379a0000000000000000000000000000000000000000000000000000000008152600401611510906131e6565b60405180910390fd5b600073ffffffffffffffffffffffffffffffffffffffff168273ffffffffffffffffffffffffffffffffffffffff161415611589576040517f08c379a000000000000000000000000000000000000000000000000000000000815260040161158090613326565b60405180910390fd5b60003390506000600160008573ffffffffffffffffffffffffffffffffffffffff1673ffffffffffffffffffffffffffffffffffffffff16815260200190815260200160002060008373ffffffffffffffffffffffffffffffffffffffff1673ffffffffffffffffffffffffffffffffffffffff1681526020019081526020016000205490508173ffffffffffffffffffffffffffffffffffffffff168473ffffffffffffffffffffffffffffffffffffffff161415801561166b57507fffffffffffffffffffffffffffffffffffffffffffffffffffffffffffffffff8114155b1561182857828110156116b3576040517f08c379a00000000000000000000000000000000000000000000000000000000081526004016116aa906132e6565b60405180910390fd5b6116c68382611f4790919063ffffffff16565b600160008673ffffffffffffffffffffffffffffffffffffffff1673ffffffffffffffffffffffffffffffffffffffff16815260200190815260200160002060008473ffffffffffffffffffffffffffffffffffffffff1673ffffffffffffffffffffffffffffffffffffffff168152602001908152602001600020819055508173ffffffffffffffffffffffffffffffffffffffff168473ffffffffffffffffffffffffffffffffffffffff167f8c5be1e5ebec7d5bd14f71427d1e84f3dd0314c0f7b2291e5b200ac8c7c3b925600160008873ffffffffffffffffffffffffffffffffffffffff1673ffffffffffffffffffffffffffffffffffffffff16815260200190815260200160002060008673ffffffffffffffffffffffffffffffffffffffff1673ffffffffffffffffffffffffffffffffffffffff1681526020019081526020016000205460405161181f9190613346565b60405180910390a35b61187a83600260008773ffffffffffffffffffffffffffffffffffffffff1673ffffffffffffffffffffffffffffffffffffffff16815260200190815260200160002054611f4790919063ffffffff16565b600260008673ffffffffffffffffffffffffffffffffffffffff1673ffffffffffffffffffffffffffffffffffffffff168152602001908152602001600020819055506118d283600054611f4790919063ffffffff16565b600081905550600073ffffffffffffffffffffffffffffffffffffffff168473ffffffffffffffffffffffffffffffffffffffff167fddf252ad1be2c89b69c2b068fc378daa952ba7f163c4a11628f55a4df523b3ef856040516119369190613346565b60405180910390a350505050565b60006119513384846106e0565b905092915050565b600080600560008473ffffffffffffffffffffffffffffffffffffffff1673ffffffffffffffffffffffffffffffffffffffff16815260200190815260200160002060009054906101000a900463ffffffff16905060008163ffffffff16116119c3576000611a27565b600460008473ffffffffffffffffffffffffffffffffffffffff1673ffffffffffffffffffffffffffffffffffffffff16815260200190815260200160002060006001830363ffffffff1663ffffffff168152602001908152602001600020600101545b915050919050565b6000604051611a3d90612fd8565b60405180910390206040518060400160405280601681526020017f486164657320676f7665726e616e636520746f6b656e0000000000000000000081525080519060200120611a8a612425565b30604051602001611a9e9493929190613098565b6040516020818303038152906040528051906020012090506000604051611ac490612fed565b6040518091039020888888604051602001611ae29493929190613053565b60405160208183030381529060405280519060200120905060008282604051602001611b0f929190612fa1565b604051602081830303815290604052805190602001209050600060018288888860405160008152602001604052604051611b4c94939291906130dd565b6020604051602081039080840390855afa158015611b6e573d6000803e3d6000fd5b505050602060405103519050600073ffffffffffffffffffffffffffffffffffffffff168173ffffffffffffffffffffffffffffffffffffffff161415611bea576040517f08c379a0000000000000000000000000000000000000000000000000000000008152600401611be190613166565b60405180910390fd5b600860008273ffffffffffffffffffffffffffffffffffffffff1673ffffffffffffffffffffffffffffffffffffffff1681526020019081526020016000206000815480929190600101919050558914611c79576040517f08c379a0000000000000000000000000000000000000000000000000000000008152600401611c7090613286565b60405180910390fd5b87421115611cbc576040517f08c379a0000000000000000000000000000000000000000000000000000000008152600401611cb390613226565b60405180910390fd5b611cc6818b612283565b50505050505050505050565b3373ffffffffffffffffffffffffffffffffffffffff16600660009054906101000a900473ffffffffffffffffffffffffffffffffffffffff1673ffffffffffffffffffffffffffffffffffffffff1614611d62576040517f08c379a0000000000000000000000000000000000000000000000000000000008152600401611d59906131c6565b60405180910390fd5b600073ffffffffffffffffffffffffffffffffffffffff16600760009054906101000a900473ffffffffffffffffffffffffffffffffffffffff1673ffffffffffffffffffffffffffffffffffffffff1614611df3576040517f08c379a0000000000000000000000000000000000000000000000000000000008152600401611dea906132a6565b60405180910390fd5b80600760006101000a81548173ffffffffffffffffffffffffffffffffffffffff021916908373ffffffffffffffffffffffffffffffffffffffff16021790555050565b660775f05a07400081565b6000600160008473ffffffffffffffffffffffffffffffffffffffff1673ffffffffffffffffffffffffffffffffffffffff16815260200190815260200160002060008373ffffffffffffffffffffffffffffffffffffffff1673ffffffffffffffffffffffffffffffffffffffff16815260200190815260200160002054905092915050565b604051611ed590612fed565b604051809103902081565b6004602052816000526040600020602052806000526040600020600091509150508060000160009054906101000a900463ffffffff16908060010154905082565b600660009054906101000a900473ffffffffffffffffffffffffffffffffffffffff1681565b6000611f8983836040518060400160405280601f81526020017f536166654d6174683a207375627472616374696f6e20756e646572666c6f7700815250612432565b905092915050565b600080828401905083811015611fdc576040517f08c379a0000000000000000000000000000000000000000000000000000000008152600401611fd3906131a6565b60405180910390fd5b8091505092915050565b8173ffffffffffffffffffffffffffffffffffffffff168373ffffffffffffffffffffffffffffffffffffffff16141580156120225750600081115b1561227e57600073ffffffffffffffffffffffffffffffffffffffff168373ffffffffffffffffffffffffffffffffffffffff1614612152576000600560008573ffffffffffffffffffffffffffffffffffffffff1673ffffffffffffffffffffffffffffffffffffffff16815260200190815260200160002060009054906101000a900463ffffffff1690506000808263ffffffff16116120c5576000612129565b600460008673ffffffffffffffffffffffffffffffffffffffff1673ffffffffffffffffffffffffffffffffffffffff16815260200190815260200160002060006001840363ffffffff1663ffffffff168152602001908152602001600020600101545b905060006121408483611f4790919063ffffffff16565b905061214e8684848461248d565b5050505b600073ffffffffffffffffffffffffffffffffffffffff168273ffffffffffffffffffffffffffffffffffffffff161461227d576000600560008473ffffffffffffffffffffffffffffffffffffffff1673ffffffffffffffffffffffffffffffffffffffff16815260200190815260200160002060009054906101000a900463ffffffff1690506000808263ffffffff16116121f0576000612254565b600460008573ffffffffffffffffffffffffffffffffffffffff1673ffffffffffffffffffffffffffffffffffffffff16815260200190815260200160002060006001840363ffffffff1663ffffffff168152602001908152602001600020600101545b9050600061226b8483611f9190919063ffffffff16565b90506122798584848461248d565b5050505b5b505050565b6000600360008473ffffffffffffffffffffffffffffffffffffffff1673ffffffffffffffffffffffffffffffffffffffff16815260200190815260200160002060009054906101000a900473ffffffffffffffffffffffffffffffffffffffff16905081600360008573ffffffffffffffffffffffffffffffffffffffff1673ffffffffffffffffffffffffffffffffffffffff16815260200190815260200160002060006101000a81548173ffffffffffffffffffffffffffffffffffffffff021916908373ffffffffffffffffffffffffffffffffffffffff1602179055508173ffffffffffffffffffffffffffffffffffffffff168173ffffffffffffffffffffffffffffffffffffffff168473ffffffffffffffffffffffffffffffffffffffff167f3134e8a2e6d97e929a7e54011ea5485d7d196dd5f0ba4d4ef95803e8e3fc257f60405160405180910390a46124208183600260008773ffffffffffffffffffffffffffffffffffffffff1673ffffffffffffffffffffffffffffffffffffffff16815260200190815260200160002054611fe6565b505050565b6000804690508091505090565b600083831115829061247a576040517f08c379a00000000000000000000000000000000000000000000000000000000081526004016124719190613144565b60405180910390fd5b5060008385039050809150509392505050565b60006124ce436040518060400160405280601981526020017f4844532f426c6f636b206e756d626572206f766572666c6f7700000000000000815250612738565b905060008463ffffffff1611801561256357508063ffffffff16600460008773ffffffffffffffffffffffffffffffffffffffff1673ffffffffffffffffffffffffffffffffffffffff16815260200190815260200160002060006001870363ffffffff1663ffffffff16815260200190815260200160002060000160009054906101000a900463ffffffff1663ffffffff16145b156125d45781600460008773ffffffffffffffffffffffffffffffffffffffff1673ffffffffffffffffffffffffffffffffffffffff16815260200190815260200160002060006001870363ffffffff1663ffffffff168152602001908152602001600020600101819055506126e1565b60405180604001604052808263ffffffff16815260200183815250600460008773ffffffffffffffffffffffffffffffffffffffff1673ffffffffffffffffffffffffffffffffffffffff16815260200190815260200160002060008663ffffffff1663ffffffff16815260200190815260200160002060008201518160000160006101000a81548163ffffffff021916908363ffffffff1602179055506020820151816001015590505060018401600560008773ffffffffffffffffffffffffffffffffffffffff1673ffffffffffffffffffffffffffffffffffffffff16815260200190815260200160002060006101000a81548163ffffffff021916908363ffffffff1602179055505b8473ffffffffffffffffffffffffffffffffffffffff167fdec2bacdd2f05b59de34da9b523dff8be42e5e38e818c82fdb0bae774387a7248484604051612729929190613361565b60405180910390a25050505050565b600064010000000083108290612784576040517f08c379a000000000000000000000000000000000000000000000000000000000815260040161277b9190613144565b60405180910390fd5b5082905092915050565b6040518060400160405280600063ffffffff168152602001600081525090565b6000813590506127bd816134d8565b92915050565b6000813590506127d2816134ef565b92915050565b6000813590506127e781613506565b92915050565b6000813590506127fc8161351d565b92915050565b60008135905061281181613534565b92915050565b60006020828403121561282957600080fd5b6000612837848285016127ae565b91505092915050565b6000806040838503121561285357600080fd5b6000612861858286016127ae565b9250506020612872858286016127ae565b9150509250929050565b60008060006060848603121561289157600080fd5b600061289f868287016127ae565b93505060206128b0868287016127ae565b92505060406128c1868287016127d8565b9150509250925092565b600080604083850312156128de57600080fd5b60006128ec858286016127ae565b92505060206128fd858286016127d8565b9150509250929050565b60008060008060008060c0878903121561292057600080fd5b600061292e89828a016127ae565b965050602061293f89828a016127d8565b955050604061295089828a016127d8565b945050606061296189828a01612802565b935050608061297289828a016127c3565b92505060a061298389828a016127c3565b9150509295509295509295565b600080604083850312156129a357600080fd5b60006129b1858286016127ae565b92505060206129c2858286016127ed565b9150509250929050565b6129d58161341b565b82525050565b6129e48161342d565b82525050565b6129f381613439565b82525050565b612a0a612a0582613439565b6134bd565b82525050565b6000612a1b826133f4565b612a2581856133ff565b9350612a3581856020860161348a565b612a3e816134c7565b840191505092915050565b6000612a54826133e9565b612a5e81856133ff565b9350612a6e81856020860161348a565b612a77816134c7565b840191505092915050565b6000612a8f6016836133ff565b91507f4844532f20696e76616c6964207369676e6174757265000000000000000000006000830152602082019050919050565b6000612acf6017836133ff565b91507f4844532f4d617820737570706c792065786365656465640000000000000000006000830152602082019050919050565b6000612b0f600283613410565b91507f19010000000000000000000000000000000000000000000000000000000000006000830152600282019050919050565b6000612b4f601b836133ff565b91507f536166654d6174683a206164646974696f6e206f766572666c6f7700000000006000830152602082019050919050565b6000612b8f6015836133ff565b91507f4844532f7065726d697373696f6e2064656e69656400000000000000000000006000830152602082019050919050565b6000612bcf6018836133ff565b91507f4844532f696e73756666696369656e742d62616c616e636500000000000000006000830152602082019050919050565b6000612c0f601b836133ff565b91507f4844532f617070726f766520746f207a65726f206164647265737300000000006000830152602082019050919050565b6000612c4f6015836133ff565b91507f4844532f7369676e6174757265206578706972656400000000000000000000006000830152602082019050919050565b6000612c8f604383613410565b91507f454950373132446f6d61696e28737472696e67206e616d652c75696e7432353660008301527f20636861696e49642c6164647265737320766572696679696e67436f6e74726160208301527f63742900000000000000000000000000000000000000000000000000000000006040830152604382019050919050565b6000612d1b6018836133ff565b91507f4844532f6d696e7420746f207a65726f206164647265737300000000000000006000830152602082019050919050565b6000612d5b601e836133ff565b91507f4844532f7472616e736665722066726f6d207a65726f206164647265737300006000830152602082019050919050565b6000612d9b6012836133ff565b91507f4844532f20696e76616c6964206e6f6e636500000000000000000000000000006000830152602082019050919050565b6000612ddb6017836133ff565b91507f4844532f416c726561647920696e697469616c697a65640000000000000000006000830152602082019050919050565b6000612e1b6016836133ff565b91507f4844532f6e6f74207965742064657465726d696e6564000000000000000000006000830152602082019050919050565b6000612e5b603a83613410565b91507f44656c65676174696f6e28616464726573732064656c6567617465652c75696e60008301527f74323536206e6f6e63652c75696e7432353620657870697279290000000000006020830152603a82019050919050565b6000612ec1601a836133ff565b91507f4844532f696e73756666696369656e742d616c6c6f77616e63650000000000006000830152602082019050919050565b6000612f01601c836133ff565b91507f4844532f7472616e7366657220746f207a65726f2061646472657373000000006000830152602082019050919050565b6000612f41601a836133ff565b91507f4844532f6275726e2066726f6d207a65726f20616464726573730000000000006000830152602082019050919050565b612f7d81613463565b82525050565b612f8c8161346d565b82525050565b612f9b8161347d565b82525050565b6000612fac82612b02565b9150612fb882856129f9565b602082019150612fc882846129f9565b6020820191508190509392505050565b6000612fe382612c82565b9150819050919050565b6000612ff882612e4e565b9150819050919050565b600060208201905061301760008301846129cc565b92915050565b600060208201905061303260008301846129db565b92915050565b600060208201905061304d60008301846129ea565b92915050565b600060808201905061306860008301876129ea565b61307560208301866129cc565b6130826040830185612f74565b61308f6060830184612f74565b95945050505050565b60006080820190506130ad60008301876129ea565b6130ba60208301866129ea565b6130c76040830185612f74565b6130d460608301846129cc565b95945050505050565b60006080820190506130f260008301876129ea565b6130ff6020830186612f92565b61310c60408301856129ea565b61311960608301846129ea565b95945050505050565b6000602082019050818103600083015261313c8184612a49565b905092915050565b6000602082019050818103600083015261315e8184612a10565b905092915050565b6000602082019050818103600083015261317f81612a82565b9050919050565b6000602082019050818103600083015261319f81612ac2565b9050919050565b600060208201905081810360008301526131bf81612b42565b9050919050565b600060208201905081810360008301526131df81612b82565b9050919050565b600060208201905081810360008301526131ff81612bc2565b9050919050565b6000602082019050818103600083015261321f81612c02565b9050919050565b6000602082019050818103600083015261323f81612c42565b9050919050565b6000602082019050818103600083015261325f81612d0e565b9050919050565b6000602082019050818103600083015261327f81612d4e565b9050919050565b6000602082019050818103600083015261329f81612d8e565b9050919050565b600060208201905081810360008301526132bf81612dce565b9050919050565b600060208201905081810360008301526132df81612e0e565b9050919050565b600060208201905081810360008301526132ff81612eb4565b9050919050565b6000602082019050818103600083015261331f81612ef4565b9050919050565b6000602082019050818103600083015261333f81612f34565b9050919050565b600060208201905061335b6000830184612f74565b92915050565b60006040820190506133766000830185612f74565b6133836020830184612f74565b9392505050565b600060208201905061339f6000830184612f83565b92915050565b60006040820190506133ba6000830185612f83565b6133c76020830184612f74565b9392505050565b60006020820190506133e36000830184612f92565b92915050565b600081519050919050565b600081519050919050565b600082825260208201905092915050565b600081905092915050565b600061342682613443565b9050919050565b60008115159050919050565b6000819050919050565b600073ffffffffffffffffffffffffffffffffffffffff82169050919050565b6000819050919050565b600063ffffffff82169050919050565b600060ff82169050919050565b60005b838110156134a857808201518184015260208101905061348d565b838111156134b7576000848401525b50505050565b6000819050919050565b6000601f19601f8301169050919050565b6134e18161341b565b81146134ec57600080fd5b50565b6134f881613439565b811461350357600080fd5b50565b61350f81613463565b811461351a57600080fd5b50565b6135268161346d565b811461353157600080fd5b50565b61353d8161347d565b811461354857600080fd5b5056fea26469706673582212200b86ef6e60d16f33f15f83b85b4947d3fbe54bb6434557209bae004af727603b64736f6c63430006000033",
  "source": "pragma solidity ^0.6.0;\npragma experimental ABIEncoderV2;\n\nimport \"./libraries/SafeMath.sol\";\n\ncontract HDS {\n\tusing SafeMath for uint256;\n\n\t/// @notice EIP-20 token name for this token\n\tstring public constant name = \"Hades governance token\";\n\n\t/// @notice EIP-20 token symbol for this token\n\tstring public constant symbol = \"HDS\";\n\n\t/// @notice EIP-20 token decimals for this token\n\tuint8 public constant decimals = 8;\n\n\t/// @notice Total number of tokens in circulation\n\tuint256 public totalSupply;\n\n\t/// @notice Max supply of tokens\n\tuint256 public constant maxSupply = 21000000e8; // 21 million\n\n\t/// @notice Allowance amounts on behalf of others\n\tmapping(address => mapping(address => uint256)) internal allowances;\n\n\t/// @notice Official record of token balances for each account\n\tmapping(address => uint256) internal balances;\n\n\t/// @notice A record of each accounts delegate\n\tmapping(address => address) public delegates;\n\n\t/// @notice A checkpoint for marking number of votes from a given block\n\tstruct Checkpoint {\n\t\tuint32 fromBlock;\n\t\tuint256 votes;\n\t}\n\n\t/// @notice A record of votes checkpoints for each account, by index\n\tmapping(address => mapping(uint32 => Checkpoint)) public checkpoints;\n\n\t/// @notice The number of checkpoints for each account\n\tmapping(address => uint32) public numCheckpoints;\n\n\t/// @notice The admin address that have the auth to initialize the superior\n\taddress public admin;\n\n\t/// @notice The distributor address that have the auth to mint or burn tokens\n\taddress public superior;\n\n\t/// @notice The EIP-712 typehash for the contract's domain\n\tbytes32 public constant DOMAIN_TYPEHASH = keccak256(\n\t\t\"EIP712Domain(string name,uint256 chainId,address verifyingContract)\"\n\t);\n\n\t/// @notice The EIP-712 typehash for the delegation struct used by the contract\n\tbytes32 public constant DELEGATION_TYPEHASH = keccak256(\"Delegation(address delegatee,uint256 nonce,uint256 expiry)\");\n\n\t/// @notice A record of states for signing / validating signatures\n\tmapping(address => uint256) public nonces;\n\n\t/// @notice An event thats emitted when an account changes its delegate\n\tevent DelegateChanged(address indexed delegator, address indexed fromDelegate, address indexed toDelegate);\n\n\t/// @notice An event thats emitted when a delegate account's vote balance changes\n\tevent DelegateVotesChanged(address indexed delegate, uint256 previousBalance, uint256 newBalance);\n\n\t/// @notice The standard EIP-20 transfer event\n\tevent Transfer(address indexed from, address indexed to, uint256 amount);\n\n\t/// @notice The standard EIP-20 approval event\n\tevent Approval(address indexed owner, address indexed spender, uint256 amount);\n\n\t/// @notice For safety auditor: the superior should be the deployed MarketController contract address\n\tmodifier onlySuperior {\n\t\trequire(superior == msg.sender, \"HDS/permission denied\");\n\t\t_;\n\t}\n\n\tconstructor() public {\n\t\tadmin = msg.sender;\n\t\tuint256 initialSupply = 4200000e8; // 4.2 million\n\t\tbalances[admin] = initialSupply;\n\t\ttotalSupply = initialSupply;\n\t}\n\n\tfunction initialize(address _superior) external {\n\t\trequire(admin == msg.sender, \"HDS/permission denied\");\n\t\trequire(superior == address(0), \"HDS/Already initialized\");\n\t\tsuperior = _superior;\n\t}\n\n\t/**\n\t * @notice Get the number of tokens `spender` is approved to spend on behalf of `account`\n\t * @param account The address of the account holding the funds\n\t * @param spender The address of the account spending the funds\n\t * @return The number of tokens approved\n\t */\n\tfunction allowance(address account, address spender) external view returns (uint256) {\n\t\treturn allowances[account][spender];\n\t}\n\n\t/**\n\t * @notice Approve `spender` to transfer up to `amount` from `src`\n\t * @dev This will overwrite the approval amount for `spender`\n\t *  and is subject to issues noted [here](https://eips.ethereum.org/EIPS/eip-20#approve)\n\t * @param spender The address of the account which may transfer tokens\n\t * @param amount The number of tokens that are approved (2^256-1 means infinite)\n\t * @return Whether or not the approval succeeded\n\t */\n\tfunction approve(address spender, uint256 amount) external returns (bool) {\n\t\taddress owner = msg.sender;\n\t\trequire(spender != address(0), \"HDS/approve to zero address\");\n\t\tallowances[owner][spender] = amount;\n\t\temit Approval(owner, spender, amount);\n\t\treturn true;\n\t}\n\n\t/**\n\t * @notice Get the number of tokens held by the `account`\n\t * @param account The address of the account to get the balance of\n\t * @return The number of tokens held\n\t */\n\tfunction balanceOf(address account) external view returns (uint256) {\n\t\treturn balances[account];\n\t}\n\n\t/**\n\t * @notice Transfer `amount` tokens from `msg.sender` to `dst`\n\t * @param dst The address of the destination account\n\t * @param amount The number of tokens to transfer\n\t * @return Whether or not the transfer succeeded\n\t */\n\tfunction transfer(address dst, uint256 amount) external returns (bool) {\n\t\treturn transferFrom(msg.sender, dst, amount);\n\t}\n\n\t/**\n\t * @notice Transfer `amount` tokens from `src` to `dst`\n\t * @param src The address of the source account\n\t * @param dst The address of the destination account\n\t * @param amount The number of tokens to transfer\n\t * @return Whether or not the transfer succeeded\n\t */\n\tfunction transferFrom(\n\t\taddress src,\n\t\taddress dst,\n\t\tuint256 amount\n\t) public returns (bool) {\n\t\trequire(balances[src] >= amount, \"HDS/insufficient-balance\");\n\t\trequire(src != address(0), \"HDS/transfer from zero address\");\n\t\trequire(dst != address(0), \"HDS/transfer to zero address\");\n\n\t\taddress sender = msg.sender;\n\t\tuint256 allowed = allowances[src][sender];\n\t\tif (sender != src && allowed != uint256(-1)) {\n\t\t\trequire(allowed >= amount, \"HDS/insufficient-allowance\");\n\t\t\tallowances[src][sender] = allowed.sub(amount);\n\t\t\temit Approval(src, sender, allowances[src][sender]);\n\t\t}\n\t\tbalances[src] = balances[src].sub(amount);\n\t\tbalances[dst] = balances[dst].add(amount);\n\t\temit Transfer(src, dst, amount);\n\n\t\t_moveDelegates(delegates[src], delegates[dst], amount);\n\t\treturn true;\n\t}\n\n\t/**\n\t * @notice Mint `amount` tokens for 'src'\n\t * @param src The address to receive the mint tokens\n\t * @param amount The number of tokens to mint\n\t */\n\tfunction mint(address src, uint256 amount) external onlySuperior {\n\t\trequire(totalSupply.add(amount) <= maxSupply, \"HDS/Max supply exceeded\");\n\t\trequire(src != address(0), \"HDS/mint to zero address\");\n\n\t\tbalances[src] = balances[src].add(amount);\n\t\ttotalSupply = totalSupply.add(amount);\n\t\temit Transfer(address(0), src, amount);\n\t}\n\n\t/**\n\t * @notice Burn `amount` tokens for 'src'\n\t * @param src The address to burn tokens\n\t * @param amount The number of tokens to burn\n\t */\n\tfunction burn(address src, uint256 amount) external {\n\t\trequire(balances[src] >= amount, \"HDS/insufficient-balance\");\n\t\trequire(src != address(0), \"HDS/burn from zero address\");\n\n\t\taddress sender = msg.sender;\n\t\tuint256 allowed = allowances[src][sender];\n\t\tif (src != sender && allowed != uint256(-1)) {\n\t\t\trequire(allowed >= amount, \"HDS/insufficient-allowance\");\n\t\t\tallowances[src][sender] = allowed.sub(amount);\n\t\t\temit Approval(src, sender, allowances[src][sender]);\n\t\t}\n\t\tbalances[src] = balances[src].sub(amount);\n\t\ttotalSupply = totalSupply.sub(amount);\n\t\temit Transfer(src, address(0), amount);\n\t}\n\n\t/**\n\t * @notice Delegate votes from `msg.sender` to `delegatee`\n\t * @param delegatee The address to delegate votes to\n\t */\n\tfunction delegate(address delegatee) public {\n\t\treturn _delegate(msg.sender, delegatee);\n\t}\n\n\t/**\n\t * @notice Delegates votes from signatory to `delegatee`\n\t * @param delegatee The address to delegate votes to\n\t * @param nonce The contract state required to match the signature\n\t * @param expiry The time at which to expire the signature\n\t * @param v The recovery byte of the signature\n\t * @param r Half of the ECDSA signature pair\n\t * @param s Half of the ECDSA signature pair\n\t */\n\tfunction delegateBySig(\n\t\taddress delegatee,\n\t\tuint256 nonce,\n\t\tuint256 expiry,\n\t\tuint8 v,\n\t\tbytes32 r,\n\t\tbytes32 s\n\t) public {\n\t\tbytes32 domainSeparator = keccak256(\n\t\t\tabi.encode(DOMAIN_TYPEHASH, keccak256(bytes(name)), getChainId(), address(this))\n\t\t);\n\t\tbytes32 structHash = keccak256(abi.encode(DELEGATION_TYPEHASH, delegatee, nonce, expiry));\n\t\tbytes32 digest = keccak256(abi.encodePacked(\"\\x19\\x01\", domainSeparator, structHash));\n\t\taddress signatory = ecrecover(digest, v, r, s);\n\t\trequire(signatory != address(0), \"HDS/ invalid signature\");\n\t\trequire(nonce == nonces[signatory]++, \"HDS/ invalid nonce\");\n\t\trequire(now <= expiry, \"HDS/signature expired\");\n\t\treturn _delegate(signatory, delegatee);\n\t}\n\n\t/**\n\t * @notice Gets the current votes balance for `account`\n\t * @param account The address to get votes balance\n\t * @return The number of current votes for `account`\n\t */\n\tfunction getCurrentVotes(address account) external view returns (uint256) {\n\t\tuint32 nCheckpoints = numCheckpoints[account];\n\t\treturn nCheckpoints > 0 ? checkpoints[account][nCheckpoints - 1].votes : 0;\n\t}\n\n\t/**\n\t * @notice Determine the prior number of votes for an account as of a block number\n\t * @dev Block number must be a finalized block or else this function will revert to prevent misinformation.\n\t * @param account The address of the account to check\n\t * @param blockNumber The block number to get the vote balance at\n\t * @return The number of votes the account had as of the given block\n\t */\n\tfunction getPriorVotes(address account, uint256 blockNumber) public view returns (uint256) {\n\t\trequire(blockNumber < block.number, \"HDS/not yet determined\");\n\n\t\tuint32 nCheckpoints = numCheckpoints[account];\n\t\tif (nCheckpoints == 0) {\n\t\t\treturn 0;\n\t\t}\n\n\t\t// First check most recent balance\n\t\tif (checkpoints[account][nCheckpoints - 1].fromBlock <= blockNumber) {\n\t\t\treturn checkpoints[account][nCheckpoints - 1].votes;\n\t\t}\n\n\t\t// Next check implicit zero balance\n\t\tif (checkpoints[account][0].fromBlock > blockNumber) {\n\t\t\treturn 0;\n\t\t}\n\n\t\tuint32 lower = 0;\n\t\tuint32 upper = nCheckpoints - 1;\n\t\twhile (upper > lower) {\n\t\t\tuint32 center = upper - (upper - lower) / 2; // ceil, avoiding overflow\n\t\t\tCheckpoint memory cp = checkpoints[account][center];\n\t\t\tif (cp.fromBlock == blockNumber) {\n\t\t\t\treturn cp.votes;\n\t\t\t} else if (cp.fromBlock < blockNumber) {\n\t\t\t\tlower = center;\n\t\t\t} else {\n\t\t\t\tupper = center - 1;\n\t\t\t}\n\t\t}\n\t\treturn checkpoints[account][lower].votes;\n\t}\n\n\tfunction _delegate(address delegator, address delegatee) internal {\n\t\taddress currentDelegate = delegates[delegator];\n\t\tdelegates[delegator] = delegatee;\n\t\temit DelegateChanged(delegator, currentDelegate, delegatee);\n\t\t_moveDelegates(currentDelegate, delegatee, balances[delegator]);\n\t}\n\n\tfunction _moveDelegates(\n\t\taddress srcRep,\n\t\taddress dstRep,\n\t\tuint256 amount\n\t) internal {\n\t\tif (srcRep != dstRep && amount > 0) {\n\t\t\tif (srcRep != address(0)) {\n\t\t\t\tuint32 srcRepNum = numCheckpoints[srcRep];\n\t\t\t\tuint256 srcRepOld = srcRepNum > 0 ? checkpoints[srcRep][srcRepNum - 1].votes : 0;\n\t\t\t\tuint256 srcRepNew = srcRepOld.sub(amount);\n\t\t\t\t_writeCheckpoint(srcRep, srcRepNum, srcRepOld, srcRepNew);\n\t\t\t}\n\n\t\t\tif (dstRep != address(0)) {\n\t\t\t\tuint32 dstRepNum = numCheckpoints[dstRep];\n\t\t\t\tuint256 dstRepOld = dstRepNum > 0 ? checkpoints[dstRep][dstRepNum - 1].votes : 0;\n\t\t\t\tuint256 dstRepNew = dstRepOld.add(amount);\n\t\t\t\t_writeCheckpoint(dstRep, dstRepNum, dstRepOld, dstRepNew);\n\t\t\t}\n\t\t}\n\t}\n\n\tfunction _writeCheckpoint(\n\t\taddress delegatee,\n\t\tuint32 nCheckpoints,\n\t\tuint256 oldVotes,\n\t\tuint256 newVotes\n\t) internal {\n\t\tuint32 blockNumber = safe32(block.number, \"HDS/Block number overflow\");\n\n\t\tif (nCheckpoints > 0 && checkpoints[delegatee][nCheckpoints - 1].fromBlock == blockNumber) {\n\t\t\tcheckpoints[delegatee][nCheckpoints - 1].votes = newVotes;\n\t\t} else {\n\t\t\tcheckpoints[delegatee][nCheckpoints] = Checkpoint(blockNumber, newVotes);\n\t\t\tnumCheckpoints[delegatee] = nCheckpoints + 1;\n\t\t}\n\n\t\temit DelegateVotesChanged(delegatee, oldVotes, newVotes);\n\t}\n\n\tfunction safe32(uint256 n, string memory errorMessage) internal pure returns (uint32) {\n\t\trequire(n < 2**32, errorMessage);\n\t\treturn uint32(n);\n\t}\n\n\tfunction getChainId() internal pure returns (uint256) {\n\t\tuint256 chainId;\n\t\tassembly {\n\t\t\tchainId := chainid()\n\t\t}\n\t\treturn chainId;\n\t}\n}\n",
  "sourcePath": "/hades/evm-contracts/src/HDS.sol",
  "compiler": {
    "name": "solc",
    "version": "0.6.0+commit.26b70077.Emscripten.clang"
  },
  "schemaVersion": "3.2.4",
  "updatedAt": "2020-10-28T05:58:57.790Z",
  "devdoc": {
    "methods": {
      "allowance(address,address)": {
        "params": {
          "account": "The address of the account holding the funds",
          "spender": "The address of the account spending the funds"
        },
        "returns": {
          "_0": "The number of tokens approved"
        }
      },
      "approve(address,uint256)": {
        "details": "This will overwrite the approval amount for `spender` and is subject to issues noted [here](https://eips.ethereum.org/EIPS/eip-20#approve)",
        "params": {
          "amount": "The number of tokens that are approved (2^256-1 means infinite)",
          "spender": "The address of the account which may transfer tokens"
        },
        "returns": {
          "_0": "Whether or not the approval succeeded"
        }
      },
      "balanceOf(address)": {
        "params": {
          "account": "The address of the account to get the balance of"
        },
        "returns": {
          "_0": "The number of tokens held"
        }
      },
      "burn(address,uint256)": {
        "params": {
          "amount": "The number of tokens to burn",
          "src": "The address to burn tokens"
        }
      },
      "delegate(address)": {
        "params": {
          "delegatee": "The address to delegate votes to"
        }
      },
      "delegateBySig(address,uint256,uint256,uint8,bytes32,bytes32)": {
        "params": {
          "delegatee": "The address to delegate votes to",
          "expiry": "The time at which to expire the signature",
          "nonce": "The contract state required to match the signature",
          "r": "Half of the ECDSA signature pair",
          "s": "Half of the ECDSA signature pair",
          "v": "The recovery byte of the signature"
        }
      },
      "getCurrentVotes(address)": {
        "params": {
          "account": "The address to get votes balance"
        },
        "returns": {
          "_0": "The number of current votes for `account`"
        }
      },
      "getPriorVotes(address,uint256)": {
        "details": "Block number must be a finalized block or else this function will revert to prevent misinformation.",
        "params": {
          "account": "The address of the account to check",
          "blockNumber": "The block number to get the vote balance at"
        },
        "returns": {
          "_0": "The number of votes the account had as of the given block"
        }
      },
      "mint(address,uint256)": {
        "params": {
          "amount": "The number of tokens to mint",
          "src": "The address to receive the mint tokens"
        }
      },
      "transfer(address,uint256)": {
        "params": {
          "amount": "The number of tokens to transfer",
          "dst": "The address of the destination account"
        },
        "returns": {
          "_0": "Whether or not the transfer succeeded"
        }
      },
      "transferFrom(address,address,uint256)": {
        "params": {
          "amount": "The number of tokens to transfer",
          "dst": "The address of the destination account",
          "src": "The address of the source account"
        },
        "returns": {
          "_0": "Whether or not the transfer succeeded"
        }
      }
    }
  },
  "userdoc": {
    "methods": {
      "allowance(address,address)": {
        "notice": "Get the number of tokens `spender` is approved to spend on behalf of `account`"
      },
      "approve(address,uint256)": {
        "notice": "Approve `spender` to transfer up to `amount` from `src`"
      },
      "balanceOf(address)": {
        "notice": "Get the number of tokens held by the `account`"
      },
      "burn(address,uint256)": {
        "notice": "Burn `amount` tokens for 'src'"
      },
      "delegate(address)": {
        "notice": "Delegate votes from `msg.sender` to `delegatee`"
      },
      "delegateBySig(address,uint256,uint256,uint8,bytes32,bytes32)": {
        "notice": "Delegates votes from signatory to `delegatee`"
      },
      "getCurrentVotes(address)": {
        "notice": "Gets the current votes balance for `account`"
      },
      "getPriorVotes(address,uint256)": {
        "notice": "Determine the prior number of votes for an account as of a block number"
      },
      "mint(address,uint256)": {
        "notice": "Mint `amount` tokens for 'src'"
      },
      "transfer(address,uint256)": {
        "notice": "Transfer `amount` tokens from `msg.sender` to `dst`"
      },
      "transferFrom(address,address,uint256)": {
        "notice": "Transfer `amount` tokens from `src` to `dst`"
      }
    }
  }
}