{
  "contractName": "HDS",
  "abi": [
    {
      "inputs": [],
      "stateMutability": "nonpayable",
      "type": "constructor"
    },
    {
      "anonymous": false,
      "inputs": [
        {
          "indexed": true,
          "internalType": "address",
          "name": "owner",
          "type": "address"
        },
        {
          "indexed": true,
          "internalType": "address",
          "name": "spender",
          "type": "address"
        },
        {
          "indexed": false,
          "internalType": "uint256",
          "name": "amount",
          "type": "uint256"
        }
      ],
      "name": "Approval",
      "type": "event"
    },
    {
      "anonymous": false,
      "inputs": [
        {
          "indexed": true,
          "internalType": "address",
          "name": "delegator",
          "type": "address"
        },
        {
          "indexed": true,
          "internalType": "address",
          "name": "fromDelegate",
          "type": "address"
        },
        {
          "indexed": true,
          "internalType": "address",
          "name": "toDelegate",
          "type": "address"
        }
      ],
      "name": "DelegateChanged",
      "type": "event"
    },
    {
      "anonymous": false,
      "inputs": [
        {
          "indexed": true,
          "internalType": "address",
          "name": "delegate",
          "type": "address"
        },
        {
          "indexed": false,
          "internalType": "uint256",
          "name": "previousBalance",
          "type": "uint256"
        },
        {
          "indexed": false,
          "internalType": "uint256",
          "name": "newBalance",
          "type": "uint256"
        }
      ],
      "name": "DelegateVotesChanged",
      "type": "event"
    },
    {
      "anonymous": false,
      "inputs": [
        {
          "indexed": true,
          "internalType": "address",
          "name": "from",
          "type": "address"
        },
        {
          "indexed": true,
          "internalType": "address",
          "name": "to",
          "type": "address"
        },
        {
          "indexed": false,
          "internalType": "uint256",
          "name": "amount",
          "type": "uint256"
        }
      ],
      "name": "Transfer",
      "type": "event"
    },
    {
      "inputs": [],
      "name": "DELEGATION_TYPEHASH",
      "outputs": [
        {
          "internalType": "bytes32",
          "name": "",
          "type": "bytes32"
        }
      ],
      "stateMutability": "view",
      "type": "function",
      "constant": true
    },
    {
      "inputs": [],
      "name": "DOMAIN_TYPEHASH",
      "outputs": [
        {
          "internalType": "bytes32",
          "name": "",
          "type": "bytes32"
        }
      ],
      "stateMutability": "view",
      "type": "function",
      "constant": true
    },
    {
      "inputs": [],
      "name": "admin",
      "outputs": [
        {
          "internalType": "address",
          "name": "",
          "type": "address"
        }
      ],
      "stateMutability": "view",
      "type": "function",
      "constant": true
    },
    {
      "inputs": [
        {
          "internalType": "address",
          "name": "",
          "type": "address"
        },
        {
          "internalType": "uint32",
          "name": "",
          "type": "uint32"
        }
      ],
      "name": "checkpoints",
      "outputs": [
        {
          "internalType": "uint32",
          "name": "fromBlock",
          "type": "uint32"
        },
        {
          "internalType": "uint256",
          "name": "votes",
          "type": "uint256"
        }
      ],
      "stateMutability": "view",
      "type": "function",
      "constant": true
    },
    {
      "inputs": [],
      "name": "decimals",
      "outputs": [
        {
          "internalType": "uint8",
          "name": "",
          "type": "uint8"
        }
      ],
      "stateMutability": "view",
      "type": "function",
      "constant": true
    },
    {
      "inputs": [
        {
          "internalType": "address",
          "name": "",
          "type": "address"
        }
      ],
      "name": "delegates",
      "outputs": [
        {
          "internalType": "address",
          "name": "",
          "type": "address"
        }
      ],
      "stateMutability": "view",
      "type": "function",
      "constant": true
    },
    {
      "inputs": [],
      "name": "maxSupply",
      "outputs": [
        {
          "internalType": "uint256",
          "name": "",
          "type": "uint256"
        }
      ],
      "stateMutability": "view",
      "type": "function",
      "constant": true
    },
    {
      "inputs": [],
      "name": "name",
      "outputs": [
        {
          "internalType": "string",
          "name": "",
          "type": "string"
        }
      ],
      "stateMutability": "view",
      "type": "function",
      "constant": true
    },
    {
      "inputs": [
        {
          "internalType": "address",
          "name": "",
          "type": "address"
        }
      ],
      "name": "nonces",
      "outputs": [
        {
          "internalType": "uint256",
          "name": "",
          "type": "uint256"
        }
      ],
      "stateMutability": "view",
      "type": "function",
      "constant": true
    },
    {
      "inputs": [
        {
          "internalType": "address",
          "name": "",
          "type": "address"
        }
      ],
      "name": "numCheckpoints",
      "outputs": [
        {
          "internalType": "uint32",
          "name": "",
          "type": "uint32"
        }
      ],
      "stateMutability": "view",
      "type": "function",
      "constant": true
    },
    {
      "inputs": [],
      "name": "superior",
      "outputs": [
        {
          "internalType": "address",
          "name": "",
          "type": "address"
        }
      ],
      "stateMutability": "view",
      "type": "function",
      "constant": true
    },
    {
      "inputs": [],
      "name": "symbol",
      "outputs": [
        {
          "internalType": "string",
          "name": "",
          "type": "string"
        }
      ],
      "stateMutability": "view",
      "type": "function",
      "constant": true
    },
    {
      "inputs": [],
      "name": "totalSupply",
      "outputs": [
        {
          "internalType": "uint256",
          "name": "",
          "type": "uint256"
        }
      ],
      "stateMutability": "view",
      "type": "function",
      "constant": true
    },
    {
      "inputs": [
        {
          "internalType": "address",
          "name": "_superior",
          "type": "address"
        }
      ],
      "name": "initialize",
      "outputs": [],
      "stateMutability": "nonpayable",
      "type": "function"
    },
    {
      "inputs": [
        {
          "internalType": "address",
          "name": "account",
          "type": "address"
        },
        {
          "internalType": "address",
          "name": "spender",
          "type": "address"
        }
      ],
      "name": "allowance",
      "outputs": [
        {
          "internalType": "uint256",
          "name": "",
          "type": "uint256"
        }
      ],
      "stateMutability": "view",
      "type": "function",
      "constant": true
    },
    {
      "inputs": [
        {
          "internalType": "address",
          "name": "spender",
          "type": "address"
        },
        {
          "internalType": "uint256",
          "name": "amount",
          "type": "uint256"
        }
      ],
      "name": "approve",
      "outputs": [
        {
          "internalType": "bool",
          "name": "",
          "type": "bool"
        }
      ],
      "stateMutability": "nonpayable",
      "type": "function"
    },
    {
      "inputs": [
        {
          "internalType": "address",
          "name": "account",
          "type": "address"
        }
      ],
      "name": "balanceOf",
      "outputs": [
        {
          "internalType": "uint256",
          "name": "",
          "type": "uint256"
        }
      ],
      "stateMutability": "view",
      "type": "function",
      "constant": true
    },
    {
      "inputs": [
        {
          "internalType": "address",
          "name": "dst",
          "type": "address"
        },
        {
          "internalType": "uint256",
          "name": "amount",
          "type": "uint256"
        }
      ],
      "name": "transfer",
      "outputs": [
        {
          "internalType": "bool",
          "name": "",
          "type": "bool"
        }
      ],
      "stateMutability": "nonpayable",
      "type": "function"
    },
    {
      "inputs": [
        {
          "internalType": "address",
          "name": "src",
          "type": "address"
        },
        {
          "internalType": "address",
          "name": "dst",
          "type": "address"
        },
        {
          "internalType": "uint256",
          "name": "amount",
          "type": "uint256"
        }
      ],
      "name": "transferFrom",
      "outputs": [
        {
          "internalType": "bool",
          "name": "",
          "type": "bool"
        }
      ],
      "stateMutability": "nonpayable",
      "type": "function"
    },
    {
      "inputs": [
        {
          "internalType": "address",
          "name": "src",
          "type": "address"
        },
        {
          "internalType": "uint256",
          "name": "amount",
          "type": "uint256"
        }
      ],
      "name": "mint",
      "outputs": [],
      "stateMutability": "nonpayable",
      "type": "function"
    },
    {
      "inputs": [
        {
          "internalType": "address",
          "name": "src",
          "type": "address"
        },
        {
          "internalType": "uint256",
          "name": "amount",
          "type": "uint256"
        }
      ],
      "name": "burn",
      "outputs": [],
      "stateMutability": "nonpayable",
      "type": "function"
    },
    {
      "inputs": [
        {
          "internalType": "address",
          "name": "delegatee",
          "type": "address"
        }
      ],
      "name": "delegate",
      "outputs": [],
      "stateMutability": "nonpayable",
      "type": "function"
    },
    {
      "inputs": [
        {
          "internalType": "address",
          "name": "delegatee",
          "type": "address"
        },
        {
          "internalType": "uint256",
          "name": "nonce",
          "type": "uint256"
        },
        {
          "internalType": "uint256",
          "name": "expiry",
          "type": "uint256"
        },
        {
          "internalType": "uint8",
          "name": "v",
          "type": "uint8"
        },
        {
          "internalType": "bytes32",
          "name": "r",
          "type": "bytes32"
        },
        {
          "internalType": "bytes32",
          "name": "s",
          "type": "bytes32"
        }
      ],
      "name": "delegateBySig",
      "outputs": [],
      "stateMutability": "nonpayable",
      "type": "function"
    },
    {
      "inputs": [
        {
          "internalType": "address",
          "name": "account",
          "type": "address"
        }
      ],
      "name": "getCurrentVotes",
      "outputs": [
        {
          "internalType": "uint256",
          "name": "",
          "type": "uint256"
        }
      ],
      "stateMutability": "view",
      "type": "function",
      "constant": true
    },
    {
      "inputs": [
        {
          "internalType": "address",
          "name": "account",
          "type": "address"
        },
        {
          "internalType": "uint256",
          "name": "blockNumber",
          "type": "uint256"
        }
      ],
      "name": "getPriorVotes",
      "outputs": [
        {
          "internalType": "uint256",
          "name": "",
          "type": "uint256"
        }
      ],
      "stateMutability": "view",
      "type": "function",
      "constant": true
    }
  ],
  "bytecode": "0x608060405234801561001057600080fd5b5033600660006101000a81548173ffffffffffffffffffffffffffffffffffffffff021916908373ffffffffffffffffffffffffffffffffffffffff160217905550600066017dfcdece400090508060026000600660009054906101000a900473ffffffffffffffffffffffffffffffffffffffff1673ffffffffffffffffffffffffffffffffffffffff1673ffffffffffffffffffffffffffffffffffffffff168152602001908152602001600020819055508060008190555050613377806100db6000396000f3fe608060405234801561001057600080fd5b50600436106101735760003560e01c80637ecebe00116100de578063c3cda52011610097578063dd62ed3e11610071578063dd62ed3e14610486578063e7a324dc146104b6578063f1127ed8146104d4578063f851a4401461050557610173565b8063c3cda52014610430578063c4d66de81461044c578063d5abeb011461046857610173565b80637ecebe001461034857806395d89b411461037857806395f65898146103965780639dc29fac146103b4578063a9059cbb146103d0578063b4b5ea571461040057610173565b806340c10f191161013057806340c10f1914610250578063587cde1e1461026c5780635c19a95c1461029c5780636fcfff45146102b857806370a08231146102e8578063782d6fe11461031857610173565b806306fdde0314610178578063095ea7b31461019657806318160ddd146101c657806320606b70146101e457806323b872dd14610202578063313ce56714610232575b600080fd5b610180610523565b60405161018d9190612f38565b60405180910390f35b6101b060048036036101ab9190810190612721565b61055c565b6040516101bd9190612e33565b60405180910390f35b6101ce6106c3565b6040516101db919061313c565b60405180910390f35b6101ec6106c9565b6040516101f99190612e4e565b60405180910390f35b61021c600480360361021791908101906126d2565b6106e0565b6040516102299190612e33565b60405180910390f35b61023a610d18565b60405161024791906131c4565b60405180910390f35b61026a60048036036102659190810190612721565b610d1d565b005b6102866004803603610281919081019061266d565b610f65565b6040516102939190612e18565b60405180910390f35b6102b660048036036102b1919081019061266d565b610f98565b005b6102d260048036036102cd919081019061266d565b610fa5565b6040516102df9190613180565b60405180910390f35b61030260048036036102fd919081019061266d565b610fc8565b60405161030f919061313c565b60405180910390f35b610332600480360361032d9190810190612721565b611011565b60405161033f919061313c565b60405180910390f35b610362600480360361035d919081019061266d565b6113c0565b60405161036f919061313c565b60405180910390f35b6103806113d8565b60405161038d9190612f38565b60405180910390f35b61039e611411565b6040516103ab9190612e18565b60405180910390f35b6103ce60048036036103c99190810190612721565b611437565b005b6103ea60048036036103e59190810190612721565b6118b4565b6040516103f79190612e33565b60405180910390f35b61041a6004803603610415919081019061266d565b6118c9565b604051610427919061313c565b60405180910390f35b61044a6004803603610445919081019061275d565b61199f565b005b6104666004803603610461919081019061266d565b611c42565b005b610470611da7565b60405161047d919061313c565b60405180910390f35b6104a0600480360361049b9190810190612696565b611db2565b6040516104ad919061313c565b60405180910390f35b6104be611e39565b6040516104cb9190612e4e565b60405180910390f35b6104ee60048036036104e991908101906127e6565b611e50565b6040516104fc92919061319b565b60405180910390f35b61050d611e91565b60405161051a9190612e18565b60405180910390f35b6040518060400160405280601681526020017f486164657320676f7665726e616e636520746f6b656e0000000000000000000081525081565b600080339050600073ffffffffffffffffffffffffffffffffffffffff168473ffffffffffffffffffffffffffffffffffffffff1614156105d2576040517f08c379a00000000000000000000000000000000000000000000000000000000081526004016105c990612ffc565b60405180910390fd5b82600160008373ffffffffffffffffffffffffffffffffffffffff1673ffffffffffffffffffffffffffffffffffffffff16815260200190815260200160002060008673ffffffffffffffffffffffffffffffffffffffff1673ffffffffffffffffffffffffffffffffffffffff168152602001908152602001600020819055508373ffffffffffffffffffffffffffffffffffffffff168173ffffffffffffffffffffffffffffffffffffffff167f8c5be1e5ebec7d5bd14f71427d1e84f3dd0314c0f7b2291e5b200ac8c7c3b925856040516106b0919061313c565b60405180910390a3600191505092915050565b60005481565b6040516106d590612dee565b604051809103902081565b600081600260008673ffffffffffffffffffffffffffffffffffffffff1673ffffffffffffffffffffffffffffffffffffffff168152602001908152602001600020541015610764576040517f08c379a000000000000000000000000000000000000000000000000000000000815260040161075b90612fdc565b60405180910390fd5b600073ffffffffffffffffffffffffffffffffffffffff168473ffffffffffffffffffffffffffffffffffffffff1614156107d4576040517f08c379a00000000000000000000000000000000000000000000000000000000081526004016107cb9061305c565b60405180910390fd5b600073ffffffffffffffffffffffffffffffffffffffff168373ffffffffffffffffffffffffffffffffffffffff161415610844576040517f08c379a000000000000000000000000000000000000000000000000000000000815260040161083b906130fc565b60405180910390fd5b60003390506000600160008773ffffffffffffffffffffffffffffffffffffffff1673ffffffffffffffffffffffffffffffffffffffff16815260200190815260200160002060008373ffffffffffffffffffffffffffffffffffffffff1673ffffffffffffffffffffffffffffffffffffffff1681526020019081526020016000205490508573ffffffffffffffffffffffffffffffffffffffff168273ffffffffffffffffffffffffffffffffffffffff161415801561092657507fffffffffffffffffffffffffffffffffffffffffffffffffffffffffffffffff8114155b15610ad3578381101561096e576040517f08c379a0000000000000000000000000000000000000000000000000000000008152600401610965906130dc565b60405180910390fd5b838103600160008873ffffffffffffffffffffffffffffffffffffffff1673ffffffffffffffffffffffffffffffffffffffff16815260200190815260200160002060008473ffffffffffffffffffffffffffffffffffffffff1673ffffffffffffffffffffffffffffffffffffffff168152602001908152602001600020819055508173ffffffffffffffffffffffffffffffffffffffff168673ffffffffffffffffffffffffffffffffffffffff167f8c5be1e5ebec7d5bd14f71427d1e84f3dd0314c0f7b2291e5b200ac8c7c3b925600160008a73ffffffffffffffffffffffffffffffffffffffff1673ffffffffffffffffffffffffffffffffffffffff16815260200190815260200160002060008673ffffffffffffffffffffffffffffffffffffffff1673ffffffffffffffffffffffffffffffffffffffff16815260200190815260200160002054604051610aca919061313c565b60405180910390a35b83600260008873ffffffffffffffffffffffffffffffffffffffff1673ffffffffffffffffffffffffffffffffffffffff1681526020019081526020016000205403600260008873ffffffffffffffffffffffffffffffffffffffff1673ffffffffffffffffffffffffffffffffffffffff1681526020019081526020016000208190555083600260008773ffffffffffffffffffffffffffffffffffffffff1673ffffffffffffffffffffffffffffffffffffffff1681526020019081526020016000205401600260008773ffffffffffffffffffffffffffffffffffffffff1673ffffffffffffffffffffffffffffffffffffffff168152602001908152602001600020819055508473ffffffffffffffffffffffffffffffffffffffff168673ffffffffffffffffffffffffffffffffffffffff167fddf252ad1be2c89b69c2b068fc378daa952ba7f163c4a11628f55a4df523b3ef86604051610c3a919061313c565b60405180910390a3610d0b600360008873ffffffffffffffffffffffffffffffffffffffff1673ffffffffffffffffffffffffffffffffffffffff16815260200190815260200160002060009054906101000a900473ffffffffffffffffffffffffffffffffffffffff16600360008873ffffffffffffffffffffffffffffffffffffffff1673ffffffffffffffffffffffffffffffffffffffff16815260200190815260200160002060009054906101000a900473ffffffffffffffffffffffffffffffffffffffff1686611eb7565b6001925050509392505050565b600881565b3373ffffffffffffffffffffffffffffffffffffffff16600760009054906101000a900473ffffffffffffffffffffffffffffffffffffffff1673ffffffffffffffffffffffffffffffffffffffff1614610dad576040517f08c379a0000000000000000000000000000000000000000000000000000000008152600401610da490612fbc565b60405180910390fd5b660775f05a07400081600054011115610dfb576040517f08c379a0000000000000000000000000000000000000000000000000000000008152600401610df290612f9c565b60405180910390fd5b600073ffffffffffffffffffffffffffffffffffffffff168273ffffffffffffffffffffffffffffffffffffffff161415610e6b576040517f08c379a0000000000000000000000000000000000000000000000000000000008152600401610e629061303c565b60405180910390fd5b80600260008473ffffffffffffffffffffffffffffffffffffffff1673ffffffffffffffffffffffffffffffffffffffff1681526020019081526020016000205401600260008473ffffffffffffffffffffffffffffffffffffffff1673ffffffffffffffffffffffffffffffffffffffff1681526020019081526020016000208190555080600054016000819055508173ffffffffffffffffffffffffffffffffffffffff16600073ffffffffffffffffffffffffffffffffffffffff167fddf252ad1be2c89b69c2b068fc378daa952ba7f163c4a11628f55a4df523b3ef83604051610f59919061313c565b60405180910390a35050565b60036020528060005260406000206000915054906101000a900473ffffffffffffffffffffffffffffffffffffffff1681565b610fa23382612134565b50565b60056020528060005260406000206000915054906101000a900463ffffffff1681565b6000600260008373ffffffffffffffffffffffffffffffffffffffff1673ffffffffffffffffffffffffffffffffffffffff168152602001908152602001600020549050919050565b6000438210611055576040517f08c379a000000000000000000000000000000000000000000000000000000000815260040161104c906130bc565b60405180910390fd5b6000600560008573ffffffffffffffffffffffffffffffffffffffff1673ffffffffffffffffffffffffffffffffffffffff16815260200190815260200160002060009054906101000a900463ffffffff16905060008163ffffffff1614156110c25760009150506113ba565b82600460008673ffffffffffffffffffffffffffffffffffffffff1673ffffffffffffffffffffffffffffffffffffffff16815260200190815260200160002060006001840363ffffffff1663ffffffff16815260200190815260200160002060000160009054906101000a900463ffffffff1663ffffffff16116111ac57600460008573ffffffffffffffffffffffffffffffffffffffff1673ffffffffffffffffffffffffffffffffffffffff16815260200190815260200160002060006001830363ffffffff1663ffffffff168152602001908152602001600020600101549150506113ba565b82600460008673ffffffffffffffffffffffffffffffffffffffff1673ffffffffffffffffffffffffffffffffffffffff16815260200190815260200160002060008063ffffffff16815260200190815260200160002060000160009054906101000a900463ffffffff1663ffffffff16111561122d5760009150506113ba565b600080905060006001830390505b8163ffffffff168163ffffffff161115611354576000600283830363ffffffff168161126357fe5b04820390506112706125e4565b600460008973ffffffffffffffffffffffffffffffffffffffff1673ffffffffffffffffffffffffffffffffffffffff16815260200190815260200160002060008363ffffffff1663ffffffff1681526020019081526020016000206040518060400160405290816000820160009054906101000a900463ffffffff1663ffffffff1663ffffffff168152602001600182015481525050905086816000015163ffffffff16141561132c578060200151955050505050506113ba565b86816000015163ffffffff1610156113465781935061134d565b6001820392505b505061123b565b600460008773ffffffffffffffffffffffffffffffffffffffff1673ffffffffffffffffffffffffffffffffffffffff16815260200190815260200160002060008363ffffffff1663ffffffff1681526020019081526020016000206001015493505050505b92915050565b60086020528060005260406000206000915090505481565b6040518060400160405280600381526020017f484453000000000000000000000000000000000000000000000000000000000081525081565b600760009054906101000a900473ffffffffffffffffffffffffffffffffffffffff1681565b80600260008473ffffffffffffffffffffffffffffffffffffffff1673ffffffffffffffffffffffffffffffffffffffff1681526020019081526020016000205410156114b9576040517f08c379a00000000000000000000000000000000000000000000000000000000081526004016114b090612fdc565b60405180910390fd5b600073ffffffffffffffffffffffffffffffffffffffff168273ffffffffffffffffffffffffffffffffffffffff161415611529576040517f08c379a00000000000000000000000000000000000000000000000000000000081526004016115209061311c565b60405180910390fd5b60003390506000600160008573ffffffffffffffffffffffffffffffffffffffff1673ffffffffffffffffffffffffffffffffffffffff16815260200190815260200160002060008373ffffffffffffffffffffffffffffffffffffffff1673ffffffffffffffffffffffffffffffffffffffff1681526020019081526020016000205490508173ffffffffffffffffffffffffffffffffffffffff168473ffffffffffffffffffffffffffffffffffffffff161415801561160b57507fffffffffffffffffffffffffffffffffffffffffffffffffffffffffffffffff8114155b156117b85782811015611653576040517f08c379a000000000000000000000000000000000000000000000000000000000815260040161164a906130dc565b60405180910390fd5b828103600160008673ffffffffffffffffffffffffffffffffffffffff1673ffffffffffffffffffffffffffffffffffffffff16815260200190815260200160002060008473ffffffffffffffffffffffffffffffffffffffff1673ffffffffffffffffffffffffffffffffffffffff168152602001908152602001600020819055508173ffffffffffffffffffffffffffffffffffffffff168473ffffffffffffffffffffffffffffffffffffffff167f8c5be1e5ebec7d5bd14f71427d1e84f3dd0314c0f7b2291e5b200ac8c7c3b925600160008873ffffffffffffffffffffffffffffffffffffffff1673ffffffffffffffffffffffffffffffffffffffff16815260200190815260200160002060008673ffffffffffffffffffffffffffffffffffffffff1673ffffffffffffffffffffffffffffffffffffffff168152602001908152602001600020546040516117af919061313c565b60405180910390a35b82600260008673ffffffffffffffffffffffffffffffffffffffff1673ffffffffffffffffffffffffffffffffffffffff1681526020019081526020016000205403600260008673ffffffffffffffffffffffffffffffffffffffff1673ffffffffffffffffffffffffffffffffffffffff168152602001908152602001600020819055508260005403600081905550600073ffffffffffffffffffffffffffffffffffffffff168473ffffffffffffffffffffffffffffffffffffffff167fddf252ad1be2c89b69c2b068fc378daa952ba7f163c4a11628f55a4df523b3ef856040516118a6919061313c565b60405180910390a350505050565b60006118c13384846106e0565b905092915050565b600080600560008473ffffffffffffffffffffffffffffffffffffffff1673ffffffffffffffffffffffffffffffffffffffff16815260200190815260200160002060009054906101000a900463ffffffff16905060008163ffffffff1611611933576000611997565b600460008473ffffffffffffffffffffffffffffffffffffffff1673ffffffffffffffffffffffffffffffffffffffff16815260200190815260200160002060006001830363ffffffff1663ffffffff168152602001908152602001600020600101545b915050919050565b60006040516119ad90612dee565b60405180910390206040518060400160405280601681526020017f486164657320676f7665726e616e636520746f6b656e00000000000000000000815250805190602001206119fa6122d6565b30604051602001611a0e9493929190612eae565b6040516020818303038152906040528051906020012090506000604051611a3490612e03565b6040518091039020888888604051602001611a529493929190612e69565b60405160208183030381529060405280519060200120905060008282604051602001611a7f929190612db7565b604051602081830303815290604052805190602001209050600060018288888860405160008152602001604052604051611abc9493929190612ef3565b6020604051602081039080840390855afa158015611ade573d6000803e3d6000fd5b505050602060405103519050600073ffffffffffffffffffffffffffffffffffffffff168173ffffffffffffffffffffffffffffffffffffffff161415611b5a576040517f08c379a0000000000000000000000000000000000000000000000000000000008152600401611b5190612f7c565b60405180910390fd5b600860008273ffffffffffffffffffffffffffffffffffffffff1673ffffffffffffffffffffffffffffffffffffffff1681526020019081526020016000206000815480929190600101919050558914611be9576040517f08c379a0000000000000000000000000000000000000000000000000000000008152600401611be09061307c565b60405180910390fd5b87421115611c2c576040517f08c379a0000000000000000000000000000000000000000000000000000000008152600401611c239061301c565b60405180910390fd5b611c36818b612134565b50505050505050505050565b3373ffffffffffffffffffffffffffffffffffffffff16600660009054906101000a900473ffffffffffffffffffffffffffffffffffffffff1673ffffffffffffffffffffffffffffffffffffffff1614611cd2576040517f08c379a0000000000000000000000000000000000000000000000000000000008152600401611cc990612fbc565b60405180910390fd5b600073ffffffffffffffffffffffffffffffffffffffff16600760009054906101000a900473ffffffffffffffffffffffffffffffffffffffff1673ffffffffffffffffffffffffffffffffffffffff1614611d63576040517f08c379a0000000000000000000000000000000000000000000000000000000008152600401611d5a9061309c565b60405180910390fd5b80600760006101000a81548173ffffffffffffffffffffffffffffffffffffffff021916908373ffffffffffffffffffffffffffffffffffffffff16021790555050565b660775f05a07400081565b6000600160008473ffffffffffffffffffffffffffffffffffffffff1673ffffffffffffffffffffffffffffffffffffffff16815260200190815260200160002060008373ffffffffffffffffffffffffffffffffffffffff1673ffffffffffffffffffffffffffffffffffffffff16815260200190815260200160002054905092915050565b604051611e4590612e03565b604051809103902081565b6004602052816000526040600020602052806000526040600020600091509150508060000160009054906101000a900463ffffffff16908060010154905082565b600660009054906101000a900473ffffffffffffffffffffffffffffffffffffffff1681565b8173ffffffffffffffffffffffffffffffffffffffff168373ffffffffffffffffffffffffffffffffffffffff1614158015611ef35750600081115b1561212f57600073ffffffffffffffffffffffffffffffffffffffff168373ffffffffffffffffffffffffffffffffffffffff1614612013576000600560008573ffffffffffffffffffffffffffffffffffffffff1673ffffffffffffffffffffffffffffffffffffffff16815260200190815260200160002060009054906101000a900463ffffffff1690506000808263ffffffff1611611f96576000611ffa565b600460008673ffffffffffffffffffffffffffffffffffffffff1673ffffffffffffffffffffffffffffffffffffffff16815260200190815260200160002060006001840363ffffffff1663ffffffff168152602001908152602001600020600101545b90506000838203905061200f868484846122e3565b5050505b600073ffffffffffffffffffffffffffffffffffffffff168273ffffffffffffffffffffffffffffffffffffffff161461212e576000600560008473ffffffffffffffffffffffffffffffffffffffff1673ffffffffffffffffffffffffffffffffffffffff16815260200190815260200160002060009054906101000a900463ffffffff1690506000808263ffffffff16116120b1576000612115565b600460008573ffffffffffffffffffffffffffffffffffffffff1673ffffffffffffffffffffffffffffffffffffffff16815260200190815260200160002060006001840363ffffffff1663ffffffff168152602001908152602001600020600101545b90506000838201905061212a858484846122e3565b5050505b5b505050565b6000600360008473ffffffffffffffffffffffffffffffffffffffff1673ffffffffffffffffffffffffffffffffffffffff16815260200190815260200160002060009054906101000a900473ffffffffffffffffffffffffffffffffffffffff16905081600360008573ffffffffffffffffffffffffffffffffffffffff1673ffffffffffffffffffffffffffffffffffffffff16815260200190815260200160002060006101000a81548173ffffffffffffffffffffffffffffffffffffffff021916908373ffffffffffffffffffffffffffffffffffffffff1602179055508173ffffffffffffffffffffffffffffffffffffffff168173ffffffffffffffffffffffffffffffffffffffff168473ffffffffffffffffffffffffffffffffffffffff167f3134e8a2e6d97e929a7e54011ea5485d7d196dd5f0ba4d4ef95803e8e3fc257f60405160405180910390a46122d18183600260008773ffffffffffffffffffffffffffffffffffffffff1673ffffffffffffffffffffffffffffffffffffffff16815260200190815260200160002054611eb7565b505050565b6000804690508091505090565b6000612324436040518060400160405280601981526020017f4844532f426c6f636b206e756d626572206f766572666c6f770000000000000081525061258e565b905060008463ffffffff161180156123b957508063ffffffff16600460008773ffffffffffffffffffffffffffffffffffffffff1673ffffffffffffffffffffffffffffffffffffffff16815260200190815260200160002060006001870363ffffffff1663ffffffff16815260200190815260200160002060000160009054906101000a900463ffffffff1663ffffffff16145b1561242a5781600460008773ffffffffffffffffffffffffffffffffffffffff1673ffffffffffffffffffffffffffffffffffffffff16815260200190815260200160002060006001870363ffffffff1663ffffffff16815260200190815260200160002060010181905550612537565b60405180604001604052808263ffffffff16815260200183815250600460008773ffffffffffffffffffffffffffffffffffffffff1673ffffffffffffffffffffffffffffffffffffffff16815260200190815260200160002060008663ffffffff1663ffffffff16815260200190815260200160002060008201518160000160006101000a81548163ffffffff021916908363ffffffff1602179055506020820151816001015590505060018401600560008773ffffffffffffffffffffffffffffffffffffffff1673ffffffffffffffffffffffffffffffffffffffff16815260200190815260200160002060006101000a81548163ffffffff021916908363ffffffff1602179055505b8473ffffffffffffffffffffffffffffffffffffffff167fdec2bacdd2f05b59de34da9b523dff8be42e5e38e818c82fdb0bae774387a724848460405161257f929190613157565b60405180910390a25050505050565b6000640100000000831082906125da576040517f08c379a00000000000000000000000000000000000000000000000000000000081526004016125d19190612f5a565b60405180910390fd5b5082905092915050565b6040518060400160405280600063ffffffff168152602001600081525090565b600081359050612613816132ce565b92915050565b600081359050612628816132e5565b92915050565b60008135905061263d816132fc565b92915050565b60008135905061265281613313565b92915050565b6000813590506126678161332a565b92915050565b60006020828403121561267f57600080fd5b600061268d84828501612604565b91505092915050565b600080604083850312156126a957600080fd5b60006126b785828601612604565b92505060206126c885828601612604565b9150509250929050565b6000806000606084860312156126e757600080fd5b60006126f586828701612604565b935050602061270686828701612604565b92505060406127178682870161262e565b9150509250925092565b6000806040838503121561273457600080fd5b600061274285828601612604565b92505060206127538582860161262e565b9150509250929050565b60008060008060008060c0878903121561277657600080fd5b600061278489828a01612604565b965050602061279589828a0161262e565b95505060406127a689828a0161262e565b94505060606127b789828a01612658565b93505060806127c889828a01612619565b92505060a06127d989828a01612619565b9150509295509295509295565b600080604083850312156127f957600080fd5b600061280785828601612604565b925050602061281885828601612643565b9150509250929050565b61282b81613211565b82525050565b61283a81613223565b82525050565b6128498161322f565b82525050565b61286061285b8261322f565b6132b3565b82525050565b6000612871826131ea565b61287b81856131f5565b935061288b818560208601613280565b612894816132bd565b840191505092915050565b60006128aa826131df565b6128b481856131f5565b93506128c4818560208601613280565b6128cd816132bd565b840191505092915050565b60006128e56016836131f5565b91507f4844532f20696e76616c6964207369676e6174757265000000000000000000006000830152602082019050919050565b60006129256017836131f5565b91507f4844532f4d617820737570706c792065786365656465640000000000000000006000830152602082019050919050565b6000612965600283613206565b91507f19010000000000000000000000000000000000000000000000000000000000006000830152600282019050919050565b60006129a56015836131f5565b91507f4844532f7065726d697373696f6e2064656e69656400000000000000000000006000830152602082019050919050565b60006129e56018836131f5565b91507f4844532f696e73756666696369656e742d62616c616e636500000000000000006000830152602082019050919050565b6000612a25601b836131f5565b91507f4844532f617070726f766520746f207a65726f206164647265737300000000006000830152602082019050919050565b6000612a656015836131f5565b91507f4844532f7369676e6174757265206578706972656400000000000000000000006000830152602082019050919050565b6000612aa5604383613206565b91507f454950373132446f6d61696e28737472696e67206e616d652c75696e7432353660008301527f20636861696e49642c6164647265737320766572696679696e67436f6e74726160208301527f63742900000000000000000000000000000000000000000000000000000000006040830152604382019050919050565b6000612b316018836131f5565b91507f4844532f6d696e7420746f207a65726f206164647265737300000000000000006000830152602082019050919050565b6000612b71601e836131f5565b91507f4844532f7472616e736665722066726f6d207a65726f206164647265737300006000830152602082019050919050565b6000612bb16012836131f5565b91507f4844532f20696e76616c6964206e6f6e636500000000000000000000000000006000830152602082019050919050565b6000612bf16017836131f5565b91507f4844532f416c726561647920696e697469616c697a65640000000000000000006000830152602082019050919050565b6000612c316016836131f5565b91507f4844532f6e6f74207965742064657465726d696e6564000000000000000000006000830152602082019050919050565b6000612c71603a83613206565b91507f44656c65676174696f6e28616464726573732064656c6567617465652c75696e60008301527f74323536206e6f6e63652c75696e7432353620657870697279290000000000006020830152603a82019050919050565b6000612cd7601a836131f5565b91507f4844532f696e73756666696369656e742d616c6c6f77616e63650000000000006000830152602082019050919050565b6000612d17601c836131f5565b91507f4844532f7472616e7366657220746f207a65726f2061646472657373000000006000830152602082019050919050565b6000612d57601a836131f5565b91507f4844532f6275726e2066726f6d207a65726f20616464726573730000000000006000830152602082019050919050565b612d9381613259565b82525050565b612da281613263565b82525050565b612db181613273565b82525050565b6000612dc282612958565b9150612dce828561284f565b602082019150612dde828461284f565b6020820191508190509392505050565b6000612df982612a98565b9150819050919050565b6000612e0e82612c64565b9150819050919050565b6000602082019050612e2d6000830184612822565b92915050565b6000602082019050612e486000830184612831565b92915050565b6000602082019050612e636000830184612840565b92915050565b6000608082019050612e7e6000830187612840565b612e8b6020830186612822565b612e986040830185612d8a565b612ea56060830184612d8a565b95945050505050565b6000608082019050612ec36000830187612840565b612ed06020830186612840565b612edd6040830185612d8a565b612eea6060830184612822565b95945050505050565b6000608082019050612f086000830187612840565b612f156020830186612da8565b612f226040830185612840565b612f2f6060830184612840565b95945050505050565b60006020820190508181036000830152612f52818461289f565b905092915050565b60006020820190508181036000830152612f748184612866565b905092915050565b60006020820190508181036000830152612f95816128d8565b9050919050565b60006020820190508181036000830152612fb581612918565b9050919050565b60006020820190508181036000830152612fd581612998565b9050919050565b60006020820190508181036000830152612ff5816129d8565b9050919050565b6000602082019050818103600083015261301581612a18565b9050919050565b6000602082019050818103600083015261303581612a58565b9050919050565b6000602082019050818103600083015261305581612b24565b9050919050565b6000602082019050818103600083015261307581612b64565b9050919050565b6000602082019050818103600083015261309581612ba4565b9050919050565b600060208201905081810360008301526130b581612be4565b9050919050565b600060208201905081810360008301526130d581612c24565b9050919050565b600060208201905081810360008301526130f581612cca565b9050919050565b6000602082019050818103600083015261311581612d0a565b9050919050565b6000602082019050818103600083015261313581612d4a565b9050919050565b60006020820190506131516000830184612d8a565b92915050565b600060408201905061316c6000830185612d8a565b6131796020830184612d8a565b9392505050565b60006020820190506131956000830184612d99565b92915050565b60006040820190506131b06000830185612d99565b6131bd6020830184612d8a565b9392505050565b60006020820190506131d96000830184612da8565b92915050565b600081519050919050565b600081519050919050565b600082825260208201905092915050565b600081905092915050565b600061321c82613239565b9050919050565b60008115159050919050565b6000819050919050565b600073ffffffffffffffffffffffffffffffffffffffff82169050919050565b6000819050919050565b600063ffffffff82169050919050565b600060ff82169050919050565b60005b8381101561329e578082015181840152602081019050613283565b838111156132ad576000848401525b50505050565b6000819050919050565b6000601f19601f8301169050919050565b6132d781613211565b81146132e257600080fd5b50565b6132ee8161322f565b81146132f957600080fd5b50565b61330581613259565b811461331057600080fd5b50565b61331c81613263565b811461332757600080fd5b50565b61333381613273565b811461333e57600080fd5b5056fea2646970667358221220d01285908cba7ad86246672dd78976aa1367e989740ca436181ab05d7ce1d53864736f6c63430006000033",
  "source": "pragma solidity ^0.6.0;\npragma experimental ABIEncoderV2;\n\nimport \"./libraries/SafeMath.sol\";\n\ncontract HDS {\n\tusing SafeMath for uint256;\n\n\t/// @notice EIP-20 token name for this token\n\tstring public constant name = \"Hades governance token\";\n\n\t/// @notice EIP-20 token symbol for this token\n\tstring public constant symbol = \"HDS\";\n\n\t/// @notice EIP-20 token decimals for this token\n\tuint8 public constant decimals = 8;\n\n\t/// @notice Total number of tokens in circulation\n\tuint256 public totalSupply;\n\n\t/// @notice Max supply of tokens\n\tuint256 public constant maxSupply = 21000000e8; // 21 million\n\n\t/// @notice Allowance amounts on behalf of others\n\tmapping(address => mapping(address => uint256)) internal allowances;\n\n\t/// @notice Official record of token balances for each account\n\tmapping(address => uint256) internal balances;\n\n\t/// @notice A record of each accounts delegate\n\tmapping(address => address) public delegates;\n\n\t/// @notice A checkpoint for marking number of votes from a given block\n\tstruct Checkpoint {\n\t\tuint32 fromBlock;\n\t\tuint256 votes;\n\t}\n\n\t/// @notice A record of votes checkpoints for each account, by index\n\tmapping(address => mapping(uint32 => Checkpoint)) public checkpoints;\n\n\t/// @notice The number of checkpoints for each account\n\tmapping(address => uint32) public numCheckpoints;\n\n\t/// @notice The admin address that have the auth to initialize the superior\n\taddress public admin;\n\n\t/// @notice The distributor address that have the auth to mint or burn tokens\n\taddress public superior;\n\n\t/// @notice The EIP-712 typehash for the contract's domain\n\tbytes32 public constant DOMAIN_TYPEHASH = keccak256(\n\t\t\"EIP712Domain(string name,uint256 chainId,address verifyingContract)\"\n\t);\n\n\t/// @notice The EIP-712 typehash for the delegation struct used by the contract\n\tbytes32 public constant DELEGATION_TYPEHASH = keccak256(\"Delegation(address delegatee,uint256 nonce,uint256 expiry)\");\n\n\t/// @notice A record of states for signing / validating signatures\n\tmapping(address => uint256) public nonces;\n\n\t/// @notice An event thats emitted when an account changes its delegate\n\tevent DelegateChanged(address indexed delegator, address indexed fromDelegate, address indexed toDelegate);\n\n\t/// @notice An event thats emitted when a delegate account's vote balance changes\n\tevent DelegateVotesChanged(address indexed delegate, uint256 previousBalance, uint256 newBalance);\n\n\t/// @notice The standard EIP-20 transfer event\n\tevent Transfer(address indexed from, address indexed to, uint256 amount);\n\n\t/// @notice The standard EIP-20 approval event\n\tevent Approval(address indexed owner, address indexed spender, uint256 amount);\n\n\t/// @notice For safety auditor: the superior should be the deployed MarketController contract address\n\tmodifier onlySuperior {\n\t\trequire(superior == msg.sender, \"HDS/permission denied\");\n\t\t_;\n\t}\n\n\tconstructor() public {\n\t\tadmin = msg.sender;\n\t\tuint256 initialSupply = 4200000e8; // 4.2 million\n\t\tbalances[admin] = initialSupply;\n\t\ttotalSupply = initialSupply;\n\t}\n\n\tfunction initialize(address _superior) external {\n\t\trequire(admin == msg.sender, \"HDS/permission denied\");\n\t\trequire(superior == address(0), \"HDS/Already initialized\");\n\t\tsuperior = _superior;\n\t}\n\n\t/**\n\t * @notice Get the number of tokens `spender` is approved to spend on behalf of `account`\n\t * @param account The address of the account holding the funds\n\t * @param spender The address of the account spending the funds\n\t * @return The number of tokens approved\n\t */\n\tfunction allowance(address account, address spender) external view returns (uint256) {\n\t\treturn allowances[account][spender];\n\t}\n\n\t/**\n\t * @notice Approve `spender` to transfer up to `amount` from `src`\n\t * @dev This will overwrite the approval amount for `spender`\n\t *  and is subject to issues noted [here](https://eips.ethereum.org/EIPS/eip-20#approve)\n\t * @param spender The address of the account which may transfer tokens\n\t * @param amount The number of tokens that are approved (2^256-1 means infinite)\n\t * @return Whether or not the approval succeeded\n\t */\n\tfunction approve(address spender, uint256 amount) external returns (bool) {\n\t\taddress owner = msg.sender;\n\t\trequire(spender != address(0), \"HDS/approve to zero address\");\n\t\tallowances[owner][spender] = amount;\n\t\temit Approval(owner, spender, amount);\n\t\treturn true;\n\t}\n\n\t/**\n\t * @notice Get the number of tokens held by the `account`\n\t * @param account The address of the account to get the balance of\n\t * @return The number of tokens held\n\t */\n\tfunction balanceOf(address account) external view returns (uint256) {\n\t\treturn balances[account];\n\t}\n\n\t/**\n\t * @notice Transfer `amount` tokens from `msg.sender` to `dst`\n\t * @param dst The address of the destination account\n\t * @param amount The number of tokens to transfer\n\t * @return Whether or not the transfer succeeded\n\t */\n\tfunction transfer(address dst, uint256 amount) external returns (bool) {\n\t\treturn transferFrom(msg.sender, dst, amount);\n\t}\n\n\t/**\n\t * @notice Transfer `amount` tokens from `src` to `dst`\n\t * @param src The address of the source account\n\t * @param dst The address of the destination account\n\t * @param amount The number of tokens to transfer\n\t * @return Whether or not the transfer succeeded\n\t */\n\tfunction transferFrom(\n\t\taddress src,\n\t\taddress dst,\n\t\tuint256 amount\n\t) public returns (bool) {\n\t\trequire(balances[src] >= amount, \"HDS/insufficient-balance\");\n\t\trequire(src != address(0), \"HDS/transfer from zero address\");\n\t\trequire(dst != address(0), \"HDS/transfer to zero address\");\n\n\t\taddress sender = msg.sender;\n\t\tuint256 allowed = allowances[src][sender];\n\t\tif (sender != src && allowed != uint256(-1)) {\n\t\t\trequire(allowed >= amount, \"HDS/insufficient-allowance\");\n\t\t\tallowances[src][sender] = allowed - amount;\n\t\t\temit Approval(src, sender, allowances[src][sender]);\n\t\t}\n\t\tbalances[src] = balances[src] - amount;\n\t\tbalances[dst] = balances[dst] + amount;\n\t\temit Transfer(src, dst, amount);\n\n\t\t_moveDelegates(delegates[src], delegates[dst], amount);\n\t\treturn true;\n\t}\n\n\t/**\n\t * @notice Mint `amount` tokens for 'src'\n\t * @param src The address to receive the mint tokens\n\t * @param amount The number of tokens to mint\n\t */\n\tfunction mint(address src, uint256 amount) external onlySuperior {\n\t\trequire(totalSupply + amount <= maxSupply, \"HDS/Max supply exceeded\");\n\t\trequire(src != address(0), \"HDS/mint to zero address\");\n\n\t\tbalances[src] = balances[src] + amount;\n\t\ttotalSupply = totalSupply + amount;\n\t\temit Transfer(address(0), src, amount);\n\t}\n\n\t/**\n\t * @notice Burn `amount` tokens for 'src'\n\t * @param src The address to burn tokens\n\t * @param amount The number of tokens to burn\n\t */\n\tfunction burn(address src, uint256 amount) external {\n\t\trequire(balances[src] >= amount, \"HDS/insufficient-balance\");\n\t\trequire(src != address(0), \"HDS/burn from zero address\");\n\n\t\taddress sender = msg.sender;\n\t\tuint256 allowed = allowances[src][sender];\n\t\tif (src != sender && allowed != uint256(-1)) {\n\t\t\trequire(allowed >= amount, \"HDS/insufficient-allowance\");\n\t\t\tallowances[src][sender] = allowed - amount;\n\t\t\temit Approval(src, sender, allowances[src][sender]);\n\t\t}\n\t\tbalances[src] = balances[src] - amount;\n\t\ttotalSupply = totalSupply - amount;\n\t\temit Transfer(src, address(0), amount);\n\t}\n\n\t/**\n\t * @notice Delegate votes from `msg.sender` to `delegatee`\n\t * @param delegatee The address to delegate votes to\n\t */\n\tfunction delegate(address delegatee) public {\n\t\treturn _delegate(msg.sender, delegatee);\n\t}\n\n\t/**\n\t * @notice Delegates votes from signatory to `delegatee`\n\t * @param delegatee The address to delegate votes to\n\t * @param nonce The contract state required to match the signature\n\t * @param expiry The time at which to expire the signature\n\t * @param v The recovery byte of the signature\n\t * @param r Half of the ECDSA signature pair\n\t * @param s Half of the ECDSA signature pair\n\t */\n\tfunction delegateBySig(\n\t\taddress delegatee,\n\t\tuint256 nonce,\n\t\tuint256 expiry,\n\t\tuint8 v,\n\t\tbytes32 r,\n\t\tbytes32 s\n\t) public {\n\t\tbytes32 domainSeparator = keccak256(\n\t\t\tabi.encode(DOMAIN_TYPEHASH, keccak256(bytes(name)), getChainId(), address(this))\n\t\t);\n\t\tbytes32 structHash = keccak256(abi.encode(DELEGATION_TYPEHASH, delegatee, nonce, expiry));\n\t\tbytes32 digest = keccak256(abi.encodePacked(\"\\x19\\x01\", domainSeparator, structHash));\n\t\taddress signatory = ecrecover(digest, v, r, s);\n\t\trequire(signatory != address(0), \"HDS/ invalid signature\");\n\t\trequire(nonce == nonces[signatory]++, \"HDS/ invalid nonce\");\n\t\trequire(now <= expiry, \"HDS/signature expired\");\n\t\treturn _delegate(signatory, delegatee);\n\t}\n\n\t/**\n\t * @notice Gets the current votes balance for `account`\n\t * @param account The address to get votes balance\n\t * @return The number of current votes for `account`\n\t */\n\tfunction getCurrentVotes(address account) external view returns (uint256) {\n\t\tuint32 nCheckpoints = numCheckpoints[account];\n\t\treturn nCheckpoints > 0 ? checkpoints[account][nCheckpoints - 1].votes : 0;\n\t}\n\n\t/**\n\t * @notice Determine the prior number of votes for an account as of a block number\n\t * @dev Block number must be a finalized block or else this function will revert to prevent misinformation.\n\t * @param account The address of the account to check\n\t * @param blockNumber The block number to get the vote balance at\n\t * @return The number of votes the account had as of the given block\n\t */\n\tfunction getPriorVotes(address account, uint256 blockNumber) public view returns (uint256) {\n\t\trequire(blockNumber < block.number, \"HDS/not yet determined\");\n\n\t\tuint32 nCheckpoints = numCheckpoints[account];\n\t\tif (nCheckpoints == 0) {\n\t\t\treturn 0;\n\t\t}\n\n\t\t// First check most recent balance\n\t\tif (checkpoints[account][nCheckpoints - 1].fromBlock <= blockNumber) {\n\t\t\treturn checkpoints[account][nCheckpoints - 1].votes;\n\t\t}\n\n\t\t// Next check implicit zero balance\n\t\tif (checkpoints[account][0].fromBlock > blockNumber) {\n\t\t\treturn 0;\n\t\t}\n\n\t\tuint32 lower = 0;\n\t\tuint32 upper = nCheckpoints - 1;\n\t\twhile (upper > lower) {\n\t\t\tuint32 center = upper - (upper - lower) / 2; // ceil, avoiding overflow\n\t\t\tCheckpoint memory cp = checkpoints[account][center];\n\t\t\tif (cp.fromBlock == blockNumber) {\n\t\t\t\treturn cp.votes;\n\t\t\t} else if (cp.fromBlock < blockNumber) {\n\t\t\t\tlower = center;\n\t\t\t} else {\n\t\t\t\tupper = center - 1;\n\t\t\t}\n\t\t}\n\t\treturn checkpoints[account][lower].votes;\n\t}\n\n\tfunction _delegate(address delegator, address delegatee) internal {\n\t\taddress currentDelegate = delegates[delegator];\n\t\tdelegates[delegator] = delegatee;\n\t\temit DelegateChanged(delegator, currentDelegate, delegatee);\n\t\t_moveDelegates(currentDelegate, delegatee, balances[delegator]);\n\t}\n\n\tfunction _moveDelegates(\n\t\taddress srcRep,\n\t\taddress dstRep,\n\t\tuint256 amount\n\t) internal {\n\t\tif (srcRep != dstRep && amount > 0) {\n\t\t\tif (srcRep != address(0)) {\n\t\t\t\tuint32 srcRepNum = numCheckpoints[srcRep];\n\t\t\t\tuint256 srcRepOld = srcRepNum > 0 ? checkpoints[srcRep][srcRepNum - 1].votes : 0;\n\t\t\t\tuint256 srcRepNew = srcRepOld - amount;\n\t\t\t\t_writeCheckpoint(srcRep, srcRepNum, srcRepOld, srcRepNew);\n\t\t\t}\n\n\t\t\tif (dstRep != address(0)) {\n\t\t\t\tuint32 dstRepNum = numCheckpoints[dstRep];\n\t\t\t\tuint256 dstRepOld = dstRepNum > 0 ? checkpoints[dstRep][dstRepNum - 1].votes : 0;\n\t\t\t\tuint256 dstRepNew = dstRepOld + amount;\n\t\t\t\t_writeCheckpoint(dstRep, dstRepNum, dstRepOld, dstRepNew);\n\t\t\t}\n\t\t}\n\t}\n\n\tfunction _writeCheckpoint(\n\t\taddress delegatee,\n\t\tuint32 nCheckpoints,\n\t\tuint256 oldVotes,\n\t\tuint256 newVotes\n\t) internal {\n\t\tuint32 blockNumber = safe32(block.number, \"HDS/Block number overflow\");\n\n\t\tif (nCheckpoints > 0 && checkpoints[delegatee][nCheckpoints - 1].fromBlock == blockNumber) {\n\t\t\tcheckpoints[delegatee][nCheckpoints - 1].votes = newVotes;\n\t\t} else {\n\t\t\tcheckpoints[delegatee][nCheckpoints] = Checkpoint(blockNumber, newVotes);\n\t\t\tnumCheckpoints[delegatee] = nCheckpoints + 1;\n\t\t}\n\n\t\temit DelegateVotesChanged(delegatee, oldVotes, newVotes);\n\t}\n\n\tfunction safe32(uint256 n, string memory errorMessage) internal pure returns (uint32) {\n\t\trequire(n < 2**32, errorMessage);\n\t\treturn uint32(n);\n\t}\n\n\tfunction getChainId() internal pure returns (uint256) {\n\t\tuint256 chainId;\n\t\tassembly {\n\t\t\tchainId := chainid()\n\t\t}\n\t\treturn chainId;\n\t}\n}\n",
  "sourcePath": "/hades/evm-contracts/src/HDS.sol",
  "compiler": {
    "name": "solc",
    "version": "0.6.0+commit.26b70077.Emscripten.clang"
  },
  "schemaVersion": "3.2.4",
  "updatedAt": "2020-10-27T12:56:23.677Z",
  "networkType": "ethereum",
  "devdoc": {
    "methods": {
      "allowance(address,address)": {
        "params": {
          "account": "The address of the account holding the funds",
          "spender": "The address of the account spending the funds"
        },
        "returns": {
          "_0": "The number of tokens approved"
        }
      },
      "approve(address,uint256)": {
        "details": "This will overwrite the approval amount for `spender` and is subject to issues noted [here](https://eips.ethereum.org/EIPS/eip-20#approve)",
        "params": {
          "amount": "The number of tokens that are approved (2^256-1 means infinite)",
          "spender": "The address of the account which may transfer tokens"
        },
        "returns": {
          "_0": "Whether or not the approval succeeded"
        }
      },
      "balanceOf(address)": {
        "params": {
          "account": "The address of the account to get the balance of"
        },
        "returns": {
          "_0": "The number of tokens held"
        }
      },
      "burn(address,uint256)": {
        "params": {
          "amount": "The number of tokens to burn",
          "src": "The address to burn tokens"
        }
      },
      "delegate(address)": {
        "params": {
          "delegatee": "The address to delegate votes to"
        }
      },
      "delegateBySig(address,uint256,uint256,uint8,bytes32,bytes32)": {
        "params": {
          "delegatee": "The address to delegate votes to",
          "expiry": "The time at which to expire the signature",
          "nonce": "The contract state required to match the signature",
          "r": "Half of the ECDSA signature pair",
          "s": "Half of the ECDSA signature pair",
          "v": "The recovery byte of the signature"
        }
      },
      "getCurrentVotes(address)": {
        "params": {
          "account": "The address to get votes balance"
        },
        "returns": {
          "_0": "The number of current votes for `account`"
        }
      },
      "getPriorVotes(address,uint256)": {
        "details": "Block number must be a finalized block or else this function will revert to prevent misinformation.",
        "params": {
          "account": "The address of the account to check",
          "blockNumber": "The block number to get the vote balance at"
        },
        "returns": {
          "_0": "The number of votes the account had as of the given block"
        }
      },
      "mint(address,uint256)": {
        "params": {
          "amount": "The number of tokens to mint",
          "src": "The address to receive the mint tokens"
        }
      },
      "transfer(address,uint256)": {
        "params": {
          "amount": "The number of tokens to transfer",
          "dst": "The address of the destination account"
        },
        "returns": {
          "_0": "Whether or not the transfer succeeded"
        }
      },
      "transferFrom(address,address,uint256)": {
        "params": {
          "amount": "The number of tokens to transfer",
          "dst": "The address of the destination account",
          "src": "The address of the source account"
        },
        "returns": {
          "_0": "Whether or not the transfer succeeded"
        }
      }
    }
  },
  "userdoc": {
    "methods": {
      "allowance(address,address)": {
        "notice": "Get the number of tokens `spender` is approved to spend on behalf of `account`"
      },
      "approve(address,uint256)": {
        "notice": "Approve `spender` to transfer up to `amount` from `src`"
      },
      "balanceOf(address)": {
        "notice": "Get the number of tokens held by the `account`"
      },
      "burn(address,uint256)": {
        "notice": "Burn `amount` tokens for 'src'"
      },
      "delegate(address)": {
        "notice": "Delegate votes from `msg.sender` to `delegatee`"
      },
      "delegateBySig(address,uint256,uint256,uint8,bytes32,bytes32)": {
        "notice": "Delegates votes from signatory to `delegatee`"
      },
      "getCurrentVotes(address)": {
        "notice": "Gets the current votes balance for `account`"
      },
      "getPriorVotes(address,uint256)": {
        "notice": "Determine the prior number of votes for an account as of a block number"
      },
      "mint(address,uint256)": {
        "notice": "Mint `amount` tokens for 'src'"
      },
      "transfer(address,uint256)": {
        "notice": "Transfer `amount` tokens from `msg.sender` to `dst`"
      },
      "transferFrom(address,address,uint256)": {
        "notice": "Transfer `amount` tokens from `src` to `dst`"
      }
    }
  }
}