{
  "contractName": "HDSDistributor",
  "abi": [
    {
      "inputs": [],
      "name": "admin",
      "outputs": [
        {
          "internalType": "address",
          "name": "",
          "type": "address"
        }
      ],
      "stateMutability": "view",
      "type": "function"
    },
    {
      "inputs": [],
      "name": "halvingStartBlock",
      "outputs": [
        {
          "internalType": "uint256",
          "name": "",
          "type": "uint256"
        }
      ],
      "stateMutability": "view",
      "type": "function"
    },
    {
      "inputs": [],
      "name": "hds",
      "outputs": [
        {
          "internalType": "contract HDS",
          "name": "",
          "type": "address"
        }
      ],
      "stateMutability": "view",
      "type": "function"
    },
    {
      "inputs": [],
      "name": "nextHalvingBlock",
      "outputs": [
        {
          "internalType": "uint256",
          "name": "",
          "type": "uint256"
        }
      ],
      "stateMutability": "view",
      "type": "function"
    },
    {
      "inputs": [],
      "name": "oracle",
      "outputs": [
        {
          "internalType": "contract PriceOracleInterface",
          "name": "",
          "type": "address"
        }
      ],
      "stateMutability": "view",
      "type": "function"
    },
    {
      "inputs": [],
      "name": "rewardsPerBlock",
      "outputs": [
        {
          "internalType": "uint256",
          "name": "",
          "type": "uint256"
        }
      ],
      "stateMutability": "view",
      "type": "function"
    },
    {
      "inputs": [],
      "name": "superior",
      "outputs": [
        {
          "internalType": "contract Superior",
          "name": "",
          "type": "address"
        }
      ],
      "stateMutability": "view",
      "type": "function"
    },
    {
      "inputs": [
        {
          "internalType": "address",
          "name": "_admin",
          "type": "address"
        },
        {
          "internalType": "address",
          "name": "_hds",
          "type": "address"
        },
        {
          "internalType": "address",
          "name": "_oracle",
          "type": "address"
        },
        {
          "internalType": "address",
          "name": "_superior",
          "type": "address"
        }
      ],
      "name": "initialize",
      "outputs": [],
      "stateMutability": "nonpayable",
      "type": "function"
    },
    {
      "inputs": [
        {
          "internalType": "address",
          "name": "account",
          "type": "address"
        },
        {
          "internalType": "address",
          "name": "hToken",
          "type": "address"
        },
        {
          "internalType": "uint256",
          "name": "amount",
          "type": "uint256"
        }
      ],
      "name": "increaseSupply",
      "outputs": [
        {
          "internalType": "uint256",
          "name": "",
          "type": "uint256"
        }
      ],
      "stateMutability": "nonpayable",
      "type": "function"
    },
    {
      "inputs": [
        {
          "internalType": "address",
          "name": "account",
          "type": "address"
        },
        {
          "internalType": "address",
          "name": "hToken",
          "type": "address"
        },
        {
          "internalType": "uint256",
          "name": "amount",
          "type": "uint256"
        },
        {
          "internalType": "uint256",
          "name": "left",
          "type": "uint256"
        }
      ],
      "name": "decreaseSupply",
      "outputs": [
        {
          "internalType": "uint256",
          "name": "",
          "type": "uint256"
        }
      ],
      "stateMutability": "nonpayable",
      "type": "function"
    },
    {
      "inputs": [
        {
          "internalType": "address",
          "name": "account",
          "type": "address"
        },
        {
          "internalType": "address",
          "name": "hToken",
          "type": "address"
        },
        {
          "internalType": "uint256",
          "name": "amount",
          "type": "uint256"
        }
      ],
      "name": "increaseBorrow",
      "outputs": [
        {
          "internalType": "uint256",
          "name": "",
          "type": "uint256"
        }
      ],
      "stateMutability": "nonpayable",
      "type": "function"
    },
    {
      "inputs": [
        {
          "internalType": "address",
          "name": "account",
          "type": "address"
        },
        {
          "internalType": "address",
          "name": "hToken",
          "type": "address"
        },
        {
          "internalType": "uint256",
          "name": "amount",
          "type": "uint256"
        },
        {
          "internalType": "uint256",
          "name": "left",
          "type": "uint256"
        }
      ],
      "name": "decreaseBorrow",
      "outputs": [
        {
          "internalType": "uint256",
          "name": "",
          "type": "uint256"
        }
      ],
      "stateMutability": "nonpayable",
      "type": "function"
    },
    {
      "inputs": [
        {
          "internalType": "address",
          "name": "lpToken",
          "type": "address"
        },
        {
          "internalType": "uint256",
          "name": "startBlock",
          "type": "uint256"
        },
        {
          "internalType": "uint256",
          "name": "endBlock",
          "type": "uint256"
        },
        {
          "internalType": "uint256",
          "name": "tokensPerBlock",
          "type": "uint256"
        }
      ],
      "name": "createLPPool",
      "outputs": [
        {
          "internalType": "uint32",
          "name": "",
          "type": "uint32"
        }
      ],
      "stateMutability": "nonpayable",
      "type": "function"
    },
    {
      "inputs": [
        {
          "internalType": "uint32",
          "name": "id",
          "type": "uint32"
        },
        {
          "internalType": "uint256",
          "name": "amount",
          "type": "uint256"
        }
      ],
      "name": "mintLPPool",
      "outputs": [],
      "stateMutability": "nonpayable",
      "type": "function"
    },
    {
      "inputs": [],
      "name": "claimMainPool",
      "outputs": [
        {
          "internalType": "uint256",
          "name": "",
          "type": "uint256"
        }
      ],
      "stateMutability": "nonpayable",
      "type": "function"
    },
    {
      "inputs": [
        {
          "internalType": "uint32",
          "name": "id",
          "type": "uint32"
        }
      ],
      "name": "claimLPPool",
      "outputs": [
        {
          "internalType": "uint256",
          "name": "",
          "type": "uint256"
        }
      ],
      "stateMutability": "nonpayable",
      "type": "function"
    },
    {
      "inputs": [
        {
          "internalType": "uint32",
          "name": "id",
          "type": "uint32"
        },
        {
          "internalType": "bool",
          "name": "isClaim",
          "type": "bool"
        }
      ],
      "name": "exitLPPool",
      "outputs": [],
      "stateMutability": "nonpayable",
      "type": "function"
    },
    {
      "inputs": [],
      "name": "getMainPoolMetadata",
      "outputs": [
        {
          "components": [
            {
              "internalType": "uint256",
              "name": "rewardIndex",
              "type": "uint256"
            },
            {
              "internalType": "uint256",
              "name": "lastBlockNumber",
              "type": "uint256"
            },
            {
              "internalType": "int256",
              "name": "accumulatedPower",
              "type": "int256"
            },
            {
              "internalType": "uint256",
              "name": "accumulatedTokens",
              "type": "uint256"
            },
            {
              "internalType": "uint256",
              "name": "totalPower",
              "type": "uint256"
            }
          ],
          "internalType": "struct DistributorInterface.TokenPoolMeta",
          "name": "",
          "type": "tuple"
        }
      ],
      "stateMutability": "view",
      "type": "function"
    },
    {
      "inputs": [],
      "name": "getAllLPPools",
      "outputs": [
        {
          "components": [
            {
              "internalType": "uint32",
              "name": "id",
              "type": "uint32"
            },
            {
              "internalType": "address",
              "name": "lpToken",
              "type": "address"
            },
            {
              "internalType": "uint256",
              "name": "startBlock",
              "type": "uint256"
            },
            {
              "internalType": "uint256",
              "name": "endBlock",
              "type": "uint256"
            },
            {
              "internalType": "uint256",
              "name": "tokensPerBlock",
              "type": "uint256"
            },
            {
              "internalType": "uint256",
              "name": "rewardIndex",
              "type": "uint256"
            },
            {
              "internalType": "uint256",
              "name": "lastBlockNumber",
              "type": "uint256"
            },
            {
              "internalType": "int256",
              "name": "accumulatedPower",
              "type": "int256"
            },
            {
              "internalType": "uint256",
              "name": "accumulatedTokens",
              "type": "uint256"
            },
            {
              "internalType": "uint256",
              "name": "totalPower",
              "type": "uint256"
            }
          ],
          "internalType": "struct DistributorInterface.LiquidityProviderPoolMeta[]",
          "name": "",
          "type": "tuple[]"
        }
      ],
      "stateMutability": "view",
      "type": "function"
    },
    {
      "inputs": [
        {
          "internalType": "address",
          "name": "account",
          "type": "address"
        },
        {
          "internalType": "int32",
          "name": "pool",
          "type": "int32"
        }
      ],
      "name": "getAccountRecordInPool",
      "outputs": [
        {
          "components": [
            {
              "internalType": "uint256",
              "name": "power",
              "type": "uint256"
            },
            {
              "internalType": "uint256",
              "name": "mask",
              "type": "uint256"
            },
            {
              "internalType": "uint256",
              "name": "settled",
              "type": "uint256"
            },
            {
              "internalType": "uint256",
              "name": "claimed",
              "type": "uint256"
            }
          ],
          "internalType": "struct DistributorInterface.AccountRecord",
          "name": "",
          "type": "tuple"
        }
      ],
      "stateMutability": "view",
      "type": "function"
    }
  ],
  "bytecode": "0x608060405234801561001057600080fd5b50613a1f806100206000396000f3fe608060405234801561001057600080fd5b506004361061012c5760003560e01c80637dc0d1d0116100ad578063c7bbb11311610071578063c7bbb11314610349578063e3d9352314610379578063f851a440146103a9578063f8c8765e146103c7578063fe20b981146103e35761012c565b80637dc0d1d0146102a15780638c439313146102bf57806395f65898146102dd5780639844feed146102fb578063bd09c493146103195761012c565b80635eeb6710116100f45780635eeb6710146101e757806367ef06aa14610205578063714b824614610235578063764b0c5714610253578063795aa650146102715761012c565b806316d3bad8146101315780631af27a3b1461014f578063439ee43a1461016b578063509a85d91461019b5780635d17b2dc146101b7575b600080fd5b610139610401565b6040516101469190613772565b60405180910390f35b61016960048036036101649190810190612e26565b610578565b005b61018560048036036101809190810190612d0c565b610651565b604051610192919061373c565b60405180910390f35b6101b560048036036101b09190810190612e62565b6107f3565b005b6101d160048036036101cc9190810190612ca9565b6108a7565b6040516101de9190613772565b60405180910390f35b6101ef610c3d565b6040516101fc9190613772565b60405180910390f35b61021f600480360361021a9190810190612c5a565b610c43565b60405161022c9190613772565b60405180910390f35b61023d610e8a565b60405161024a9190613772565b60405180910390f35b61025b610e90565b6040516102689190613569565b60405180910390f35b61028b60048036036102869190810190612d48565b610eb5565b604051610298919061378d565b60405180910390f35b6102a96110cb565b6040516102b69190613584565b60405180910390f35b6102c76110f1565b6040516102d49190613772565b60405180910390f35b6102e56110f7565b6040516102f2919061359f565b60405180910390f35b61030361111d565b6040516103109190613547565b60405180910390f35b610333600480360361032e9190810190612dfd565b611345565b6040516103409190613772565b60405180910390f35b610363600480360361035e9190810190612c5a565b611357565b6040516103709190613772565b60405180910390f35b610393600480360361038e9190810190612ca9565b61159e565b6040516103a09190613772565b60405180910390f35b6103b1611934565b6040516103be91906134b1565b60405180910390f35b6103e160048036036103dc9190810190612bf7565b61195a565b005b6103eb611b43565b6040516103f89190613757565b60405180910390f35b600080600760050160003373ffffffffffffffffffffffffffffffffffffffff1673ffffffffffffffffffffffffffffffffffffffff16815260200190815260200160002090506000600760000154905060006104978360010154610489856002015461047b876000015487611b9090919063ffffffff16565b611c0090919063ffffffff16565b611c5590919063ffffffff16565b90506000809054906101000a900473ffffffffffffffffffffffffffffffffffffffff1673ffffffffffffffffffffffffffffffffffffffff166340c10f1933836040518363ffffffff1660e01b81526004016104f59291906134e7565b600060405180830381600087803b15801561050f57600080fd5b505af1158015610523573d6000803e3d6000fd5b5050505061053e818460030154611c0090919063ffffffff16565b836003018190555060008360020181905550610567836000015483611b9090919063ffffffff16565b836001018190555080935050505090565b600d805490508263ffffffff161061058f5761064d565b6000600d8363ffffffff16815481106105a457fe5b90600052602060002090600a0201905060008160000160050160003373ffffffffffffffffffffffffffffffffffffffff1673ffffffffffffffffffffffffffffffffffffffff1681526020019081526020016000206000015490506000811115610639576106388260060160049054906101000a900473ffffffffffffffffffffffffffffffffffffffff163383611c9f565b5b821561064a5761064884611d87565b505b50505b5050565b6106596129c0565b7fffffffffffffffffffffffffffffffffffffffffffffffffffffffffffffffff8260030b141561070057600760050160008473ffffffffffffffffffffffffffffffffffffffff1673ffffffffffffffffffffffffffffffffffffffff16815260200190815260200160002060405180608001604052908160008201548152602001600182015481526020016002820154815260200160038201548152505090506107ed565b6000829050600d805490508163ffffffff1610610752576040517f08c379a0000000000000000000000000000000000000000000000000000000008152600401610749906136bc565b60405180910390fd5b600d8163ffffffff168154811061076557fe5b90600052602060002090600a020160000160050160008573ffffffffffffffffffffffffffffffffffffffff1673ffffffffffffffffffffffffffffffffffffffff1681526020019081526020016000206040518060800160405290816000820154815260200160018201548152602001600282015481526020016003820154815250509150505b92915050565b600d805490508263ffffffff161061080a576108a3565b6000600d8363ffffffff168154811061081f57fe5b90600052602060002090600a020190506000610839611f47565b90508082600701541180610851575080826008015411155b1561085d5750506108a3565b600061088e8360060160049054906101000a900473ffffffffffffffffffffffffffffffffffffffff163386611f4f565b905061089f836000018633846121a0565b5050505b5050565b6000600360009054906101000a900473ffffffffffffffffffffffffffffffffffffffff1673ffffffffffffffffffffffffffffffffffffffff166342bfa576336040518263ffffffff1660e01b815260040161090491906134cc565b602060405180830381600087803b15801561091e57600080fd5b505af1158015610932573d6000803e3d6000fd5b505050506040513d601f19601f820116820180604052506109569190810190612dab565b610995576040517f08c379a000000000000000000000000000000000000000000000000000000000815260040161098c906136dc565b60405180910390fd5b6000600260009054906101000a900473ffffffffffffffffffffffffffffffffffffffff1673ffffffffffffffffffffffffffffffffffffffff1663fc57d4df866040518263ffffffff1660e01b81526004016109f291906134b1565b60206040518083038186803b158015610a0a57600080fd5b505afa158015610a1e573d6000803e3d6000fd5b505050506040513d601f19601f82011682018060405250610a429190810190612dd4565b9050600080610a5f604051806020016040528085815250876125ba565b9150915060006003811115610a7057fe5b826003811115610a7c57fe5b14610a9757816003811115610a8d57fe5b9350505050610c35565b6000610aa28261261d565b90506000811415610ac55760006003811115610aba57fe5b945050505050610c35565b6000600760050160008b73ffffffffffffffffffffffffffffffffffffffff1673ffffffffffffffffffffffffffffffffffffffff16815260200190815260200160002060000154905080821115610bf0576000871115610ba857610b38604051806020016040528087815250886125ba565b809450819550505060006003811115610b4d57fe5b846003811115610b5957fe5b14610b7657836003811115610b6a57fe5b95505050505050610c35565b610b7f8361261d565b91506000821415610ba35760006003811115610b9757fe5b95505050505050610c35565b610bef565b60008714610beb576040517f08c379a0000000000000000000000000000000000000000000000000000000008152600401610be2906135dc565b60405180910390fd5b8091505b5b610c20600760008c857fffffffffffffffffffffffffffffffffffffffffffffffffffffffffffffffff026121a0565b60006003811115610c2d57fe5b955050505050505b949350505050565b60045481565b6000600360009054906101000a900473ffffffffffffffffffffffffffffffffffffffff1673ffffffffffffffffffffffffffffffffffffffff166342bfa576336040518263ffffffff1660e01b8152600401610ca091906134cc565b602060405180830381600087803b158015610cba57600080fd5b505af1158015610cce573d6000803e3d6000fd5b505050506040513d601f19601f82011682018060405250610cf29190810190612dab565b610d31576040517f08c379a0000000000000000000000000000000000000000000000000000000008152600401610d28906136dc565b60405180910390fd5b6000600260009054906101000a900473ffffffffffffffffffffffffffffffffffffffff1673ffffffffffffffffffffffffffffffffffffffff1663fc57d4df856040518263ffffffff1660e01b8152600401610d8e91906134b1565b60206040518083038186803b158015610da657600080fd5b505afa158015610dba573d6000803e3d6000fd5b505050506040513d601f19601f82011682018060405250610dde9190810190612dd4565b9050600080610dfb604051806020016040528085815250866125ba565b9150915060006003811115610e0c57fe5b826003811115610e1857fe5b14610e3357816003811115610e2957fe5b9350505050610e83565b6000610e3e8261264d565b90506000811415610e615760006003811115610e5657fe5b945050505050610e83565b610e6f600760008a846121a0565b60006003811115610e7c57fe5b9450505050505b9392505050565b60065481565b6000809054906101000a900473ffffffffffffffffffffffffffffffffffffffff1681565b60003373ffffffffffffffffffffffffffffffffffffffff16600160009054906101000a900473ffffffffffffffffffffffffffffffffffffffff1673ffffffffffffffffffffffffffffffffffffffff1614610f47576040517f08c379a0000000000000000000000000000000000000000000000000000000008152600401610f3e9061371c565b60405180910390fd5b6000600d805490509050610f596129e8565b81816020019063ffffffff16908163ffffffff168152505086816040019073ffffffffffffffffffffffffffffffffffffffff16908173ffffffffffffffffffffffffffffffffffffffff16815250508481608001818152505085816060018181525050838160a0018181525050600d8190806001815401808255809150506001900390600052602060002090600a02016000909190919091506000820151816000016000820151816000015560208201518160010155604082015181600201556060820151816003015560808201518160040155505060208201518160060160006101000a81548163ffffffff021916908363ffffffff16021790555060408201518160060160046101000a81548173ffffffffffffffffffffffffffffffffffffffff021916908373ffffffffffffffffffffffffffffffffffffffff160217905550606082015181600701556080820151816008015560a0820151816009015550508192505050949350505050565b600260009054906101000a900473ffffffffffffffffffffffffffffffffffffffff1681565b60055481565b600360009054906101000a900473ffffffffffffffffffffffffffffffffffffffff1681565b606080600d8054905060405190808252806020026020018201604052801561115f57816020015b61114c612a40565b8152602001906001900390816111445790505b50905060005b815181101561133d576111766129e8565b600d828154811061118357fe5b90600052602060002090600a02016040518060c0016040529081600082016040518060a00160405290816000820154815260200160018201548152602001600282015481526020016003820154815260200160048201548152505081526020016006820160009054906101000a900463ffffffff1663ffffffff1663ffffffff1681526020016006820160049054906101000a900473ffffffffffffffffffffffffffffffffffffffff1673ffffffffffffffffffffffffffffffffffffffff1673ffffffffffffffffffffffffffffffffffffffff16815260200160078201548152602001600882015481526020016009820154815250509050611286612aaf565b81600001519050604051806101400160405280836020015163ffffffff168152602001836040015173ffffffffffffffffffffffffffffffffffffffff16815260200183606001518152602001836080015181526020018360a00151815260200182600001518152602001826020015181526020018260400151815260200182606001518152602001826080015181525084848151811061132357fe5b602002602001018190525050508080600101915050611165565b508091505090565b600061135082611d87565b9050919050565b6000600360009054906101000a900473ffffffffffffffffffffffffffffffffffffffff1673ffffffffffffffffffffffffffffffffffffffff166342bfa576336040518263ffffffff1660e01b81526004016113b491906134cc565b602060405180830381600087803b1580156113ce57600080fd5b505af11580156113e2573d6000803e3d6000fd5b505050506040513d601f19601f820116820180604052506114069190810190612dab565b611445576040517f08c379a000000000000000000000000000000000000000000000000000000000815260040161143c906136dc565b60405180910390fd5b6000600260009054906101000a900473ffffffffffffffffffffffffffffffffffffffff1673ffffffffffffffffffffffffffffffffffffffff1663fc57d4df856040518263ffffffff1660e01b81526004016114a291906134b1565b60206040518083038186803b1580156114ba57600080fd5b505afa1580156114ce573d6000803e3d6000fd5b505050506040513d601f19601f820116820180604052506114f29190810190612dd4565b905060008061150f604051806020016040528085815250866125ba565b915091506000600381111561152057fe5b82600381111561152c57fe5b146115475781600381111561153d57fe5b9350505050611597565b60006115528261261d565b90506000811415611575576000600381111561156a57fe5b945050505050611597565b611583600760008a846121a0565b6000600381111561159057fe5b9450505050505b9392505050565b6000600360009054906101000a900473ffffffffffffffffffffffffffffffffffffffff1673ffffffffffffffffffffffffffffffffffffffff166342bfa576336040518263ffffffff1660e01b81526004016115fb91906134cc565b602060405180830381600087803b15801561161557600080fd5b505af1158015611629573d6000803e3d6000fd5b505050506040513d601f19601f8201168201806040525061164d9190810190612dab565b61168c576040517f08c379a0000000000000000000000000000000000000000000000000000000008152600401611683906136dc565b60405180910390fd5b6000600260009054906101000a900473ffffffffffffffffffffffffffffffffffffffff1673ffffffffffffffffffffffffffffffffffffffff1663fc57d4df866040518263ffffffff1660e01b81526004016116e991906134b1565b60206040518083038186803b15801561170157600080fd5b505afa158015611715573d6000803e3d6000fd5b505050506040513d601f19601f820116820180604052506117399190810190612dd4565b9050600080611756604051806020016040528085815250876125ba565b915091506000600381111561176757fe5b82600381111561177357fe5b1461178e5781600381111561178457fe5b935050505061192c565b60006117998261264d565b905060008114156117bc57600060038111156117b157fe5b94505050505061192c565b6000600760050160008b73ffffffffffffffffffffffffffffffffffffffff1673ffffffffffffffffffffffffffffffffffffffff168152602001908152602001600020600001549050808211156118e757600087111561189f5761182f604051806020016040528087815250886125ba565b80945081955050506000600381111561184457fe5b84600381111561185057fe5b1461186d5783600381111561186157fe5b9550505050505061192c565b6118768361264d565b9150600082141561189a576000600381111561188e57fe5b9550505050505061192c565b6118e6565b600087146118e2576040517f08c379a00000000000000000000000000000000000000000000000000000000081526004016118d9906135dc565b60405180910390fd5b8091505b5b611917600760008c857fffffffffffffffffffffffffffffffffffffffffffffffffffffffffffffffff026121a0565b6000600381111561192457fe5b955050505050505b949350505050565b600160009054906101000a900473ffffffffffffffffffffffffffffffffffffffff1681565b83600160006101000a81548173ffffffffffffffffffffffffffffffffffffffff021916908373ffffffffffffffffffffffffffffffffffffffff160217905550826000806101000a81548173ffffffffffffffffffffffffffffffffffffffff021916908373ffffffffffffffffffffffffffffffffffffffff16021790555081600260006101000a81548173ffffffffffffffffffffffffffffffffffffffff021916908373ffffffffffffffffffffffffffffffffffffffff16021790555080600360006101000a81548173ffffffffffffffffffffffffffffffffffffffff021916908373ffffffffffffffffffffffffffffffffffffffff16021790555060008060009054906101000a900473ffffffffffffffffffffffffffffffffffffffff1673ffffffffffffffffffffffffffffffffffffffff1663313ce5676040518163ffffffff1660e01b815260040160206040518083038186803b158015611ac657600080fd5b505afa158015611ada573d6000803e3d6000fd5b505050506040513d601f19601f82011682018060405250611afe9190810190612e9e565b60ff16905080600a0a600302600481905550611b18611f47565b600581905550611b3662201480600554611c0090919063ffffffff16565b6006819055505050505050565b611b4b612ade565b6040518060a001604052806007600001548152602001600760010154815260200160076002015481526020016007600301548152602001600760040154815250905090565b600080831415611ba35760009050611bfa565b6000828402905082848281611bb457fe5b0414611bf5576040517f08c379a0000000000000000000000000000000000000000000000000000000008152600401611bec9061369c565b60405180910390fd5b809150505b92915050565b600080828401905083811015611c4b576040517f08c379a0000000000000000000000000000000000000000000000000000000008152600401611c429061365c565b60405180910390fd5b8091505092915050565b6000611c9783836040518060400160405280601f81526020017f536166654d6174683a207375627472616374696f6e20756e646572666c6f7700815250612657565b905092915050565b60008390508073ffffffffffffffffffffffffffffffffffffffff1663a9059cbb84846040518363ffffffff1660e01b8152600401611cdf9291906134e7565b600060405180830381600087803b158015611cf957600080fd5b505af1158015611d0d573d6000803e3d6000fd5b5050505060003d60008114611d295760208114611d3357600080fd5b6000199150611d3f565b60206000803e60005191505b5080611d80576040517f08c379a0000000000000000000000000000000000000000000000000000000008152600401611d779061363c565b60405180910390fd5b5050505050565b6000600d805490508263ffffffff1610611da45760009050611f42565b6000600d8363ffffffff1681548110611db957fe5b90600052602060002090600a0201905060008160000160050160003373ffffffffffffffffffffffffffffffffffffffff1673ffffffffffffffffffffffffffffffffffffffff16815260200190815260200160002090506000826000016000015490506000611e628360010154611e548560020154611e46876000015487611b9090919063ffffffff16565b611c0090919063ffffffff16565b611c5590919063ffffffff16565b90506000809054906101000a900473ffffffffffffffffffffffffffffffffffffffff1673ffffffffffffffffffffffffffffffffffffffff166340c10f1933836040518363ffffffff1660e01b8152600401611ec09291906134e7565b600060405180830381600087803b158015611eda57600080fd5b505af1158015611eee573d6000803e3d6000fd5b50505050611f09818460030154611c0090919063ffffffff16565b836003018190555060008360020181905550611f32836000015483611b9090919063ffffffff16565b8360010181905550809450505050505b919050565b600043905090565b60008084905060008173ffffffffffffffffffffffffffffffffffffffff166370a08231306040518263ffffffff1660e01b8152600401611f9091906134b1565b60206040518083038186803b158015611fa857600080fd5b505afa158015611fbc573d6000803e3d6000fd5b505050506040513d601f19601f82011682018060405250611fe09190810190612dd4565b90508173ffffffffffffffffffffffffffffffffffffffff166323b872dd8630876040518463ffffffff1660e01b815260040161201f93929190613510565b600060405180830381600087803b15801561203957600080fd5b505af115801561204d573d6000803e3d6000fd5b5050505060003d60008114612069576020811461207357600080fd5b600019915061207f565b60206000803e60005191505b50806120c0576040517f08c379a00000000000000000000000000000000000000000000000000000000081526004016120b7906135fc565b60405180910390fd5b60008373ffffffffffffffffffffffffffffffffffffffff166370a08231306040518263ffffffff1660e01b81526004016120fb91906134b1565b60206040518083038186803b15801561211357600080fd5b505afa158015612127573d6000803e3d6000fd5b505050506040513d601f19601f8201168201806040525061214b9190810190612dd4565b905082811015612190576040517f08c379a00000000000000000000000000000000000000000000000000000000081526004016121879061361c565b60405180910390fd5b8281039450505050509392505050565b60006121aa611f47565b90508085600101541461246b576121bf6126b2565b6121d185600401548660020154612720565b856004018190555060007fffffffffffffffffffffffffffffffffffffffffffffffffffffffffffffffff60030b8560030b141561221e5761221786600101548361275a565b90506123c6565b6122266129e8565b600d8660030b8154811061223657fe5b90600052602060002090600a02016040518060c0016040529081600082016040518060a00160405290816000820154815260200160018201548152602001600282015481526020016003820154815260200160048201548152505081526020016006820160009054906101000a900463ffffffff1663ffffffff1663ffffffff1681526020016006820160049054906101000a900473ffffffffffffffffffffffffffffffffffffffff1673ffffffffffffffffffffffffffffffffffffffff1673ffffffffffffffffffffffffffffffffffffffff16815260200160078201548152602001600882015481526020016009820154815250509050600073ffffffffffffffffffffffffffffffffffffffff16816040015173ffffffffffffffffffffffffffffffffffffffff1614156123a5576040517f08c379a000000000000000000000000000000000000000000000000000000000815260040161239c906136fc565b60405180910390fd5b6123c2876001015484038260a00151611b9090919063ffffffff16565b9150505b6000866004015411156124335760006123ec828860030154611c0090919063ffffffff16565b905061241b61240888600401548361277b90919063ffffffff16565b8860000154611c0090919063ffffffff16565b87600001819055506000876003018190555050612453565b61244a818760030154611c0090919063ffffffff16565b86600301819055505b81866001018190555082866002018190555050612482565b6124798560020154836127c5565b85600201819055505b60008560050160008573ffffffffffffffffffffffffffffffffffffffff1673ffffffffffffffffffffffffffffffffffffffff1681526020019081526020016000209050600083121561255d5761251761250482600101546124f684600001548a60000154611b9090919063ffffffff16565b611c5590919063ffffffff16565b8260020154611c0090919063ffffffff16565b816002018190555061252d816000015484612720565b816000018190555061255081600001548760000154611b9090919063ffffffff16565b81600101819055506125b2565b612574838260000154611c0090919063ffffffff16565b81600001819055506125a9612596848860000154611b9090919063ffffffff16565b8260010154611c0090919063ffffffff16565b81600101819055505b505050505050565b60008060006125c7612b0d565b6125d1868661286f565b91509150600060038111156125e257fe5b8260038111156125ee57fe5b1461260457816000809050935093505050612616565b600061260f826128ed565b9350935050505b9250929050565b60006126466002612638600385611b9090919063ffffffff16565b61277b90919063ffffffff16565b9050919050565b6000819050919050565b600083831115829061269f576040517f08c379a000000000000000000000000000000000000000000000000000000000815260040161269691906135ba565b60405180910390fd5b5060008385039050809150509392505050565b60006126bc611f47565b905060065481101580156126d65750600654600760010154105b1561271d576126f1600260045461277b90919063ffffffff16565b6004819055508060058190555061271662201480600554611c0090919063ffffffff16565b6006819055505b50565b6000808212612733578183019050612754565b600082600003840390508381111561274f576000915050612754565b809150505b92915050565b6000612773600454848403611b9090919063ffffffff16565b905092915050565b60006127bd83836040518060400160405280601a81526020017f536166654d6174683a206469766973696f6e206279207a65726f00000000000081525061290c565b905092915050565b6000808284019050600083121561281957838112612818576040517f08c379a000000000000000000000000000000000000000000000000000000000815260040161280f9061367c565b60405180910390fd5b5b600083131561286557838113612864576040517f08c379a000000000000000000000000000000000000000000000000000000000815260040161285b9061367c565b60405180910390fd5b5b8091505092915050565b6000612879612b0d565b60008061288a86600001518661296d565b915091506000600381111561289b57fe5b8260038111156128a757fe5b146128cb5781604051806020016040528060008152508090509350935050506128e6565b60006040518060200160405280838152508090509350935050505b9250929050565b6000670de0b6b3a764000082600001518161290457fe5b049050919050565b60008083118290612953576040517f08c379a000000000000000000000000000000000000000000000000000000000815260040161294a91906135ba565b60405180910390fd5b50600083858161295f57fe5b049050809150509392505050565b600080600084141561298857600080809050915091506129b9565b600083850290508385828161299957fe5b04146129b0576002600080905092509250506129b9565b60008192509250505b9250929050565b6040518060800160405280600081526020016000815260200160008152602001600081525090565b6040518060c001604052806129fb612b20565b8152602001600063ffffffff168152602001600073ffffffffffffffffffffffffffffffffffffffff1681526020016000815260200160008152602001600081525090565b604051806101400160405280600063ffffffff168152602001600073ffffffffffffffffffffffffffffffffffffffff16815260200160008152602001600081526020016000815260200160008152602001600081526020016000815260200160008152602001600081525090565b6040518060a0016040528060008152602001600081526020016000815260200160008152602001600081525090565b6040518060a0016040528060008152602001600081526020016000815260200160008152602001600081525090565b6040518060200160405280600081525090565b6040518060a0016040528060008152602001600081526020016000815260200160008152602001600081525090565b600081359050612b5e8161395f565b92915050565b600081359050612b7381613976565b92915050565b600081519050612b8881613976565b92915050565b600081359050612b9d8161398d565b92915050565b600081359050612bb2816139a4565b92915050565b600081519050612bc7816139a4565b92915050565b600081359050612bdc816139bb565b92915050565b600081519050612bf1816139d2565b92915050565b60008060008060808587031215612c0d57600080fd5b6000612c1b87828801612b4f565b9450506020612c2c87828801612b4f565b9350506040612c3d87828801612b4f565b9250506060612c4e87828801612b4f565b91505092959194509250565b600080600060608486031215612c6f57600080fd5b6000612c7d86828701612b4f565b9350506020612c8e86828701612b4f565b9250506040612c9f86828701612ba3565b9150509250925092565b60008060008060808587031215612cbf57600080fd5b6000612ccd87828801612b4f565b9450506020612cde87828801612b4f565b9350506040612cef87828801612ba3565b9250506060612d0087828801612ba3565b91505092959194509250565b60008060408385031215612d1f57600080fd5b6000612d2d85828601612b4f565b9250506020612d3e85828601612b8e565b9150509250929050565b60008060008060808587031215612d5e57600080fd5b6000612d6c87828801612b4f565b9450506020612d7d87828801612ba3565b9350506040612d8e87828801612ba3565b9250506060612d9f87828801612ba3565b91505092959194509250565b600060208284031215612dbd57600080fd5b6000612dcb84828501612b79565b91505092915050565b600060208284031215612de657600080fd5b6000612df484828501612bb8565b91505092915050565b600060208284031215612e0f57600080fd5b6000612e1d84828501612bcd565b91505092915050565b60008060408385031215612e3957600080fd5b6000612e4785828601612bcd565b9250506020612e5885828601612b64565b9150509250929050565b60008060408385031215612e7557600080fd5b6000612e8385828601612bcd565b9250506020612e9485828601612ba3565b9150509250929050565b600060208284031215612eb057600080fd5b6000612ebe84828501612be2565b91505092915050565b6000612ed38383613341565b6101408301905092915050565b612ee981613879565b82525050565b612ef8816137fd565b82525050565b612f07816137fd565b82525050565b6000612f18826137b8565b612f2281856137db565b9350612f2d836137a8565b8060005b83811015612f5e578151612f458882612ec7565b9750612f50836137ce565b925050600181019050612f31565b5085935050505092915050565b612f748161388b565b82525050565b612f83816138af565b82525050565b612f92816138d3565b82525050565b612fa18161381b565b82525050565b6000612fb2826137c3565b612fbc81856137ec565b9350612fcc81856020860161391b565b612fd58161394e565b840191505092915050565b6000612fed601a836137ec565b91507f6c6566742062616c616e63652073686f7564206265207a65726f0000000000006000830152602082019050919050565b600061302d6018836137ec565b91507f544f4b454e5f5452414e534645525f494e5f4641494c454400000000000000006000830152602082019050919050565b600061306d601a836137ec565b91507f544f4b454e5f5452414e534645525f494e5f4f564552464c4f570000000000006000830152602082019050919050565b60006130ad6019836137ec565b91507f544f4b454e5f5452414e534645525f4f55545f4641494c4544000000000000006000830152602082019050919050565b60006130ed601b836137ec565b91507f536166654d6174683a206164646974696f6e206f766572666c6f7700000000006000830152602082019050919050565b600061312d6030836137ec565b91507f4844534469737472696275746f723a3a736166654164645369676e65643a206160008301527f64646974696f6e206f766572666c6f77000000000000000000000000000000006020830152604082019050919050565b60006131936021836137ec565b91507f536166654d6174683a206d756c7469706c69636174696f6e206f766572666c6f60008301527f77000000000000000000000000000000000000000000000000000000000000006020830152604082019050919050565b60006131f96014836137ec565b91507f706f6f6c206964206f7574206f662072616e67650000000000000000000000006000830152602082019050919050565b60006132396016836137ec565b91507f44697374726962757465206e6f7420616c6c6f776564000000000000000000006000830152602082019050919050565b60006132796011836137ec565b91507f4c5020706f6f6c206e6f742065786973740000000000000000000000000000006000830152602082019050919050565b60006132b96018836137ec565b91507f5468652063616c6c6572206d7573742062652061646d696e00000000000000006000830152602082019050919050565b6080820160008201516133026000850182613475565b5060208201516133156020850182613475565b5060408201516133286040850182613475565b50606082015161333b6060850182613475565b50505050565b610140820160008201516133586000850182613493565b50602082015161336b6020850182612eef565b50604082015161337e6040850182613475565b5060608201516133916060850182613475565b5060808201516133a46080850182613475565b5060a08201516133b760a0850182613475565b5060c08201516133ca60c0850182613475565b5060e08201516133dd60e0850182612f98565b506101008201516133f2610100850182613475565b50610120820151613407610120850182613475565b50505050565b60a0820160008201516134236000850182613475565b5060208201516134366020850182613475565b5060408201516134496040850182612f98565b50606082015161345c6060850182613475565b50608082015161346f6080850182613475565b50505050565b61347e81613852565b82525050565b61348d81613852565b82525050565b61349c8161385c565b82525050565b6134ab8161385c565b82525050565b60006020820190506134c66000830184612efe565b92915050565b60006020820190506134e16000830184612ee0565b92915050565b60006040820190506134fc6000830185612ee0565b6135096020830184613484565b9392505050565b60006060820190506135256000830186612efe565b6135326020830185612efe565b61353f6040830184613484565b949350505050565b600060208201905081810360008301526135618184612f0d565b905092915050565b600060208201905061357e6000830184612f6b565b92915050565b60006020820190506135996000830184612f7a565b92915050565b60006020820190506135b46000830184612f89565b92915050565b600060208201905081810360008301526135d48184612fa7565b905092915050565b600060208201905081810360008301526135f581612fe0565b9050919050565b6000602082019050818103600083015261361581613020565b9050919050565b6000602082019050818103600083015261363581613060565b9050919050565b60006020820190508181036000830152613655816130a0565b9050919050565b60006020820190508181036000830152613675816130e0565b9050919050565b6000602082019050818103600083015261369581613120565b9050919050565b600060208201905081810360008301526136b581613186565b9050919050565b600060208201905081810360008301526136d5816131ec565b9050919050565b600060208201905081810360008301526136f58161322c565b9050919050565b600060208201905081810360008301526137158161326c565b9050919050565b60006020820190508181036000830152613735816132ac565b9050919050565b600060808201905061375160008301846132ec565b92915050565b600060a08201905061376c600083018461340d565b92915050565b60006020820190506137876000830184613484565b92915050565b60006020820190506137a260008301846134a2565b92915050565b6000819050602082019050919050565b600081519050919050565b600081519050919050565b6000602082019050919050565b600082825260208201905092915050565b600082825260208201905092915050565b600061380882613832565b9050919050565b60008115159050919050565b6000819050919050565b60008160030b9050919050565b600073ffffffffffffffffffffffffffffffffffffffff82169050919050565b6000819050919050565b600063ffffffff82169050919050565b600060ff82169050919050565b6000613884826138f7565b9050919050565b60006138968261389d565b9050919050565b60006138a882613832565b9050919050565b60006138ba826138c1565b9050919050565b60006138cc82613832565b9050919050565b60006138de826138e5565b9050919050565b60006138f082613832565b9050919050565b600061390282613909565b9050919050565b600061391482613832565b9050919050565b60005b8381101561393957808201518184015260208101905061391e565b83811115613948576000848401525b50505050565b6000601f19601f8301169050919050565b613968816137fd565b811461397357600080fd5b50565b61397f8161380f565b811461398a57600080fd5b50565b61399681613825565b81146139a157600080fd5b50565b6139ad81613852565b81146139b857600080fd5b50565b6139c48161385c565b81146139cf57600080fd5b50565b6139db8161386c565b81146139e657600080fd5b5056fea2646970667358221220d934b23e2517f6ceeec5e1e391efe5ad005132dfdf30bb5f5b451fd2cd21dba564736f6c63430006000033",
  "source": "pragma solidity ^0.6.0;\npragma experimental ABIEncoderV2;\n\nimport \"./interfaces/DistributorInterface.sol\";\nimport \"./interfaces/EIP20NonStandardInterface.sol\";\nimport \"./interfaces/PriceOracleInterface.sol\";\nimport \"./libraries/SafeMath.sol\";\nimport \"./libraries/Exponential.sol\";\nimport \"./HDS.sol\";\n\ninterface Superior {\n\tfunction distributeAllowed(address hToken) external returns (bool);\n}\n\ncontract HDSDistributor is Exponential, DistributorInterface {\n\tusing SafeMath for uint256;\n\n\tHDS public hds;\n\taddress public admin;\n\tPriceOracleInterface public oracle;\n\tSuperior public superior;\n\tuint256 public rewardsPerBlock;\n\tuint256 public halvingStartBlock;\n\tuint256 public nextHalvingBlock;\n\n\tTokenPool private mainPool;\n\tLiquidityProviderPool[] private lpPools;\n\n\tint32 internal constant MAIN_POOL_ID = -1;\n\tuint256 internal constant BLOCKS_PER_YEAR = 2102400;\n\n\tmodifier onlyAdmin {\n\t\trequire(admin == msg.sender, \"The caller must be admin\");\n\t\t_;\n\t}\n\n\tmodifier distributeAllowed {\n\t\trequire(superior.distributeAllowed(msg.sender), \"Distribute not allowed\");\n\t\t_;\n\t}\n\n\tfunction initialize(\n\t\taddress _admin,\n\t\taddress _hds,\n\t\taddress _oracle,\n\t\taddress _superior\n\t) external override {\n\t\tadmin = _admin;\n\t\thds = HDS(_hds);\n\t\toracle = PriceOracleInterface(_oracle);\n\t\tsuperior = Superior(_superior);\n\n\t\tuint256 decimals = hds.decimals();\n\t\trewardsPerBlock = 3 * (10**decimals);\n\t\thalvingStartBlock = getCurrentBlockNumber();\n\t\tnextHalvingBlock = halvingStartBlock.add(BLOCKS_PER_YEAR);\n\t}\n\n\tfunction increaseSupply(\n\t\taddress account,\n\t\taddress hToken,\n\t\tuint256 amount\n\t) external override distributeAllowed returns (uint256) {\n\t\tuint256 priceMantissa = oracle.getUnderlyingPrice(hToken);\n\t\t(MathError err, uint256 value) = mulScalarTruncate(Exp({ mantissa: priceMantissa }), amount);\n\t\tif (err != MathError.NO_ERROR) {\n\t\t\treturn uint256(err);\n\t\t}\n\t\tuint256 power = valueToPower(value);\n\t\tif (power == 0) {\n\t\t\treturn uint256(MathError.NO_ERROR);\n\t\t}\n\t\tupdatePower(mainPool, 0, account, int256(power));\n\t\treturn uint256(MathError.NO_ERROR);\n\t}\n\n\tfunction decreaseSupply(\n\t\taddress account,\n\t\taddress hToken,\n\t\tuint256 amount,\n\t\tuint256 left\n\t) external override distributeAllowed returns (uint256) {\n\t\tuint256 priceMantissa = oracle.getUnderlyingPrice(hToken);\n\t\t(MathError err, uint256 value) = mulScalarTruncate(Exp({ mantissa: priceMantissa }), amount);\n\t\tif (err != MathError.NO_ERROR) {\n\t\t\treturn uint256(err);\n\t\t}\n\t\tuint256 power = valueToPower(value);\n\t\tif (power == 0) {\n\t\t\treturn uint256(MathError.NO_ERROR);\n\t\t}\n\t\tuint256 accountPower = mainPool.accountRecords[account].power;\n\t\tif (power > accountPower) {\n\t\t\tif (left > 0) {\n\t\t\t\t(err, value) = mulScalarTruncate(Exp({ mantissa: priceMantissa }), left);\n\t\t\t\tif (err != MathError.NO_ERROR) {\n\t\t\t\t\treturn uint256(err);\n\t\t\t\t}\n\t\t\t\tpower = valueToPower(value);\n\t\t\t\tif (power == 0) {\n\t\t\t\t\treturn uint256(MathError.NO_ERROR);\n\t\t\t\t}\n\t\t\t} else {\n\t\t\t\trequire(left == 0, \"left balance shoud be zero\");\n\t\t\t\tpower = accountPower;\n\t\t\t}\n\t\t}\n\t\tupdatePower(mainPool, 0, account, -1 * int256(power));\n\t\treturn uint256(MathError.NO_ERROR);\n\t}\n\n\tfunction increaseBorrow(\n\t\taddress account,\n\t\taddress hToken,\n\t\tuint256 amount\n\t) external override distributeAllowed returns (uint256) {\n\t\tuint256 priceMantissa = oracle.getUnderlyingPrice(hToken);\n\t\t(MathError err, uint256 value) = mulScalarTruncate(Exp({ mantissa: priceMantissa }), amount);\n\t\tif (err != MathError.NO_ERROR) {\n\t\t\treturn uint256(err);\n\t\t}\n\t\tuint256 power = valueToBorrowPower(value);\n\t\tif (power == 0) {\n\t\t\treturn uint256(MathError.NO_ERROR);\n\t\t}\n\t\tupdatePower(mainPool, 0, account, int256(power));\n\t\treturn uint256(MathError.NO_ERROR);\n\t}\n\n\tfunction decreaseBorrow(\n\t\taddress account,\n\t\taddress hToken,\n\t\tuint256 amount,\n\t\tuint256 left\n\t) external override distributeAllowed returns (uint256) {\n\t\tuint256 priceMantissa = oracle.getUnderlyingPrice(hToken);\n\t\t(MathError err, uint256 value) = mulScalarTruncate(Exp({ mantissa: priceMantissa }), amount);\n\t\tif (err != MathError.NO_ERROR) {\n\t\t\treturn uint256(err);\n\t\t}\n\t\tuint256 power = valueToBorrowPower(value);\n\t\tif (power == 0) {\n\t\t\treturn uint256(MathError.NO_ERROR);\n\t\t}\n\t\tuint256 accountPower = mainPool.accountRecords[account].power;\n\t\tif (power > accountPower) {\n\t\t\tif (left > 0) {\n\t\t\t\t(err, value) = mulScalarTruncate(Exp({ mantissa: priceMantissa }), left);\n\t\t\t\tif (err != MathError.NO_ERROR) {\n\t\t\t\t\treturn uint256(err);\n\t\t\t\t}\n\t\t\t\tpower = valueToBorrowPower(value);\n\t\t\t\tif (power == 0) {\n\t\t\t\t\treturn uint256(MathError.NO_ERROR);\n\t\t\t\t}\n\t\t\t} else {\n\t\t\t\trequire(left == 0, \"left balance shoud be zero\");\n\t\t\t\tpower = accountPower;\n\t\t\t}\n\t\t}\n\t\tupdatePower(mainPool, 0, account, -1 * int256(power));\n\t\treturn uint256(MathError.NO_ERROR);\n\t}\n\n\tfunction createLPPool(\n\t\taddress lpToken,\n\t\tuint256 startBlock,\n\t\tuint256 endBlock,\n\t\tuint256 tokensPerBlock\n\t) external override onlyAdmin returns (uint32) {\n\t\tuint32 id = uint32(lpPools.length);\n\t\tLiquidityProviderPool memory newPool;\n\t\tnewPool.id = id;\n\t\tnewPool.lpToken = lpToken;\n\t\tnewPool.endBlock = endBlock;\n\t\tnewPool.startBlock = startBlock;\n\t\tnewPool.tokensPerBlock = tokensPerBlock;\n\t\tlpPools.push(newPool);\n\t\treturn id;\n\t}\n\n\tfunction mintLPPool(uint32 id, uint256 amount) external override {\n\t\tif (id >= lpPools.length) {\n\t\t\treturn;\n\t\t}\n\t\tLiquidityProviderPool storage pool = lpPools[id];\n\t\tuint256 currentBlockNumber = getCurrentBlockNumber();\n\t\tif (pool.startBlock > currentBlockNumber || pool.endBlock <= currentBlockNumber) {\n\t\t\treturn;\n\t\t}\n\t\tuint256 transferedAmount = doTransferIn(pool.lpToken, msg.sender, amount);\n\t\tupdatePower(pool.base, int32(id), msg.sender, int256(transferedAmount));\n\t}\n\n\tfunction claimMainPool() external override returns (uint256) {\n\t\tAccountRecord storage record = mainPool.accountRecords[msg.sender];\n\t\tuint256 rewardIndex = mainPool.rewardIndex;\n\t\tuint256 total = rewardIndex.mul(record.power).add(record.settled).sub(record.mask);\n\t\thds.mint(msg.sender, total);\n\t\trecord.claimed = record.claimed.add(total);\n\t\trecord.settled = 0;\n\t\trecord.mask = rewardIndex.mul(record.power);\n\t\treturn total;\n\t}\n\n\tfunction claimLPPool(uint32 id) external override returns (uint256) {\n\t\treturn claimLPPoolInternal(id);\n\t}\n\n\tfunction exitLPPool(uint32 id, bool isClaim) external override {\n\t\tif (id >= lpPools.length) {\n\t\t\treturn;\n\t\t}\n\t\tLiquidityProviderPool storage pool = lpPools[id];\n\t\tuint256 amount = pool.base.accountRecords[msg.sender].power;\n\t\tif (amount > 0) {\n\t\t\tdoTransferOut(pool.lpToken, msg.sender, amount);\n\t\t}\n\t\tif (isClaim) {\n\t\t\tclaimLPPoolInternal(id);\n\t\t}\n\t}\n\n\tfunction getMainPoolMetadata() external override view returns (TokenPoolMeta memory) {\n\t\treturn\n\t\t\tTokenPoolMeta({\n\t\t\t\trewardIndex: mainPool.rewardIndex,\n\t\t\t\tlastBlockNumber: mainPool.lastBlockNumber,\n\t\t\t\taccumulatedPower: mainPool.accumulatedPower,\n\t\t\t\taccumulatedTokens: mainPool.accumulatedTokens,\n\t\t\t\ttotalPower: mainPool.totalPower\n\t\t\t});\n\t}\n\n\tfunction getAllLPPools() external override view returns (LiquidityProviderPoolMeta[] memory) {\n\t\tLiquidityProviderPoolMeta[] memory results = new LiquidityProviderPoolMeta[](lpPools.length);\n\t\tfor (uint256 i; i < results.length; i++) {\n\t\t\tLiquidityProviderPool memory pool = lpPools[i];\n\t\t\tTokenPool memory base = pool.base;\n\t\t\tresults[i] = LiquidityProviderPoolMeta({\n\t\t\t\tid: pool.id,\n\t\t\t\tlpToken: pool.lpToken,\n\t\t\t\tstartBlock: pool.startBlock,\n\t\t\t\tendBlock: pool.endBlock,\n\t\t\t\ttokensPerBlock: pool.tokensPerBlock,\n\t\t\t\trewardIndex: base.rewardIndex,\n\t\t\t\tlastBlockNumber: base.lastBlockNumber,\n\t\t\t\taccumulatedPower: base.accumulatedPower,\n\t\t\t\taccumulatedTokens: base.accumulatedTokens,\n\t\t\t\ttotalPower: base.totalPower\n\t\t\t});\n\t\t}\n\t\treturn results;\n\t}\n\n\tfunction getAccountRecordInPool(address account, int32 pool) external override view returns (AccountRecord memory) {\n\t\tif (pool == -1) {\n\t\t\treturn mainPool.accountRecords[account];\n\t\t}\n\t\tuint32 id = uint32(pool);\n\t\trequire(id < lpPools.length, \"pool id out of range\");\n\t\treturn lpPools[id].base.accountRecords[account];\n\t}\n\n\tfunction updatePower(\n\t\tTokenPool storage pool,\n\t\tint32 poolId,\n\t\taddress account,\n\t\tint256 power\n\t) internal {\n\t\tuint256 currentBlockNumber = getCurrentBlockNumber();\n\n\t\tif (pool.lastBlockNumber != currentBlockNumber) {\n\t\t\ttryHalving();\n\t\t\tpool.totalPower = safeAddUnsignedSigned(pool.totalPower, pool.accumulatedPower);\n\t\t\tuint256 newMinedTokens;\n\t\t\tif (poolId == MAIN_POOL_ID) {\n\t\t\t\t// Main pool\n\t\t\t\tnewMinedTokens = tokensMinedMainPool(pool.lastBlockNumber, currentBlockNumber);\n\t\t\t} else {\n\t\t\t\t// LP pool\n\t\t\t\tLiquidityProviderPool memory lpPool = lpPools[uint256(poolId)];\n\t\t\t\trequire(lpPool.lpToken != address(0), \"LP pool not exist\");\n\t\t\t\tnewMinedTokens = lpPool.tokensPerBlock.mul(currentBlockNumber - pool.lastBlockNumber);\n\t\t\t}\n\t\t\tif (pool.totalPower > 0) {\n\t\t\t\tuint256 totalTokens = pool.accumulatedTokens.add(newMinedTokens);\n\t\t\t\tpool.rewardIndex = pool.rewardIndex.add(totalTokens.div(pool.totalPower));\n\t\t\t\tpool.accumulatedTokens = 0;\n\t\t\t} else {\n\t\t\t\tpool.accumulatedTokens = pool.accumulatedTokens.add(newMinedTokens);\n\t\t\t}\n\t\t\tpool.lastBlockNumber = currentBlockNumber;\n\t\t\tpool.accumulatedPower = power;\n\t\t} else {\n\t\t\tpool.accumulatedPower = safeAddSigned(pool.accumulatedPower, power);\n\t\t}\n\n\t\tAccountRecord storage record = pool.accountRecords[account];\n\t\tif (power < 0) {\n\t\t\trecord.settled = record.settled.add(pool.rewardIndex.mul(record.power).sub(record.mask));\n\t\t\trecord.power = safeAddUnsignedSigned(record.power, power);\n\t\t\trecord.mask = pool.rewardIndex.mul(record.power);\n\t\t} else {\n\t\t\trecord.power = record.power.add(uint256(power));\n\t\t\trecord.mask = record.mask.add(pool.rewardIndex.mul(uint256(power)));\n\t\t}\n\t}\n\n\tfunction claimLPPoolInternal(uint32 id) internal returns (uint256) {\n\t\tif (id >= lpPools.length) {\n\t\t\treturn 0;\n\t\t}\n\t\tLiquidityProviderPool storage pool = lpPools[id];\n\t\tAccountRecord storage record = pool.base.accountRecords[msg.sender];\n\t\tuint256 rewardIndex = pool.base.rewardIndex;\n\t\tuint256 total = rewardIndex.mul(record.power).add(record.settled).sub(record.mask);\n\t\thds.mint(msg.sender, total);\n\t\trecord.claimed = record.claimed.add(total);\n\t\trecord.settled = 0;\n\t\trecord.mask = rewardIndex.mul(record.power);\n\t\treturn total;\n\t}\n\n\tfunction doTransferIn(\n\t\taddress addr,\n\t\taddress from,\n\t\tuint256 amount\n\t) internal returns (uint256) {\n\t\tEIP20NonStandardInterface token = EIP20NonStandardInterface(addr);\n\t\tuint256 balanceBefore = token.balanceOf(address(this));\n\t\ttoken.transferFrom(from, address(this), amount);\n\n\t\tbool success;\n\t\tassembly {\n\t\t\tswitch returndatasize()\n\t\t\t\tcase 0 {\n\t\t\t\t\t// This is a non-standard ERC-20\n\t\t\t\t\tsuccess := not(0) // set success to true\n\t\t\t\t}\n\t\t\t\tcase 32 {\n\t\t\t\t\t// This is a compliant ERC-20\n\t\t\t\t\treturndatacopy(0, 0, 32)\n\t\t\t\t\tsuccess := mload(0) // Set `success = returndata` of external call\n\t\t\t\t}\n\t\t\t\tdefault {\n\t\t\t\t\t// This is an excessively non-compliant ERC-20, revert.\n\t\t\t\t\trevert(0, 0)\n\t\t\t\t}\n\t\t}\n\t\trequire(success, \"TOKEN_TRANSFER_IN_FAILED\");\n\n\t\t// Calculate the amount that was *actually* transferred\n\t\tuint256 balanceAfter = token.balanceOf(address(this));\n\t\trequire(balanceAfter >= balanceBefore, \"TOKEN_TRANSFER_IN_OVERFLOW\");\n\t\treturn balanceAfter - balanceBefore; // underflow already checked above, just subtract\n\t}\n\n\tfunction doTransferOut(\n\t\taddress addr,\n\t\taddress payable to,\n\t\tuint256 amount\n\t) internal {\n\t\tEIP20NonStandardInterface token = EIP20NonStandardInterface(addr);\n\t\ttoken.transfer(to, amount);\n\n\t\tbool success;\n\t\tassembly {\n\t\t\tswitch returndatasize()\n\t\t\t\tcase 0 {\n\t\t\t\t\t// This is a non-standard ERC-20\n\t\t\t\t\tsuccess := not(0) // set success to true\n\t\t\t\t}\n\t\t\t\tcase 32 {\n\t\t\t\t\t// This is a complaint ERC-20\n\t\t\t\t\treturndatacopy(0, 0, 32)\n\t\t\t\t\tsuccess := mload(0) // Set `success = returndata` of external call\n\t\t\t\t}\n\t\t\t\tdefault {\n\t\t\t\t\t// This is an excessively non-compliant ERC-20, revert.\n\t\t\t\t\trevert(0, 0)\n\t\t\t\t}\n\t\t}\n\t\trequire(success, \"TOKEN_TRANSFER_OUT_FAILED\");\n\t}\n\n\tfunction tryHalving() internal {\n\t\tuint256 currentBlockNumber = getCurrentBlockNumber();\n\t\tif (currentBlockNumber >= nextHalvingBlock && mainPool.lastBlockNumber < nextHalvingBlock) {\n\t\t\trewardsPerBlock = rewardsPerBlock.div(2);\n\t\t\thalvingStartBlock = currentBlockNumber;\n\t\t\tnextHalvingBlock = halvingStartBlock.add(BLOCKS_PER_YEAR);\n\t\t}\n\t}\n\n\tfunction tokensMinedMainPool(uint256 startBlock, uint256 endBlock) internal view returns (uint256) {\n\t\treturn (endBlock - startBlock).mul(rewardsPerBlock);\n\t}\n\n\tfunction getCurrentBlockNumber() internal view returns (uint256) {\n\t\treturn block.number;\n\t}\n\n\tfunction valueToPower(uint256 value) internal pure returns (uint256) {\n\t\treturn value;\n\t}\n\n\tfunction valueToBorrowPower(uint256 value) internal pure returns (uint256) {\n\t\treturn value.mul(3).div(2);\n\t}\n\n\tfunction safeAddUnsignedSigned(uint256 current, int256 addend) internal pure returns (uint256) {\n\t\tif (addend >= 0) {\n\t\t\treturn current + uint256(addend);\n\t\t}\n\t\tuint256 result = current - uint256(-addend);\n\t\tif (result > current) {\n\t\t\treturn 0;\n\t\t}\n\t\treturn result;\n\t}\n\n\tfunction safeAddSigned(int256 a, int256 b) internal pure returns (int256) {\n\t\tint256 c = a + b;\n\t\tif (b < 0) {\n\t\t\trequire(c < a, \"HDSDistributor::safeAddSigned: addition overflow\");\n\t\t}\n\t\tif (b > 0) {\n\t\t\trequire(c > a, \"HDSDistributor::safeAddSigned: addition overflow\");\n\t\t}\n\t\treturn c;\n\t}\n}\n",
  "sourcePath": "/hades/evm-contracts/src/HDSDistributor.sol",
  "compiler": {
    "name": "solc",
    "version": "0.6.0+commit.26b70077.Emscripten.clang"
  },
  "schemaVersion": "3.2.4",
  "updatedAt": "2020-10-27T12:03:42.987Z",
  "networkType": "ethereum",
  "devdoc": {
    "methods": {}
  },
  "userdoc": {
    "methods": {}
  }
}