{
  "contractName": "HErc20Storage",
  "abi": [
    {
      "constant": true,
      "inputs": [],
      "name": "underlying",
      "outputs": [
        {
          "internalType": "address",
          "name": "",
          "type": "address"
        }
      ],
      "payable": false,
      "stateMutability": "view",
      "type": "function"
    }
  ],
  "bytecode": "0x608060405234801561001057600080fd5b5060cf8061001f6000396000f3fe6080604052348015600f57600080fd5b506004361060285760003560e01c80636f307dc314602d575b600080fd5b60336075565b604051808273ffffffffffffffffffffffffffffffffffffffff1673ffffffffffffffffffffffffffffffffffffffff16815260200191505060405180910390f35b6000809054906101000a900473ffffffffffffffffffffffffffffffffffffffff168156fea265627a7a72315820e8782da10b7fab0a0091868cf2321be9d1fef43cc15bef4c7275ed77e68f59be64736f6c63430005100032",
  "source": "pragma solidity ^0.5.16;\n\nimport \"./MarketControllerInterface.sol\";\nimport \"./InterestRateStrategyInterface.sol\";\n\ncontract HTokenStorage {\n    /**\n     * @dev Guard variable for re-entrancy checks\n     */\n    bool internal _notEntered;\n\n    /**\n     * @notice EIP-20 token name for this token\n     */\n    string public name;\n\n    /**\n     * @notice EIP-20 token symbol for this token\n     */\n    string public symbol;\n\n    /**\n     * @notice EIP-20 token decimals for this token\n     */\n    uint8 public decimals;\n\n    /**\n     * @notice Maximum borrow rate that can ever be applied (.0005% / block)\n     */\n\n    uint internal constant borrowRateMaxMantissa = 0.0005e16;\n\n    /**\n     * @notice Maximum fraction of interest that can be set aside for reserves\n     */\n    uint internal constant reserveFactorMaxMantissa = 1e18;\n\n    /**\n     * @notice Administrator for this contract\n     */\n    address payable public admin;\n\n    /**\n     * @notice Pending administrator for this contract\n     */\n    address payable public pendingAdmin;\n\n    /**\n     * @notice Contract which oversees inter-HToken operations\n     */\n    MarketControllerInterface public controller;\n\n    /**\n     * @notice Model which tells what the current interest rate should be\n     */\n    InterestRateStrategyInterface public interestRateStrategy;\n\n    /**\n     * @notice Initial exchange rate used when minting the first HTokens (used when totalSupply = 0)\n     */\n    uint internal initialExchangeRateMantissa;\n\n    /**\n     * @notice Fraction of interest currently set aside for reserves\n     */\n    uint public reserveFactorMantissa;\n\n    /**\n     * @notice Block number that interest was last accrued at\n     */\n    uint public accrualBlockNumber;\n\n    /**\n     * @notice Accumulator of the total earned interest rate since the opening of the market\n     */\n    uint public borrowIndex;\n\n    /**\n     * @notice Total amount of outstanding borrows of the underlying in this market\n     */\n    uint public totalBorrows;\n\n    /**\n     * @notice Total amount of reserves of the underlying held in this market\n     */\n    uint public totalReserves;\n\n    /**\n     * @notice Total number of tokens in circulation\n     */\n    uint public totalSupply;\n\n    /**\n     * @notice Official record of token balances for each account\n     */\n    mapping (address => uint) internal accountTokens;\n\n    /**\n     * @notice Approved token transfer amounts on behalf of others\n     */\n    mapping (address => mapping (address => uint)) internal transferAllowances;\n\n    /**\n     * @notice Container for borrow balance information\n     * @member principal Total balance (with accrued interest), after applying the most recent balance-changing action\n     * @member interestIndex Global borrowIndex as of the most recent balance-changing action\n     */\n    struct BorrowSnapshot {\n        uint principal;\n        uint interestIndex;\n    }\n\n    /**\n     * @notice Mapping of account addresses to outstanding borrow balances\n     */\n    mapping(address => BorrowSnapshot) internal accountBorrows;\n}\n\ncontract HTokenInterface is HTokenStorage {\n    /**\n     * @notice Indicator that this is a HToken contract (for inspection)\n     */\n    bool public constant isHToken = true;\n\n\n    /*** Market Events ***/\n\n    /**\n     * @notice Event emitted when interest is accrued\n     */\n    event AccrueInterest(uint cashPrior, uint interestAccumulated, uint borrowIndex, uint totalBorrows);\n\n    /**\n     * @notice Event emitted when tokens are minted\n     */\n    event Mint(address minter, uint mintAmount, uint mintTokens);\n\n    /**\n     * @notice Event emitted when tokens are redeemed\n     */\n    event Redeem(address redeemer, uint redeemAmount, uint redeemTokens);\n\n    /**\n     * @notice Event emitted when underlying is borrowed\n     */\n    event Borrow(address borrower, uint borrowAmount, uint accountBorrows, uint totalBorrows);\n\n    /**\n     * @notice Event emitted when a borrow is repaid\n     */\n    event RepayBorrow(address payer, address borrower, uint repayAmount, uint accountBorrows, uint totalBorrows);\n\n    /**\n     * @notice Event emitted when a borrow is liquidated\n     */\n    event LiquidateBorrow(address liquidator, address borrower, uint repayAmount, address HTokenCollateral, uint seizeTokens);\n\n\n    /*** Admin Events ***/\n\n    /**\n     * @notice Event emitted when pendingAdmin is changed\n     */\n    event NewPendingAdmin(address oldPendingAdmin, address newPendingAdmin);\n\n    /**\n     * @notice Event emitted when pendingAdmin is accepted, which means admin is updated\n     */\n    event NewAdmin(address oldAdmin, address newAdmin);\n\n    /**\n     * @notice Event emitted when controller is changed\n     */\n    event NewMarketController(MarketControllerInterface oldMarketController, MarketControllerInterface newMarketController);\n\n    /**\n     * @notice Event emitted when interestRateStrategy is changed\n     */\n    event NewMarketInterestRateStrategy(InterestRateStrategyInterface oldInterestRateStrategy, InterestRateStrategyInterface newInterestRateStrategy);\n\n    /**\n     * @notice Event emitted when the reserve factor is changed\n     */\n    event NewReserveFactor(uint oldReserveFactorMantissa, uint newReserveFactorMantissa);\n\n    /**\n     * @notice Event emitted when the reserves are added\n     */\n    event ReservesAdded(address benefactor, uint addAmount, uint newTotalReserves);\n\n    /**\n     * @notice Event emitted when the reserves are reduced\n     */\n    event ReservesReduced(address admin, uint reduceAmount, uint newTotalReserves);\n\n    /**\n     * @notice EIP20 Transfer event\n     */\n    event Transfer(address indexed from, address indexed to, uint amount);\n\n    /**\n     * @notice EIP20 Approval event\n     */\n    event Approval(address indexed owner, address indexed spender, uint amount);\n\n    /**\n     * @notice Failure event\n     */\n    event Failure(uint error, uint info, uint detail);\n\n\n    /*** User Interface ***/\n\n    function transfer(address dst, uint amount) external returns (bool);\n    function transferFrom(address src, address dst, uint amount) external returns (bool);\n    function approve(address spender, uint amount) external returns (bool);\n    function allowance(address owner, address spender) external view returns (uint);\n    function balanceOf(address owner) external view returns (uint);\n    function balanceOfUnderlying(address owner) external returns (uint);\n    function getAccountSnapshot(address account) external view returns (uint, uint, uint, uint);\n    function borrowRatePerBlock() external view returns (uint);\n    function supplyRatePerBlock() external view returns (uint);\n    function totalBorrowsCurrent() public view returns (uint);\n    function borrowBalanceCurrent(address account) public view returns (uint);\n    function borrowBalanceStored(address account) public view returns (uint);\n    function exchangeRateCurrent() public view returns (uint);\n    function exchangeRateStored() public view returns (uint);\n    function getCash() external view returns (uint);\n    function accrueInterest() public returns (uint);\n    function seize(address liquidator, address borrower, uint seizeTokens) external returns (uint);\n\n\n    /*** Admin Functions ***/\n\n    function _setReserveFactor(uint newReserveFactorMantissa) external returns (uint);\n    function _reduceReserves(uint reduceAmount) external returns (uint);\n}\n\ncontract HErc20Storage {\n    /**\n     * @notice Underlying asset for this HToken\n     */\n    address public underlying;\n}\n\ncontract HErc20Interface is HErc20Storage {\n\n    /*** User Interface ***/\n\n    function mint(uint mintAmount) external returns (uint);\n    function redeem(uint redeemTokens) external returns (uint);\n    function redeemUnderlying(uint redeemAmount) external returns (uint);\n    function borrow(uint borrowAmount) external returns (uint);\n    function repayBorrow(uint repayAmount) external returns (uint);\n    function repayBorrowBehalf(address borrower, uint repayAmount) external returns (uint);\n    function liquidateBorrow(address borrower, uint repayAmount, HTokenInterface HTokenCollateral) external returns (uint);\n\n\n    /*** Admin Functions ***/\n\n    function _addReserves(uint addAmount) external returns (uint);\n}",
  "sourcePath": "/home/sqf/workspace/defi/example/metacoin-box/contracts/interfaces/HTokenInterface.sol",
  "compiler": {
    "name": "solc",
    "version": "0.5.16+commit.9c3226ce.Emscripten.clang"
  },
  "schemaVersion": "3.2.4",
  "updatedAt": "2020-09-07T15:38:09.820Z",
  "devdoc": {
    "methods": {}
  },
  "userdoc": {
    "methods": {}
  }
}