{
  "contractName": "HErc20",
  "abi": [
    {
      "anonymous": false,
      "inputs": [
        {
          "indexed": false,
          "internalType": "uint256",
          "name": "cashPrior",
          "type": "uint256"
        },
        {
          "indexed": false,
          "internalType": "uint256",
          "name": "interestAccumulated",
          "type": "uint256"
        },
        {
          "indexed": false,
          "internalType": "uint256",
          "name": "borrowIndex",
          "type": "uint256"
        },
        {
          "indexed": false,
          "internalType": "uint256",
          "name": "totalBorrows",
          "type": "uint256"
        }
      ],
      "name": "AccrueInterest",
      "type": "event"
    },
    {
      "anonymous": false,
      "inputs": [
        {
          "indexed": true,
          "internalType": "address",
          "name": "owner",
          "type": "address"
        },
        {
          "indexed": true,
          "internalType": "address",
          "name": "spender",
          "type": "address"
        },
        {
          "indexed": false,
          "internalType": "uint256",
          "name": "amount",
          "type": "uint256"
        }
      ],
      "name": "Approval",
      "type": "event"
    },
    {
      "anonymous": false,
      "inputs": [
        {
          "indexed": false,
          "internalType": "address",
          "name": "borrower",
          "type": "address"
        },
        {
          "indexed": false,
          "internalType": "uint256",
          "name": "borrowAmount",
          "type": "uint256"
        },
        {
          "indexed": false,
          "internalType": "uint256",
          "name": "accountBorrows",
          "type": "uint256"
        },
        {
          "indexed": false,
          "internalType": "uint256",
          "name": "totalBorrows",
          "type": "uint256"
        }
      ],
      "name": "Borrow",
      "type": "event"
    },
    {
      "anonymous": false,
      "inputs": [
        {
          "indexed": false,
          "internalType": "uint256",
          "name": "error",
          "type": "uint256"
        },
        {
          "indexed": false,
          "internalType": "uint256",
          "name": "info",
          "type": "uint256"
        },
        {
          "indexed": false,
          "internalType": "uint256",
          "name": "detail",
          "type": "uint256"
        }
      ],
      "name": "Failure",
      "type": "event"
    },
    {
      "anonymous": false,
      "inputs": [
        {
          "indexed": false,
          "internalType": "address",
          "name": "liquidator",
          "type": "address"
        },
        {
          "indexed": false,
          "internalType": "address",
          "name": "borrower",
          "type": "address"
        },
        {
          "indexed": false,
          "internalType": "uint256",
          "name": "repayAmount",
          "type": "uint256"
        },
        {
          "indexed": false,
          "internalType": "address",
          "name": "HTokenCollateral",
          "type": "address"
        },
        {
          "indexed": false,
          "internalType": "uint256",
          "name": "seizeTokens",
          "type": "uint256"
        }
      ],
      "name": "LiquidateBorrow",
      "type": "event"
    },
    {
      "anonymous": false,
      "inputs": [
        {
          "indexed": false,
          "internalType": "address",
          "name": "minter",
          "type": "address"
        },
        {
          "indexed": false,
          "internalType": "uint256",
          "name": "mintAmount",
          "type": "uint256"
        },
        {
          "indexed": false,
          "internalType": "uint256",
          "name": "mintTokens",
          "type": "uint256"
        }
      ],
      "name": "Mint",
      "type": "event"
    },
    {
      "anonymous": false,
      "inputs": [
        {
          "indexed": false,
          "internalType": "address",
          "name": "oldAdmin",
          "type": "address"
        },
        {
          "indexed": false,
          "internalType": "address",
          "name": "newAdmin",
          "type": "address"
        }
      ],
      "name": "NewAdmin",
      "type": "event"
    },
    {
      "anonymous": false,
      "inputs": [
        {
          "indexed": false,
          "internalType": "contract MarketControllerInterface",
          "name": "oldMarketController",
          "type": "address"
        },
        {
          "indexed": false,
          "internalType": "contract MarketControllerInterface",
          "name": "newMarketController",
          "type": "address"
        }
      ],
      "name": "NewMarketController",
      "type": "event"
    },
    {
      "anonymous": false,
      "inputs": [
        {
          "indexed": false,
          "internalType": "contract InterestRateStrategyInterface",
          "name": "oldInterestRateStrategy",
          "type": "address"
        },
        {
          "indexed": false,
          "internalType": "contract InterestRateStrategyInterface",
          "name": "newInterestRateStrategy",
          "type": "address"
        }
      ],
      "name": "NewMarketInterestRateStrategy",
      "type": "event"
    },
    {
      "anonymous": false,
      "inputs": [
        {
          "indexed": false,
          "internalType": "address",
          "name": "oldPendingAdmin",
          "type": "address"
        },
        {
          "indexed": false,
          "internalType": "address",
          "name": "newPendingAdmin",
          "type": "address"
        }
      ],
      "name": "NewPendingAdmin",
      "type": "event"
    },
    {
      "anonymous": false,
      "inputs": [
        {
          "indexed": false,
          "internalType": "uint256",
          "name": "oldReserveFactorMantissa",
          "type": "uint256"
        },
        {
          "indexed": false,
          "internalType": "uint256",
          "name": "newReserveFactorMantissa",
          "type": "uint256"
        }
      ],
      "name": "NewReserveFactor",
      "type": "event"
    },
    {
      "anonymous": false,
      "inputs": [
        {
          "indexed": false,
          "internalType": "address",
          "name": "redeemer",
          "type": "address"
        },
        {
          "indexed": false,
          "internalType": "uint256",
          "name": "redeemAmount",
          "type": "uint256"
        },
        {
          "indexed": false,
          "internalType": "uint256",
          "name": "redeemTokens",
          "type": "uint256"
        }
      ],
      "name": "Redeem",
      "type": "event"
    },
    {
      "anonymous": false,
      "inputs": [
        {
          "indexed": false,
          "internalType": "address",
          "name": "payer",
          "type": "address"
        },
        {
          "indexed": false,
          "internalType": "address",
          "name": "borrower",
          "type": "address"
        },
        {
          "indexed": false,
          "internalType": "uint256",
          "name": "repayAmount",
          "type": "uint256"
        },
        {
          "indexed": false,
          "internalType": "uint256",
          "name": "accountBorrows",
          "type": "uint256"
        },
        {
          "indexed": false,
          "internalType": "uint256",
          "name": "totalBorrows",
          "type": "uint256"
        }
      ],
      "name": "RepayBorrow",
      "type": "event"
    },
    {
      "anonymous": false,
      "inputs": [
        {
          "indexed": false,
          "internalType": "address",
          "name": "benefactor",
          "type": "address"
        },
        {
          "indexed": false,
          "internalType": "uint256",
          "name": "addAmount",
          "type": "uint256"
        },
        {
          "indexed": false,
          "internalType": "uint256",
          "name": "newTotalReserves",
          "type": "uint256"
        }
      ],
      "name": "ReservesAdded",
      "type": "event"
    },
    {
      "anonymous": false,
      "inputs": [
        {
          "indexed": false,
          "internalType": "address",
          "name": "admin",
          "type": "address"
        },
        {
          "indexed": false,
          "internalType": "uint256",
          "name": "reduceAmount",
          "type": "uint256"
        },
        {
          "indexed": false,
          "internalType": "uint256",
          "name": "newTotalReserves",
          "type": "uint256"
        }
      ],
      "name": "ReservesReduced",
      "type": "event"
    },
    {
      "anonymous": false,
      "inputs": [
        {
          "indexed": true,
          "internalType": "address",
          "name": "from",
          "type": "address"
        },
        {
          "indexed": true,
          "internalType": "address",
          "name": "to",
          "type": "address"
        },
        {
          "indexed": false,
          "internalType": "uint256",
          "name": "amount",
          "type": "uint256"
        }
      ],
      "name": "Transfer",
      "type": "event"
    },
    {
      "inputs": [],
      "name": "_anchorSymbol",
      "outputs": [
        {
          "internalType": "string",
          "name": "",
          "type": "string"
        }
      ],
      "stateMutability": "view",
      "type": "function"
    },
    {
      "inputs": [
        {
          "internalType": "uint256",
          "name": "reduceAmount",
          "type": "uint256"
        }
      ],
      "name": "_reduceReserves",
      "outputs": [
        {
          "internalType": "uint256",
          "name": "",
          "type": "uint256"
        }
      ],
      "stateMutability": "nonpayable",
      "type": "function"
    },
    {
      "inputs": [
        {
          "internalType": "uint256",
          "name": "newReserveFactorMantissa",
          "type": "uint256"
        }
      ],
      "name": "_setReserveFactor",
      "outputs": [
        {
          "internalType": "uint256",
          "name": "",
          "type": "uint256"
        }
      ],
      "stateMutability": "nonpayable",
      "type": "function"
    },
    {
      "inputs": [],
      "name": "accrualBlockNumber",
      "outputs": [
        {
          "internalType": "uint256",
          "name": "",
          "type": "uint256"
        }
      ],
      "stateMutability": "view",
      "type": "function"
    },
    {
      "inputs": [],
      "name": "accrueInterest",
      "outputs": [
        {
          "internalType": "uint256",
          "name": "",
          "type": "uint256"
        }
      ],
      "stateMutability": "nonpayable",
      "type": "function"
    },
    {
      "inputs": [],
      "name": "admin",
      "outputs": [
        {
          "internalType": "address payable",
          "name": "",
          "type": "address"
        }
      ],
      "stateMutability": "view",
      "type": "function"
    },
    {
      "inputs": [
        {
          "internalType": "address",
          "name": "owner",
          "type": "address"
        },
        {
          "internalType": "address",
          "name": "spender",
          "type": "address"
        }
      ],
      "name": "allowance",
      "outputs": [
        {
          "internalType": "uint256",
          "name": "",
          "type": "uint256"
        }
      ],
      "stateMutability": "view",
      "type": "function"
    },
    {
      "inputs": [],
      "name": "anchorSymbol",
      "outputs": [
        {
          "internalType": "string",
          "name": "",
          "type": "string"
        }
      ],
      "stateMutability": "view",
      "type": "function"
    },
    {
      "inputs": [
        {
          "internalType": "address",
          "name": "spender",
          "type": "address"
        },
        {
          "internalType": "uint256",
          "name": "amount",
          "type": "uint256"
        }
      ],
      "name": "approve",
      "outputs": [
        {
          "internalType": "bool",
          "name": "",
          "type": "bool"
        }
      ],
      "stateMutability": "nonpayable",
      "type": "function"
    },
    {
      "inputs": [
        {
          "internalType": "address",
          "name": "owner",
          "type": "address"
        }
      ],
      "name": "balanceOf",
      "outputs": [
        {
          "internalType": "uint256",
          "name": "",
          "type": "uint256"
        }
      ],
      "stateMutability": "view",
      "type": "function"
    },
    {
      "inputs": [
        {
          "internalType": "address",
          "name": "owner",
          "type": "address"
        }
      ],
      "name": "balanceOfUnderlying",
      "outputs": [
        {
          "internalType": "uint256",
          "name": "",
          "type": "uint256"
        }
      ],
      "stateMutability": "nonpayable",
      "type": "function"
    },
    {
      "inputs": [
        {
          "internalType": "address",
          "name": "account",
          "type": "address"
        }
      ],
      "name": "borrowBalanceCurrent",
      "outputs": [
        {
          "internalType": "uint256",
          "name": "",
          "type": "uint256"
        }
      ],
      "stateMutability": "view",
      "type": "function"
    },
    {
      "inputs": [],
      "name": "borrowIndex",
      "outputs": [
        {
          "internalType": "uint256",
          "name": "",
          "type": "uint256"
        }
      ],
      "stateMutability": "view",
      "type": "function"
    },
    {
      "inputs": [],
      "name": "borrowRatePerBlock",
      "outputs": [
        {
          "internalType": "uint256",
          "name": "",
          "type": "uint256"
        }
      ],
      "stateMutability": "view",
      "type": "function"
    },
    {
      "inputs": [],
      "name": "controller",
      "outputs": [
        {
          "internalType": "contract MarketControllerInterface",
          "name": "",
          "type": "address"
        }
      ],
      "stateMutability": "view",
      "type": "function"
    },
    {
      "inputs": [],
      "name": "decimals",
      "outputs": [
        {
          "internalType": "uint8",
          "name": "",
          "type": "uint8"
        }
      ],
      "stateMutability": "view",
      "type": "function"
    },
    {
      "inputs": [],
      "name": "exchangeRateCurrent",
      "outputs": [
        {
          "internalType": "uint256",
          "name": "",
          "type": "uint256"
        }
      ],
      "stateMutability": "view",
      "type": "function"
    },
    {
      "inputs": [],
      "name": "exchangeRateStored",
      "outputs": [
        {
          "internalType": "uint256",
          "name": "",
          "type": "uint256"
        }
      ],
      "stateMutability": "view",
      "type": "function"
    },
    {
      "inputs": [
        {
          "internalType": "address",
          "name": "account",
          "type": "address"
        }
      ],
      "name": "getAccountSnapshot",
      "outputs": [
        {
          "internalType": "uint256",
          "name": "",
          "type": "uint256"
        },
        {
          "internalType": "uint256",
          "name": "",
          "type": "uint256"
        },
        {
          "internalType": "uint256",
          "name": "",
          "type": "uint256"
        },
        {
          "internalType": "uint256",
          "name": "",
          "type": "uint256"
        }
      ],
      "stateMutability": "view",
      "type": "function"
    },
    {
      "inputs": [],
      "name": "getAccrualBlockNumber",
      "outputs": [
        {
          "internalType": "uint256",
          "name": "",
          "type": "uint256"
        }
      ],
      "stateMutability": "view",
      "type": "function"
    },
    {
      "inputs": [],
      "name": "getCash",
      "outputs": [
        {
          "internalType": "uint256",
          "name": "",
          "type": "uint256"
        }
      ],
      "stateMutability": "view",
      "type": "function"
    },
    {
      "inputs": [],
      "name": "initialExchangeRateMantissa",
      "outputs": [
        {
          "internalType": "uint256",
          "name": "",
          "type": "uint256"
        }
      ],
      "stateMutability": "view",
      "type": "function"
    },
    {
      "inputs": [],
      "name": "interestRateStrategy",
      "outputs": [
        {
          "internalType": "contract InterestRateStrategyInterface",
          "name": "",
          "type": "address"
        }
      ],
      "stateMutability": "view",
      "type": "function"
    },
    {
      "inputs": [],
      "name": "name",
      "outputs": [
        {
          "internalType": "string",
          "name": "",
          "type": "string"
        }
      ],
      "stateMutability": "view",
      "type": "function"
    },
    {
      "inputs": [],
      "name": "pendingAdmin",
      "outputs": [
        {
          "internalType": "address payable",
          "name": "",
          "type": "address"
        }
      ],
      "stateMutability": "view",
      "type": "function"
    },
    {
      "inputs": [],
      "name": "reserveFactorMantissa",
      "outputs": [
        {
          "internalType": "uint256",
          "name": "",
          "type": "uint256"
        }
      ],
      "stateMutability": "view",
      "type": "function"
    },
    {
      "inputs": [
        {
          "internalType": "address",
          "name": "liquidator",
          "type": "address"
        },
        {
          "internalType": "address",
          "name": "borrower",
          "type": "address"
        },
        {
          "internalType": "uint256",
          "name": "seizeTokens",
          "type": "uint256"
        }
      ],
      "name": "seize",
      "outputs": [
        {
          "internalType": "uint256",
          "name": "",
          "type": "uint256"
        }
      ],
      "stateMutability": "nonpayable",
      "type": "function"
    },
    {
      "inputs": [],
      "name": "supplyRatePerBlock",
      "outputs": [
        {
          "internalType": "uint256",
          "name": "",
          "type": "uint256"
        }
      ],
      "stateMutability": "view",
      "type": "function"
    },
    {
      "inputs": [],
      "name": "symbol",
      "outputs": [
        {
          "internalType": "string",
          "name": "",
          "type": "string"
        }
      ],
      "stateMutability": "view",
      "type": "function"
    },
    {
      "inputs": [],
      "name": "totalBorrows",
      "outputs": [
        {
          "internalType": "uint256",
          "name": "",
          "type": "uint256"
        }
      ],
      "stateMutability": "view",
      "type": "function"
    },
    {
      "inputs": [],
      "name": "totalBorrowsCurrent",
      "outputs": [
        {
          "internalType": "uint256",
          "name": "",
          "type": "uint256"
        }
      ],
      "stateMutability": "view",
      "type": "function"
    },
    {
      "inputs": [],
      "name": "totalReserves",
      "outputs": [
        {
          "internalType": "uint256",
          "name": "",
          "type": "uint256"
        }
      ],
      "stateMutability": "view",
      "type": "function"
    },
    {
      "inputs": [],
      "name": "totalSupply",
      "outputs": [
        {
          "internalType": "uint256",
          "name": "",
          "type": "uint256"
        }
      ],
      "stateMutability": "view",
      "type": "function"
    },
    {
      "inputs": [
        {
          "internalType": "address",
          "name": "dst",
          "type": "address"
        },
        {
          "internalType": "uint256",
          "name": "amount",
          "type": "uint256"
        }
      ],
      "name": "transfer",
      "outputs": [
        {
          "internalType": "bool",
          "name": "",
          "type": "bool"
        }
      ],
      "stateMutability": "nonpayable",
      "type": "function"
    },
    {
      "inputs": [
        {
          "internalType": "address",
          "name": "src",
          "type": "address"
        },
        {
          "internalType": "address",
          "name": "dst",
          "type": "address"
        },
        {
          "internalType": "uint256",
          "name": "amount",
          "type": "uint256"
        }
      ],
      "name": "transferFrom",
      "outputs": [
        {
          "internalType": "bool",
          "name": "",
          "type": "bool"
        }
      ],
      "stateMutability": "nonpayable",
      "type": "function"
    },
    {
      "inputs": [],
      "name": "underlying",
      "outputs": [
        {
          "internalType": "address",
          "name": "",
          "type": "address"
        }
      ],
      "stateMutability": "view",
      "type": "function"
    },
    {
      "inputs": [
        {
          "internalType": "address payable",
          "name": "_admin",
          "type": "address"
        },
        {
          "internalType": "address",
          "name": "_underlying",
          "type": "address"
        },
        {
          "internalType": "contract MarketControllerInterface",
          "name": "_controller",
          "type": "address"
        },
        {
          "internalType": "contract InterestRateStrategyInterface",
          "name": "_interestRateStrategy",
          "type": "address"
        },
        {
          "internalType": "contract DistributorInterface",
          "name": "_distributor",
          "type": "address"
        },
        {
          "internalType": "string",
          "name": "_name",
          "type": "string"
        },
        {
          "internalType": "string",
          "name": "_symbol",
          "type": "string"
        },
        {
          "internalType": "string",
          "name": "_anchorSymbol",
          "type": "string"
        }
      ],
      "name": "initialize",
      "outputs": [],
      "stateMutability": "nonpayable",
      "type": "function"
    },
    {
      "inputs": [
        {
          "internalType": "address payable",
          "name": "_admin",
          "type": "address"
        },
        {
          "internalType": "contract MarketControllerInterface",
          "name": "_controller",
          "type": "address"
        },
        {
          "internalType": "contract InterestRateStrategyInterface",
          "name": "_interestRateStrategy",
          "type": "address"
        },
        {
          "internalType": "contract DistributorInterface",
          "name": "_distributor",
          "type": "address"
        },
        {
          "internalType": "string",
          "name": "_name",
          "type": "string"
        },
        {
          "internalType": "string",
          "name": "_symbol",
          "type": "string"
        },
        {
          "internalType": "string",
          "name": "_anchor",
          "type": "string"
        }
      ],
      "name": "initialize",
      "outputs": [],
      "stateMutability": "nonpayable",
      "type": "function"
    },
    {
      "inputs": [
        {
          "internalType": "uint256",
          "name": "mintAmount",
          "type": "uint256"
        }
      ],
      "name": "mint",
      "outputs": [
        {
          "internalType": "uint256",
          "name": "",
          "type": "uint256"
        }
      ],
      "stateMutability": "nonpayable",
      "type": "function"
    },
    {
      "inputs": [
        {
          "internalType": "uint256",
          "name": "redeemTokens",
          "type": "uint256"
        }
      ],
      "name": "redeem",
      "outputs": [
        {
          "internalType": "uint256",
          "name": "",
          "type": "uint256"
        }
      ],
      "stateMutability": "nonpayable",
      "type": "function"
    },
    {
      "inputs": [
        {
          "internalType": "uint256",
          "name": "redeemAmount",
          "type": "uint256"
        }
      ],
      "name": "redeemUnderlying",
      "outputs": [
        {
          "internalType": "uint256",
          "name": "",
          "type": "uint256"
        }
      ],
      "stateMutability": "nonpayable",
      "type": "function"
    },
    {
      "inputs": [
        {
          "internalType": "uint256",
          "name": "borrowAmount",
          "type": "uint256"
        }
      ],
      "name": "borrow",
      "outputs": [
        {
          "internalType": "uint256",
          "name": "",
          "type": "uint256"
        }
      ],
      "stateMutability": "nonpayable",
      "type": "function"
    },
    {
      "inputs": [
        {
          "internalType": "uint256",
          "name": "repayAmount",
          "type": "uint256"
        }
      ],
      "name": "repayBorrow",
      "outputs": [
        {
          "internalType": "uint256",
          "name": "",
          "type": "uint256"
        }
      ],
      "stateMutability": "nonpayable",
      "type": "function"
    },
    {
      "inputs": [
        {
          "internalType": "address",
          "name": "borrower",
          "type": "address"
        },
        {
          "internalType": "uint256",
          "name": "repayAmount",
          "type": "uint256"
        }
      ],
      "name": "repayBorrowBehalf",
      "outputs": [
        {
          "internalType": "uint256",
          "name": "",
          "type": "uint256"
        }
      ],
      "stateMutability": "nonpayable",
      "type": "function"
    },
    {
      "inputs": [
        {
          "internalType": "address",
          "name": "borrower",
          "type": "address"
        },
        {
          "internalType": "uint256",
          "name": "repayAmount",
          "type": "uint256"
        },
        {
          "internalType": "contract HTokenInterface",
          "name": "hTokenCollateral",
          "type": "address"
        }
      ],
      "name": "liquidateBorrow",
      "outputs": [
        {
          "internalType": "uint256",
          "name": "",
          "type": "uint256"
        }
      ],
      "stateMutability": "nonpayable",
      "type": "function"
    },
    {
      "inputs": [
        {
          "internalType": "uint256",
          "name": "addAmount",
          "type": "uint256"
        }
      ],
      "name": "_addReserves",
      "outputs": [
        {
          "internalType": "uint256",
          "name": "",
          "type": "uint256"
        }
      ],
      "stateMutability": "nonpayable",
      "type": "function"
    },
    {
      "inputs": [
        {
          "internalType": "uint256",
          "name": "amount",
          "type": "uint256"
        }
      ],
      "name": "_mintDOL",
      "outputs": [
        {
          "internalType": "uint256",
          "name": "",
          "type": "uint256"
        }
      ],
      "stateMutability": "nonpayable",
      "type": "function"
    },
    {
      "inputs": [
        {
          "internalType": "uint256",
          "name": "amount",
          "type": "uint256"
        }
      ],
      "name": "_redeemDOL",
      "outputs": [
        {
          "internalType": "uint256",
          "name": "",
          "type": "uint256"
        }
      ],
      "stateMutability": "nonpayable",
      "type": "function"
    }
  ],
  "bytecode": "0x60806040523480156200001157600080fd5b506198ee80620000226000396000f3fe608060405234801561001057600080fd5b50600436106102a05760003560e01c806370a0823111610167578063b2a02ff1116100ce578063dd62ed3e11610087578063dd62ed3e14611181578063f5e3c462146111f9578063f77c47911461127b578063f851a440146112c5578063f8f9da281461130f578063fca7820b1461132d576102a0565b8063b2a02ff114610fae578063bd6d894d14611030578063bea085581461104e578063c37f68e214611090578063c5ebeaec146110fd578063db006a751461113f576102a0565b8063991754d211610120578063991754d214610e8e578063a0712d6814610eac578063a6afed9514610eee578063a9059cbb14610f0c578063aa5af0fd14610f72578063ae9d70b014610f90576102a0565b806370a0823114610cb257806373acee9814610d0a578063852a12e314610d285780638f840ddd14610d6a57806392e6077f14610d8857806395d89b4114610e0b576102a0565b80633af9e6691161020b578063504cb8fa116101c4578063504cb8fa146108fe5780635196318914610b67578063601a0bf114610bea578063675d972c14610c2c5780636c540baf14610c4a5780636f307dc314610c68576102a0565b80633af9e6691461079c5780633b1d21a2146107f45780633e074608146108125780633e9410101461085c57806347bd37181461089e5780634d183e01146108bc576102a0565b8063182df0f51161025d578063182df0f5146104645780631b9372101461048257806323b872dd146106465780632608f818146106cc578063267822471461072e578063313ce56714610778576102a0565b806306fdde03146102a5578063095ea7b3146103285780630e7527021461038e578063173b9904146103d057806317bfdfbc146103ee57806318160ddd14610446575b600080fd5b6102ad61136f565b6040518080602001828103825283818151815260200191508051906020019080838360005b838110156102ed5780820151818401526020810190506102d2565b50505050905090810190601f16801561031a5780820380516001836020036101000a031916815260200191505b509250505060405180910390f35b6103746004803603604081101561033e57600080fd5b81019080803573ffffffffffffffffffffffffffffffffffffffff1690602001909291908035906020019092919050505061140d565b604051808215151515815260200191505060405180910390f35b6103ba600480360360208110156103a457600080fd5b8101908080359060200190929190505050611504565b6040518082815260200191505060405180910390f35b6103d861151c565b6040518082815260200191505060405180910390f35b6104306004803603602081101561040457600080fd5b81019080803573ffffffffffffffffffffffffffffffffffffffff169060200190929190505050611522565b6040518082815260200191505060405180910390f35b61044e611534565b6040518082815260200191505060405180910390f35b61046c61153a565b6040518082815260200191505060405180910390f35b610644600480360361010081101561049957600080fd5b81019080803573ffffffffffffffffffffffffffffffffffffffff169060200190929190803573ffffffffffffffffffffffffffffffffffffffff169060200190929190803573ffffffffffffffffffffffffffffffffffffffff169060200190929190803573ffffffffffffffffffffffffffffffffffffffff169060200190929190803573ffffffffffffffffffffffffffffffffffffffff1690602001909291908035906020019064010000000081111561055657600080fd5b82018360208201111561056857600080fd5b8035906020019184600183028401116401000000008311171561058a57600080fd5b9091929391929390803590602001906401000000008111156105ab57600080fd5b8201836020820111156105bd57600080fd5b803590602001918460018302840111640100000000831117156105df57600080fd5b90919293919293908035906020019064010000000081111561060057600080fd5b82018360208201111561061257600080fd5b8035906020019184600183028401116401000000008311171561063457600080fd5b90919293919293905050506115c2565b005b6106b26004803603606081101561065c57600080fd5b81019080803573ffffffffffffffffffffffffffffffffffffffff169060200190929190803573ffffffffffffffffffffffffffffffffffffffff1690602001909291908035906020019092919050505061178f565b604051808215151515815260200191505060405180910390f35b610718600480360360408110156106e257600080fd5b81019080803573ffffffffffffffffffffffffffffffffffffffff16906020019092919080359060200190929190505050611869565b6040518082815260200191505060405180910390f35b610736611883565b604051808273ffffffffffffffffffffffffffffffffffffffff1673ffffffffffffffffffffffffffffffffffffffff16815260200191505060405180910390f35b6107806118a9565b604051808260ff1660ff16815260200191505060405180910390f35b6107de600480360360208110156107b257600080fd5b81019080803573ffffffffffffffffffffffffffffffffffffffff1690602001909291905050506118bc565b6040518082815260200191505060405180910390f35b6107fc6119c5565b6040518082815260200191505060405180910390f35b61081a6119d4565b604051808273ffffffffffffffffffffffffffffffffffffffff1673ffffffffffffffffffffffffffffffffffffffff16815260200191505060405180910390f35b6108886004803603602081101561087257600080fd5b81019080803590602001909291905050506119fa565b6040518082815260200191505060405180910390f35b6108a6611a0c565b6040518082815260200191505060405180910390f35b6108e8600480360360208110156108d257600080fd5b8101908080359060200190929190505050611a12565b6040518082815260200191505060405180910390f35b610b65600480360360e081101561091457600080fd5b81019080803573ffffffffffffffffffffffffffffffffffffffff169060200190929190803573ffffffffffffffffffffffffffffffffffffffff169060200190929190803573ffffffffffffffffffffffffffffffffffffffff169060200190929190803573ffffffffffffffffffffffffffffffffffffffff169060200190929190803590602001906401000000008111156109b157600080fd5b8201836020820111156109c357600080fd5b803590602001918460018302840111640100000000831117156109e557600080fd5b91908080601f016020809104026020016040519081016040528093929190818152602001838380828437600081840152601f19601f82011690508083019250505050505050919291929080359060200190640100000000811115610a4857600080fd5b820183602082011115610a5a57600080fd5b80359060200191846001830284011164010000000083111715610a7c57600080fd5b91908080601f016020809104026020016040519081016040528093929190818152602001838380828437600081840152601f19601f82011690508083019250505050505050919291929080359060200190640100000000811115610adf57600080fd5b820183602082011115610af157600080fd5b80359060200191846001830284011164010000000083111715610b1357600080fd5b91908080601f016020809104026020016040519081016040528093929190818152602001838380828437600081840152601f19601f820116905080830192505050505050509192919290505050612146565b005b610b6f6123cd565b6040518080602001828103825283818151815260200191508051906020019080838360005b83811015610baf578082015181840152602081019050610b94565b50505050905090810190601f168015610bdc5780820380516001836020036101000a031916815260200191505b509250505060405180910390f35b610c1660048036036020811015610c0057600080fd5b810190808035906020019092919050505061246b565b6040518082815260200191505060405180910390f35b610c34612571565b6040518082815260200191505060405180910390f35b610c52612577565b6040518082815260200191505060405180910390f35b610c7061257d565b604051808273ffffffffffffffffffffffffffffffffffffffff1673ffffffffffffffffffffffffffffffffffffffff16815260200191505060405180910390f35b610cf460048036036020811015610cc857600080fd5b81019080803573ffffffffffffffffffffffffffffffffffffffff1690602001909291905050506125a3565b6040518082815260200191505060405180910390f35b610d126125ec565b6040518082815260200191505060405180910390f35b610d5460048036036020811015610d3e57600080fd5b81019080803590602001909291905050506125f6565b6040518082815260200191505060405180910390f35b610d72612608565b6040518082815260200191505060405180910390f35b610d9061260e565b6040518080602001828103825283818151815260200191508051906020019080838360005b83811015610dd0578082015181840152602081019050610db5565b50505050905090810190601f168015610dfd5780820380516001836020036101000a031916815260200191505b509250505060405180910390f35b610e136126b0565b6040518080602001828103825283818151815260200191508051906020019080838360005b83811015610e53578082015181840152602081019050610e38565b50505050905090810190601f168015610e805780820380516001836020036101000a031916815260200191505b509250505060405180910390f35b610e9661274e565b6040518082815260200191505060405180910390f35b610ed860048036036020811015610ec257600080fd5b8101908080359060200190929190505050612758565b6040518082815260200191505060405180910390f35b610ef6612770565b6040518082815260200191505060405180910390f35b610f5860048036036040811015610f2257600080fd5b81019080803573ffffffffffffffffffffffffffffffffffffffff1690602001909291908035906020019092919050505061277f565b604051808215151515815260200191505060405180910390f35b610f7a612858565b6040518082815260200191505060405180910390f35b610f9861285e565b6040518082815260200191505060405180910390f35b61101a60048036036060811015610fc457600080fd5b81019080803573ffffffffffffffffffffffffffffffffffffffff169060200190929190803573ffffffffffffffffffffffffffffffffffffffff16906020019092919080359060200190929190505050612938565b6040518082815260200191505060405180910390f35b611038612a04565b6040518082815260200191505060405180910390f35b61107a6004803603602081101561106457600080fd5b8101908080359060200190929190505050612a13565b6040518082815260200191505060405180910390f35b6110d2600480360360208110156110a657600080fd5b81019080803573ffffffffffffffffffffffffffffffffffffffff1690602001909291905050506131bd565b6040518085815260200184815260200183815260200182815260200194505050505060405180910390f35b6111296004803603602081101561111357600080fd5b81019080803590602001909291905050506132e5565b6040518082815260200191505060405180910390f35b61116b6004803603602081101561115557600080fd5b81019080803590602001909291905050506132f7565b6040518082815260200191505060405180910390f35b6111e36004803603604081101561119757600080fd5b81019080803573ffffffffffffffffffffffffffffffffffffffff169060200190929190803573ffffffffffffffffffffffffffffffffffffffff169060200190929190505050613309565b6040518082815260200191505060405180910390f35b6112656004803603606081101561120f57600080fd5b81019080803573ffffffffffffffffffffffffffffffffffffffff16906020019092919080359060200190929190803573ffffffffffffffffffffffffffffffffffffffff169060200190929190505050613390565b6040518082815260200191505060405180910390f35b6112836133ac565b604051808273ffffffffffffffffffffffffffffffffffffffff1673ffffffffffffffffffffffffffffffffffffffff16815260200191505060405180910390f35b6112cd6133d2565b604051808273ffffffffffffffffffffffffffffffffffffffff1673ffffffffffffffffffffffffffffffffffffffff16815260200191505060405180910390f35b6113176133f8565b6040518082815260200191505060405180910390f35b6113596004803603602081101561134357600080fd5b81019080803590602001909291905050506134c8565b6040518082815260200191505060405180910390f35b60018054600181600116156101000203166002900480601f0160208091040260200160405190810160405280929190818152602001828054600181600116156101000203166002900480156114055780601f106113da57610100808354040283529160200191611405565b820191906000526020600020905b8154815290600101906020018083116113e857829003601f168201915b505050505081565b60008033905082601160008373ffffffffffffffffffffffffffffffffffffffff1673ffffffffffffffffffffffffffffffffffffffff16815260200190815260200160002060008673ffffffffffffffffffffffffffffffffffffffff1673ffffffffffffffffffffffffffffffffffffffff168152602001908152602001600020819055508373ffffffffffffffffffffffffffffffffffffffff168173ffffffffffffffffffffffffffffffffffffffff167f8c5be1e5ebec7d5bd14f71427d1e84f3dd0314c0f7b2291e5b200ac8c7c3b925856040518082815260200191505060405180910390a3600191505092915050565b600080611510836135ce565b50905080915050919050565b600a5481565b600061152d826136e0565b9050919050565b600f5481565b600080600061154761376b565b915091506000600381111561155857fe5b82600381111561156457fe5b146115ba576040517f08c379a00000000000000000000000000000000000000000000000000000000081526004018080602001828103825260358152602001806198046035913960400191505060405180910390fd5b809250505090565b61169d8b8a8a8a8a8a8080601f016020809104026020016040519081016040528093929190818152602001838380828437600081840152601f19601f8201169050808301925050505050505089898080601f016020809104026020016040519081016040528093929190818152602001838380828437600081840152601f19601f8201169050808301925050505050505088888080601f016020809104026020016040519081016040528093929190818152602001838380828437600081840152601f19601f82011690508083019250505050505050612146565b89601460006101000a81548173ffffffffffffffffffffffffffffffffffffffff021916908373ffffffffffffffffffffffffffffffffffffffff160217905550601460009054906101000a900473ffffffffffffffffffffffffffffffffffffffff1673ffffffffffffffffffffffffffffffffffffffff166318160ddd6040518163ffffffff1660e01b815260040160206040518083038186803b15801561174657600080fd5b505afa15801561175a573d6000803e3d6000fd5b505050506040513d602081101561177057600080fd5b8101908080519060200190929190505050505050505050505050505050565b60008060009054906101000a900460ff16611812576040517f08c379a000000000000000000000000000000000000000000000000000000000815260040180806020018281038252600a8152602001807f72652d656e74657265640000000000000000000000000000000000000000000081525060200191505060405180910390fd5b60008060006101000a81548160ff0219169083151502179055506000601081111561183957fe5b61184533868686613847565b14905060016000806101000a81548160ff0219169083151502179055509392505050565b6000806118768484614245565b5090508091505092915050565b600660009054906101000a900473ffffffffffffffffffffffffffffffffffffffff1681565b600360009054906101000a900460ff1681565b60006118c661947e565b60405180602001604052806118d961153a565b815250905060008061192a83601060008873ffffffffffffffffffffffffffffffffffffffff1673ffffffffffffffffffffffffffffffffffffffff16815260200190815260200160002054614359565b915091506000600381111561193b57fe5b82600381111561194757fe5b146119ba576040517f08c379a000000000000000000000000000000000000000000000000000000000815260040180806020018281038252601f8152602001807f62616c616e636520636f756c64206e6f742062652063616c63756c617465640081525060200191505060405180910390fd5b809350505050919050565b60006119cf6143bc565b905090565b600860009054906101000a900473ffffffffffffffffffffffffffffffffffffffff1681565b6000611a05826144a2565b9050919050565b600d5481565b6000600760009054906101000a900473ffffffffffffffffffffffffffffffffffffffff1673ffffffffffffffffffffffffffffffffffffffff163373ffffffffffffffffffffffffffffffffffffffff1614611ad7576040517f08c379a00000000000000000000000000000000000000000000000000000000081526004018080602001828103825260208152602001807f6f6e6c792061646d696e2063616e2072656475636520444f4c20737570706c7981525060200191505060405180910390fd5b611bb060028054600181600116156101000203166002900480601f016020809104026020016040519081016040528092919081815260200182805460018160011615610100020316600290048015611b705780601f10611b4557610100808354040283529160200191611b70565b820191906000526020600020905b815481529060010190602001808311611b5357829003601f168201915b50505050506040518060400160405280600481526020017f68444f4c000000000000000000000000000000000000000000000000000000008152506145ae565b611c05576040517f08c379a00000000000000000000000000000000000000000000000000000000081526004018080602001828103825260238152602001806197bd6023913960400191505060405180910390fd5b6000611c0f614684565b905060006010811115611c1e57fe5b8114611c4257611c3a816010811115611c3357fe5b601e614b3d565b915050612141565b611c4a614bb1565b600b5414611c6657611c5e600a6022614b3d565b915050612141565b611c6e619491565b611c7661376b565b826020018360400182815250826003811115611c8e57fe5b6003811115611c9957fe5b815250505060006003811115611cab57fe5b81602001516003811115611cbb57fe5b14611ce557611cdc6009602b83602001516003811115611cd757fe5b614bb9565b92505050612141565b611d018460405180602001604052808460400151815250614c2d565b826020018360600182815250826003811115611d1957fe5b6003811115611d2457fe5b815250505060006003811115611d3657fe5b81602001516003811115611d4657fe5b14611d7057611d676009602a83602001516003811115611d6257fe5b614bb9565b92505050612141565b83816080018181525050611d8a600f548260600151614c90565b826020018360a00182815250826003811115611da257fe5b6003811115611dad57fe5b815250505060006003811115611dbf57fe5b81602001516003811115611dcf57fe5b14611df957611df06009602e83602001516003811115611deb57fe5b614bb9565b92505050612141565b6000339050611e4b601060008373ffffffffffffffffffffffffffffffffffffffff1673ffffffffffffffffffffffffffffffffffffffff168152602001908152602001600020548360600151614c90565b836020018460c00182815250826003811115611e6357fe5b6003811115611e6e57fe5b815250505060006003811115611e8057fe5b82602001516003811115611e9057fe5b14611ebb57611eb16009602d84602001516003811115611eac57fe5b614bb9565b9350505050612141565b8160800151611ec86143bc565b1015611ee457611eda600e602f614b3d565b9350505050612141565b611ef2818360800151614cbb565b8160a00151600f819055508160c00151601060008373ffffffffffffffffffffffffffffffffffffffff1673ffffffffffffffffffffffffffffffffffffffff168152602001908152602001600020819055503073ffffffffffffffffffffffffffffffffffffffff168173ffffffffffffffffffffffffffffffffffffffff167fddf252ad1be2c89b69c2b068fc378daa952ba7f163c4a11628f55a4df523b3ef84606001516040518082815260200191505060405180910390a37fe5b754fb1abb7f01b499791d0b820ae3b6af3424ac1c59768edb53f4ec31a9298183608001518460600151604051808473ffffffffffffffffffffffffffffffffffffffff1673ffffffffffffffffffffffffffffffffffffffff168152602001838152602001828152602001935050505060405180910390a1600760009054906101000a900473ffffffffffffffffffffffffffffffffffffffff1673ffffffffffffffffffffffffffffffffffffffff166351dff9893083856060015186608001516040518563ffffffff1660e01b8152600401808573ffffffffffffffffffffffffffffffffffffffff1673ffffffffffffffffffffffffffffffffffffffff1681526020018473ffffffffffffffffffffffffffffffffffffffff1673ffffffffffffffffffffffffffffffffffffffff168152602001838152602001828152602001945050505050600060405180830381600087803b15801561211657600080fd5b505af115801561212a573d6000803e3d6000fd5b505050506000601081111561213b57fe5b93505050505b919050565b6000600b5414801561215a57506000600c54145b6121af576040517f08c379a000000000000000000000000000000000000000000000000000000000815260040180806020018281038252602381526020018061966b6023913960400191505060405180910390fd5b670de0b6b3a764000060098190555067016345785d8a0000600a8190555086600560006101000a81548173ffffffffffffffffffffffffffffffffffffffff021916908373ffffffffffffffffffffffffffffffffffffffff16021790555085600760006101000a81548173ffffffffffffffffffffffffffffffffffffffff021916908373ffffffffffffffffffffffffffffffffffffffff16021790555083601360006101000a81548173ffffffffffffffffffffffffffffffffffffffff021916908373ffffffffffffffffffffffffffffffffffffffff160217905550612298614bb1565b600b81905550670de0b6b3a7640000600c8190555084600860006101000a81548173ffffffffffffffffffffffffffffffffffffffff021916908373ffffffffffffffffffffffffffffffffffffffff16021790555082600190805190602001906123049291906194e4565b50816002908051906020019061231b9291906194e4565b506008600360006101000a81548160ff021916908360ff160217905550806004908051906020019061234e9291906194e4565b5060016000806101000a81548160ff0219169083151502179055506000600954116123c4576040517f08c379a000000000000000000000000000000000000000000000000000000000815260040180806020018281038252603081526020018061968e6030913960400191505060405180910390fd5b50505050505050565b60048054600181600116156101000203166002900480601f0160208091040260200160405190810160405280929190818152602001828054600181600116156101000203166002900480156124635780601f1061243857610100808354040283529160200191612463565b820191906000526020600020905b81548152906001019060200180831161244657829003601f168201915b505050505081565b60008060009054906101000a900460ff166124ee576040517f08c379a000000000000000000000000000000000000000000000000000000000815260040180806020018281038252600a8152602001807f72652d656e74657265640000000000000000000000000000000000000000000081525060200191505060405180910390fd5b60008060006101000a81548160ff0219169083151502179055506000612512614684565b90506000601081111561252157fe5b81146125455761253d81601081111561253657fe5b6030614b3d565b915050612552565b61254e83614e29565b9150505b60016000806101000a81548160ff021916908315150217905550919050565b60095481565b600b5481565b601460009054906101000a900473ffffffffffffffffffffffffffffffffffffffff1681565b6000601060008373ffffffffffffffffffffffffffffffffffffffff1673ffffffffffffffffffffffffffffffffffffffff168152602001908152602001600020549050919050565b6000600d54905090565b60006126018261503a565b9050919050565b600e5481565b606060048054600181600116156101000203166002900480601f0160208091040260200160405190810160405280929190818152602001828054600181600116156101000203166002900480156126a65780601f1061267b576101008083540402835291602001916126a6565b820191906000526020600020905b81548152906001019060200180831161268957829003601f168201915b5050505050905090565b60028054600181600116156101000203166002900480601f0160208091040260200160405190810160405280929190818152602001828054600181600116156101000203166002900480156127465780601f1061271b57610100808354040283529160200191612746565b820191906000526020600020905b81548152906001019060200180831161272957829003601f168201915b505050505081565b6000600b54905090565b60008061276483615143565b50905080915050919050565b600061277a614684565b905090565b60008060009054906101000a900460ff16612802576040517f08c379a000000000000000000000000000000000000000000000000000000000815260040180806020018281038252600a8152602001807f72652d656e74657265640000000000000000000000000000000000000000000081525060200191505060405180910390fd5b60008060006101000a81548160ff0219169083151502179055506000601081111561282957fe5b61283533338686613847565b14905060016000806101000a81548160ff02191690831515021790555092915050565b600c5481565b6000600860009054906101000a900473ffffffffffffffffffffffffffffffffffffffff1673ffffffffffffffffffffffffffffffffffffffff1663b81688166128a66143bc565b600d54600e54600a546040518563ffffffff1660e01b81526004018085815260200184815260200183815260200182815260200194505050505060206040518083038186803b1580156128f857600080fd5b505afa15801561290c573d6000803e3d6000fd5b505050506040513d602081101561292257600080fd5b8101908080519060200190929190505050905090565b60008060009054906101000a900460ff166129bb576040517f08c379a000000000000000000000000000000000000000000000000000000000815260040180806020018281038252600a8152602001807f72652d656e74657265640000000000000000000000000000000000000000000081525060200191505060405180910390fd5b60008060006101000a81548160ff0219169083151502179055506129e133858585615254565b905060016000806101000a81548160ff0219169083151502179055509392505050565b6000612a0e61153a565b905090565b6000600760009054906101000a900473ffffffffffffffffffffffffffffffffffffffff1673ffffffffffffffffffffffffffffffffffffffff163373ffffffffffffffffffffffffffffffffffffffff1614612ad8576040517f08c379a00000000000000000000000000000000000000000000000000000000081526004018080602001828103825260208152602001807f6f6e6c792061646d696e2063616e20657870616e6420444f4c20737570706c7981525060200191505060405180910390fd5b612bb160028054600181600116156101000203166002900480601f016020809104026020016040519081016040528092919081815260200182805460018160011615610100020316600290048015612b715780601f10612b4657610100808354040283529160200191612b71565b820191906000526020600020905b815481529060010190602001808311612b5457829003601f168201915b50505050506040518060400160405280600481526020017f68444f4c000000000000000000000000000000000000000000000000000000008152506145ae565b612c06576040517f08c379a00000000000000000000000000000000000000000000000000000000081526004018080602001828103825260248152602001806197e06024913960400191505060405180910390fd5b6000612c10614684565b905060006010811115612c1f57fe5b8114612c4357612c3b816010811115612c3457fe5b601e614b3d565b9150506131b8565b612c4b614bb1565b600b5414612c6757612c5f600a6022614b3d565b9150506131b8565b612c6f619564565b612c7761376b565b826020018360400182815250826003811115612c8f57fe5b6003811115612c9a57fe5b815250505060006003811115612cac57fe5b81602001516003811115612cbc57fe5b14612ce657612cdd6009602183602001516003811115612cd857fe5b614bb9565b925050506131b8565b6000339050612cf58186615af8565b8260c0018181525050612d1e8260c0015160405180602001604052808560400151815250614c2d565b836020018460600182815250826003811115612d3657fe5b6003811115612d4157fe5b815250505060006003811115612d5357fe5b82602001516003811115612d6357fe5b14612dd6576040517f08c379a00000000000000000000000000000000000000000000000000000000081526004018080602001828103825260208152602001807f4d494e545f45584348414e47455f43414c43554c4154494f4e5f4641494c454481525060200191505060405180910390fd5b612de6600f548360600151615ed6565b836020018460800182815250826003811115612dfe57fe5b6003811115612e0957fe5b815250505060006003811115612e1b57fe5b82602001516003811115612e2b57fe5b14612e81576040517f08c379a00000000000000000000000000000000000000000000000000000000081526004018080602001828103825260288152602001806198396028913960400191505060405180910390fd5b612ece601060008373ffffffffffffffffffffffffffffffffffffffff1673ffffffffffffffffffffffffffffffffffffffff168152602001908152602001600020548360600151615ed6565b836020018460a00182815250826003811115612ee657fe5b6003811115612ef157fe5b815250505060006003811115612f0357fe5b82602001516003811115612f1357fe5b14612f69576040517f08c379a000000000000000000000000000000000000000000000000000000000815260040180806020018281038252602b8152602001806196be602b913960400191505060405180910390fd5b7f4c209b5fc8ad50758f13e2e1088ba56a560dff690a1c6fef26394f4c03821c4f818360c001518460600151604051808473ffffffffffffffffffffffffffffffffffffffff1673ffffffffffffffffffffffffffffffffffffffff168152602001838152602001828152602001935050505060405180910390a18073ffffffffffffffffffffffffffffffffffffffff163073ffffffffffffffffffffffffffffffffffffffff167fddf252ad1be2c89b69c2b068fc378daa952ba7f163c4a11628f55a4df523b3ef84606001516040518082815260200191505060405180910390a38160800151600f819055508160a00151601060008373ffffffffffffffffffffffffffffffffffffffff1673ffffffffffffffffffffffffffffffffffffffff16815260200190815260200160002081905550600760009054906101000a900473ffffffffffffffffffffffffffffffffffffffff1673ffffffffffffffffffffffffffffffffffffffff166341c728b930838560c0015186606001516040518563ffffffff1660e01b8152600401808573ffffffffffffffffffffffffffffffffffffffff1673ffffffffffffffffffffffffffffffffffffffff1681526020018473ffffffffffffffffffffffffffffffffffffffff1673ffffffffffffffffffffffffffffffffffffffff168152602001838152602001828152602001945050505050600060405180830381600087803b15801561318d57600080fd5b505af11580156131a1573d6000803e3d6000fd5b50505050600060108111156131b257fe5b93505050505b919050565b6000806000806000601060008773ffffffffffffffffffffffffffffffffffffffff1673ffffffffffffffffffffffffffffffffffffffff168152602001908152602001600020549050600080600061321589615f08565b80945081925050506000600381111561322a57fe5b81600381111561323657fe5b14613267576009601081111561324857fe5b60008060008292508191508090509750975097509750505050506132de565b61326f61376b565b80935081925050506000600381111561328457fe5b81600381111561329057fe5b146132c157600960108111156132a257fe5b60008060008292508191508090509750975097509750505050506132de565b600060108111156132ce57fe5b8484849750975097509750505050505b9193509193565b60006132f082616013565b9050919050565b60006133028261611a565b9050919050565b6000601160008473ffffffffffffffffffffffffffffffffffffffff1673ffffffffffffffffffffffffffffffffffffffff16815260200190815260200160002060008373ffffffffffffffffffffffffffffffffffffffff1673ffffffffffffffffffffffffffffffffffffffff16815260200190815260200160002054905092915050565b60008061339e858585616223565b509050809150509392505050565b600760009054906101000a900473ffffffffffffffffffffffffffffffffffffffff1681565b600560009054906101000a900473ffffffffffffffffffffffffffffffffffffffff1681565b6000600860009054906101000a900473ffffffffffffffffffffffffffffffffffffffff1673ffffffffffffffffffffffffffffffffffffffff166315f240536134406143bc565b600d54600e546040518463ffffffff1660e01b815260040180848152602001838152602001828152602001935050505060206040518083038186803b15801561348857600080fd5b505afa15801561349c573d6000803e3d6000fd5b505050506040513d60208110156134b257600080fd5b8101908080519060200190929190505050905090565b60008060009054906101000a900460ff1661354b576040517f08c379a000000000000000000000000000000000000000000000000000000000815260040180806020018281038252600a8152602001807f72652d656e74657265640000000000000000000000000000000000000000000081525060200191505060405180910390fd5b60008060006101000a81548160ff021916908315150217905550600061356f614684565b90506000601081111561357e57fe5b81146135a25761359a81601081111561359357fe5b6046614b3d565b9150506135af565b6135ab836163f6565b9150505b60016000806101000a81548160ff021916908315150217905550919050565b6000806000809054906101000a900460ff16613652576040517f08c379a000000000000000000000000000000000000000000000000000000000815260040180806020018281038252600a8152602001807f72652d656e74657265640000000000000000000000000000000000000000000081525060200191505060405180910390fd5b60008060006101000a81548160ff0219169083151502179055506000613676614684565b90506000601081111561368557fe5b81146136b0576136a181601081111561369a57fe5b6036614b3d565b600080905092509250506136c1565b6136bb333386616509565b92509250505b60016000806101000a81548160ff021916908315150217905550915091565b60008060006136ee84615f08565b91509150600060038111156136ff57fe5b82600381111561370b57fe5b14613761576040517f08c379a00000000000000000000000000000000000000000000000000000000081526004018080602001828103825260378152602001806196e96037913960400191505060405180910390fd5b8092505050919050565b6000806000600f549050600081141561378d5760006009549250925050613843565b60006137976143bc565b905060006137a361947e565b60006137b484600d54600e54616d8a565b8094508192505050600060038111156137c957fe5b8160038111156137d557fe5b146137ee57806000809050965096505050505050613843565b6137f88386616de6565b80935081925050506000600381111561380d57fe5b81600381111561381957fe5b1461383257806000809050965096505050505050613843565b600082600001519650965050505050505b9091565b600080600760009054906101000a900473ffffffffffffffffffffffffffffffffffffffff1673ffffffffffffffffffffffffffffffffffffffff1663bdcdc258308787876040518563ffffffff1660e01b8152600401808573ffffffffffffffffffffffffffffffffffffffff1673ffffffffffffffffffffffffffffffffffffffff1681526020018473ffffffffffffffffffffffffffffffffffffffff1673ffffffffffffffffffffffffffffffffffffffff1681526020018373ffffffffffffffffffffffffffffffffffffffff1673ffffffffffffffffffffffffffffffffffffffff168152602001828152602001945050505050602060405180830381600087803b15801561395b57600080fd5b505af115801561396f573d6000803e3d6000fd5b505050506040513d602081101561398557600080fd5b81019080805190602001909291905050509050600081146139b5576139ad6003604a83614bb9565b91505061423d565b8373ffffffffffffffffffffffffffffffffffffffff168573ffffffffffffffffffffffffffffffffffffffff1614156139fd576139f56002604b614b3d565b91505061423d565b60008090508573ffffffffffffffffffffffffffffffffffffffff168773ffffffffffffffffffffffffffffffffffffffff161415613a5e577fffffffffffffffffffffffffffffffffffffffffffffffffffffffffffffffff9050613ade565b601160008773ffffffffffffffffffffffffffffffffffffffff1673ffffffffffffffffffffffffffffffffffffffff16815260200190815260200160002060008873ffffffffffffffffffffffffffffffffffffffff1673ffffffffffffffffffffffffffffffffffffffff1681526020019081526020016000205490505b600080600080613aee8589614c90565b809450819550505060006003811115613b0357fe5b846003811115613b0f57fe5b14613b2d57613b206009604b614b3d565b965050505050505061423d565b613b76601060008c73ffffffffffffffffffffffffffffffffffffffff1673ffffffffffffffffffffffffffffffffffffffff1681526020019081526020016000205489614c90565b809350819550505060006003811115613b8b57fe5b846003811115613b9757fe5b14613bb557613ba86009604c614b3d565b965050505050505061423d565b613bfe601060008b73ffffffffffffffffffffffffffffffffffffffff1673ffffffffffffffffffffffffffffffffffffffff1681526020019081526020016000205489615ed6565b809250819550505060006003811115613c1357fe5b846003811115613c1f57fe5b14613c3d57613c306009604d614b3d565b965050505050505061423d565b81601060008c73ffffffffffffffffffffffffffffffffffffffff1673ffffffffffffffffffffffffffffffffffffffff1681526020019081526020016000208190555080601060008b73ffffffffffffffffffffffffffffffffffffffff1673ffffffffffffffffffffffffffffffffffffffff168152602001908152602001600020819055507fffffffffffffffffffffffffffffffffffffffffffffffffffffffffffffffff8514613d6e5782601160008c73ffffffffffffffffffffffffffffffffffffffff1673ffffffffffffffffffffffffffffffffffffffff16815260200190815260200160002060008d73ffffffffffffffffffffffffffffffffffffffff1673ffffffffffffffffffffffffffffffffffffffff168152602001908152602001600020819055505b6000601360009054906101000a900473ffffffffffffffffffffffffffffffffffffffff1673ffffffffffffffffffffffffffffffffffffffff166367ef06aa8b308c6040518463ffffffff1660e01b8152600401808473ffffffffffffffffffffffffffffffffffffffff1673ffffffffffffffffffffffffffffffffffffffff1681526020018373ffffffffffffffffffffffffffffffffffffffff1673ffffffffffffffffffffffffffffffffffffffff1681526020018281526020019350505050602060405180830381600087803b158015613e4d57600080fd5b505af1158015613e61573d6000803e3d6000fd5b505050506040513d6020811015613e7757600080fd5b8101908080519060200190929190505050905060008114613f00576040517f08c379a00000000000000000000000000000000000000000000000000000000081526004018080602001828103825260188152602001807f444953545249425554455f544f4b454e535f4649414c4544000000000000000081525060200191505060405180910390fd5b601360009054906101000a900473ffffffffffffffffffffffffffffffffffffffff1673ffffffffffffffffffffffffffffffffffffffff1663e3d935238c308c876040518563ffffffff1660e01b8152600401808573ffffffffffffffffffffffffffffffffffffffff1673ffffffffffffffffffffffffffffffffffffffff1681526020018473ffffffffffffffffffffffffffffffffffffffff1673ffffffffffffffffffffffffffffffffffffffff168152602001838152602001828152602001945050505050602060405180830381600087803b158015613fe557600080fd5b505af1158015613ff9573d6000803e3d6000fd5b505050506040513d602081101561400f57600080fd5b8101908080519060200190929190505050905060008114614098576040517f08c379a00000000000000000000000000000000000000000000000000000000081526004018080602001828103825260188152602001807f444953545249425554455f544f4b454e535f4649414c4544000000000000000081525060200191505060405180910390fd5b8973ffffffffffffffffffffffffffffffffffffffff168b73ffffffffffffffffffffffffffffffffffffffff167fddf252ad1be2c89b69c2b068fc378daa952ba7f163c4a11628f55a4df523b3ef8b6040518082815260200191505060405180910390a3600760009054906101000a900473ffffffffffffffffffffffffffffffffffffffff1673ffffffffffffffffffffffffffffffffffffffff16636a56947e308d8d8d6040518563ffffffff1660e01b8152600401808573ffffffffffffffffffffffffffffffffffffffff1673ffffffffffffffffffffffffffffffffffffffff1681526020018473ffffffffffffffffffffffffffffffffffffffff1673ffffffffffffffffffffffffffffffffffffffff1681526020018373ffffffffffffffffffffffffffffffffffffffff1673ffffffffffffffffffffffffffffffffffffffff168152602001828152602001945050505050600060405180830381600087803b15801561420e57600080fd5b505af1158015614222573d6000803e3d6000fd5b505050506000601081111561423357fe5b9750505050505050505b949350505050565b6000806000809054906101000a900460ff166142c9576040517f08c379a000000000000000000000000000000000000000000000000000000000815260040180806020018281038252600a8152602001807f72652d656e74657265640000000000000000000000000000000000000000000081525060200191505060405180910390fd5b60008060006101000a81548160ff02191690831515021790555060006142ed614684565b9050600060108111156142fc57fe5b81146143275761431881601081111561431157fe5b6035614b3d565b60008090509250925050614338565b614332338686616509565b92509250505b60016000806101000a81548160ff0219169083151502179055509250929050565b600080600061436661947e565b6143708686616eba565b915091506000600381111561438157fe5b82600381111561438d57fe5b146143a3578160008090509350935050506143b5565b60006143ae82616f38565b9350935050505b9250929050565b600080601460009054906101000a900473ffffffffffffffffffffffffffffffffffffffff1690508073ffffffffffffffffffffffffffffffffffffffff166370a08231306040518263ffffffff1660e01b8152600401808273ffffffffffffffffffffffffffffffffffffffff1673ffffffffffffffffffffffffffffffffffffffff16815260200191505060206040518083038186803b15801561446157600080fd5b505afa158015614475573d6000803e3d6000fd5b505050506040513d602081101561448b57600080fd5b810190808051906020019092919050505091505090565b60008060009054906101000a900460ff16614525576040517f08c379a000000000000000000000000000000000000000000000000000000000815260040180806020018281038252600a8152602001807f72652d656e74657265640000000000000000000000000000000000000000000081525060200191505060405180910390fd5b60008060006101000a81548160ff0219169083151502179055506000614549614684565b90506000601081111561455857fe5b811461457c5761457481601081111561456d57fe5b604e614b3d565b91505061458f565b61458583616f57565b5080915050809150505b60016000806101000a81548160ff021916908315150217905550919050565b60006060839050606083905080518251146145ce5760009250505061467e565b60005b82518161ffff16101561467657818161ffff16815181106145ee57fe5b602001015160f81c60f81b7effffffffffffffffffffffffffffffffffffffffffffffffffffffffffffff1916838261ffff168151811061462b57fe5b602001015160f81c60f81b7effffffffffffffffffffffffffffffffffffffffffffffffffffffffffffff191614614669576000935050505061467e565b80806001019150506145d1565b506001925050505b92915050565b60008061468f614bb1565b90506000600b549050818114156146b657600060108111156146ad57fe5b92505050614b3a565b60006146c06143bc565b90506000600d5490506000600e5490506000600c5490506000600860009054906101000a900473ffffffffffffffffffffffffffffffffffffffff1673ffffffffffffffffffffffffffffffffffffffff166315f240538686866040518463ffffffff1660e01b815260040180848152602001838152602001828152602001935050505060206040518083038186803b15801561475c57600080fd5b505afa158015614770573d6000803e3d6000fd5b505050506040513d602081101561478657600080fd5b8101908080519060200190929190505050905065048c27395000811115614815576040517f08c379a000000000000000000000000000000000000000000000000000000000815260040180806020018281038252601c8152602001807f626f72726f772072617465206973206162737572646c7920686967680000000081525060200191505060405180910390fd5b6000806148228989614c90565b915091506000600381111561483357fe5b82600381111561483f57fe5b146148b2576040517f08c379a000000000000000000000000000000000000000000000000000000000815260040180806020018281038252601f8152602001807f636f756c64206e6f742063616c63756c61746520626c6f636b2064656c74610081525060200191505060405180910390fd5b6148ba61947e565b6000806000806148d860405180602001604052808a81525087616eba565b8096508198505050600060038111156148ed57fe5b8760038111156148f957fe5b1461492b576149166009600689600381111561491157fe5b614bb9565b9e505050505050505050505050505050614b3a565b614935858c614359565b80955081985050506000600381111561494a57fe5b87600381111561495657fe5b14614988576149736009600189600381111561496e57fe5b614bb9565b9e505050505050505050505050505050614b3a565b614992848c615ed6565b8094508198505050600060038111156149a757fe5b8760038111156149b357fe5b146149e5576149d0600960048960038111156149cb57fe5b614bb9565b9e505050505050505050505050505050614b3a565b614a006040518060200160405280600a54815250858c6170a4565b809350819850505060006003811115614a1557fe5b876003811115614a2157fe5b14614a5357614a3e60096005896003811115614a3957fe5b614bb9565b9e505050505050505050505050505050614b3a565b614a5e858a8b6170a4565b809250819850505060006003811115614a7357fe5b876003811115614a7f57fe5b14614ab157614a9c60096003896003811115614a9757fe5b614bb9565b9e505050505050505050505050505050614b3a565b8d600b8190555080600c8190555082600d8190555081600e819055507f4dec04e750ca11537cabcd8a9eab06494de08da3735bc8871cd41250e190bc048c8583866040518085815260200184815260200183815260200182815260200194505050505060405180910390a160006010811115614b2957fe5b9e5050505050505050505050505050505b90565b60007f45b96fe442630264581b197e84bbada861235052c5a1aadfff9ea4e40a969aa0836010811115614b6c57fe5b836050811115614b7857fe5b600060405180848152602001838152602001828152602001935050505060405180910390a1826010811115614ba957fe5b905092915050565b600043905090565b60007f45b96fe442630264581b197e84bbada861235052c5a1aadfff9ea4e40a969aa0846010811115614be857fe5b846050811115614bf457fe5b8460405180848152602001838152602001828152602001935050505060405180910390a1836010811115614c2457fe5b90509392505050565b6000806000614c3a61947e565b614c44868661710f565b9150915060006003811115614c5557fe5b826003811115614c6157fe5b14614c7757816000809050935093505050614c89565b6000614c8282616f38565b9350935050505b9250929050565b600080838311614ca857600083850391509150614cb4565b60036000809050915091505b9250929050565b6000601460009054906101000a900473ffffffffffffffffffffffffffffffffffffffff1690508073ffffffffffffffffffffffffffffffffffffffff1663a9059cbb84846040518363ffffffff1660e01b8152600401808373ffffffffffffffffffffffffffffffffffffffff1673ffffffffffffffffffffffffffffffffffffffff16815260200182815260200192505050600060405180830381600087803b158015614d6957600080fd5b505af1158015614d7d573d6000803e3d6000fd5b5050505060003d60008114614d995760208114614da357600080fd5b6000199150614daf565b60206000803e60005191505b5080614e23576040517f08c379a00000000000000000000000000000000000000000000000000000000081526004018080602001828103825260198152602001807f544f4b454e5f5452414e534645525f4f55545f4641494c45440000000000000081525060200191505060405180910390fd5b50505050565b600080600560009054906101000a900473ffffffffffffffffffffffffffffffffffffffff1673ffffffffffffffffffffffffffffffffffffffff163373ffffffffffffffffffffffffffffffffffffffff1614614e9557614e8d60016031614b3d565b915050615035565b614e9d614bb1565b600b5414614eb957614eb1600a6033614b3d565b915050615035565b82614ec26143bc565b1015614edc57614ed4600e6032614b3d565b915050615035565b600e54831115614efa57614ef260026034614b3d565b915050615035565b82600e54039050600e54811115614f5c576040517f08c379a00000000000000000000000000000000000000000000000000000000081526004018080602001828103825260248152602001806198956024913960400191505060405180910390fd5b80600e81905550614f8f600560009054906101000a900473ffffffffffffffffffffffffffffffffffffffff1684614cbb565b7f3bad0c59cf2f06e7314077049f48a93578cd16f5ef92329f1dab1420a99c177e600560009054906101000a900473ffffffffffffffffffffffffffffffffffffffff168483604051808473ffffffffffffffffffffffffffffffffffffffff1673ffffffffffffffffffffffffffffffffffffffff168152602001838152602001828152602001935050505060405180910390a16000601081111561503157fe5b9150505b919050565b60008060009054906101000a900460ff166150bd576040517f08c379a000000000000000000000000000000000000000000000000000000000815260040180806020018281038252600a8152602001807f72652d656e74657265640000000000000000000000000000000000000000000081525060200191505060405180910390fd5b60008060006101000a81548160ff02191690831515021790555060006150e1614684565b9050600060108111156150f057fe5b81146151145761510c81601081111561510557fe5b6027614b3d565b915050615124565b6151203360008561718b565b9150505b60016000806101000a81548160ff021916908315150217905550919050565b6000806000809054906101000a900460ff166151c7576040517f08c379a000000000000000000000000000000000000000000000000000000000815260040180806020018281038252600a8152602001807f72652d656e74657265640000000000000000000000000000000000000000000081525060200191505060405180910390fd5b60008060006101000a81548160ff02191690831515021790555060006151eb614684565b9050600060108111156151fa57fe5b81146152255761521681601081111561520f57fe5b601e614b3d565b60008090509250925050615235565b61522f3385617a71565b92509250505b60016000806101000a81548160ff021916908315150217905550915091565b600080600760009054906101000a900473ffffffffffffffffffffffffffffffffffffffff1673ffffffffffffffffffffffffffffffffffffffff1663d02f735130888888886040518663ffffffff1660e01b8152600401808673ffffffffffffffffffffffffffffffffffffffff1673ffffffffffffffffffffffffffffffffffffffff1681526020018573ffffffffffffffffffffffffffffffffffffffff1673ffffffffffffffffffffffffffffffffffffffff1681526020018473ffffffffffffffffffffffffffffffffffffffff1673ffffffffffffffffffffffffffffffffffffffff1681526020018373ffffffffffffffffffffffffffffffffffffffff1673ffffffffffffffffffffffffffffffffffffffff16815260200182815260200195505050505050602060405180830381600087803b15801561539c57600080fd5b505af11580156153b0573d6000803e3d6000fd5b505050506040513d60208110156153c657600080fd5b81019080805190602001909291905050509050600081146153f6576153ee6003601b83614bb9565b915050615af0565b8473ffffffffffffffffffffffffffffffffffffffff168473ffffffffffffffffffffffffffffffffffffffff16141561543e576154366006601c614b3d565b915050615af0565b600080600061548c601060008973ffffffffffffffffffffffffffffffffffffffff1673ffffffffffffffffffffffffffffffffffffffff1681526020019081526020016000205487614c90565b8093508194505050600060038111156154a157fe5b8360038111156154ad57fe5b146154d5576154ca6009601a8560038111156154c557fe5b614bb9565b945050505050615af0565b61551e601060008a73ffffffffffffffffffffffffffffffffffffffff1673ffffffffffffffffffffffffffffffffffffffff1681526020019081526020016000205487615ed6565b80925081945050506000600381111561553357fe5b83600381111561553f57fe5b146155675761555c6009601985600381111561555757fe5b614bb9565b945050505050615af0565b81601060008973ffffffffffffffffffffffffffffffffffffffff1673ffffffffffffffffffffffffffffffffffffffff1681526020019081526020016000208190555080601060008a73ffffffffffffffffffffffffffffffffffffffff1673ffffffffffffffffffffffffffffffffffffffff168152602001908152602001600020819055506000601360009054906101000a900473ffffffffffffffffffffffffffffffffffffffff1673ffffffffffffffffffffffffffffffffffffffff166367ef06aa8a308a6040518463ffffffff1660e01b8152600401808473ffffffffffffffffffffffffffffffffffffffff1673ffffffffffffffffffffffffffffffffffffffff1681526020018373ffffffffffffffffffffffffffffffffffffffff1673ffffffffffffffffffffffffffffffffffffffff1681526020018281526020019350505050602060405180830381600087803b1580156156ce57600080fd5b505af11580156156e2573d6000803e3d6000fd5b505050506040513d60208110156156f857600080fd5b8101908080519060200190929190505050905060008114615781576040517f08c379a00000000000000000000000000000000000000000000000000000000081526004018080602001828103825260188152602001807f444953545249425554455f544f4b454e535f4649414c4544000000000000000081525060200191505060405180910390fd5b601360009054906101000a900473ffffffffffffffffffffffffffffffffffffffff1673ffffffffffffffffffffffffffffffffffffffff1663e3d9352389308a876040518563ffffffff1660e01b8152600401808573ffffffffffffffffffffffffffffffffffffffff1673ffffffffffffffffffffffffffffffffffffffff1681526020018473ffffffffffffffffffffffffffffffffffffffff1673ffffffffffffffffffffffffffffffffffffffff168152602001838152602001828152602001945050505050602060405180830381600087803b15801561586657600080fd5b505af115801561587a573d6000803e3d6000fd5b505050506040513d602081101561589057600080fd5b8101908080519060200190929190505050905060008114615919576040517f08c379a00000000000000000000000000000000000000000000000000000000081526004018080602001828103825260188152602001807f444953545249425554455f544f4b454e535f4649414c4544000000000000000081525060200191505060405180910390fd5b8873ffffffffffffffffffffffffffffffffffffffff168873ffffffffffffffffffffffffffffffffffffffff167fddf252ad1be2c89b69c2b068fc378daa952ba7f163c4a11628f55a4df523b3ef896040518082815260200191505060405180910390a3600760009054906101000a900473ffffffffffffffffffffffffffffffffffffffff1673ffffffffffffffffffffffffffffffffffffffff16636d35bf91308c8c8c8c6040518663ffffffff1660e01b8152600401808673ffffffffffffffffffffffffffffffffffffffff1673ffffffffffffffffffffffffffffffffffffffff1681526020018573ffffffffffffffffffffffffffffffffffffffff1673ffffffffffffffffffffffffffffffffffffffff1681526020018473ffffffffffffffffffffffffffffffffffffffff1673ffffffffffffffffffffffffffffffffffffffff1681526020018373ffffffffffffffffffffffffffffffffffffffff1673ffffffffffffffffffffffffffffffffffffffff16815260200182815260200195505050505050600060405180830381600087803b158015615ac357600080fd5b505af1158015615ad7573d6000803e3d6000fd5b5050505060006010811115615ae857fe5b955050505050505b949350505050565b600080601460009054906101000a900473ffffffffffffffffffffffffffffffffffffffff1690506000601460009054906101000a900473ffffffffffffffffffffffffffffffffffffffff1673ffffffffffffffffffffffffffffffffffffffff166370a08231306040518263ffffffff1660e01b8152600401808273ffffffffffffffffffffffffffffffffffffffff1673ffffffffffffffffffffffffffffffffffffffff16815260200191505060206040518083038186803b158015615bc157600080fd5b505afa158015615bd5573d6000803e3d6000fd5b505050506040513d6020811015615beb57600080fd5b810190808051906020019092919050505090508173ffffffffffffffffffffffffffffffffffffffff166323b872dd8630876040518463ffffffff1660e01b8152600401808473ffffffffffffffffffffffffffffffffffffffff1673ffffffffffffffffffffffffffffffffffffffff1681526020018373ffffffffffffffffffffffffffffffffffffffff1673ffffffffffffffffffffffffffffffffffffffff1681526020018281526020019350505050600060405180830381600087803b158015615cb957600080fd5b505af1158015615ccd573d6000803e3d6000fd5b5050505060003d60008114615ce95760208114615cf357600080fd5b6000199150615cff565b60206000803e60005191505b5080615d73576040517f08c379a00000000000000000000000000000000000000000000000000000000081526004018080602001828103825260188152602001807f544f4b454e5f5452414e534645525f494e5f4641494c4544000000000000000081525060200191505060405180910390fd5b6000601460009054906101000a900473ffffffffffffffffffffffffffffffffffffffff1673ffffffffffffffffffffffffffffffffffffffff166370a08231306040518263ffffffff1660e01b8152600401808273ffffffffffffffffffffffffffffffffffffffff1673ffffffffffffffffffffffffffffffffffffffff16815260200191505060206040518083038186803b158015615e1457600080fd5b505afa158015615e28573d6000803e3d6000fd5b505050506040513d6020811015615e3e57600080fd5b8101908080519060200190929190505050905082811015615ec7576040517f08c379a000000000000000000000000000000000000000000000000000000000815260040180806020018281038252601a8152602001807f544f4b454e5f5452414e534645525f494e5f4f564552464c4f5700000000000081525060200191505060405180910390fd5b82810394505050505092915050565b60008060008385019050848110615ef4576000819250925050615f01565b6002600080905092509250505b9250929050565b600080600080600080601260008873ffffffffffffffffffffffffffffffffffffffff1673ffffffffffffffffffffffffffffffffffffffff1681526020019081526020016000209050600081600001541415615f7257600080809050955095505050505061600e565b615f828160000154600c546182d6565b809450819550505060006003811115615f9757fe5b846003811115615fa357fe5b14615fbb57836000809050955095505050505061600e565b615fc9838260010154618329565b809350819550505060006003811115615fde57fe5b846003811115615fea57fe5b1461600257836000809050955095505050505061600e565b60008295509550505050505b915091565b60008060009054906101000a900460ff16616096576040517f08c379a000000000000000000000000000000000000000000000000000000000815260040180806020018281038252600a8152602001807f72652d656e74657265640000000000000000000000000000000000000000000081525060200191505060405180910390fd5b60008060006101000a81548160ff02191690831515021790555060006160ba614684565b9050600060108111156160c957fe5b81146160ed576160e58160108111156160de57fe5b6008614b3d565b9150506160fb565b6160f7338461835d565b9150505b60016000806101000a81548160ff021916908315150217905550919050565b60008060009054906101000a900460ff1661619d576040517f08c379a000000000000000000000000000000000000000000000000000000000815260040180806020018281038252600a8152602001807f72652d656e74657265640000000000000000000000000000000000000000000081525060200191505060405180910390fd5b60008060006101000a81548160ff02191690831515021790555060006161c1614684565b9050600060108111156161d057fe5b81146161f4576161ec8160108111156161e557fe5b6027614b3d565b915050616204565b6162003384600061718b565b9150505b60016000806101000a81548160ff021916908315150217905550919050565b6000806000809054906101000a900460ff166162a7576040517f08c379a000000000000000000000000000000000000000000000000000000000815260040180806020018281038252600a8152602001807f72652d656e74657265640000000000000000000000000000000000000000000081525060200191505060405180910390fd5b60008060006101000a81548160ff02191690831515021790555060006162cb614684565b9050600060108111156162da57fe5b8114616305576162f68160108111156162ef57fe5b600f614b3d565b600080905092509250506163d4565b8373ffffffffffffffffffffffffffffffffffffffff1663a6afed956040518163ffffffff1660e01b8152600401602060405180830381600087803b15801561634d57600080fd5b505af1158015616361573d6000803e3d6000fd5b505050506040513d602081101561637757600080fd5b810190808051906020019092919050505090506000601081111561639757fe5b81146163c2576163b38160108111156163ac57fe5b6010614b3d565b600080905092509250506163d4565b6163ce33878787618a21565b92509250505b60016000806101000a81548160ff021916908315150217905550935093915050565b6000600560009054906101000a900473ffffffffffffffffffffffffffffffffffffffff1673ffffffffffffffffffffffffffffffffffffffff163373ffffffffffffffffffffffffffffffffffffffff16146164605761645960016047614b3d565b9050616504565b616468614bb1565b600b54146164835761647c600a6048614b3d565b9050616504565b670de0b6b3a76400008211156164a65761649f60026049614b3d565b9050616504565b6000600a54905082600a819055507faaa68312e2ea9d50e16af5068410ab56e1a1fd06037b1a35664812c30f8214608184604051808381526020018281526020019250505060405180910390a16000601081111561650057fe5b9150505b919050565b6000806000600760009054906101000a900473ffffffffffffffffffffffffffffffffffffffff1673ffffffffffffffffffffffffffffffffffffffff166324008a62308888886040518563ffffffff1660e01b8152600401808573ffffffffffffffffffffffffffffffffffffffff1673ffffffffffffffffffffffffffffffffffffffff1681526020018473ffffffffffffffffffffffffffffffffffffffff1673ffffffffffffffffffffffffffffffffffffffff1681526020018373ffffffffffffffffffffffffffffffffffffffff1673ffffffffffffffffffffffffffffffffffffffff168152602001828152602001945050505050602060405180830381600087803b15801561661f57600080fd5b505af1158015616633573d6000803e3d6000fd5b505050506040513d602081101561664957600080fd5b8101908080519060200190929190505050905060008114616680576166716003603883614bb9565b60008090509250925050616d82565b616688614bb1565b600b54146166ab5761669c600a6039614b3d565b60008090509250925050616d82565b6166b36195b7565b601260008773ffffffffffffffffffffffffffffffffffffffff1673ffffffffffffffffffffffffffffffffffffffff1681526020019081526020016000206001015481606001818152505061670886615f08565b82602001836080018281525082600381111561672057fe5b600381111561672b57fe5b81525050506000600381111561673d57fe5b8160200151600381111561674d57fe5b1461677e5761676e600960378360200151600381111561676957fe5b614bb9565b6000809050935093505050616d82565b7fffffffffffffffffffffffffffffffffffffffffffffffffffffffffffffffff8514156167b95780608001518160400181815250506167c4565b848160400181815250505b6167d2878260400151615af8565b8160e00181815250506167ed81608001518260e00151614c90565b826020018360a0018281525082600381111561680557fe5b600381111561681057fe5b81525050506000600381111561682257fe5b8160200151600381111561683257fe5b14616888576040517f08c379a000000000000000000000000000000000000000000000000000000000815260040180806020018281038252603a815260200180619752603a913960400191505060405180910390fd5b616898600d548260e00151614c90565b826020018360c001828152508260038111156168b057fe5b60038111156168bb57fe5b8152505050600060038111156168cd57fe5b816020015160038111156168dd57fe5b14616933576040517f08c379a000000000000000000000000000000000000000000000000000000000815260040180806020018281038252603181526020018061978c6031913960400191505060405180910390fd5b8060a00151601260008873ffffffffffffffffffffffffffffffffffffffff1673ffffffffffffffffffffffffffffffffffffffff16815260200190815260200160002060000181905550600c54601260008873ffffffffffffffffffffffffffffffffffffffff1673ffffffffffffffffffffffffffffffffffffffff168152602001908152602001600020600101819055508060c00151600d819055506000601360009054906101000a900473ffffffffffffffffffffffffffffffffffffffff1673ffffffffffffffffffffffffffffffffffffffff1663e3d9352388308560e001518660a001516040518563ffffffff1660e01b8152600401808573ffffffffffffffffffffffffffffffffffffffff1673ffffffffffffffffffffffffffffffffffffffff1681526020018473ffffffffffffffffffffffffffffffffffffffff1673ffffffffffffffffffffffffffffffffffffffff168152602001838152602001828152602001945050505050602060405180830381600087803b158015616ac157600080fd5b505af1158015616ad5573d6000803e3d6000fd5b505050506040513d6020811015616aeb57600080fd5b8101908080519060200190929190505050905060008114616b74576040517f08c379a00000000000000000000000000000000000000000000000000000000081526004018080602001828103825260188152602001807f444953545249425554455f544f4b454e535f4649414c4544000000000000000081525060200191505060405180910390fd5b7f1a2a22cb034d26d1854bdc6666a5b91fe25efbbb5dcad3b0355478d6f5c362a188888460e001518560a001518660c00151604051808673ffffffffffffffffffffffffffffffffffffffff1673ffffffffffffffffffffffffffffffffffffffff1681526020018573ffffffffffffffffffffffffffffffffffffffff1673ffffffffffffffffffffffffffffffffffffffff1681526020018481526020018381526020018281526020019550505050505060405180910390a1600760009054906101000a900473ffffffffffffffffffffffffffffffffffffffff1673ffffffffffffffffffffffffffffffffffffffff16631ededc91308a8a8660e0015187606001516040518663ffffffff1660e01b8152600401808673ffffffffffffffffffffffffffffffffffffffff1673ffffffffffffffffffffffffffffffffffffffff1681526020018573ffffffffffffffffffffffffffffffffffffffff1673ffffffffffffffffffffffffffffffffffffffff1681526020018473ffffffffffffffffffffffffffffffffffffffff1673ffffffffffffffffffffffffffffffffffffffff16815260200183815260200182815260200195505050505050600060405180830381600087803b158015616d5057600080fd5b505af1158015616d64573d6000803e3d6000fd5b5050505060006010811115616d7557fe5b8260e00151945094505050505b935093915050565b600080600080616d9a8787615ed6565b9150915060006003811115616dab57fe5b826003811115616db757fe5b14616dcd57816000809050935093505050616dde565b616dd78186614c90565b9350935050505b935093915050565b6000616df061947e565b600080616e0586670de0b6b3a76400006182d6565b9150915060006003811115616e1657fe5b826003811115616e2257fe5b14616e46578160405180602001604052806000815250809050935093505050616eb3565b600080616e538388618329565b9150915060006003811115616e6457fe5b826003811115616e7057fe5b14616e965781604051806020016040528060008152508090509550955050505050616eb3565b600060405180602001604052808381525080905095509550505050505b9250929050565b6000616ec461947e565b600080616ed58660000151866182d6565b9150915060006003811115616ee657fe5b826003811115616ef257fe5b14616f16578160405180602001604052806000815250809050935093505050616f31565b60006040518060200160405280838152508090509350935050505b9250929050565b6000670de0b6b3a7640000826000015181616f4f57fe5b049050919050565b600080600080616f65614bb1565b600b5414616f8557616f79600a604f614b3d565b8193509350505061709f565b616f8f3386615af8565b905080600e54019150600e54821015617010576040517f08c379a00000000000000000000000000000000000000000000000000000000081526004018080602001828103825260208152602001807f61646420726573657276657320756e6578706563746564206f766572666c6f7781525060200191505060405180910390fd5b81600e819055507fa91e67c5ea634cd43a12c5a482724b03de01e85ca68702a53d0c2f45cb7c1dc5338284604051808473ffffffffffffffffffffffffffffffffffffffff1673ffffffffffffffffffffffffffffffffffffffff168152602001838152602001828152602001935050505060405180910390a16000601081111561709757fe5b819350935050505b915091565b60008060006170b161947e565b6170bb8787616eba565b91509150600060038111156170cc57fe5b8260038111156170d857fe5b146170ee57816000809050935093505050617107565b6171006170fa82616f38565b86615ed6565b9350935050505b935093915050565b600061711961947e565b60008061712e670de0b6b3a7640000876182d6565b915091506000600381111561713f57fe5b82600381111561714b57fe5b1461716f578160405180602001604052806000815250809050935093505050617184565b61717d818660000151616de6565b9350935050505b9250929050565b60008083148061719b5750600082145b6171f0576040517f08c379a00000000000000000000000000000000000000000000000000000000081526004018080602001828103825260348152602001806198616034913960400191505060405180910390fd5b6171f8619491565b61720061376b565b82602001836040018281525082600381111561721857fe5b600381111561722357fe5b81525050506000600381111561723557fe5b8160200151600381111561724557fe5b1461726e576172666009602b8360200151600381111561726157fe5b614bb9565b915050617a6a565b6000841115617310578381606001818152505061729d6040518060200160405280836040015181525085614359565b8260200183608001828152508260038111156172b557fe5b60038111156172c057fe5b8152505050600060038111156172d257fe5b816020015160038111156172e257fe5b1461730b5761730360096029836020015160038111156172fe57fe5b614bb9565b915050617a6a565b6173a5565b61732c8360405180602001604052808460400151815250614c2d565b82602001836060018281525082600381111561734457fe5b600381111561734f57fe5b81525050506000600381111561736157fe5b8160200151600381111561737157fe5b1461739a576173926009602a8360200151600381111561738d57fe5b614bb9565b915050617a6a565b828160800181815250505b6000600760009054906101000a900473ffffffffffffffffffffffffffffffffffffffff1673ffffffffffffffffffffffffffffffffffffffff1663eabe7d91308885606001516040518463ffffffff1660e01b8152600401808473ffffffffffffffffffffffffffffffffffffffff1673ffffffffffffffffffffffffffffffffffffffff1681526020018373ffffffffffffffffffffffffffffffffffffffff1673ffffffffffffffffffffffffffffffffffffffff1681526020018281526020019350505050602060405180830381600087803b15801561748857600080fd5b505af115801561749c573d6000803e3d6000fd5b505050506040513d60208110156174b257600080fd5b81019080805190602001909291905050509050600081146174e3576174da6003602883614bb9565b92505050617a6a565b6174eb614bb1565b600b5414617508576174ff600a602c614b3d565b92505050617a6a565b617518600f548360600151614c90565b836020018460a0018281525082600381111561753057fe5b600381111561753b57fe5b81525050506000600381111561754d57fe5b8260200151600381111561755d57fe5b146175875761757e6009602e8460200151600381111561757957fe5b614bb9565b92505050617a6a565b6175d4601060008873ffffffffffffffffffffffffffffffffffffffff1673ffffffffffffffffffffffffffffffffffffffff168152602001908152602001600020548360600151614c90565b836020018460c001828152508260038111156175ec57fe5b60038111156175f757fe5b81525050506000600381111561760957fe5b8260200151600381111561761957fe5b146176435761763a6009602d8460200151600381111561763557fe5b614bb9565b92505050617a6a565b81608001516176506143bc565b101561766b57617662600e602f614b3d565b92505050617a6a565b617679868360800151614cbb565b8160a00151600f819055508160c00151601060008873ffffffffffffffffffffffffffffffffffffffff1673ffffffffffffffffffffffffffffffffffffffff168152602001908152602001600020819055506000601360009054906101000a900473ffffffffffffffffffffffffffffffffffffffff1673ffffffffffffffffffffffffffffffffffffffff1663e3d93523883086606001518760c001516040518563ffffffff1660e01b8152600401808573ffffffffffffffffffffffffffffffffffffffff1673ffffffffffffffffffffffffffffffffffffffff1681526020018473ffffffffffffffffffffffffffffffffffffffff1673ffffffffffffffffffffffffffffffffffffffff168152602001838152602001828152602001945050505050602060405180830381600087803b1580156177bb57600080fd5b505af11580156177cf573d6000803e3d6000fd5b505050506040513d60208110156177e557600080fd5b810190808051906020019092919050505090506000811461786e576040517f08c379a00000000000000000000000000000000000000000000000000000000081526004018080602001828103825260188152602001807f444953545249425554455f544f4b454e535f4649414c4544000000000000000081525060200191505060405180910390fd5b3073ffffffffffffffffffffffffffffffffffffffff168773ffffffffffffffffffffffffffffffffffffffff167fddf252ad1be2c89b69c2b068fc378daa952ba7f163c4a11628f55a4df523b3ef85606001516040518082815260200191505060405180910390a37fe5b754fb1abb7f01b499791d0b820ae3b6af3424ac1c59768edb53f4ec31a9298784608001518560600151604051808473ffffffffffffffffffffffffffffffffffffffff1673ffffffffffffffffffffffffffffffffffffffff168152602001838152602001828152602001935050505060405180910390a1600760009054906101000a900473ffffffffffffffffffffffffffffffffffffffff1673ffffffffffffffffffffffffffffffffffffffff166351dff9893089866080015187606001516040518563ffffffff1660e01b8152600401808573ffffffffffffffffffffffffffffffffffffffff1673ffffffffffffffffffffffffffffffffffffffff1681526020018473ffffffffffffffffffffffffffffffffffffffff1673ffffffffffffffffffffffffffffffffffffffff168152602001838152602001828152602001945050505050600060405180830381600087803b158015617a3f57600080fd5b505af1158015617a53573d6000803e3d6000fd5b5050505060006010811115617a6457fe5b93505050505b9392505050565b6000806000600760009054906101000a900473ffffffffffffffffffffffffffffffffffffffff1673ffffffffffffffffffffffffffffffffffffffff16634ef4c3e13087876040518463ffffffff1660e01b8152600401808473ffffffffffffffffffffffffffffffffffffffff1673ffffffffffffffffffffffffffffffffffffffff1681526020018373ffffffffffffffffffffffffffffffffffffffff1673ffffffffffffffffffffffffffffffffffffffff1681526020018281526020019350505050602060405180830381600087803b158015617b5357600080fd5b505af1158015617b67573d6000803e3d6000fd5b505050506040513d6020811015617b7d57600080fd5b8101908080519060200190929190505050905060008114617bb457617ba56003601f83614bb9565b600080905092509250506182cf565b617bbc614bb1565b600b5414617bdf57617bd0600a6022614b3d565b600080905092509250506182cf565b617be7619564565b617bef61376b565b826020018360400182815250826003811115617c0757fe5b6003811115617c1257fe5b815250505060006003811115617c2457fe5b81602001516003811115617c3457fe5b14617c6557617c556009602183602001516003811115617c5057fe5b614bb9565b60008090509350935050506182cf565b617c6f8686615af8565b8160c0018181525050617c988160c0015160405180602001604052808460400151815250614c2d565b826020018360600182815250826003811115617cb057fe5b6003811115617cbb57fe5b815250505060006003811115617ccd57fe5b81602001516003811115617cdd57fe5b14617d50576040517f08c379a00000000000000000000000000000000000000000000000000000000081526004018080602001828103825260208152602001807f4d494e545f45584348414e47455f43414c43554c4154494f4e5f4641494c454481525060200191505060405180910390fd5b617d60600f548260600151615ed6565b826020018360800182815250826003811115617d7857fe5b6003811115617d8357fe5b815250505060006003811115617d9557fe5b81602001516003811115617da557fe5b14617dfb576040517f08c379a00000000000000000000000000000000000000000000000000000000081526004018080602001828103825260288152602001806198396028913960400191505060405180910390fd5b617e48601060008873ffffffffffffffffffffffffffffffffffffffff1673ffffffffffffffffffffffffffffffffffffffff168152602001908152602001600020548260600151615ed6565b826020018360a00182815250826003811115617e6057fe5b6003811115617e6b57fe5b815250505060006003811115617e7d57fe5b81602001516003811115617e8d57fe5b14617ee3576040517f08c379a000000000000000000000000000000000000000000000000000000000815260040180806020018281038252602b8152602001806196be602b913960400191505060405180910390fd5b8060800151600f819055508060a00151601060008873ffffffffffffffffffffffffffffffffffffffff1673ffffffffffffffffffffffffffffffffffffffff168152602001908152602001600020819055506000601360009054906101000a900473ffffffffffffffffffffffffffffffffffffffff1673ffffffffffffffffffffffffffffffffffffffff166367ef06aa883085606001516040518463ffffffff1660e01b8152600401808473ffffffffffffffffffffffffffffffffffffffff1673ffffffffffffffffffffffffffffffffffffffff1681526020018373ffffffffffffffffffffffffffffffffffffffff1673ffffffffffffffffffffffffffffffffffffffff1681526020018281526020019350505050602060405180830381600087803b15801561801957600080fd5b505af115801561802d573d6000803e3d6000fd5b505050506040513d602081101561804357600080fd5b81019080805190602001909291905050509050600081146180cc576040517f08c379a00000000000000000000000000000000000000000000000000000000081526004018080602001828103825260188152602001807f444953545249425554455f544f4b454e535f4649414c4544000000000000000081525060200191505060405180910390fd5b7f4c209b5fc8ad50758f13e2e1088ba56a560dff690a1c6fef26394f4c03821c4f878360c001518460600151604051808473ffffffffffffffffffffffffffffffffffffffff1673ffffffffffffffffffffffffffffffffffffffff168152602001838152602001828152602001935050505060405180910390a18673ffffffffffffffffffffffffffffffffffffffff163073ffffffffffffffffffffffffffffffffffffffff167fddf252ad1be2c89b69c2b068fc378daa952ba7f163c4a11628f55a4df523b3ef84606001516040518082815260200191505060405180910390a3600760009054906101000a900473ffffffffffffffffffffffffffffffffffffffff1673ffffffffffffffffffffffffffffffffffffffff166341c728b930898560c0015186606001516040518563ffffffff1660e01b8152600401808573ffffffffffffffffffffffffffffffffffffffff1673ffffffffffffffffffffffffffffffffffffffff1681526020018473ffffffffffffffffffffffffffffffffffffffff1673ffffffffffffffffffffffffffffffffffffffff168152602001838152602001828152602001945050505050600060405180830381600087803b15801561829d57600080fd5b505af11580156182b1573d6000803e3d6000fd5b50505050600060108111156182c257fe5b8260c00151945094505050505b9250929050565b60008060008414156182f15760008080905091509150618322565b600083850290508385828161830257fe5b041461831957600260008090509250925050618322565b60008192509250505b9250929050565b6000806000831415618345576001600080905091509150618356565b600083858161835057fe5b04915091505b9250929050565b600080600760009054906101000a900473ffffffffffffffffffffffffffffffffffffffff1673ffffffffffffffffffffffffffffffffffffffff1663da3d454c3086866040518463ffffffff1660e01b8152600401808473ffffffffffffffffffffffffffffffffffffffff1673ffffffffffffffffffffffffffffffffffffffff1681526020018373ffffffffffffffffffffffffffffffffffffffff1673ffffffffffffffffffffffffffffffffffffffff1681526020018281526020019350505050602060405180830381600087803b15801561843d57600080fd5b505af1158015618451573d6000803e3d6000fd5b505050506040513d602081101561846757600080fd5b81019080805190602001909291905050509050600081146184975761848f6003600e83614bb9565b915050618a1b565b61849f614bb1565b600b54146184ba576184b2600a80614b3d565b915050618a1b565b826184c36143bc565b10156184dd576184d5600e6009614b3d565b915050618a1b565b6184e5619612565b6184ee85615f08565b82600001836020018281525082600381111561850657fe5b600381111561851157fe5b81525050506000600381111561852357fe5b8160000151600381111561853357fe5b1461855d57618554600960078360000151600381111561854f57fe5b614bb9565b92505050618a1b565b61856b816020015185615ed6565b82600001836040018281525082600381111561858357fe5b600381111561858e57fe5b8152505050600060038111156185a057fe5b816000015160038111156185b057fe5b146185da576185d16009600c836000015160038111156185cc57fe5b614bb9565b92505050618a1b565b6185e6600d5485615ed6565b8260000183606001828152508260038111156185fe57fe5b600381111561860957fe5b81525050506000600381111561861b57fe5b8160000151600381111561862b57fe5b146186555761864c6009600b8360000151600381111561864757fe5b614bb9565b92505050618a1b565b61865f8585614cbb565b8060400151601260008773ffffffffffffffffffffffffffffffffffffffff1673ffffffffffffffffffffffffffffffffffffffff16815260200190815260200160002060000181905550600c54601260008773ffffffffffffffffffffffffffffffffffffffff1673ffffffffffffffffffffffffffffffffffffffff168152602001908152602001600020600101819055508060600151600d819055506000601360009054906101000a900473ffffffffffffffffffffffffffffffffffffffff1673ffffffffffffffffffffffffffffffffffffffff1663c7bbb1138730886040518463ffffffff1660e01b8152600401808473ffffffffffffffffffffffffffffffffffffffff1673ffffffffffffffffffffffffffffffffffffffff1681526020018373ffffffffffffffffffffffffffffffffffffffff1673ffffffffffffffffffffffffffffffffffffffff1681526020018281526020019350505050602060405180830381600087803b1580156187dd57600080fd5b505af11580156187f1573d6000803e3d6000fd5b505050506040513d602081101561880757600080fd5b8101908080519060200190929190505050905060008114618890576040517f08c379a00000000000000000000000000000000000000000000000000000000081526004018080602001828103825260188152602001807f444953545249425554455f544f4b454e535f4649414c4544000000000000000081525060200191505060405180910390fd5b7f13ed6866d4e1ee6da46f845c46d7e54120883d75c5ea9a2dacc1c4ca8984ab80868684604001518560600151604051808573ffffffffffffffffffffffffffffffffffffffff1673ffffffffffffffffffffffffffffffffffffffff16815260200184815260200183815260200182815260200194505050505060405180910390a1600760009054906101000a900473ffffffffffffffffffffffffffffffffffffffff1673ffffffffffffffffffffffffffffffffffffffff16635c7786053088886040518463ffffffff1660e01b8152600401808473ffffffffffffffffffffffffffffffffffffffff1673ffffffffffffffffffffffffffffffffffffffff1681526020018373ffffffffffffffffffffffffffffffffffffffff1673ffffffffffffffffffffffffffffffffffffffff1681526020018281526020019350505050600060405180830381600087803b1580156189f057600080fd5b505af1158015618a04573d6000803e3d6000fd5b5050505060006010811115618a1557fe5b93505050505b92915050565b6000806000600760009054906101000a900473ffffffffffffffffffffffffffffffffffffffff1673ffffffffffffffffffffffffffffffffffffffff16635fc7e71e30868a8a8a6040518663ffffffff1660e01b8152600401808673ffffffffffffffffffffffffffffffffffffffff1673ffffffffffffffffffffffffffffffffffffffff1681526020018573ffffffffffffffffffffffffffffffffffffffff1673ffffffffffffffffffffffffffffffffffffffff1681526020018473ffffffffffffffffffffffffffffffffffffffff1673ffffffffffffffffffffffffffffffffffffffff1681526020018373ffffffffffffffffffffffffffffffffffffffff1673ffffffffffffffffffffffffffffffffffffffff16815260200182815260200195505050505050602060405180830381600087803b158015618b6b57600080fd5b505af1158015618b7f573d6000803e3d6000fd5b505050506040513d6020811015618b9557600080fd5b8101908080519060200190929190505050905060008114618bcc57618bbd6003601283614bb9565b60008090509250925050619475565b618bd4614bb1565b600b5414618bf757618be8600a6016614b3d565b60008090509250925050619475565b618bff614bb1565b8473ffffffffffffffffffffffffffffffffffffffff1663991754d26040518163ffffffff1660e01b815260040160206040518083038186803b158015618c4557600080fd5b505afa158015618c59573d6000803e3d6000fd5b505050506040513d6020811015618c6f57600080fd5b810190808051906020019092919050505014618ca057618c91600a6011614b3d565b60008090509250925050619475565b8673ffffffffffffffffffffffffffffffffffffffff168673ffffffffffffffffffffffffffffffffffffffff161415618cef57618ce060066017614b3d565b60008090509250925050619475565b6000851415618d1357618d0460076015614b3d565b60008090509250925050619475565b7fffffffffffffffffffffffffffffffffffffffffffffffffffffffffffffffff851415618d5657618d4760076014614b3d565b60008090509250925050619475565b600080618d64898989616509565b9150915060006010811115618d7557fe5b8214618da257618d91826010811115618d8a57fe5b6018614b3d565b600080905094509450505050619475565b600080600760009054906101000a900473ffffffffffffffffffffffffffffffffffffffff1673ffffffffffffffffffffffffffffffffffffffff1663c488847b308a866040518463ffffffff1660e01b8152600401808473ffffffffffffffffffffffffffffffffffffffff1673ffffffffffffffffffffffffffffffffffffffff1681526020018373ffffffffffffffffffffffffffffffffffffffff1673ffffffffffffffffffffffffffffffffffffffff1681526020018281526020019350505050604080518083038186803b158015618e7f57600080fd5b505afa158015618e93573d6000803e3d6000fd5b505050506040513d6040811015618ea957600080fd5b8101908080519060200190929190805190602001909291905050509150915060006010811115618ed557fe5b8214618f2c576040517f08c379a00000000000000000000000000000000000000000000000000000000081526004018080602001828103825260328152602001806197206032913960400191505060405180910390fd5b808873ffffffffffffffffffffffffffffffffffffffff166370a082318c6040518263ffffffff1660e01b8152600401808273ffffffffffffffffffffffffffffffffffffffff1673ffffffffffffffffffffffffffffffffffffffff16815260200191505060206040518083038186803b158015618faa57600080fd5b505afa158015618fbe573d6000803e3d6000fd5b505050506040513d6020811015618fd457600080fd5b81019080805190602001909291905050501015619059576040517f08c379a00000000000000000000000000000000000000000000000000000000081526004018080602001828103825260188152602001807f4c49515549444154455f5345495a455f544f4f5f4d554348000000000000000081525060200191505060405180910390fd5b60003073ffffffffffffffffffffffffffffffffffffffff168973ffffffffffffffffffffffffffffffffffffffff1614156190a25761909b308d8d85615254565b905061919b565b8873ffffffffffffffffffffffffffffffffffffffff1663b2a02ff18d8d856040518463ffffffff1660e01b8152600401808473ffffffffffffffffffffffffffffffffffffffff1673ffffffffffffffffffffffffffffffffffffffff1681526020018373ffffffffffffffffffffffffffffffffffffffff1673ffffffffffffffffffffffffffffffffffffffff1681526020018281526020019350505050602060405180830381600087803b15801561915d57600080fd5b505af1158015619171573d6000803e3d6000fd5b505050506040513d602081101561918757600080fd5b810190808051906020019092919050505090505b600060108111156191a857fe5b811461921c576040517f08c379a00000000000000000000000000000000000000000000000000000000081526004018080602001828103825260148152602001807f746f6b656e207365697a757265206661696c656400000000000000000000000081525060200191505060405180910390fd5b7f298637f684da70674f26509b10f07ec2fbc77a335ab1e7d6215a4b2484d8bb528c8c868c86604051808673ffffffffffffffffffffffffffffffffffffffff1673ffffffffffffffffffffffffffffffffffffffff1681526020018573ffffffffffffffffffffffffffffffffffffffff1673ffffffffffffffffffffffffffffffffffffffff1681526020018481526020018373ffffffffffffffffffffffffffffffffffffffff1673ffffffffffffffffffffffffffffffffffffffff1681526020018281526020019550505050505060405180910390a1600760009054906101000a900473ffffffffffffffffffffffffffffffffffffffff1673ffffffffffffffffffffffffffffffffffffffff166347ef3b3b308b8f8f89886040518763ffffffff1660e01b8152600401808773ffffffffffffffffffffffffffffffffffffffff1673ffffffffffffffffffffffffffffffffffffffff1681526020018673ffffffffffffffffffffffffffffffffffffffff1673ffffffffffffffffffffffffffffffffffffffff1681526020018573ffffffffffffffffffffffffffffffffffffffff1673ffffffffffffffffffffffffffffffffffffffff1681526020018473ffffffffffffffffffffffffffffffffffffffff1673ffffffffffffffffffffffffffffffffffffffff1681526020018381526020018281526020019650505050505050600060405180830381600087803b15801561944457600080fd5b505af1158015619458573d6000803e3d6000fd5b505050506000601081111561946957fe5b84975097505050505050505b94509492505050565b6040518060200160405280600081525090565b6040518060e00160405280600060108111156194a957fe5b8152602001600060038111156194bb57fe5b815260200160008152602001600081526020016000815260200160008152602001600081525090565b828054600181600116156101000203166002900490600052602060002090601f016020900481019282601f1061952557805160ff1916838001178555619553565b82800160010185558215619553579182015b82811115619552578251825591602001919060010190619537565b5b5090506195609190619645565b5090565b6040518060e001604052806000601081111561957c57fe5b81526020016000600381111561958e57fe5b815260200160008152602001600081526020016000815260200160008152602001600081525090565b604051806101000160405280600060108111156195d057fe5b8152602001600060038111156195e257fe5b81526020016000815260200160008152602001600081526020016000815260200160008152602001600081525090565b60405180608001604052806000600381111561962a57fe5b81526020016000815260200160008152602001600081525090565b61966791905b8082111561966357600081600090555060010161964b565b5090565b9056fe6d61726b6574206d6179206f6e6c7920626520696e697469616c697a6564206f6e6365696e697469616c2065786368616e67652072617465206d7573742062652067726561746572207468616e207a65726f2e4d494e545f4e45575f4143434f554e545f42414c414e43455f43414c43554c4154494f4e5f4641494c4544626f72726f7742616c616e636553746f7265643a20626f72726f7742616c616e636553746f726564496e7465726e616c206661696c65644c49515549444154455f434f4e54524f4c4c45525f43414c43554c4154455f414d4f554e545f5345495a455f4641494c454452455041595f424f52524f575f4e45575f4143434f554e545f424f52524f575f42414c414e43455f43414c43554c4154494f4e5f4641494c454452455041595f424f52524f575f4e45575f544f54414c5f42414c414e43455f43414c43554c4154494f4e5f4641494c45446f6e6c792068444f4c2063616e20626520726564756365642074686520737570706c796f6e6c792068444f4c2063616e20626520657870616e6465642074686520737570706c7965786368616e67655261746553746f7265643a2065786368616e67655261746553746f726564496e7465726e616c206661696c65644d494e545f4e45575f544f54414c5f535550504c595f43414c43554c4154494f4e5f4641494c45446f6e65206f662072656465656d546f6b656e73496e206f722072656465656d416d6f756e74496e206d757374206265207a65726f72656475636520726573657276657320756e657870656374656420756e646572666c6f77a264697066735822122025fe3bfff47883fc2457d00674d2f005415f8c4925e918faf734d0d6afb5e4b564736f6c63430006000033",
  "source": "pragma solidity ^0.6.0;\n\nimport \"./libraries/Strings.sol\";\nimport \"./HToken.sol\";\nimport \"./DOL.sol\";\n\n/**\n * @title Hades' HErc20 Contract\n * @notice HTokens which wrap an EIP-20 underlying\n * @author Hades\n */\ncontract HErc20 is HToken, HErc20Interface {\n\taddress public underlying;\n\n\t/**\n\t * @notice Initialize the new money market\n\t * @param _underlying The address of the underlying asset\n\t * @param _controller The address of the MarketController\n\t * @param _interestRateStrategy The address of the interest rate model\n\t * @param _distributor The address of the distributor contract\n\t * @param _name ERC-20 name of this token\n\t * @param _symbol ERC-20 symbol of this token\n\t * @param _anchorSymbol The anchor asset\n\t */\n\tfunction initialize(\n\t\taddress payable _admin,\n\t\taddress _underlying,\n\t\tMarketControllerInterface _controller,\n\t\tInterestRateStrategyInterface _interestRateStrategy,\n\t\tDistributorInterface _distributor,\n\t\tstring calldata _name,\n\t\tstring calldata _symbol,\n\t\tstring calldata _anchorSymbol\n\t) external {\n\t\t// HToken initialize does the bulk of the work\n\t\tsuper.initialize(_admin, _controller, _interestRateStrategy, _distributor, _name, _symbol, _anchorSymbol);\n\n\t\t// Set underlying and sanity check it\n\t\tunderlying = _underlying;\n\t\tEIP20Interface(underlying).totalSupply();\n\t}\n\n\t/*** User Interface ***/\n\n\t/**\n\t * @notice Sender supplies assets into the market and receives hTokens in exchange\n\t * @dev Accrues interest whether or not the operation succeeds, unless reverted\n\t * @param mintAmount The amount of the underlying asset to supply\n\t * @return uint 0=success, otherwise a failure (see ErrorReporter.sol for details)\n\t */\n\tfunction mint(uint256 mintAmount) external override returns (uint256) {\n\t\t(uint256 err, ) = mintInternal(mintAmount);\n\t\treturn err;\n\t}\n\n\t/**\n\t * @notice Sender redeems hTokens in exchange for the underlying asset\n\t * @dev Accrues interest whether or not the operation succeeds, unless reverted\n\t * @param redeemTokens The number of hTokens to redeem into underlying\n\t * @return uint 0=success, otherwise a failure (see ErrorReporter.sol for details)\n\t */\n\tfunction redeem(uint256 redeemTokens) external override returns (uint256) {\n\t\treturn redeemInternal(redeemTokens);\n\t}\n\n\t/**\n\t * @notice Sender redeems hTokens in exchange for a specified amount of underlying asset\n\t * @dev Accrues interest whether or not the operation succeeds, unless reverted\n\t * @param redeemAmount The amount of underlying to redeem\n\t * @return uint 0=success, otherwise a failure (see ErrorReporter.sol for details)\n\t */\n\tfunction redeemUnderlying(uint256 redeemAmount) external override returns (uint256) {\n\t\treturn redeemUnderlyingInternal(redeemAmount);\n\t}\n\n\t/**\n\t * @notice Sender borrows assets from the protocol to their own address\n\t * @param borrowAmount The amount of the underlying asset to borrow\n\t * @return uint 0=success, otherwise a failure (see ErrorReporter.sol for details)\n\t */\n\tfunction borrow(uint256 borrowAmount) external override returns (uint256) {\n\t\treturn borrowInternal(borrowAmount);\n\t}\n\n\t/**\n\t * @notice Sender repays their own borrow\n\t * @param repayAmount The amount to repay\n\t * @return uint 0=success, otherwise a failure (see ErrorReporter.sol for details)\n\t */\n\tfunction repayBorrow(uint256 repayAmount) external override returns (uint256) {\n\t\t(uint256 err, ) = repayBorrowInternal(repayAmount);\n\t\treturn err;\n\t}\n\n\t/**\n\t * @notice Sender repays a borrow belonging to borrower\n\t * @param borrower the account with the debt being payed off\n\t * @param repayAmount The amount to repay\n\t * @return uint 0=success, otherwise a failure (see ErrorReporter.sol for details)\n\t */\n\tfunction repayBorrowBehalf(address borrower, uint256 repayAmount) external override returns (uint256) {\n\t\t(uint256 err, ) = repayBorrowBehalfInternal(borrower, repayAmount);\n\t\treturn err;\n\t}\n\n\t/**\n\t * @notice The sender liquidates the borrowers collateral.\n\t *  The collateral seized is transferred to the liquidator.\n\t * @param borrower The borrower of this hToken to be liquidated\n\t * @param repayAmount The amount of the underlying borrowed asset to repay\n\t * @param hTokenCollateral The market in which to seize collateral from the borrower\n\t * @return uint 0=success, otherwise a failure (see ErrorReporter.sol for details)\n\t */\n\tfunction liquidateBorrow(\n\t\taddress borrower,\n\t\tuint256 repayAmount,\n\t\tHTokenInterface hTokenCollateral\n\t) external override returns (uint256) {\n\t\t(uint256 err, ) = liquidateBorrowInternal(borrower, repayAmount, hTokenCollateral);\n\t\treturn err;\n\t}\n\n\t/*** Safe Token ***/\n\n\t/**\n\t * @notice Gets balance of this contract in terms of the underlying\n\t * @dev This excludes the value of the current message, if any\n\t * @return The quantity of underlying tokens owned by this contract\n\t */\n\tfunction getCashPrior() internal override view returns (uint256) {\n\t\tEIP20Interface token = EIP20Interface(underlying);\n\t\treturn token.balanceOf(address(this));\n\t}\n\n\t/**\n\t * @dev Similar to EIP20 transfer, except it handles a False result from `transferFrom` and reverts in that case.\n\t *      This will revert due to insufficient balance or insufficient allowance.\n\t *      This function returns the actual amount received,\n\t *      which may be less than `amount` if there is a fee attached to the transfer.\n\t *\n\t *      Note: This wrapper safely handles non-standard ERC-20 tokens that do not return a value.\n\t *            See here: https://medium.com/coinmonks/missing-return-value-bug-at-least-130-tokens-affected-d67bf08521ca\n\t */\n\tfunction doTransferIn(address from, uint256 amount) internal override returns (uint256) {\n\t\tEIP20NonStandardInterface token = EIP20NonStandardInterface(underlying);\n\t\tuint256 balanceBefore = EIP20Interface(underlying).balanceOf(address(this));\n\t\ttoken.transferFrom(from, address(this), amount);\n\n\t\tbool success;\n\t\tassembly {\n\t\t\tswitch returndatasize()\n\t\t\t\tcase 0 {\n\t\t\t\t\t// This is a non-standard ERC-20\n\t\t\t\t\tsuccess := not(0) // set success to true\n\t\t\t\t}\n\t\t\t\tcase 32 {\n\t\t\t\t\t// This is a compliant ERC-20\n\t\t\t\t\treturndatacopy(0, 0, 32)\n\t\t\t\t\tsuccess := mload(0) // Set `success = returndata` of external call\n\t\t\t\t}\n\t\t\t\tdefault {\n\t\t\t\t\t// This is an excessively non-compliant ERC-20, revert.\n\t\t\t\t\trevert(0, 0)\n\t\t\t\t}\n\t\t}\n\t\trequire(success, \"TOKEN_TRANSFER_IN_FAILED\");\n\n\t\t// Calculate the amount that was *actually* transferred\n\t\tuint256 balanceAfter = EIP20Interface(underlying).balanceOf(address(this));\n\t\trequire(balanceAfter >= balanceBefore, \"TOKEN_TRANSFER_IN_OVERFLOW\");\n\t\treturn balanceAfter - balanceBefore; // underflow already checked above, just subtract\n\t}\n\n\t/**\n\t * @dev Similar to EIP20 transfer, except it handles a False success from `transfer` and returns an explanatory\n\t *      error code rather than reverting. If caller has not called checked protocol's balance, this may revert due to\n\t *      insufficient cash held in this contract. If caller has checked protocol's balance prior to this call, and verified\n\t *      it is >= amount, this should not revert in normal conditions.\n\t *\n\t *      Note: This wrapper safely handles non-standard ERC-20 tokens that do not return a value.\n\t *            See here: https://medium.com/coinmonks/missing-return-value-bug-at-least-130-tokens-affected-d67bf08521ca\n\t */\n\tfunction doTransferOut(address payable to, uint256 amount) internal override {\n\t\tEIP20NonStandardInterface token = EIP20NonStandardInterface(underlying);\n\t\ttoken.transfer(to, amount);\n\n\t\tbool success;\n\t\tassembly {\n\t\t\tswitch returndatasize()\n\t\t\t\tcase 0 {\n\t\t\t\t\t// This is a non-standard ERC-20\n\t\t\t\t\tsuccess := not(0) // set success to true\n\t\t\t\t}\n\t\t\t\tcase 32 {\n\t\t\t\t\t// This is a complaint ERC-20\n\t\t\t\t\treturndatacopy(0, 0, 32)\n\t\t\t\t\tsuccess := mload(0) // Set `success = returndata` of external call\n\t\t\t\t}\n\t\t\t\tdefault {\n\t\t\t\t\t// This is an excessively non-compliant ERC-20, revert.\n\t\t\t\t\trevert(0, 0)\n\t\t\t\t}\n\t\t}\n\t\trequire(success, \"TOKEN_TRANSFER_OUT_FAILED\");\n\t}\n\n\t/**\n\t * @notice The sender adds to reserves.\n\t * @param addAmount The amount fo underlying token to add as reserves\n\t * @return uint 0=success, otherwise a failure (see ErrorReporter.sol for details)\n\t */\n\tfunction _addReserves(uint256 addAmount) external override returns (uint256) {\n\t\treturn _addReservesInternal(addAmount);\n\t}\n\n\tfunction _mintDOL(uint256 amount) external returns (uint256) {\n\t\trequire(msg.sender == address(controller), \"only admin can expand DOL supply\");\n\t\trequire(Strings.equals(symbol, \"hDOL\"), \"only hDOL can be expanded the supply\");\n\n\t\tuint256 error = accrueInterestInternal();\n\t\tif (error != uint256(Error.NO_ERROR)) {\n\t\t\t// accrueInterest emits logs on errors, but we still want to log the fact that an attempted borrow failed\n\t\t\treturn fail(Error(error), FailureInfo.MINT_ACCRUE_INTEREST_FAILED);\n\t\t}\n\n\t\t/* Verify market's block number equals current block number */\n\t\tif (accrualBlockNumber != getBlockNumber()) {\n\t\t\treturn fail(Error.MARKET_NOT_FRESH, FailureInfo.MINT_FRESHNESS_CHECK);\n\t\t}\n\n\t\tMintLocalVars memory vars;\n\n\t\t(vars.mathErr, vars.exchangeRateMantissa) = exchangeRateStoredInternal();\n\t\tif (vars.mathErr != MathError.NO_ERROR) {\n\t\t\treturn failOpaque(Error.MATH_ERROR, FailureInfo.MINT_EXCHANGE_RATE_READ_FAILED, uint256(vars.mathErr));\n\t\t}\n\n\t\t/////////////////////////\n\t\t// EFFECTS & INTERACTIONS\n\t\t// (No safe failures beyond this point)\n\t\taddress minter = msg.sender;\n\n\t\tvars.actualMintAmount = doTransferIn(minter, amount);\n\n\t\t/*\n\t\t * We get the current exchange rate and calculate the number of hTokens to be minted:\n\t\t *  mintTokens = actualMintAmount / exchangeRate\n\t\t */\n\n\t\t(vars.mathErr, vars.mintTokens) = divScalarByExpTruncate(\n\t\t\tvars.actualMintAmount,\n\t\t\tExp({ mantissa: vars.exchangeRateMantissa })\n\t\t);\n\t\trequire(vars.mathErr == MathError.NO_ERROR, \"MINT_EXCHANGE_CALCULATION_FAILED\");\n\n\t\t/*\n\t\t * We calculate the new total supply of hTokens and minter token balance, checking for overflow:\n\t\t *  totalSupplyNew = totalSupply + mintTokens\n\t\t *  accountTokensNew = accountTokens[minter] + mintTokens\n\t\t */\n\t\t(vars.mathErr, vars.totalSupplyNew) = addUInt(totalSupply, vars.mintTokens);\n\t\trequire(vars.mathErr == MathError.NO_ERROR, \"MINT_NEW_TOTAL_SUPPLY_CALCULATION_FAILED\");\n\n\t\t(vars.mathErr, vars.accountTokensNew) = addUInt(accountTokens[minter], vars.mintTokens);\n\t\trequire(vars.mathErr == MathError.NO_ERROR, \"MINT_NEW_ACCOUNT_BALANCE_CALCULATION_FAILED\");\n\n\t\t/* We emit a Mint event, and a Transfer event */\n\t\temit Mint(minter, vars.actualMintAmount, vars.mintTokens);\n\t\temit Transfer(address(this), minter, vars.mintTokens);\n\n\t\t/* We write previously calculated values into storage */\n\t\ttotalSupply = vars.totalSupplyNew;\n\t\taccountTokens[minter] = vars.accountTokensNew;\n\n\t\t/* We call the defense hook */\n\t\tcontroller.mintVerify(address(this), minter, vars.actualMintAmount, vars.mintTokens);\n\n\t\treturn uint256(Error.NO_ERROR);\n\t}\n\n\tfunction _redeemDOL(uint256 amount) external returns (uint256) {\n\t\trequire(msg.sender == address(controller), \"only admin can reduce DOL supply\");\n\t\trequire(Strings.equals(symbol, \"hDOL\"), \"only hDOL can be reduced the supply\");\n\n\t\tuint256 error = accrueInterestInternal();\n\t\tif (error != uint256(Error.NO_ERROR)) {\n\t\t\t// accrueInterest emits logs on errors, but we still want to log the fact that an attempted borrow failed\n\t\t\treturn fail(Error(error), FailureInfo.MINT_ACCRUE_INTEREST_FAILED);\n\t\t}\n\n\t\t/* Verify market's block number equals current block number */\n\t\tif (accrualBlockNumber != getBlockNumber()) {\n\t\t\treturn fail(Error.MARKET_NOT_FRESH, FailureInfo.MINT_FRESHNESS_CHECK);\n\t\t}\n\n\t\tRedeemLocalVars memory vars;\n\n\t\t/* exchangeRate = invoke Exchange Rate Stored() */\n\t\t(vars.mathErr, vars.exchangeRateMantissa) = exchangeRateStoredInternal();\n\t\tif (vars.mathErr != MathError.NO_ERROR) {\n\t\t\treturn failOpaque(Error.MATH_ERROR, FailureInfo.REDEEM_EXCHANGE_RATE_READ_FAILED, uint256(vars.mathErr));\n\t\t}\n\n\t\t(vars.mathErr, vars.redeemTokens) = divScalarByExpTruncate(amount, Exp({ mantissa: vars.exchangeRateMantissa }));\n\t\tif (vars.mathErr != MathError.NO_ERROR) {\n\t\t\treturn failOpaque(Error.MATH_ERROR, FailureInfo.REDEEM_EXCHANGE_AMOUNT_CALCULATION_FAILED, uint256(vars.mathErr));\n\t\t}\n\n\t\tvars.redeemAmount = amount;\n\n\t\t/*\n\t\t * We calculate the new total supply and redeemer balance, checking for underflow:\n\t\t *  totalSupplyNew = totalSupply - redeemTokens\n\t\t *  accountTokensNew = accountTokens[redeemer] - redeemTokens\n\t\t */\n\t\t(vars.mathErr, vars.totalSupplyNew) = subUInt(totalSupply, vars.redeemTokens);\n\t\tif (vars.mathErr != MathError.NO_ERROR) {\n\t\t\treturn\n\t\t\t\tfailOpaque(Error.MATH_ERROR, FailureInfo.REDEEM_NEW_TOTAL_SUPPLY_CALCULATION_FAILED, uint256(vars.mathErr));\n\t\t}\n\n\t\taddress payable redeemer = msg.sender;\n\t\t(vars.mathErr, vars.accountTokensNew) = subUInt(accountTokens[redeemer], vars.redeemTokens);\n\t\tif (vars.mathErr != MathError.NO_ERROR) {\n\t\t\treturn\n\t\t\t\tfailOpaque(Error.MATH_ERROR, FailureInfo.REDEEM_NEW_ACCOUNT_BALANCE_CALCULATION_FAILED, uint256(vars.mathErr));\n\t\t}\n\n\t\t/* Fail gracefully if protocol has insufficient cash */\n\t\tif (getCashPrior() < vars.redeemAmount) {\n\t\t\treturn fail(Error.TOKEN_INSUFFICIENT_CASH, FailureInfo.REDEEM_TRANSFER_OUT_NOT_POSSIBLE);\n\t\t}\n\n\t\t/////////////////////////\n\t\t// EFFECTS & INTERACTIONS\n\t\t// (No safe failures beyond this point)\n\n\t\t/*\n\t\t * We invoke doTransferOut for the redeemer and the redeemAmount.\n\t\t *  Note: The hToken must handle variations between ERC-20 and ETH underlying.\n\t\t *  On success, the hToken has redeemAmount less of cash.\n\t\t *  doTransferOut reverts if anything goes wrong, since we can't be sure if side effects occurred.\n\t\t */\n\t\tdoTransferOut(redeemer, vars.redeemAmount);\n\n\t\t/* We write previously calculated values into storage */\n\t\ttotalSupply = vars.totalSupplyNew;\n\t\taccountTokens[redeemer] = vars.accountTokensNew;\n\n\t\t/* We emit a Transfer event, and a Redeem event */\n\t\temit Transfer(redeemer, address(this), vars.redeemTokens);\n\t\temit Redeem(redeemer, vars.redeemAmount, vars.redeemTokens);\n\n\t\t/* We call the defense hook */\n\t\tcontroller.redeemVerify(address(this), redeemer, vars.redeemTokens, vars.redeemAmount);\n\n\t\treturn uint256(Error.NO_ERROR);\n\t}\n}\n",
  "sourcePath": "/hades/evm-contracts/src/HErc20.sol",
  "compiler": {
    "name": "solc",
    "version": "0.6.0+commit.26b70077.Emscripten.clang"
  },
  "schemaVersion": "3.2.4",
  "updatedAt": "2020-10-27T12:03:43.039Z",
  "networkType": "ethereum",
  "devdoc": {
    "author": "Hades",
    "methods": {
      "_addReserves(uint256)": {
        "params": {
          "addAmount": "The amount fo underlying token to add as reserves"
        },
        "returns": {
          "_0": "uint 0=success, otherwise a failure (see ErrorReporter.sol for details)"
        }
      },
      "_reduceReserves(uint256)": {
        "params": {
          "reduceAmount": "Amount of reduction to reserves"
        },
        "returns": {
          "_0": "uint 0=success, otherwise a failure (see ErrorReporter.sol for details)"
        }
      },
      "_setReserveFactor(uint256)": {
        "details": "Admin function to accrue interest and set a new reserve factor",
        "returns": {
          "_0": "uint 0=success, otherwise a failure (see ErrorReporter.sol for details)"
        }
      },
      "allowance(address,address)": {
        "params": {
          "owner": "The address of the account which owns the tokens to be spent",
          "spender": "The address of the account which may transfer tokens"
        },
        "returns": {
          "_0": "The number of tokens allowed to be spent (-1 means infinite)"
        }
      },
      "approve(address,uint256)": {
        "details": "This will overwrite the approval amount for `spender` and is subject to issues noted [here](https://eips.ethereum.org/EIPS/eip-20#approve)",
        "params": {
          "amount": "The number of tokens that are approved (-1 means infinite)",
          "spender": "The address of the account which may transfer tokens"
        },
        "returns": {
          "_0": "Whether or not the approval succeeded"
        }
      },
      "balanceOf(address)": {
        "params": {
          "owner": "The address of the account to query"
        },
        "returns": {
          "_0": "The number of tokens owned by `owner`"
        }
      },
      "balanceOfUnderlying(address)": {
        "details": "This also accrues interest in a transaction",
        "params": {
          "owner": "The address of the account to query"
        },
        "returns": {
          "_0": "The amount of underlying owned by `owner`"
        }
      },
      "borrow(uint256)": {
        "params": {
          "borrowAmount": "The amount of the underlying asset to borrow"
        },
        "returns": {
          "_0": "uint 0=success, otherwise a failure (see ErrorReporter.sol for details)"
        }
      },
      "borrowBalanceCurrent(address)": {
        "params": {
          "account": "The address whose balance should be calculated after updating borrowIndex"
        },
        "returns": {
          "_0": "The calculated balance"
        }
      },
      "exchangeRateStored()": {
        "details": "This function does not accrue interest before calculating the exchange rate",
        "returns": {
          "_0": "Calculated exchange rate scaled by 1e18"
        }
      },
      "getAccountSnapshot(address)": {
        "details": "This is used by controller to more efficiently perform liquidity checks.",
        "params": {
          "account": "Address of the account to snapshot"
        },
        "returns": {
          "_0": "(possible error, token balance, borrow balance, exchange rate mantissa)"
        }
      },
      "initialize(address,address,address,address,address,string,string,string)": {
        "params": {
          "_anchorSymbol": "The anchor asset",
          "_controller": "The address of the MarketController",
          "_distributor": "The address of the distributor contract",
          "_interestRateStrategy": "The address of the interest rate model",
          "_name": "ERC-20 name of this token",
          "_symbol": "ERC-20 symbol of this token",
          "_underlying": "The address of the underlying asset"
        }
      },
      "initialize(address,address,address,address,string,string,string)": {
        "params": {
          "_controller": "The address of the MarketController",
          "_interestRateStrategy": "The address of the interest rate model",
          "_name": "EIP-20 name of this token",
          "_symbol": "EIP-20 symbol of this token"
        }
      },
      "liquidateBorrow(address,uint256,address)": {
        "params": {
          "borrower": "The borrower of this hToken to be liquidated",
          "hTokenCollateral": "The market in which to seize collateral from the borrower",
          "repayAmount": "The amount of the underlying borrowed asset to repay"
        },
        "returns": {
          "_0": "uint 0=success, otherwise a failure (see ErrorReporter.sol for details)"
        }
      },
      "mint(uint256)": {
        "details": "Accrues interest whether or not the operation succeeds, unless reverted",
        "params": {
          "mintAmount": "The amount of the underlying asset to supply"
        },
        "returns": {
          "_0": "uint 0=success, otherwise a failure (see ErrorReporter.sol for details)"
        }
      },
      "redeem(uint256)": {
        "details": "Accrues interest whether or not the operation succeeds, unless reverted",
        "params": {
          "redeemTokens": "The number of hTokens to redeem into underlying"
        },
        "returns": {
          "_0": "uint 0=success, otherwise a failure (see ErrorReporter.sol for details)"
        }
      },
      "redeemUnderlying(uint256)": {
        "details": "Accrues interest whether or not the operation succeeds, unless reverted",
        "params": {
          "redeemAmount": "The amount of underlying to redeem"
        },
        "returns": {
          "_0": "uint 0=success, otherwise a failure (see ErrorReporter.sol for details)"
        }
      },
      "repayBorrow(uint256)": {
        "params": {
          "repayAmount": "The amount to repay"
        },
        "returns": {
          "_0": "uint 0=success, otherwise a failure (see ErrorReporter.sol for details)"
        }
      },
      "repayBorrowBehalf(address,uint256)": {
        "params": {
          "borrower": "the account with the debt being payed off",
          "repayAmount": "The amount to repay"
        },
        "returns": {
          "_0": "uint 0=success, otherwise a failure (see ErrorReporter.sol for details)"
        }
      },
      "seize(address,address,uint256)": {
        "details": "Will fail unless called by another hToken during the process of liquidation. Its absolutely critical to use msg.sender as the borrowed hToken and not a parameter.",
        "params": {
          "borrower": "The account having collateral seized",
          "liquidator": "The account receiving seized collateral",
          "seizeTokens": "The number of hTokens to seize"
        },
        "returns": {
          "_0": "uint 0=success, otherwise a failure (see ErrorReporter.sol for details)"
        }
      },
      "transfer(address,uint256)": {
        "params": {
          "amount": "The number of tokens to transfer",
          "dst": "The address of the destination account"
        },
        "returns": {
          "_0": "Whether or not the transfer succeeded"
        }
      },
      "transferFrom(address,address,uint256)": {
        "params": {
          "amount": "The number of tokens to transfer",
          "dst": "The address of the destination account",
          "src": "The address of the source account"
        },
        "returns": {
          "_0": "Whether or not the transfer succeeded"
        }
      }
    },
    "title": "Hades' HErc20 Contract"
  },
  "userdoc": {
    "methods": {
      "_addReserves(uint256)": {
        "notice": "The sender adds to reserves."
      },
      "_reduceReserves(uint256)": {
        "notice": "Accrues interest and reduces reserves by transferring to admin"
      },
      "_setReserveFactor(uint256)": {
        "notice": "accrues interest and sets a new reserve factor for the protocol using _setReserveFactorFresh"
      },
      "allowance(address,address)": {
        "notice": "Get the current allowance from `owner` for `spender`"
      },
      "approve(address,uint256)": {
        "notice": "Approve `spender` to transfer up to `amount` from `src`"
      },
      "balanceOf(address)": {
        "notice": "Get the token balance of the `owner`"
      },
      "balanceOfUnderlying(address)": {
        "notice": "Get the underlying balance of the `owner`"
      },
      "borrow(uint256)": {
        "notice": "Sender borrows assets from the protocol to their own address"
      },
      "borrowBalanceCurrent(address)": {
        "notice": "Accrue interest to updated borrowIndex and then calculate account's borrow balance using the updated borrowIndex"
      },
      "borrowRatePerBlock()": {
        "notice": "Returns the current per-block borrow interest rate for this hToken"
      },
      "exchangeRateCurrent()": {
        "notice": "Accrue interest then return the up-to-date exchange rate"
      },
      "exchangeRateStored()": {
        "notice": "Calculates the exchange rate from the underlying to the HToken"
      },
      "getAccountSnapshot(address)": {
        "notice": "Get a snapshot of the account's balances, and the cached exchange rate"
      },
      "getCash()": {
        "notice": "Get cash balance of this hToken in the underlying asset"
      },
      "initialize(address,address,address,address,address,string,string,string)": {
        "notice": "Initialize the new money market"
      },
      "initialize(address,address,address,address,string,string,string)": {
        "notice": "Initialize the money market"
      },
      "liquidateBorrow(address,uint256,address)": {
        "notice": "The sender liquidates the borrowers collateral. The collateral seized is transferred to the liquidator."
      },
      "mint(uint256)": {
        "notice": "Sender supplies assets into the market and receives hTokens in exchange"
      },
      "redeem(uint256)": {
        "notice": "Sender redeems hTokens in exchange for the underlying asset"
      },
      "redeemUnderlying(uint256)": {
        "notice": "Sender redeems hTokens in exchange for a specified amount of underlying asset"
      },
      "repayBorrow(uint256)": {
        "notice": "Sender repays their own borrow"
      },
      "repayBorrowBehalf(address,uint256)": {
        "notice": "Sender repays a borrow belonging to borrower"
      },
      "seize(address,address,uint256)": {
        "notice": "Transfers collateral tokens (this market) to the liquidator."
      },
      "supplyRatePerBlock()": {
        "notice": "Returns the current per-block supply interest rate for this hToken"
      },
      "totalBorrowsCurrent()": {
        "notice": "Returns the current total borrows plus accrued interest"
      },
      "transfer(address,uint256)": {
        "notice": "Transfer `amount` tokens from `msg.sender` to `dst`"
      },
      "transferFrom(address,address,uint256)": {
        "notice": "Transfer `amount` tokens from `src` to `dst`"
      }
    },
    "notice": "HTokens which wrap an EIP-20 underlying"
  }
}