{
  "contractName": "HEther",
  "abi": [
    {
      "anonymous": false,
      "inputs": [
        {
          "indexed": false,
          "internalType": "uint256",
          "name": "cashPrior",
          "type": "uint256"
        },
        {
          "indexed": false,
          "internalType": "uint256",
          "name": "interestAccumulated",
          "type": "uint256"
        },
        {
          "indexed": false,
          "internalType": "uint256",
          "name": "borrowIndex",
          "type": "uint256"
        },
        {
          "indexed": false,
          "internalType": "uint256",
          "name": "totalBorrows",
          "type": "uint256"
        }
      ],
      "name": "AccrueInterest",
      "type": "event"
    },
    {
      "anonymous": false,
      "inputs": [
        {
          "indexed": true,
          "internalType": "address",
          "name": "owner",
          "type": "address"
        },
        {
          "indexed": true,
          "internalType": "address",
          "name": "spender",
          "type": "address"
        },
        {
          "indexed": false,
          "internalType": "uint256",
          "name": "amount",
          "type": "uint256"
        }
      ],
      "name": "Approval",
      "type": "event"
    },
    {
      "anonymous": false,
      "inputs": [
        {
          "indexed": false,
          "internalType": "address",
          "name": "borrower",
          "type": "address"
        },
        {
          "indexed": false,
          "internalType": "uint256",
          "name": "borrowAmount",
          "type": "uint256"
        },
        {
          "indexed": false,
          "internalType": "uint256",
          "name": "accountBorrows",
          "type": "uint256"
        },
        {
          "indexed": false,
          "internalType": "uint256",
          "name": "totalBorrows",
          "type": "uint256"
        }
      ],
      "name": "Borrow",
      "type": "event"
    },
    {
      "anonymous": false,
      "inputs": [
        {
          "indexed": false,
          "internalType": "uint256",
          "name": "error",
          "type": "uint256"
        },
        {
          "indexed": false,
          "internalType": "uint256",
          "name": "info",
          "type": "uint256"
        },
        {
          "indexed": false,
          "internalType": "uint256",
          "name": "detail",
          "type": "uint256"
        }
      ],
      "name": "Failure",
      "type": "event"
    },
    {
      "anonymous": false,
      "inputs": [
        {
          "indexed": false,
          "internalType": "address",
          "name": "liquidator",
          "type": "address"
        },
        {
          "indexed": false,
          "internalType": "address",
          "name": "borrower",
          "type": "address"
        },
        {
          "indexed": false,
          "internalType": "uint256",
          "name": "repayAmount",
          "type": "uint256"
        },
        {
          "indexed": false,
          "internalType": "address",
          "name": "HTokenCollateral",
          "type": "address"
        },
        {
          "indexed": false,
          "internalType": "uint256",
          "name": "seizeTokens",
          "type": "uint256"
        }
      ],
      "name": "LiquidateBorrow",
      "type": "event"
    },
    {
      "anonymous": false,
      "inputs": [
        {
          "indexed": false,
          "internalType": "address",
          "name": "minter",
          "type": "address"
        },
        {
          "indexed": false,
          "internalType": "uint256",
          "name": "mintAmount",
          "type": "uint256"
        },
        {
          "indexed": false,
          "internalType": "uint256",
          "name": "mintTokens",
          "type": "uint256"
        }
      ],
      "name": "Mint",
      "type": "event"
    },
    {
      "anonymous": false,
      "inputs": [
        {
          "indexed": false,
          "internalType": "address",
          "name": "oldAdmin",
          "type": "address"
        },
        {
          "indexed": false,
          "internalType": "address",
          "name": "newAdmin",
          "type": "address"
        }
      ],
      "name": "NewAdmin",
      "type": "event"
    },
    {
      "anonymous": false,
      "inputs": [
        {
          "indexed": false,
          "internalType": "contract MarketControllerInterface",
          "name": "oldMarketController",
          "type": "address"
        },
        {
          "indexed": false,
          "internalType": "contract MarketControllerInterface",
          "name": "newMarketController",
          "type": "address"
        }
      ],
      "name": "NewMarketController",
      "type": "event"
    },
    {
      "anonymous": false,
      "inputs": [
        {
          "indexed": false,
          "internalType": "contract InterestRateStrategyInterface",
          "name": "oldInterestRateStrategy",
          "type": "address"
        },
        {
          "indexed": false,
          "internalType": "contract InterestRateStrategyInterface",
          "name": "newInterestRateStrategy",
          "type": "address"
        }
      ],
      "name": "NewMarketInterestRateStrategy",
      "type": "event"
    },
    {
      "anonymous": false,
      "inputs": [
        {
          "indexed": false,
          "internalType": "address",
          "name": "oldPendingAdmin",
          "type": "address"
        },
        {
          "indexed": false,
          "internalType": "address",
          "name": "newPendingAdmin",
          "type": "address"
        }
      ],
      "name": "NewPendingAdmin",
      "type": "event"
    },
    {
      "anonymous": false,
      "inputs": [
        {
          "indexed": false,
          "internalType": "uint256",
          "name": "oldReserveFactorMantissa",
          "type": "uint256"
        },
        {
          "indexed": false,
          "internalType": "uint256",
          "name": "newReserveFactorMantissa",
          "type": "uint256"
        }
      ],
      "name": "NewReserveFactor",
      "type": "event"
    },
    {
      "anonymous": false,
      "inputs": [
        {
          "indexed": false,
          "internalType": "address",
          "name": "redeemer",
          "type": "address"
        },
        {
          "indexed": false,
          "internalType": "uint256",
          "name": "redeemAmount",
          "type": "uint256"
        },
        {
          "indexed": false,
          "internalType": "uint256",
          "name": "redeemTokens",
          "type": "uint256"
        }
      ],
      "name": "Redeem",
      "type": "event"
    },
    {
      "anonymous": false,
      "inputs": [
        {
          "indexed": false,
          "internalType": "address",
          "name": "payer",
          "type": "address"
        },
        {
          "indexed": false,
          "internalType": "address",
          "name": "borrower",
          "type": "address"
        },
        {
          "indexed": false,
          "internalType": "uint256",
          "name": "repayAmount",
          "type": "uint256"
        },
        {
          "indexed": false,
          "internalType": "uint256",
          "name": "accountBorrows",
          "type": "uint256"
        },
        {
          "indexed": false,
          "internalType": "uint256",
          "name": "totalBorrows",
          "type": "uint256"
        }
      ],
      "name": "RepayBorrow",
      "type": "event"
    },
    {
      "anonymous": false,
      "inputs": [
        {
          "indexed": false,
          "internalType": "address",
          "name": "benefactor",
          "type": "address"
        },
        {
          "indexed": false,
          "internalType": "uint256",
          "name": "addAmount",
          "type": "uint256"
        },
        {
          "indexed": false,
          "internalType": "uint256",
          "name": "newTotalReserves",
          "type": "uint256"
        }
      ],
      "name": "ReservesAdded",
      "type": "event"
    },
    {
      "anonymous": false,
      "inputs": [
        {
          "indexed": false,
          "internalType": "address",
          "name": "admin",
          "type": "address"
        },
        {
          "indexed": false,
          "internalType": "uint256",
          "name": "reduceAmount",
          "type": "uint256"
        },
        {
          "indexed": false,
          "internalType": "uint256",
          "name": "newTotalReserves",
          "type": "uint256"
        }
      ],
      "name": "ReservesReduced",
      "type": "event"
    },
    {
      "anonymous": false,
      "inputs": [
        {
          "indexed": true,
          "internalType": "address",
          "name": "from",
          "type": "address"
        },
        {
          "indexed": true,
          "internalType": "address",
          "name": "to",
          "type": "address"
        },
        {
          "indexed": false,
          "internalType": "uint256",
          "name": "amount",
          "type": "uint256"
        }
      ],
      "name": "Transfer",
      "type": "event"
    },
    {
      "inputs": [],
      "name": "_anchorSymbol",
      "outputs": [
        {
          "internalType": "string",
          "name": "",
          "type": "string"
        }
      ],
      "stateMutability": "view",
      "type": "function"
    },
    {
      "inputs": [
        {
          "internalType": "uint256",
          "name": "reduceAmount",
          "type": "uint256"
        }
      ],
      "name": "_reduceReserves",
      "outputs": [
        {
          "internalType": "uint256",
          "name": "",
          "type": "uint256"
        }
      ],
      "stateMutability": "nonpayable",
      "type": "function"
    },
    {
      "inputs": [
        {
          "internalType": "uint256",
          "name": "newReserveFactorMantissa",
          "type": "uint256"
        }
      ],
      "name": "_setReserveFactor",
      "outputs": [
        {
          "internalType": "uint256",
          "name": "",
          "type": "uint256"
        }
      ],
      "stateMutability": "nonpayable",
      "type": "function"
    },
    {
      "inputs": [],
      "name": "accrualBlockNumber",
      "outputs": [
        {
          "internalType": "uint256",
          "name": "",
          "type": "uint256"
        }
      ],
      "stateMutability": "view",
      "type": "function"
    },
    {
      "inputs": [],
      "name": "accrueInterest",
      "outputs": [
        {
          "internalType": "uint256",
          "name": "",
          "type": "uint256"
        }
      ],
      "stateMutability": "nonpayable",
      "type": "function"
    },
    {
      "inputs": [],
      "name": "admin",
      "outputs": [
        {
          "internalType": "address payable",
          "name": "",
          "type": "address"
        }
      ],
      "stateMutability": "view",
      "type": "function"
    },
    {
      "inputs": [
        {
          "internalType": "address",
          "name": "owner",
          "type": "address"
        },
        {
          "internalType": "address",
          "name": "spender",
          "type": "address"
        }
      ],
      "name": "allowance",
      "outputs": [
        {
          "internalType": "uint256",
          "name": "",
          "type": "uint256"
        }
      ],
      "stateMutability": "view",
      "type": "function"
    },
    {
      "inputs": [],
      "name": "anchorSymbol",
      "outputs": [
        {
          "internalType": "string",
          "name": "",
          "type": "string"
        }
      ],
      "stateMutability": "view",
      "type": "function"
    },
    {
      "inputs": [
        {
          "internalType": "address",
          "name": "spender",
          "type": "address"
        },
        {
          "internalType": "uint256",
          "name": "amount",
          "type": "uint256"
        }
      ],
      "name": "approve",
      "outputs": [
        {
          "internalType": "bool",
          "name": "",
          "type": "bool"
        }
      ],
      "stateMutability": "nonpayable",
      "type": "function"
    },
    {
      "inputs": [
        {
          "internalType": "address",
          "name": "owner",
          "type": "address"
        }
      ],
      "name": "balanceOf",
      "outputs": [
        {
          "internalType": "uint256",
          "name": "",
          "type": "uint256"
        }
      ],
      "stateMutability": "view",
      "type": "function"
    },
    {
      "inputs": [
        {
          "internalType": "address",
          "name": "owner",
          "type": "address"
        }
      ],
      "name": "balanceOfUnderlying",
      "outputs": [
        {
          "internalType": "uint256",
          "name": "",
          "type": "uint256"
        }
      ],
      "stateMutability": "nonpayable",
      "type": "function"
    },
    {
      "inputs": [
        {
          "internalType": "address",
          "name": "account",
          "type": "address"
        }
      ],
      "name": "borrowBalanceCurrent",
      "outputs": [
        {
          "internalType": "uint256",
          "name": "",
          "type": "uint256"
        }
      ],
      "stateMutability": "view",
      "type": "function"
    },
    {
      "inputs": [],
      "name": "borrowIndex",
      "outputs": [
        {
          "internalType": "uint256",
          "name": "",
          "type": "uint256"
        }
      ],
      "stateMutability": "view",
      "type": "function"
    },
    {
      "inputs": [],
      "name": "borrowRatePerBlock",
      "outputs": [
        {
          "internalType": "uint256",
          "name": "",
          "type": "uint256"
        }
      ],
      "stateMutability": "view",
      "type": "function"
    },
    {
      "inputs": [],
      "name": "controller",
      "outputs": [
        {
          "internalType": "contract MarketControllerInterface",
          "name": "",
          "type": "address"
        }
      ],
      "stateMutability": "view",
      "type": "function"
    },
    {
      "inputs": [],
      "name": "decimals",
      "outputs": [
        {
          "internalType": "uint8",
          "name": "",
          "type": "uint8"
        }
      ],
      "stateMutability": "view",
      "type": "function"
    },
    {
      "inputs": [],
      "name": "exchangeRateCurrent",
      "outputs": [
        {
          "internalType": "uint256",
          "name": "",
          "type": "uint256"
        }
      ],
      "stateMutability": "view",
      "type": "function"
    },
    {
      "inputs": [],
      "name": "exchangeRateStored",
      "outputs": [
        {
          "internalType": "uint256",
          "name": "",
          "type": "uint256"
        }
      ],
      "stateMutability": "view",
      "type": "function"
    },
    {
      "inputs": [
        {
          "internalType": "address",
          "name": "account",
          "type": "address"
        }
      ],
      "name": "getAccountSnapshot",
      "outputs": [
        {
          "internalType": "uint256",
          "name": "",
          "type": "uint256"
        },
        {
          "internalType": "uint256",
          "name": "",
          "type": "uint256"
        },
        {
          "internalType": "uint256",
          "name": "",
          "type": "uint256"
        },
        {
          "internalType": "uint256",
          "name": "",
          "type": "uint256"
        }
      ],
      "stateMutability": "view",
      "type": "function"
    },
    {
      "inputs": [],
      "name": "getAccrualBlockNumber",
      "outputs": [
        {
          "internalType": "uint256",
          "name": "",
          "type": "uint256"
        }
      ],
      "stateMutability": "view",
      "type": "function"
    },
    {
      "inputs": [],
      "name": "getCash",
      "outputs": [
        {
          "internalType": "uint256",
          "name": "",
          "type": "uint256"
        }
      ],
      "stateMutability": "view",
      "type": "function"
    },
    {
      "inputs": [],
      "name": "initialExchangeRateMantissa",
      "outputs": [
        {
          "internalType": "uint256",
          "name": "",
          "type": "uint256"
        }
      ],
      "stateMutability": "view",
      "type": "function"
    },
    {
      "inputs": [],
      "name": "interestRateStrategy",
      "outputs": [
        {
          "internalType": "contract InterestRateStrategyInterface",
          "name": "",
          "type": "address"
        }
      ],
      "stateMutability": "view",
      "type": "function"
    },
    {
      "inputs": [],
      "name": "name",
      "outputs": [
        {
          "internalType": "string",
          "name": "",
          "type": "string"
        }
      ],
      "stateMutability": "view",
      "type": "function"
    },
    {
      "inputs": [],
      "name": "pendingAdmin",
      "outputs": [
        {
          "internalType": "address payable",
          "name": "",
          "type": "address"
        }
      ],
      "stateMutability": "view",
      "type": "function"
    },
    {
      "inputs": [],
      "name": "reserveFactorMantissa",
      "outputs": [
        {
          "internalType": "uint256",
          "name": "",
          "type": "uint256"
        }
      ],
      "stateMutability": "view",
      "type": "function"
    },
    {
      "inputs": [
        {
          "internalType": "address",
          "name": "liquidator",
          "type": "address"
        },
        {
          "internalType": "address",
          "name": "borrower",
          "type": "address"
        },
        {
          "internalType": "uint256",
          "name": "seizeTokens",
          "type": "uint256"
        }
      ],
      "name": "seize",
      "outputs": [
        {
          "internalType": "uint256",
          "name": "",
          "type": "uint256"
        }
      ],
      "stateMutability": "nonpayable",
      "type": "function"
    },
    {
      "inputs": [],
      "name": "supplyRatePerBlock",
      "outputs": [
        {
          "internalType": "uint256",
          "name": "",
          "type": "uint256"
        }
      ],
      "stateMutability": "view",
      "type": "function"
    },
    {
      "inputs": [],
      "name": "symbol",
      "outputs": [
        {
          "internalType": "string",
          "name": "",
          "type": "string"
        }
      ],
      "stateMutability": "view",
      "type": "function"
    },
    {
      "inputs": [],
      "name": "totalBorrows",
      "outputs": [
        {
          "internalType": "uint256",
          "name": "",
          "type": "uint256"
        }
      ],
      "stateMutability": "view",
      "type": "function"
    },
    {
      "inputs": [],
      "name": "totalBorrowsCurrent",
      "outputs": [
        {
          "internalType": "uint256",
          "name": "",
          "type": "uint256"
        }
      ],
      "stateMutability": "view",
      "type": "function"
    },
    {
      "inputs": [],
      "name": "totalReserves",
      "outputs": [
        {
          "internalType": "uint256",
          "name": "",
          "type": "uint256"
        }
      ],
      "stateMutability": "view",
      "type": "function"
    },
    {
      "inputs": [],
      "name": "totalSupply",
      "outputs": [
        {
          "internalType": "uint256",
          "name": "",
          "type": "uint256"
        }
      ],
      "stateMutability": "view",
      "type": "function"
    },
    {
      "inputs": [
        {
          "internalType": "address",
          "name": "dst",
          "type": "address"
        },
        {
          "internalType": "uint256",
          "name": "amount",
          "type": "uint256"
        }
      ],
      "name": "transfer",
      "outputs": [
        {
          "internalType": "bool",
          "name": "",
          "type": "bool"
        }
      ],
      "stateMutability": "nonpayable",
      "type": "function"
    },
    {
      "inputs": [
        {
          "internalType": "address",
          "name": "src",
          "type": "address"
        },
        {
          "internalType": "address",
          "name": "dst",
          "type": "address"
        },
        {
          "internalType": "uint256",
          "name": "amount",
          "type": "uint256"
        }
      ],
      "name": "transferFrom",
      "outputs": [
        {
          "internalType": "bool",
          "name": "",
          "type": "bool"
        }
      ],
      "stateMutability": "nonpayable",
      "type": "function"
    },
    {
      "stateMutability": "payable",
      "type": "receive"
    },
    {
      "inputs": [
        {
          "internalType": "address payable",
          "name": "_admin",
          "type": "address"
        },
        {
          "internalType": "contract MarketControllerInterface",
          "name": "_controller",
          "type": "address"
        },
        {
          "internalType": "contract InterestRateStrategyInterface",
          "name": "_interestRateStrategy",
          "type": "address"
        },
        {
          "internalType": "contract DistributorInterface",
          "name": "_distributor",
          "type": "address"
        },
        {
          "internalType": "string",
          "name": "_name",
          "type": "string"
        },
        {
          "internalType": "string",
          "name": "_symbol",
          "type": "string"
        },
        {
          "internalType": "string",
          "name": "_anchor",
          "type": "string"
        }
      ],
      "name": "initialize",
      "outputs": [],
      "stateMutability": "nonpayable",
      "type": "function"
    },
    {
      "inputs": [
        {
          "internalType": "address payable",
          "name": "_admin",
          "type": "address"
        },
        {
          "internalType": "contract MarketControllerInterface",
          "name": "_controller",
          "type": "address"
        },
        {
          "internalType": "contract InterestRateStrategyInterface",
          "name": "_interestRateStrategy",
          "type": "address"
        },
        {
          "internalType": "contract DistributorInterface",
          "name": "_distributor",
          "type": "address"
        },
        {
          "internalType": "string",
          "name": "_name",
          "type": "string"
        },
        {
          "internalType": "string",
          "name": "_symbol",
          "type": "string"
        }
      ],
      "name": "initialize",
      "outputs": [],
      "stateMutability": "nonpayable",
      "type": "function"
    },
    {
      "inputs": [],
      "name": "mint",
      "outputs": [],
      "stateMutability": "payable",
      "type": "function"
    },
    {
      "inputs": [
        {
          "internalType": "uint256",
          "name": "redeemTokens",
          "type": "uint256"
        }
      ],
      "name": "redeem",
      "outputs": [
        {
          "internalType": "uint256",
          "name": "",
          "type": "uint256"
        }
      ],
      "stateMutability": "nonpayable",
      "type": "function"
    },
    {
      "inputs": [
        {
          "internalType": "uint256",
          "name": "redeemAmount",
          "type": "uint256"
        }
      ],
      "name": "redeemUnderlying",
      "outputs": [
        {
          "internalType": "uint256",
          "name": "",
          "type": "uint256"
        }
      ],
      "stateMutability": "nonpayable",
      "type": "function"
    },
    {
      "inputs": [
        {
          "internalType": "uint256",
          "name": "borrowAmount",
          "type": "uint256"
        }
      ],
      "name": "borrow",
      "outputs": [
        {
          "internalType": "uint256",
          "name": "",
          "type": "uint256"
        }
      ],
      "stateMutability": "nonpayable",
      "type": "function"
    },
    {
      "inputs": [],
      "name": "repayBorrow",
      "outputs": [],
      "stateMutability": "payable",
      "type": "function"
    },
    {
      "inputs": [
        {
          "internalType": "address",
          "name": "borrower",
          "type": "address"
        }
      ],
      "name": "repayBorrowBehalf",
      "outputs": [],
      "stateMutability": "payable",
      "type": "function"
    },
    {
      "inputs": [
        {
          "internalType": "address",
          "name": "borrower",
          "type": "address"
        },
        {
          "internalType": "contract HToken",
          "name": "hTokenCollateral",
          "type": "address"
        }
      ],
      "name": "liquidateBorrow",
      "outputs": [],
      "stateMutability": "payable",
      "type": "function"
    }
  ],
  "bytecode": "0x60806040523480156200001157600080fd5b5061851280620000226000396000f3fe60806040526004361061026b5760003560e01c8063852a12e311610144578063b2a02ff1116100b6578063dd62ed3e1161007a578063dd62ed3e14611174578063e5974619146111f9578063f77c47911461123d578063f851a44014611294578063f8f9da28146112eb578063fca7820b14611316576102c0565b8063b2a02ff114610fa2578063bd6d894d14611031578063c37f68e21461105c578063c5ebeaec146110d6578063db006a7514611125576102c0565b8063991754d211610108578063991754d214610e1f578063a6afed9514610e4a578063a9059cbb14610e75578063aa5af0fd14610ee8578063aae40a2a14610f13578063ae9d70b014610f77576102c0565b8063852a12e314610b2a5780638f840ddd14610b7957806392e6077f14610ba45780639317c20014610c3457806395d89b4114610d8f576102c0565b80633b1d21a2116101dd57806351963189116101a15780635196318914610965578063601a0bf1146109f5578063675d972c14610a445780636c540baf14610a6f57806370a0823114610a9a57806373acee9814610aff576102c0565b80633b1d21a2146106385780633e0746081461066357806347bd3718146106ba5780634e4d9fea146106e5578063504cb8fa146106ef576102c0565b806318160ddd1161022f57806318160ddd14610462578063182df0f51461048d57806323b872dd146104b8578063267822471461054b578063313ce567146105a25780633af9e669146105d3576102c0565b806306fdde03146102c5578063095ea7b3146103555780631249c58b146103c8578063173b9904146103d257806317bfdfbc146103fd576102c0565b366102c057600061027b34611365565b5090506102bd816040518060400160405280600b81526020017f6d696e74206661696c6564000000000000000000000000000000000000000000815250611476565b50005b600080fd5b3480156102d157600080fd5b506102da61175e565b6040518080602001828103825283818151815260200191508051906020019080838360005b8381101561031a5780820151818401526020810190506102ff565b50505050905090810190601f1680156103475780820380516001836020036101000a031916815260200191505b509250505060405180910390f35b34801561036157600080fd5b506103ae6004803603604081101561037857600080fd5b81019080803573ffffffffffffffffffffffffffffffffffffffff169060200190929190803590602001909291905050506117fc565b604051808215151515815260200191505060405180910390f35b6103d06118f3565b005b3480156103de57600080fd5b506103e7611943565b6040518082815260200191505060405180910390f35b34801561040957600080fd5b5061044c6004803603602081101561042057600080fd5b81019080803573ffffffffffffffffffffffffffffffffffffffff169060200190929190505050611949565b6040518082815260200191505060405180910390f35b34801561046e57600080fd5b5061047761195b565b6040518082815260200191505060405180910390f35b34801561049957600080fd5b506104a2611961565b6040518082815260200191505060405180910390f35b3480156104c457600080fd5b50610531600480360360608110156104db57600080fd5b81019080803573ffffffffffffffffffffffffffffffffffffffff169060200190929190803573ffffffffffffffffffffffffffffffffffffffff169060200190929190803590602001909291905050506119e9565b604051808215151515815260200191505060405180910390f35b34801561055757600080fd5b50610560611ac3565b604051808273ffffffffffffffffffffffffffffffffffffffff1673ffffffffffffffffffffffffffffffffffffffff16815260200191505060405180910390f35b3480156105ae57600080fd5b506105b7611ae9565b604051808260ff1660ff16815260200191505060405180910390f35b3480156105df57600080fd5b50610622600480360360208110156105f657600080fd5b81019080803573ffffffffffffffffffffffffffffffffffffffff169060200190929190505050611afc565b6040518082815260200191505060405180910390f35b34801561064457600080fd5b5061064d611c05565b6040518082815260200191505060405180910390f35b34801561066f57600080fd5b50610678611c14565b604051808273ffffffffffffffffffffffffffffffffffffffff1673ffffffffffffffffffffffffffffffffffffffff16815260200191505060405180910390f35b3480156106c657600080fd5b506106cf611c3a565b6040518082815260200191505060405180910390f35b6106ed611c40565b005b3480156106fb57600080fd5b50610963600480360360e081101561071257600080fd5b81019080803573ffffffffffffffffffffffffffffffffffffffff169060200190929190803573ffffffffffffffffffffffffffffffffffffffff169060200190929190803573ffffffffffffffffffffffffffffffffffffffff169060200190929190803573ffffffffffffffffffffffffffffffffffffffff169060200190929190803590602001906401000000008111156107af57600080fd5b8201836020820111156107c157600080fd5b803590602001918460018302840111640100000000831117156107e357600080fd5b91908080601f016020809104026020016040519081016040528093929190818152602001838380828437600081840152601f19601f8201169050808301925050505050505091929192908035906020019064010000000081111561084657600080fd5b82018360208201111561085857600080fd5b8035906020019184600183028401116401000000008311171561087a57600080fd5b91908080601f016020809104026020016040519081016040528093929190818152602001838380828437600081840152601f19601f820116905080830192505050505050509192919290803590602001906401000000008111156108dd57600080fd5b8201836020820111156108ef57600080fd5b8035906020019184600183028401116401000000008311171561091157600080fd5b91908080601f016020809104026020016040519081016040528093929190818152602001838380828437600081840152601f19601f820116905080830192505050505050509192919290505050611c90565b005b34801561097157600080fd5b5061097a611f17565b6040518080602001828103825283818151815260200191508051906020019080838360005b838110156109ba57808201518184015260208101905061099f565b50505050905090810190601f1680156109e75780820380516001836020036101000a031916815260200191505b509250505060405180910390f35b348015610a0157600080fd5b50610a2e60048036036020811015610a1857600080fd5b8101908080359060200190929190505050611fb5565b6040518082815260200191505060405180910390f35b348015610a5057600080fd5b50610a596120bb565b6040518082815260200191505060405180910390f35b348015610a7b57600080fd5b50610a846120c1565b6040518082815260200191505060405180910390f35b348015610aa657600080fd5b50610ae960048036036020811015610abd57600080fd5b81019080803573ffffffffffffffffffffffffffffffffffffffff1690602001909291905050506120c7565b6040518082815260200191505060405180910390f35b348015610b0b57600080fd5b50610b14612110565b6040518082815260200191505060405180910390f35b348015610b3657600080fd5b50610b6360048036036020811015610b4d57600080fd5b810190808035906020019092919050505061211a565b6040518082815260200191505060405180910390f35b348015610b8557600080fd5b50610b8e61212c565b6040518082815260200191505060405180910390f35b348015610bb057600080fd5b50610bb9612132565b6040518080602001828103825283818151815260200191508051906020019080838360005b83811015610bf9578082015181840152602081019050610bde565b50505050905090810190601f168015610c265780820380516001836020036101000a031916815260200191505b509250505060405180910390f35b348015610c4057600080fd5b50610d8d600480360360c0811015610c5757600080fd5b81019080803573ffffffffffffffffffffffffffffffffffffffff169060200190929190803573ffffffffffffffffffffffffffffffffffffffff169060200190929190803573ffffffffffffffffffffffffffffffffffffffff169060200190929190803573ffffffffffffffffffffffffffffffffffffffff16906020019092919080359060200190640100000000811115610cf457600080fd5b820183602082011115610d0657600080fd5b80359060200191846001830284011164010000000083111715610d2857600080fd5b909192939192939080359060200190640100000000811115610d4957600080fd5b820183602082011115610d5b57600080fd5b80359060200191846001830284011164010000000083111715610d7d57600080fd5b90919293919293905050506121d4565b005b348015610d9b57600080fd5b50610da46122aa565b6040518080602001828103825283818151815260200191508051906020019080838360005b83811015610de4578082015181840152602081019050610dc9565b50505050905090810190601f168015610e115780820380516001836020036101000a031916815260200191505b509250505060405180910390f35b348015610e2b57600080fd5b50610e34612348565b6040518082815260200191505060405180910390f35b348015610e5657600080fd5b50610e5f612352565b6040518082815260200191505060405180910390f35b348015610e8157600080fd5b50610ece60048036036040811015610e9857600080fd5b81019080803573ffffffffffffffffffffffffffffffffffffffff16906020019092919080359060200190929190505050612361565b604051808215151515815260200191505060405180910390f35b348015610ef457600080fd5b50610efd61243a565b6040518082815260200191505060405180910390f35b610f7560048036036040811015610f2957600080fd5b81019080803573ffffffffffffffffffffffffffffffffffffffff169060200190929190803573ffffffffffffffffffffffffffffffffffffffff169060200190929190505050612440565b005b348015610f8357600080fd5b50610f8c612494565b6040518082815260200191505060405180910390f35b348015610fae57600080fd5b5061101b60048036036060811015610fc557600080fd5b81019080803573ffffffffffffffffffffffffffffffffffffffff169060200190929190803573ffffffffffffffffffffffffffffffffffffffff1690602001909291908035906020019092919050505061256e565b6040518082815260200191505060405180910390f35b34801561103d57600080fd5b5061104661263a565b6040518082815260200191505060405180910390f35b34801561106857600080fd5b506110ab6004803603602081101561107f57600080fd5b81019080803573ffffffffffffffffffffffffffffffffffffffff169060200190929190505050612649565b6040518085815260200184815260200183815260200182815260200194505050505060405180910390f35b3480156110e257600080fd5b5061110f600480360360208110156110f957600080fd5b8101908080359060200190929190505050612771565b6040518082815260200191505060405180910390f35b34801561113157600080fd5b5061115e6004803603602081101561114857600080fd5b8101908080359060200190929190505050612783565b6040518082815260200191505060405180910390f35b34801561118057600080fd5b506111e36004803603604081101561119757600080fd5b81019080803573ffffffffffffffffffffffffffffffffffffffff169060200190929190803573ffffffffffffffffffffffffffffffffffffffff169060200190929190505050612795565b6040518082815260200191505060405180910390f35b61123b6004803603602081101561120f57600080fd5b81019080803573ffffffffffffffffffffffffffffffffffffffff16906020019092919050505061281c565b005b34801561124957600080fd5b5061125261286e565b604051808273ffffffffffffffffffffffffffffffffffffffff1673ffffffffffffffffffffffffffffffffffffffff16815260200191505060405180910390f35b3480156112a057600080fd5b506112a9612894565b604051808273ffffffffffffffffffffffffffffffffffffffff1673ffffffffffffffffffffffffffffffffffffffff16815260200191505060405180910390f35b3480156112f757600080fd5b506113006128ba565b6040518082815260200191505060405180910390f35b34801561132257600080fd5b5061134f6004803603602081101561133957600080fd5b810190808035906020019092919050505061298a565b6040518082815260200191505060405180910390f35b6000806000809054906101000a900460ff166113e9576040517f08c379a000000000000000000000000000000000000000000000000000000000815260040180806020018281038252600a8152602001807f72652d656e74657265640000000000000000000000000000000000000000000081525060200191505060405180910390fd5b60008060006101000a81548160ff021916908315150217905550600061140d612a90565b90506000601081111561141c57fe5b81146114475761143881601081111561143157fe5b601e612f49565b60008090509250925050611457565b6114513385612fbd565b92509250505b60016000806101000a81548160ff021916908315150217905550915091565b6000601081111561148357fe5b82141561148f5761175a565b606060058251016040519080825280601f01601f1916602001820160405280156114c85781602001600182028038833980820191505090505b50905060008090505b8251811015611539578281815181106114e657fe5b602001015160f81c60f81b8282815181106114fd57fe5b60200101907effffffffffffffffffffffffffffffffffffffffffffffffffffffffffffff1916908160001a90535080806001019150506114d1565b602060f81b82600083018151811061154d57fe5b60200101907effffffffffffffffffffffffffffffffffffffffffffffffffffffffffffff1916908160001a905350602860f81b82600183018151811061159057fe5b60200101907effffffffffffffffffffffffffffffffffffffffffffffffffffffffffffff1916908160001a905350600a84816115c957fe5b0460300160f81b8260028301815181106115df57fe5b60200101907effffffffffffffffffffffffffffffffffffffffffffffffffffffffffffff1916908160001a905350600a848161161857fe5b0660300160f81b82600383018151811061162e57fe5b60200101907effffffffffffffffffffffffffffffffffffffffffffffffffffffffffffff1916908160001a905350602960f81b82600483018151811061167157fe5b60200101907effffffffffffffffffffffffffffffffffffffffffffffffffffffffffffff1916908160001a905350600060108111156116ad57fe5b84148290611756576040517f08c379a00000000000000000000000000000000000000000000000000000000081526004018080602001828103825283818151815260200191508051906020019080838360005b8381101561171b578082015181840152602081019050611700565b50505050905090810190601f1680156117485780820380516001836020036101000a031916815260200191505b509250505060405180910390fd5b5050505b5050565b60018054600181600116156101000203166002900480601f0160208091040260200160405190810160405280929190818152602001828054600181600116156101000203166002900480156117f45780601f106117c9576101008083540402835291602001916117f4565b820191906000526020600020905b8154815290600101906020018083116117d757829003601f168201915b505050505081565b60008033905082601160008373ffffffffffffffffffffffffffffffffffffffff1673ffffffffffffffffffffffffffffffffffffffff16815260200190815260200160002060008673ffffffffffffffffffffffffffffffffffffffff1673ffffffffffffffffffffffffffffffffffffffff168152602001908152602001600020819055508373ffffffffffffffffffffffffffffffffffffffff168173ffffffffffffffffffffffffffffffffffffffff167f8c5be1e5ebec7d5bd14f71427d1e84f3dd0314c0f7b2291e5b200ac8c7c3b925856040518082815260200191505060405180910390a3600191505092915050565b60006118fe34611365565b509050611940816040518060400160405280600b81526020017f6d696e74206661696c6564000000000000000000000000000000000000000000815250611476565b50565b600a5481565b600061195482613822565b9050919050565b600f5481565b600080600061196e6138ad565b915091506000600381111561197f57fe5b82600381111561198b57fe5b146119e1576040517f08c379a00000000000000000000000000000000000000000000000000000000081526004018080602001828103825260358152602001806184286035913960400191505060405180910390fd5b809250505090565b60008060009054906101000a900460ff16611a6c576040517f08c379a000000000000000000000000000000000000000000000000000000000815260040180806020018281038252600a8152602001807f72652d656e74657265640000000000000000000000000000000000000000000081525060200191505060405180910390fd5b60008060006101000a81548160ff02191690831515021790555060006010811115611a9357fe5b611a9f33868686613989565b14905060016000806101000a81548160ff0219169083151502179055509392505050565b600660009054906101000a900473ffffffffffffffffffffffffffffffffffffffff1681565b600360009054906101000a900460ff1681565b6000611b066180c4565b6040518060200160405280611b19611961565b8152509050600080611b6a83601060008873ffffffffffffffffffffffffffffffffffffffff1673ffffffffffffffffffffffffffffffffffffffff16815260200190815260200160002054614387565b9150915060006003811115611b7b57fe5b826003811115611b8757fe5b14611bfa576040517f08c379a000000000000000000000000000000000000000000000000000000000815260040180806020018281038252601f8152602001807f62616c616e636520636f756c64206e6f742062652063616c63756c617465640081525060200191505060405180910390fd5b809350505050919050565b6000611c0f6143ea565b905090565b600860009054906101000a900473ffffffffffffffffffffffffffffffffffffffff1681565b600d5481565b6000611c4b34614474565b509050611c8d816040518060400160405280601281526020017f7265706179426f72726f77206661696c65640000000000000000000000000000815250611476565b50565b6000600b54148015611ca457506000600c54145b611cf9576040517f08c379a00000000000000000000000000000000000000000000000000000000081526004018080602001828103825260238152602001806182b16023913960400191505060405180910390fd5b670de0b6b3a764000060098190555067016345785d8a0000600a8190555086600560006101000a81548173ffffffffffffffffffffffffffffffffffffffff021916908373ffffffffffffffffffffffffffffffffffffffff16021790555085600760006101000a81548173ffffffffffffffffffffffffffffffffffffffff021916908373ffffffffffffffffffffffffffffffffffffffff16021790555083601360006101000a81548173ffffffffffffffffffffffffffffffffffffffff021916908373ffffffffffffffffffffffffffffffffffffffff160217905550611de2614586565b600b81905550670de0b6b3a7640000600c8190555084600860006101000a81548173ffffffffffffffffffffffffffffffffffffffff021916908373ffffffffffffffffffffffffffffffffffffffff1602179055508260019080519060200190611e4e9291906180d7565b508160029080519060200190611e659291906180d7565b506008600360006101000a81548160ff021916908360ff1602179055508060049080519060200190611e989291906180d7565b5060016000806101000a81548160ff021916908315150217905550600060095411611f0e576040517f08c379a00000000000000000000000000000000000000000000000000000000081526004018080602001828103825260308152602001806182d46030913960400191505060405180910390fd5b50505050505050565b60048054600181600116156101000203166002900480601f016020809104026020016040519081016040528092919081815260200182805460018160011615610100020316600290048015611fad5780601f10611f8257610100808354040283529160200191611fad565b820191906000526020600020905b815481529060010190602001808311611f9057829003601f168201915b505050505081565b60008060009054906101000a900460ff16612038576040517f08c379a000000000000000000000000000000000000000000000000000000000815260040180806020018281038252600a8152602001807f72652d656e74657265640000000000000000000000000000000000000000000081525060200191505060405180910390fd5b60008060006101000a81548160ff021916908315150217905550600061205c612a90565b90506000601081111561206b57fe5b811461208f5761208781601081111561208057fe5b6030612f49565b91505061209c565b6120988361458e565b9150505b60016000806101000a81548160ff021916908315150217905550919050565b60095481565b600b5481565b6000601060008373ffffffffffffffffffffffffffffffffffffffff1673ffffffffffffffffffffffffffffffffffffffff168152602001908152602001600020549050919050565b6000600d54905090565b60006121258261479f565b9050919050565b600e5481565b606060048054600181600116156101000203166002900480601f0160208091040260200160405190810160405280929190818152602001828054600181600116156101000203166002900480156121ca5780601f1061219f576101008083540402835291602001916121ca565b820191906000526020600020905b8154815290600101906020018083116121ad57829003601f168201915b5050505050905090565b6122a08888888888888080601f016020809104026020016040519081016040528093929190818152602001838380828437600081840152601f19601f8201169050808301925050505050505087878080601f016020809104026020016040519081016040528093929190818152602001838380828437600081840152601f19601f820116905080830192505050505050506040518060400160405280600381526020017f4554480000000000000000000000000000000000000000000000000000000000815250611c90565b5050505050505050565b60028054600181600116156101000203166002900480601f0160208091040260200160405190810160405280929190818152602001828054600181600116156101000203166002900480156123405780601f1061231557610100808354040283529160200191612340565b820191906000526020600020905b81548152906001019060200180831161232357829003601f168201915b505050505081565b6000600b54905090565b600061235c612a90565b905090565b60008060009054906101000a900460ff166123e4576040517f08c379a000000000000000000000000000000000000000000000000000000000815260040180806020018281038252600a8152602001807f72652d656e74657265640000000000000000000000000000000000000000000081525060200191505060405180910390fd5b60008060006101000a81548160ff0219169083151502179055506000601081111561240b57fe5b61241733338686613989565b14905060016000806101000a81548160ff02191690831515021790555092915050565b600c5481565b600061244d8334846148a8565b50905061248f816040518060400160405280601681526020017f6c6971756964617465426f72726f77206661696c656400000000000000000000815250611476565b505050565b6000600860009054906101000a900473ffffffffffffffffffffffffffffffffffffffff1673ffffffffffffffffffffffffffffffffffffffff1663b81688166124dc6143ea565b600d54600e54600a546040518563ffffffff1660e01b81526004018085815260200184815260200183815260200182815260200194505050505060206040518083038186803b15801561252e57600080fd5b505afa158015612542573d6000803e3d6000fd5b505050506040513d602081101561255857600080fd5b8101908080519060200190929190505050905090565b60008060009054906101000a900460ff166125f1576040517f08c379a000000000000000000000000000000000000000000000000000000000815260040180806020018281038252600a8152602001807f72652d656e74657265640000000000000000000000000000000000000000000081525060200191505060405180910390fd5b60008060006101000a81548160ff02191690831515021790555061261733858585614a7b565b905060016000806101000a81548160ff0219169083151502179055509392505050565b6000612644611961565b905090565b6000806000806000601060008773ffffffffffffffffffffffffffffffffffffffff1673ffffffffffffffffffffffffffffffffffffffff16815260200190815260200160002054905060008060006126a18961531f565b8094508192505050600060038111156126b657fe5b8160038111156126c257fe5b146126f357600960108111156126d457fe5b600080600082925081915080905097509750975097505050505061276a565b6126fb6138ad565b80935081925050506000600381111561271057fe5b81600381111561271c57fe5b1461274d576009601081111561272e57fe5b600080600082925081915080905097509750975097505050505061276a565b6000601081111561275a57fe5b8484849750975097509750505050505b9193509193565b600061277c8261542a565b9050919050565b600061278e82615531565b9050919050565b6000601160008473ffffffffffffffffffffffffffffffffffffffff1673ffffffffffffffffffffffffffffffffffffffff16815260200190815260200160002060008373ffffffffffffffffffffffffffffffffffffffff1673ffffffffffffffffffffffffffffffffffffffff16815260200190815260200160002054905092915050565b6000612828823461563a565b50905061286a816040518060400160405280601881526020017f7265706179426f72726f77426568616c66206661696c65640000000000000000815250611476565b5050565b600760009054906101000a900473ffffffffffffffffffffffffffffffffffffffff1681565b600560009054906101000a900473ffffffffffffffffffffffffffffffffffffffff1681565b6000600860009054906101000a900473ffffffffffffffffffffffffffffffffffffffff1673ffffffffffffffffffffffffffffffffffffffff166315f240536129026143ea565b600d54600e546040518463ffffffff1660e01b815260040180848152602001838152602001828152602001935050505060206040518083038186803b15801561294a57600080fd5b505afa15801561295e573d6000803e3d6000fd5b505050506040513d602081101561297457600080fd5b8101908080519060200190929190505050905090565b60008060009054906101000a900460ff16612a0d576040517f08c379a000000000000000000000000000000000000000000000000000000000815260040180806020018281038252600a8152602001807f72652d656e74657265640000000000000000000000000000000000000000000081525060200191505060405180910390fd5b60008060006101000a81548160ff0219169083151502179055506000612a31612a90565b905060006010811115612a4057fe5b8114612a6457612a5c816010811115612a5557fe5b6046612f49565b915050612a71565b612a6d8361574e565b9150505b60016000806101000a81548160ff021916908315150217905550919050565b600080612a9b614586565b90506000600b54905081811415612ac25760006010811115612ab957fe5b92505050612f46565b6000612acc6143ea565b90506000600d5490506000600e5490506000600c5490506000600860009054906101000a900473ffffffffffffffffffffffffffffffffffffffff1673ffffffffffffffffffffffffffffffffffffffff166315f240538686866040518463ffffffff1660e01b815260040180848152602001838152602001828152602001935050505060206040518083038186803b158015612b6857600080fd5b505afa158015612b7c573d6000803e3d6000fd5b505050506040513d6020811015612b9257600080fd5b8101908080519060200190929190505050905065048c27395000811115612c21576040517f08c379a000000000000000000000000000000000000000000000000000000000815260040180806020018281038252601c8152602001807f626f72726f772072617465206973206162737572646c7920686967680000000081525060200191505060405180910390fd5b600080612c2e8989615861565b9150915060006003811115612c3f57fe5b826003811115612c4b57fe5b14612cbe576040517f08c379a000000000000000000000000000000000000000000000000000000000815260040180806020018281038252601f8152602001807f636f756c64206e6f742063616c63756c61746520626c6f636b2064656c74610081525060200191505060405180910390fd5b612cc66180c4565b600080600080612ce460405180602001604052808a8152508761588c565b809650819850505060006003811115612cf957fe5b876003811115612d0557fe5b14612d3757612d2260096006896003811115612d1d57fe5b61590a565b9e505050505050505050505050505050612f46565b612d41858c614387565b809550819850505060006003811115612d5657fe5b876003811115612d6257fe5b14612d9457612d7f60096001896003811115612d7a57fe5b61590a565b9e505050505050505050505050505050612f46565b612d9e848c61597e565b809450819850505060006003811115612db357fe5b876003811115612dbf57fe5b14612df157612ddc60096004896003811115612dd757fe5b61590a565b9e505050505050505050505050505050612f46565b612e0c6040518060200160405280600a54815250858c6159b0565b809350819850505060006003811115612e2157fe5b876003811115612e2d57fe5b14612e5f57612e4a60096005896003811115612e4557fe5b61590a565b9e505050505050505050505050505050612f46565b612e6a858a8b6159b0565b809250819850505060006003811115612e7f57fe5b876003811115612e8b57fe5b14612ebd57612ea860096003896003811115612ea357fe5b61590a565b9e505050505050505050505050505050612f46565b8d600b8190555080600c8190555082600d8190555081600e819055507f4dec04e750ca11537cabcd8a9eab06494de08da3735bc8871cd41250e190bc048c8583866040518085815260200184815260200183815260200182815260200194505050505060405180910390a160006010811115612f3557fe5b9e5050505050505050505050505050505b90565b60007f45b96fe442630264581b197e84bbada861235052c5a1aadfff9ea4e40a969aa0836010811115612f7857fe5b836050811115612f8457fe5b600060405180848152602001838152602001828152602001935050505060405180910390a1826010811115612fb557fe5b905092915050565b6000806000600760009054906101000a900473ffffffffffffffffffffffffffffffffffffffff1673ffffffffffffffffffffffffffffffffffffffff16634ef4c3e13087876040518463ffffffff1660e01b8152600401808473ffffffffffffffffffffffffffffffffffffffff1673ffffffffffffffffffffffffffffffffffffffff1681526020018373ffffffffffffffffffffffffffffffffffffffff1673ffffffffffffffffffffffffffffffffffffffff1681526020018281526020019350505050602060405180830381600087803b15801561309f57600080fd5b505af11580156130b3573d6000803e3d6000fd5b505050506040513d60208110156130c957600080fd5b8101908080519060200190929190505050905060008114613100576130f16003601f8361590a565b6000809050925092505061381b565b613108614586565b600b541461312b5761311c600a6022612f49565b6000809050925092505061381b565b613133618157565b61313b6138ad565b82602001836040018281525082600381111561315357fe5b600381111561315e57fe5b81525050506000600381111561317057fe5b8160200151600381111561318057fe5b146131b1576131a1600960218360200151600381111561319c57fe5b61590a565b600080905093509350505061381b565b6131bb8686615a1b565b8160c00181815250506131e48160c0015160405180602001604052808460400151815250615b3c565b8260200183606001828152508260038111156131fc57fe5b600381111561320757fe5b81525050506000600381111561321957fe5b8160200151600381111561322957fe5b1461329c576040517f08c379a00000000000000000000000000000000000000000000000000000000081526004018080602001828103825260208152602001807f4d494e545f45584348414e47455f43414c43554c4154494f4e5f4641494c454481525060200191505060405180910390fd5b6132ac600f54826060015161597e565b8260200183608001828152508260038111156132c457fe5b60038111156132cf57fe5b8152505050600060038111156132e157fe5b816020015160038111156132f157fe5b14613347576040517f08c379a000000000000000000000000000000000000000000000000000000000815260040180806020018281038252602881526020018061845d6028913960400191505060405180910390fd5b613394601060008873ffffffffffffffffffffffffffffffffffffffff1673ffffffffffffffffffffffffffffffffffffffff16815260200190815260200160002054826060015161597e565b826020018360a001828152508260038111156133ac57fe5b60038111156133b757fe5b8152505050600060038111156133c957fe5b816020015160038111156133d957fe5b1461342f576040517f08c379a000000000000000000000000000000000000000000000000000000000815260040180806020018281038252602b815260200180618304602b913960400191505060405180910390fd5b8060800151600f819055508060a00151601060008873ffffffffffffffffffffffffffffffffffffffff1673ffffffffffffffffffffffffffffffffffffffff168152602001908152602001600020819055506000601360009054906101000a900473ffffffffffffffffffffffffffffffffffffffff1673ffffffffffffffffffffffffffffffffffffffff166367ef06aa883085606001516040518463ffffffff1660e01b8152600401808473ffffffffffffffffffffffffffffffffffffffff1673ffffffffffffffffffffffffffffffffffffffff1681526020018373ffffffffffffffffffffffffffffffffffffffff1673ffffffffffffffffffffffffffffffffffffffff1681526020018281526020019350505050602060405180830381600087803b15801561356557600080fd5b505af1158015613579573d6000803e3d6000fd5b505050506040513d602081101561358f57600080fd5b8101908080519060200190929190505050905060008114613618576040517f08c379a00000000000000000000000000000000000000000000000000000000081526004018080602001828103825260188152602001807f444953545249425554455f544f4b454e535f4649414c4544000000000000000081525060200191505060405180910390fd5b7f4c209b5fc8ad50758f13e2e1088ba56a560dff690a1c6fef26394f4c03821c4f878360c001518460600151604051808473ffffffffffffffffffffffffffffffffffffffff1673ffffffffffffffffffffffffffffffffffffffff168152602001838152602001828152602001935050505060405180910390a18673ffffffffffffffffffffffffffffffffffffffff163073ffffffffffffffffffffffffffffffffffffffff167fddf252ad1be2c89b69c2b068fc378daa952ba7f163c4a11628f55a4df523b3ef84606001516040518082815260200191505060405180910390a3600760009054906101000a900473ffffffffffffffffffffffffffffffffffffffff1673ffffffffffffffffffffffffffffffffffffffff166341c728b930898560c0015186606001516040518563ffffffff1660e01b8152600401808573ffffffffffffffffffffffffffffffffffffffff1673ffffffffffffffffffffffffffffffffffffffff1681526020018473ffffffffffffffffffffffffffffffffffffffff1673ffffffffffffffffffffffffffffffffffffffff168152602001838152602001828152602001945050505050600060405180830381600087803b1580156137e957600080fd5b505af11580156137fd573d6000803e3d6000fd5b505050506000601081111561380e57fe5b8260c00151945094505050505b9250929050565b60008060006138308461531f565b915091506000600381111561384157fe5b82600381111561384d57fe5b146138a3576040517f08c379a000000000000000000000000000000000000000000000000000000000815260040180806020018281038252603781526020018061832f6037913960400191505060405180910390fd5b8092505050919050565b6000806000600f54905060008114156138cf5760006009549250925050613985565b60006138d96143ea565b905060006138e56180c4565b60006138f684600d54600e54615b9f565b80945081925050506000600381111561390b57fe5b81600381111561391757fe5b1461393057806000809050965096505050505050613985565b61393a8386615bfb565b80935081925050506000600381111561394f57fe5b81600381111561395b57fe5b1461397457806000809050965096505050505050613985565b600082600001519650965050505050505b9091565b600080600760009054906101000a900473ffffffffffffffffffffffffffffffffffffffff1673ffffffffffffffffffffffffffffffffffffffff1663bdcdc258308787876040518563ffffffff1660e01b8152600401808573ffffffffffffffffffffffffffffffffffffffff1673ffffffffffffffffffffffffffffffffffffffff1681526020018473ffffffffffffffffffffffffffffffffffffffff1673ffffffffffffffffffffffffffffffffffffffff1681526020018373ffffffffffffffffffffffffffffffffffffffff1673ffffffffffffffffffffffffffffffffffffffff168152602001828152602001945050505050602060405180830381600087803b158015613a9d57600080fd5b505af1158015613ab1573d6000803e3d6000fd5b505050506040513d6020811015613ac757600080fd5b8101908080519060200190929190505050905060008114613af757613aef6003604a8361590a565b91505061437f565b8373ffffffffffffffffffffffffffffffffffffffff168573ffffffffffffffffffffffffffffffffffffffff161415613b3f57613b376002604b612f49565b91505061437f565b60008090508573ffffffffffffffffffffffffffffffffffffffff168773ffffffffffffffffffffffffffffffffffffffff161415613ba0577fffffffffffffffffffffffffffffffffffffffffffffffffffffffffffffffff9050613c20565b601160008773ffffffffffffffffffffffffffffffffffffffff1673ffffffffffffffffffffffffffffffffffffffff16815260200190815260200160002060008873ffffffffffffffffffffffffffffffffffffffff1673ffffffffffffffffffffffffffffffffffffffff1681526020019081526020016000205490505b600080600080613c308589615861565b809450819550505060006003811115613c4557fe5b846003811115613c5157fe5b14613c6f57613c626009604b612f49565b965050505050505061437f565b613cb8601060008c73ffffffffffffffffffffffffffffffffffffffff1673ffffffffffffffffffffffffffffffffffffffff1681526020019081526020016000205489615861565b809350819550505060006003811115613ccd57fe5b846003811115613cd957fe5b14613cf757613cea6009604c612f49565b965050505050505061437f565b613d40601060008b73ffffffffffffffffffffffffffffffffffffffff1673ffffffffffffffffffffffffffffffffffffffff168152602001908152602001600020548961597e565b809250819550505060006003811115613d5557fe5b846003811115613d6157fe5b14613d7f57613d726009604d612f49565b965050505050505061437f565b81601060008c73ffffffffffffffffffffffffffffffffffffffff1673ffffffffffffffffffffffffffffffffffffffff1681526020019081526020016000208190555080601060008b73ffffffffffffffffffffffffffffffffffffffff1673ffffffffffffffffffffffffffffffffffffffff168152602001908152602001600020819055507fffffffffffffffffffffffffffffffffffffffffffffffffffffffffffffffff8514613eb05782601160008c73ffffffffffffffffffffffffffffffffffffffff1673ffffffffffffffffffffffffffffffffffffffff16815260200190815260200160002060008d73ffffffffffffffffffffffffffffffffffffffff1673ffffffffffffffffffffffffffffffffffffffff168152602001908152602001600020819055505b6000601360009054906101000a900473ffffffffffffffffffffffffffffffffffffffff1673ffffffffffffffffffffffffffffffffffffffff166367ef06aa8b308c6040518463ffffffff1660e01b8152600401808473ffffffffffffffffffffffffffffffffffffffff1673ffffffffffffffffffffffffffffffffffffffff1681526020018373ffffffffffffffffffffffffffffffffffffffff1673ffffffffffffffffffffffffffffffffffffffff1681526020018281526020019350505050602060405180830381600087803b158015613f8f57600080fd5b505af1158015613fa3573d6000803e3d6000fd5b505050506040513d6020811015613fb957600080fd5b8101908080519060200190929190505050905060008114614042576040517f08c379a00000000000000000000000000000000000000000000000000000000081526004018080602001828103825260188152602001807f444953545249425554455f544f4b454e535f4649414c4544000000000000000081525060200191505060405180910390fd5b601360009054906101000a900473ffffffffffffffffffffffffffffffffffffffff1673ffffffffffffffffffffffffffffffffffffffff1663e3d935238c308c876040518563ffffffff1660e01b8152600401808573ffffffffffffffffffffffffffffffffffffffff1673ffffffffffffffffffffffffffffffffffffffff1681526020018473ffffffffffffffffffffffffffffffffffffffff1673ffffffffffffffffffffffffffffffffffffffff168152602001838152602001828152602001945050505050602060405180830381600087803b15801561412757600080fd5b505af115801561413b573d6000803e3d6000fd5b505050506040513d602081101561415157600080fd5b81019080805190602001909291905050509050600081146141da576040517f08c379a00000000000000000000000000000000000000000000000000000000081526004018080602001828103825260188152602001807f444953545249425554455f544f4b454e535f4649414c4544000000000000000081525060200191505060405180910390fd5b8973ffffffffffffffffffffffffffffffffffffffff168b73ffffffffffffffffffffffffffffffffffffffff167fddf252ad1be2c89b69c2b068fc378daa952ba7f163c4a11628f55a4df523b3ef8b6040518082815260200191505060405180910390a3600760009054906101000a900473ffffffffffffffffffffffffffffffffffffffff1673ffffffffffffffffffffffffffffffffffffffff16636a56947e308d8d8d6040518563ffffffff1660e01b8152600401808573ffffffffffffffffffffffffffffffffffffffff1673ffffffffffffffffffffffffffffffffffffffff1681526020018473ffffffffffffffffffffffffffffffffffffffff1673ffffffffffffffffffffffffffffffffffffffff1681526020018373ffffffffffffffffffffffffffffffffffffffff1673ffffffffffffffffffffffffffffffffffffffff168152602001828152602001945050505050600060405180830381600087803b15801561435057600080fd5b505af1158015614364573d6000803e3d6000fd5b505050506000601081111561437557fe5b9750505050505050505b949350505050565b60008060006143946180c4565b61439e868661588c565b91509150600060038111156143af57fe5b8260038111156143bb57fe5b146143d1578160008090509350935050506143e3565b60006143dc82615ccf565b9350935050505b9250929050565b60008060006143f94734615861565b915091506000600381111561440a57fe5b82600381111561441657fe5b1461446c576040517f08c379a00000000000000000000000000000000000000000000000000000000081526004018080602001828103825260258152602001806183986025913960400191505060405180910390fd5b809250505090565b6000806000809054906101000a900460ff166144f8576040517f08c379a000000000000000000000000000000000000000000000000000000000815260040180806020018281038252600a8152602001807f72652d656e74657265640000000000000000000000000000000000000000000081525060200191505060405180910390fd5b60008060006101000a81548160ff021916908315150217905550600061451c612a90565b90506000601081111561452b57fe5b81146145565761454781601081111561454057fe5b6036612f49565b60008090509250925050614567565b614561333386615cee565b92509250505b60016000806101000a81548160ff021916908315150217905550915091565b600043905090565b600080600560009054906101000a900473ffffffffffffffffffffffffffffffffffffffff1673ffffffffffffffffffffffffffffffffffffffff163373ffffffffffffffffffffffffffffffffffffffff16146145fa576145f260016031612f49565b91505061479a565b614602614586565b600b541461461e57614616600a6033612f49565b91505061479a565b826146276143ea565b101561464157614639600e6032612f49565b91505061479a565b600e5483111561465f5761465760026034612f49565b91505061479a565b82600e54039050600e548111156146c1576040517f08c379a00000000000000000000000000000000000000000000000000000000081526004018080602001828103825260248152602001806184b96024913960400191505060405180910390fd5b80600e819055506146f4600560009054906101000a900473ffffffffffffffffffffffffffffffffffffffff168461656f565b7f3bad0c59cf2f06e7314077049f48a93578cd16f5ef92329f1dab1420a99c177e600560009054906101000a900473ffffffffffffffffffffffffffffffffffffffff168483604051808473ffffffffffffffffffffffffffffffffffffffff1673ffffffffffffffffffffffffffffffffffffffff168152602001838152602001828152602001935050505060405180910390a16000601081111561479657fe5b9150505b919050565b60008060009054906101000a900460ff16614822576040517f08c379a000000000000000000000000000000000000000000000000000000000815260040180806020018281038252600a8152602001807f72652d656e74657265640000000000000000000000000000000000000000000081525060200191505060405180910390fd5b60008060006101000a81548160ff0219169083151502179055506000614846612a90565b90506000601081111561485557fe5b81146148795761487181601081111561486a57fe5b6027612f49565b915050614889565b614885336000856165ba565b9150505b60016000806101000a81548160ff021916908315150217905550919050565b6000806000809054906101000a900460ff1661492c576040517f08c379a000000000000000000000000000000000000000000000000000000000815260040180806020018281038252600a8152602001807f72652d656e74657265640000000000000000000000000000000000000000000081525060200191505060405180910390fd5b60008060006101000a81548160ff0219169083151502179055506000614950612a90565b90506000601081111561495f57fe5b811461498a5761497b81601081111561497457fe5b600f612f49565b60008090509250925050614a59565b8373ffffffffffffffffffffffffffffffffffffffff1663a6afed956040518163ffffffff1660e01b8152600401602060405180830381600087803b1580156149d257600080fd5b505af11580156149e6573d6000803e3d6000fd5b505050506040513d60208110156149fc57600080fd5b8101908080519060200190929190505050905060006010811115614a1c57fe5b8114614a4757614a38816010811115614a3157fe5b6010612f49565b60008090509250925050614a59565b614a5333878787616ea0565b92509250505b60016000806101000a81548160ff021916908315150217905550935093915050565b600080600760009054906101000a900473ffffffffffffffffffffffffffffffffffffffff1673ffffffffffffffffffffffffffffffffffffffff1663d02f735130888888886040518663ffffffff1660e01b8152600401808673ffffffffffffffffffffffffffffffffffffffff1673ffffffffffffffffffffffffffffffffffffffff1681526020018573ffffffffffffffffffffffffffffffffffffffff1673ffffffffffffffffffffffffffffffffffffffff1681526020018473ffffffffffffffffffffffffffffffffffffffff1673ffffffffffffffffffffffffffffffffffffffff1681526020018373ffffffffffffffffffffffffffffffffffffffff1673ffffffffffffffffffffffffffffffffffffffff16815260200182815260200195505050505050602060405180830381600087803b158015614bc357600080fd5b505af1158015614bd7573d6000803e3d6000fd5b505050506040513d6020811015614bed57600080fd5b8101908080519060200190929190505050905060008114614c1d57614c156003601b8361590a565b915050615317565b8473ffffffffffffffffffffffffffffffffffffffff168473ffffffffffffffffffffffffffffffffffffffff161415614c6557614c5d6006601c612f49565b915050615317565b6000806000614cb3601060008973ffffffffffffffffffffffffffffffffffffffff1673ffffffffffffffffffffffffffffffffffffffff1681526020019081526020016000205487615861565b809350819450505060006003811115614cc857fe5b836003811115614cd457fe5b14614cfc57614cf16009601a856003811115614cec57fe5b61590a565b945050505050615317565b614d45601060008a73ffffffffffffffffffffffffffffffffffffffff1673ffffffffffffffffffffffffffffffffffffffff168152602001908152602001600020548761597e565b809250819450505060006003811115614d5a57fe5b836003811115614d6657fe5b14614d8e57614d8360096019856003811115614d7e57fe5b61590a565b945050505050615317565b81601060008973ffffffffffffffffffffffffffffffffffffffff1673ffffffffffffffffffffffffffffffffffffffff1681526020019081526020016000208190555080601060008a73ffffffffffffffffffffffffffffffffffffffff1673ffffffffffffffffffffffffffffffffffffffff168152602001908152602001600020819055506000601360009054906101000a900473ffffffffffffffffffffffffffffffffffffffff1673ffffffffffffffffffffffffffffffffffffffff166367ef06aa8a308a6040518463ffffffff1660e01b8152600401808473ffffffffffffffffffffffffffffffffffffffff1673ffffffffffffffffffffffffffffffffffffffff1681526020018373ffffffffffffffffffffffffffffffffffffffff1673ffffffffffffffffffffffffffffffffffffffff1681526020018281526020019350505050602060405180830381600087803b158015614ef557600080fd5b505af1158015614f09573d6000803e3d6000fd5b505050506040513d6020811015614f1f57600080fd5b8101908080519060200190929190505050905060008114614fa8576040517f08c379a00000000000000000000000000000000000000000000000000000000081526004018080602001828103825260188152602001807f444953545249425554455f544f4b454e535f4649414c4544000000000000000081525060200191505060405180910390fd5b601360009054906101000a900473ffffffffffffffffffffffffffffffffffffffff1673ffffffffffffffffffffffffffffffffffffffff1663e3d9352389308a876040518563ffffffff1660e01b8152600401808573ffffffffffffffffffffffffffffffffffffffff1673ffffffffffffffffffffffffffffffffffffffff1681526020018473ffffffffffffffffffffffffffffffffffffffff1673ffffffffffffffffffffffffffffffffffffffff168152602001838152602001828152602001945050505050602060405180830381600087803b15801561508d57600080fd5b505af11580156150a1573d6000803e3d6000fd5b505050506040513d60208110156150b757600080fd5b8101908080519060200190929190505050905060008114615140576040517f08c379a00000000000000000000000000000000000000000000000000000000081526004018080602001828103825260188152602001807f444953545249425554455f544f4b454e535f4649414c4544000000000000000081525060200191505060405180910390fd5b8873ffffffffffffffffffffffffffffffffffffffff168873ffffffffffffffffffffffffffffffffffffffff167fddf252ad1be2c89b69c2b068fc378daa952ba7f163c4a11628f55a4df523b3ef896040518082815260200191505060405180910390a3600760009054906101000a900473ffffffffffffffffffffffffffffffffffffffff1673ffffffffffffffffffffffffffffffffffffffff16636d35bf91308c8c8c8c6040518663ffffffff1660e01b8152600401808673ffffffffffffffffffffffffffffffffffffffff1673ffffffffffffffffffffffffffffffffffffffff1681526020018573ffffffffffffffffffffffffffffffffffffffff1673ffffffffffffffffffffffffffffffffffffffff1681526020018473ffffffffffffffffffffffffffffffffffffffff1673ffffffffffffffffffffffffffffffffffffffff1681526020018373ffffffffffffffffffffffffffffffffffffffff1673ffffffffffffffffffffffffffffffffffffffff16815260200182815260200195505050505050600060405180830381600087803b1580156152ea57600080fd5b505af11580156152fe573d6000803e3d6000fd5b505050506000601081111561530f57fe5b955050505050505b949350505050565b600080600080600080601260008873ffffffffffffffffffffffffffffffffffffffff1673ffffffffffffffffffffffffffffffffffffffff1681526020019081526020016000209050600081600001541415615389576000808090509550955050505050615425565b6153998160000154600c546178fd565b8094508195505050600060038111156153ae57fe5b8460038111156153ba57fe5b146153d2578360008090509550955050505050615425565b6153e0838260010154617950565b8093508195505050600060038111156153f557fe5b84600381111561540157fe5b14615419578360008090509550955050505050615425565b60008295509550505050505b915091565b60008060009054906101000a900460ff166154ad576040517f08c379a000000000000000000000000000000000000000000000000000000000815260040180806020018281038252600a8152602001807f72652d656e74657265640000000000000000000000000000000000000000000081525060200191505060405180910390fd5b60008060006101000a81548160ff02191690831515021790555060006154d1612a90565b9050600060108111156154e057fe5b8114615504576154fc8160108111156154f557fe5b6008612f49565b915050615512565b61550e3384617984565b9150505b60016000806101000a81548160ff021916908315150217905550919050565b60008060009054906101000a900460ff166155b4576040517f08c379a000000000000000000000000000000000000000000000000000000000815260040180806020018281038252600a8152602001807f72652d656e74657265640000000000000000000000000000000000000000000081525060200191505060405180910390fd5b60008060006101000a81548160ff02191690831515021790555060006155d8612a90565b9050600060108111156155e757fe5b811461560b576156038160108111156155fc57fe5b6027612f49565b91505061561b565b615617338460006165ba565b9150505b60016000806101000a81548160ff021916908315150217905550919050565b6000806000809054906101000a900460ff166156be576040517f08c379a000000000000000000000000000000000000000000000000000000000815260040180806020018281038252600a8152602001807f72652d656e74657265640000000000000000000000000000000000000000000081525060200191505060405180910390fd5b60008060006101000a81548160ff02191690831515021790555060006156e2612a90565b9050600060108111156156f157fe5b811461571c5761570d81601081111561570657fe5b6035612f49565b6000809050925092505061572d565b615727338686615cee565b92509250505b60016000806101000a81548160ff0219169083151502179055509250929050565b6000600560009054906101000a900473ffffffffffffffffffffffffffffffffffffffff1673ffffffffffffffffffffffffffffffffffffffff163373ffffffffffffffffffffffffffffffffffffffff16146157b8576157b160016047612f49565b905061585c565b6157c0614586565b600b54146157db576157d4600a6048612f49565b905061585c565b670de0b6b3a76400008211156157fe576157f760026049612f49565b905061585c565b6000600a54905082600a819055507faaa68312e2ea9d50e16af5068410ab56e1a1fd06037b1a35664812c30f8214608184604051808381526020018281526020019250505060405180910390a16000601081111561585857fe5b9150505b919050565b60008083831161587957600083850391509150615885565b60036000809050915091505b9250929050565b60006158966180c4565b6000806158a78660000151866178fd565b91509150600060038111156158b857fe5b8260038111156158c457fe5b146158e8578160405180602001604052806000815250809050935093505050615903565b60006040518060200160405280838152508090509350935050505b9250929050565b60007f45b96fe442630264581b197e84bbada861235052c5a1aadfff9ea4e40a969aa084601081111561593957fe5b84605081111561594557fe5b8460405180848152602001838152602001828152602001935050505060405180910390a183601081111561597557fe5b90509392505050565b6000806000838501905084811061599c5760008192509250506159a9565b6002600080905092509250505b9250929050565b60008060006159bd6180c4565b6159c7878761588c565b91509150600060038111156159d857fe5b8260038111156159e457fe5b146159fa57816000809050935093505050615a13565b615a0c615a0682615ccf565b8661597e565b9350935050505b935093915050565b60008273ffffffffffffffffffffffffffffffffffffffff163373ffffffffffffffffffffffffffffffffffffffff1614615abe576040517f08c379a000000000000000000000000000000000000000000000000000000000815260040180806020018281038252600f8152602001807f73656e646572206d69736d61746368000000000000000000000000000000000081525060200191505060405180910390fd5b813414615b33576040517f08c379a000000000000000000000000000000000000000000000000000000000815260040180806020018281038252600e8152602001807f76616c7565206d69736d6174636800000000000000000000000000000000000081525060200191505060405180910390fd5b81905092915050565b6000806000615b496180c4565b615b538686618048565b9150915060006003811115615b6457fe5b826003811115615b7057fe5b14615b8657816000809050935093505050615b98565b6000615b9182615ccf565b9350935050505b9250929050565b600080600080615baf878761597e565b9150915060006003811115615bc057fe5b826003811115615bcc57fe5b14615be257816000809050935093505050615bf3565b615bec8186615861565b9350935050505b935093915050565b6000615c056180c4565b600080615c1a86670de0b6b3a76400006178fd565b9150915060006003811115615c2b57fe5b826003811115615c3757fe5b14615c5b578160405180602001604052806000815250809050935093505050615cc8565b600080615c688388617950565b9150915060006003811115615c7957fe5b826003811115615c8557fe5b14615cab5781604051806020016040528060008152508090509550955050505050615cc8565b600060405180602001604052808381525080905095509550505050505b9250929050565b6000670de0b6b3a7640000826000015181615ce657fe5b049050919050565b6000806000600760009054906101000a900473ffffffffffffffffffffffffffffffffffffffff1673ffffffffffffffffffffffffffffffffffffffff166324008a62308888886040518563ffffffff1660e01b8152600401808573ffffffffffffffffffffffffffffffffffffffff1673ffffffffffffffffffffffffffffffffffffffff1681526020018473ffffffffffffffffffffffffffffffffffffffff1673ffffffffffffffffffffffffffffffffffffffff1681526020018373ffffffffffffffffffffffffffffffffffffffff1673ffffffffffffffffffffffffffffffffffffffff168152602001828152602001945050505050602060405180830381600087803b158015615e0457600080fd5b505af1158015615e18573d6000803e3d6000fd5b505050506040513d6020811015615e2e57600080fd5b8101908080519060200190929190505050905060008114615e6557615e56600360388361590a565b60008090509250925050616567565b615e6d614586565b600b5414615e9057615e81600a6039612f49565b60008090509250925050616567565b615e986181aa565b601260008773ffffffffffffffffffffffffffffffffffffffff1673ffffffffffffffffffffffffffffffffffffffff16815260200190815260200160002060010154816060018181525050615eed8661531f565b826020018360800182815250826003811115615f0557fe5b6003811115615f1057fe5b815250505060006003811115615f2257fe5b81602001516003811115615f3257fe5b14615f6357615f536009603783602001516003811115615f4e57fe5b61590a565b6000809050935093505050616567565b7fffffffffffffffffffffffffffffffffffffffffffffffffffffffffffffffff851415615f9e578060800151816040018181525050615fa9565b848160400181815250505b615fb7878260400151615a1b565b8160e0018181525050615fd281608001518260e00151615861565b826020018360a00182815250826003811115615fea57fe5b6003811115615ff557fe5b81525050506000600381111561600757fe5b8160200151600381111561601757fe5b1461606d576040517f08c379a000000000000000000000000000000000000000000000000000000000815260040180806020018281038252603a8152602001806183bd603a913960400191505060405180910390fd5b61607d600d548260e00151615861565b826020018360c0018281525082600381111561609557fe5b60038111156160a057fe5b8152505050600060038111156160b257fe5b816020015160038111156160c257fe5b14616118576040517f08c379a00000000000000000000000000000000000000000000000000000000081526004018080602001828103825260318152602001806183f76031913960400191505060405180910390fd5b8060a00151601260008873ffffffffffffffffffffffffffffffffffffffff1673ffffffffffffffffffffffffffffffffffffffff16815260200190815260200160002060000181905550600c54601260008873ffffffffffffffffffffffffffffffffffffffff1673ffffffffffffffffffffffffffffffffffffffff168152602001908152602001600020600101819055508060c00151600d819055506000601360009054906101000a900473ffffffffffffffffffffffffffffffffffffffff1673ffffffffffffffffffffffffffffffffffffffff1663e3d9352388308560e001518660a001516040518563ffffffff1660e01b8152600401808573ffffffffffffffffffffffffffffffffffffffff1673ffffffffffffffffffffffffffffffffffffffff1681526020018473ffffffffffffffffffffffffffffffffffffffff1673ffffffffffffffffffffffffffffffffffffffff168152602001838152602001828152602001945050505050602060405180830381600087803b1580156162a657600080fd5b505af11580156162ba573d6000803e3d6000fd5b505050506040513d60208110156162d057600080fd5b8101908080519060200190929190505050905060008114616359576040517f08c379a00000000000000000000000000000000000000000000000000000000081526004018080602001828103825260188152602001807f444953545249425554455f544f4b454e535f4649414c4544000000000000000081525060200191505060405180910390fd5b7f1a2a22cb034d26d1854bdc6666a5b91fe25efbbb5dcad3b0355478d6f5c362a188888460e001518560a001518660c00151604051808673ffffffffffffffffffffffffffffffffffffffff1673ffffffffffffffffffffffffffffffffffffffff1681526020018573ffffffffffffffffffffffffffffffffffffffff1673ffffffffffffffffffffffffffffffffffffffff1681526020018481526020018381526020018281526020019550505050505060405180910390a1600760009054906101000a900473ffffffffffffffffffffffffffffffffffffffff1673ffffffffffffffffffffffffffffffffffffffff16631ededc91308a8a8660e0015187606001516040518663ffffffff1660e01b8152600401808673ffffffffffffffffffffffffffffffffffffffff1673ffffffffffffffffffffffffffffffffffffffff1681526020018573ffffffffffffffffffffffffffffffffffffffff1673ffffffffffffffffffffffffffffffffffffffff1681526020018473ffffffffffffffffffffffffffffffffffffffff1673ffffffffffffffffffffffffffffffffffffffff16815260200183815260200182815260200195505050505050600060405180830381600087803b15801561653557600080fd5b505af1158015616549573d6000803e3d6000fd5b505050506000601081111561655a57fe5b8260e00151945094505050505b935093915050565b8173ffffffffffffffffffffffffffffffffffffffff166108fc829081150290604051600060405180830381858888f193505050501580156165b5573d6000803e3d6000fd5b505050565b6000808314806165ca5750600082145b61661f576040517f08c379a00000000000000000000000000000000000000000000000000000000081526004018080602001828103825260348152602001806184856034913960400191505060405180910390fd5b616627618205565b61662f6138ad565b82602001836040018281525082600381111561664757fe5b600381111561665257fe5b81525050506000600381111561666457fe5b8160200151600381111561667457fe5b1461669d576166956009602b8360200151600381111561669057fe5b61590a565b915050616e99565b600084111561673f57838160600181815250506166cc6040518060200160405280836040015181525085614387565b8260200183608001828152508260038111156166e457fe5b60038111156166ef57fe5b81525050506000600381111561670157fe5b8160200151600381111561671157fe5b1461673a57616732600960298360200151600381111561672d57fe5b61590a565b915050616e99565b6167d4565b61675b8360405180602001604052808460400151815250615b3c565b82602001836060018281525082600381111561677357fe5b600381111561677e57fe5b81525050506000600381111561679057fe5b816020015160038111156167a057fe5b146167c9576167c16009602a836020015160038111156167bc57fe5b61590a565b915050616e99565b828160800181815250505b6000600760009054906101000a900473ffffffffffffffffffffffffffffffffffffffff1673ffffffffffffffffffffffffffffffffffffffff1663eabe7d91308885606001516040518463ffffffff1660e01b8152600401808473ffffffffffffffffffffffffffffffffffffffff1673ffffffffffffffffffffffffffffffffffffffff1681526020018373ffffffffffffffffffffffffffffffffffffffff1673ffffffffffffffffffffffffffffffffffffffff1681526020018281526020019350505050602060405180830381600087803b1580156168b757600080fd5b505af11580156168cb573d6000803e3d6000fd5b505050506040513d60208110156168e157600080fd5b810190808051906020019092919050505090506000811461691257616909600360288361590a565b92505050616e99565b61691a614586565b600b54146169375761692e600a602c612f49565b92505050616e99565b616947600f548360600151615861565b836020018460a0018281525082600381111561695f57fe5b600381111561696a57fe5b81525050506000600381111561697c57fe5b8260200151600381111561698c57fe5b146169b6576169ad6009602e846020015160038111156169a857fe5b61590a565b92505050616e99565b616a03601060008873ffffffffffffffffffffffffffffffffffffffff1673ffffffffffffffffffffffffffffffffffffffff168152602001908152602001600020548360600151615861565b836020018460c00182815250826003811115616a1b57fe5b6003811115616a2657fe5b815250505060006003811115616a3857fe5b82602001516003811115616a4857fe5b14616a7257616a696009602d84602001516003811115616a6457fe5b61590a565b92505050616e99565b8160800151616a7f6143ea565b1015616a9a57616a91600e602f612f49565b92505050616e99565b616aa886836080015161656f565b8160a00151600f819055508160c00151601060008873ffffffffffffffffffffffffffffffffffffffff1673ffffffffffffffffffffffffffffffffffffffff168152602001908152602001600020819055506000601360009054906101000a900473ffffffffffffffffffffffffffffffffffffffff1673ffffffffffffffffffffffffffffffffffffffff1663e3d93523883086606001518760c001516040518563ffffffff1660e01b8152600401808573ffffffffffffffffffffffffffffffffffffffff1673ffffffffffffffffffffffffffffffffffffffff1681526020018473ffffffffffffffffffffffffffffffffffffffff1673ffffffffffffffffffffffffffffffffffffffff168152602001838152602001828152602001945050505050602060405180830381600087803b158015616bea57600080fd5b505af1158015616bfe573d6000803e3d6000fd5b505050506040513d6020811015616c1457600080fd5b8101908080519060200190929190505050905060008114616c9d576040517f08c379a00000000000000000000000000000000000000000000000000000000081526004018080602001828103825260188152602001807f444953545249425554455f544f4b454e535f4649414c4544000000000000000081525060200191505060405180910390fd5b3073ffffffffffffffffffffffffffffffffffffffff168773ffffffffffffffffffffffffffffffffffffffff167fddf252ad1be2c89b69c2b068fc378daa952ba7f163c4a11628f55a4df523b3ef85606001516040518082815260200191505060405180910390a37fe5b754fb1abb7f01b499791d0b820ae3b6af3424ac1c59768edb53f4ec31a9298784608001518560600151604051808473ffffffffffffffffffffffffffffffffffffffff1673ffffffffffffffffffffffffffffffffffffffff168152602001838152602001828152602001935050505060405180910390a1600760009054906101000a900473ffffffffffffffffffffffffffffffffffffffff1673ffffffffffffffffffffffffffffffffffffffff166351dff9893089866080015187606001516040518563ffffffff1660e01b8152600401808573ffffffffffffffffffffffffffffffffffffffff1673ffffffffffffffffffffffffffffffffffffffff1681526020018473ffffffffffffffffffffffffffffffffffffffff1673ffffffffffffffffffffffffffffffffffffffff168152602001838152602001828152602001945050505050600060405180830381600087803b158015616e6e57600080fd5b505af1158015616e82573d6000803e3d6000fd5b5050505060006010811115616e9357fe5b93505050505b9392505050565b6000806000600760009054906101000a900473ffffffffffffffffffffffffffffffffffffffff1673ffffffffffffffffffffffffffffffffffffffff16635fc7e71e30868a8a8a6040518663ffffffff1660e01b8152600401808673ffffffffffffffffffffffffffffffffffffffff1673ffffffffffffffffffffffffffffffffffffffff1681526020018573ffffffffffffffffffffffffffffffffffffffff1673ffffffffffffffffffffffffffffffffffffffff1681526020018473ffffffffffffffffffffffffffffffffffffffff1673ffffffffffffffffffffffffffffffffffffffff1681526020018373ffffffffffffffffffffffffffffffffffffffff1673ffffffffffffffffffffffffffffffffffffffff16815260200182815260200195505050505050602060405180830381600087803b158015616fea57600080fd5b505af1158015616ffe573d6000803e3d6000fd5b505050506040513d602081101561701457600080fd5b810190808051906020019092919050505090506000811461704b5761703c600360128361590a565b600080905092509250506178f4565b617053614586565b600b541461707657617067600a6016612f49565b600080905092509250506178f4565b61707e614586565b8473ffffffffffffffffffffffffffffffffffffffff1663991754d26040518163ffffffff1660e01b815260040160206040518083038186803b1580156170c457600080fd5b505afa1580156170d8573d6000803e3d6000fd5b505050506040513d60208110156170ee57600080fd5b81019080805190602001909291905050501461711f57617110600a6011612f49565b600080905092509250506178f4565b8673ffffffffffffffffffffffffffffffffffffffff168673ffffffffffffffffffffffffffffffffffffffff16141561716e5761715f60066017612f49565b600080905092509250506178f4565b60008514156171925761718360076015612f49565b600080905092509250506178f4565b7fffffffffffffffffffffffffffffffffffffffffffffffffffffffffffffffff8514156171d5576171c660076014612f49565b600080905092509250506178f4565b6000806171e3898989615cee565b91509150600060108111156171f457fe5b82146172215761721082601081111561720957fe5b6018612f49565b6000809050945094505050506178f4565b600080600760009054906101000a900473ffffffffffffffffffffffffffffffffffffffff1673ffffffffffffffffffffffffffffffffffffffff1663c488847b308a866040518463ffffffff1660e01b8152600401808473ffffffffffffffffffffffffffffffffffffffff1673ffffffffffffffffffffffffffffffffffffffff1681526020018373ffffffffffffffffffffffffffffffffffffffff1673ffffffffffffffffffffffffffffffffffffffff1681526020018281526020019350505050604080518083038186803b1580156172fe57600080fd5b505afa158015617312573d6000803e3d6000fd5b505050506040513d604081101561732857600080fd5b810190808051906020019092919080519060200190929190505050915091506000601081111561735457fe5b82146173ab576040517f08c379a00000000000000000000000000000000000000000000000000000000081526004018080602001828103825260328152602001806183666032913960400191505060405180910390fd5b808873ffffffffffffffffffffffffffffffffffffffff166370a082318c6040518263ffffffff1660e01b8152600401808273ffffffffffffffffffffffffffffffffffffffff1673ffffffffffffffffffffffffffffffffffffffff16815260200191505060206040518083038186803b15801561742957600080fd5b505afa15801561743d573d6000803e3d6000fd5b505050506040513d602081101561745357600080fd5b810190808051906020019092919050505010156174d8576040517f08c379a00000000000000000000000000000000000000000000000000000000081526004018080602001828103825260188152602001807f4c49515549444154455f5345495a455f544f4f5f4d554348000000000000000081525060200191505060405180910390fd5b60003073ffffffffffffffffffffffffffffffffffffffff168973ffffffffffffffffffffffffffffffffffffffff1614156175215761751a308d8d85614a7b565b905061761a565b8873ffffffffffffffffffffffffffffffffffffffff1663b2a02ff18d8d856040518463ffffffff1660e01b8152600401808473ffffffffffffffffffffffffffffffffffffffff1673ffffffffffffffffffffffffffffffffffffffff1681526020018373ffffffffffffffffffffffffffffffffffffffff1673ffffffffffffffffffffffffffffffffffffffff1681526020018281526020019350505050602060405180830381600087803b1580156175dc57600080fd5b505af11580156175f0573d6000803e3d6000fd5b505050506040513d602081101561760657600080fd5b810190808051906020019092919050505090505b6000601081111561762757fe5b811461769b576040517f08c379a00000000000000000000000000000000000000000000000000000000081526004018080602001828103825260148152602001807f746f6b656e207365697a757265206661696c656400000000000000000000000081525060200191505060405180910390fd5b7f298637f684da70674f26509b10f07ec2fbc77a335ab1e7d6215a4b2484d8bb528c8c868c86604051808673ffffffffffffffffffffffffffffffffffffffff1673ffffffffffffffffffffffffffffffffffffffff1681526020018573ffffffffffffffffffffffffffffffffffffffff1673ffffffffffffffffffffffffffffffffffffffff1681526020018481526020018373ffffffffffffffffffffffffffffffffffffffff1673ffffffffffffffffffffffffffffffffffffffff1681526020018281526020019550505050505060405180910390a1600760009054906101000a900473ffffffffffffffffffffffffffffffffffffffff1673ffffffffffffffffffffffffffffffffffffffff166347ef3b3b308b8f8f89886040518763ffffffff1660e01b8152600401808773ffffffffffffffffffffffffffffffffffffffff1673ffffffffffffffffffffffffffffffffffffffff1681526020018673ffffffffffffffffffffffffffffffffffffffff1673ffffffffffffffffffffffffffffffffffffffff1681526020018573ffffffffffffffffffffffffffffffffffffffff1673ffffffffffffffffffffffffffffffffffffffff1681526020018473ffffffffffffffffffffffffffffffffffffffff1673ffffffffffffffffffffffffffffffffffffffff1681526020018381526020018281526020019650505050505050600060405180830381600087803b1580156178c357600080fd5b505af11580156178d7573d6000803e3d6000fd5b50505050600060108111156178e857fe5b84975097505050505050505b94509492505050565b60008060008414156179185760008080905091509150617949565b600083850290508385828161792957fe5b041461794057600260008090509250925050617949565b60008192509250505b9250929050565b600080600083141561796c57600160008090509150915061797d565b600083858161797757fe5b04915091505b9250929050565b600080600760009054906101000a900473ffffffffffffffffffffffffffffffffffffffff1673ffffffffffffffffffffffffffffffffffffffff1663da3d454c3086866040518463ffffffff1660e01b8152600401808473ffffffffffffffffffffffffffffffffffffffff1673ffffffffffffffffffffffffffffffffffffffff1681526020018373ffffffffffffffffffffffffffffffffffffffff1673ffffffffffffffffffffffffffffffffffffffff1681526020018281526020019350505050602060405180830381600087803b158015617a6457600080fd5b505af1158015617a78573d6000803e3d6000fd5b505050506040513d6020811015617a8e57600080fd5b8101908080519060200190929190505050905060008114617abe57617ab66003600e8361590a565b915050618042565b617ac6614586565b600b5414617ae157617ad9600a80612f49565b915050618042565b82617aea6143ea565b1015617b0457617afc600e6009612f49565b915050618042565b617b0c618258565b617b158561531f565b826000018360200182815250826003811115617b2d57fe5b6003811115617b3857fe5b815250505060006003811115617b4a57fe5b81600001516003811115617b5a57fe5b14617b8457617b7b6009600783600001516003811115617b7657fe5b61590a565b92505050618042565b617b9281602001518561597e565b826000018360400182815250826003811115617baa57fe5b6003811115617bb557fe5b815250505060006003811115617bc757fe5b81600001516003811115617bd757fe5b14617c0157617bf86009600c83600001516003811115617bf357fe5b61590a565b92505050618042565b617c0d600d548561597e565b826000018360600182815250826003811115617c2557fe5b6003811115617c3057fe5b815250505060006003811115617c4257fe5b81600001516003811115617c5257fe5b14617c7c57617c736009600b83600001516003811115617c6e57fe5b61590a565b92505050618042565b617c86858561656f565b8060400151601260008773ffffffffffffffffffffffffffffffffffffffff1673ffffffffffffffffffffffffffffffffffffffff16815260200190815260200160002060000181905550600c54601260008773ffffffffffffffffffffffffffffffffffffffff1673ffffffffffffffffffffffffffffffffffffffff168152602001908152602001600020600101819055508060600151600d819055506000601360009054906101000a900473ffffffffffffffffffffffffffffffffffffffff1673ffffffffffffffffffffffffffffffffffffffff1663c7bbb1138730886040518463ffffffff1660e01b8152600401808473ffffffffffffffffffffffffffffffffffffffff1673ffffffffffffffffffffffffffffffffffffffff1681526020018373ffffffffffffffffffffffffffffffffffffffff1673ffffffffffffffffffffffffffffffffffffffff1681526020018281526020019350505050602060405180830381600087803b158015617e0457600080fd5b505af1158015617e18573d6000803e3d6000fd5b505050506040513d6020811015617e2e57600080fd5b8101908080519060200190929190505050905060008114617eb7576040517f08c379a00000000000000000000000000000000000000000000000000000000081526004018080602001828103825260188152602001807f444953545249425554455f544f4b454e535f4649414c4544000000000000000081525060200191505060405180910390fd5b7f13ed6866d4e1ee6da46f845c46d7e54120883d75c5ea9a2dacc1c4ca8984ab80868684604001518560600151604051808573ffffffffffffffffffffffffffffffffffffffff1673ffffffffffffffffffffffffffffffffffffffff16815260200184815260200183815260200182815260200194505050505060405180910390a1600760009054906101000a900473ffffffffffffffffffffffffffffffffffffffff1673ffffffffffffffffffffffffffffffffffffffff16635c7786053088886040518463ffffffff1660e01b8152600401808473ffffffffffffffffffffffffffffffffffffffff1673ffffffffffffffffffffffffffffffffffffffff1681526020018373ffffffffffffffffffffffffffffffffffffffff1673ffffffffffffffffffffffffffffffffffffffff1681526020018281526020019350505050600060405180830381600087803b15801561801757600080fd5b505af115801561802b573d6000803e3d6000fd5b505050506000601081111561803c57fe5b93505050505b92915050565b60006180526180c4565b600080618067670de0b6b3a7640000876178fd565b915091506000600381111561807857fe5b82600381111561808457fe5b146180a85781604051806020016040528060008152508090509350935050506180bd565b6180b6818660000151615bfb565b9350935050505b9250929050565b6040518060200160405280600081525090565b828054600181600116156101000203166002900490600052602060002090601f016020900481019282601f1061811857805160ff1916838001178555618146565b82800160010185558215618146579182015b8281111561814557825182559160200191906001019061812a565b5b509050618153919061828b565b5090565b6040518060e001604052806000601081111561816f57fe5b81526020016000600381111561818157fe5b815260200160008152602001600081526020016000815260200160008152602001600081525090565b604051806101000160405280600060108111156181c357fe5b8152602001600060038111156181d557fe5b81526020016000815260200160008152602001600081526020016000815260200160008152602001600081525090565b6040518060e001604052806000601081111561821d57fe5b81526020016000600381111561822f57fe5b815260200160008152602001600081526020016000815260200160008152602001600081525090565b60405180608001604052806000600381111561827057fe5b81526020016000815260200160008152602001600081525090565b6182ad91905b808211156182a9576000816000905550600101618291565b5090565b9056fe6d61726b6574206d6179206f6e6c7920626520696e697469616c697a6564206f6e6365696e697469616c2065786368616e67652072617465206d7573742062652067726561746572207468616e207a65726f2e4d494e545f4e45575f4143434f554e545f42414c414e43455f43414c43554c4154494f4e5f4641494c4544626f72726f7742616c616e636553746f7265643a20626f72726f7742616c616e636553746f726564496e7465726e616c206661696c65644c49515549444154455f434f4e54524f4c4c45525f43414c43554c4154455f414d4f554e545f5345495a455f4641494c45444845746865723a3a676574436173685072696f723a20756e6578706563746564206361736852455041595f424f52524f575f4e45575f4143434f554e545f424f52524f575f42414c414e43455f43414c43554c4154494f4e5f4641494c454452455041595f424f52524f575f4e45575f544f54414c5f42414c414e43455f43414c43554c4154494f4e5f4641494c454465786368616e67655261746553746f7265643a2065786368616e67655261746553746f726564496e7465726e616c206661696c65644d494e545f4e45575f544f54414c5f535550504c595f43414c43554c4154494f4e5f4641494c45446f6e65206f662072656465656d546f6b656e73496e206f722072656465656d416d6f756e74496e206d757374206265207a65726f72656475636520726573657276657320756e657870656374656420756e646572666c6f77a26469706673582212203ea0154c7c66cb71430562b5dcb84f4b68490e8b6a372ef8df7c0f311176be3a64736f6c63430006000033",
  "source": "pragma solidity ^0.6.0;\n\nimport \"./HToken.sol\";\n\n/**\n * @title Hades' HEther Contract\n * @notice HToken which wraps Ether\n * @author Hades\n */\ncontract HEther is HToken {\n\t/**\n\t * @notice Construct a new HEther money market\n\t * @param _admin Address of the administrator of this token\n\t * @param _controller The address of the MarketController\n\t * @param _interestRateStrategy The address of the interest rate model\n\t * @param _name ERC-20 name of this token\n\t * @param _symbol ERC-20 symbol of this token\n\t */\n\tfunction initialize(\n\t\taddress payable _admin,\n\t\tMarketControllerInterface _controller,\n\t\tInterestRateStrategyInterface _interestRateStrategy,\n\t\tDistributorInterface _distributor,\n\t\tstring calldata _name,\n\t\tstring calldata _symbol\n\t) external {\n\t\tsuper.initialize(_admin, _controller, _interestRateStrategy, _distributor, _name, _symbol, \"ETH\");\n\t}\n\n\t/*** User Interface ***/\n\n\t/**\n\t * @notice Sender supplies assets into the market and receives hTokens in exchange\n\t * @dev Reverts upon any failure\n\t */\n\tfunction mint() external payable {\n\t\t(uint256 err, ) = mintInternal(msg.value);\n\t\trequireNoError(err, \"mint failed\");\n\t}\n\n\t/**\n\t * @notice Sender redeems hTokens in exchange for the underlying asset\n\t * @dev Accrues interest whether or not the operation succeeds, unless reverted\n\t * @param redeemTokens The number of hTokens to redeem into underlying\n\t * @return uint 0=success, otherwise a failure (see ErrorReporter.sol for details)\n\t */\n\tfunction redeem(uint256 redeemTokens) external returns (uint256) {\n\t\treturn redeemInternal(redeemTokens);\n\t}\n\n\t/**\n\t * @notice Sender redeems hTokens in exchange for a specified amount of underlying asset\n\t * @dev Accrues interest whether or not the operation succeeds, unless reverted\n\t * @param redeemAmount The amount of underlying to redeem\n\t * @return uint 0=success, otherwise a failure (see ErrorReporter.sol for details)\n\t */\n\tfunction redeemUnderlying(uint256 redeemAmount) external returns (uint256) {\n\t\treturn redeemUnderlyingInternal(redeemAmount);\n\t}\n\n\t/**\n\t * @notice Sender borrows assets from the protocol to their own address\n\t * @param borrowAmount The amount of the underlying asset to borrow\n\t * @return uint 0=success, otherwise a failure (see ErrorReporter.sol for details)\n\t */\n\tfunction borrow(uint256 borrowAmount) external returns (uint256) {\n\t\treturn borrowInternal(borrowAmount);\n\t}\n\n\t/**\n\t * @notice Sender repays their own borrow\n\t * @dev Reverts upon any failure\n\t */\n\tfunction repayBorrow() external payable {\n\t\t(uint256 err, ) = repayBorrowInternal(msg.value);\n\t\trequireNoError(err, \"repayBorrow failed\");\n\t}\n\n\t/**\n\t * @notice Sender repays a borrow belonging to borrower\n\t * @dev Reverts upon any failure\n\t * @param borrower the account with the debt being payed off\n\t */\n\tfunction repayBorrowBehalf(address borrower) external payable {\n\t\t(uint256 err, ) = repayBorrowBehalfInternal(borrower, msg.value);\n\t\trequireNoError(err, \"repayBorrowBehalf failed\");\n\t}\n\n\t/**\n\t * @notice The sender liquidates the borrowers collateral.\n\t *  The collateral seized is transferred to the liquidator.\n\t * @dev Reverts upon any failure\n\t * @param borrower The borrower of this hToken to be liquidated\n\t * @param hTokenCollateral The market in which to seize collateral from the borrower\n\t */\n\tfunction liquidateBorrow(address borrower, HToken hTokenCollateral) external payable {\n\t\t(uint256 err, ) = liquidateBorrowInternal(borrower, msg.value, hTokenCollateral);\n\t\trequireNoError(err, \"liquidateBorrow failed\");\n\t}\n\n\t/**\n\t * @notice Send Ether to HEther to mint\n\t */\n\t/* solium-disable-next-line */\n\treceive() external payable {\n\t\t(uint256 err, ) = mintInternal(msg.value);\n\t\trequireNoError(err, \"mint failed\");\n\t}\n\n\t/*** Safe Token ***/\n\n\t/**\n\t * @notice Gets balance of this contract in terms of Ether, before this message\n\t * @dev This excludes the value of the current message, if any\n\t * @return The quantity of Ether owned by this contract\n\t */\n\tfunction getCashPrior() internal override view returns (uint256) {\n\t\t(MathError err, uint256 startingBalance) = subUInt(address(this).balance, msg.value);\n\t\trequire(err == MathError.NO_ERROR, \"HEther::getCashPrior: unexpected cash\");\n\t\treturn startingBalance;\n\t}\n\n\t/**\n\t * @notice Perform the actual transfer in, which is a no-op\n\t * @param from Address sending the Ether\n\t * @param amount Amount of Ether being sent\n\t * @return The actual amount of Ether transferred\n\t */\n\tfunction doTransferIn(address from, uint256 amount) internal override returns (uint256) {\n\t\t// Sanity checks\n\t\trequire(msg.sender == from, \"sender mismatch\");\n\t\trequire(msg.value == amount, \"value mismatch\");\n\t\treturn amount;\n\t}\n\n\tfunction doTransferOut(address payable to, uint256 amount) internal override {\n\t\t/* Send the Ether, with minimal gas and revert on failure */\n\t\tto.transfer(amount);\n\t}\n\n\tfunction requireNoError(uint256 errCode, string memory message) internal pure {\n\t\tif (errCode == uint256(Error.NO_ERROR)) {\n\t\t\treturn;\n\t\t}\n\n\t\tbytes memory fullMessage = new bytes(bytes(message).length + 5);\n\t\tuint256 i;\n\n\t\tfor (i = 0; i < bytes(message).length; i++) {\n\t\t\tfullMessage[i] = bytes(message)[i];\n\t\t}\n\n\t\tfullMessage[i + 0] = bytes1(uint8(32));\n\t\tfullMessage[i + 1] = bytes1(uint8(40));\n\t\tfullMessage[i + 2] = bytes1(uint8(48 + (errCode / 10)));\n\t\tfullMessage[i + 3] = bytes1(uint8(48 + (errCode % 10)));\n\t\tfullMessage[i + 4] = bytes1(uint8(41));\n\n\t\trequire(errCode == uint256(Error.NO_ERROR), string(fullMessage));\n\t}\n}\n",
  "sourcePath": "/hades/evm-contracts/src/HEther.sol",
  "compiler": {
    "name": "solc",
    "version": "0.6.0+commit.26b70077.Emscripten.clang"
  },
  "schemaVersion": "3.2.4",
  "updatedAt": "2020-10-27T12:03:43.029Z",
  "networkType": "ethereum",
  "devdoc": {
    "author": "Hades",
    "methods": {
      "_reduceReserves(uint256)": {
        "params": {
          "reduceAmount": "Amount of reduction to reserves"
        },
        "returns": {
          "_0": "uint 0=success, otherwise a failure (see ErrorReporter.sol for details)"
        }
      },
      "_setReserveFactor(uint256)": {
        "details": "Admin function to accrue interest and set a new reserve factor",
        "returns": {
          "_0": "uint 0=success, otherwise a failure (see ErrorReporter.sol for details)"
        }
      },
      "allowance(address,address)": {
        "params": {
          "owner": "The address of the account which owns the tokens to be spent",
          "spender": "The address of the account which may transfer tokens"
        },
        "returns": {
          "_0": "The number of tokens allowed to be spent (-1 means infinite)"
        }
      },
      "approve(address,uint256)": {
        "details": "This will overwrite the approval amount for `spender` and is subject to issues noted [here](https://eips.ethereum.org/EIPS/eip-20#approve)",
        "params": {
          "amount": "The number of tokens that are approved (-1 means infinite)",
          "spender": "The address of the account which may transfer tokens"
        },
        "returns": {
          "_0": "Whether or not the approval succeeded"
        }
      },
      "balanceOf(address)": {
        "params": {
          "owner": "The address of the account to query"
        },
        "returns": {
          "_0": "The number of tokens owned by `owner`"
        }
      },
      "balanceOfUnderlying(address)": {
        "details": "This also accrues interest in a transaction",
        "params": {
          "owner": "The address of the account to query"
        },
        "returns": {
          "_0": "The amount of underlying owned by `owner`"
        }
      },
      "borrow(uint256)": {
        "params": {
          "borrowAmount": "The amount of the underlying asset to borrow"
        },
        "returns": {
          "_0": "uint 0=success, otherwise a failure (see ErrorReporter.sol for details)"
        }
      },
      "borrowBalanceCurrent(address)": {
        "params": {
          "account": "The address whose balance should be calculated after updating borrowIndex"
        },
        "returns": {
          "_0": "The calculated balance"
        }
      },
      "exchangeRateStored()": {
        "details": "This function does not accrue interest before calculating the exchange rate",
        "returns": {
          "_0": "Calculated exchange rate scaled by 1e18"
        }
      },
      "getAccountSnapshot(address)": {
        "details": "This is used by controller to more efficiently perform liquidity checks.",
        "params": {
          "account": "Address of the account to snapshot"
        },
        "returns": {
          "_0": "(possible error, token balance, borrow balance, exchange rate mantissa)"
        }
      },
      "initialize(address,address,address,address,string,string)": {
        "params": {
          "_admin": "Address of the administrator of this token",
          "_controller": "The address of the MarketController",
          "_interestRateStrategy": "The address of the interest rate model",
          "_name": "ERC-20 name of this token",
          "_symbol": "ERC-20 symbol of this token"
        }
      },
      "initialize(address,address,address,address,string,string,string)": {
        "params": {
          "_controller": "The address of the MarketController",
          "_interestRateStrategy": "The address of the interest rate model",
          "_name": "EIP-20 name of this token",
          "_symbol": "EIP-20 symbol of this token"
        }
      },
      "liquidateBorrow(address,address)": {
        "details": "Reverts upon any failure",
        "params": {
          "borrower": "The borrower of this hToken to be liquidated",
          "hTokenCollateral": "The market in which to seize collateral from the borrower"
        }
      },
      "mint()": {
        "details": "Reverts upon any failure"
      },
      "redeem(uint256)": {
        "details": "Accrues interest whether or not the operation succeeds, unless reverted",
        "params": {
          "redeemTokens": "The number of hTokens to redeem into underlying"
        },
        "returns": {
          "_0": "uint 0=success, otherwise a failure (see ErrorReporter.sol for details)"
        }
      },
      "redeemUnderlying(uint256)": {
        "details": "Accrues interest whether or not the operation succeeds, unless reverted",
        "params": {
          "redeemAmount": "The amount of underlying to redeem"
        },
        "returns": {
          "_0": "uint 0=success, otherwise a failure (see ErrorReporter.sol for details)"
        }
      },
      "repayBorrow()": {
        "details": "Reverts upon any failure"
      },
      "repayBorrowBehalf(address)": {
        "details": "Reverts upon any failure",
        "params": {
          "borrower": "the account with the debt being payed off"
        }
      },
      "seize(address,address,uint256)": {
        "details": "Will fail unless called by another hToken during the process of liquidation. Its absolutely critical to use msg.sender as the borrowed hToken and not a parameter.",
        "params": {
          "borrower": "The account having collateral seized",
          "liquidator": "The account receiving seized collateral",
          "seizeTokens": "The number of hTokens to seize"
        },
        "returns": {
          "_0": "uint 0=success, otherwise a failure (see ErrorReporter.sol for details)"
        }
      },
      "transfer(address,uint256)": {
        "params": {
          "amount": "The number of tokens to transfer",
          "dst": "The address of the destination account"
        },
        "returns": {
          "_0": "Whether or not the transfer succeeded"
        }
      },
      "transferFrom(address,address,uint256)": {
        "params": {
          "amount": "The number of tokens to transfer",
          "dst": "The address of the destination account",
          "src": "The address of the source account"
        },
        "returns": {
          "_0": "Whether or not the transfer succeeded"
        }
      }
    },
    "title": "Hades' HEther Contract"
  },
  "userdoc": {
    "methods": {
      "_reduceReserves(uint256)": {
        "notice": "Accrues interest and reduces reserves by transferring to admin"
      },
      "_setReserveFactor(uint256)": {
        "notice": "accrues interest and sets a new reserve factor for the protocol using _setReserveFactorFresh"
      },
      "allowance(address,address)": {
        "notice": "Get the current allowance from `owner` for `spender`"
      },
      "approve(address,uint256)": {
        "notice": "Approve `spender` to transfer up to `amount` from `src`"
      },
      "balanceOf(address)": {
        "notice": "Get the token balance of the `owner`"
      },
      "balanceOfUnderlying(address)": {
        "notice": "Get the underlying balance of the `owner`"
      },
      "borrow(uint256)": {
        "notice": "Sender borrows assets from the protocol to their own address"
      },
      "borrowBalanceCurrent(address)": {
        "notice": "Accrue interest to updated borrowIndex and then calculate account's borrow balance using the updated borrowIndex"
      },
      "borrowRatePerBlock()": {
        "notice": "Returns the current per-block borrow interest rate for this hToken"
      },
      "exchangeRateCurrent()": {
        "notice": "Accrue interest then return the up-to-date exchange rate"
      },
      "exchangeRateStored()": {
        "notice": "Calculates the exchange rate from the underlying to the HToken"
      },
      "getAccountSnapshot(address)": {
        "notice": "Get a snapshot of the account's balances, and the cached exchange rate"
      },
      "getCash()": {
        "notice": "Get cash balance of this hToken in the underlying asset"
      },
      "initialize(address,address,address,address,string,string)": {
        "notice": "Construct a new HEther money market"
      },
      "initialize(address,address,address,address,string,string,string)": {
        "notice": "Initialize the money market"
      },
      "liquidateBorrow(address,address)": {
        "notice": "The sender liquidates the borrowers collateral. The collateral seized is transferred to the liquidator."
      },
      "mint()": {
        "notice": "Sender supplies assets into the market and receives hTokens in exchange"
      },
      "redeem(uint256)": {
        "notice": "Sender redeems hTokens in exchange for the underlying asset"
      },
      "redeemUnderlying(uint256)": {
        "notice": "Sender redeems hTokens in exchange for a specified amount of underlying asset"
      },
      "repayBorrow()": {
        "notice": "Sender repays their own borrow"
      },
      "repayBorrowBehalf(address)": {
        "notice": "Sender repays a borrow belonging to borrower"
      },
      "seize(address,address,uint256)": {
        "notice": "Transfers collateral tokens (this market) to the liquidator."
      },
      "supplyRatePerBlock()": {
        "notice": "Returns the current per-block supply interest rate for this hToken"
      },
      "totalBorrowsCurrent()": {
        "notice": "Returns the current total borrows plus accrued interest"
      },
      "transfer(address,uint256)": {
        "notice": "Transfer `amount` tokens from `msg.sender` to `dst`"
      },
      "transferFrom(address,address,uint256)": {
        "notice": "Transfer `amount` tokens from `src` to `dst`"
      }
    },
    "notice": "HToken which wraps Ether"
  }
}