{
  "contractName": "InitializableAdminUpgradeabilityProxy",
  "abi": [
    {
      "anonymous": false,
      "inputs": [
        {
          "indexed": false,
          "internalType": "address",
          "name": "previousAdmin",
          "type": "address"
        },
        {
          "indexed": false,
          "internalType": "address",
          "name": "newAdmin",
          "type": "address"
        }
      ],
      "name": "AdminChanged",
      "type": "event"
    },
    {
      "anonymous": false,
      "inputs": [
        {
          "indexed": true,
          "internalType": "address",
          "name": "implementation",
          "type": "address"
        }
      ],
      "name": "Upgraded",
      "type": "event"
    },
    {
      "stateMutability": "payable",
      "type": "fallback"
    },
    {
      "inputs": [],
      "name": "admin",
      "outputs": [
        {
          "internalType": "address",
          "name": "",
          "type": "address"
        }
      ],
      "stateMutability": "nonpayable",
      "type": "function"
    },
    {
      "inputs": [
        {
          "internalType": "address",
          "name": "newAdmin",
          "type": "address"
        }
      ],
      "name": "changeAdmin",
      "outputs": [],
      "stateMutability": "nonpayable",
      "type": "function"
    },
    {
      "inputs": [],
      "name": "implementation",
      "outputs": [
        {
          "internalType": "address",
          "name": "",
          "type": "address"
        }
      ],
      "stateMutability": "nonpayable",
      "type": "function"
    },
    {
      "inputs": [
        {
          "internalType": "address",
          "name": "newImplementation",
          "type": "address"
        }
      ],
      "name": "upgradeTo",
      "outputs": [],
      "stateMutability": "nonpayable",
      "type": "function"
    },
    {
      "inputs": [
        {
          "internalType": "address",
          "name": "newImplementation",
          "type": "address"
        },
        {
          "internalType": "bytes",
          "name": "data",
          "type": "bytes"
        }
      ],
      "name": "upgradeToAndCall",
      "outputs": [],
      "stateMutability": "payable",
      "type": "function"
    },
    {
      "stateMutability": "payable",
      "type": "receive"
    },
    {
      "inputs": [
        {
          "internalType": "address",
          "name": "_logic",
          "type": "address"
        },
        {
          "internalType": "address",
          "name": "_admin",
          "type": "address"
        },
        {
          "internalType": "bytes",
          "name": "_data",
          "type": "bytes"
        }
      ],
      "name": "initialize",
      "outputs": [],
      "stateMutability": "payable",
      "type": "function"
    }
  ],
  "bytecode": "0x608060405234801561001057600080fd5b50610c4a806100206000396000f3fe6080604052600436106100595760003560e01c80633659cfe6146100725780634f1ef286146100c35780635c60da1b1461015c5780638f283970146101b3578063cf7a1d7714610204578063f851a440146102ff57610068565b3661006857610066610356565b005b610070610356565b005b34801561007e57600080fd5b506100c16004803603602081101561009557600080fd5b81019080803573ffffffffffffffffffffffffffffffffffffffff169060200190929190505050610368565b005b61015a600480360360408110156100d957600080fd5b81019080803573ffffffffffffffffffffffffffffffffffffffff1690602001909291908035906020019064010000000081111561011657600080fd5b82018360208201111561012857600080fd5b8035906020019184600183028401116401000000008311171561014a57600080fd5b90919293919293905050506103bd565b005b34801561016857600080fd5b506101716104df565b604051808273ffffffffffffffffffffffffffffffffffffffff1673ffffffffffffffffffffffffffffffffffffffff16815260200191505060405180910390f35b3480156101bf57600080fd5b50610202600480360360208110156101d657600080fd5b81019080803573ffffffffffffffffffffffffffffffffffffffff169060200190929190505050610537565b005b6102fd6004803603606081101561021a57600080fd5b81019080803573ffffffffffffffffffffffffffffffffffffffff169060200190929190803573ffffffffffffffffffffffffffffffffffffffff1690602001909291908035906020019064010000000081111561027757600080fd5b82018360208201111561028957600080fd5b803590602001918460018302840111640100000000831117156102ab57600080fd5b91908080601f016020809104026020016040519081016040528093929190818152602001838380828437600081840152601f19601f8201169050808301925050505050505091929192905050506106b0565b005b34801561030b57600080fd5b506103146108f2565b604051808273ffffffffffffffffffffffffffffffffffffffff1673ffffffffffffffffffffffffffffffffffffffff16815260200191505060405180910390f35b61036661036161094a565b61097b565b565b6103706109a1565b73ffffffffffffffffffffffffffffffffffffffff163373ffffffffffffffffffffffffffffffffffffffff1614156103b1576103ac816109d2565b6103ba565b6103b9610356565b5b50565b6103c56109a1565b73ffffffffffffffffffffffffffffffffffffffff163373ffffffffffffffffffffffffffffffffffffffff1614156104d157610401836109d2565b60008373ffffffffffffffffffffffffffffffffffffffff168383604051808383808284378083019250505092505050600060405180830381855af49150503d806000811461046c576040519150601f19603f3d011682016040523d82523d6000602084013e610471565b606091505b50509050806104cb576040517f08c379a0000000000000000000000000000000000000000000000000000000008152600401808060200182810382526039815260200180610b5f6039913960400191505060405180910390fd5b506104da565b6104d9610356565b5b505050565b60006104e96109a1565b73ffffffffffffffffffffffffffffffffffffffff163373ffffffffffffffffffffffffffffffffffffffff16141561052b5761052461094a565b9050610534565b610533610356565b5b90565b61053f6109a1565b73ffffffffffffffffffffffffffffffffffffffff163373ffffffffffffffffffffffffffffffffffffffff1614156106a457600073ffffffffffffffffffffffffffffffffffffffff168173ffffffffffffffffffffffffffffffffffffffff1614156105f8576040517f08c379a0000000000000000000000000000000000000000000000000000000008152600401808060200182810382526036815260200180610b296036913960400191505060405180910390fd5b7f7e644d79422f17c01e4894b5f4f588d331ebfa28653d42ae832dc59e38c9798f6106216109a1565b82604051808373ffffffffffffffffffffffffffffffffffffffff1673ffffffffffffffffffffffffffffffffffffffff1681526020018273ffffffffffffffffffffffffffffffffffffffff1673ffffffffffffffffffffffffffffffffffffffff1681526020019250505060405180910390a161069f81610a21565b6106ad565b6106ac610356565b5b50565b600073ffffffffffffffffffffffffffffffffffffffff166106d061094a565b73ffffffffffffffffffffffffffffffffffffffff1614610759576040517f08c379a000000000000000000000000000000000000000000000000000000000815260040180806020018281038252601f8152602001807f5f696d706c656d656e746174696f6e2073686f756c64206e6f7420626520300081525060200191505060405180910390fd5b600160405180807f656970313936372e70726f78792e696d706c656d656e746174696f6e00000000815250601c019050604051809103902060001c0360001b7f360894a13ba1a3210667c828492db98dca3e2076cc3735a920a3ca505d382bbc60001b146107c357fe5b6107cc83610a50565b6107d582610a21565b6000815111156108ed5760008373ffffffffffffffffffffffffffffffffffffffff16826040518082805190602001908083835b6020831061082c5780518252602082019150602081019050602083039250610809565b6001836020036101000a038019825116818451168082178552505050505050905001915050600060405180830381855af49150503d806000811461088c576040519150601f19603f3d011682016040523d82523d6000602084013e610891565b606091505b50509050806108eb576040517f08c379a0000000000000000000000000000000000000000000000000000000008152600401808060200182810382526042815260200180610bd36042913960600191505060405180910390fd5b505b505050565b60006108fc6109a1565b73ffffffffffffffffffffffffffffffffffffffff163373ffffffffffffffffffffffffffffffffffffffff16141561093e576109376109a1565b9050610947565b610946610356565b5b90565b6000807f360894a13ba1a3210667c828492db98dca3e2076cc3735a920a3ca505d382bbc60001b9050805491505090565b3660008037600080366000845af43d6000803e806000811461099c573d6000f35b3d6000fd5b6000807fb53127684a568b3173ae13b9f8a6016e243e63b6e8ee1178d6a717850b5d610360001b9050805491505090565b6109db81610a50565b8073ffffffffffffffffffffffffffffffffffffffff167fbc7cd75a20ee27fd9adebab32041f755214dbc6bffa90cc0225b39da2e5c2d3b60405160405180910390a250565b60007fb53127684a568b3173ae13b9f8a6016e243e63b6e8ee1178d6a717850b5d610360001b90508181555050565b610a5981610add565b610aae576040517f08c379a000000000000000000000000000000000000000000000000000000000815260040180806020018281038252603b815260200180610b98603b913960400191505060405180910390fd5b60007f360894a13ba1a3210667c828492db98dca3e2076cc3735a920a3ca505d382bbc60001b90508181555050565b60008060007fc5d2460186f7233c927e7db2dcc703c0e500b653ca82273b7bfad8045d85a47060001b9050833f9150808214158015610b1f57506000801b8214155b9250505091905056fe43616e6e6f74206368616e6765207468652061646d696e206f6620612070726f787920746f20746865207a65726f20616464726573734261736541646d696e557067726164656162696c69747950726f78793a2064656c656761746563616c6c2073686f756c64207375636365656443616e6e6f742073657420612070726f787920696d706c656d656e746174696f6e20746f2061206e6f6e2d636f6e74726163742061646472657373496e697469616c697a61626c6541646d696e557067726164656162696c69747950726f78793a2064656c656761746563616c6c2073686f756c642073756363656564a2646970667358221220a5d7da629a131e0a7c582cbd0ef77d496b1068c5d1a677537bf6b13ec328ad4964736f6c63430006000033",
  "source": "pragma solidity ^0.6.0;\n\nimport \"./BaseAdminUpgradeabilityProxy.sol\";\n\n/**\n * @title InitializableAdminUpgradeabilityProxy\n * @dev Extends from BaseAdminUpgradeabilityProxy with an initializer for\n * initializing the implementation, admin, and init data.\n */\ncontract InitializableAdminUpgradeabilityProxy is BaseAdminUpgradeabilityProxy {\n\t/**\n\t * Contract initializer.\n\t * @param _logic address of the initial implementation.\n\t * @param _admin Address of the proxy administrator.\n\t * @param _data Data to send as msg.data to the implementation to initialize the proxied contract.\n\t * It should include the signature and the parameters of the function to be called, as described in\n\t * https://solidity.readthedocs.io/en/v0.4.24/abi-spec.html#function-selector-and-argument-encoding.\n\t * This parameter is optional, if no data is given the initialization call to proxied contract will be skipped.\n\t */\n\tfunction initialize(\n\t\taddress _logic,\n\t\taddress _admin,\n\t\tbytes memory _data\n\t) public payable {\n\t\trequire(_implementation() == address(0), \"_implementation should not be 0\");\n\t\tassert(IMPLEMENTATION_SLOT == bytes32(uint256(keccak256(\"eip1967.proxy.implementation\")) - 1));\n\t\t_setImplementation(_logic);\n\t\t_setAdmin(_admin);\n\t\tif (_data.length > 0) {\n\t\t\t(bool success, ) = _logic.delegatecall(_data);\n\t\t\trequire(success, \"InitializableAdminUpgradeabilityProxy: delegatecall should succeed\");\n\t\t}\n\t}\n}\n",
  "sourcePath": "/hades/evm-contracts/src/libraries/openzeppelin-upgradeability/InitializableAdminUpgradeabilityProxy.sol",
  "compiler": {
    "name": "solc",
    "version": "0.6.0+commit.26b70077.Emscripten.clang"
  },
  "schemaVersion": "3.2.4",
  "updatedAt": "2020-10-27T11:40:57.844Z",
  "devdoc": {
    "details": "Extends from BaseAdminUpgradeabilityProxy with an initializer for initializing the implementation, admin, and init data.",
    "methods": {
      "changeAdmin(address)": {
        "details": "Changes the admin of the proxy. Only the current admin can call this function.",
        "params": {
          "newAdmin": "Address to transfer proxy administration to."
        }
      },
      "initialize(address,address,bytes)": {
        "params": {
          "_admin": "Address of the proxy administrator.",
          "_data": "Data to send as msg.data to the implementation to initialize the proxied contract. It should include the signature and the parameters of the function to be called, as described in https://solidity.readthedocs.io/en/v0.4.24/abi-spec.html#function-selector-and-argument-encoding. This parameter is optional, if no data is given the initialization call to proxied contract will be skipped.",
          "_logic": "address of the initial implementation."
        }
      },
      "upgradeTo(address)": {
        "details": "Upgrade the backing implementation of the proxy. Only the admin can call this function.",
        "params": {
          "newImplementation": "Address of the new implementation."
        }
      },
      "upgradeToAndCall(address,bytes)": {
        "details": "Upgrade the backing implementation of the proxy and call a function on the new implementation. This is useful to initialize the proxied contract.",
        "params": {
          "data": "Data to send as msg.data in the low level call. It should include the signature and the parameters of the function to be called, as described in https://solidity.readthedocs.io/en/v0.4.24/abi-spec.html#function-selector-and-argument-encoding.",
          "newImplementation": "Address of the new implementation."
        }
      }
    },
    "title": "InitializableAdminUpgradeabilityProxy"
  },
  "userdoc": {
    "methods": {
      "initialize(address,address,bytes)": {
        "notice": "Contract initializer."
      }
    }
  }
}