{
  "contractName": "MarketController",
  "abi": [
    {
      "anonymous": false,
      "inputs": [
        {
          "indexed": false,
          "internalType": "string",
          "name": "action",
          "type": "string"
        },
        {
          "indexed": false,
          "internalType": "bool",
          "name": "pauseState",
          "type": "bool"
        }
      ],
      "name": "ActionPaused",
      "type": "event"
    },
    {
      "anonymous": false,
      "inputs": [
        {
          "indexed": false,
          "internalType": "address",
          "name": "hToken",
          "type": "address"
        },
        {
          "indexed": false,
          "internalType": "string",
          "name": "action",
          "type": "string"
        },
        {
          "indexed": false,
          "internalType": "bool",
          "name": "pauseState",
          "type": "bool"
        }
      ],
      "name": "ActionPaused",
      "type": "event"
    },
    {
      "anonymous": false,
      "inputs": [
        {
          "indexed": false,
          "internalType": "uint256",
          "name": "error",
          "type": "uint256"
        },
        {
          "indexed": false,
          "internalType": "uint256",
          "name": "info",
          "type": "uint256"
        },
        {
          "indexed": false,
          "internalType": "uint256",
          "name": "detail",
          "type": "uint256"
        }
      ],
      "name": "Failure",
      "type": "event"
    },
    {
      "anonymous": false,
      "inputs": [
        {
          "indexed": false,
          "internalType": "address",
          "name": "hToken",
          "type": "address"
        },
        {
          "indexed": false,
          "internalType": "address",
          "name": "account",
          "type": "address"
        }
      ],
      "name": "MarketEntered",
      "type": "event"
    },
    {
      "anonymous": false,
      "inputs": [
        {
          "indexed": false,
          "internalType": "address",
          "name": "hToken",
          "type": "address"
        },
        {
          "indexed": false,
          "internalType": "address",
          "name": "account",
          "type": "address"
        }
      ],
      "name": "MarketExited",
      "type": "event"
    },
    {
      "anonymous": false,
      "inputs": [
        {
          "indexed": false,
          "internalType": "address",
          "name": "hToken",
          "type": "address"
        }
      ],
      "name": "MarketListed",
      "type": "event"
    },
    {
      "anonymous": false,
      "inputs": [
        {
          "indexed": false,
          "internalType": "uint256",
          "name": "oldCloseFactorMantissa",
          "type": "uint256"
        },
        {
          "indexed": false,
          "internalType": "uint256",
          "name": "newCloseFactorMantissa",
          "type": "uint256"
        }
      ],
      "name": "NewCloseFactor",
      "type": "event"
    },
    {
      "anonymous": false,
      "inputs": [
        {
          "indexed": false,
          "internalType": "address",
          "name": "hToken",
          "type": "address"
        },
        {
          "indexed": false,
          "internalType": "uint256",
          "name": "oldCollateralFactorMantissa",
          "type": "uint256"
        },
        {
          "indexed": false,
          "internalType": "uint256",
          "name": "newCollateralFactorMantissa",
          "type": "uint256"
        }
      ],
      "name": "NewCollateralFactor",
      "type": "event"
    },
    {
      "anonymous": false,
      "inputs": [
        {
          "indexed": false,
          "internalType": "uint256",
          "name": "oldLiquidationIncentiveMantissa",
          "type": "uint256"
        },
        {
          "indexed": false,
          "internalType": "uint256",
          "name": "newLiquidationIncentiveMantissa",
          "type": "uint256"
        }
      ],
      "name": "NewLiquidationIncentive",
      "type": "event"
    },
    {
      "anonymous": false,
      "inputs": [
        {
          "indexed": false,
          "internalType": "uint256",
          "name": "oldMaxAssets",
          "type": "uint256"
        },
        {
          "indexed": false,
          "internalType": "uint256",
          "name": "newMaxAssets",
          "type": "uint256"
        }
      ],
      "name": "NewMaxAssets",
      "type": "event"
    },
    {
      "anonymous": false,
      "inputs": [
        {
          "indexed": false,
          "internalType": "address",
          "name": "oldPauseGuardian",
          "type": "address"
        },
        {
          "indexed": false,
          "internalType": "address",
          "name": "newPauseGuardian",
          "type": "address"
        }
      ],
      "name": "NewPauseGuardian",
      "type": "event"
    },
    {
      "inputs": [],
      "name": "_borrowGuardianPaused",
      "outputs": [
        {
          "internalType": "bool",
          "name": "",
          "type": "bool"
        }
      ],
      "stateMutability": "view",
      "type": "function"
    },
    {
      "inputs": [],
      "name": "_mintGuardianPaused",
      "outputs": [
        {
          "internalType": "bool",
          "name": "",
          "type": "bool"
        }
      ],
      "stateMutability": "view",
      "type": "function"
    },
    {
      "inputs": [
        {
          "internalType": "address",
          "name": "",
          "type": "address"
        },
        {
          "internalType": "uint256",
          "name": "",
          "type": "uint256"
        }
      ],
      "name": "accountAssets",
      "outputs": [
        {
          "internalType": "contract HToken",
          "name": "",
          "type": "address"
        }
      ],
      "stateMutability": "view",
      "type": "function"
    },
    {
      "inputs": [],
      "name": "admin",
      "outputs": [
        {
          "internalType": "address",
          "name": "",
          "type": "address"
        }
      ],
      "stateMutability": "view",
      "type": "function"
    },
    {
      "inputs": [
        {
          "internalType": "uint256",
          "name": "",
          "type": "uint256"
        }
      ],
      "name": "allMarkets",
      "outputs": [
        {
          "internalType": "contract HToken",
          "name": "",
          "type": "address"
        }
      ],
      "stateMutability": "view",
      "type": "function"
    },
    {
      "inputs": [
        {
          "internalType": "address",
          "name": "",
          "type": "address"
        }
      ],
      "name": "borrowGuardianPaused",
      "outputs": [
        {
          "internalType": "bool",
          "name": "",
          "type": "bool"
        }
      ],
      "stateMutability": "view",
      "type": "function"
    },
    {
      "inputs": [],
      "name": "closeFactorMantissa",
      "outputs": [
        {
          "internalType": "uint256",
          "name": "",
          "type": "uint256"
        }
      ],
      "stateMutability": "view",
      "type": "function"
    },
    {
      "inputs": [],
      "name": "defaultCollateralFactorMantissa",
      "outputs": [
        {
          "internalType": "uint256",
          "name": "",
          "type": "uint256"
        }
      ],
      "stateMutability": "view",
      "type": "function"
    },
    {
      "inputs": [],
      "name": "liquidationIncentiveMantissa",
      "outputs": [
        {
          "internalType": "uint256",
          "name": "",
          "type": "uint256"
        }
      ],
      "stateMutability": "view",
      "type": "function"
    },
    {
      "inputs": [
        {
          "internalType": "address",
          "name": "",
          "type": "address"
        }
      ],
      "name": "markets",
      "outputs": [
        {
          "internalType": "bool",
          "name": "isListed",
          "type": "bool"
        },
        {
          "internalType": "uint256",
          "name": "collateralFactorMantissa",
          "type": "uint256"
        }
      ],
      "stateMutability": "view",
      "type": "function"
    },
    {
      "inputs": [],
      "name": "maxAssets",
      "outputs": [
        {
          "internalType": "uint256",
          "name": "",
          "type": "uint256"
        }
      ],
      "stateMutability": "view",
      "type": "function"
    },
    {
      "inputs": [
        {
          "internalType": "address",
          "name": "",
          "type": "address"
        }
      ],
      "name": "mintGuardianPaused",
      "outputs": [
        {
          "internalType": "bool",
          "name": "",
          "type": "bool"
        }
      ],
      "stateMutability": "view",
      "type": "function"
    },
    {
      "inputs": [],
      "name": "oracle",
      "outputs": [
        {
          "internalType": "contract PriceOracleInterface",
          "name": "",
          "type": "address"
        }
      ],
      "stateMutability": "view",
      "type": "function"
    },
    {
      "inputs": [],
      "name": "pauseGuardian",
      "outputs": [
        {
          "internalType": "address",
          "name": "",
          "type": "address"
        }
      ],
      "stateMutability": "view",
      "type": "function"
    },
    {
      "inputs": [],
      "name": "seizeGuardianPaused",
      "outputs": [
        {
          "internalType": "bool",
          "name": "",
          "type": "bool"
        }
      ],
      "stateMutability": "view",
      "type": "function"
    },
    {
      "inputs": [],
      "name": "superior",
      "outputs": [
        {
          "internalType": "address",
          "name": "",
          "type": "address"
        }
      ],
      "stateMutability": "view",
      "type": "function"
    },
    {
      "inputs": [],
      "name": "transferGuardianPaused",
      "outputs": [
        {
          "internalType": "bool",
          "name": "",
          "type": "bool"
        }
      ],
      "stateMutability": "view",
      "type": "function"
    },
    {
      "inputs": [
        {
          "internalType": "address",
          "name": "_admin",
          "type": "address"
        },
        {
          "internalType": "address",
          "name": "_superior",
          "type": "address"
        },
        {
          "internalType": "address",
          "name": "_oracle",
          "type": "address"
        }
      ],
      "name": "initialize",
      "outputs": [],
      "stateMutability": "nonpayable",
      "type": "function"
    },
    {
      "inputs": [
        {
          "internalType": "address",
          "name": "account",
          "type": "address"
        }
      ],
      "name": "getAssetsIn",
      "outputs": [
        {
          "internalType": "contract HToken[]",
          "name": "",
          "type": "address[]"
        }
      ],
      "stateMutability": "view",
      "type": "function"
    },
    {
      "inputs": [],
      "name": "getAllMarkets",
      "outputs": [
        {
          "internalType": "contract HToken[]",
          "name": "",
          "type": "address[]"
        }
      ],
      "stateMutability": "view",
      "type": "function"
    },
    {
      "inputs": [
        {
          "internalType": "address",
          "name": "account",
          "type": "address"
        },
        {
          "internalType": "contract HToken",
          "name": "hToken",
          "type": "address"
        }
      ],
      "name": "checkMembership",
      "outputs": [
        {
          "internalType": "bool",
          "name": "",
          "type": "bool"
        }
      ],
      "stateMutability": "view",
      "type": "function"
    },
    {
      "inputs": [
        {
          "internalType": "address[]",
          "name": "hTokens",
          "type": "address[]"
        }
      ],
      "name": "enterMarkets",
      "outputs": [
        {
          "internalType": "uint256[]",
          "name": "",
          "type": "uint256[]"
        }
      ],
      "stateMutability": "nonpayable",
      "type": "function"
    },
    {
      "inputs": [
        {
          "internalType": "address",
          "name": "hTokenAddress",
          "type": "address"
        }
      ],
      "name": "exitMarket",
      "outputs": [
        {
          "internalType": "uint256",
          "name": "",
          "type": "uint256"
        }
      ],
      "stateMutability": "nonpayable",
      "type": "function"
    },
    {
      "inputs": [
        {
          "internalType": "address",
          "name": "hToken",
          "type": "address"
        }
      ],
      "name": "distributeAllowed",
      "outputs": [
        {
          "internalType": "bool",
          "name": "",
          "type": "bool"
        }
      ],
      "stateMutability": "view",
      "type": "function"
    },
    {
      "inputs": [
        {
          "internalType": "address",
          "name": "hToken",
          "type": "address"
        },
        {
          "internalType": "address",
          "name": "minter",
          "type": "address"
        },
        {
          "internalType": "uint256",
          "name": "mintAmount",
          "type": "uint256"
        }
      ],
      "name": "mintAllowed",
      "outputs": [
        {
          "internalType": "uint256",
          "name": "",
          "type": "uint256"
        }
      ],
      "stateMutability": "nonpayable",
      "type": "function"
    },
    {
      "inputs": [
        {
          "internalType": "address",
          "name": "hToken",
          "type": "address"
        },
        {
          "internalType": "address",
          "name": "minter",
          "type": "address"
        },
        {
          "internalType": "uint256",
          "name": "actualMintAmount",
          "type": "uint256"
        },
        {
          "internalType": "uint256",
          "name": "mintTokens",
          "type": "uint256"
        }
      ],
      "name": "mintVerify",
      "outputs": [],
      "stateMutability": "nonpayable",
      "type": "function"
    },
    {
      "inputs": [
        {
          "internalType": "address",
          "name": "hToken",
          "type": "address"
        },
        {
          "internalType": "address",
          "name": "redeemer",
          "type": "address"
        },
        {
          "internalType": "uint256",
          "name": "redeemTokens",
          "type": "uint256"
        }
      ],
      "name": "redeemAllowed",
      "outputs": [
        {
          "internalType": "uint256",
          "name": "",
          "type": "uint256"
        }
      ],
      "stateMutability": "nonpayable",
      "type": "function"
    },
    {
      "inputs": [
        {
          "internalType": "address",
          "name": "hToken",
          "type": "address"
        },
        {
          "internalType": "address",
          "name": "redeemer",
          "type": "address"
        },
        {
          "internalType": "uint256",
          "name": "redeemAmount",
          "type": "uint256"
        },
        {
          "internalType": "uint256",
          "name": "redeemTokens",
          "type": "uint256"
        }
      ],
      "name": "redeemVerify",
      "outputs": [],
      "stateMutability": "nonpayable",
      "type": "function"
    },
    {
      "inputs": [
        {
          "internalType": "address",
          "name": "hToken",
          "type": "address"
        },
        {
          "internalType": "address",
          "name": "borrower",
          "type": "address"
        },
        {
          "internalType": "uint256",
          "name": "borrowAmount",
          "type": "uint256"
        }
      ],
      "name": "borrowAllowed",
      "outputs": [
        {
          "internalType": "uint256",
          "name": "",
          "type": "uint256"
        }
      ],
      "stateMutability": "nonpayable",
      "type": "function"
    },
    {
      "inputs": [
        {
          "internalType": "address",
          "name": "hToken",
          "type": "address"
        },
        {
          "internalType": "address",
          "name": "borrower",
          "type": "address"
        },
        {
          "internalType": "uint256",
          "name": "borrowAmount",
          "type": "uint256"
        }
      ],
      "name": "borrowVerify",
      "outputs": [],
      "stateMutability": "nonpayable",
      "type": "function"
    },
    {
      "inputs": [
        {
          "internalType": "address",
          "name": "hToken",
          "type": "address"
        },
        {
          "internalType": "address",
          "name": "payer",
          "type": "address"
        },
        {
          "internalType": "address",
          "name": "borrower",
          "type": "address"
        },
        {
          "internalType": "uint256",
          "name": "repayAmount",
          "type": "uint256"
        }
      ],
      "name": "repayBorrowAllowed",
      "outputs": [
        {
          "internalType": "uint256",
          "name": "",
          "type": "uint256"
        }
      ],
      "stateMutability": "nonpayable",
      "type": "function"
    },
    {
      "inputs": [
        {
          "internalType": "address",
          "name": "hToken",
          "type": "address"
        },
        {
          "internalType": "address",
          "name": "payer",
          "type": "address"
        },
        {
          "internalType": "address",
          "name": "borrower",
          "type": "address"
        },
        {
          "internalType": "uint256",
          "name": "actualRepayAmount",
          "type": "uint256"
        },
        {
          "internalType": "uint256",
          "name": "borrowerIndex",
          "type": "uint256"
        }
      ],
      "name": "repayBorrowVerify",
      "outputs": [],
      "stateMutability": "nonpayable",
      "type": "function"
    },
    {
      "inputs": [
        {
          "internalType": "address",
          "name": "hTokenBorrowed",
          "type": "address"
        },
        {
          "internalType": "address",
          "name": "hTokenCollateral",
          "type": "address"
        },
        {
          "internalType": "address",
          "name": "liquidator",
          "type": "address"
        },
        {
          "internalType": "address",
          "name": "borrower",
          "type": "address"
        },
        {
          "internalType": "uint256",
          "name": "repayAmount",
          "type": "uint256"
        }
      ],
      "name": "liquidateBorrowAllowed",
      "outputs": [
        {
          "internalType": "uint256",
          "name": "",
          "type": "uint256"
        }
      ],
      "stateMutability": "nonpayable",
      "type": "function"
    },
    {
      "inputs": [
        {
          "internalType": "address",
          "name": "hTokenBorrowed",
          "type": "address"
        },
        {
          "internalType": "address",
          "name": "hTokenCollateral",
          "type": "address"
        },
        {
          "internalType": "address",
          "name": "liquidator",
          "type": "address"
        },
        {
          "internalType": "address",
          "name": "borrower",
          "type": "address"
        },
        {
          "internalType": "uint256",
          "name": "actualRepayAmount",
          "type": "uint256"
        },
        {
          "internalType": "uint256",
          "name": "seizeTokens",
          "type": "uint256"
        }
      ],
      "name": "liquidateBorrowVerify",
      "outputs": [],
      "stateMutability": "nonpayable",
      "type": "function"
    },
    {
      "inputs": [
        {
          "internalType": "address",
          "name": "hTokenCollateral",
          "type": "address"
        },
        {
          "internalType": "address",
          "name": "hTokenBorrowed",
          "type": "address"
        },
        {
          "internalType": "address",
          "name": "liquidator",
          "type": "address"
        },
        {
          "internalType": "address",
          "name": "borrower",
          "type": "address"
        },
        {
          "internalType": "uint256",
          "name": "seizeTokens",
          "type": "uint256"
        }
      ],
      "name": "seizeAllowed",
      "outputs": [
        {
          "internalType": "uint256",
          "name": "",
          "type": "uint256"
        }
      ],
      "stateMutability": "nonpayable",
      "type": "function"
    },
    {
      "inputs": [
        {
          "internalType": "address",
          "name": "hTokenCollateral",
          "type": "address"
        },
        {
          "internalType": "address",
          "name": "hTokenBorrowed",
          "type": "address"
        },
        {
          "internalType": "address",
          "name": "liquidator",
          "type": "address"
        },
        {
          "internalType": "address",
          "name": "borrower",
          "type": "address"
        },
        {
          "internalType": "uint256",
          "name": "seizeTokens",
          "type": "uint256"
        }
      ],
      "name": "seizeVerify",
      "outputs": [],
      "stateMutability": "nonpayable",
      "type": "function"
    },
    {
      "inputs": [
        {
          "internalType": "address",
          "name": "hToken",
          "type": "address"
        },
        {
          "internalType": "address",
          "name": "src",
          "type": "address"
        },
        {
          "internalType": "address",
          "name": "dst",
          "type": "address"
        },
        {
          "internalType": "uint256",
          "name": "transferTokens",
          "type": "uint256"
        }
      ],
      "name": "transferAllowed",
      "outputs": [
        {
          "internalType": "uint256",
          "name": "",
          "type": "uint256"
        }
      ],
      "stateMutability": "nonpayable",
      "type": "function"
    },
    {
      "inputs": [
        {
          "internalType": "address",
          "name": "hToken",
          "type": "address"
        },
        {
          "internalType": "address",
          "name": "src",
          "type": "address"
        },
        {
          "internalType": "address",
          "name": "dst",
          "type": "address"
        },
        {
          "internalType": "uint256",
          "name": "transferTokens",
          "type": "uint256"
        }
      ],
      "name": "transferVerify",
      "outputs": [],
      "stateMutability": "nonpayable",
      "type": "function"
    },
    {
      "inputs": [
        {
          "internalType": "address",
          "name": "account",
          "type": "address"
        }
      ],
      "name": "getAccountLiquidity",
      "outputs": [
        {
          "internalType": "uint256",
          "name": "",
          "type": "uint256"
        },
        {
          "internalType": "uint256",
          "name": "",
          "type": "uint256"
        },
        {
          "internalType": "uint256",
          "name": "",
          "type": "uint256"
        }
      ],
      "stateMutability": "view",
      "type": "function"
    },
    {
      "inputs": [
        {
          "internalType": "address",
          "name": "account",
          "type": "address"
        },
        {
          "internalType": "address",
          "name": "hTokenModify",
          "type": "address"
        },
        {
          "internalType": "uint256",
          "name": "redeemTokens",
          "type": "uint256"
        },
        {
          "internalType": "uint256",
          "name": "borrowAmount",
          "type": "uint256"
        }
      ],
      "name": "getHypotheticalAccountLiquidity",
      "outputs": [
        {
          "internalType": "uint256",
          "name": "",
          "type": "uint256"
        },
        {
          "internalType": "uint256",
          "name": "",
          "type": "uint256"
        },
        {
          "internalType": "uint256",
          "name": "",
          "type": "uint256"
        }
      ],
      "stateMutability": "view",
      "type": "function"
    },
    {
      "inputs": [
        {
          "internalType": "address",
          "name": "hTokenBorrowed",
          "type": "address"
        },
        {
          "internalType": "address",
          "name": "hTokenCollateral",
          "type": "address"
        },
        {
          "internalType": "uint256",
          "name": "actualRepayAmount",
          "type": "uint256"
        }
      ],
      "name": "liquidateCalculateSeizeTokens",
      "outputs": [
        {
          "internalType": "uint256",
          "name": "",
          "type": "uint256"
        },
        {
          "internalType": "uint256",
          "name": "",
          "type": "uint256"
        }
      ],
      "stateMutability": "view",
      "type": "function"
    },
    {
      "inputs": [
        {
          "internalType": "uint256",
          "name": "newCloseFactorMantissa",
          "type": "uint256"
        }
      ],
      "name": "_setCloseFactor",
      "outputs": [
        {
          "internalType": "uint256",
          "name": "",
          "type": "uint256"
        }
      ],
      "stateMutability": "nonpayable",
      "type": "function"
    },
    {
      "inputs": [
        {
          "internalType": "address",
          "name": "hToken",
          "type": "address"
        },
        {
          "internalType": "uint256",
          "name": "newCollateralFactorMantissa",
          "type": "uint256"
        }
      ],
      "name": "_setCollateralFactor",
      "outputs": [
        {
          "internalType": "uint256",
          "name": "",
          "type": "uint256"
        }
      ],
      "stateMutability": "nonpayable",
      "type": "function"
    },
    {
      "inputs": [
        {
          "internalType": "uint256",
          "name": "newMaxAssets",
          "type": "uint256"
        }
      ],
      "name": "_setMaxAssets",
      "outputs": [
        {
          "internalType": "uint256",
          "name": "",
          "type": "uint256"
        }
      ],
      "stateMutability": "nonpayable",
      "type": "function"
    },
    {
      "inputs": [
        {
          "internalType": "uint256",
          "name": "newLiquidationIncentiveMantissa",
          "type": "uint256"
        }
      ],
      "name": "_setLiquidationIncentive",
      "outputs": [
        {
          "internalType": "uint256",
          "name": "",
          "type": "uint256"
        }
      ],
      "stateMutability": "nonpayable",
      "type": "function"
    },
    {
      "inputs": [
        {
          "internalType": "address",
          "name": "hToken",
          "type": "address"
        }
      ],
      "name": "_supportMarket",
      "outputs": [],
      "stateMutability": "nonpayable",
      "type": "function"
    },
    {
      "inputs": [
        {
          "internalType": "address",
          "name": "newPauseGuardian",
          "type": "address"
        }
      ],
      "name": "_setPauseGuardian",
      "outputs": [
        {
          "internalType": "uint256",
          "name": "",
          "type": "uint256"
        }
      ],
      "stateMutability": "nonpayable",
      "type": "function"
    },
    {
      "inputs": [
        {
          "internalType": "address",
          "name": "hToken",
          "type": "address"
        },
        {
          "internalType": "bool",
          "name": "state",
          "type": "bool"
        }
      ],
      "name": "_setMintPaused",
      "outputs": [
        {
          "internalType": "bool",
          "name": "",
          "type": "bool"
        }
      ],
      "stateMutability": "nonpayable",
      "type": "function"
    },
    {
      "inputs": [
        {
          "internalType": "address",
          "name": "hToken",
          "type": "address"
        },
        {
          "internalType": "bool",
          "name": "state",
          "type": "bool"
        }
      ],
      "name": "_setBorrowPaused",
      "outputs": [
        {
          "internalType": "bool",
          "name": "",
          "type": "bool"
        }
      ],
      "stateMutability": "nonpayable",
      "type": "function"
    },
    {
      "inputs": [
        {
          "internalType": "bool",
          "name": "state",
          "type": "bool"
        }
      ],
      "name": "_setTransferPaused",
      "outputs": [
        {
          "internalType": "bool",
          "name": "",
          "type": "bool"
        }
      ],
      "stateMutability": "nonpayable",
      "type": "function"
    },
    {
      "inputs": [
        {
          "internalType": "bool",
          "name": "state",
          "type": "bool"
        }
      ],
      "name": "_setSeizePaused",
      "outputs": [
        {
          "internalType": "bool",
          "name": "",
          "type": "bool"
        }
      ],
      "stateMutability": "nonpayable",
      "type": "function"
    },
    {
      "inputs": [
        {
          "internalType": "address",
          "name": "_dol",
          "type": "address"
        },
        {
          "internalType": "uint256",
          "name": "amount",
          "type": "uint256"
        }
      ],
      "name": "_mintDOL",
      "outputs": [],
      "stateMutability": "nonpayable",
      "type": "function"
    },
    {
      "inputs": [
        {
          "internalType": "address",
          "name": "_dol",
          "type": "address"
        },
        {
          "internalType": "uint256",
          "name": "amount",
          "type": "uint256"
        }
      ],
      "name": "_burnDOL",
      "outputs": [],
      "stateMutability": "nonpayable",
      "type": "function"
    },
    {
      "inputs": [
        {
          "internalType": "address",
          "name": "_hDol",
          "type": "address"
        },
        {
          "internalType": "uint256",
          "name": "amount",
          "type": "uint256"
        }
      ],
      "name": "_expandDOLSupply",
      "outputs": [],
      "stateMutability": "nonpayable",
      "type": "function"
    },
    {
      "inputs": [
        {
          "internalType": "address",
          "name": "_hDol",
          "type": "address"
        },
        {
          "internalType": "uint256",
          "name": "amount",
          "type": "uint256"
        }
      ],
      "name": "_reduceDOLSupply",
      "outputs": [],
      "stateMutability": "nonpayable",
      "type": "function"
    }
  ],
  "bytecode": "0x608060405234801561001057600080fd5b506168fe80620000216000396000f3fe608060405234801561001057600080fd5b506004361061035d5760003560e01c80637dc0d1d0116101d3578063c299823811610104578063e6653f3d116100a2578063ede4edd01161007c578063ede4edd0146117fa578063ef95d37514611852578063f851a440146118a0578063fba35d32146118ea5761035d565b8063e6653f3d14611738578063e87554461461175a578063eabe7d91146117785761035d565b8063d9226ced116100de578063d9226ced14611584578063da3d454c146115c6578063dce1544914611648578063e4028eee146116d65761035d565b8063c29982381461136b578063c488847b14611439578063d02f7351146114c25761035d565b8063a76b3fda11610171578063b0772d0b1161014b578063b0772d0b146111c8578063b5bf6acf14611227578063bdcdc25814611245578063c0c53b8b146112e75761035d565b8063a76b3fda146110c9578063abfceffc1461110d578063ac0b0bb7146111a65761035d565b80638ebf6364116101ad5780638ebf636414610f9d578063929fe9a114610fe557806394b2294b1461106157806395f658981461107f5761035d565b80637dc0d1d014610ece57806387f7630314610f185780638e8f294b14610f3a5761035d565b80634e79238f116102ad5780635f5af1aa1161024b5780636d154ea5116102255780636d154ea514610d1a5780636d35bf9114610d7657806371d6e8eb14610e24578063731f0c2b14610e725761035d565b80635f5af1aa14610b725780635fc7e71e14610bca5780636a56947e14610c8c5761035d565b806351dff9891161028757806351dff989146109b857806352d84d1e14610a305780635c77860514610a9e5780635ec88c7914610b0c5761035d565b80634e79238f1461085a5780634ef4c3e1146108f45780634fd42e17146109765761035d565b806338d5de6e1161031a57806341c728b9116102f457806341c728b9146106b057806342bfa5761461072857806347ef3b3b146107845780634ada90af1461083c5761035d565b806338d5de6e146105d85780633bcf7ec1146106265780633c94786f1461068e5761035d565b806318c882a5146103625780631ededc91146103ca57806324008a621461046257806324a3d622146105045780632d70db781461054e578063317b0b7714610596575b600080fd5b6103b06004803603604081101561037857600080fd5b81019080803573ffffffffffffffffffffffffffffffffffffffff169060200190929190803515159060200190929190505050611938565b604051808215151515815260200191505060405180910390f35b610460600480360360a08110156103e057600080fd5b81019080803573ffffffffffffffffffffffffffffffffffffffff169060200190929190803573ffffffffffffffffffffffffffffffffffffffff169060200190929190803573ffffffffffffffffffffffffffffffffffffffff1690602001909291908035906020019092919080359060200190929190505050611cb7565b005b6104ee6004803603608081101561047857600080fd5b81019080803573ffffffffffffffffffffffffffffffffffffffff169060200190929190803573ffffffffffffffffffffffffffffffffffffffff169060200190929190803573ffffffffffffffffffffffffffffffffffffffff16906020019092919080359060200190929190505050611ccf565b6040518082815260200191505060405180910390f35b61050c611d51565b604051808273ffffffffffffffffffffffffffffffffffffffff1673ffffffffffffffffffffffffffffffffffffffff16815260200191505060405180910390f35b61057c6004803603602081101561056457600080fd5b81019080803515159060200190929190505050611d77565b604051808215151515815260200191505060405180910390f35b6105c2600480360360208110156105ac57600080fd5b8101908080359060200190929190505050611fdf565b6040518082815260200191505060405180910390f35b610624600480360360408110156105ee57600080fd5b81019080803573ffffffffffffffffffffffffffffffffffffffff16906020019092919080359060200190929190505050612152565b005b6106746004803603604081101561063c57600080fd5b81019080803573ffffffffffffffffffffffffffffffffffffffff169060200190929190803515159060200190929190505050612340565b604051808215151515815260200191505060405180910390f35b6106966126bf565b604051808215151515815260200191505060405180910390f35b610726600480360360808110156106c657600080fd5b81019080803573ffffffffffffffffffffffffffffffffffffffff169060200190929190803573ffffffffffffffffffffffffffffffffffffffff16906020019092919080359060200190929190803590602001909291905050506126d2565b005b61076a6004803603602081101561073e57600080fd5b81019080803573ffffffffffffffffffffffffffffffffffffffff1690602001909291905050506126e9565b604051808215151515815260200191505060405180910390f35b61083a600480360360c081101561079a57600080fd5b81019080803573ffffffffffffffffffffffffffffffffffffffff169060200190929190803573ffffffffffffffffffffffffffffffffffffffff169060200190929190803573ffffffffffffffffffffffffffffffffffffffff169060200190929190803573ffffffffffffffffffffffffffffffffffffffff1690602001909291908035906020019092919080359060200190929190505050612742565b005b61084461275b565b6040518082815260200191505060405180910390f35b6108d06004803603608081101561087057600080fd5b81019080803573ffffffffffffffffffffffffffffffffffffffff169060200190929190803573ffffffffffffffffffffffffffffffffffffffff1690602001909291908035906020019092919080359060200190929190505050612761565b60405180848152602001838152602001828152602001935050505060405180910390f35b6109606004803603606081101561090a57600080fd5b81019080803573ffffffffffffffffffffffffffffffffffffffff169060200190929190803573ffffffffffffffffffffffffffffffffffffffff1690602001909291908035906020019092919050505061279d565b6040518082815260200191505060405180910390f35b6109a26004803603602081101561098c57600080fd5b81019080803590602001909291905050506128de565b6040518082815260200191505060405180910390f35b610a2e600480360360808110156109ce57600080fd5b81019080803573ffffffffffffffffffffffffffffffffffffffff169060200190929190803573ffffffffffffffffffffffffffffffffffffffff1690602001909291908035906020019092919080359060200190929190505050612a52565b005b610a5c60048036036020811015610a4657600080fd5b8101908080359060200190929190505050612adb565b604051808273ffffffffffffffffffffffffffffffffffffffff1673ffffffffffffffffffffffffffffffffffffffff16815260200191505060405180910390f35b610b0a60048036036060811015610ab457600080fd5b81019080803573ffffffffffffffffffffffffffffffffffffffff169060200190929190803573ffffffffffffffffffffffffffffffffffffffff16906020019092919080359060200190929190505050612b17565b005b610b4e60048036036020811015610b2257600080fd5b81019080803573ffffffffffffffffffffffffffffffffffffffff169060200190929190505050612b2d565b60405180848152602001838152602001828152602001935050505060405180910390f35b610bb460048036036020811015610b8857600080fd5b81019080803573ffffffffffffffffffffffffffffffffffffffff169060200190929190505050612b68565b6040518082815260200191505060405180910390f35b610c76600480360360a0811015610be057600080fd5b81019080803573ffffffffffffffffffffffffffffffffffffffff169060200190929190803573ffffffffffffffffffffffffffffffffffffffff169060200190929190803573ffffffffffffffffffffffffffffffffffffffff169060200190929190803573ffffffffffffffffffffffffffffffffffffffff16906020019092919080359060200190929190505050612d09565b6040518082815260200191505060405180910390f35b610d1860048036036080811015610ca257600080fd5b81019080803573ffffffffffffffffffffffffffffffffffffffff169060200190929190803573ffffffffffffffffffffffffffffffffffffffff169060200190929190803573ffffffffffffffffffffffffffffffffffffffff16906020019092919080359060200190929190505050612f82565b005b610d5c60048036036020811015610d3057600080fd5b81019080803573ffffffffffffffffffffffffffffffffffffffff169060200190929190505050612f99565b604051808215151515815260200191505060405180910390f35b610e22600480360360a0811015610d8c57600080fd5b81019080803573ffffffffffffffffffffffffffffffffffffffff169060200190929190803573ffffffffffffffffffffffffffffffffffffffff169060200190929190803573ffffffffffffffffffffffffffffffffffffffff169060200190929190803573ffffffffffffffffffffffffffffffffffffffff16906020019092919080359060200190929190505050612fb9565b005b610e7060048036036040811015610e3a57600080fd5b81019080803573ffffffffffffffffffffffffffffffffffffffff16906020019092919080359060200190929190505050612fd1565b005b610eb460048036036020811015610e8857600080fd5b81019080803573ffffffffffffffffffffffffffffffffffffffff16906020019092919050505061332e565b604051808215151515815260200191505060405180910390f35b610ed661334e565b604051808273ffffffffffffffffffffffffffffffffffffffff1673ffffffffffffffffffffffffffffffffffffffff16815260200191505060405180910390f35b610f20613373565b604051808215151515815260200191505060405180910390f35b610f7c60048036036020811015610f5057600080fd5b81019080803573ffffffffffffffffffffffffffffffffffffffff169060200190929190505050613386565b60405180831515151581526020018281526020019250505060405180910390f35b610fcb60048036036020811015610fb357600080fd5b810190808035151590602001909291905050506133b7565b604051808215151515815260200191505060405180910390f35b61104760048036036040811015610ffb57600080fd5b81019080803573ffffffffffffffffffffffffffffffffffffffff169060200190929190803573ffffffffffffffffffffffffffffffffffffffff16906020019092919050505061361f565b604051808215151515815260200191505060405180910390f35b6110696136b6565b6040518082815260200191505060405180910390f35b6110876136bc565b604051808273ffffffffffffffffffffffffffffffffffffffff1673ffffffffffffffffffffffffffffffffffffffff16815260200191505060405180910390f35b61110b600480360360208110156110df57600080fd5b81019080803573ffffffffffffffffffffffffffffffffffffffff1690602001909291905050506136e2565b005b61114f6004803603602081101561112357600080fd5b81019080803573ffffffffffffffffffffffffffffffffffffffff1690602001909291905050506139d5565b6040518080602001828103825283818151815260200191508051906020019060200280838360005b83811015611192578082015181840152602081019050611177565b505050509050019250505060405180910390f35b6111ae613aa7565b604051808215151515815260200191505060405180910390f35b6111d0613aba565b6040518080602001828103825283818151815260200191508051906020019060200280838360005b838110156112135780820151818401526020810190506111f8565b505050509050019250505060405180910390f35b61122f613b48565b6040518082815260200191505060405180910390f35b6112d16004803603608081101561125b57600080fd5b81019080803573ffffffffffffffffffffffffffffffffffffffff169060200190929190803573ffffffffffffffffffffffffffffffffffffffff169060200190929190803573ffffffffffffffffffffffffffffffffffffffff16906020019092919080359060200190929190505050613b4e565b6040518082815260200191505060405180910390f35b611369600480360360608110156112fd57600080fd5b81019080803573ffffffffffffffffffffffffffffffffffffffff169060200190929190803573ffffffffffffffffffffffffffffffffffffffff169060200190929190803573ffffffffffffffffffffffffffffffffffffffff169060200190929190505050613c17565b005b6113e26004803603602081101561138157600080fd5b810190808035906020019064010000000081111561139e57600080fd5b8201836020820111156113b057600080fd5b803590602001918460208302840111640100000000831117156113d257600080fd5b9091929391929390505050613d14565b6040518080602001828103825283818151815260200191508051906020019060200280838360005b8381101561142557808201518184015260208101905061140a565b505050509050019250505060405180910390f35b6114a56004803603606081101561144f57600080fd5b81019080803573ffffffffffffffffffffffffffffffffffffffff169060200190929190803573ffffffffffffffffffffffffffffffffffffffff16906020019092919080359060200190929190505050613dd4565b604051808381526020018281526020019250505060405180910390f35b61156e600480360360a08110156114d857600080fd5b81019080803573ffffffffffffffffffffffffffffffffffffffff169060200190929190803573ffffffffffffffffffffffffffffffffffffffff169060200190929190803573ffffffffffffffffffffffffffffffffffffffff169060200190929190803573ffffffffffffffffffffffffffffffffffffffff169060200190929190803590602001909291905050506141d4565b6040518082815260200191505060405180910390f35b6115b06004803603602081101561159a57600080fd5b810190808035906020019092919050505061447b565b6040518082815260200191505060405180910390f35b611632600480360360608110156115dc57600080fd5b81019080803573ffffffffffffffffffffffffffffffffffffffff169060200190929190803573ffffffffffffffffffffffffffffffffffffffff16906020019092919080359060200190929190505050614548565b6040518082815260200191505060405180910390f35b6116946004803603604081101561165e57600080fd5b81019080803573ffffffffffffffffffffffffffffffffffffffff169060200190929190803590602001909291905050506149ee565b604051808273ffffffffffffffffffffffffffffffffffffffff1673ffffffffffffffffffffffffffffffffffffffff16815260200191505060405180910390f35b611722600480360360408110156116ec57600080fd5b81019080803573ffffffffffffffffffffffffffffffffffffffff16906020019092919080359060200190929190505050614a39565b6040518082815260200191505060405180910390f35b611740614d12565b604051808215151515815260200191505060405180910390f35b611762614d25565b6040518082815260200191505060405180910390f35b6117e46004803603606081101561178e57600080fd5b81019080803573ffffffffffffffffffffffffffffffffffffffff169060200190929190803573ffffffffffffffffffffffffffffffffffffffff16906020019092919080359060200190929190505050614d2b565b6040518082815260200191505060405180910390f35b61183c6004803603602081101561181057600080fd5b81019080803573ffffffffffffffffffffffffffffffffffffffff169060200190929190505050614d6f565b6040518082815260200191505060405180910390f35b61189e6004803603604081101561186857600080fd5b81019080803573ffffffffffffffffffffffffffffffffffffffff16906020019092919080359060200190929190505050615311565b005b6118a86154b8565b604051808273ffffffffffffffffffffffffffffffffffffffff1673ffffffffffffffffffffffffffffffffffffffff16815260200191505060405180910390f35b6119366004803603604081101561190057600080fd5b81019080803573ffffffffffffffffffffffffffffffffffffffff169060200190929190803590602001909291905050506154de565b005b6000600660008473ffffffffffffffffffffffffffffffffffffffff1673ffffffffffffffffffffffffffffffffffffffff16815260200190815260200160002060000160009054906101000a900460ff166119df576040517f08c379a00000000000000000000000000000000000000000000000000000000081526004018080602001828103825260288152602001806167996028913960400191505060405180910390fd5b600760009054906101000a900473ffffffffffffffffffffffffffffffffffffffff1673ffffffffffffffffffffffffffffffffffffffff163373ffffffffffffffffffffffffffffffffffffffff161480611a885750600b60009054906101000a900473ffffffffffffffffffffffffffffffffffffffff1673ffffffffffffffffffffffffffffffffffffffff163373ffffffffffffffffffffffffffffffffffffffff16145b611add576040517f08c379a00000000000000000000000000000000000000000000000000000000081526004018080602001828103825260278152602001806167f16027913960400191505060405180910390fd5b600b60009054906101000a900473ffffffffffffffffffffffffffffffffffffffff1673ffffffffffffffffffffffffffffffffffffffff163373ffffffffffffffffffffffffffffffffffffffff161480611b3d575060011515821515145b611baf576040517f08c379a00000000000000000000000000000000000000000000000000000000081526004018080602001828103825260168152602001807f6f6e6c792061646d696e2063616e20756e70617573650000000000000000000081525060200191505060405180910390fd5b81600960008573ffffffffffffffffffffffffffffffffffffffff1673ffffffffffffffffffffffffffffffffffffffff16815260200190815260200160002060006101000a81548160ff0219169083151502179055507f71aec636243f9709bb0007ae15e9afb8150ab01716d75fd7573be5cc096e03b08383604051808373ffffffffffffffffffffffffffffffffffffffff1673ffffffffffffffffffffffffffffffffffffffff1681526020018060200183151515158152602001828103825260068152602001807f426f72726f770000000000000000000000000000000000000000000000000000815250602001935050505060405180910390a181905092915050565b600015611cc8576004546004819055505b5050505050565b6000600660008673ffffffffffffffffffffffffffffffffffffffff1673ffffffffffffffffffffffffffffffffffffffff16815260200190815260200160002060000160009054906101000a900460ff16611d395760096011811115611d3257fe5b9050611d49565b60006011811115611d4657fe5b90505b949350505050565b600760009054906101000a900473ffffffffffffffffffffffffffffffffffffffff1681565b6000600760009054906101000a900473ffffffffffffffffffffffffffffffffffffffff1673ffffffffffffffffffffffffffffffffffffffff163373ffffffffffffffffffffffffffffffffffffffff161480611e225750600b60009054906101000a900473ffffffffffffffffffffffffffffffffffffffff1673ffffffffffffffffffffffffffffffffffffffff163373ffffffffffffffffffffffffffffffffffffffff16145b611e77576040517f08c379a00000000000000000000000000000000000000000000000000000000081526004018080602001828103825260278152602001806167f16027913960400191505060405180910390fd5b600b60009054906101000a900473ffffffffffffffffffffffffffffffffffffffff1673ffffffffffffffffffffffffffffffffffffffff163373ffffffffffffffffffffffffffffffffffffffff161480611ed7575060011515821515145b611f49576040517f08c379a00000000000000000000000000000000000000000000000000000000081526004018080602001828103825260168152602001807f6f6e6c792061646d696e2063616e20756e70617573650000000000000000000081525060200191505060405180910390fd5b81600760176101000a81548160ff0219169083151502179055507fef159d9a32b2472e32b098f954f3ce62d232939f1c207070b584df1814de2de082604051808060200183151515158152602001828103825260058152602001807f5365697a650000000000000000000000000000000000000000000000000000008152506020019250505060405180910390a1819050919050565b6000600b60009054906101000a900473ffffffffffffffffffffffffffffffffffffffff1673ffffffffffffffffffffffffffffffffffffffff163373ffffffffffffffffffffffffffffffffffffffff16146120495761204260016004615685565b905061214d565b612051616707565b604051806020016040528084815250905061206a616707565b604051806020016040528066b1a2bc2ec50000815250905061208c82826156f9565b156120a55761209c600580615685565b9250505061214d565b6120ad616707565b6040518060200160405280670c7d713b49da000081525090506120d0818461570f565b156120ea576120e0600580615685565b935050505061214d565b60006001549050856001819055507f3b9670cf975d26958e754b57098eaa2ac914d8d2a31b83257997b9f346110fd981600154604051808381526020018281526020019250505060405180910390a16000601181111561214657fe5b9450505050505b919050565b3373ffffffffffffffffffffffffffffffffffffffff16600b60009054906101000a900473ffffffffffffffffffffffffffffffffffffffff1673ffffffffffffffffffffffffffffffffffffffff1614806121fb57503373ffffffffffffffffffffffffffffffffffffffff16600c60009054906101000a900473ffffffffffffffffffffffffffffffffffffffff1673ffffffffffffffffffffffffffffffffffffffff16145b612250576040517f08c379a00000000000000000000000000000000000000000000000000000000081526004018080602001828103825260268152602001806168a36026913960400191505060405180910390fd5b60008273ffffffffffffffffffffffffffffffffffffffff16634d183e01836040518263ffffffff1660e01b815260040180828152602001915050602060405180830381600087803b1580156122a557600080fd5b505af11580156122b9573d6000803e3d6000fd5b505050506040513d60208110156122cf57600080fd5b810190808051906020019092919050505090506000811461233b576040517f08c379a00000000000000000000000000000000000000000000000000000000081526004018080602001828103825260348152602001806168186034913960400191505060405180910390fd5b505050565b6000600660008473ffffffffffffffffffffffffffffffffffffffff1673ffffffffffffffffffffffffffffffffffffffff16815260200190815260200160002060000160009054906101000a900460ff166123e7576040517f08c379a00000000000000000000000000000000000000000000000000000000081526004018080602001828103825260288152602001806167996028913960400191505060405180910390fd5b600760009054906101000a900473ffffffffffffffffffffffffffffffffffffffff1673ffffffffffffffffffffffffffffffffffffffff163373ffffffffffffffffffffffffffffffffffffffff1614806124905750600b60009054906101000a900473ffffffffffffffffffffffffffffffffffffffff1673ffffffffffffffffffffffffffffffffffffffff163373ffffffffffffffffffffffffffffffffffffffff16145b6124e5576040517f08c379a00000000000000000000000000000000000000000000000000000000081526004018080602001828103825260278152602001806167f16027913960400191505060405180910390fd5b600b60009054906101000a900473ffffffffffffffffffffffffffffffffffffffff1673ffffffffffffffffffffffffffffffffffffffff163373ffffffffffffffffffffffffffffffffffffffff161480612545575060011515821515145b6125b7576040517f08c379a00000000000000000000000000000000000000000000000000000000081526004018080602001828103825260168152602001807f6f6e6c792061646d696e2063616e20756e70617573650000000000000000000081525060200191505060405180910390fd5b81600860008573ffffffffffffffffffffffffffffffffffffffff1673ffffffffffffffffffffffffffffffffffffffff16815260200190815260200160002060006101000a81548160ff0219169083151502179055507f71aec636243f9709bb0007ae15e9afb8150ab01716d75fd7573be5cc096e03b08383604051808373ffffffffffffffffffffffffffffffffffffffff1673ffffffffffffffffffffffffffffffffffffffff1681526020018060200183151515158152602001828103825260048152602001807f4d696e7400000000000000000000000000000000000000000000000000000000815250602001935050505060405180910390a181905092915050565b600760149054906101000a900460ff1681565b6000156126e3576004546004819055505b50505050565b6000600660008373ffffffffffffffffffffffffffffffffffffffff1673ffffffffffffffffffffffffffffffffffffffff16815260200190815260200160002060000160009054906101000a900460ff169050919050565b600015612753576004546004819055505b505050505050565b60025481565b6000806000806000806127768a8a8a8a615724565b92509250925082601181111561278857fe5b82829550955095505050509450945094915050565b6000600860008573ffffffffffffffffffffffffffffffffffffffff1673ffffffffffffffffffffffffffffffffffffffff16815260200190815260200160002060009054906101000a900460ff161561285f576040517f08c379a000000000000000000000000000000000000000000000000000000000815260040180806020018281038252600e8152602001807f6d696e742069732070617573656400000000000000000000000000000000000081525060200191505060405180910390fd5b600660008573ffffffffffffffffffffffffffffffffffffffff1673ffffffffffffffffffffffffffffffffffffffff16815260200190815260200160002060000160009054906101000a900460ff166128c757600960118111156128c057fe5b90506128d7565b600060118111156128d457fe5b90505b9392505050565b6000600b60009054906101000a900473ffffffffffffffffffffffffffffffffffffffff1673ffffffffffffffffffffffffffffffffffffffff163373ffffffffffffffffffffffffffffffffffffffff1614612948576129416001600b615685565b9050612a4d565b612950616707565b6040518060200160405280848152509050612969616707565b6040518060200160405280670de0b6b3a7640000815250905061298c828261570f565b156129a65761299d6007600c615685565b92505050612a4d565b6129ae616707565b60405180602001604052806714d1120d7b16000081525090506129d1818461570f565b156129ec576129e26007600c615685565b9350505050612a4d565b60006002549050856002819055507faeba5a6c40a8ac138134bff1aaa65debf25971188a58804bad717f82f0ec13168187604051808381526020018281526020019250505060405180910390a160006011811115612a4657fe5b9450505050505b919050565b600081148015612a625750600082115b15612ad5576040517f08c379a00000000000000000000000000000000000000000000000000000000081526004018080602001828103825260118152602001807f72656465656d546f6b656e73207a65726f00000000000000000000000000000081525060200191505060405180910390fd5b50505050565b600a8181548110612ae857fe5b906000526020600020016000915054906101000a900473ffffffffffffffffffffffffffffffffffffffff1681565b600015612b28576004546004819055505b505050565b600080600080600080612b44876000806000615724565b925092509250826011811115612b5657fe5b82829550955095505050509193909250565b6000600b60009054906101000a900473ffffffffffffffffffffffffffffffffffffffff1673ffffffffffffffffffffffffffffffffffffffff163373ffffffffffffffffffffffffffffffffffffffff1614612bd257612bcb60016013615685565b9050612d04565b6000600760009054906101000a900473ffffffffffffffffffffffffffffffffffffffff16905082600760006101000a81548173ffffffffffffffffffffffffffffffffffffffff021916908373ffffffffffffffffffffffffffffffffffffffff1602179055507f0613b6ee6a04f0d09f390e4d9318894b9f6ac7fd83897cd8d18896ba579c401e81600760009054906101000a900473ffffffffffffffffffffffffffffffffffffffff16604051808373ffffffffffffffffffffffffffffffffffffffff1673ffffffffffffffffffffffffffffffffffffffff1681526020018273ffffffffffffffffffffffffffffffffffffffff1673ffffffffffffffffffffffffffffffffffffffff1681526020019250505060405180910390a160006011811115612d0057fe5b9150505b919050565b6000600660008773ffffffffffffffffffffffffffffffffffffffff1673ffffffffffffffffffffffffffffffffffffffff16815260200190815260200160002060000160009054906101000a900460ff161580612db45750600660008673ffffffffffffffffffffffffffffffffffffffff1673ffffffffffffffffffffffffffffffffffffffff16815260200190815260200160002060000160009054906101000a900460ff16155b15612dcd5760096011811115612dc657fe5b9050612f79565b600080612dd985615d48565b925050915060006011811115612deb57fe5b826011811115612df757fe5b14612e1157816011811115612e0857fe5b92505050612f79565b6000811415612e305760036011811115612e2757fe5b92505050612f79565b60008873ffffffffffffffffffffffffffffffffffffffff166317bfdfbc876040518263ffffffff1660e01b8152600401808273ffffffffffffffffffffffffffffffffffffffff1673ffffffffffffffffffffffffffffffffffffffff16815260200191505060206040518083038186803b158015612eaf57600080fd5b505afa158015612ec3573d6000803e3d6000fd5b505050506040513d6020811015612ed957600080fd5b81019080805190602001909291905050509050600080612f09604051806020016040528060015481525084615d68565b9150915060006003811115612f1a57fe5b826003811115612f2657fe5b14612f4457600b6011811115612f3857fe5b95505050505050612f79565b80871115612f6457601180811115612f5857fe5b95505050505050612f79565b60006011811115612f7157fe5b955050505050505b95945050505050565b600015612f93576004546004819055505b50505050565b60096020528060005260406000206000915054906101000a900460ff1681565b600015612fca576004546004819055505b5050505050565b3373ffffffffffffffffffffffffffffffffffffffff16600b60009054906101000a900473ffffffffffffffffffffffffffffffffffffffff1673ffffffffffffffffffffffffffffffffffffffff16148061307a57503373ffffffffffffffffffffffffffffffffffffffff16600c60009054906101000a900473ffffffffffffffffffffffffffffffffffffffff1673ffffffffffffffffffffffffffffffffffffffff16145b6130cf576040517f08c379a00000000000000000000000000000000000000000000000000000000081526004018080602001828103825260268152602001806168a36026913960400191505060405180910390fd5b600082905060008173ffffffffffffffffffffffffffffffffffffffff16636f307dc36040518163ffffffff1660e01b815260040160206040518083038186803b15801561311c57600080fd5b505afa158015613130573d6000803e3d6000fd5b505050506040513d602081101561314657600080fd5b810190808051906020019092919050505090508073ffffffffffffffffffffffffffffffffffffffff1663095ea7b3857fffffffffffffffffffffffffffffffffffffffffffffffffffffffffffffffff6040518363ffffffff1660e01b8152600401808373ffffffffffffffffffffffffffffffffffffffff1673ffffffffffffffffffffffffffffffffffffffff16815260200182815260200192505050602060405180830381600087803b15801561320057600080fd5b505af1158015613214573d6000803e3d6000fd5b505050506040513d602081101561322a57600080fd5b81019080805190602001909291905050505060008273ffffffffffffffffffffffffffffffffffffffff1663bea08558856040518263ffffffff1660e01b815260040180828152602001915050602060405180830381600087803b15801561329157600080fd5b505af11580156132a5573d6000803e3d6000fd5b505050506040513d60208110156132bb57600080fd5b8101908080519060200190929190505050905060008114613327576040517f08c379a00000000000000000000000000000000000000000000000000000000081526004018080602001828103825260328152602001806168716032913960400191505060405180910390fd5b5050505050565b60086020528060005260406000206000915054906101000a900460ff1681565b6000809054906101000a900473ffffffffffffffffffffffffffffffffffffffff1681565b600760169054906101000a900460ff1681565b60066020528060005260406000206000915090508060000160009054906101000a900460ff16908060010154905082565b6000600760009054906101000a900473ffffffffffffffffffffffffffffffffffffffff1673ffffffffffffffffffffffffffffffffffffffff163373ffffffffffffffffffffffffffffffffffffffff1614806134625750600b60009054906101000a900473ffffffffffffffffffffffffffffffffffffffff1673ffffffffffffffffffffffffffffffffffffffff163373ffffffffffffffffffffffffffffffffffffffff16145b6134b7576040517f08c379a00000000000000000000000000000000000000000000000000000000081526004018080602001828103825260278152602001806167f16027913960400191505060405180910390fd5b600b60009054906101000a900473ffffffffffffffffffffffffffffffffffffffff1673ffffffffffffffffffffffffffffffffffffffff163373ffffffffffffffffffffffffffffffffffffffff161480613517575060011515821515145b613589576040517f08c379a00000000000000000000000000000000000000000000000000000000081526004018080602001828103825260168152602001807f6f6e6c792061646d696e2063616e20756e70617573650000000000000000000081525060200191505060405180910390fd5b81600760166101000a81548160ff0219169083151502179055507fef159d9a32b2472e32b098f954f3ce62d232939f1c207070b584df1814de2de082604051808060200183151515158152602001828103825260088152602001807f5472616e736665720000000000000000000000000000000000000000000000008152506020019250505060405180910390a1819050919050565b6000600660008373ffffffffffffffffffffffffffffffffffffffff1673ffffffffffffffffffffffffffffffffffffffff16815260200190815260200160002060020160008473ffffffffffffffffffffffffffffffffffffffff1673ffffffffffffffffffffffffffffffffffffffff16815260200190815260200160002060009054906101000a900460ff16905092915050565b60045481565b600c60009054906101000a900473ffffffffffffffffffffffffffffffffffffffff1681565b3373ffffffffffffffffffffffffffffffffffffffff16600b60009054906101000a900473ffffffffffffffffffffffffffffffffffffffff1673ffffffffffffffffffffffffffffffffffffffff16148061378b57503373ffffffffffffffffffffffffffffffffffffffff16600c60009054906101000a900473ffffffffffffffffffffffffffffffffffffffff1673ffffffffffffffffffffffffffffffffffffffff16145b6137e0576040517f08c379a00000000000000000000000000000000000000000000000000000000081526004018080602001828103825260268152602001806168a36026913960400191505060405180910390fd5b600660008273ffffffffffffffffffffffffffffffffffffffff1673ffffffffffffffffffffffffffffffffffffffff16815260200190815260200160002060000160009054906101000a900460ff1615613886576040517f08c379a00000000000000000000000000000000000000000000000000000000081526004018080602001828103825260308152602001806167c16030913960400191505060405180910390fd5b6040518060400160405280600115158152602001600354815250600660008373ffffffffffffffffffffffffffffffffffffffff1673ffffffffffffffffffffffffffffffffffffffff16815260200190815260200160002060008201518160000160006101000a81548160ff02191690831515021790555060208201518160010155905050600a819080600181540180825580915050600190039060005260206000200160009091909190916101000a81548173ffffffffffffffffffffffffffffffffffffffff021916908373ffffffffffffffffffffffffffffffffffffffff1602179055507fcf583bb0c569eb967f806b11601c4cb93c10310485c67add5f8362c2f212321f81604051808273ffffffffffffffffffffffffffffffffffffffff1673ffffffffffffffffffffffffffffffffffffffff16815260200191505060405180910390a150565b606080600560008473ffffffffffffffffffffffffffffffffffffffff1673ffffffffffffffffffffffffffffffffffffffff168152602001908152602001600020805480602002602001604051908101604052809291908181526020018280548015613a9757602002820191906000526020600020905b8160009054906101000a900473ffffffffffffffffffffffffffffffffffffffff1673ffffffffffffffffffffffffffffffffffffffff1681526020019060010190808311613a4d575b5050505050905080915050919050565b600760179054906101000a900460ff1681565b6060600a805480602002602001604051908101604052809291908181526020018280548015613b3e57602002820191906000526020600020905b8160009054906101000a900473ffffffffffffffffffffffffffffffffffffffff1673ffffffffffffffffffffffffffffffffffffffff1681526020019060010190808311613af4575b5050505050905090565b60035481565b6000600760169054906101000a900460ff1615613bd3576040517f08c379a00000000000000000000000000000000000000000000000000000000081526004018080602001828103825260128152602001807f7472616e7366657220697320706175736564000000000000000000000000000081525060200191505060405180910390fd5b6000613be0868685615dcb565b905060006011811115613bef57fe5b8114613bfe5780915050613c0f565b60006011811115613c0b57fe5b9150505b949350505050565b82600b60006101000a81548173ffffffffffffffffffffffffffffffffffffffff021916908373ffffffffffffffffffffffffffffffffffffffff16021790555081600c60006101000a81548173ffffffffffffffffffffffffffffffffffffffff021916908373ffffffffffffffffffffffffffffffffffffffff160217905550806000806101000a81548173ffffffffffffffffffffffffffffffffffffffff021916908373ffffffffffffffffffffffffffffffffffffffff1602179055506706f05b59d3b20000600181905550670efcee47256c0000600281905550670a688906bd8b0000600381905550610100600481905550505050565b60606000838390509050606081604051908082528060200260200182016040528015613d4f5781602001602082028038833980820191505090505b50905060008090505b82811015613dc8576000868683818110613d6e57fe5b9050602002013573ffffffffffffffffffffffffffffffffffffffff169050613d978133615f5a565b6011811115613da257fe5b838381518110613dae57fe5b602002602001018181525050508080600101915050613d58565b50809250505092915050565b60008060008060009054906101000a900473ffffffffffffffffffffffffffffffffffffffff1673ffffffffffffffffffffffffffffffffffffffff1663fc57d4df876040518263ffffffff1660e01b8152600401808273ffffffffffffffffffffffffffffffffffffffff1673ffffffffffffffffffffffffffffffffffffffff16815260200191505060206040518083038186803b158015613e7757600080fd5b505afa158015613e8b573d6000803e3d6000fd5b505050506040513d6020811015613ea157600080fd5b8101908080519060200190929190505050905060008060009054906101000a900473ffffffffffffffffffffffffffffffffffffffff1673ffffffffffffffffffffffffffffffffffffffff1663fc57d4df876040518263ffffffff1660e01b8152600401808273ffffffffffffffffffffffffffffffffffffffff1673ffffffffffffffffffffffffffffffffffffffff16815260200191505060206040518083038186803b158015613f5457600080fd5b505afa158015613f68573d6000803e3d6000fd5b505050506040513d6020811015613f7e57600080fd5b810190808051906020019092919050505090506000821480613fa05750600081145b15613fc257600d6011811115613fb257fe5b60008090509350935050506141cc565b60008673ffffffffffffffffffffffffffffffffffffffff1663bd6d894d6040518163ffffffff1660e01b815260040160206040518083038186803b15801561400a57600080fd5b505afa15801561401e573d6000803e3d6000fd5b505050506040513d602081101561403457600080fd5b810190808051906020019092919050505090506000614051616707565b614059616707565b614061616707565b600061406f60025489616215565b80955081925050506000600381111561408457fe5b81600381111561409057fe5b146140b857600b60118111156140a257fe5b60008090509950995050505050505050506141cc565b6140c28787616215565b8094508192505050600060038111156140d757fe5b8160038111156140e357fe5b1461410b57600b60118111156140f557fe5b60008090509950995050505050505050506141cc565b6141158484616250565b80935081925050506000600381111561412a57fe5b81600381111561413657fe5b1461415e57600b601181111561414857fe5b60008090509950995050505050505050506141cc565b614168828c615d68565b80965081925050506000600381111561417d57fe5b81600381111561418957fe5b146141b157600b601181111561419b57fe5b60008090509950995050505050505050506141cc565b600060118111156141be57fe5b859950995050505050505050505b935093915050565b6000600760179054906101000a900460ff1615614259576040517f08c379a000000000000000000000000000000000000000000000000000000000815260040180806020018281038252600f8152602001807f7365697a6520697320706175736564000000000000000000000000000000000081525060200191505060405180910390fd5b600660008773ffffffffffffffffffffffffffffffffffffffff1673ffffffffffffffffffffffffffffffffffffffff16815260200190815260200160002060000160009054906101000a900460ff1615806143025750600660008673ffffffffffffffffffffffffffffffffffffffff1673ffffffffffffffffffffffffffffffffffffffff16815260200190815260200160002060000160009054906101000a900460ff16155b1561431b576009601181111561431457fe5b9050614472565b8473ffffffffffffffffffffffffffffffffffffffff1663f77c47916040518163ffffffff1660e01b815260040160206040518083038186803b15801561436157600080fd5b505afa158015614375573d6000803e3d6000fd5b505050506040513d602081101561438b57600080fd5b810190808051906020019092919050505073ffffffffffffffffffffffffffffffffffffffff168673ffffffffffffffffffffffffffffffffffffffff1663f77c47916040518163ffffffff1660e01b815260040160206040518083038186803b1580156143f857600080fd5b505afa15801561440c573d6000803e3d6000fd5b505050506040513d602081101561442257600080fd5b810190808051906020019092919050505073ffffffffffffffffffffffffffffffffffffffff1614614462576002601181111561445b57fe5b9050614472565b6000601181111561446f57fe5b90505b95945050505050565b6000600b60009054906101000a900473ffffffffffffffffffffffffffffffffffffffff1673ffffffffffffffffffffffffffffffffffffffff163373ffffffffffffffffffffffffffffffffffffffff16146144e5576144de6001600d615685565b9050614543565b60006004549050826004819055507f7093cf1eb653f749c3ff531d6df7f92764536a7fa0d13530cd26e070780c32ea8184604051808381526020018281526020019250505060405180910390a16000601181111561453f57fe5b9150505b919050565b6000600960008573ffffffffffffffffffffffffffffffffffffffff1673ffffffffffffffffffffffffffffffffffffffff16815260200190815260200160002060009054906101000a900460ff161561460a576040517f08c379a00000000000000000000000000000000000000000000000000000000081526004018080602001828103825260108152602001807f626f72726f77206973207061757365640000000000000000000000000000000081525060200191505060405180910390fd5b600660008573ffffffffffffffffffffffffffffffffffffffff1673ffffffffffffffffffffffffffffffffffffffff16815260200190815260200160002060000160009054906101000a900460ff16614672576009601181111561466b57fe5b90506149e7565b600660008573ffffffffffffffffffffffffffffffffffffffff1673ffffffffffffffffffffffffffffffffffffffff16815260200190815260200160002060020160008473ffffffffffffffffffffffffffffffffffffffff1673ffffffffffffffffffffffffffffffffffffffff16815260200190815260200160002060009054906101000a900460ff16614879578373ffffffffffffffffffffffffffffffffffffffff163373ffffffffffffffffffffffffffffffffffffffff16146147a4576040517f08c379a00000000000000000000000000000000000000000000000000000000081526004018080602001828103825260158152602001807f73656e646572206d7573742062652068546f6b656e000000000000000000000081525060200191505060405180910390fd5b60006147b03385615f5a565b9050600060118111156147bf57fe5b8160118111156147cb57fe5b146147e4578060118111156147dc57fe5b9150506149e7565b600660008673ffffffffffffffffffffffffffffffffffffffff1673ffffffffffffffffffffffffffffffffffffffff16815260200190815260200160002060020160008573ffffffffffffffffffffffffffffffffffffffff1673ffffffffffffffffffffffffffffffffffffffff16815260200190815260200160002060009054906101000a900460ff1661487757fe5b505b60008060009054906101000a900473ffffffffffffffffffffffffffffffffffffffff1673ffffffffffffffffffffffffffffffffffffffff1663fc57d4df866040518263ffffffff1660e01b8152600401808273ffffffffffffffffffffffffffffffffffffffff1673ffffffffffffffffffffffffffffffffffffffff16815260200191505060206040518083038186803b15801561491957600080fd5b505afa15801561492d573d6000803e3d6000fd5b505050506040513d602081101561494357600080fd5b8101908080519060200190929190505050141561496e57600d601181111561496757fe5b90506149e7565b60008061497e8587600087615724565b92505091506000601181111561499057fe5b82601181111561499c57fe5b146149b6578160118111156149ad57fe5b925050506149e7565b60008111156149d557600460118111156149cc57fe5b925050506149e7565b600060118111156149e257fe5b925050505b9392505050565b60056020528160005260406000208181548110614a0757fe5b906000526020600020016000915091509054906101000a900473ffffffffffffffffffffffffffffffffffffffff1681565b6000600b60009054906101000a900473ffffffffffffffffffffffffffffffffffffffff1673ffffffffffffffffffffffffffffffffffffffff163373ffffffffffffffffffffffffffffffffffffffff1614614aa357614a9c60016006615685565b9050614d0c565b6000600660008573ffffffffffffffffffffffffffffffffffffffff1673ffffffffffffffffffffffffffffffffffffffff16815260200190815260200160002090508060000160009054906101000a900460ff16614b1057614b0860096007615685565b915050614d0c565b614b18616707565b6040518060200160405280858152509050614b31616707565b6040518060200160405280670c7d713b49da00008152509050614b54818361570f565b15614b6f57614b6560066008615685565b9350505050614d0c565b60008514158015614c58575060008060009054906101000a900473ffffffffffffffffffffffffffffffffffffffff1673ffffffffffffffffffffffffffffffffffffffff1663fc57d4df886040518263ffffffff1660e01b8152600401808273ffffffffffffffffffffffffffffffffffffffff1673ffffffffffffffffffffffffffffffffffffffff16815260200191505060206040518083038186803b158015614c1b57600080fd5b505afa158015614c2f573d6000803e3d6000fd5b505050506040513d6020811015614c4557600080fd5b8101908080519060200190929190505050145b15614c7357614c69600d6009615685565b9350505050614d0c565b6000836001015490508584600101819055507f70483e6592cd5182d45ac970e05bc62cdcc90e9d8ef2c2dbe686cf383bcd7fc5878288604051808473ffffffffffffffffffffffffffffffffffffffff1673ffffffffffffffffffffffffffffffffffffffff168152602001838152602001828152602001935050505060405180910390a160006011811115614d0557fe5b9450505050505b92915050565b600760159054906101000a900460ff1681565b60015481565b600080614d39858585615dcb565b905060006011811115614d4857fe5b8114614d575780915050614d68565b60006011811115614d6457fe5b9150505b9392505050565b60008082905060008060008373ffffffffffffffffffffffffffffffffffffffff1663c37f68e2336040518263ffffffff1660e01b8152600401808273ffffffffffffffffffffffffffffffffffffffff1673ffffffffffffffffffffffffffffffffffffffff16815260200191505060806040518083038186803b158015614df757600080fd5b505afa158015614e0b573d6000803e3d6000fd5b505050506040513d6080811015614e2157600080fd5b81019080805190602001909291908051906020019092919080519060200190929190805190602001909291905050505092509250925060008314614eb0576040517f08c379a000000000000000000000000000000000000000000000000000000000815260040180806020018281038252602581526020018061684c6025913960400191505060405180910390fd5b60008114614ecf57614ec4600c6002615685565b94505050505061530c565b6000614edc873385615dcb565b905060008114614eff57614ef3600e600383616277565b9550505050505061530c565b6000600660008973ffffffffffffffffffffffffffffffffffffffff1673ffffffffffffffffffffffffffffffffffffffff16815260200190815260200160002090508060020160003373ffffffffffffffffffffffffffffffffffffffff1673ffffffffffffffffffffffffffffffffffffffff16815260200190815260200160002060009054906101000a900460ff16614faf5760006011811115614fa257fe5b965050505050505061530c565b8060020160003373ffffffffffffffffffffffffffffffffffffffff1673ffffffffffffffffffffffffffffffffffffffff16815260200190815260200160002060006101000a81549060ff02191690556060600560003373ffffffffffffffffffffffffffffffffffffffff1673ffffffffffffffffffffffffffffffffffffffff1681526020019081526020016000208054806020026020016040519081016040528092919081815260200182805480156150c157602002820191906000526020600020905b8160009054906101000a900473ffffffffffffffffffffffffffffffffffffffff1673ffffffffffffffffffffffffffffffffffffffff1681526020019060010190808311615077575b50505050509050600081519050600081905060008090505b8281101561513d578973ffffffffffffffffffffffffffffffffffffffff1684828151811061510457fe5b602002602001015173ffffffffffffffffffffffffffffffffffffffff1614156151305780915061513d565b80806001019150506150d9565b5081811061514757fe5b6000600560003373ffffffffffffffffffffffffffffffffffffffff1673ffffffffffffffffffffffffffffffffffffffff16815260200190815260200160002090508060018280549050038154811061519d57fe5b9060005260206000200160009054906101000a900473ffffffffffffffffffffffffffffffffffffffff168183815481106151d457fe5b9060005260206000200160006101000a81548173ffffffffffffffffffffffffffffffffffffffff021916908373ffffffffffffffffffffffffffffffffffffffff1602179055508080548061522657fe5b6001900381819060005260206000200160006101000a81549073ffffffffffffffffffffffffffffffffffffffff021916905590557fe699a64c18b07ac5b7301aa273f36a2287239eb9501d81950672794afba29a0d8c33604051808373ffffffffffffffffffffffffffffffffffffffff1673ffffffffffffffffffffffffffffffffffffffff1681526020018273ffffffffffffffffffffffffffffffffffffffff1673ffffffffffffffffffffffffffffffffffffffff1681526020019250505060405180910390a1600060118111156152ff57fe5b9a50505050505050505050505b919050565b3373ffffffffffffffffffffffffffffffffffffffff16600b60009054906101000a900473ffffffffffffffffffffffffffffffffffffffff1673ffffffffffffffffffffffffffffffffffffffff1614806153ba57503373ffffffffffffffffffffffffffffffffffffffff16600c60009054906101000a900473ffffffffffffffffffffffffffffffffffffffff1673ffffffffffffffffffffffffffffffffffffffff16145b61540f576040517f08c379a00000000000000000000000000000000000000000000000000000000081526004018080602001828103825260268152602001806168a36026913960400191505060405180910390fd5b60008290508073ffffffffffffffffffffffffffffffffffffffff16639dc29fac30846040518363ffffffff1660e01b8152600401808373ffffffffffffffffffffffffffffffffffffffff1673ffffffffffffffffffffffffffffffffffffffff16815260200182815260200192505050600060405180830381600087803b15801561549b57600080fd5b505af11580156154af573d6000803e3d6000fd5b50505050505050565b600b60009054906101000a900473ffffffffffffffffffffffffffffffffffffffff1681565b3373ffffffffffffffffffffffffffffffffffffffff16600b60009054906101000a900473ffffffffffffffffffffffffffffffffffffffff1673ffffffffffffffffffffffffffffffffffffffff16148061558757503373ffffffffffffffffffffffffffffffffffffffff16600c60009054906101000a900473ffffffffffffffffffffffffffffffffffffffff1673ffffffffffffffffffffffffffffffffffffffff16145b6155dc576040517f08c379a00000000000000000000000000000000000000000000000000000000081526004018080602001828103825260268152602001806168a36026913960400191505060405180910390fd5b60008290508073ffffffffffffffffffffffffffffffffffffffff166340c10f1930846040518363ffffffff1660e01b8152600401808373ffffffffffffffffffffffffffffffffffffffff1673ffffffffffffffffffffffffffffffffffffffff16815260200182815260200192505050600060405180830381600087803b15801561566857600080fd5b505af115801561567c573d6000803e3d6000fd5b50505050505050565b60007f45b96fe442630264581b197e84bbada861235052c5a1aadfff9ea4e40a969aa08360118111156156b457fe5b8360138111156156c057fe5b600060405180848152602001838152602001828152602001935050505060405180910390a18260118111156156f157fe5b905092915050565b6000816000015183600001511115905092915050565b60008160000151836000015110905092915050565b600080600061573161671a565b6000806060600560008c73ffffffffffffffffffffffffffffffffffffffff1673ffffffffffffffffffffffffffffffffffffffff1681526020019081526020016000208054806020026020016040519081016040528092919081815260200182805480156157f557602002820191906000526020600020905b8160009054906101000a900473ffffffffffffffffffffffffffffffffffffffff1673ffffffffffffffffffffffffffffffffffffffff16815260200190600101908083116157ab575b5050505050905060008090505b8151811015615cf057600082828151811061581957fe5b602002602001015190508073ffffffffffffffffffffffffffffffffffffffff1663c37f68e28e6040518263ffffffff1660e01b8152600401808273ffffffffffffffffffffffffffffffffffffffff1673ffffffffffffffffffffffffffffffffffffffff16815260200191505060806040518083038186803b1580156158a057600080fd5b505afa1580156158b4573d6000803e3d6000fd5b505050506040513d60808110156158ca57600080fd5b8101908080519060200190929190805190602001909291908051906020019092919080519060200190929190505050896040018a6060018b608001838152508381525083815250839850505050506000851461593c57600f600080819150809050985098509850505050505050615d3e565b6040518060200160405280600660008473ffffffffffffffffffffffffffffffffffffffff1673ffffffffffffffffffffffffffffffffffffffff168152602001908152602001600020600101548152508660c00181905250604051806020016040528087608001518152508660e001819052506000809054906101000a900473ffffffffffffffffffffffffffffffffffffffff1673ffffffffffffffffffffffffffffffffffffffff1663fc57d4df826040518263ffffffff1660e01b8152600401808273ffffffffffffffffffffffffffffffffffffffff1673ffffffffffffffffffffffffffffffffffffffff16815260200191505060206040518083038186803b158015615a4e57600080fd5b505afa158015615a62573d6000803e3d6000fd5b505050506040513d6020811015615a7857600080fd5b81019080805190602001909291905050508660a001818152505060008660a001511415615abb57600d600080819150809050985098509850505050505050615d3e565b60405180602001604052808760a00151815250866101000181905250615aef8660c001518760e001518861010001516162eb565b8090508761012001819052819550505060006003811115615b0c57fe5b846003811115615b1857fe5b14615b3957600b600080819150809050985098509850505050505050615d3e565b615b5186610120015187604001518860000151616351565b8760000181815250819550505060006003811115615b6b57fe5b846003811115615b7757fe5b14615b9857600b600080819150809050985098509850505050505050615d3e565b615bb086610100015187606001518860200151616351565b8760200181815250819550505060006003811115615bca57fe5b846003811115615bd657fe5b14615bf757600b600080819150809050985098509850505050505050615d3e565b8b73ffffffffffffffffffffffffffffffffffffffff168173ffffffffffffffffffffffffffffffffffffffff161415615ce257615c3f8661012001518c8860200151616351565b8760200181815250819550505060006003811115615c5957fe5b846003811115615c6557fe5b14615c8657600b600080819150809050985098509850505050505050615d3e565b615c9a8661010001518b8860200151616351565b8760200181815250819550505060006003811115615cb457fe5b846003811115615cc057fe5b14615ce157600b600080819150809050985098509850505050505050615d3e565b5b508080600101915050615802565b50836020015184600001511115615d225760008460200151856000015103600080905096509650965050505050615d3e565b6000808560000151866020015103819150965096509650505050505b9450945094915050565b6000806000615d5b846000806000615724565b9250925092509193909250565b6000806000615d75616707565b615d7f86866163bc565b9150915060006003811115615d9057fe5b826003811115615d9c57fe5b14615db257816000809050935093505050615dc4565b6000615dbd8261643a565b9350935050505b9250929050565b6000600660008573ffffffffffffffffffffffffffffffffffffffff1673ffffffffffffffffffffffffffffffffffffffff16815260200190815260200160002060000160009054906101000a900460ff16615e355760096011811115615e2e57fe5b9050615f53565b600660008573ffffffffffffffffffffffffffffffffffffffff1673ffffffffffffffffffffffffffffffffffffffff16815260200190815260200160002060020160008473ffffffffffffffffffffffffffffffffffffffff1673ffffffffffffffffffffffffffffffffffffffff16815260200190815260200160002060009054906101000a900460ff16615eda5760006011811115615ed357fe5b9050615f53565b600080615eea8587866000615724565b925050915060006011811115615efc57fe5b826011811115615f0857fe5b14615f2257816011811115615f1957fe5b92505050615f53565b6000811115615f415760046011811115615f3857fe5b92505050615f53565b60006011811115615f4e57fe5b925050505b9392505050565b600080600660008573ffffffffffffffffffffffffffffffffffffffff1673ffffffffffffffffffffffffffffffffffffffff16815260200190815260200160002090508060000160009054906101000a900460ff16615fbe57600991505061620f565b600115158160020160008573ffffffffffffffffffffffffffffffffffffffff1673ffffffffffffffffffffffffffffffffffffffff16815260200190815260200160002060009054906101000a900460ff161515141561602357600091505061620f565b600454600560008573ffffffffffffffffffffffffffffffffffffffff1673ffffffffffffffffffffffffffffffffffffffff168152602001908152602001600020805490501061607857601091505061620f565b60018160020160008573ffffffffffffffffffffffffffffffffffffffff1673ffffffffffffffffffffffffffffffffffffffff16815260200190815260200160002060006101000a81548160ff021916908315150217905550600560008473ffffffffffffffffffffffffffffffffffffffff1673ffffffffffffffffffffffffffffffffffffffff168152602001908152602001600020849080600181540180825580915050600190039060005260206000200160009091909190916101000a81548173ffffffffffffffffffffffffffffffffffffffff021916908373ffffffffffffffffffffffffffffffffffffffff1602179055507f3ab23ab0d51cccc0c3085aec51f99228625aa1a922b3a8ca89a26b0f2027a1a58484604051808373ffffffffffffffffffffffffffffffffffffffff1673ffffffffffffffffffffffffffffffffffffffff1681526020018273ffffffffffffffffffffffffffffffffffffffff1673ffffffffffffffffffffffffffffffffffffffff1681526020019250505060405180910390a160009150505b92915050565b600061621f616707565b616245604051806020016040528086815250604051806020016040528086815250616459565b915091509250929050565b600061625a616707565b61626c8460000151846000015161657a565b915091509250929050565b60007f45b96fe442630264581b197e84bbada861235052c5a1aadfff9ea4e40a969aa08460118111156162a657fe5b8460138111156162b257fe5b8460405180848152602001838152602001828152602001935050505060405180910390a18360118111156162e257fe5b90509392505050565b60006162f5616707565b60006162ff616707565b6163098787616459565b915091506000600381111561631a57fe5b82600381111561632657fe5b14616338578181935093505050616349565b6163428186616459565b9350935050505b935093915050565b600080600061635e616707565b61636887876163bc565b915091506000600381111561637957fe5b82600381111561638557fe5b1461639b578160008090509350935050506163b4565b6163ad6163a78261643a565b8661664e565b9350935050505b935093915050565b60006163c6616707565b6000806163d7866000015186616680565b91509150600060038111156163e857fe5b8260038111156163f457fe5b14616418578160405180602001604052806000815250809050935093505050616433565b60006040518060200160405280838152508090509350935050505b9250929050565b6000670de0b6b3a764000082600001518161645157fe5b049050919050565b6000616463616707565b60008061647886600001518660000151616680565b915091506000600381111561648957fe5b82600381111561649557fe5b146164b9578160405180602001604052806000815250809050935093505050616573565b6000806164d86002670de0b6b3a7640000816164d157fe5b048461664e565b91509150600060038111156164e957fe5b8260038111156164f557fe5b1461651b5781604051806020016040528060008152508090509550955050505050616573565b60008061653083670de0b6b3a76400006166d3565b915091506000600381111561654157fe5b82600381111561654d57fe5b1461655457fe5b6000604051806020016040528083815250809050975097505050505050505b9250929050565b6000616584616707565b60008061659986670de0b6b3a7640000616680565b91509150600060038111156165aa57fe5b8260038111156165b657fe5b146165da578160405180602001604052806000815250809050935093505050616647565b6000806165e783886166d3565b91509150600060038111156165f857fe5b82600381111561660457fe5b1461662a5781604051806020016040528060008152508090509550955050505050616647565b600060405180602001604052808381525080905095509550505050505b9250929050565b6000806000838501905084811061666c576000819250925050616679565b6002600080905092509250505b9250929050565b600080600084141561669b57600080809050915091506166cc565b60008385029050838582816166ac57fe5b04146166c3576002600080905092509250506166cc565b60008192509250505b9250929050565b60008060008314156166ef576001600080905091509150616700565b60008385816166fa57fe5b04915091505b9250929050565b6040518060200160405280600081525090565b604051806101400160405280600081526020016000815260200160008152602001600081526020016000815260200160008152602001616758616785565b8152602001616765616785565b8152602001616772616785565b815260200161677f616785565b81525090565b604051806020016040528060008152509056fe63616e6e6f742070617573652061206d61726b65742074686174206973206e6f74206c69737465644d61726b6574436f6e74726f6c6c65723a3a5f737570706f72744d61726b65743a20616c7265616479206c69737465646f6e6c7920706175736520677561726469616e20616e642061646d696e2063616e2070617573654d61726b6574436f6e74726f6c6c65723a3a5f6d696e74444f4c3a204845726332303a3a5f72656564656d444f4c206572726f72657869744d61726b65743a206765744163636f756e74536e617073686f74206661696c65644d61726b6574436f6e74726f6c6c65723a3a5f6d696e74444f4c3a204845726332303a3a5f6d696e74444f4c206572726f725468652063616c6c6572206d75737420626520612061646d696e206f72207375706572696f72a2646970667358221220ce3f07fe73075016bfabd9e6d6cbee42595633e825ab640d7acd4fc92115646864736f6c63430006000033",
  "source": "pragma solidity ^0.6.0;\n\nimport \"./interfaces/MarketControllerInterface.sol\";\nimport \"./interfaces/PriceOracleInterface.sol\";\nimport \"./libraries/ErrorReporter.sol\";\nimport \"./libraries/Exponential.sol\";\nimport \"./HToken.sol\";\nimport \"./HErc20.sol\";\nimport \"./HDS.sol\";\nimport \"./DOL.sol\";\n\n/**\n * @title Hades' MarketController Contract\n * @author Hades\n */\ncontract MarketController is MarketControllerInterface, MarketControllerErrorReporter, Exponential {\n\t/**\n\t * @notice Oracle which gives the price of any given asset\n\t */\n\tPriceOracleInterface public oracle;\n\n\t/**\n\t * @notice Multiplier used to calculate the maximum repayAmount when liquidating a borrow\n\t */\n\tuint256 public closeFactorMantissa;\n\n\t/**\n\t * @notice Multiplier representing the discount on collateral that a liquidator receives\n\t */\n\tuint256 public liquidationIncentiveMantissa;\n\n\t/**\n\t * @notice Default collateral factor\n\t */\n\tuint256 public defaultCollateralFactorMantissa;\n\n\t/**\n\t * @notice Max number of assets a single account can participate in (borrow or use as collateral)\n\t */\n\tuint256 public maxAssets;\n\n\t/**\n\t * @notice Per-account mapping of \"assets you are in\", capped by maxAssets\n\t */\n\tmapping(address => HToken[]) public accountAssets;\n\n\tstruct Market {\n\t\t/// @notice Whether or not this market is listed\n\t\tbool isListed;\n\t\t/**\n\t\t * @notice Multiplier representing the most one can borrow against their collateral in this market.\n\t\t *  For instance, 0.9 to allow borrowing 90% of collateral value.\n\t\t *  Must be between 0 and 1, and stored as a mantissa.\n\t\t */\n\t\tuint256 collateralFactorMantissa;\n\t\t/// @notice Per-market mapping of \"accounts in this asset\"\n\t\tmapping(address => bool) accountMembership;\n\t}\n\n\t/**\n\t * @notice Official mapping of hTokens -> Market metadata\n\t * @dev Used e.g. to determine if a market is supported\n\t */\n\tmapping(address => Market) public markets;\n\n\t/**\n\t * @notice The Pause Guardian can pause certain actions as a safety mechanism.\n\t *  Actions which allow users to remove their own assets cannot be paused.\n\t *  Liquidation / seizing / transfer can only be paused globally, not by market.\n\t */\n\taddress public pauseGuardian;\n\tbool public _mintGuardianPaused;\n\tbool public _borrowGuardianPaused;\n\tbool public transferGuardianPaused;\n\tbool public seizeGuardianPaused;\n\tmapping(address => bool) public mintGuardianPaused;\n\tmapping(address => bool) public borrowGuardianPaused;\n\n\t/// @notice A list of all markets\n\tHToken[] public allMarkets;\n\n\taddress public admin;\n\taddress public superior;\n\n\t// closeFactorMantissa must be strictly greater than this value\n\tuint256 internal constant closeFactorMinMantissa = 0.05e18; // 0.05\n\n\t// closeFactorMantissa must not exceed this value\n\tuint256 internal constant closeFactorMaxMantissa = 0.9e18; // 0.9\n\n\t// No collateralFactorMantissa may exceed this value\n\tuint256 internal constant collateralFactorMaxMantissa = 0.9e18; // 0.9\n\n\t// liquidationIncentiveMantissa must be no less than this value\n\tuint256 internal constant liquidationIncentiveMinMantissa = 1.0e18; // 1.0\n\n\t// liquidationIncentiveMantissa must be no greater than this value\n\tuint256 internal constant liquidationIncentiveMaxMantissa = 1.5e18; // 1.5\n\n\tmodifier onlyAdminOrSuperior {\n\t\trequire(admin == msg.sender || superior == msg.sender, \"The caller must be a admin or superior\");\n\t\t_;\n\t}\n\n\tfunction initialize(\n\t\taddress _admin,\n\t\taddress _superior,\n\t\taddress _oracle\n\t) external override {\n\t\tadmin = _admin;\n\t\tsuperior = _superior;\n\t\toracle = PriceOracleInterface(_oracle);\n\n\t\tcloseFactorMantissa = 0.5e18; // 0.5\n\t\tliquidationIncentiveMantissa = 1.08e18; // 1.08\n\t\tdefaultCollateralFactorMantissa = 0.75e18; // 0.75\n\t\tmaxAssets = 256;\n\t}\n\n\t/*** Assets You Are In ***/\n\n\t/**\n\t * @notice Returns the assets an account has entered\n\t * @param account The address of the account to pull assets for\n\t * @return A dynamic list with the assets the account has entered\n\t */\n\tfunction getAssetsIn(address account) external view returns (HToken[] memory) {\n\t\tHToken[] memory assetsIn = accountAssets[account];\n\n\t\treturn assetsIn;\n\t}\n\n\t/**\n\t * @notice Return all of the markets\n\t * @dev The automatic getter may be used to access an individual market.\n\t * @return The list of market addresses\n\t */\n\tfunction getAllMarkets() external view returns (HToken[] memory) {\n\t\treturn allMarkets;\n\t}\n\n\t/**\n\t * @notice Returns whether the given account is entered in the given asset\n\t * @param account The address of the account to check\n\t * @param hToken The hToken to check\n\t * @return True if the account is in the asset, otherwise false.\n\t */\n\tfunction checkMembership(address account, HToken hToken) external view returns (bool) {\n\t\treturn markets[address(hToken)].accountMembership[account];\n\t}\n\n\t/**\n\t * @notice Add assets to be included in account liquidity calculation\n\t * @param hTokens The list of addresses of the hToken markets to be enabled\n\t * @return Success indicator for whether each corresponding market was entered\n\t */\n\tfunction enterMarkets(address[] calldata hTokens) external override returns (uint256[] memory) {\n\t\tuint256 len = hTokens.length;\n\n\t\tuint256[] memory results = new uint256[](len);\n\t\tfor (uint256 i = 0; i < len; i++) {\n\t\t\tHToken hToken = HToken(hTokens[i]);\n\n\t\t\tresults[i] = uint256(addToMarketInternal(hToken, msg.sender));\n\t\t}\n\n\t\treturn results;\n\t}\n\n\t/**\n\t * @notice Add the market to the borrower's \"assets in\" for liquidity calculations\n\t * @param hToken The market to enter\n\t * @param borrower The address of the account to modify\n\t * @return Success indicator for whether the market was entered\n\t */\n\tfunction addToMarketInternal(HToken hToken, address borrower) internal returns (Error) {\n\t\tMarket storage marketToJoin = markets[address(hToken)];\n\n\t\tif (!marketToJoin.isListed) {\n\t\t\t// market is not listed, cannot join\n\t\t\treturn Error.MARKET_NOT_LISTED;\n\t\t}\n\n\t\tif (marketToJoin.accountMembership[borrower] == true) {\n\t\t\t// already joined\n\t\t\treturn Error.NO_ERROR;\n\t\t}\n\n\t\tif (accountAssets[borrower].length >= maxAssets) {\n\t\t\t// no space, cannot join\n\t\t\treturn Error.TOO_MANY_ASSETS;\n\t\t}\n\n\t\t// survived the gauntlet, add to list\n\t\t// NOTE: we store these somewhat redundantly as a significant optimization\n\t\t//  this avoids having to iterate through the list for the most common use cases\n\t\t//  that is, only when we need to perform liquidity checks\n\t\t//  and not whenever we want to check if an account is in a particular market\n\t\tmarketToJoin.accountMembership[borrower] = true;\n\t\taccountAssets[borrower].push(HToken(hToken));\n\n\t\temit MarketEntered(address(hToken), borrower);\n\n\t\treturn Error.NO_ERROR;\n\t}\n\n\t/**\n\t * @notice Removes asset from sender's account liquidity calculation\n\t * @dev Sender must not have an outstanding borrow balance in the asset,\n\t *  or be providing neccessary collateral for an outstanding borrow.\n\t * @param hTokenAddress The address of the asset to be removed\n\t * @return Whether or not the account successfully exited the market\n\t */\n\tfunction exitMarket(address hTokenAddress) external override returns (uint256) {\n\t\tHToken hToken = HToken(hTokenAddress);\n\t\t/* Get sender tokensHeld and amountOwed underlying from the hToken */\n\t\t(uint256 oErr, uint256 tokensHeld, uint256 amountOwed, ) = hToken.getAccountSnapshot(msg.sender);\n\t\trequire(oErr == 0, \"exitMarket: getAccountSnapshot failed\"); // semi-opaque error code\n\n\t\t/* Fail if the sender has a borrow balance */\n\t\tif (amountOwed != 0) {\n\t\t\treturn fail(Error.NONZERO_BORROW_BALANCE, FailureInfo.EXIT_MARKET_BALANCE_OWED);\n\t\t}\n\n\t\t/* Fail if the sender is not permitted to redeem all of their tokens */\n\t\tuint256 allowed = redeemAllowedInternal(hTokenAddress, msg.sender, tokensHeld);\n\t\tif (allowed != 0) {\n\t\t\treturn failOpaque(Error.REJECTION, FailureInfo.EXIT_MARKET_REJECTION, allowed);\n\t\t}\n\n\t\tMarket storage marketToExit = markets[hTokenAddress];\n\n\t\t/* Return true if the sender is not already in the market */\n\t\tif (!marketToExit.accountMembership[msg.sender]) {\n\t\t\treturn uint256(Error.NO_ERROR);\n\t\t}\n\n\t\t/* Set hToken account membership to false */\n\t\tdelete marketToExit.accountMembership[msg.sender];\n\n\t\t/* Delete hToken from the accounts list of assets */\n\t\t// load into memory for faster iteration\n\t\tHToken[] memory userAssetList = accountAssets[msg.sender];\n\t\tuint256 len = userAssetList.length;\n\t\tuint256 assetIndex = len;\n\t\tfor (uint256 i = 0; i < len; i++) {\n\t\t\tif (userAssetList[i] == hToken) {\n\t\t\t\tassetIndex = i;\n\t\t\t\tbreak;\n\t\t\t}\n\t\t}\n\n\t\t// We *must* have found the asset in the list or our redundant data structure is broken\n\t\tassert(assetIndex < len);\n\n\t\t// copy last item in list to location of item to be removed, reduce length by 1\n\t\tHToken[] storage storedList = accountAssets[msg.sender];\n\t\tstoredList[assetIndex] = storedList[storedList.length - 1];\n\t\tstoredList.pop();\n\n\t\temit MarketExited(hTokenAddress, msg.sender);\n\n\t\treturn uint256(Error.NO_ERROR);\n\t}\n\n\tfunction distributeAllowed(address hToken) external view returns (bool) {\n\t\treturn markets[hToken].isListed;\n\t}\n\n\t/*** Policy Hooks ***/\n\n\t/**\n\t * @notice Checks if the account should be allowed to mint tokens in the given market\n\t * @param hToken The market to verify the mint against\n\t * @param minter The account which would get the minted tokens\n\t * @param mintAmount The amount of underlying being supplied to the market in exchange for tokens\n\t * @return 0 if the mint is allowed, otherwise a semi-opaque error code (See ErrorReporter.sol)\n\t */\n\tfunction mintAllowed(\n\t\taddress hToken,\n\t\taddress minter,\n\t\tuint256 mintAmount\n\t) external override returns (uint256) {\n\t\t// Pausing is a very serious situation - we revert to sound the alarms\n\t\trequire(!mintGuardianPaused[hToken], \"mint is paused\");\n\n\t\t// Shh - currently unused\n\t\tminter;\n\t\tmintAmount;\n\n\t\tif (!markets[hToken].isListed) {\n\t\t\treturn uint256(Error.MARKET_NOT_LISTED);\n\t\t}\n\n\t\treturn uint256(Error.NO_ERROR);\n\t}\n\n\t/**\n\t * @notice Validates mint and reverts on rejection. May emit logs.\n\t * @param hToken Asset being minted\n\t * @param minter The address minting the tokens\n\t * @param actualMintAmount The amount of the underlying asset being minted\n\t * @param mintTokens The number of tokens being minted\n\t */\n\tfunction mintVerify(\n\t\taddress hToken,\n\t\taddress minter,\n\t\tuint256 actualMintAmount,\n\t\tuint256 mintTokens\n\t) external override {\n\t\t// Shh - currently unused\n\t\thToken;\n\t\tminter;\n\t\tactualMintAmount;\n\t\tmintTokens;\n\n\t\t// Shh - we don't ever want this hook to be marked pure\n\t\tif (false) {\n\t\t\tmaxAssets = maxAssets;\n\t\t}\n\t}\n\n\t/**\n\t * @notice Checks if the account should be allowed to redeem tokens in the given market\n\t * @param hToken The market to verify the redeem against\n\t * @param redeemer The account which would redeem the tokens\n\t * @param redeemTokens The number of hTokens to exchange for the underlying asset in the market\n\t * @return 0 if the redeem is allowed, otherwise a semi-opaque error code (See ErrorReporter.sol)\n\t */\n\tfunction redeemAllowed(\n\t\taddress hToken,\n\t\taddress redeemer,\n\t\tuint256 redeemTokens\n\t) external override returns (uint256) {\n\t\tuint256 allowed = redeemAllowedInternal(hToken, redeemer, redeemTokens);\n\t\tif (allowed != uint256(Error.NO_ERROR)) {\n\t\t\treturn allowed;\n\t\t}\n\n\t\treturn uint256(Error.NO_ERROR);\n\t}\n\n\tfunction redeemAllowedInternal(\n\t\taddress hToken,\n\t\taddress redeemer,\n\t\tuint256 redeemTokens\n\t) internal view returns (uint256) {\n\t\tif (!markets[hToken].isListed) {\n\t\t\treturn uint256(Error.MARKET_NOT_LISTED);\n\t\t}\n\n\t\t/* If the redeemer is not 'in' the market, then we can bypass the liquidity check */\n\t\tif (!markets[hToken].accountMembership[redeemer]) {\n\t\t\treturn uint256(Error.NO_ERROR);\n\t\t}\n\n\t\t/* Otherwise, perform a hypothetical liquidity check to guard against shortfall */\n\t\t(Error err, , uint256 shortfall) = getHypotheticalAccountLiquidityInternal(\n\t\t\tredeemer,\n\t\t\tHToken(hToken),\n\t\t\tredeemTokens,\n\t\t\t0\n\t\t);\n\t\tif (err != Error.NO_ERROR) {\n\t\t\treturn uint256(err);\n\t\t}\n\t\tif (shortfall > 0) {\n\t\t\treturn uint256(Error.INSUFFICIENT_LIQUIDITY);\n\t\t}\n\n\t\treturn uint256(Error.NO_ERROR);\n\t}\n\n\t/**\n\t * @notice Validates redeem and reverts on rejection. May emit logs.\n\t * @param hToken Asset being redeemed\n\t * @param redeemer The address redeeming the tokens\n\t * @param redeemAmount The amount of the underlying asset being redeemed\n\t * @param redeemTokens The number of tokens being redeemed\n\t */\n\tfunction redeemVerify(\n\t\taddress hToken,\n\t\taddress redeemer,\n\t\tuint256 redeemAmount,\n\t\tuint256 redeemTokens\n\t) external override {\n\t\t// Shh - currently unused\n\t\thToken;\n\t\tredeemer;\n\n\t\t// Require tokens is zero or amount is also zero\n\t\tif (redeemTokens == 0 && redeemAmount > 0) {\n\t\t\trevert(\"redeemTokens zero\");\n\t\t}\n\t}\n\n\t/**\n\t * @notice Checks if the account should be allowed to borrow the underlying asset of the given market\n\t * @param hToken The market to verify the borrow against\n\t * @param borrower The account which would borrow the asset\n\t * @param borrowAmount The amount of underlying the account would borrow\n\t * @return 0 if the borrow is allowed, otherwise a semi-opaque error code (See ErrorReporter.sol)\n\t */\n\tfunction borrowAllowed(\n\t\taddress hToken,\n\t\taddress borrower,\n\t\tuint256 borrowAmount\n\t) external override returns (uint256) {\n\t\t// Pausing is a very serious situation - we revert to sound the alarms\n\t\trequire(!borrowGuardianPaused[hToken], \"borrow is paused\");\n\n\t\tif (!markets[hToken].isListed) {\n\t\t\treturn uint256(Error.MARKET_NOT_LISTED);\n\t\t}\n\n\t\tif (!markets[hToken].accountMembership[borrower]) {\n\t\t\t// only hTokens may call borrowAllowed if borrower not in market\n\t\t\trequire(msg.sender == hToken, \"sender must be hToken\");\n\n\t\t\t// attempt to add borrower to the market\n\t\t\tError err = addToMarketInternal(HToken(msg.sender), borrower);\n\t\t\tif (err != Error.NO_ERROR) {\n\t\t\t\treturn uint256(err);\n\t\t\t}\n\n\t\t\t// it should be impossible to break the important invariant\n\t\t\tassert(markets[hToken].accountMembership[borrower]);\n\t\t}\n\n\t\tif (oracle.getUnderlyingPrice(hToken) == 0) {\n\t\t\treturn uint256(Error.PRICE_ERROR);\n\t\t}\n\n\t\t(Error err, , uint256 shortfall) = getHypotheticalAccountLiquidityInternal(\n\t\t\tborrower,\n\t\t\tHToken(hToken),\n\t\t\t0,\n\t\t\tborrowAmount\n\t\t);\n\t\tif (err != Error.NO_ERROR) {\n\t\t\treturn uint256(err);\n\t\t}\n\t\tif (shortfall > 0) {\n\t\t\treturn uint256(Error.INSUFFICIENT_LIQUIDITY);\n\t\t}\n\n\t\treturn uint256(Error.NO_ERROR);\n\t}\n\n\t/**\n\t * @notice Validates borrow and reverts on rejection. May emit logs.\n\t * @param hToken Asset whose underlying is being borrowed\n\t * @param borrower The address borrowing the underlying\n\t * @param borrowAmount The amount of the underlying asset requested to borrow\n\t */\n\tfunction borrowVerify(\n\t\taddress hToken,\n\t\taddress borrower,\n\t\tuint256 borrowAmount\n\t) external override {\n\t\t// Shh - currently unused\n\t\thToken;\n\t\tborrower;\n\t\tborrowAmount;\n\n\t\t// Shh - we don't ever want this hook to be marked pure\n\t\tif (false) {\n\t\t\tmaxAssets = maxAssets;\n\t\t}\n\t}\n\n\t/**\n\t * @notice Checks if the account should be allowed to repay a borrow in the given market\n\t * @param hToken The market to verify the repay against\n\t * @param payer The account which would repay the asset\n\t * @param borrower The account which would borrowed the asset\n\t * @param repayAmount The amount of the underlying asset the account would repay\n\t * @return 0 if the repay is allowed, otherwise a semi-opaque error code (See ErrorReporter.sol)\n\t */\n\tfunction repayBorrowAllowed(\n\t\taddress hToken,\n\t\taddress payer,\n\t\taddress borrower,\n\t\tuint256 repayAmount\n\t) external override returns (uint256) {\n\t\t// Shh - currently unused\n\t\tpayer;\n\t\tborrower;\n\t\trepayAmount;\n\n\t\tif (!markets[hToken].isListed) {\n\t\t\treturn uint256(Error.MARKET_NOT_LISTED);\n\t\t}\n\n\t\treturn uint256(Error.NO_ERROR);\n\t}\n\n\t/**\n\t * @notice Validates repayBorrow and reverts on rejection. May emit logs.\n\t * @param hToken Asset being repaid\n\t * @param payer The address repaying the borrow\n\t * @param borrower The address of the borrower\n\t * @param actualRepayAmount The amount of underlying being repaid\n\t */\n\tfunction repayBorrowVerify(\n\t\taddress hToken,\n\t\taddress payer,\n\t\taddress borrower,\n\t\tuint256 actualRepayAmount,\n\t\tuint256 borrowerIndex\n\t) external override {\n\t\t// Shh - currently unused\n\t\thToken;\n\t\tpayer;\n\t\tborrower;\n\t\tactualRepayAmount;\n\t\tborrowerIndex;\n\n\t\t// Shh - we don't ever want this hook to be marked pure\n\t\tif (false) {\n\t\t\tmaxAssets = maxAssets;\n\t\t}\n\t}\n\n\t/**\n\t * @notice Checks if the liquidation should be allowed to occur\n\t * @param hTokenBorrowed Asset which was borrowed by the borrower\n\t * @param hTokenCollateral Asset which was used as collateral and will be seized\n\t * @param liquidator The address repaying the borrow and seizing the collateral\n\t * @param borrower The address of the borrower\n\t * @param repayAmount The amount of underlying being repaid\n\t */\n\tfunction liquidateBorrowAllowed(\n\t\taddress hTokenBorrowed,\n\t\taddress hTokenCollateral,\n\t\taddress liquidator,\n\t\taddress borrower,\n\t\tuint256 repayAmount\n\t) external override returns (uint256) {\n\t\t// Shh - currently unused\n\t\tliquidator;\n\n\t\tif (!markets[hTokenBorrowed].isListed || !markets[hTokenCollateral].isListed) {\n\t\t\treturn uint256(Error.MARKET_NOT_LISTED);\n\t\t}\n\n\t\t/* The borrower must have shortfall in order to be liquidatable */\n\t\t(Error err, , uint256 shortfall) = getAccountLiquidityInternal(borrower);\n\t\tif (err != Error.NO_ERROR) {\n\t\t\treturn uint256(err);\n\t\t}\n\t\tif (shortfall == 0) {\n\t\t\treturn uint256(Error.INSUFFICIENT_SHORTFALL);\n\t\t}\n\n\t\t/* The liquidator may not repay more than what is allowed by the closeFactor */\n\t\tuint256 borrowBalance = HToken(hTokenBorrowed).borrowBalanceCurrent(borrower);\n\t\t(MathError mathErr, uint256 maxClose) = mulScalarTruncate(Exp({ mantissa: closeFactorMantissa }), borrowBalance);\n\t\tif (mathErr != MathError.NO_ERROR) {\n\t\t\treturn uint256(Error.MATH_ERROR);\n\t\t}\n\t\tif (repayAmount > maxClose) {\n\t\t\treturn uint256(Error.TOO_MUCH_REPAY);\n\t\t}\n\n\t\treturn uint256(Error.NO_ERROR);\n\t}\n\n\t/**\n\t * @notice Validates liquidateBorrow and reverts on rejection. May emit logs.\n\t * @param hTokenBorrowed Asset which was borrowed by the borrower\n\t * @param hTokenCollateral Asset which was used as collateral and will be seized\n\t * @param liquidator The address repaying the borrow and seizing the collateral\n\t * @param borrower The address of the borrower\n\t * @param actualRepayAmount The amount of underlying being repaid\n\t */\n\tfunction liquidateBorrowVerify(\n\t\taddress hTokenBorrowed,\n\t\taddress hTokenCollateral,\n\t\taddress liquidator,\n\t\taddress borrower,\n\t\tuint256 actualRepayAmount,\n\t\tuint256 seizeTokens\n\t) external override {\n\t\t// Shh - currently unused\n\t\thTokenBorrowed;\n\t\thTokenCollateral;\n\t\tliquidator;\n\t\tborrower;\n\t\tactualRepayAmount;\n\t\tseizeTokens;\n\n\t\t// Shh - we don't ever want this hook to be marked pure\n\t\tif (false) {\n\t\t\tmaxAssets = maxAssets;\n\t\t}\n\t}\n\n\t/**\n\t * @notice Checks if the seizing of assets should be allowed to occur\n\t * @param hTokenCollateral Asset which was used as collateral and will be seized\n\t * @param hTokenBorrowed Asset which was borrowed by the borrower\n\t * @param liquidator The address repaying the borrow and seizing the collateral\n\t * @param borrower The address of the borrower\n\t * @param seizeTokens The number of collateral tokens to seize\n\t */\n\tfunction seizeAllowed(\n\t\taddress hTokenCollateral,\n\t\taddress hTokenBorrowed,\n\t\taddress liquidator,\n\t\taddress borrower,\n\t\tuint256 seizeTokens\n\t) external override returns (uint256) {\n\t\t// Pausing is a very serious situation - we revert to sound the alarms\n\t\trequire(!seizeGuardianPaused, \"seize is paused\");\n\n\t\t// Shh - currently unused\n\t\tseizeTokens;\n\t\tliquidator;\n\t\tborrower;\n\n\t\tif (!markets[hTokenCollateral].isListed || !markets[hTokenBorrowed].isListed) {\n\t\t\treturn uint256(Error.MARKET_NOT_LISTED);\n\t\t}\n\n\t\tif (HToken(hTokenCollateral).controller() != HToken(hTokenBorrowed).controller()) {\n\t\t\treturn uint256(Error.CONTROLLER_MISMATCH);\n\t\t}\n\n\t\treturn uint256(Error.NO_ERROR);\n\t}\n\n\t/**\n\t * @notice Validates seize and reverts on rejection. May emit logs.\n\t * @param hTokenCollateral Asset which was used as collateral and will be seized\n\t * @param hTokenBorrowed Asset which was borrowed by the borrower\n\t * @param liquidator The address repaying the borrow and seizing the collateral\n\t * @param borrower The address of the borrower\n\t * @param seizeTokens The number of collateral tokens to seize\n\t */\n\tfunction seizeVerify(\n\t\taddress hTokenCollateral,\n\t\taddress hTokenBorrowed,\n\t\taddress liquidator,\n\t\taddress borrower,\n\t\tuint256 seizeTokens\n\t) external override {\n\t\t// Shh - currently unused\n\t\thTokenCollateral;\n\t\thTokenBorrowed;\n\t\tliquidator;\n\t\tborrower;\n\t\tseizeTokens;\n\n\t\t// Shh - we don't ever want this hook to be marked pure\n\t\tif (false) {\n\t\t\tmaxAssets = maxAssets;\n\t\t}\n\t}\n\n\t/**\n\t * @notice Checks if the account should be allowed to transfer tokens in the given market\n\t * @param hToken The market to verify the transfer against\n\t * @param src The account which sources the tokens\n\t * @param dst The account which receives the tokens\n\t * @param transferTokens The number of hTokens to transfer\n\t * @return 0 if the transfer is allowed, otherwise a semi-opaque error code (See ErrorReporter.sol)\n\t */\n\tfunction transferAllowed(\n\t\taddress hToken,\n\t\taddress src,\n\t\taddress dst,\n\t\tuint256 transferTokens\n\t) external override returns (uint256) {\n\t\t// Pausing is a very serious situation - we revert to sound the alarms\n\t\trequire(!transferGuardianPaused, \"transfer is paused\");\n\n\t\t// Currently the only consideration is whether or not\n\t\t//  the src is allowed to redeem this many tokens\n\t\tuint256 allowed = redeemAllowedInternal(hToken, src, transferTokens);\n\t\tif (allowed != uint256(Error.NO_ERROR)) {\n\t\t\treturn allowed;\n\t\t}\n\n\t\tdst;\n\n\t\treturn uint256(Error.NO_ERROR);\n\t}\n\n\t/**\n\t * @notice Validates transfer and reverts on rejection. May emit logs.\n\t * @param hToken Asset being transferred\n\t * @param src The account which sources the tokens\n\t * @param dst The account which receives the tokens\n\t * @param transferTokens The number of hTokens to transfer\n\t */\n\tfunction transferVerify(\n\t\taddress hToken,\n\t\taddress src,\n\t\taddress dst,\n\t\tuint256 transferTokens\n\t) external override {\n\t\t// Shh - currently unused\n\t\thToken;\n\t\tsrc;\n\t\tdst;\n\t\ttransferTokens;\n\n\t\t// Shh - we don't ever want this hook to be marked pure\n\t\tif (false) {\n\t\t\tmaxAssets = maxAssets;\n\t\t}\n\t}\n\n\t/*** Liquidity/Liquidation Calculations ***/\n\n\t/**\n\t * @dev Local vars for avoiding stack-depth limits in calculating account liquidity.\n\t *  Note that `hTokenBalance` is the number of hTokens the account owns in the market,\n\t *  whereas `borrowBalance` is the amount of underlying that the account has borrowed.\n\t */\n\tstruct AccountLiquidityLocalVars {\n\t\tuint256 sumCollateral;\n\t\tuint256 sumBorrowPlusEffects;\n\t\tuint256 hTokenBalance;\n\t\tuint256 borrowBalance;\n\t\tuint256 exchangeRateMantissa;\n\t\tuint256 oraclePriceMantissa;\n\t\tExp collateralFactor;\n\t\tExp exchangeRate;\n\t\tExp oraclePrice;\n\t\tExp tokensToDenom;\n\t}\n\n\t/**\n     * @notice Determine the current account liquidity wrt collateral requirements\n     * @return (possible error code (semi-opaque),\n                account liquidity in excess of collateral requirements,\n     *          account shortfall below collateral requirements)\n     */\n\tfunction getAccountLiquidity(address account)\n\t\tpublic\n\t\tview\n\t\treturns (\n\t\t\tuint256,\n\t\t\tuint256,\n\t\t\tuint256\n\t\t)\n\t{\n\t\t(Error err, uint256 liquidity, uint256 shortfall) = getHypotheticalAccountLiquidityInternal(\n\t\t\taccount,\n\t\t\tHToken(0),\n\t\t\t0,\n\t\t\t0\n\t\t);\n\n\t\treturn (uint256(err), liquidity, shortfall);\n\t}\n\n\t/**\n     * @notice Determine the current account liquidity wrt collateral requirements\n     * @return (possible error code,\n                account liquidity in excess of collateral requirements,\n     *          account shortfall below collateral requirements)\n     */\n\tfunction getAccountLiquidityInternal(address account)\n\t\tinternal\n\t\tview\n\t\treturns (\n\t\t\tError,\n\t\t\tuint256,\n\t\t\tuint256\n\t\t)\n\t{\n\t\treturn getHypotheticalAccountLiquidityInternal(account, HToken(0), 0, 0);\n\t}\n\n\t/**\n     * @notice Determine what the account liquidity would be if the given amounts were redeemed/borrowed\n     * @param hTokenModify The market to hypothetically redeem/borrow in\n     * @param account The account to determine liquidity for\n     * @param redeemTokens The number of tokens to hypothetically redeem\n     * @param borrowAmount The amount of underlying to hypothetically borrow\n     * @return (possible error code (semi-opaque),\n                hypothetical account liquidity in excess of collateral requirements,\n     *          hypothetical account shortfall below collateral requirements)\n     */\n\tfunction getHypotheticalAccountLiquidity(\n\t\taddress account,\n\t\taddress hTokenModify,\n\t\tuint256 redeemTokens,\n\t\tuint256 borrowAmount\n\t)\n\t\tpublic\n\t\tview\n\t\treturns (\n\t\t\tuint256,\n\t\t\tuint256,\n\t\t\tuint256\n\t\t)\n\t{\n\t\t(Error err, uint256 liquidity, uint256 shortfall) = getHypotheticalAccountLiquidityInternal(\n\t\t\taccount,\n\t\t\tHToken(hTokenModify),\n\t\t\tredeemTokens,\n\t\t\tborrowAmount\n\t\t);\n\t\treturn (uint256(err), liquidity, shortfall);\n\t}\n\n\t/**\n     * @notice Determine what the account liquidity would be if the given amounts were redeemed/borrowed\n     * @param hTokenModify The market to hypothetically redeem/borrow in\n     * @param account The account to determine liquidity for\n     * @param redeemTokens The number of tokens to hypothetically redeem\n     * @param borrowAmount The amount of underlying to hypothetically borrow\n     * @dev Note that we calculate the exchangeRateStored for each collateral hToken using stored data,\n     *  without calculating accumulated interest.\n     * @return (possible error code,\n                hypothetical account liquidity in excess of collateral requirements,\n     *          hypothetical account shortfall below collateral requirements)\n     */\n\tfunction getHypotheticalAccountLiquidityInternal(\n\t\taddress account,\n\t\tHToken hTokenModify,\n\t\tuint256 redeemTokens,\n\t\tuint256 borrowAmount\n\t)\n\t\tinternal\n\t\tview\n\t\treturns (\n\t\t\tError,\n\t\t\tuint256,\n\t\t\tuint256\n\t\t)\n\t{\n\t\tAccountLiquidityLocalVars memory vars; // Holds all our calculation results\n\t\tuint256 oErr;\n\t\tMathError mErr;\n\n\t\t// For each asset the account is in\n\t\tHToken[] memory assets = accountAssets[account];\n\t\tfor (uint256 i = 0; i < assets.length; i++) {\n\t\t\tHToken asset = assets[i];\n\n\t\t\t// Read the balances and exchange rate from the hToken\n\t\t\t(oErr, vars.hTokenBalance, vars.borrowBalance, vars.exchangeRateMantissa) = asset.getAccountSnapshot(account);\n\t\t\tif (oErr != 0) {\n\t\t\t\t// semi-opaque error code, we assume NO_ERROR == 0 is invariant between upgrades\n\t\t\t\treturn (Error.SNAPSHOT_ERROR, 0, 0);\n\t\t\t}\n\t\t\tvars.collateralFactor = Exp({ mantissa: markets[address(asset)].collateralFactorMantissa });\n\t\t\tvars.exchangeRate = Exp({ mantissa: vars.exchangeRateMantissa });\n\n\t\t\t// Get the normalized price of the asset\n\t\t\tvars.oraclePriceMantissa = oracle.getUnderlyingPrice(address(asset));\n\t\t\tif (vars.oraclePriceMantissa == 0) {\n\t\t\t\treturn (Error.PRICE_ERROR, 0, 0);\n\t\t\t}\n\t\t\tvars.oraclePrice = Exp({ mantissa: vars.oraclePriceMantissa });\n\n\t\t\t// Pre-compute a conversion factor from tokens -> ether (normalized price value)\n\t\t\t(mErr, vars.tokensToDenom) = mulExp3(vars.collateralFactor, vars.exchangeRate, vars.oraclePrice);\n\t\t\tif (mErr != MathError.NO_ERROR) {\n\t\t\t\treturn (Error.MATH_ERROR, 0, 0);\n\t\t\t}\n\n\t\t\t// sumCollateral += tokensToDenom * hTokenBalance\n\t\t\t(mErr, vars.sumCollateral) = mulScalarTruncateAddUInt(vars.tokensToDenom, vars.hTokenBalance, vars.sumCollateral);\n\t\t\tif (mErr != MathError.NO_ERROR) {\n\t\t\t\treturn (Error.MATH_ERROR, 0, 0);\n\t\t\t}\n\n\t\t\t// sumBorrowPlusEffects += oraclePrice * borrowBalance\n\t\t\t(mErr, vars.sumBorrowPlusEffects) = mulScalarTruncateAddUInt(\n\t\t\t\tvars.oraclePrice,\n\t\t\t\tvars.borrowBalance,\n\t\t\t\tvars.sumBorrowPlusEffects\n\t\t\t);\n\t\t\tif (mErr != MathError.NO_ERROR) {\n\t\t\t\treturn (Error.MATH_ERROR, 0, 0);\n\t\t\t}\n\n\t\t\t// Calculate effects of interacting with hTokenModify\n\t\t\tif (asset == hTokenModify) {\n\t\t\t\t// redeem effect\n\t\t\t\t// sumBorrowPlusEffects += tokensToDenom * redeemTokens\n\t\t\t\t(mErr, vars.sumBorrowPlusEffects) = mulScalarTruncateAddUInt(\n\t\t\t\t\tvars.tokensToDenom,\n\t\t\t\t\tredeemTokens,\n\t\t\t\t\tvars.sumBorrowPlusEffects\n\t\t\t\t);\n\t\t\t\tif (mErr != MathError.NO_ERROR) {\n\t\t\t\t\treturn (Error.MATH_ERROR, 0, 0);\n\t\t\t\t}\n\n\t\t\t\t// borrow effect\n\t\t\t\t// sumBorrowPlusEffects += oraclePrice * borrowAmount\n\t\t\t\t(mErr, vars.sumBorrowPlusEffects) = mulScalarTruncateAddUInt(\n\t\t\t\t\tvars.oraclePrice,\n\t\t\t\t\tborrowAmount,\n\t\t\t\t\tvars.sumBorrowPlusEffects\n\t\t\t\t);\n\t\t\t\tif (mErr != MathError.NO_ERROR) {\n\t\t\t\t\treturn (Error.MATH_ERROR, 0, 0);\n\t\t\t\t}\n\t\t\t}\n\t\t}\n\n\t\t// These are safe, as the underflow condition is checked first\n\t\tif (vars.sumCollateral > vars.sumBorrowPlusEffects) {\n\t\t\treturn (Error.NO_ERROR, vars.sumCollateral - vars.sumBorrowPlusEffects, 0);\n\t\t} else {\n\t\t\treturn (Error.NO_ERROR, 0, vars.sumBorrowPlusEffects - vars.sumCollateral);\n\t\t}\n\t}\n\n\t/**\n\t * @notice Calculate number of tokens of collateral asset to seize given an underlying amount\n\t * @dev Used in liquidation (called in hToken.liquidateBorrowFresh)\n\t * @param hTokenBorrowed The address of the borrowed hToken\n\t * @param hTokenCollateral The address of the collateral hToken\n\t * @param actualRepayAmount The amount of hTokenBorrowed underlying to convert into hTokenCollateral tokens\n\t * @return (errorCode, number of hTokenCollateral tokens to be seized in a liquidation)\n\t */\n\tfunction liquidateCalculateSeizeTokens(\n\t\taddress hTokenBorrowed,\n\t\taddress hTokenCollateral,\n\t\tuint256 actualRepayAmount\n\t) external override view returns (uint256, uint256) {\n\t\t/* Read oracle prices for borrowed and collateral markets */\n\t\tuint256 priceBorrowedMantissa = oracle.getUnderlyingPrice(hTokenBorrowed);\n\t\tuint256 priceCollateralMantissa = oracle.getUnderlyingPrice(hTokenCollateral);\n\t\tif (priceBorrowedMantissa == 0 || priceCollateralMantissa == 0) {\n\t\t\treturn (uint256(Error.PRICE_ERROR), 0);\n\t\t}\n\n\t\t/*\n\t\t * Get the exchange rate and calculate the number of collateral tokens to seize:\n\t\t *  seizeAmount = actualRepayAmount * liquidationIncentive * priceBorrowed / priceCollateral\n\t\t *  seizeTokens = seizeAmount / exchangeRate\n\t\t *   = actualRepayAmount * (liquidationIncentive * priceBorrowed) / (priceCollateral * exchangeRate)\n\t\t */\n\t\tuint256 exchangeRateMantissa = HToken(hTokenCollateral).exchangeRateCurrent();\n\t\tuint256 seizeTokens;\n\t\tExp memory numerator;\n\t\tExp memory denominator;\n\t\tExp memory ratio;\n\t\tMathError mathErr;\n\n\t\t(mathErr, numerator) = mulExp(liquidationIncentiveMantissa, priceBorrowedMantissa);\n\t\tif (mathErr != MathError.NO_ERROR) {\n\t\t\treturn (uint256(Error.MATH_ERROR), 0);\n\t\t}\n\n\t\t(mathErr, denominator) = mulExp(priceCollateralMantissa, exchangeRateMantissa);\n\t\tif (mathErr != MathError.NO_ERROR) {\n\t\t\treturn (uint256(Error.MATH_ERROR), 0);\n\t\t}\n\n\t\t(mathErr, ratio) = divExp(numerator, denominator);\n\t\tif (mathErr != MathError.NO_ERROR) {\n\t\t\treturn (uint256(Error.MATH_ERROR), 0);\n\t\t}\n\n\t\t(mathErr, seizeTokens) = mulScalarTruncate(ratio, actualRepayAmount);\n\t\tif (mathErr != MathError.NO_ERROR) {\n\t\t\treturn (uint256(Error.MATH_ERROR), 0);\n\t\t}\n\n\t\treturn (uint256(Error.NO_ERROR), seizeTokens);\n\t}\n\n\t/**\n\t * @notice Sets the closeFactor used when liquidating borrows\n\t * @dev Admin function to set closeFactor\n\t * @param newCloseFactorMantissa New close factor, scaled by 1e18\n\t * @return uint 0=success, otherwise a failure. (See ErrorReporter for details)\n\t */\n\tfunction _setCloseFactor(uint256 newCloseFactorMantissa) external returns (uint256) {\n\t\t// Check caller is admin\n\t\tif (msg.sender != admin) {\n\t\t\treturn fail(Error.UNAUTHORIZED, FailureInfo.SET_CLOSE_FACTOR_OWNER_CHECK);\n\t\t}\n\n\t\tExp memory newCloseFactorExp = Exp({ mantissa: newCloseFactorMantissa });\n\t\tExp memory lowLimit = Exp({ mantissa: closeFactorMinMantissa });\n\t\tif (lessThanOrEqualExp(newCloseFactorExp, lowLimit)) {\n\t\t\treturn fail(Error.INVALID_CLOSE_FACTOR, FailureInfo.SET_CLOSE_FACTOR_VALIDATION);\n\t\t}\n\n\t\tExp memory highLimit = Exp({ mantissa: closeFactorMaxMantissa });\n\t\tif (lessThanExp(highLimit, newCloseFactorExp)) {\n\t\t\treturn fail(Error.INVALID_CLOSE_FACTOR, FailureInfo.SET_CLOSE_FACTOR_VALIDATION);\n\t\t}\n\n\t\tuint256 oldCloseFactorMantissa = closeFactorMantissa;\n\t\tcloseFactorMantissa = newCloseFactorMantissa;\n\t\temit NewCloseFactor(oldCloseFactorMantissa, closeFactorMantissa);\n\n\t\treturn uint256(Error.NO_ERROR);\n\t}\n\n\t/**\n\t * @notice Sets the collateralFactor for a market\n\t * @dev Admin function to set per-market collateralFactor\n\t * @param hToken The market to set the factor on\n\t * @param newCollateralFactorMantissa The new collateral factor, scaled by 1e18\n\t * @return uint 0=success, otherwise a failure. (See ErrorReporter for details)\n\t */\n\tfunction _setCollateralFactor(address hToken, uint256 newCollateralFactorMantissa) external returns (uint256) {\n\t\t// Check caller is admin\n\t\tif (msg.sender != admin) {\n\t\t\treturn fail(Error.UNAUTHORIZED, FailureInfo.SET_COLLATERAL_FACTOR_OWNER_CHECK);\n\t\t}\n\n\t\t// Verify market is listed\n\t\tMarket storage market = markets[hToken];\n\t\tif (!market.isListed) {\n\t\t\treturn fail(Error.MARKET_NOT_LISTED, FailureInfo.SET_COLLATERAL_FACTOR_NO_EXISTS);\n\t\t}\n\n\t\tExp memory newCollateralFactorExp = Exp({ mantissa: newCollateralFactorMantissa });\n\n\t\t// Check collateral factor <= 0.9\n\t\tExp memory highLimit = Exp({ mantissa: collateralFactorMaxMantissa });\n\t\tif (lessThanExp(highLimit, newCollateralFactorExp)) {\n\t\t\treturn fail(Error.INVALID_COLLATERAL_FACTOR, FailureInfo.SET_COLLATERAL_FACTOR_VALIDATION);\n\t\t}\n\n\t\t// If collateral factor != 0, fail if price == 0\n\t\tif (newCollateralFactorMantissa != 0 && oracle.getUnderlyingPrice(hToken) == 0) {\n\t\t\treturn fail(Error.PRICE_ERROR, FailureInfo.SET_COLLATERAL_FACTOR_WITHOUT_PRICE);\n\t\t}\n\n\t\t// Set market's collateral factor to new collateral factor, remember old value\n\t\tuint256 oldCollateralFactorMantissa = market.collateralFactorMantissa;\n\t\tmarket.collateralFactorMantissa = newCollateralFactorMantissa;\n\n\t\t// Emit event with asset, old collateral factor, and new collateral factor\n\t\temit NewCollateralFactor(hToken, oldCollateralFactorMantissa, newCollateralFactorMantissa);\n\n\t\treturn uint256(Error.NO_ERROR);\n\t}\n\n\t/**\n\t * @notice Sets maxAssets which controls how many markets can be entered\n\t * @dev Admin function to set maxAssets\n\t * @param newMaxAssets New max assets\n\t * @return uint 0=success, otherwise a failure. (See ErrorReporter for details)\n\t */\n\tfunction _setMaxAssets(uint256 newMaxAssets) external returns (uint256) {\n\t\t// Check caller is admin\n\t\tif (msg.sender != admin) {\n\t\t\treturn fail(Error.UNAUTHORIZED, FailureInfo.SET_MAX_ASSETS_OWNER_CHECK);\n\t\t}\n\n\t\tuint256 oldMaxAssets = maxAssets;\n\t\tmaxAssets = newMaxAssets;\n\t\temit NewMaxAssets(oldMaxAssets, newMaxAssets);\n\n\t\treturn uint256(Error.NO_ERROR);\n\t}\n\n\t/**\n\t * @notice Sets liquidationIncentive\n\t * @dev Admin function to set liquidationIncentive\n\t * @param newLiquidationIncentiveMantissa New liquidationIncentive scaled by 1e18\n\t * @return uint 0=success, otherwise a failure. (See ErrorReporter for details)\n\t */\n\tfunction _setLiquidationIncentive(uint256 newLiquidationIncentiveMantissa) external returns (uint256) {\n\t\t// Check caller is admin\n\t\tif (msg.sender != admin) {\n\t\t\treturn fail(Error.UNAUTHORIZED, FailureInfo.SET_LIQUIDATION_INCENTIVE_OWNER_CHECK);\n\t\t}\n\n\t\t// Check de-scaled min <= newLiquidationIncentive <= max\n\t\tExp memory newLiquidationIncentive = Exp({ mantissa: newLiquidationIncentiveMantissa });\n\t\tExp memory minLiquidationIncentive = Exp({ mantissa: liquidationIncentiveMinMantissa });\n\t\tif (lessThanExp(newLiquidationIncentive, minLiquidationIncentive)) {\n\t\t\treturn fail(Error.INVALID_LIQUIDATION_INCENTIVE, FailureInfo.SET_LIQUIDATION_INCENTIVE_VALIDATION);\n\t\t}\n\n\t\tExp memory maxLiquidationIncentive = Exp({ mantissa: liquidationIncentiveMaxMantissa });\n\t\tif (lessThanExp(maxLiquidationIncentive, newLiquidationIncentive)) {\n\t\t\treturn fail(Error.INVALID_LIQUIDATION_INCENTIVE, FailureInfo.SET_LIQUIDATION_INCENTIVE_VALIDATION);\n\t\t}\n\n\t\t// Save current value for use in log\n\t\tuint256 oldLiquidationIncentiveMantissa = liquidationIncentiveMantissa;\n\n\t\t// Set liquidation incentive to new incentive\n\t\tliquidationIncentiveMantissa = newLiquidationIncentiveMantissa;\n\n\t\t// Emit event with old incentive, new incentive\n\t\temit NewLiquidationIncentive(oldLiquidationIncentiveMantissa, newLiquidationIncentiveMantissa);\n\n\t\treturn uint256(Error.NO_ERROR);\n\t}\n\n\t/**\n\t * @notice Add the market to the markets mapping and set it as listed\n\t * @dev Admin function to set isListed and add support for the market\n\t * @param hToken The address of the market (token) to list\n\t */\n\tfunction _supportMarket(address hToken) external override onlyAdminOrSuperior {\n\t\trequire(!markets[hToken].isListed, \"MarketController::_supportMarket: already listed\");\n\n\t\tmarkets[hToken] = Market({ isListed: true, collateralFactorMantissa: defaultCollateralFactorMantissa });\n\n\t\tallMarkets.push(HToken(HToken(hToken)));\n\n\t\temit MarketListed(hToken);\n\t}\n\n\t/**\n\t * @notice Admin function to change the Pause Guardian\n\t * @param newPauseGuardian The address of the new Pause Guardian\n\t * @return uint 0=success, otherwise a failure. (See enum Error for details)\n\t */\n\tfunction _setPauseGuardian(address newPauseGuardian) public returns (uint256) {\n\t\tif (msg.sender != admin) {\n\t\t\treturn fail(Error.UNAUTHORIZED, FailureInfo.SET_PAUSE_GUARDIAN_OWNER_CHECK);\n\t\t}\n\n\t\t// Save current value for inclusion in log\n\t\taddress oldPauseGuardian = pauseGuardian;\n\n\t\t// Store pauseGuardian with value newPauseGuardian\n\t\tpauseGuardian = newPauseGuardian;\n\n\t\t// Emit NewPauseGuardian(OldPauseGuardian, NewPauseGuardian)\n\t\temit NewPauseGuardian(oldPauseGuardian, pauseGuardian);\n\n\t\treturn uint256(Error.NO_ERROR);\n\t}\n\n\tfunction _setMintPaused(address hToken, bool state) public returns (bool) {\n\t\trequire(markets[hToken].isListed, \"cannot pause a market that is not listed\");\n\t\trequire(msg.sender == pauseGuardian || msg.sender == admin, \"only pause guardian and admin can pause\");\n\t\trequire(msg.sender == admin || state == true, \"only admin can unpause\");\n\n\t\tmintGuardianPaused[hToken] = state;\n\t\temit ActionPaused(hToken, \"Mint\", state);\n\t\treturn state;\n\t}\n\n\tfunction _setBorrowPaused(address hToken, bool state) public returns (bool) {\n\t\trequire(markets[hToken].isListed, \"cannot pause a market that is not listed\");\n\t\trequire(msg.sender == pauseGuardian || msg.sender == admin, \"only pause guardian and admin can pause\");\n\t\trequire(msg.sender == admin || state == true, \"only admin can unpause\");\n\n\t\tborrowGuardianPaused[hToken] = state;\n\t\temit ActionPaused(hToken, \"Borrow\", state);\n\t\treturn state;\n\t}\n\n\tfunction _setTransferPaused(bool state) public returns (bool) {\n\t\trequire(msg.sender == pauseGuardian || msg.sender == admin, \"only pause guardian and admin can pause\");\n\t\trequire(msg.sender == admin || state == true, \"only admin can unpause\");\n\n\t\ttransferGuardianPaused = state;\n\t\temit ActionPaused(\"Transfer\", state);\n\t\treturn state;\n\t}\n\n\tfunction _setSeizePaused(bool state) public returns (bool) {\n\t\trequire(msg.sender == pauseGuardian || msg.sender == admin, \"only pause guardian and admin can pause\");\n\t\trequire(msg.sender == admin || state == true, \"only admin can unpause\");\n\n\t\tseizeGuardianPaused = state;\n\t\temit ActionPaused(\"Seize\", state);\n\t\treturn state;\n\t}\n\n\tfunction _mintDOL(address _dol, uint256 amount) external onlyAdminOrSuperior {\n\t\tDOL dol = DOL(_dol);\n\t\tdol.mint(address(this), amount);\n\t}\n\n\tfunction _burnDOL(address _dol, uint256 amount) external onlyAdminOrSuperior {\n\t\tDOL dol = DOL(_dol);\n\t\tdol.burn(address(this), amount);\n\t}\n\n\tfunction _expandDOLSupply(address _hDol, uint256 amount) external onlyAdminOrSuperior {\n\t\tHErc20 hDOl = HErc20(_hDol);\n\t\tDOL dol = DOL(hDOl.underlying());\n\t\tdol.approve(_hDol, uint256(-1));\n\t\tuint256 err = hDOl._mintDOL(amount);\n\t\trequire(err == 0, \"MarketController::_mintDOL: HErc20::_mintDOL error\");\n\t}\n\n\tfunction _reduceDOLSupply(address _hDol, uint256 amount) external onlyAdminOrSuperior {\n\t\tuint256 err = HErc20(_hDol)._redeemDOL(amount);\n\t\trequire(err == 0, \"MarketController::_mintDOL: HErc20::_reedemDOL error\");\n\t}\n}\n",
  "sourcePath": "/hades/evm-contracts/src/MarketController.sol",
  "compiler": {
    "name": "solc",
    "version": "0.6.0+commit.26b70077.Emscripten.clang"
  },
  "schemaVersion": "3.2.4",
  "updatedAt": "2020-10-27T12:03:42.958Z",
  "networkType": "ethereum",
  "devdoc": {
    "author": "Hades",
    "methods": {
      "_setCloseFactor(uint256)": {
        "details": "Admin function to set closeFactor",
        "params": {
          "newCloseFactorMantissa": "New close factor, scaled by 1e18"
        },
        "returns": {
          "_0": "uint 0=success, otherwise a failure. (See ErrorReporter for details)"
        }
      },
      "_setCollateralFactor(address,uint256)": {
        "details": "Admin function to set per-market collateralFactor",
        "params": {
          "hToken": "The market to set the factor on",
          "newCollateralFactorMantissa": "The new collateral factor, scaled by 1e18"
        },
        "returns": {
          "_0": "uint 0=success, otherwise a failure. (See ErrorReporter for details)"
        }
      },
      "_setLiquidationIncentive(uint256)": {
        "details": "Admin function to set liquidationIncentive",
        "params": {
          "newLiquidationIncentiveMantissa": "New liquidationIncentive scaled by 1e18"
        },
        "returns": {
          "_0": "uint 0=success, otherwise a failure. (See ErrorReporter for details)"
        }
      },
      "_setMaxAssets(uint256)": {
        "details": "Admin function to set maxAssets",
        "params": {
          "newMaxAssets": "New max assets"
        },
        "returns": {
          "_0": "uint 0=success, otherwise a failure. (See ErrorReporter for details)"
        }
      },
      "_setPauseGuardian(address)": {
        "params": {
          "newPauseGuardian": "The address of the new Pause Guardian"
        },
        "returns": {
          "_0": "uint 0=success, otherwise a failure. (See enum Error for details)"
        }
      },
      "_supportMarket(address)": {
        "details": "Admin function to set isListed and add support for the market",
        "params": {
          "hToken": "The address of the market (token) to list"
        }
      },
      "borrowAllowed(address,address,uint256)": {
        "params": {
          "borrowAmount": "The amount of underlying the account would borrow",
          "borrower": "The account which would borrow the asset",
          "hToken": "The market to verify the borrow against"
        },
        "returns": {
          "_0": "0 if the borrow is allowed, otherwise a semi-opaque error code (See ErrorReporter.sol)"
        }
      },
      "borrowVerify(address,address,uint256)": {
        "params": {
          "borrowAmount": "The amount of the underlying asset requested to borrow",
          "borrower": "The address borrowing the underlying",
          "hToken": "Asset whose underlying is being borrowed"
        }
      },
      "checkMembership(address,address)": {
        "params": {
          "account": "The address of the account to check",
          "hToken": "The hToken to check"
        },
        "returns": {
          "_0": "True if the account is in the asset, otherwise false."
        }
      },
      "enterMarkets(address[])": {
        "params": {
          "hTokens": "The list of addresses of the hToken markets to be enabled"
        },
        "returns": {
          "_0": "Success indicator for whether each corresponding market was entered"
        }
      },
      "exitMarket(address)": {
        "details": "Sender must not have an outstanding borrow balance in the asset, or be providing neccessary collateral for an outstanding borrow.",
        "params": {
          "hTokenAddress": "The address of the asset to be removed"
        },
        "returns": {
          "_0": "Whether or not the account successfully exited the market"
        }
      },
      "getAllMarkets()": {
        "details": "The automatic getter may be used to access an individual market.",
        "returns": {
          "_0": "The list of market addresses"
        }
      },
      "getAssetsIn(address)": {
        "params": {
          "account": "The address of the account to pull assets for"
        },
        "returns": {
          "_0": "A dynamic list with the assets the account has entered"
        }
      },
      "getHypotheticalAccountLiquidity(address,address,uint256,uint256)": {
        "params": {
          "account": "The account to determine liquidity for",
          "borrowAmount": "The amount of underlying to hypothetically borrow",
          "hTokenModify": "The market to hypothetically redeem/borrow in",
          "redeemTokens": "The number of tokens to hypothetically redeem"
        },
        "returns": {
          "_0": "(possible error code (semi-opaque), hypothetical account liquidity in excess of collateral requirements,         hypothetical account shortfall below collateral requirements)"
        }
      },
      "liquidateBorrowAllowed(address,address,address,address,uint256)": {
        "params": {
          "borrower": "The address of the borrower",
          "hTokenBorrowed": "Asset which was borrowed by the borrower",
          "hTokenCollateral": "Asset which was used as collateral and will be seized",
          "liquidator": "The address repaying the borrow and seizing the collateral",
          "repayAmount": "The amount of underlying being repaid"
        }
      },
      "liquidateBorrowVerify(address,address,address,address,uint256,uint256)": {
        "params": {
          "actualRepayAmount": "The amount of underlying being repaid",
          "borrower": "The address of the borrower",
          "hTokenBorrowed": "Asset which was borrowed by the borrower",
          "hTokenCollateral": "Asset which was used as collateral and will be seized",
          "liquidator": "The address repaying the borrow and seizing the collateral"
        }
      },
      "liquidateCalculateSeizeTokens(address,address,uint256)": {
        "details": "Used in liquidation (called in hToken.liquidateBorrowFresh)",
        "params": {
          "actualRepayAmount": "The amount of hTokenBorrowed underlying to convert into hTokenCollateral tokens",
          "hTokenBorrowed": "The address of the borrowed hToken",
          "hTokenCollateral": "The address of the collateral hToken"
        },
        "returns": {
          "_0": "(errorCode, number of hTokenCollateral tokens to be seized in a liquidation)"
        }
      },
      "mintAllowed(address,address,uint256)": {
        "params": {
          "hToken": "The market to verify the mint against",
          "mintAmount": "The amount of underlying being supplied to the market in exchange for tokens",
          "minter": "The account which would get the minted tokens"
        },
        "returns": {
          "_0": "0 if the mint is allowed, otherwise a semi-opaque error code (See ErrorReporter.sol)"
        }
      },
      "mintVerify(address,address,uint256,uint256)": {
        "params": {
          "actualMintAmount": "The amount of the underlying asset being minted",
          "hToken": "Asset being minted",
          "mintTokens": "The number of tokens being minted",
          "minter": "The address minting the tokens"
        }
      },
      "redeemAllowed(address,address,uint256)": {
        "params": {
          "hToken": "The market to verify the redeem against",
          "redeemTokens": "The number of hTokens to exchange for the underlying asset in the market",
          "redeemer": "The account which would redeem the tokens"
        },
        "returns": {
          "_0": "0 if the redeem is allowed, otherwise a semi-opaque error code (See ErrorReporter.sol)"
        }
      },
      "redeemVerify(address,address,uint256,uint256)": {
        "params": {
          "hToken": "Asset being redeemed",
          "redeemAmount": "The amount of the underlying asset being redeemed",
          "redeemTokens": "The number of tokens being redeemed",
          "redeemer": "The address redeeming the tokens"
        }
      },
      "repayBorrowAllowed(address,address,address,uint256)": {
        "params": {
          "borrower": "The account which would borrowed the asset",
          "hToken": "The market to verify the repay against",
          "payer": "The account which would repay the asset",
          "repayAmount": "The amount of the underlying asset the account would repay"
        },
        "returns": {
          "_0": "0 if the repay is allowed, otherwise a semi-opaque error code (See ErrorReporter.sol)"
        }
      },
      "repayBorrowVerify(address,address,address,uint256,uint256)": {
        "params": {
          "actualRepayAmount": "The amount of underlying being repaid",
          "borrower": "The address of the borrower",
          "hToken": "Asset being repaid",
          "payer": "The address repaying the borrow"
        }
      },
      "seizeAllowed(address,address,address,address,uint256)": {
        "params": {
          "borrower": "The address of the borrower",
          "hTokenBorrowed": "Asset which was borrowed by the borrower",
          "hTokenCollateral": "Asset which was used as collateral and will be seized",
          "liquidator": "The address repaying the borrow and seizing the collateral",
          "seizeTokens": "The number of collateral tokens to seize"
        }
      },
      "seizeVerify(address,address,address,address,uint256)": {
        "params": {
          "borrower": "The address of the borrower",
          "hTokenBorrowed": "Asset which was borrowed by the borrower",
          "hTokenCollateral": "Asset which was used as collateral and will be seized",
          "liquidator": "The address repaying the borrow and seizing the collateral",
          "seizeTokens": "The number of collateral tokens to seize"
        }
      },
      "transferAllowed(address,address,address,uint256)": {
        "params": {
          "dst": "The account which receives the tokens",
          "hToken": "The market to verify the transfer against",
          "src": "The account which sources the tokens",
          "transferTokens": "The number of hTokens to transfer"
        },
        "returns": {
          "_0": "0 if the transfer is allowed, otherwise a semi-opaque error code (See ErrorReporter.sol)"
        }
      },
      "transferVerify(address,address,address,uint256)": {
        "params": {
          "dst": "The account which receives the tokens",
          "hToken": "Asset being transferred",
          "src": "The account which sources the tokens",
          "transferTokens": "The number of hTokens to transfer"
        }
      }
    },
    "title": "Hades' MarketController Contract"
  },
  "userdoc": {
    "methods": {
      "_setCloseFactor(uint256)": {
        "notice": "Sets the closeFactor used when liquidating borrows"
      },
      "_setCollateralFactor(address,uint256)": {
        "notice": "Sets the collateralFactor for a market"
      },
      "_setLiquidationIncentive(uint256)": {
        "notice": "Sets liquidationIncentive"
      },
      "_setMaxAssets(uint256)": {
        "notice": "Sets maxAssets which controls how many markets can be entered"
      },
      "_setPauseGuardian(address)": {
        "notice": "Admin function to change the Pause Guardian"
      },
      "_supportMarket(address)": {
        "notice": "Add the market to the markets mapping and set it as listed"
      },
      "borrowAllowed(address,address,uint256)": {
        "notice": "Checks if the account should be allowed to borrow the underlying asset of the given market"
      },
      "borrowVerify(address,address,uint256)": {
        "notice": "Validates borrow and reverts on rejection. May emit logs."
      },
      "checkMembership(address,address)": {
        "notice": "Returns whether the given account is entered in the given asset"
      },
      "enterMarkets(address[])": {
        "notice": "Add assets to be included in account liquidity calculation"
      },
      "exitMarket(address)": {
        "notice": "Removes asset from sender's account liquidity calculation"
      },
      "getAccountLiquidity(address)": {
        "notice": "Determine the current account liquidity wrt collateral requirements"
      },
      "getAllMarkets()": {
        "notice": "Return all of the markets"
      },
      "getAssetsIn(address)": {
        "notice": "Returns the assets an account has entered"
      },
      "getHypotheticalAccountLiquidity(address,address,uint256,uint256)": {
        "notice": "Determine what the account liquidity would be if the given amounts were redeemed/borrowed"
      },
      "liquidateBorrowAllowed(address,address,address,address,uint256)": {
        "notice": "Checks if the liquidation should be allowed to occur"
      },
      "liquidateBorrowVerify(address,address,address,address,uint256,uint256)": {
        "notice": "Validates liquidateBorrow and reverts on rejection. May emit logs."
      },
      "liquidateCalculateSeizeTokens(address,address,uint256)": {
        "notice": "Calculate number of tokens of collateral asset to seize given an underlying amount"
      },
      "mintAllowed(address,address,uint256)": {
        "notice": "Checks if the account should be allowed to mint tokens in the given market"
      },
      "mintVerify(address,address,uint256,uint256)": {
        "notice": "Validates mint and reverts on rejection. May emit logs."
      },
      "redeemAllowed(address,address,uint256)": {
        "notice": "Checks if the account should be allowed to redeem tokens in the given market"
      },
      "redeemVerify(address,address,uint256,uint256)": {
        "notice": "Validates redeem and reverts on rejection. May emit logs."
      },
      "repayBorrowAllowed(address,address,address,uint256)": {
        "notice": "Checks if the account should be allowed to repay a borrow in the given market"
      },
      "repayBorrowVerify(address,address,address,uint256,uint256)": {
        "notice": "Validates repayBorrow and reverts on rejection. May emit logs."
      },
      "seizeAllowed(address,address,address,address,uint256)": {
        "notice": "Checks if the seizing of assets should be allowed to occur"
      },
      "seizeVerify(address,address,address,address,uint256)": {
        "notice": "Validates seize and reverts on rejection. May emit logs."
      },
      "transferAllowed(address,address,address,uint256)": {
        "notice": "Checks if the account should be allowed to transfer tokens in the given market"
      },
      "transferVerify(address,address,address,uint256)": {
        "notice": "Validates transfer and reverts on rejection. May emit logs."
      }
    }
  }
}