{
  "contractName": "MockPriceOracle",
  "abi": [
    {
      "inputs": [
        {
          "internalType": "address",
          "name": "hToken",
          "type": "address"
        }
      ],
      "name": "getUnderlyingPrice",
      "outputs": [
        {
          "internalType": "uint256",
          "name": "",
          "type": "uint256"
        }
      ],
      "stateMutability": "view",
      "type": "function"
    },
    {
      "inputs": [
        {
          "internalType": "string",
          "name": "symbol",
          "type": "string"
        },
        {
          "internalType": "uint256",
          "name": "priceMantissa",
          "type": "uint256"
        }
      ],
      "name": "setUnderlyingPrice",
      "outputs": [],
      "stateMutability": "nonpayable",
      "type": "function"
    }
  ],
  "bytecode": "0x608060405234801561001057600080fd5b506104e3806100206000396000f3fe608060405234801561001057600080fd5b50600436106100365760003560e01c8063d7478e071461003b578063fc57d4df14610100575b600080fd5b6100fe6004803603604081101561005157600080fd5b810190808035906020019064010000000081111561006e57600080fd5b82018360208201111561008057600080fd5b803590602001918460018302840111640100000000831117156100a257600080fd5b91908080601f016020809104026020016040519081016040528093929190818152602001838380828437600081840152601f19601f82011690508083019250505050505050919291929080359060200190929190505050610158565b005b6101426004803603602081101561011657600080fd5b81019080803573ffffffffffffffffffffffffffffffffffffffff1690602001909291905050506101ca565b6040518082815260200191505060405180910390f35b806000836040518082805190602001908083835b6020831061018f578051825260208201915060208101905060208303925061016c565b6001836020036101000a0380198251168184511680821785525050505050509050019150509081526020016040518091039020819055505050565b600060608273ffffffffffffffffffffffffffffffffffffffff166392e6077f6040518163ffffffff1660e01b815260040160006040518083038186803b15801561021457600080fd5b505afa158015610228573d6000803e3d6000fd5b505050506040513d6000823e3d601f19601f82011682018060405250602081101561025257600080fd5b810190808051604051939291908464010000000082111561027257600080fd5b8382019150602082018581111561028857600080fd5b82518660018202830111640100000000821117156102a557600080fd5b8083526020830192505050908051906020019080838360005b838110156102d95780820151818401526020810190506102be565b50505050905090810190601f1680156103065780820380516001836020036101000a031916815260200191505b50604052505050905061034e816040518060400160405280600381526020017f55534400000000000000000000000000000000000000000000000000000000008152506103d7565b1561036457670de0b6b3a76400009150506103d2565b6000816040518082805190602001908083835b6020831061039a5780518252602082019150602081019050602083039250610377565b6001836020036101000a0380198251168184511680821785525050505050509050019150509081526020016040518091039020549150505b919050565b60006060839050606083905080518251146103f7576000925050506104a7565b60005b82518161ffff16101561049f57818161ffff168151811061041757fe5b602001015160f81c60f81b7effffffffffffffffffffffffffffffffffffffffffffffffffffffffffffff1916838261ffff168151811061045457fe5b602001015160f81c60f81b7effffffffffffffffffffffffffffffffffffffffffffffffffffffffffffff19161461049257600093505050506104a7565b80806001019150506103fa565b506001925050505b9291505056fea264697066735822122033e6a0060223236b96c554111d3800c7d67f49640106c458ba77e1842728c05d64736f6c63430006000033",
  "source": "pragma solidity ^0.6.0;\n\nimport \"../interfaces/PriceOracleInterface.sol\";\nimport \"../interfaces/HTokenInterface.sol\";\nimport \"../libraries/Strings.sol\";\nimport \"../HErc20.sol\";\n\ncontract MockPriceOracle is PriceOracleInterface {\n\tmapping(string => uint256) prices;\n\n\tfunction getUnderlyingPrice(address hToken) external override view returns (uint256) {\n\t\tstring memory symbol = HTokenInterface(hToken).anchorSymbol();\n\t\tif (Strings.equals(symbol, \"USD\")) {\n\t\t\treturn 1e18;\n\t\t} else {\n\t\t\treturn prices[symbol];\n\t\t}\n\t}\n\n\tfunction setUnderlyingPrice(string memory symbol, uint256 priceMantissa) public {\n\t\tprices[symbol] = priceMantissa;\n\t}\n}\n",
  "sourcePath": "/hades/evm-contracts/src/mocks/MockPriceOracle.sol",
  "compiler": {
    "name": "solc",
    "version": "0.6.0+commit.26b70077.Emscripten.clang"
  },
  "schemaVersion": "3.2.4",
  "updatedAt": "2020-10-27T12:03:42.930Z",
  "networkType": "ethereum",
  "devdoc": {
    "methods": {}
  },
  "userdoc": {
    "methods": {}
  }
}