{
  "contractName": "Orchestrator",
  "abi": [
    {
      "anonymous": false,
      "inputs": [
        {
          "indexed": false,
          "internalType": "bytes32",
          "name": "id",
          "type": "bytes32"
        },
        {
          "indexed": true,
          "internalType": "address",
          "name": "newAddress",
          "type": "address"
        }
      ],
      "name": "ProxyCreated",
      "type": "event"
    },
    {
      "inputs": [],
      "name": "admin",
      "outputs": [
        {
          "internalType": "address payable",
          "name": "",
          "type": "address"
        }
      ],
      "stateMutability": "view",
      "type": "function"
    },
    {
      "inputs": [],
      "name": "controller",
      "outputs": [
        {
          "internalType": "contract MarketControllerInterface",
          "name": "",
          "type": "address"
        }
      ],
      "stateMutability": "view",
      "type": "function"
    },
    {
      "inputs": [],
      "name": "distributor",
      "outputs": [
        {
          "internalType": "contract DistributorInterface",
          "name": "",
          "type": "address"
        }
      ],
      "stateMutability": "view",
      "type": "function"
    },
    {
      "inputs": [],
      "name": "dol",
      "outputs": [
        {
          "internalType": "contract DOL",
          "name": "",
          "type": "address"
        }
      ],
      "stateMutability": "view",
      "type": "function"
    },
    {
      "inputs": [],
      "name": "govern",
      "outputs": [
        {
          "internalType": "contract Governance",
          "name": "",
          "type": "address"
        }
      ],
      "stateMutability": "view",
      "type": "function"
    },
    {
      "inputs": [],
      "name": "hds",
      "outputs": [
        {
          "internalType": "contract HDS",
          "name": "",
          "type": "address"
        }
      ],
      "stateMutability": "view",
      "type": "function"
    },
    {
      "inputs": [],
      "name": "interestRateStrategy",
      "outputs": [
        {
          "internalType": "contract InterestRateStrategyInterface",
          "name": "",
          "type": "address"
        }
      ],
      "stateMutability": "view",
      "type": "function"
    },
    {
      "inputs": [],
      "name": "oracle",
      "outputs": [
        {
          "internalType": "contract PriceOracleInterface",
          "name": "",
          "type": "address"
        }
      ],
      "stateMutability": "view",
      "type": "function"
    },
    {
      "inputs": [],
      "name": "reporter",
      "outputs": [
        {
          "internalType": "contract ProtocolReporter",
          "name": "",
          "type": "address"
        }
      ],
      "stateMutability": "view",
      "type": "function"
    },
    {
      "inputs": [],
      "name": "timelock",
      "outputs": [
        {
          "internalType": "contract Timelock",
          "name": "",
          "type": "address"
        }
      ],
      "stateMutability": "view",
      "type": "function"
    },
    {
      "inputs": [
        {
          "internalType": "address[]",
          "name": "impls",
          "type": "address[]"
        },
        {
          "internalType": "address",
          "name": "_hds",
          "type": "address"
        },
        {
          "internalType": "address payable",
          "name": "_hEther",
          "type": "address"
        },
        {
          "internalType": "address",
          "name": "_hDol",
          "type": "address"
        }
      ],
      "name": "initialize",
      "outputs": [],
      "stateMutability": "nonpayable",
      "type": "function"
    },
    {
      "inputs": [
        {
          "internalType": "address",
          "name": "hTokenAddr",
          "type": "address"
        },
        {
          "internalType": "address",
          "name": "underlyingAddr",
          "type": "address"
        },
        {
          "internalType": "string",
          "name": "name",
          "type": "string"
        },
        {
          "internalType": "string",
          "name": "symbol",
          "type": "string"
        },
        {
          "internalType": "string",
          "name": "anchor",
          "type": "string"
        }
      ],
      "name": "addToken",
      "outputs": [],
      "stateMutability": "nonpayable",
      "type": "function"
    },
    {
      "inputs": [],
      "name": "getHDS",
      "outputs": [
        {
          "internalType": "address",
          "name": "",
          "type": "address"
        }
      ],
      "stateMutability": "view",
      "type": "function"
    },
    {
      "inputs": [],
      "name": "getDOL",
      "outputs": [
        {
          "internalType": "address",
          "name": "",
          "type": "address"
        }
      ],
      "stateMutability": "view",
      "type": "function"
    },
    {
      "inputs": [],
      "name": "getOracle",
      "outputs": [
        {
          "internalType": "address",
          "name": "",
          "type": "address"
        }
      ],
      "stateMutability": "view",
      "type": "function"
    },
    {
      "inputs": [
        {
          "internalType": "address",
          "name": "_oracle",
          "type": "address"
        }
      ],
      "name": "setOracleImpl",
      "outputs": [
        {
          "internalType": "address",
          "name": "",
          "type": "address"
        }
      ],
      "stateMutability": "nonpayable",
      "type": "function"
    },
    {
      "inputs": [],
      "name": "getInterestRateStrategy",
      "outputs": [
        {
          "internalType": "address",
          "name": "",
          "type": "address"
        }
      ],
      "stateMutability": "view",
      "type": "function"
    },
    {
      "inputs": [
        {
          "internalType": "address",
          "name": "_interestRateStrategy",
          "type": "address"
        }
      ],
      "name": "setInterestRateStrategyImpl",
      "outputs": [
        {
          "internalType": "address",
          "name": "",
          "type": "address"
        }
      ],
      "stateMutability": "nonpayable",
      "type": "function"
    },
    {
      "inputs": [],
      "name": "getMarketController",
      "outputs": [
        {
          "internalType": "address",
          "name": "",
          "type": "address"
        }
      ],
      "stateMutability": "view",
      "type": "function"
    },
    {
      "inputs": [
        {
          "internalType": "address",
          "name": "_controller",
          "type": "address"
        }
      ],
      "name": "setMarketControllerImpl",
      "outputs": [
        {
          "internalType": "address",
          "name": "",
          "type": "address"
        }
      ],
      "stateMutability": "nonpayable",
      "type": "function"
    },
    {
      "inputs": [],
      "name": "getHDistributor",
      "outputs": [
        {
          "internalType": "address",
          "name": "",
          "type": "address"
        }
      ],
      "stateMutability": "view",
      "type": "function"
    },
    {
      "inputs": [
        {
          "internalType": "address",
          "name": "_distributor",
          "type": "address"
        }
      ],
      "name": "setDistributorImpl",
      "outputs": [
        {
          "internalType": "address",
          "name": "",
          "type": "address"
        }
      ],
      "stateMutability": "nonpayable",
      "type": "function"
    },
    {
      "inputs": [],
      "name": "getGovern",
      "outputs": [
        {
          "internalType": "address",
          "name": "",
          "type": "address"
        }
      ],
      "stateMutability": "view",
      "type": "function"
    },
    {
      "inputs": [
        {
          "internalType": "address",
          "name": "_govern",
          "type": "address"
        }
      ],
      "name": "setGovernImpl",
      "outputs": [
        {
          "internalType": "address",
          "name": "",
          "type": "address"
        }
      ],
      "stateMutability": "nonpayable",
      "type": "function"
    },
    {
      "inputs": [],
      "name": "getReporter",
      "outputs": [
        {
          "internalType": "address",
          "name": "",
          "type": "address"
        }
      ],
      "stateMutability": "view",
      "type": "function"
    },
    {
      "inputs": [
        {
          "internalType": "address",
          "name": "_reporter",
          "type": "address"
        }
      ],
      "name": "setReporter",
      "outputs": [
        {
          "internalType": "address",
          "name": "",
          "type": "address"
        }
      ],
      "stateMutability": "nonpayable",
      "type": "function"
    },
    {
      "inputs": [],
      "name": "getTimelock",
      "outputs": [
        {
          "internalType": "address",
          "name": "",
          "type": "address"
        }
      ],
      "stateMutability": "view",
      "type": "function"
    },
    {
      "inputs": [
        {
          "internalType": "address",
          "name": "_timelock",
          "type": "address"
        }
      ],
      "name": "setTimelock",
      "outputs": [
        {
          "internalType": "address",
          "name": "",
          "type": "address"
        }
      ],
      "stateMutability": "nonpayable",
      "type": "function"
    }
  ],
  "bytecode": "0x608060405234801561001057600080fd5b506137f2806100206000396000f3fe608060405234801561001057600080fd5b50600436106101c45760003560e01c8063ad144e92116100f9578063ce67f84b11610097578063ebc2b25911610071578063ebc2b25914610bf7578063f529a5d014610c41578063f77c479114610c8b578063f851a44014610cd5576101c4565b8063ce67f84b14610a8a578063d33219b414610ad4578063d46005b114610b1e576101c4565b8063bdacb303116100d3578063bdacb303146108ee578063be31d6b214610972578063bfe10928146109f6578063c4aa15dd14610a40576101c4565b8063ad144e92146107d6578063ad9914f81461085a578063b5d568b8146108a4576101c4565b80633ef18858116101665780636221a54b116101405780636221a54b146106ae578063764b0c57146106f85780637dc0d1d014610742578063833b1fce1461078c576101c4565b80633ef18858146105225780634c925032146105a657806362132fc11461062a576101c4565b80632757d58c116101a25780632757d58c146103fa57806329a368bc146104445780632fbfb9811461048e5780633e074608146104d8576101c4565b8063010ec441146101c95780631e657e911461021357806326cf17f614610297575b600080fd5b6101d1610d1f565b604051808273ffffffffffffffffffffffffffffffffffffffff1673ffffffffffffffffffffffffffffffffffffffff16815260200191505060405180910390f35b6102556004803603602081101561022957600080fd5b81019080803573ffffffffffffffffffffffffffffffffffffffff169060200190929190505050610d45565b604051808273ffffffffffffffffffffffffffffffffffffffff1673ffffffffffffffffffffffffffffffffffffffff16815260200191505060405180910390f35b6103f8600480360360a08110156102ad57600080fd5b81019080803573ffffffffffffffffffffffffffffffffffffffff169060200190929190803573ffffffffffffffffffffffffffffffffffffffff1690602001909291908035906020019064010000000081111561030a57600080fd5b82018360208201111561031c57600080fd5b8035906020019184600183028401116401000000008311171561033e57600080fd5b90919293919293908035906020019064010000000081111561035f57600080fd5b82018360208201111561037157600080fd5b8035906020019184600183028401116401000000008311171561039357600080fd5b9091929391929390803590602001906401000000008111156103b457600080fd5b8201836020820111156103c657600080fd5b803590602001918460018302840111640100000000831117156103e857600080fd5b9091929391929390505050610d7d565b005b6104026110d1565b604051808273ffffffffffffffffffffffffffffffffffffffff1673ffffffffffffffffffffffffffffffffffffffff16815260200191505060405180910390f35b61044c6110f7565b604051808273ffffffffffffffffffffffffffffffffffffffff1673ffffffffffffffffffffffffffffffffffffffff16815260200191505060405180910390f35b61049661111d565b604051808273ffffffffffffffffffffffffffffffffffffffff1673ffffffffffffffffffffffffffffffffffffffff16815260200191505060405180910390f35b6104e061114d565b604051808273ffffffffffffffffffffffffffffffffffffffff1673ffffffffffffffffffffffffffffffffffffffff16815260200191505060405180910390f35b6105646004803603602081101561053857600080fd5b81019080803573ffffffffffffffffffffffffffffffffffffffff169060200190929190505050611173565b604051808273ffffffffffffffffffffffffffffffffffffffff1673ffffffffffffffffffffffffffffffffffffffff16815260200191505060405180910390f35b6105e8600480360360208110156105bc57600080fd5b81019080803573ffffffffffffffffffffffffffffffffffffffff1690602001909291905050506111ab565b604051808273ffffffffffffffffffffffffffffffffffffffff1673ffffffffffffffffffffffffffffffffffffffff16815260200191505060405180910390f35b61066c6004803603602081101561064057600080fd5b81019080803573ffffffffffffffffffffffffffffffffffffffff1690602001909291905050506111e3565b604051808273ffffffffffffffffffffffffffffffffffffffff1673ffffffffffffffffffffffffffffffffffffffff16815260200191505060405180910390f35b6106b661121b565b604051808273ffffffffffffffffffffffffffffffffffffffff1673ffffffffffffffffffffffffffffffffffffffff16815260200191505060405180910390f35b61070061124b565b604051808273ffffffffffffffffffffffffffffffffffffffff1673ffffffffffffffffffffffffffffffffffffffff16815260200191505060405180910390f35b61074a611271565b604051808273ffffffffffffffffffffffffffffffffffffffff1673ffffffffffffffffffffffffffffffffffffffff16815260200191505060405180910390f35b610794611297565b604051808273ffffffffffffffffffffffffffffffffffffffff1673ffffffffffffffffffffffffffffffffffffffff16815260200191505060405180910390f35b610818600480360360208110156107ec57600080fd5b81019080803573ffffffffffffffffffffffffffffffffffffffff1690602001909291905050506112c7565b604051808273ffffffffffffffffffffffffffffffffffffffff1673ffffffffffffffffffffffffffffffffffffffff16815260200191505060405180910390f35b6108626112ff565b604051808273ffffffffffffffffffffffffffffffffffffffff1673ffffffffffffffffffffffffffffffffffffffff16815260200191505060405180910390f35b6108ac61132f565b604051808273ffffffffffffffffffffffffffffffffffffffff1673ffffffffffffffffffffffffffffffffffffffff16815260200191505060405180910390f35b6109306004803603602081101561090457600080fd5b81019080803573ffffffffffffffffffffffffffffffffffffffff16906020019092919050505061135f565b604051808273ffffffffffffffffffffffffffffffffffffffff1673ffffffffffffffffffffffffffffffffffffffff16815260200191505060405180910390f35b6109b46004803603602081101561098857600080fd5b81019080803573ffffffffffffffffffffffffffffffffffffffff169060200190929190505050611397565b604051808273ffffffffffffffffffffffffffffffffffffffff1673ffffffffffffffffffffffffffffffffffffffff16815260200191505060405180910390f35b6109fe6113cf565b604051808273ffffffffffffffffffffffffffffffffffffffff1673ffffffffffffffffffffffffffffffffffffffff16815260200191505060405180910390f35b610a486113f5565b604051808273ffffffffffffffffffffffffffffffffffffffff1673ffffffffffffffffffffffffffffffffffffffff16815260200191505060405180910390f35b610a92611425565b604051808273ffffffffffffffffffffffffffffffffffffffff1673ffffffffffffffffffffffffffffffffffffffff16815260200191505060405180910390f35b610adc611455565b604051808273ffffffffffffffffffffffffffffffffffffffff1673ffffffffffffffffffffffffffffffffffffffff16815260200191505060405180910390f35b610bf560048036036080811015610b3457600080fd5b8101908080359060200190640100000000811115610b5157600080fd5b820183602082011115610b6357600080fd5b80359060200191846020830284011164010000000083111715610b8557600080fd5b9091929391929390803573ffffffffffffffffffffffffffffffffffffffff169060200190929190803573ffffffffffffffffffffffffffffffffffffffff169060200190929190803573ffffffffffffffffffffffffffffffffffffffff16906020019092919050505061147b565b005b610bff6126cb565b604051808273ffffffffffffffffffffffffffffffffffffffff1673ffffffffffffffffffffffffffffffffffffffff16815260200191505060405180910390f35b610c496126fb565b604051808273ffffffffffffffffffffffffffffffffffffffff1673ffffffffffffffffffffffffffffffffffffffff16815260200191505060405180910390f35b610c9361272b565b604051808273ffffffffffffffffffffffffffffffffffffffff1673ffffffffffffffffffffffffffffffffffffffff16815260200191505060405180910390f35b610cdd612751565b604051808273ffffffffffffffffffffffffffffffffffffffff1673ffffffffffffffffffffffffffffffffffffffff16815260200191505060405180910390f35b600960009054906101000a900473ffffffffffffffffffffffffffffffffffffffff1681565b600080610d727f414444525f474f5645524e00000000000000000000000000000000000000000084612777565b905080915050919050565b60008890508073ffffffffffffffffffffffffffffffffffffffff16631b937210600a60009054906101000a900473ffffffffffffffffffffffffffffffffffffffff168a600660009054906101000a900473ffffffffffffffffffffffffffffffffffffffff16600560009054906101000a900473ffffffffffffffffffffffffffffffffffffffff16600360009054906101000a900473ffffffffffffffffffffffffffffffffffffffff168d8d8d8d8d8d6040518c63ffffffff1660e01b8152600401808c73ffffffffffffffffffffffffffffffffffffffff1673ffffffffffffffffffffffffffffffffffffffff1681526020018b73ffffffffffffffffffffffffffffffffffffffff1673ffffffffffffffffffffffffffffffffffffffff1681526020018a73ffffffffffffffffffffffffffffffffffffffff1673ffffffffffffffffffffffffffffffffffffffff1681526020018973ffffffffffffffffffffffffffffffffffffffff1673ffffffffffffffffffffffffffffffffffffffff1681526020018873ffffffffffffffffffffffffffffffffffffffff1673ffffffffffffffffffffffffffffffffffffffff16815260200180602001806020018060200184810384528a8a82818152602001925080828437600081840152601f19601f8201169050808301925050508481038352888882818152602001925080828437600081840152601f19601f8201169050808301925050508481038252868682818152602001925080828437600081840152601f19601f8201169050808301925050509e505050505050505050505050505050600060405180830381600087803b158015610ff557600080fd5b505af1158015611009573d6000803e3d6000fd5b50505050600660009054906101000a900473ffffffffffffffffffffffffffffffffffffffff1673ffffffffffffffffffffffffffffffffffffffff1663a76b3fda8a6040518263ffffffff1660e01b8152600401808273ffffffffffffffffffffffffffffffffffffffff1673ffffffffffffffffffffffffffffffffffffffff168152602001915050600060405180830381600087803b1580156110ae57600080fd5b505af11580156110c2573d6000803e3d6000fd5b50505050505050505050505050565b600860009054906101000a900473ffffffffffffffffffffffffffffffffffffffff1681565b600260009054906101000a900473ffffffffffffffffffffffffffffffffffffffff1681565b60006111487f414444525f4449535452494255544f5200000000000000000000000000000000612a86565b905090565b600560009054906101000a900473ffffffffffffffffffffffffffffffffffffffff1681565b6000806111a07f414444525f494e5445524553545f524154455f5354524154454759000000000084612777565b905080915050919050565b6000806111d87f414444525f5245504f525445520000000000000000000000000000000000000084612777565b905080915050919050565b6000806112107f414444525f4449535452494255544f520000000000000000000000000000000084612777565b905080915050919050565b60006112467f414444525f54494d454c4f434b00000000000000000000000000000000000000612a86565b905090565b600160009054906101000a900473ffffffffffffffffffffffffffffffffffffffff1681565b600460009054906101000a900473ffffffffffffffffffffffffffffffffffffffff1681565b60006112c27f414444525f4f5241434c45000000000000000000000000000000000000000000612a86565b905090565b6000806112f47f414444525f4f5241434c4500000000000000000000000000000000000000000084612777565b905080915050919050565b600061132a7f414444525f5245504f5254455200000000000000000000000000000000000000612a86565b905090565b600061135a7f414444525f4d41524b45545f434f4e54524f4c4c455200000000000000000000612a86565b905090565b60008061138c7f414444525f54494d454c4f434b0000000000000000000000000000000000000084612777565b905080915050919050565b6000806113c47f414444525f4d41524b45545f434f4e54524f4c4c45520000000000000000000084612777565b905080915050919050565b600360009054906101000a900473ffffffffffffffffffffffffffffffffffffffff1681565b60006114207f414444525f444f4c000000000000000000000000000000000000000000000000612a86565b905090565b60006114507f414444525f474f5645524e000000000000000000000000000000000000000000612a86565b905090565b600760009054906101000a900473ffffffffffffffffffffffffffffffffffffffff1681565b600885859050146114d7576040517f08c379a000000000000000000000000000000000000000000000000000000000815260040180806020018281038252602e81526020018061378f602e913960400191505060405180910390fd5b33600a60006101000a81548173ffffffffffffffffffffffffffffffffffffffff021916908373ffffffffffffffffffffffffffffffffffffffff16021790555060008585600081811061152757fe5b9050602002013573ffffffffffffffffffffffffffffffffffffffff1690506115997f414444525f4f5241434c450000000000000000000000000000000000000000008787600181811061157757fe5b9050602002013573ffffffffffffffffffffffffffffffffffffffff16612777565b600460006101000a81548173ffffffffffffffffffffffffffffffffffffffff021916908373ffffffffffffffffffffffffffffffffffffffff16021790555061162c7f414444525f494e5445524553545f524154455f535452415445475900000000008787600281811061160a57fe5b9050602002013573ffffffffffffffffffffffffffffffffffffffff16612777565b600560006101000a81548173ffffffffffffffffffffffffffffffffffffffff021916908373ffffffffffffffffffffffffffffffffffffffff1602179055506116bf7f414444525f4d41524b45545f434f4e54524f4c4c4552000000000000000000008787600381811061169d57fe5b9050602002013573ffffffffffffffffffffffffffffffffffffffff16612777565b600660006101000a81548173ffffffffffffffffffffffffffffffffffffffff021916908373ffffffffffffffffffffffffffffffffffffffff1602179055506117527f414444525f4449535452494255544f52000000000000000000000000000000008787600481811061173057fe5b9050602002013573ffffffffffffffffffffffffffffffffffffffff16612777565b600360006101000a81548173ffffffffffffffffffffffffffffffffffffffff021916908373ffffffffffffffffffffffffffffffffffffffff1602179055506117e57f414444525f54494d454c4f434b00000000000000000000000000000000000000878760058181106117c357fe5b9050602002013573ffffffffffffffffffffffffffffffffffffffff16612777565b600760006101000a81548173ffffffffffffffffffffffffffffffffffffffff021916908373ffffffffffffffffffffffffffffffffffffffff1602179055506118787f414444525f474f5645524e0000000000000000000000000000000000000000008787600681811061185657fe5b9050602002013573ffffffffffffffffffffffffffffffffffffffff16612777565b600860006101000a81548173ffffffffffffffffffffffffffffffffffffffff021916908373ffffffffffffffffffffffffffffffffffffffff16021790555061190b7f414444525f5245504f5254455200000000000000000000000000000000000000878760078181106118e957fe5b9050602002013573ffffffffffffffffffffffffffffffffffffffff16612777565b600960006101000a81548173ffffffffffffffffffffffffffffffffffffffff021916908373ffffffffffffffffffffffffffffffffffffffff16021790555083600160006101000a81548173ffffffffffffffffffffffffffffffffffffffff021916908373ffffffffffffffffffffffffffffffffffffffff1602179055506119b67f414444525f48445300000000000000000000000000000000000000000000000085612ac2565b80600260006101000a81548173ffffffffffffffffffffffffffffffffffffffff021916908373ffffffffffffffffffffffffffffffffffffffff160217905550611a217f414444525f444f4c00000000000000000000000000000000000000000000000082612ac2565b600360009054906101000a900473ffffffffffffffffffffffffffffffffffffffff1673ffffffffffffffffffffffffffffffffffffffff1663f8c8765e600a60009054906101000a900473ffffffffffffffffffffffffffffffffffffffff1686600460009054906101000a900473ffffffffffffffffffffffffffffffffffffffff16600660009054906101000a900473ffffffffffffffffffffffffffffffffffffffff166040518563ffffffff1660e01b8152600401808573ffffffffffffffffffffffffffffffffffffffff1673ffffffffffffffffffffffffffffffffffffffff1681526020018473ffffffffffffffffffffffffffffffffffffffff1673ffffffffffffffffffffffffffffffffffffffff1681526020018373ffffffffffffffffffffffffffffffffffffffff1673ffffffffffffffffffffffffffffffffffffffff1681526020018273ffffffffffffffffffffffffffffffffffffffff1673ffffffffffffffffffffffffffffffffffffffff168152602001945050505050600060405180830381600087803b158015611bc457600080fd5b505af1158015611bd8573d6000803e3d6000fd5b50505050600660009054906101000a900473ffffffffffffffffffffffffffffffffffffffff1673ffffffffffffffffffffffffffffffffffffffff1663c0c53b8b600a60009054906101000a900473ffffffffffffffffffffffffffffffffffffffff1630600360009054906101000a900473ffffffffffffffffffffffffffffffffffffffff166040518463ffffffff1660e01b8152600401808473ffffffffffffffffffffffffffffffffffffffff1673ffffffffffffffffffffffffffffffffffffffff1681526020018373ffffffffffffffffffffffffffffffffffffffff1673ffffffffffffffffffffffffffffffffffffffff1681526020018273ffffffffffffffffffffffffffffffffffffffff1673ffffffffffffffffffffffffffffffffffffffff1681526020019350505050600060405180830381600087803b158015611d2957600080fd5b505af1158015611d3d573d6000803e3d6000fd5b50505050600260009054906101000a900473ffffffffffffffffffffffffffffffffffffffff1673ffffffffffffffffffffffffffffffffffffffff1663c4d66de8600660009054906101000a900473ffffffffffffffffffffffffffffffffffffffff166040518263ffffffff1660e01b8152600401808273ffffffffffffffffffffffffffffffffffffffff1673ffffffffffffffffffffffffffffffffffffffff168152602001915050600060405180830381600087803b158015611e0457600080fd5b505af1158015611e18573d6000803e3d6000fd5b50505050600760009054906101000a900473ffffffffffffffffffffffffffffffffffffffff1673ffffffffffffffffffffffffffffffffffffffff1663c4d66de8600a60009054906101000a900473ffffffffffffffffffffffffffffffffffffffff166040518263ffffffff1660e01b8152600401808273ffffffffffffffffffffffffffffffffffffffff1673ffffffffffffffffffffffffffffffffffffffff168152602001915050600060405180830381600087803b158015611edf57600080fd5b505af1158015611ef3573d6000803e3d6000fd5b50505050600860009054906101000a900473ffffffffffffffffffffffffffffffffffffffff1673ffffffffffffffffffffffffffffffffffffffff1663c0c53b8b600a60009054906101000a900473ffffffffffffffffffffffffffffffffffffffff16600760009054906101000a900473ffffffffffffffffffffffffffffffffffffffff16600160009054906101000a900473ffffffffffffffffffffffffffffffffffffffff166040518463ffffffff1660e01b8152600401808473ffffffffffffffffffffffffffffffffffffffff1673ffffffffffffffffffffffffffffffffffffffff1681526020018373ffffffffffffffffffffffffffffffffffffffff1673ffffffffffffffffffffffffffffffffffffffff1681526020018273ffffffffffffffffffffffffffffffffffffffff1673ffffffffffffffffffffffffffffffffffffffff1681526020019350505050600060405180830381600087803b15801561206657600080fd5b505af115801561207a573d6000803e3d6000fd5b5050505060008390508073ffffffffffffffffffffffffffffffffffffffff16639317c200600a60009054906101000a900473ffffffffffffffffffffffffffffffffffffffff16600660009054906101000a900473ffffffffffffffffffffffffffffffffffffffff16600560009054906101000a900473ffffffffffffffffffffffffffffffffffffffff16600360009054906101000a900473ffffffffffffffffffffffffffffffffffffffff166040518563ffffffff1660e01b8152600401808573ffffffffffffffffffffffffffffffffffffffff1673ffffffffffffffffffffffffffffffffffffffff1681526020018473ffffffffffffffffffffffffffffffffffffffff1673ffffffffffffffffffffffffffffffffffffffff1681526020018373ffffffffffffffffffffffffffffffffffffffff1673ffffffffffffffffffffffffffffffffffffffff1681526020018273ffffffffffffffffffffffffffffffffffffffff1673ffffffffffffffffffffffffffffffffffffffff1681526020018060200180602001838103835260118152602001807f4861646573207772617070656420455448000000000000000000000000000000815250602001838103825260048152602001807f68455448000000000000000000000000000000000000000000000000000000008152506020019650505050505050600060405180830381600087803b15801561229857600080fd5b505af11580156122ac573d6000803e3d6000fd5b5050505060008390508073ffffffffffffffffffffffffffffffffffffffff16631b937210600a60009054906101000a900473ffffffffffffffffffffffffffffffffffffffff1685600660009054906101000a900473ffffffffffffffffffffffffffffffffffffffff16600560009054906101000a900473ffffffffffffffffffffffffffffffffffffffff16600360009054906101000a900473ffffffffffffffffffffffffffffffffffffffff166040518663ffffffff1660e01b8152600401808673ffffffffffffffffffffffffffffffffffffffff1673ffffffffffffffffffffffffffffffffffffffff1681526020018573ffffffffffffffffffffffffffffffffffffffff1673ffffffffffffffffffffffffffffffffffffffff1681526020018473ffffffffffffffffffffffffffffffffffffffff1673ffffffffffffffffffffffffffffffffffffffff1681526020018373ffffffffffffffffffffffffffffffffffffffff1673ffffffffffffffffffffffffffffffffffffffff1681526020018273ffffffffffffffffffffffffffffffffffffffff1673ffffffffffffffffffffffffffffffffffffffff168152602001806020018060200180602001848103845260118152602001807f4861646573207772617070656420444f4c000000000000000000000000000000815250602001848103835260048152602001807f68444f4c00000000000000000000000000000000000000000000000000000000815250602001848103825260038152602001807f555344000000000000000000000000000000000000000000000000000000000081525060200198505050505050505050600060405180830381600087803b15801561253757600080fd5b505af115801561254b573d6000803e3d6000fd5b50505050600660009054906101000a900473ffffffffffffffffffffffffffffffffffffffff1673ffffffffffffffffffffffffffffffffffffffff1663a76b3fda866040518263ffffffff1660e01b8152600401808273ffffffffffffffffffffffffffffffffffffffff1673ffffffffffffffffffffffffffffffffffffffff168152602001915050600060405180830381600087803b1580156125f057600080fd5b505af1158015612604573d6000803e3d6000fd5b50505050600660009054906101000a900473ffffffffffffffffffffffffffffffffffffffff1673ffffffffffffffffffffffffffffffffffffffff1663a76b3fda856040518263ffffffff1660e01b8152600401808273ffffffffffffffffffffffffffffffffffffffff1673ffffffffffffffffffffffffffffffffffffffff168152602001915050600060405180830381600087803b1580156126a957600080fd5b505af11580156126bd573d6000803e3d6000fd5b505050505050505050505050565b60006126f67f414444525f484453000000000000000000000000000000000000000000000000612a86565b905090565b60006127267f414444525f494e5445524553545f524154455f53545241544547590000000000612a86565b905090565b600660009054906101000a900473ffffffffffffffffffffffffffffffffffffffff1681565b600a60009054906101000a900473ffffffffffffffffffffffffffffffffffffffff1681565b60008061278384612a86565b90506000819050606060006040519080825280601f01601f1916602001820160405280156127c05781602001600182028038833980820191505090505b509050600073ffffffffffffffffffffffffffffffffffffffff168373ffffffffffffffffffffffffffffffffffffffff1614156129da5760405161280490612b17565b604051809103906000f080158015612820573d6000803e3d6000fd5b5091508173ffffffffffffffffffffffffffffffffffffffff1663cf7a1d7786600a60009054906101000a900473ffffffffffffffffffffffffffffffffffffffff16846040518463ffffffff1660e01b8152600401808473ffffffffffffffffffffffffffffffffffffffff1673ffffffffffffffffffffffffffffffffffffffff1681526020018373ffffffffffffffffffffffffffffffffffffffff1673ffffffffffffffffffffffffffffffffffffffff16815260200180602001828103825283818151815260200191508051906020019080838360005b838110156129175780820151818401526020810190506128fc565b50505050905090810190601f1680156129445780820380516001836020036101000a031916815260200191505b50945050505050600060405180830381600087803b15801561296557600080fd5b505af1158015612979573d6000803e3d6000fd5b505050506129878683612ac2565b8173ffffffffffffffffffffffffffffffffffffffff167f1eb35cb4b5bbb23d152f3b4016a5a46c37a07ae930ed0956aba951e231142438876040518082815260200191505060405180910390a2612a72565b8173ffffffffffffffffffffffffffffffffffffffff16633659cfe6866040518263ffffffff1660e01b8152600401808273ffffffffffffffffffffffffffffffffffffffff1673ffffffffffffffffffffffffffffffffffffffff168152602001915050600060405180830381600087803b158015612a5957600080fd5b505af1158015612a6d573d6000803e3d6000fd5b505050505b612a7b86612a86565b935050505092915050565b600080600083815260200190815260200160002060009054906101000a900473ffffffffffffffffffffffffffffffffffffffff169050919050565b8060008084815260200190815260200160002060006101000a81548173ffffffffffffffffffffffffffffffffffffffff021916908373ffffffffffffffffffffffffffffffffffffffff1602179055505050565b610c6a80612b258339019056fe608060405234801561001057600080fd5b50610c4a806100206000396000f3fe6080604052600436106100595760003560e01c80633659cfe6146100725780634f1ef286146100c35780635c60da1b1461015c5780638f283970146101b3578063cf7a1d7714610204578063f851a440146102ff57610068565b3661006857610066610356565b005b610070610356565b005b34801561007e57600080fd5b506100c16004803603602081101561009557600080fd5b81019080803573ffffffffffffffffffffffffffffffffffffffff169060200190929190505050610368565b005b61015a600480360360408110156100d957600080fd5b81019080803573ffffffffffffffffffffffffffffffffffffffff1690602001909291908035906020019064010000000081111561011657600080fd5b82018360208201111561012857600080fd5b8035906020019184600183028401116401000000008311171561014a57600080fd5b90919293919293905050506103bd565b005b34801561016857600080fd5b506101716104df565b604051808273ffffffffffffffffffffffffffffffffffffffff1673ffffffffffffffffffffffffffffffffffffffff16815260200191505060405180910390f35b3480156101bf57600080fd5b50610202600480360360208110156101d657600080fd5b81019080803573ffffffffffffffffffffffffffffffffffffffff169060200190929190505050610537565b005b6102fd6004803603606081101561021a57600080fd5b81019080803573ffffffffffffffffffffffffffffffffffffffff169060200190929190803573ffffffffffffffffffffffffffffffffffffffff1690602001909291908035906020019064010000000081111561027757600080fd5b82018360208201111561028957600080fd5b803590602001918460018302840111640100000000831117156102ab57600080fd5b91908080601f016020809104026020016040519081016040528093929190818152602001838380828437600081840152601f19601f8201169050808301925050505050505091929192905050506106b0565b005b34801561030b57600080fd5b506103146108f2565b604051808273ffffffffffffffffffffffffffffffffffffffff1673ffffffffffffffffffffffffffffffffffffffff16815260200191505060405180910390f35b61036661036161094a565b61097b565b565b6103706109a1565b73ffffffffffffffffffffffffffffffffffffffff163373ffffffffffffffffffffffffffffffffffffffff1614156103b1576103ac816109d2565b6103ba565b6103b9610356565b5b50565b6103c56109a1565b73ffffffffffffffffffffffffffffffffffffffff163373ffffffffffffffffffffffffffffffffffffffff1614156104d157610401836109d2565b60008373ffffffffffffffffffffffffffffffffffffffff168383604051808383808284378083019250505092505050600060405180830381855af49150503d806000811461046c576040519150601f19603f3d011682016040523d82523d6000602084013e610471565b606091505b50509050806104cb576040517f08c379a0000000000000000000000000000000000000000000000000000000008152600401808060200182810382526039815260200180610b5f6039913960400191505060405180910390fd5b506104da565b6104d9610356565b5b505050565b60006104e96109a1565b73ffffffffffffffffffffffffffffffffffffffff163373ffffffffffffffffffffffffffffffffffffffff16141561052b5761052461094a565b9050610534565b610533610356565b5b90565b61053f6109a1565b73ffffffffffffffffffffffffffffffffffffffff163373ffffffffffffffffffffffffffffffffffffffff1614156106a457600073ffffffffffffffffffffffffffffffffffffffff168173ffffffffffffffffffffffffffffffffffffffff1614156105f8576040517f08c379a0000000000000000000000000000000000000000000000000000000008152600401808060200182810382526036815260200180610b296036913960400191505060405180910390fd5b7f7e644d79422f17c01e4894b5f4f588d331ebfa28653d42ae832dc59e38c9798f6106216109a1565b82604051808373ffffffffffffffffffffffffffffffffffffffff1673ffffffffffffffffffffffffffffffffffffffff1681526020018273ffffffffffffffffffffffffffffffffffffffff1673ffffffffffffffffffffffffffffffffffffffff1681526020019250505060405180910390a161069f81610a21565b6106ad565b6106ac610356565b5b50565b600073ffffffffffffffffffffffffffffffffffffffff166106d061094a565b73ffffffffffffffffffffffffffffffffffffffff1614610759576040517f08c379a000000000000000000000000000000000000000000000000000000000815260040180806020018281038252601f8152602001807f5f696d706c656d656e746174696f6e2073686f756c64206e6f7420626520300081525060200191505060405180910390fd5b600160405180807f656970313936372e70726f78792e696d706c656d656e746174696f6e00000000815250601c019050604051809103902060001c0360001b7f360894a13ba1a3210667c828492db98dca3e2076cc3735a920a3ca505d382bbc60001b146107c357fe5b6107cc83610a50565b6107d582610a21565b6000815111156108ed5760008373ffffffffffffffffffffffffffffffffffffffff16826040518082805190602001908083835b6020831061082c5780518252602082019150602081019050602083039250610809565b6001836020036101000a038019825116818451168082178552505050505050905001915050600060405180830381855af49150503d806000811461088c576040519150601f19603f3d011682016040523d82523d6000602084013e610891565b606091505b50509050806108eb576040517f08c379a0000000000000000000000000000000000000000000000000000000008152600401808060200182810382526042815260200180610bd36042913960600191505060405180910390fd5b505b505050565b60006108fc6109a1565b73ffffffffffffffffffffffffffffffffffffffff163373ffffffffffffffffffffffffffffffffffffffff16141561093e576109376109a1565b9050610947565b610946610356565b5b90565b6000807f360894a13ba1a3210667c828492db98dca3e2076cc3735a920a3ca505d382bbc60001b9050805491505090565b3660008037600080366000845af43d6000803e806000811461099c573d6000f35b3d6000fd5b6000807fb53127684a568b3173ae13b9f8a6016e243e63b6e8ee1178d6a717850b5d610360001b9050805491505090565b6109db81610a50565b8073ffffffffffffffffffffffffffffffffffffffff167fbc7cd75a20ee27fd9adebab32041f755214dbc6bffa90cc0225b39da2e5c2d3b60405160405180910390a250565b60007fb53127684a568b3173ae13b9f8a6016e243e63b6e8ee1178d6a717850b5d610360001b90508181555050565b610a5981610add565b610aae576040517f08c379a000000000000000000000000000000000000000000000000000000000815260040180806020018281038252603b815260200180610b98603b913960400191505060405180910390fd5b60007f360894a13ba1a3210667c828492db98dca3e2076cc3735a920a3ca505d382bbc60001b90508181555050565b60008060007fc5d2460186f7233c927e7db2dcc703c0e500b653ca82273b7bfad8045d85a47060001b9050833f9150808214158015610b1f57506000801b8214155b9250505091905056fe43616e6e6f74206368616e6765207468652061646d696e206f6620612070726f787920746f20746865207a65726f20616464726573734261736541646d696e557067726164656162696c69747950726f78793a2064656c656761746563616c6c2073686f756c64207375636365656443616e6e6f742073657420612070726f787920696d706c656d656e746174696f6e20746f2061206e6f6e2d636f6e74726163742061646472657373496e697469616c697a61626c6541646d696e557067726164656162696c69747950726f78793a2064656c656761746563616c6c2073686f756c642073756363656564a2646970667358221220a5d7da629a131e0a7c582cbd0ef77d496b1068c5d1a677537bf6b13ec328ad4964736f6c6343000600003373686f756c6420686176652065786163746c79203820696d706c656d656e746174696f6e20616464726573736573a26469706673582212206153065b8589cc64ae9879d31db6ec928caadf7c6c376c81f6710c8be1bc666264736f6c63430006000033",
  "source": "pragma solidity ^0.6.0;\n\nimport \"./libraries/openzeppelin-upgradeability/InitializableAdminUpgradeabilityProxy.sol\";\nimport \"./interfaces/DistributorInterface.sol\";\nimport \"./interfaces/InterestRateStrategyInterface.sol\";\nimport \"./interfaces/MarketControllerInterface.sol\";\nimport \"./interfaces/PriceOracleInterface.sol\";\nimport \"./HDS.sol\";\nimport \"./DOL.sol\";\nimport \"./Governance.sol\";\nimport \"./ProtocolReporter.sol\";\nimport \"./Timelock.sol\";\nimport \"./HEther.sol\";\nimport \"./HErc20.sol\";\n\ncontract Orchestrator {\n\tmapping(bytes32 => address) private addresses;\n\n\tbytes32 private constant ADDR_HDS = \"ADDR_HDS\";\n\tbytes32 private constant ADDR_DOL = \"ADDR_DOL\";\n\tbytes32 private constant ADDR_ORACLE = \"ADDR_ORACLE\";\n\tbytes32 private constant ADDR_INTEREST_RATE_STRATEGY = \"ADDR_INTEREST_RATE_STRATEGY\";\n\tbytes32 private constant ADDR_MARKET_CONTROLLER = \"ADDR_MARKET_CONTROLLER\";\n\tbytes32 private constant ADDR_DISTRIBUTOR = \"ADDR_DISTRIBUTOR\";\n\tbytes32 private constant ADDR_TIMELOCK = \"ADDR_TIMELOCK\";\n\tbytes32 private constant ADDR_GOVERN = \"ADDR_GOVERN\";\n\tbytes32 private constant ADDR_REPORTER = \"ADDR_REPORTER\";\n\n\tHDS public hds;\n\tDOL public dol;\n\tDistributorInterface public distributor;\n\tPriceOracleInterface public oracle;\n\tInterestRateStrategyInterface public interestRateStrategy;\n\tMarketControllerInterface public controller;\n\tTimelock public timelock;\n\tGovernance public govern;\n\tProtocolReporter public reporter;\n\n\taddress payable public admin;\n\n\tevent ProxyCreated(bytes32 id, address indexed newAddress);\n\n\tfunction initialize(\n\t\taddress[] calldata impls,\n\t\taddress _hds,\n\t\taddress payable _hEther,\n\t\taddress _hDol\n\t) external {\n\t\trequire(impls.length == 8, \"should have exactly 8 implementation addresses\");\n\t\tadmin = msg.sender;\n\n\t\taddress _dol = impls[0];\n\t\toracle = PriceOracleInterface(updateImplInternal(ADDR_ORACLE, impls[1]));\n\t\tinterestRateStrategy = InterestRateStrategyInterface(updateImplInternal(ADDR_INTEREST_RATE_STRATEGY, impls[2]));\n\t\tcontroller = MarketControllerInterface(updateImplInternal(ADDR_MARKET_CONTROLLER, impls[3]));\n\t\tdistributor = DistributorInterface(updateImplInternal(ADDR_DISTRIBUTOR, impls[4]));\n\t\ttimelock = Timelock(updateImplInternal(ADDR_TIMELOCK, impls[5]));\n\t\tgovern = Governance(updateImplInternal(ADDR_GOVERN, impls[6]));\n\t\treporter = ProtocolReporter(updateImplInternal(ADDR_REPORTER, impls[7]));\n\n\t\thds = HDS(_hds);\n\t\tsetAddress(ADDR_HDS, _hds);\n\n\t\tdol = DOL(_dol);\n\t\tsetAddress(ADDR_DOL, _dol);\n\n\t\tdistributor.initialize(admin, _hds, address(oracle), address(controller));\n\t\tcontroller.initialize(admin, address(this), address(distributor));\n\t\tdol.initialize(address(controller));\n\t\t// hds should be deployed separated and will be initialized by the administrator\n\t\t// hds.initialize(address(distributor));\n\t\ttimelock.initialize(admin);\n\t\tgovern.initialize(admin, address(timelock), address(hds));\n\n\t\tHEther hEther = HEther(_hEther);\n\t\thEther.initialize(admin, controller, interestRateStrategy, distributor, \"Hades wrapped ETH\", \"hETH\");\n\n\t\tHErc20 hDol = HErc20(_hDol);\n\t\thDol.initialize(\n\t\t\tadmin,\n\t\t\t_dol,\n\t\t\tcontroller,\n\t\t\tinterestRateStrategy,\n\t\t\tdistributor,\n\t\t\t\"Hades wrapped DOL\",\n\t\t\t\"hDOL\",\n\t\t\t\"USD\"\n\t\t);\n\n\t\tcontroller._supportMarket(_hEther);\n\t\tcontroller._supportMarket(_hDol);\n\t}\n\n\tfunction addToken(\n\t\taddress hTokenAddr,\n\t\taddress underlyingAddr,\n\t\tstring calldata name,\n\t\tstring calldata symbol,\n\t\tstring calldata anchor\n\t) external {\n\t\tHErc20 hToken = HErc20(hTokenAddr);\n\t\thToken.initialize(admin, underlyingAddr, controller, interestRateStrategy, distributor, name, symbol, anchor);\n\t\tcontroller._supportMarket(hTokenAddr);\n\t}\n\n\tfunction getHDS() external view returns (address) {\n\t\treturn getAddress(ADDR_HDS);\n\t}\n\n\tfunction getDOL() external view returns (address) {\n\t\treturn getAddress(ADDR_DOL);\n\t}\n\n\tfunction getOracle() external view returns (address) {\n\t\treturn getAddress(ADDR_ORACLE);\n\t}\n\n\tfunction setOracleImpl(address _oracle) external returns (address) {\n\t\taddress proxy = updateImplInternal(ADDR_ORACLE, _oracle);\n\t\treturn proxy;\n\t}\n\n\tfunction getInterestRateStrategy() external view returns (address) {\n\t\treturn getAddress(ADDR_INTEREST_RATE_STRATEGY);\n\t}\n\n\tfunction setInterestRateStrategyImpl(address _interestRateStrategy) external returns (address) {\n\t\taddress proxy = updateImplInternal(ADDR_INTEREST_RATE_STRATEGY, _interestRateStrategy);\n\t\treturn proxy;\n\t}\n\n\tfunction getMarketController() external view returns (address) {\n\t\treturn getAddress(ADDR_MARKET_CONTROLLER);\n\t}\n\n\tfunction setMarketControllerImpl(address _controller) external returns (address) {\n\t\taddress proxy = updateImplInternal(ADDR_MARKET_CONTROLLER, _controller);\n\t\treturn proxy;\n\t}\n\n\tfunction getHDistributor() external view returns (address) {\n\t\treturn getAddress(ADDR_DISTRIBUTOR);\n\t}\n\n\tfunction setDistributorImpl(address _distributor) external returns (address) {\n\t\taddress proxy = updateImplInternal(ADDR_DISTRIBUTOR, _distributor);\n\t\treturn proxy;\n\t}\n\n\tfunction getGovern() external view returns (address) {\n\t\treturn getAddress(ADDR_GOVERN);\n\t}\n\n\tfunction setGovernImpl(address _govern) external returns (address) {\n\t\taddress proxy = updateImplInternal(ADDR_GOVERN, _govern);\n\t\treturn proxy;\n\t}\n\n\tfunction getReporter() external view returns (address) {\n\t\treturn getAddress(ADDR_REPORTER);\n\t}\n\n\tfunction setReporter(address _reporter) external returns (address) {\n\t\taddress proxy = updateImplInternal(ADDR_REPORTER, _reporter);\n\t\treturn proxy;\n\t}\n\n\tfunction getTimelock() external view returns (address) {\n\t\treturn getAddress(ADDR_TIMELOCK);\n\t}\n\n\tfunction setTimelock(address _timelock) external returns (address) {\n\t\taddress proxy = updateImplInternal(ADDR_TIMELOCK, _timelock);\n\t\treturn proxy;\n\t}\n\n\tfunction getAddress(bytes32 _key) internal view returns (address) {\n\t\treturn addresses[_key];\n\t}\n\n\tfunction setAddress(bytes32 _key, address _value) internal {\n\t\taddresses[_key] = _value;\n\t}\n\n\t/**\n\t * @dev internal function to update the implementation of a specific component of the protocol\n\t * @param _id the id of the contract to be updated\n\t * @param _newAddress the address of the new implementation\n\t **/\n\tfunction updateImplInternal(bytes32 _id, address _newAddress) internal returns (address payable) {\n\t\taddress payable proxyAddress = address(uint160(getAddress(_id)));\n\n\t\tInitializableAdminUpgradeabilityProxy proxy = InitializableAdminUpgradeabilityProxy(proxyAddress);\n\t\t// bytes memory params = abi.encodeWithSignature(\"initialize(address)\", address(this));\n\t\tbytes memory params = new bytes(0);\n\n\t\tif (proxyAddress == address(0)) {\n\t\t\tproxy = new InitializableAdminUpgradeabilityProxy();\n\t\t\tproxy.initialize(_newAddress, admin, params);\n\t\t\tsetAddress(_id, address(proxy));\n\t\t\temit ProxyCreated(_id, address(proxy));\n\t\t} else {\n\t\t\t// proxy.upgradeToAndCall(_newAddress, params);\n\t\t\tproxy.upgradeTo(_newAddress);\n\t\t}\n\t\treturn address(uint160(getAddress(_id)));\n\t}\n}\n",
  "sourcePath": "/hades/evm-contracts/src/Orchestrator.sol",
  "compiler": {
    "name": "solc",
    "version": "0.6.0+commit.26b70077.Emscripten.clang"
  },
  "schemaVersion": "3.2.4",
  "updatedAt": "2020-10-27T12:03:43.048Z",
  "networkType": "ethereum",
  "devdoc": {
    "methods": {}
  },
  "userdoc": {
    "methods": {}
  }
}