{
  "contractName": "ProtocolReporter",
  "abi": [
    {
      "inputs": [
        {
          "internalType": "contract HToken",
          "name": "hToken",
          "type": "address"
        }
      ],
      "name": "hTokenMetadata",
      "outputs": [
        {
          "components": [
            {
              "internalType": "address",
              "name": "hToken",
              "type": "address"
            },
            {
              "internalType": "uint256",
              "name": "exchangeRateCurrent",
              "type": "uint256"
            },
            {
              "internalType": "uint256",
              "name": "supplyRatePerBlock",
              "type": "uint256"
            },
            {
              "internalType": "uint256",
              "name": "borrowRatePerBlock",
              "type": "uint256"
            },
            {
              "internalType": "uint256",
              "name": "reserveFactorMantissa",
              "type": "uint256"
            },
            {
              "internalType": "uint256",
              "name": "totalBorrows",
              "type": "uint256"
            },
            {
              "internalType": "uint256",
              "name": "totalReserves",
              "type": "uint256"
            },
            {
              "internalType": "uint256",
              "name": "totalSupply",
              "type": "uint256"
            },
            {
              "internalType": "uint256",
              "name": "totalCash",
              "type": "uint256"
            },
            {
              "internalType": "bool",
              "name": "isListed",
              "type": "bool"
            },
            {
              "internalType": "uint256",
              "name": "collateralFactorMantissa",
              "type": "uint256"
            },
            {
              "internalType": "address",
              "name": "underlyingAssetAddress",
              "type": "address"
            },
            {
              "internalType": "uint256",
              "name": "hTokenDecimals",
              "type": "uint256"
            },
            {
              "internalType": "uint256",
              "name": "underlyingDecimals",
              "type": "uint256"
            }
          ],
          "internalType": "struct ProtocolReporter.HTokenMetadata",
          "name": "",
          "type": "tuple"
        }
      ],
      "stateMutability": "view",
      "type": "function"
    },
    {
      "inputs": [
        {
          "internalType": "contract HToken[]",
          "name": "hTokens",
          "type": "address[]"
        }
      ],
      "name": "hTokenMetadataAll",
      "outputs": [
        {
          "components": [
            {
              "internalType": "address",
              "name": "hToken",
              "type": "address"
            },
            {
              "internalType": "uint256",
              "name": "exchangeRateCurrent",
              "type": "uint256"
            },
            {
              "internalType": "uint256",
              "name": "supplyRatePerBlock",
              "type": "uint256"
            },
            {
              "internalType": "uint256",
              "name": "borrowRatePerBlock",
              "type": "uint256"
            },
            {
              "internalType": "uint256",
              "name": "reserveFactorMantissa",
              "type": "uint256"
            },
            {
              "internalType": "uint256",
              "name": "totalBorrows",
              "type": "uint256"
            },
            {
              "internalType": "uint256",
              "name": "totalReserves",
              "type": "uint256"
            },
            {
              "internalType": "uint256",
              "name": "totalSupply",
              "type": "uint256"
            },
            {
              "internalType": "uint256",
              "name": "totalCash",
              "type": "uint256"
            },
            {
              "internalType": "bool",
              "name": "isListed",
              "type": "bool"
            },
            {
              "internalType": "uint256",
              "name": "collateralFactorMantissa",
              "type": "uint256"
            },
            {
              "internalType": "address",
              "name": "underlyingAssetAddress",
              "type": "address"
            },
            {
              "internalType": "uint256",
              "name": "hTokenDecimals",
              "type": "uint256"
            },
            {
              "internalType": "uint256",
              "name": "underlyingDecimals",
              "type": "uint256"
            }
          ],
          "internalType": "struct ProtocolReporter.HTokenMetadata[]",
          "name": "",
          "type": "tuple[]"
        }
      ],
      "stateMutability": "view",
      "type": "function"
    },
    {
      "inputs": [
        {
          "internalType": "contract HToken",
          "name": "hToken",
          "type": "address"
        },
        {
          "internalType": "address payable",
          "name": "account",
          "type": "address"
        }
      ],
      "name": "hTokenBalances",
      "outputs": [
        {
          "components": [
            {
              "internalType": "address",
              "name": "hToken",
              "type": "address"
            },
            {
              "internalType": "uint256",
              "name": "balanceOf",
              "type": "uint256"
            },
            {
              "internalType": "uint256",
              "name": "borrowBalanceCurrent",
              "type": "uint256"
            },
            {
              "internalType": "uint256",
              "name": "balanceOfUnderlying",
              "type": "uint256"
            },
            {
              "internalType": "uint256",
              "name": "tokenBalance",
              "type": "uint256"
            },
            {
              "internalType": "uint256",
              "name": "tokenAllowance",
              "type": "uint256"
            }
          ],
          "internalType": "struct ProtocolReporter.HTokenBalances",
          "name": "",
          "type": "tuple"
        }
      ],
      "stateMutability": "nonpayable",
      "type": "function"
    },
    {
      "inputs": [
        {
          "internalType": "contract HToken[]",
          "name": "hTokens",
          "type": "address[]"
        },
        {
          "internalType": "address payable",
          "name": "account",
          "type": "address"
        }
      ],
      "name": "hTokenBalancesAll",
      "outputs": [
        {
          "components": [
            {
              "internalType": "address",
              "name": "hToken",
              "type": "address"
            },
            {
              "internalType": "uint256",
              "name": "balanceOf",
              "type": "uint256"
            },
            {
              "internalType": "uint256",
              "name": "borrowBalanceCurrent",
              "type": "uint256"
            },
            {
              "internalType": "uint256",
              "name": "balanceOfUnderlying",
              "type": "uint256"
            },
            {
              "internalType": "uint256",
              "name": "tokenBalance",
              "type": "uint256"
            },
            {
              "internalType": "uint256",
              "name": "tokenAllowance",
              "type": "uint256"
            }
          ],
          "internalType": "struct ProtocolReporter.HTokenBalances[]",
          "name": "",
          "type": "tuple[]"
        }
      ],
      "stateMutability": "nonpayable",
      "type": "function"
    },
    {
      "inputs": [
        {
          "internalType": "contract HToken",
          "name": "hToken",
          "type": "address"
        }
      ],
      "name": "hTokenUnderlyingPrice",
      "outputs": [
        {
          "components": [
            {
              "internalType": "address",
              "name": "hToken",
              "type": "address"
            },
            {
              "internalType": "uint256",
              "name": "underlyingPrice",
              "type": "uint256"
            }
          ],
          "internalType": "struct ProtocolReporter.HTokenUnderlyingPrice",
          "name": "",
          "type": "tuple"
        }
      ],
      "stateMutability": "view",
      "type": "function"
    },
    {
      "inputs": [
        {
          "internalType": "contract HToken[]",
          "name": "hTokens",
          "type": "address[]"
        }
      ],
      "name": "hTokenUnderlyingPriceAll",
      "outputs": [
        {
          "components": [
            {
              "internalType": "address",
              "name": "hToken",
              "type": "address"
            },
            {
              "internalType": "uint256",
              "name": "underlyingPrice",
              "type": "uint256"
            }
          ],
          "internalType": "struct ProtocolReporter.HTokenUnderlyingPrice[]",
          "name": "",
          "type": "tuple[]"
        }
      ],
      "stateMutability": "view",
      "type": "function"
    },
    {
      "inputs": [
        {
          "internalType": "contract MarketControllerLensInterface",
          "name": "controller",
          "type": "address"
        },
        {
          "internalType": "address",
          "name": "account",
          "type": "address"
        }
      ],
      "name": "getAccountLimits",
      "outputs": [
        {
          "components": [
            {
              "internalType": "contract HToken[]",
              "name": "markets",
              "type": "address[]"
            },
            {
              "internalType": "uint256",
              "name": "liquidity",
              "type": "uint256"
            },
            {
              "internalType": "uint256",
              "name": "shortfall",
              "type": "uint256"
            }
          ],
          "internalType": "struct ProtocolReporter.AccountLimits",
          "name": "",
          "type": "tuple"
        }
      ],
      "stateMutability": "view",
      "type": "function"
    },
    {
      "inputs": [
        {
          "internalType": "contract Governance",
          "name": "governor",
          "type": "address"
        },
        {
          "internalType": "address",
          "name": "voter",
          "type": "address"
        },
        {
          "internalType": "uint256[]",
          "name": "proposalIds",
          "type": "uint256[]"
        }
      ],
      "name": "getGovReceipts",
      "outputs": [
        {
          "components": [
            {
              "internalType": "uint256",
              "name": "proposalId",
              "type": "uint256"
            },
            {
              "internalType": "bool",
              "name": "hasVoted",
              "type": "bool"
            },
            {
              "internalType": "bool",
              "name": "support",
              "type": "bool"
            },
            {
              "internalType": "uint96",
              "name": "votes",
              "type": "uint96"
            }
          ],
          "internalType": "struct ProtocolReporter.GovReceipt[]",
          "name": "",
          "type": "tuple[]"
        }
      ],
      "stateMutability": "view",
      "type": "function"
    },
    {
      "inputs": [
        {
          "internalType": "contract Governance",
          "name": "governor",
          "type": "address"
        },
        {
          "internalType": "uint256[]",
          "name": "proposalIds",
          "type": "uint256[]"
        }
      ],
      "name": "getGovProposals",
      "outputs": [
        {
          "components": [
            {
              "internalType": "uint256",
              "name": "proposalId",
              "type": "uint256"
            },
            {
              "internalType": "address",
              "name": "proposer",
              "type": "address"
            },
            {
              "internalType": "uint256",
              "name": "eta",
              "type": "uint256"
            },
            {
              "internalType": "address[]",
              "name": "targets",
              "type": "address[]"
            },
            {
              "internalType": "uint256[]",
              "name": "values",
              "type": "uint256[]"
            },
            {
              "internalType": "string[]",
              "name": "signatures",
              "type": "string[]"
            },
            {
              "internalType": "bytes[]",
              "name": "calldatas",
              "type": "bytes[]"
            },
            {
              "internalType": "uint256",
              "name": "startBlock",
              "type": "uint256"
            },
            {
              "internalType": "uint256",
              "name": "endBlock",
              "type": "uint256"
            },
            {
              "internalType": "uint256",
              "name": "forVotes",
              "type": "uint256"
            },
            {
              "internalType": "uint256",
              "name": "againstVotes",
              "type": "uint256"
            },
            {
              "internalType": "bool",
              "name": "canceled",
              "type": "bool"
            },
            {
              "internalType": "bool",
              "name": "executed",
              "type": "bool"
            }
          ],
          "internalType": "struct ProtocolReporter.GovProposal[]",
          "name": "",
          "type": "tuple[]"
        }
      ],
      "stateMutability": "view",
      "type": "function"
    },
    {
      "inputs": [
        {
          "internalType": "contract HDS",
          "name": "hds",
          "type": "address"
        },
        {
          "internalType": "address",
          "name": "account",
          "type": "address"
        }
      ],
      "name": "getCompBalanceMetadata",
      "outputs": [
        {
          "components": [
            {
              "internalType": "uint256",
              "name": "balance",
              "type": "uint256"
            },
            {
              "internalType": "uint256",
              "name": "votes",
              "type": "uint256"
            },
            {
              "internalType": "address",
              "name": "delegate",
              "type": "address"
            }
          ],
          "internalType": "struct ProtocolReporter.CompBalanceMetadata",
          "name": "",
          "type": "tuple"
        }
      ],
      "stateMutability": "view",
      "type": "function"
    },
    {
      "inputs": [
        {
          "internalType": "contract HDS",
          "name": "hds",
          "type": "address"
        },
        {
          "internalType": "contract MarketControllerLensInterface",
          "name": "controller",
          "type": "address"
        },
        {
          "internalType": "address",
          "name": "account",
          "type": "address"
        }
      ],
      "name": "getCompBalanceMetadataExt",
      "outputs": [
        {
          "components": [
            {
              "internalType": "uint256",
              "name": "balance",
              "type": "uint256"
            },
            {
              "internalType": "uint256",
              "name": "votes",
              "type": "uint256"
            },
            {
              "internalType": "address",
              "name": "delegate",
              "type": "address"
            },
            {
              "internalType": "uint256",
              "name": "allocated",
              "type": "uint256"
            }
          ],
          "internalType": "struct ProtocolReporter.CompBalanceMetadataExt",
          "name": "",
          "type": "tuple"
        }
      ],
      "stateMutability": "nonpayable",
      "type": "function"
    },
    {
      "inputs": [
        {
          "internalType": "contract HDS",
          "name": "hds",
          "type": "address"
        },
        {
          "internalType": "address",
          "name": "account",
          "type": "address"
        },
        {
          "internalType": "uint32[]",
          "name": "blockNumbers",
          "type": "uint32[]"
        }
      ],
      "name": "getCompVotes",
      "outputs": [
        {
          "components": [
            {
              "internalType": "uint256",
              "name": "blockNumber",
              "type": "uint256"
            },
            {
              "internalType": "uint256",
              "name": "votes",
              "type": "uint256"
            }
          ],
          "internalType": "struct ProtocolReporter.CompVotes[]",
          "name": "",
          "type": "tuple[]"
        }
      ],
      "stateMutability": "view",
      "type": "function"
    }
  ],
  "bytecode": "0x608060405234801561001057600080fd5b506149f2806100206000396000f3fe608060405234801561001057600080fd5b50600436106100b45760003560e01c80637dd8f6d9116100715780637dd8f6d9146101d9578063855c5411146102095780639481b272146102395780639699486914610269578063995ed99f14610299578063eef0e403146102c9576100b4565b8063056803f8146100b95780630caa7a79146100e9578063168d9506146101195780631ea6374114610149578063416405d71461017957806359564219146101a9575b600080fd5b6100d360048036036100ce9190810190613034565b6102f9565b6040516100e09190614279565b60405180910390f35b61010360048036036100fe9190810190612da9565b6104c1565b6040516101109190614142565b60405180910390f35b610133600480360361012e9190810190612d64565b610573565b6040516101409190614164565b60405180910390f35b610163600480360361015e9190810190612fe5565b610623565b604051610170919061420c565b60405180910390f35b610193600480360361018e9190810190612f3d565b610a1a565b6040516101a09190614227565b60405180910390f35b6101c360048036036101be9190810190612f79565b610bf3565b6040516101d091906140dc565b60405180910390f35b6101f360048036036101ee91908101906130c2565b610d5d565b60405161020091906141ea565b60405180910390f35b610223600480360361021e9190810190613034565b610eef565b604051610230919061425d565b60405180910390f35b610253600480360361024e919081019061305d565b61176b565b6040516102609190614242565b60405180910390f35b610283600480360361027e9190810190612ee5565b611c10565b60405161029091906140fe565b60405180910390f35b6102b360048036036102ae9190810190612e7e565b611df1565b6040516102c09190614120565b60405180910390f35b6102e360048036036102de9190810190612d64565b611f72565b6040516102f09190614186565b60405180910390f35b61030161227d565b60008273ffffffffffffffffffffffffffffffffffffffff1663f77c47916040518163ffffffff1660e01b815260040160206040518083038186803b15801561034957600080fd5b505afa15801561035d573d6000803e3d6000fd5b505050506040513d601f19601f820116820180604052506103819190810190613099565b905060008173ffffffffffffffffffffffffffffffffffffffff16637dc0d1d06040518163ffffffff1660e01b815260040160206040518083038186803b1580156103cb57600080fd5b505afa1580156103df573d6000803e3d6000fd5b505050506040513d601f19601f8201168201806040525061040391908101906130fe565b905060405180604001604052808573ffffffffffffffffffffffffffffffffffffffff1681526020018273ffffffffffffffffffffffffffffffffffffffff1663fc57d4df876040518263ffffffff1660e01b81526004016104659190614054565b60206040518083038186803b15801561047d57600080fd5b505afa158015610491573d6000803e3d6000fd5b505050506040513d601f19601f820116820180604052506104b59190810190613191565b81525092505050919050565b6060600084849050905060608160405190808252806020026020018201604052801561050757816020015b6104f46122ad565b8152602001906001900390816104ec5790505b50905060008090505b828110156105665761054287878381811061052757fe5b905060200201602061053c9190810190613034565b8661176b565b82828151811061054e57fe5b60200260200101819052508080600101915050610510565b5080925050509392505050565b606060008383905090506060816040519080825280602002602001820160405280156105b957816020015b6105a66122f9565b81526020019060019003908161059e5790505b50905060008090505b82811015610617576105f38686838181106105d957fe5b90506020020160206105ee9190810190613034565b610eef565b8282815181106105ff57fe5b602002602001018190525080806001019150506105c2565b50809250505092915050565b61062b612396565b60008473ffffffffffffffffffffffffffffffffffffffff166370a08231846040518263ffffffff1660e01b81526004016106669190614054565b60206040518083038186803b15801561067e57600080fd5b505afa158015610692573d6000803e3d6000fd5b505050506040513d601f19601f820116820180604052506106b69190810190613191565b90508373ffffffffffffffffffffffffffffffffffffffff1663e9af0292846040518263ffffffff1660e01b81526004016106f19190614054565b600060405180830381600087803b15801561070b57600080fd5b505af115801561071f573d6000803e3d6000fd5b5050505060008573ffffffffffffffffffffffffffffffffffffffff166370a08231856040518263ffffffff1660e01b815260040161075e9190614054565b60206040518083038186803b15801561077657600080fd5b505afa15801561078a573d6000803e3d6000fd5b505050506040513d601f19601f820116820180604052506107ae9190810190613191565b905060008573ffffffffffffffffffffffffffffffffffffffff1663cc7ebdc4866040518263ffffffff1660e01b81526004016107eb9190614054565b60206040518083038186803b15801561080357600080fd5b505afa158015610817573d6000803e3d6000fd5b505050506040513d601f19601f8201168201806040525061083b9190810190613191565b9050600061087f82846040518060400160405280600e81526020017f73756d20636f6d7020746f74616c000000000000000000000000000000000000815250612022565b905060006108c382866040518060400160405280600d81526020017f73756220616c6c6f63617465640000000000000000000000000000000000000081525061207c565b905060405180608001604052808681526020018a73ffffffffffffffffffffffffffffffffffffffff1663b4b5ea578a6040518263ffffffff1660e01b815260040161090f9190614054565b60206040518083038186803b15801561092757600080fd5b505afa15801561093b573d6000803e3d6000fd5b505050506040513d601f19601f8201168201806040525061095f9190810190613191565b81526020018a73ffffffffffffffffffffffffffffffffffffffff1663587cde1e8a6040518263ffffffff1660e01b815260040161099d9190614054565b60206040518083038186803b1580156109b557600080fd5b505afa1580156109c9573d6000803e3d6000fd5b505050506040513d601f19601f820116820180604052506109ed9190810190612c78565b73ffffffffffffffffffffffffffffffffffffffff16815260200182815250955050505050509392505050565b610a226123d4565b60405180606001604052808473ffffffffffffffffffffffffffffffffffffffff166370a08231856040518263ffffffff1660e01b8152600401610a669190614054565b60206040518083038186803b158015610a7e57600080fd5b505afa158015610a92573d6000803e3d6000fd5b505050506040513d601f19601f82011682018060405250610ab69190810190613191565b81526020018473ffffffffffffffffffffffffffffffffffffffff1663b4b5ea57856040518263ffffffff1660e01b8152600401610af49190614054565b60206040518083038186803b158015610b0c57600080fd5b505afa158015610b20573d6000803e3d6000fd5b505050506040513d601f19601f82011682018060405250610b449190810190613191565b81526020018473ffffffffffffffffffffffffffffffffffffffff1663587cde1e856040518263ffffffff1660e01b8152600401610b829190614054565b60206040518083038186803b158015610b9a57600080fd5b505afa158015610bae573d6000803e3d6000fd5b505050506040513d601f19601f82011682018060405250610bd29190810190612c78565b73ffffffffffffffffffffffffffffffffffffffff16815250905092915050565b60608083839050604051908082528060200260200182016040528015610c3357816020015b610c2061240b565b815260200190600190039081610c185790505b50905060008090505b84849050811015610d50576040518060400160405280868684818110610c5e57fe5b9050602002016020610c7391908101906132cf565b63ffffffff1681526020018873ffffffffffffffffffffffffffffffffffffffff1663782d6fe189898987818110610ca757fe5b9050602002016020610cbc91908101906132cf565b6040518363ffffffff1660e01b8152600401610cd99291906140b3565b60206040518083038186803b158015610cf157600080fd5b505afa158015610d05573d6000803e3d6000fd5b505050506040513d601f19601f82011682018060405250610d299190810190613191565b815250828281518110610d3857fe5b60200260200101819052508080600101915050610c3c565b5080915050949350505050565b610d65612425565b60008060008573ffffffffffffffffffffffffffffffffffffffff16635ec88c79866040518263ffffffff1660e01b8152600401610da39190614054565b60606040518083038186803b158015610dbb57600080fd5b505afa158015610dcf573d6000803e3d6000fd5b505050506040513d601f19601f82011682018060405250610df39190810190613280565b92509250925060008314610e3c576040517f08c379a0000000000000000000000000000000000000000000000000000000008152600401610e33906141ca565b60405180910390fd5b60405180606001604052808773ffffffffffffffffffffffffffffffffffffffff1663abfceffc886040518263ffffffff1660e01b8152600401610e809190614054565b60006040518083038186803b158015610e9857600080fd5b505afa158015610eac573d6000803e3d6000fd5b505050506040513d6000823e3d601f19601f82011682018060405250610ed59190810190612e01565b815260200183815260200182815250935050505092915050565b610ef7612446565b60008273ffffffffffffffffffffffffffffffffffffffff1663bd6d894d6040518163ffffffff1660e01b815260040160206040518083038186803b158015610f3f57600080fd5b505afa158015610f53573d6000803e3d6000fd5b505050506040513d601f19601f82011682018060405250610f779190810190613191565b905060008373ffffffffffffffffffffffffffffffffffffffff1663f77c47916040518163ffffffff1660e01b815260040160206040518083038186803b158015610fc157600080fd5b505afa158015610fd5573d6000803e3d6000fd5b505050506040513d601f19601f82011682018060405250610ff99190810190613099565b90506000808273ffffffffffffffffffffffffffffffffffffffff16638e8f294b876040518263ffffffff1660e01b81526004016110379190614054565b604080518083038186803b15801561104e57600080fd5b505afa158015611062573d6000803e3d6000fd5b505050506040513d601f19601f820116820180604052506110869190810190612e42565b9150915060008061114e8873ffffffffffffffffffffffffffffffffffffffff166395d89b416040518163ffffffff1660e01b815260040160006040518083038186803b1580156110d657600080fd5b505afa1580156110ea573d6000803e3d6000fd5b505050506040513d6000823e3d601f19601f820116820180604052506111139190810190613127565b6040518060400160405280600481526020017f63455448000000000000000000000000000000000000000000000000000000008152506120d7565b156111605760009150601290506112e7565b60008890508073ffffffffffffffffffffffffffffffffffffffff16636f307dc36040518163ffffffff1660e01b815260040160206040518083038186803b1580156111ab57600080fd5b505afa1580156111bf573d6000803e3d6000fd5b505050506040513d601f19601f820116820180604052506111e39190810190612c78565b92508073ffffffffffffffffffffffffffffffffffffffff16636f307dc36040518163ffffffff1660e01b815260040160206040518083038186803b15801561122b57600080fd5b505afa15801561123f573d6000803e3d6000fd5b505050506040513d601f19601f820116820180604052506112639190810190612c78565b73ffffffffffffffffffffffffffffffffffffffff1663313ce5676040518163ffffffff1660e01b815260040160206040518083038186803b1580156112a857600080fd5b505afa1580156112bc573d6000803e3d6000fd5b505050506040513d601f19601f820116820180604052506112e091908101906132f8565b60ff169150505b604051806101c001604052808973ffffffffffffffffffffffffffffffffffffffff1681526020018781526020018973ffffffffffffffffffffffffffffffffffffffff1663ae9d70b06040518163ffffffff1660e01b815260040160206040518083038186803b15801561135b57600080fd5b505afa15801561136f573d6000803e3d6000fd5b505050506040513d601f19601f820116820180604052506113939190810190613191565b81526020018973ffffffffffffffffffffffffffffffffffffffff1663f8f9da286040518163ffffffff1660e01b815260040160206040518083038186803b1580156113de57600080fd5b505afa1580156113f2573d6000803e3d6000fd5b505050506040513d601f19601f820116820180604052506114169190810190613191565b81526020018973ffffffffffffffffffffffffffffffffffffffff1663173b99046040518163ffffffff1660e01b815260040160206040518083038186803b15801561146157600080fd5b505afa158015611475573d6000803e3d6000fd5b505050506040513d601f19601f820116820180604052506114999190810190613191565b81526020018973ffffffffffffffffffffffffffffffffffffffff166347bd37186040518163ffffffff1660e01b815260040160206040518083038186803b1580156114e457600080fd5b505afa1580156114f8573d6000803e3d6000fd5b505050506040513d601f19601f8201168201806040525061151c9190810190613191565b81526020018973ffffffffffffffffffffffffffffffffffffffff16638f840ddd6040518163ffffffff1660e01b815260040160206040518083038186803b15801561156757600080fd5b505afa15801561157b573d6000803e3d6000fd5b505050506040513d601f19601f8201168201806040525061159f9190810190613191565b81526020018973ffffffffffffffffffffffffffffffffffffffff166318160ddd6040518163ffffffff1660e01b815260040160206040518083038186803b1580156115ea57600080fd5b505afa1580156115fe573d6000803e3d6000fd5b505050506040513d601f19601f820116820180604052506116229190810190613191565b81526020018973ffffffffffffffffffffffffffffffffffffffff16633b1d21a26040518163ffffffff1660e01b815260040160206040518083038186803b15801561166d57600080fd5b505afa158015611681573d6000803e3d6000fd5b505050506040513d601f19601f820116820180604052506116a59190810190613191565b815260200185151581526020018481526020018373ffffffffffffffffffffffffffffffffffffffff1681526020018973ffffffffffffffffffffffffffffffffffffffff1663313ce5676040518163ffffffff1660e01b815260040160206040518083038186803b15801561171a57600080fd5b505afa15801561172e573d6000803e3d6000fd5b505050506040513d601f19601f8201168201806040525061175291908101906132f8565b60ff168152602001828152509650505050505050919050565b6117736124e3565b60008373ffffffffffffffffffffffffffffffffffffffff166370a08231846040518263ffffffff1660e01b81526004016117ae919061406f565b60206040518083038186803b1580156117c657600080fd5b505afa1580156117da573d6000803e3d6000fd5b505050506040513d601f19601f820116820180604052506117fe9190810190613191565b905060008473ffffffffffffffffffffffffffffffffffffffff166317bfdfbc856040518263ffffffff1660e01b815260040161183b919061406f565b60206040518083038186803b15801561185357600080fd5b505afa158015611867573d6000803e3d6000fd5b505050506040513d601f19601f8201168201806040525061188b9190810190613191565b905060008573ffffffffffffffffffffffffffffffffffffffff16633af9e669866040518263ffffffff1660e01b81526004016118c8919061406f565b602060405180830381600087803b1580156118e257600080fd5b505af11580156118f6573d6000803e3d6000fd5b505050506040513d601f19601f8201168201806040525061191a9190810190613191565b90506000806119e08873ffffffffffffffffffffffffffffffffffffffff166395d89b416040518163ffffffff1660e01b815260040160006040518083038186803b15801561196857600080fd5b505afa15801561197c573d6000803e3d6000fd5b505050506040513d6000823e3d601f19601f820116820180604052506119a59190810190613127565b6040518060400160405280600481526020017f63455448000000000000000000000000000000000000000000000000000000008152506120d7565b15611a1e578673ffffffffffffffffffffffffffffffffffffffff163191508673ffffffffffffffffffffffffffffffffffffffff16319050611bc0565b600088905060008173ffffffffffffffffffffffffffffffffffffffff16636f307dc36040518163ffffffff1660e01b815260040160206040518083038186803b158015611a6b57600080fd5b505afa158015611a7f573d6000803e3d6000fd5b505050506040513d601f19601f82011682018060405250611aa39190810190612c78565b90508073ffffffffffffffffffffffffffffffffffffffff166370a082318a6040518263ffffffff1660e01b8152600401611ade919061406f565b60206040518083038186803b158015611af657600080fd5b505afa158015611b0a573d6000803e3d6000fd5b505050506040513d601f19601f82011682018060405250611b2e9190810190613191565b93508073ffffffffffffffffffffffffffffffffffffffff1663dd62ed3e8a8c6040518363ffffffff1660e01b8152600401611b6b92919061408a565b60206040518083038186803b158015611b8357600080fd5b505afa158015611b97573d6000803e3d6000fd5b505050506040513d601f19601f82011682018060405250611bbb9190810190613191565b925050505b6040518060c001604052808973ffffffffffffffffffffffffffffffffffffffff168152602001868152602001858152602001848152602001838152602001828152509550505050505092915050565b60608083839050604051908082528060200260200182016040528015611c5057816020015b611c3d61252f565b815260200190600190039081611c355790505b50905060008090505b84849050811015611de5576060806060808973ffffffffffffffffffffffffffffffffffffffff1663328dd9828a8a88818110611c9257fe5b905060200201356040518263ffffffff1660e01b8152600401611cb59190614294565b60006040518083038186803b158015611ccd57600080fd5b505afa158015611ce1573d6000803e3d6000fd5b505050506040513d6000823e3d601f19601f82011682018060405250611d0a9190810190612ca1565b9350935093509350604051806101a0016040528060008152602001600073ffffffffffffffffffffffffffffffffffffffff168152602001600081526020018581526020018481526020018381526020018281526020016000815260200160008152602001600081526020016000815260200160001515815260200160001515815250868681518110611d9957fe5b6020026020010181905250611dd4868681518110611db357fe5b60200260200101518b8b8b89818110611dc857fe5b90506020020135612130565b505050508080600101915050611c59565b50809150509392505050565b6060600082519050606081604051908082528060200260200182016040528015611e3557816020015b611e226125b1565b815260200190600190039081611e1a5790505b50905060008090505b82811015611f6557611e4e6125eb565b8773ffffffffffffffffffffffffffffffffffffffff1663e23a9a52878481518110611e7657fe5b6020026020010151896040518363ffffffff1660e01b8152600401611e9c9291906142af565b60606040518083038186803b158015611eb457600080fd5b505afa158015611ec8573d6000803e3d6000fd5b505050506040513d601f19601f82011682018060405250611eec9190810190613168565b90506040518060800160405280878481518110611f0557fe5b6020026020010151815260200182600001511515815260200182602001511515815260200182604001516bffffffffffffffffffffffff16815250838381518110611f4c57fe5b6020026020010181905250508080600101915050611e3e565b5080925050509392505050565b60606000838390509050606081604051908082528060200260200182016040528015611fb857816020015b611fa561261e565b815260200190600190039081611f9d5790505b50905060008090505b8281101561201657611ff2868683818110611fd857fe5b9050602002016020611fed9190810190613034565b6102f9565b828281518110611ffe57fe5b60200260200101819052508080600101915050611fc1565b50809250505092915050565b6000808385019050848110158390612070576040517f08c379a000000000000000000000000000000000000000000000000000000000815260040161206791906141a8565b60405180910390fd5b50809150509392505050565b60008383111582906120c4576040517f08c379a00000000000000000000000000000000000000000000000000000000081526004016120bb91906141a8565b60405180910390fd5b5060008385039050809150509392505050565b6000816040516020016120ea919061403d565b6040516020818303038152906040528051906020012083604051602001612111919061403d565b6040516020818303038152906040528051906020012014905092915050565b6000806000806000806000808973ffffffffffffffffffffffffffffffffffffffff1663013cf08b8a6040518263ffffffff1660e01b81526004016121759190614294565b6101206040518083038186803b15801561218e57600080fd5b505afa1580156121a2573d6000803e3d6000fd5b505050506040513d601f19601f820116820180604052506121c691908101906131ba565b9850985098509850985098509850985050888b6000018181525050878b6020019073ffffffffffffffffffffffffffffffffffffffff16908173ffffffffffffffffffffffffffffffffffffffff1681525050868b6040018181525050858b60e0018181525050848b610100018181525050838b610120018181525050828b610140018181525050818b610160019015159081151581525050808b6101800190151590811515815250505050505050505050505050565b6040518060400160405280600073ffffffffffffffffffffffffffffffffffffffff168152602001600081525090565b6040518060c00160405280600073ffffffffffffffffffffffffffffffffffffffff16815260200160008152602001600081526020016000815260200160008152602001600081525090565b604051806101c00160405280600073ffffffffffffffffffffffffffffffffffffffff168152602001600081526020016000815260200160008152602001600081526020016000815260200160008152602001600081526020016000815260200160001515815260200160008152602001600073ffffffffffffffffffffffffffffffffffffffff16815260200160008152602001600081525090565b60405180608001604052806000815260200160008152602001600073ffffffffffffffffffffffffffffffffffffffff168152602001600081525090565b60405180606001604052806000815260200160008152602001600073ffffffffffffffffffffffffffffffffffffffff1681525090565b604051806040016040528060008152602001600081525090565b60405180606001604052806060815260200160008152602001600081525090565b604051806101c00160405280600073ffffffffffffffffffffffffffffffffffffffff168152602001600081526020016000815260200160008152602001600081526020016000815260200160008152602001600081526020016000815260200160001515815260200160008152602001600073ffffffffffffffffffffffffffffffffffffffff16815260200160008152602001600081525090565b6040518060c00160405280600073ffffffffffffffffffffffffffffffffffffffff16815260200160008152602001600081526020016000815260200160008152602001600081525090565b604051806101a0016040528060008152602001600073ffffffffffffffffffffffffffffffffffffffff1681526020016000815260200160608152602001606081526020016060815260200160608152602001600081526020016000815260200160008152602001600081526020016000151581526020016000151581525090565b60405180608001604052806000815260200160001515815260200160001515815260200160006bffffffffffffffffffffffff1681525090565b604051806060016040528060001515815260200160001515815260200160006bffffffffffffffffffffffff1681525090565b6040518060400160405280600073ffffffffffffffffffffffffffffffffffffffff168152602001600081525090565b60008135905061265d81614891565b92915050565b60008151905061267281614891565b92915050565b600081359050612687816148a8565b92915050565b600082601f83011261269e57600080fd5b81516126b16126ac82614305565b6142d8565b915081818352602084019350602081019050838560208402820111156126d657600080fd5b60005b8381101561270657816126ec8882612663565b8452602084019350602083019250506001810190506126d9565b5050505092915050565b600082601f83011261272157600080fd5b815161273461272f8261432d565b6142d8565b9150818183526020840193506020810190508360005b8381101561277a57815186016127608882612a74565b84526020840193506020830192505060018101905061274a565b5050505092915050565b60008083601f84011261279657600080fd5b8235905067ffffffffffffffff8111156127af57600080fd5b6020830191508360208202830111156127c757600080fd5b9250929050565b600082601f8301126127df57600080fd5b81516127f26127ed82614355565b6142d8565b9150818183526020840193506020810190508385602084028201111561281757600080fd5b60005b83811015612847578161282d8882612b07565b84526020840193506020830192505060018101905061281a565b5050505092915050565b600082601f83011261286257600080fd5b81516128756128708261437d565b6142d8565b9150818183526020840193506020810190508360005b838110156128bb57815186016128a18882612b5b565b84526020840193506020830192505060018101905061288b565b5050505092915050565b60008083601f8401126128d757600080fd5b8235905067ffffffffffffffff8111156128f057600080fd5b60208301915083602082028301111561290857600080fd5b9250929050565b600082601f83011261292057600080fd5b813561293361292e826143a5565b6142d8565b9150818183526020840193506020810190508385602084028201111561295857600080fd5b60005b83811015612988578161296e8882612c0f565b84526020840193506020830192505060018101905061295b565b5050505092915050565b600082601f8301126129a357600080fd5b81516129b66129b1826143a5565b6142d8565b915081818352602084019350602081019050838560208402820111156129db57600080fd5b60005b83811015612a0b57816129f18882612c24565b8452602084019350602083019250506001810190506129de565b5050505092915050565b60008083601f840112612a2757600080fd5b8235905067ffffffffffffffff811115612a4057600080fd5b602083019150836020820283011115612a5857600080fd5b9250929050565b600081519050612a6e816148bf565b92915050565b600082601f830112612a8557600080fd5b8151612a98612a93826143cd565b6142d8565b91508082526020830160208301858383011115612ab457600080fd5b612abf83828461484d565b50505092915050565b600081359050612ad7816148d6565b92915050565b600081359050612aec816148ed565b92915050565b600081359050612b0181614904565b92915050565b600081519050612b1681614904565b92915050565b600081519050612b2b8161491b565b92915050565b600081359050612b4081614932565b92915050565b600081519050612b5581614949565b92915050565b600082601f830112612b6c57600080fd5b8151612b7f612b7a826143f9565b6142d8565b91508082526020830160208301858383011115612b9b57600080fd5b612ba683828461484d565b50505092915050565b600060608284031215612bc157600080fd5b612bcb60606142d8565b90506000612bdb84828501612a5f565b6000830152506020612bef84828501612a5f565b6020830152506040612c0384828501612c63565b60408301525092915050565b600081359050612c1e81614960565b92915050565b600081519050612c3381614960565b92915050565b600081359050612c4881614977565b92915050565b600081519050612c5d8161498e565b92915050565b600081519050612c72816149a5565b92915050565b600060208284031215612c8a57600080fd5b6000612c9884828501612663565b91505092915050565b60008060008060808587031215612cb757600080fd5b600085015167ffffffffffffffff811115612cd157600080fd5b612cdd8782880161268d565b945050602085015167ffffffffffffffff811115612cfa57600080fd5b612d0687828801612992565b935050604085015167ffffffffffffffff811115612d2357600080fd5b612d2f87828801612851565b925050606085015167ffffffffffffffff811115612d4c57600080fd5b612d5887828801612710565b91505092959194509250565b60008060208385031215612d7757600080fd5b600083013567ffffffffffffffff811115612d9157600080fd5b612d9d85828601612784565b92509250509250929050565b600080600060408486031215612dbe57600080fd5b600084013567ffffffffffffffff811115612dd857600080fd5b612de486828701612784565b93509350506020612df786828701612678565b9150509250925092565b600060208284031215612e1357600080fd5b600082015167ffffffffffffffff811115612e2d57600080fd5b612e39848285016127ce565b91505092915050565b60008060408385031215612e5557600080fd5b6000612e6385828601612a5f565b9250506020612e7485828601612c24565b9150509250929050565b600080600060608486031215612e9357600080fd5b6000612ea186828701612ac8565b9350506020612eb28682870161264e565b925050604084013567ffffffffffffffff811115612ecf57600080fd5b612edb8682870161290f565b9150509250925092565b600080600060408486031215612efa57600080fd5b6000612f0886828701612ac8565b935050602084013567ffffffffffffffff811115612f2557600080fd5b612f31868287016128c5565b92509250509250925092565b60008060408385031215612f5057600080fd5b6000612f5e85828601612add565b9250506020612f6f8582860161264e565b9150509250929050565b60008060008060608587031215612f8f57600080fd5b6000612f9d87828801612add565b9450506020612fae8782880161264e565b935050604085013567ffffffffffffffff811115612fcb57600080fd5b612fd787828801612a15565b925092505092959194509250565b600080600060608486031215612ffa57600080fd5b600061300886828701612add565b935050602061301986828701612b31565b925050604061302a8682870161264e565b9150509250925092565b60006020828403121561304657600080fd5b600061305484828501612af2565b91505092915050565b6000806040838503121561307057600080fd5b600061307e85828601612af2565b925050602061308f85828601612678565b9150509250929050565b6000602082840312156130ab57600080fd5b60006130b984828501612b1c565b91505092915050565b600080604083850312156130d557600080fd5b60006130e385828601612b31565b92505060206130f48582860161264e565b9150509250929050565b60006020828403121561311057600080fd5b600061311e84828501612b46565b91505092915050565b60006020828403121561313957600080fd5b600082015167ffffffffffffffff81111561315357600080fd5b61315f84828501612b5b565b91505092915050565b60006060828403121561317a57600080fd5b600061318884828501612baf565b91505092915050565b6000602082840312156131a357600080fd5b60006131b184828501612c24565b91505092915050565b60008060008060008060008060006101208a8c0312156131d957600080fd5b60006131e78c828d01612c24565b99505060206131f88c828d01612663565b98505060406132098c828d01612c24565b975050606061321a8c828d01612c24565b965050608061322b8c828d01612c24565b95505060a061323c8c828d01612c24565b94505060c061324d8c828d01612c24565b93505060e061325e8c828d01612a5f565b9250506101006132708c828d01612a5f565b9150509295985092959850929598565b60008060006060848603121561329557600080fd5b60006132a386828701612c24565b93505060206132b486828701612c24565b92505060406132c586828701612c24565b9150509250925092565b6000602082840312156132e157600080fd5b60006132ef84828501612c39565b91505092915050565b60006020828403121561330a57600080fd5b600061331884828501612c4e565b91505092915050565b600061332d838361342d565b60208301905092915050565b600061334583836138a9565b905092915050565b600061335983836138e2565b60208301905092915050565b6000613371838361395b565b905092915050565b60006133858383613abb565b60408301905092915050565b600061339d8383613aea565b905092915050565b60006133b18383613c18565b60808301905092915050565b60006133c98383613ce8565b60c08301905092915050565b60006133e18383613e83565b6101c08301905092915050565b60006133fa8383613fd2565b60408301905092915050565b60006134128383614001565b60208301905092915050565b613427816147e1565b82525050565b613436816146e6565b82525050565b613445816146e6565b82525050565b6000613456826144d5565b61346081856145fe565b935061346b83614425565b8060005b8381101561349c5781516134838882613321565b975061348e8361456f565b92505060018101905061346f565b5085935050505092915050565b60006134b4826144e0565b6134be818561460f565b9350836020820285016134d085614435565b8060005b8581101561350c57848403895281516134ed8582613339565b94506134f88361457c565b925060208a019950506001810190506134d4565b50829750879550505050505092915050565b6000613529826144eb565b61353381856145fe565b935061353e83614445565b8060005b8381101561356f578151613556888261334d565b975061356183614589565b925050600181019050613542565b5085935050505092915050565b6000613587826144f6565b6135918185614620565b9350836020820285016135a385614455565b8060005b858110156135df57848403895281516135c08582613365565b94506135cb83614596565b925060208a019950506001810190506135a7565b50829750879550505050505092915050565b60006135fc82614501565b6136068185614631565b935061361183614465565b8060005b838110156136425781516136298882613379565b9750613634836145a3565b925050600181019050613615565b5085935050505092915050565b600061365a8261450c565b6136648185614642565b93508360208202850161367685614475565b8060005b858110156136b257848403895281516136938582613391565b945061369e836145b0565b925060208a0199505060018101905061367a565b50829750879550505050505092915050565b60006136cf82614517565b6136d98185614653565b93506136e483614485565b8060005b838110156137155781516136fc88826133a5565b9750613707836145bd565b9250506001810190506136e8565b5085935050505092915050565b600061372d82614522565b6137378185614664565b935061374283614495565b8060005b8381101561377357815161375a88826133bd565b9750613765836145ca565b925050600181019050613746565b5085935050505092915050565b600061378b8261452d565b6137958185614675565b93506137a0836144a5565b8060005b838110156137d15781516137b888826133d5565b97506137c3836145d7565b9250506001810190506137a4565b5085935050505092915050565b60006137e982614538565b6137f38185614686565b93506137fe836144b5565b8060005b8381101561382f57815161381688826133ee565b9750613821836145e4565b925050600181019050613802565b5085935050505092915050565b600061384782614543565b6138518185614697565b935061385c836144c5565b8060005b8381101561388d5781516138748882613406565b975061387f836145f1565b925050600181019050613860565b5085935050505092915050565b6138a38161470a565b82525050565b60006138b48261454e565b6138be81856146a8565b93506138ce81856020860161484d565b6138d781614880565b840191505092915050565b6138eb816147f3565b82525050565b60006138fc82614564565b61390681856146ca565b935061391681856020860161484d565b61391f81614880565b840191505092915050565b600061393582614564565b61393f81856146db565b935061394f81856020860161484d565b80840191505092915050565b600061396682614559565b61397081856146b9565b935061398081856020860161484d565b61398981614880565b840191505092915050565b60006139a1601f836146ca565b91507f4661696c656420746f20676574206163636f756e74206c6971756964697479006000830152602082019050919050565b600060608301600083015184820360008601526139f1828261351e565b9150506020830151613a066020860182614001565b506040830151613a196040860182614001565b508091505092915050565b608082016000820151613a3a6000850182614001565b506020820151613a4d6020850182614001565b506040820151613a60604085018261342d565b506060820151613a736060850182614001565b50505050565b606082016000820151613a8f6000850182614001565b506020820151613aa26020850182614001565b506040820151613ab5604085018261342d565b50505050565b604082016000820151613ad16000850182614001565b506020820151613ae46020850182614001565b50505050565b60006101a083016000830151613b036000860182614001565b506020830151613b16602086018261342d565b506040830151613b296040860182614001565b5060608301518482036060860152613b41828261344b565b91505060808301518482036080860152613b5b828261383c565b91505060a083015184820360a0860152613b75828261357c565b91505060c083015184820360c0860152613b8f82826134a9565b91505060e0830151613ba460e0860182614001565b50610100830151613bb9610100860182614001565b50610120830151613bce610120860182614001565b50610140830151613be3610140860182614001565b50610160830151613bf861016086018261389a565b50610180830151613c0d61018086018261389a565b508091505092915050565b608082016000820151613c2e6000850182614001565b506020820151613c41602085018261389a565b506040820151613c54604085018261389a565b506060820151613c67606085018261402e565b50505050565b60c082016000820151613c83600085018261342d565b506020820151613c966020850182614001565b506040820151613ca96040850182614001565b506060820151613cbc6060850182614001565b506080820151613ccf6080850182614001565b5060a0820151613ce260a0850182614001565b50505050565b60c082016000820151613cfe600085018261342d565b506020820151613d116020850182614001565b506040820151613d246040850182614001565b506060820151613d376060850182614001565b506080820151613d4a6080850182614001565b5060a0820151613d5d60a0850182614001565b50505050565b6101c082016000820151613d7a600085018261342d565b506020820151613d8d6020850182614001565b506040820151613da06040850182614001565b506060820151613db36060850182614001565b506080820151613dc66080850182614001565b5060a0820151613dd960a0850182614001565b5060c0820151613dec60c0850182614001565b5060e0820151613dff60e0850182614001565b50610100820151613e14610100850182614001565b50610120820151613e2961012085018261389a565b50610140820151613e3e610140850182614001565b50610160820151613e5361016085018261342d565b50610180820151613e68610180850182614001565b506101a0820151613e7d6101a0850182614001565b50505050565b6101c082016000820151613e9a600085018261342d565b506020820151613ead6020850182614001565b506040820151613ec06040850182614001565b506060820151613ed36060850182614001565b506080820151613ee66080850182614001565b5060a0820151613ef960a0850182614001565b5060c0820151613f0c60c0850182614001565b5060e0820151613f1f60e0850182614001565b50610100820151613f34610100850182614001565b50610120820151613f4961012085018261389a565b50610140820151613f5e610140850182614001565b50610160820151613f7361016085018261342d565b50610180820151613f88610180850182614001565b506101a0820151613f9d6101a0850182614001565b50505050565b604082016000820151613fb9600085018261342d565b506020820151613fcc6020850182614001565b50505050565b604082016000820151613fe8600085018261342d565b506020820151613ffb6020850182614001565b50505050565b61400a816147a2565b82525050565b614019816147a2565b82525050565b6140288161483b565b82525050565b614037816147c9565b82525050565b6000614049828461392a565b915081905092915050565b6000602082019050614069600083018461343c565b92915050565b6000602082019050614084600083018461341e565b92915050565b600060408201905061409f600083018561341e565b6140ac602083018461343c565b9392505050565b60006040820190506140c8600083018561343c565b6140d5602083018461401f565b9392505050565b600060208201905081810360008301526140f681846135f1565b905092915050565b60006020820190508181036000830152614118818461364f565b905092915050565b6000602082019050818103600083015261413a81846136c4565b905092915050565b6000602082019050818103600083015261415c8184613722565b905092915050565b6000602082019050818103600083015261417e8184613780565b905092915050565b600060208201905081810360008301526141a081846137de565b905092915050565b600060208201905081810360008301526141c281846138f1565b905092915050565b600060208201905081810360008301526141e381613994565b9050919050565b6000602082019050818103600083015261420481846139d4565b905092915050565b60006080820190506142216000830184613a24565b92915050565b600060608201905061423c6000830184613a79565b92915050565b600060c0820190506142576000830184613c6d565b92915050565b60006101c0820190506142736000830184613d63565b92915050565b600060408201905061428e6000830184613fa3565b92915050565b60006020820190506142a96000830184614010565b92915050565b60006040820190506142c46000830185614010565b6142d1602083018461343c565b9392505050565b6000604051905081810181811067ffffffffffffffff821117156142fb57600080fd5b8060405250919050565b600067ffffffffffffffff82111561431c57600080fd5b602082029050602081019050919050565b600067ffffffffffffffff82111561434457600080fd5b602082029050602081019050919050565b600067ffffffffffffffff82111561436c57600080fd5b602082029050602081019050919050565b600067ffffffffffffffff82111561439457600080fd5b602082029050602081019050919050565b600067ffffffffffffffff8211156143bc57600080fd5b602082029050602081019050919050565b600067ffffffffffffffff8211156143e457600080fd5b601f19601f8301169050602081019050919050565b600067ffffffffffffffff82111561441057600080fd5b601f19601f8301169050602081019050919050565b6000819050602082019050919050565b6000819050602082019050919050565b6000819050602082019050919050565b6000819050602082019050919050565b6000819050602082019050919050565b6000819050602082019050919050565b6000819050602082019050919050565b6000819050602082019050919050565b6000819050602082019050919050565b6000819050602082019050919050565b6000819050602082019050919050565b600081519050919050565b600081519050919050565b600081519050919050565b600081519050919050565b600081519050919050565b600081519050919050565b600081519050919050565b600081519050919050565b600081519050919050565b600081519050919050565b600081519050919050565b600081519050919050565b600081519050919050565b600081519050919050565b6000602082019050919050565b6000602082019050919050565b6000602082019050919050565b6000602082019050919050565b6000602082019050919050565b6000602082019050919050565b6000602082019050919050565b6000602082019050919050565b6000602082019050919050565b6000602082019050919050565b6000602082019050919050565b600082825260208201905092915050565b600082825260208201905092915050565b600082825260208201905092915050565b600082825260208201905092915050565b600082825260208201905092915050565b600082825260208201905092915050565b600082825260208201905092915050565b600082825260208201905092915050565b600082825260208201905092915050565b600082825260208201905092915050565b600082825260208201905092915050565b600082825260208201905092915050565b600082825260208201905092915050565b600081905092915050565b60006146f182614782565b9050919050565b600061470382614782565b9050919050565b60008115159050919050565b6000614721826146e6565b9050919050565b6000614733826146e6565b9050919050565b6000614745826146e6565b9050919050565b6000614757826146e6565b9050919050565b6000614769826146e6565b9050919050565b600061477b826146e6565b9050919050565b600073ffffffffffffffffffffffffffffffffffffffff82169050919050565b6000819050919050565b600063ffffffff82169050919050565b600060ff82169050919050565b60006bffffffffffffffffffffffff82169050919050565b60006147ec82614817565b9050919050565b60006147fe82614805565b9050919050565b600061481082614782565b9050919050565b600061482282614829565b9050919050565b600061483482614782565b9050919050565b6000614846826147ac565b9050919050565b60005b8381101561486b578082015181840152602081019050614850565b8381111561487a576000848401525b50505050565b6000601f19601f8301169050919050565b61489a816146e6565b81146148a557600080fd5b50565b6148b1816146f8565b81146148bc57600080fd5b50565b6148c88161470a565b81146148d357600080fd5b50565b6148df81614716565b81146148ea57600080fd5b50565b6148f681614728565b811461490157600080fd5b50565b61490d8161473a565b811461491857600080fd5b50565b6149248161474c565b811461492f57600080fd5b50565b61493b8161475e565b811461494657600080fd5b50565b61495281614770565b811461495d57600080fd5b50565b614969816147a2565b811461497457600080fd5b50565b614980816147ac565b811461498b57600080fd5b50565b614997816147bc565b81146149a257600080fd5b50565b6149ae816147c9565b81146149b957600080fd5b5056fea26469706673582212207c52baeaf7e906782d00adb80411f4d2b69c8867349c2ba4e85cc017d65ddf0364736f6c63430006000033",
  "source": "pragma solidity ^0.6.0;\npragma experimental ABIEncoderV2;\n\nimport \"./interfaces/EIP20Interface.sol\";\nimport \"./interfaces/PriceOracleInterface.sol\";\nimport \"./HErc20.sol\";\nimport \"./HToken.sol\";\nimport \"./Governance.sol\";\nimport \"./HDS.sol\";\n\ninterface MarketControllerLensInterface {\n\tfunction markets(address) external view returns (bool, uint256);\n\n\tfunction oracle() external view returns (PriceOracleInterface);\n\n\tfunction getAccountLiquidity(address)\n\t\texternal\n\t\tview\n\t\treturns (\n\t\t\tuint256,\n\t\t\tuint256,\n\t\t\tuint256\n\t\t);\n\n\tfunction getAssetsIn(address) external view returns (HToken[] memory);\n\n\tfunction claimComp(address) external;\n\n\tfunction compAccrued(address) external view returns (uint256);\n}\n\ncontract ProtocolReporter {\n\tstruct HTokenMetadata {\n\t\taddress hToken;\n\t\tuint256 exchangeRateCurrent;\n\t\tuint256 supplyRatePerBlock;\n\t\tuint256 borrowRatePerBlock;\n\t\tuint256 reserveFactorMantissa;\n\t\tuint256 totalBorrows;\n\t\tuint256 totalReserves;\n\t\tuint256 totalSupply;\n\t\tuint256 totalCash;\n\t\tbool isListed;\n\t\tuint256 collateralFactorMantissa;\n\t\taddress underlyingAssetAddress;\n\t\tuint256 hTokenDecimals;\n\t\tuint256 underlyingDecimals;\n\t}\n\n\tfunction hTokenMetadata(HToken hToken) public view returns (HTokenMetadata memory) {\n\t\tuint256 exchangeRateCurrent = hToken.exchangeRateCurrent();\n\t\tMarketControllerLensInterface controller = MarketControllerLensInterface(address(hToken.controller()));\n\t\t(bool isListed, uint256 collateralFactorMantissa) = controller.markets(address(hToken));\n\t\taddress underlyingAssetAddress;\n\t\tuint256 underlyingDecimals;\n\n\t\tif (compareStrings(hToken.symbol(), \"cETH\")) {\n\t\t\tunderlyingAssetAddress = address(0);\n\t\t\tunderlyingDecimals = 18;\n\t\t} else {\n\t\t\tHErc20 hErc20 = HErc20(address(hToken));\n\t\t\tunderlyingAssetAddress = hErc20.underlying();\n\t\t\tunderlyingDecimals = EIP20Interface(hErc20.underlying()).decimals();\n\t\t}\n\n\t\treturn\n\t\t\tHTokenMetadata({\n\t\t\t\thToken: address(hToken),\n\t\t\t\texchangeRateCurrent: exchangeRateCurrent,\n\t\t\t\tsupplyRatePerBlock: hToken.supplyRatePerBlock(),\n\t\t\t\tborrowRatePerBlock: hToken.borrowRatePerBlock(),\n\t\t\t\treserveFactorMantissa: hToken.reserveFactorMantissa(),\n\t\t\t\ttotalBorrows: hToken.totalBorrows(),\n\t\t\t\ttotalReserves: hToken.totalReserves(),\n\t\t\t\ttotalSupply: hToken.totalSupply(),\n\t\t\t\ttotalCash: hToken.getCash(),\n\t\t\t\tisListed: isListed,\n\t\t\t\tcollateralFactorMantissa: collateralFactorMantissa,\n\t\t\t\tunderlyingAssetAddress: underlyingAssetAddress,\n\t\t\t\thTokenDecimals: hToken.decimals(),\n\t\t\t\tunderlyingDecimals: underlyingDecimals\n\t\t\t});\n\t}\n\n\tfunction hTokenMetadataAll(HToken[] calldata hTokens) external view returns (HTokenMetadata[] memory) {\n\t\tuint256 hTokenCount = hTokens.length;\n\t\tHTokenMetadata[] memory res = new HTokenMetadata[](hTokenCount);\n\t\tfor (uint256 i = 0; i < hTokenCount; i++) {\n\t\t\tres[i] = hTokenMetadata(hTokens[i]);\n\t\t}\n\t\treturn res;\n\t}\n\n\tstruct HTokenBalances {\n\t\taddress hToken;\n\t\tuint256 balanceOf;\n\t\tuint256 borrowBalanceCurrent;\n\t\tuint256 balanceOfUnderlying;\n\t\tuint256 tokenBalance;\n\t\tuint256 tokenAllowance;\n\t}\n\n\tfunction hTokenBalances(HToken hToken, address payable account) public returns (HTokenBalances memory) {\n\t\tuint256 balanceOf = hToken.balanceOf(account);\n\t\tuint256 borrowBalanceCurrent = hToken.borrowBalanceCurrent(account);\n\t\tuint256 balanceOfUnderlying = hToken.balanceOfUnderlying(account);\n\t\tuint256 tokenBalance;\n\t\tuint256 tokenAllowance;\n\n\t\tif (compareStrings(hToken.symbol(), \"cETH\")) {\n\t\t\ttokenBalance = account.balance;\n\t\t\ttokenAllowance = account.balance;\n\t\t} else {\n\t\t\tHErc20 hErc20 = HErc20(address(hToken));\n\t\t\tEIP20Interface underlying = EIP20Interface(hErc20.underlying());\n\t\t\ttokenBalance = underlying.balanceOf(account);\n\t\t\ttokenAllowance = underlying.allowance(account, address(hToken));\n\t\t}\n\n\t\treturn\n\t\t\tHTokenBalances({\n\t\t\t\thToken: address(hToken),\n\t\t\t\tbalanceOf: balanceOf,\n\t\t\t\tborrowBalanceCurrent: borrowBalanceCurrent,\n\t\t\t\tbalanceOfUnderlying: balanceOfUnderlying,\n\t\t\t\ttokenBalance: tokenBalance,\n\t\t\t\ttokenAllowance: tokenAllowance\n\t\t\t});\n\t}\n\n\tfunction hTokenBalancesAll(HToken[] calldata hTokens, address payable account)\n\t\texternal\n\t\treturns (HTokenBalances[] memory)\n\t{\n\t\tuint256 hTokenCount = hTokens.length;\n\t\tHTokenBalances[] memory res = new HTokenBalances[](hTokenCount);\n\t\tfor (uint256 i = 0; i < hTokenCount; i++) {\n\t\t\tres[i] = hTokenBalances(hTokens[i], account);\n\t\t}\n\t\treturn res;\n\t}\n\n\tstruct HTokenUnderlyingPrice {\n\t\taddress hToken;\n\t\tuint256 underlyingPrice;\n\t}\n\n\tfunction hTokenUnderlyingPrice(HToken hToken) public view returns (HTokenUnderlyingPrice memory) {\n\t\tMarketControllerLensInterface controller = MarketControllerLensInterface(address(hToken.controller()));\n\t\tPriceOracleInterface oracle = controller.oracle();\n\n\t\treturn\n\t\t\tHTokenUnderlyingPrice({ hToken: address(hToken), underlyingPrice: oracle.getUnderlyingPrice(address(hToken)) });\n\t}\n\n\tfunction hTokenUnderlyingPriceAll(HToken[] calldata hTokens) external view returns (HTokenUnderlyingPrice[] memory) {\n\t\tuint256 hTokenCount = hTokens.length;\n\t\tHTokenUnderlyingPrice[] memory res = new HTokenUnderlyingPrice[](hTokenCount);\n\t\tfor (uint256 i = 0; i < hTokenCount; i++) {\n\t\t\tres[i] = hTokenUnderlyingPrice(hTokens[i]);\n\t\t}\n\t\treturn res;\n\t}\n\n\tstruct AccountLimits {\n\t\tHToken[] markets;\n\t\tuint256 liquidity;\n\t\tuint256 shortfall;\n\t}\n\n\tfunction getAccountLimits(MarketControllerLensInterface controller, address account)\n\t\tpublic\n\t\tview\n\t\treturns (AccountLimits memory)\n\t{\n\t\t(uint256 errorCode, uint256 liquidity, uint256 shortfall) = controller.getAccountLiquidity(account);\n\t\trequire(errorCode == 0, \"Failed to get account liquidity\");\n\n\t\treturn AccountLimits({ markets: controller.getAssetsIn(account), liquidity: liquidity, shortfall: shortfall });\n\t}\n\n\tstruct GovReceipt {\n\t\tuint256 proposalId;\n\t\tbool hasVoted;\n\t\tbool support;\n\t\tuint96 votes;\n\t}\n\n\tfunction getGovReceipts(\n\t\tGovernance governor,\n\t\taddress voter,\n\t\tuint256[] memory proposalIds\n\t) public view returns (GovReceipt[] memory) {\n\t\tuint256 proposalCount = proposalIds.length;\n\t\tGovReceipt[] memory res = new GovReceipt[](proposalCount);\n\t\tfor (uint256 i = 0; i < proposalCount; i++) {\n\t\t\tGovernance.Receipt memory receipt = governor.getReceipt(proposalIds[i], voter);\n\t\t\tres[i] = GovReceipt({\n\t\t\t\tproposalId: proposalIds[i],\n\t\t\t\thasVoted: receipt.hasVoted,\n\t\t\t\tsupport: receipt.support,\n\t\t\t\tvotes: receipt.votes\n\t\t\t});\n\t\t}\n\t\treturn res;\n\t}\n\n\tstruct GovProposal {\n\t\tuint256 proposalId;\n\t\taddress proposer;\n\t\tuint256 eta;\n\t\taddress[] targets;\n\t\tuint256[] values;\n\t\tstring[] signatures;\n\t\tbytes[] calldatas;\n\t\tuint256 startBlock;\n\t\tuint256 endBlock;\n\t\tuint256 forVotes;\n\t\tuint256 againstVotes;\n\t\tbool canceled;\n\t\tbool executed;\n\t}\n\n\tfunction setProposal(\n\t\tGovProposal memory res,\n\t\tGovernance governor,\n\t\tuint256 proposalId\n\t) internal view {\n\t\t(\n\t\t\t,\n\t\t\taddress proposer,\n\t\t\tuint256 eta,\n\t\t\tuint256 startBlock,\n\t\t\tuint256 endBlock,\n\t\t\tuint256 forVotes,\n\t\t\tuint256 againstVotes,\n\t\t\tbool canceled,\n\t\t\tbool executed\n\t\t) = governor.proposals(proposalId);\n\t\tres.proposalId = proposalId;\n\t\tres.proposer = proposer;\n\t\tres.eta = eta;\n\t\tres.startBlock = startBlock;\n\t\tres.endBlock = endBlock;\n\t\tres.forVotes = forVotes;\n\t\tres.againstVotes = againstVotes;\n\t\tres.canceled = canceled;\n\t\tres.executed = executed;\n\t}\n\n\tfunction getGovProposals(Governance governor, uint256[] calldata proposalIds)\n\t\texternal\n\t\tview\n\t\treturns (GovProposal[] memory)\n\t{\n\t\tGovProposal[] memory res = new GovProposal[](proposalIds.length);\n\t\tfor (uint256 i = 0; i < proposalIds.length; i++) {\n\t\t\t(\n\t\t\t\taddress[] memory targets,\n\t\t\t\tuint256[] memory values,\n\t\t\t\tstring[] memory signatures,\n\t\t\t\tbytes[] memory calldatas\n\t\t\t) = governor.getActions(proposalIds[i]);\n\t\t\tres[i] = GovProposal({\n\t\t\t\tproposalId: 0,\n\t\t\t\tproposer: address(0),\n\t\t\t\teta: 0,\n\t\t\t\ttargets: targets,\n\t\t\t\tvalues: values,\n\t\t\t\tsignatures: signatures,\n\t\t\t\tcalldatas: calldatas,\n\t\t\t\tstartBlock: 0,\n\t\t\t\tendBlock: 0,\n\t\t\t\tforVotes: 0,\n\t\t\t\tagainstVotes: 0,\n\t\t\t\tcanceled: false,\n\t\t\t\texecuted: false\n\t\t\t});\n\t\t\tsetProposal(res[i], governor, proposalIds[i]);\n\t\t}\n\t\treturn res;\n\t}\n\n\tstruct CompBalanceMetadata {\n\t\tuint256 balance;\n\t\tuint256 votes;\n\t\taddress delegate;\n\t}\n\n\tfunction getCompBalanceMetadata(HDS hds, address account) external view returns (CompBalanceMetadata memory) {\n\t\treturn\n\t\t\tCompBalanceMetadata({\n\t\t\t\tbalance: hds.balanceOf(account),\n\t\t\t\tvotes: uint256(hds.getCurrentVotes(account)),\n\t\t\t\tdelegate: hds.delegates(account)\n\t\t\t});\n\t}\n\n\tstruct CompBalanceMetadataExt {\n\t\tuint256 balance;\n\t\tuint256 votes;\n\t\taddress delegate;\n\t\tuint256 allocated;\n\t}\n\n\tfunction getCompBalanceMetadataExt(\n\t\tHDS hds,\n\t\tMarketControllerLensInterface controller,\n\t\taddress account\n\t) external returns (CompBalanceMetadataExt memory) {\n\t\tuint256 balance = hds.balanceOf(account);\n\t\tcontroller.claimComp(account);\n\t\tuint256 newBalance = hds.balanceOf(account);\n\t\tuint256 accrued = controller.compAccrued(account);\n\t\tuint256 total = add(accrued, newBalance, \"sum comp total\");\n\t\tuint256 allocated = sub(total, balance, \"sub allocated\");\n\n\t\treturn\n\t\t\tCompBalanceMetadataExt({\n\t\t\t\tbalance: balance,\n\t\t\t\tvotes: uint256(hds.getCurrentVotes(account)),\n\t\t\t\tdelegate: hds.delegates(account),\n\t\t\t\tallocated: allocated\n\t\t\t});\n\t}\n\n\tstruct CompVotes {\n\t\tuint256 blockNumber;\n\t\tuint256 votes;\n\t}\n\n\tfunction getCompVotes(\n\t\tHDS hds,\n\t\taddress account,\n\t\tuint32[] calldata blockNumbers\n\t) external view returns (CompVotes[] memory) {\n\t\tCompVotes[] memory res = new CompVotes[](blockNumbers.length);\n\t\tfor (uint256 i = 0; i < blockNumbers.length; i++) {\n\t\t\tres[i] = CompVotes({\n\t\t\t\tblockNumber: uint256(blockNumbers[i]),\n\t\t\t\tvotes: uint256(hds.getPriorVotes(account, blockNumbers[i]))\n\t\t\t});\n\t\t}\n\t\treturn res;\n\t}\n\n\tfunction compareStrings(string memory a, string memory b) internal pure returns (bool) {\n\t\treturn (keccak256(abi.encodePacked((a))) == keccak256(abi.encodePacked((b))));\n\t}\n\n\tfunction add(\n\t\tuint256 a,\n\t\tuint256 b,\n\t\tstring memory errorMessage\n\t) internal pure returns (uint256) {\n\t\tuint256 c = a + b;\n\t\trequire(c >= a, errorMessage);\n\t\treturn c;\n\t}\n\n\tfunction sub(\n\t\tuint256 a,\n\t\tuint256 b,\n\t\tstring memory errorMessage\n\t) internal pure returns (uint256) {\n\t\trequire(b <= a, errorMessage);\n\t\tuint256 c = a - b;\n\t\treturn c;\n\t}\n}\n",
  "sourcePath": "/hades/evm-contracts/src/ProtocolReporter.sol",
  "compiler": {
    "name": "solc",
    "version": "0.6.0+commit.26b70077.Emscripten.clang"
  },
  "schemaVersion": "3.2.4",
  "updatedAt": "2020-10-27T12:03:43.020Z",
  "networkType": "ethereum",
  "devdoc": {
    "methods": {}
  },
  "userdoc": {
    "methods": {}
  }
}