{
  "contractName": "Timelock",
  "abi": [
    {
      "anonymous": false,
      "inputs": [
        {
          "indexed": true,
          "internalType": "bytes32",
          "name": "txHash",
          "type": "bytes32"
        },
        {
          "indexed": true,
          "internalType": "address",
          "name": "target",
          "type": "address"
        },
        {
          "indexed": false,
          "internalType": "uint256",
          "name": "value",
          "type": "uint256"
        },
        {
          "indexed": false,
          "internalType": "string",
          "name": "signature",
          "type": "string"
        },
        {
          "indexed": false,
          "internalType": "bytes",
          "name": "data",
          "type": "bytes"
        },
        {
          "indexed": false,
          "internalType": "uint256",
          "name": "eta",
          "type": "uint256"
        }
      ],
      "name": "CancelTransaction",
      "type": "event"
    },
    {
      "anonymous": false,
      "inputs": [
        {
          "indexed": true,
          "internalType": "bytes32",
          "name": "txHash",
          "type": "bytes32"
        },
        {
          "indexed": true,
          "internalType": "address",
          "name": "target",
          "type": "address"
        },
        {
          "indexed": false,
          "internalType": "uint256",
          "name": "value",
          "type": "uint256"
        },
        {
          "indexed": false,
          "internalType": "string",
          "name": "signature",
          "type": "string"
        },
        {
          "indexed": false,
          "internalType": "bytes",
          "name": "data",
          "type": "bytes"
        },
        {
          "indexed": false,
          "internalType": "uint256",
          "name": "eta",
          "type": "uint256"
        }
      ],
      "name": "ExecuteTransaction",
      "type": "event"
    },
    {
      "anonymous": false,
      "inputs": [
        {
          "indexed": true,
          "internalType": "address",
          "name": "newAdmin",
          "type": "address"
        }
      ],
      "name": "NewAdmin",
      "type": "event"
    },
    {
      "anonymous": false,
      "inputs": [
        {
          "indexed": true,
          "internalType": "uint256",
          "name": "newDelay",
          "type": "uint256"
        }
      ],
      "name": "NewDelay",
      "type": "event"
    },
    {
      "anonymous": false,
      "inputs": [
        {
          "indexed": true,
          "internalType": "address",
          "name": "newPendingAdmin",
          "type": "address"
        }
      ],
      "name": "NewPendingAdmin",
      "type": "event"
    },
    {
      "anonymous": false,
      "inputs": [
        {
          "indexed": true,
          "internalType": "bytes32",
          "name": "txHash",
          "type": "bytes32"
        },
        {
          "indexed": true,
          "internalType": "address",
          "name": "target",
          "type": "address"
        },
        {
          "indexed": false,
          "internalType": "uint256",
          "name": "value",
          "type": "uint256"
        },
        {
          "indexed": false,
          "internalType": "string",
          "name": "signature",
          "type": "string"
        },
        {
          "indexed": false,
          "internalType": "bytes",
          "name": "data",
          "type": "bytes"
        },
        {
          "indexed": false,
          "internalType": "uint256",
          "name": "eta",
          "type": "uint256"
        }
      ],
      "name": "QueueTransaction",
      "type": "event"
    },
    {
      "inputs": [],
      "name": "GRACE_PERIOD",
      "outputs": [
        {
          "internalType": "uint256",
          "name": "",
          "type": "uint256"
        }
      ],
      "stateMutability": "view",
      "type": "function"
    },
    {
      "inputs": [],
      "name": "MAXIMUM_DELAY",
      "outputs": [
        {
          "internalType": "uint256",
          "name": "",
          "type": "uint256"
        }
      ],
      "stateMutability": "view",
      "type": "function"
    },
    {
      "inputs": [],
      "name": "MINIMUM_DELAY",
      "outputs": [
        {
          "internalType": "uint256",
          "name": "",
          "type": "uint256"
        }
      ],
      "stateMutability": "view",
      "type": "function"
    },
    {
      "inputs": [],
      "name": "admin",
      "outputs": [
        {
          "internalType": "address",
          "name": "",
          "type": "address"
        }
      ],
      "stateMutability": "view",
      "type": "function"
    },
    {
      "inputs": [],
      "name": "delay",
      "outputs": [
        {
          "internalType": "uint256",
          "name": "",
          "type": "uint256"
        }
      ],
      "stateMutability": "view",
      "type": "function"
    },
    {
      "inputs": [],
      "name": "pendingAdmin",
      "outputs": [
        {
          "internalType": "address",
          "name": "",
          "type": "address"
        }
      ],
      "stateMutability": "view",
      "type": "function"
    },
    {
      "inputs": [
        {
          "internalType": "bytes32",
          "name": "",
          "type": "bytes32"
        }
      ],
      "name": "queuedTransactions",
      "outputs": [
        {
          "internalType": "bool",
          "name": "",
          "type": "bool"
        }
      ],
      "stateMutability": "view",
      "type": "function"
    },
    {
      "stateMutability": "payable",
      "type": "receive"
    },
    {
      "inputs": [
        {
          "internalType": "address",
          "name": "_admin",
          "type": "address"
        }
      ],
      "name": "initialize",
      "outputs": [],
      "stateMutability": "nonpayable",
      "type": "function"
    },
    {
      "inputs": [
        {
          "internalType": "uint256",
          "name": "_delay",
          "type": "uint256"
        }
      ],
      "name": "setDelay",
      "outputs": [],
      "stateMutability": "nonpayable",
      "type": "function"
    },
    {
      "inputs": [],
      "name": "acceptAdmin",
      "outputs": [],
      "stateMutability": "nonpayable",
      "type": "function"
    },
    {
      "inputs": [
        {
          "internalType": "address",
          "name": "pendingAdmin_",
          "type": "address"
        }
      ],
      "name": "setPendingAdmin",
      "outputs": [],
      "stateMutability": "nonpayable",
      "type": "function"
    },
    {
      "inputs": [
        {
          "internalType": "address",
          "name": "target",
          "type": "address"
        },
        {
          "internalType": "uint256",
          "name": "value",
          "type": "uint256"
        },
        {
          "internalType": "string",
          "name": "signature",
          "type": "string"
        },
        {
          "internalType": "bytes",
          "name": "data",
          "type": "bytes"
        },
        {
          "internalType": "uint256",
          "name": "eta",
          "type": "uint256"
        }
      ],
      "name": "queueTransaction",
      "outputs": [
        {
          "internalType": "bytes32",
          "name": "",
          "type": "bytes32"
        }
      ],
      "stateMutability": "nonpayable",
      "type": "function"
    },
    {
      "inputs": [
        {
          "internalType": "address",
          "name": "target",
          "type": "address"
        },
        {
          "internalType": "uint256",
          "name": "value",
          "type": "uint256"
        },
        {
          "internalType": "string",
          "name": "signature",
          "type": "string"
        },
        {
          "internalType": "bytes",
          "name": "data",
          "type": "bytes"
        },
        {
          "internalType": "uint256",
          "name": "eta",
          "type": "uint256"
        }
      ],
      "name": "cancelTransaction",
      "outputs": [],
      "stateMutability": "nonpayable",
      "type": "function"
    },
    {
      "inputs": [
        {
          "internalType": "address",
          "name": "target",
          "type": "address"
        },
        {
          "internalType": "uint256",
          "name": "value",
          "type": "uint256"
        },
        {
          "internalType": "string",
          "name": "signature",
          "type": "string"
        },
        {
          "internalType": "bytes",
          "name": "data",
          "type": "bytes"
        },
        {
          "internalType": "uint256",
          "name": "eta",
          "type": "uint256"
        }
      ],
      "name": "executeTransaction",
      "outputs": [
        {
          "internalType": "bytes",
          "name": "",
          "type": "bytes"
        }
      ],
      "stateMutability": "payable",
      "type": "function"
    }
  ],
  "bytecode": "0x608060405234801561001057600080fd5b50611f0f806100206000396000f3fe6080604052600436106100e15760003560e01c80637d645fab1161007f578063c4d66de811610059578063c4d66de814610791578063e177246e146107e2578063f2b065371461081d578063f851a44014610870576100e8565b80637d645fab14610710578063b1b43ae51461073b578063c1a287e214610766576100e8565b80633a66f901116100bb5780633a66f9011461035a5780634dd18bf514610501578063591fcdfe146105525780636a42b8f8146106e5576100e8565b80630825f38f146100ed5780630e18b681146102ec5780632678224714610303576100e8565b366100e857005b600080fd5b610271600480360360a081101561010357600080fd5b81019080803573ffffffffffffffffffffffffffffffffffffffff169060200190929190803590602001909291908035906020019064010000000081111561014a57600080fd5b82018360208201111561015c57600080fd5b8035906020019184600183028401116401000000008311171561017e57600080fd5b91908080601f016020809104026020016040519081016040528093929190818152602001838380828437600081840152601f19601f820116905080830192505050505050509192919290803590602001906401000000008111156101e157600080fd5b8201836020820111156101f357600080fd5b8035906020019184600183028401116401000000008311171561021557600080fd5b91908080601f016020809104026020016040519081016040528093929190818152602001838380828437600081840152601f19601f820116905080830192505050505050509192919290803590602001909291905050506108c7565b6040518080602001828103825283818151815260200191508051906020019080838360005b838110156102b1578082015181840152602081019050610296565b50505050905090810190601f1680156102de5780820380516001836020036101000a031916815260200191505b509250505060405180910390f35b3480156102f857600080fd5b50610301610f48565b005b34801561030f57600080fd5b506103186110d6565b604051808273ffffffffffffffffffffffffffffffffffffffff1673ffffffffffffffffffffffffffffffffffffffff16815260200191505060405180910390f35b34801561036657600080fd5b506104eb600480360360a081101561037d57600080fd5b81019080803573ffffffffffffffffffffffffffffffffffffffff16906020019092919080359060200190929190803590602001906401000000008111156103c457600080fd5b8201836020820111156103d657600080fd5b803590602001918460018302840111640100000000831117156103f857600080fd5b91908080601f016020809104026020016040519081016040528093929190818152602001838380828437600081840152601f19601f8201169050808301925050505050505091929192908035906020019064010000000081111561045b57600080fd5b82018360208201111561046d57600080fd5b8035906020019184600183028401116401000000008311171561048f57600080fd5b91908080601f016020809104026020016040519081016040528093929190818152602001838380828437600081840152601f19601f820116905080830192505050505050509192919290803590602001909291905050506110fc565b6040518082815260200191505060405180910390f35b34801561050d57600080fd5b506105506004803603602081101561052457600080fd5b81019080803573ffffffffffffffffffffffffffffffffffffffff1690602001909291905050506114c2565b005b34801561055e57600080fd5b506106e3600480360360a081101561057557600080fd5b81019080803573ffffffffffffffffffffffffffffffffffffffff16906020019092919080359060200190929190803590602001906401000000008111156105bc57600080fd5b8201836020820111156105ce57600080fd5b803590602001918460018302840111640100000000831117156105f057600080fd5b91908080601f016020809104026020016040519081016040528093929190818152602001838380828437600081840152601f19601f8201169050808301925050505050505091929192908035906020019064010000000081111561065357600080fd5b82018360208201111561066557600080fd5b8035906020019184600183028401116401000000008311171561068757600080fd5b91908080601f016020809104026020016040519081016040528093929190818152602001838380828437600081840152601f19601f820116905080830192505050505050509192919290803590602001909291905050506115ef565b005b3480156106f157600080fd5b506106fa61193a565b6040518082815260200191505060405180910390f35b34801561071c57600080fd5b50610725611940565b6040518082815260200191505060405180910390f35b34801561074757600080fd5b50610750611947565b6040518082815260200191505060405180910390f35b34801561077257600080fd5b5061077b61194e565b6040518082815260200191505060405180910390f35b34801561079d57600080fd5b506107e0600480360360208110156107b457600080fd5b81019080803573ffffffffffffffffffffffffffffffffffffffff169060200190929190505050611955565b005b3480156107ee57600080fd5b5061081b6004803603602081101561080557600080fd5b81019080803590602001909291905050506119a2565b005b34801561082957600080fd5b506108566004803603602081101561084057600080fd5b8101908080359060200190929190505050611b17565b604051808215151515815260200191505060405180910390f35b34801561087c57600080fd5b50610885611b37565b604051808273ffffffffffffffffffffffffffffffffffffffff1673ffffffffffffffffffffffffffffffffffffffff16815260200191505060405180910390f35b60606000809054906101000a900473ffffffffffffffffffffffffffffffffffffffff1673ffffffffffffffffffffffffffffffffffffffff163373ffffffffffffffffffffffffffffffffffffffff161461096e576040517f08c379a0000000000000000000000000000000000000000000000000000000008152600401808060200182810382526038815260200180611bed6038913960400191505060405180910390fd5b60008686868686604051602001808673ffffffffffffffffffffffffffffffffffffffff1673ffffffffffffffffffffffffffffffffffffffff1681526020018581526020018060200180602001848152602001838103835286818151815260200191508051906020019080838360005b838110156109fa5780820151818401526020810190506109df565b50505050905090810190601f168015610a275780820380516001836020036101000a031916815260200191505b50838103825285818151815260200191508051906020019080838360005b83811015610a60578082015181840152602081019050610a45565b50505050905090810190601f168015610a8d5780820380516001836020036101000a031916815260200191505b509750505050505050506040516020818303038152906040528051906020012090506003600082815260200190815260200160002060009054906101000a900460ff16610b25576040517f08c379a000000000000000000000000000000000000000000000000000000000815260040180806020018281038252603d815260200180611d40603d913960400191505060405180910390fd5b82610b2e611b5c565b1015610b85576040517f08c379a0000000000000000000000000000000000000000000000000000000008152600401808060200182810382526045815260200180611c8f6045913960600191505060405180910390fd5b610b9b6212750084611b6490919063ffffffff16565b610ba3611b5c565b1115610bfa576040517f08c379a0000000000000000000000000000000000000000000000000000000008152600401808060200182810382526033815260200180611c5c6033913960400191505060405180910390fd5b60006003600083815260200190815260200160002060006101000a81548160ff0219169083151502179055506060600086511415610c3a57849050610cf5565b85805190602001208560405160200180837bffffffffffffffffffffffffffffffffffffffffffffffffffffffff19167bffffffffffffffffffffffffffffffffffffffffffffffffffffffff1916815260040182805190602001908083835b60208310610cbd5780518252602082019150602081019050602083039250610c9a565b6001836020036101000a0380198251168184511680821785525050505050509050019250505060405160208183030381529060405290505b600060608973ffffffffffffffffffffffffffffffffffffffff1689846040518082805190602001908083835b60208310610d455780518252602082019150602081019050602083039250610d22565b6001836020036101000a03801982511681845116808217855250505050505090500191505060006040518083038185875af1925050503d8060008114610da7576040519150601f19603f3d011682016040523d82523d6000602084013e610dac565b606091505b509150915081610e07576040517f08c379a000000000000000000000000000000000000000000000000000000000815260040180806020018281038252603d815260200180611e23603d913960400191505060405180910390fd5b8973ffffffffffffffffffffffffffffffffffffffff16847fa560e3198060a2f10670c1ec5b403077ea6ae93ca8de1c32b451dc1a943cd6e78b8b8b8b604051808581526020018060200180602001848152602001838103835286818151815260200191508051906020019080838360005b83811015610e94578082015181840152602081019050610e79565b50505050905090810190601f168015610ec15780820380516001836020036101000a031916815260200191505b50838103825285818151815260200191508051906020019080838360005b83811015610efa578082015181840152602081019050610edf565b50505050905090810190601f168015610f275780820380516001836020036101000a031916815260200191505b50965050505050505060405180910390a38094505050505095945050505050565b600160009054906101000a900473ffffffffffffffffffffffffffffffffffffffff1673ffffffffffffffffffffffffffffffffffffffff163373ffffffffffffffffffffffffffffffffffffffff1614610fee576040517f08c379a0000000000000000000000000000000000000000000000000000000008152600401808060200182810382526038815260200180611d7d6038913960400191505060405180910390fd5b336000806101000a81548173ffffffffffffffffffffffffffffffffffffffff021916908373ffffffffffffffffffffffffffffffffffffffff1602179055506000600160006101000a81548173ffffffffffffffffffffffffffffffffffffffff021916908373ffffffffffffffffffffffffffffffffffffffff1602179055506000809054906101000a900473ffffffffffffffffffffffffffffffffffffffff1673ffffffffffffffffffffffffffffffffffffffff167f71614071b88dee5e0b2ae578a9dd7b2ebbe9ae832ba419dc0242cd065a290b6c60405160405180910390a2565b600160009054906101000a900473ffffffffffffffffffffffffffffffffffffffff1681565b60008060009054906101000a900473ffffffffffffffffffffffffffffffffffffffff1673ffffffffffffffffffffffffffffffffffffffff163373ffffffffffffffffffffffffffffffffffffffff16146111a3576040517f08c379a0000000000000000000000000000000000000000000000000000000008152600401808060200182810382526036815260200180611ded6036913960400191505060405180910390fd5b6111bf6002546111b1611b5c565b611b6490919063ffffffff16565b821015611217576040517f08c379a0000000000000000000000000000000000000000000000000000000008152600401808060200182810382526049815260200180611e606049913960600191505060405180910390fd5b60008686868686604051602001808673ffffffffffffffffffffffffffffffffffffffff1673ffffffffffffffffffffffffffffffffffffffff1681526020018581526020018060200180602001848152602001838103835286818151815260200191508051906020019080838360005b838110156112a3578082015181840152602081019050611288565b50505050905090810190601f1680156112d05780820380516001836020036101000a031916815260200191505b50838103825285818151815260200191508051906020019080838360005b838110156113095780820151818401526020810190506112ee565b50505050905090810190601f1680156113365780820380516001836020036101000a031916815260200191505b5097505050505050505060405160208183030381529060405280519060200120905060016003600083815260200190815260200160002060006101000a81548160ff0219169083151502179055508673ffffffffffffffffffffffffffffffffffffffff16817f76e2796dc3a81d57b0e8504b647febcbeeb5f4af818e164f11eef8131a6a763f88888888604051808581526020018060200180602001848152602001838103835286818151815260200191508051906020019080838360005b838110156114115780820151818401526020810190506113f6565b50505050905090810190601f16801561143e5780820380516001836020036101000a031916815260200191505b50838103825285818151815260200191508051906020019080838360005b8381101561147757808201518184015260208101905061145c565b50505050905090810190601f1680156114a45780820380516001836020036101000a031916815260200191505b50965050505050505060405180910390a38091505095945050505050565b3073ffffffffffffffffffffffffffffffffffffffff163373ffffffffffffffffffffffffffffffffffffffff1614611546576040517f08c379a0000000000000000000000000000000000000000000000000000000008152600401808060200182810382526038815260200180611db56038913960400191505060405180910390fd5b80600160006101000a81548173ffffffffffffffffffffffffffffffffffffffff021916908373ffffffffffffffffffffffffffffffffffffffff160217905550600160009054906101000a900473ffffffffffffffffffffffffffffffffffffffff1673ffffffffffffffffffffffffffffffffffffffff167f69d78e38a01985fbb1462961809b4b2d65531bc93b2b94037f3334b82ca4a75660405160405180910390a250565b6000809054906101000a900473ffffffffffffffffffffffffffffffffffffffff1673ffffffffffffffffffffffffffffffffffffffff163373ffffffffffffffffffffffffffffffffffffffff1614611694576040517f08c379a0000000000000000000000000000000000000000000000000000000008152600401808060200182810382526037815260200180611c256037913960400191505060405180910390fd5b60008585858585604051602001808673ffffffffffffffffffffffffffffffffffffffff1673ffffffffffffffffffffffffffffffffffffffff1681526020018581526020018060200180602001848152602001838103835286818151815260200191508051906020019080838360005b83811015611720578082015181840152602081019050611705565b50505050905090810190601f16801561174d5780820380516001836020036101000a031916815260200191505b50838103825285818151815260200191508051906020019080838360005b8381101561178657808201518184015260208101905061176b565b50505050905090810190601f1680156117b35780820380516001836020036101000a031916815260200191505b5097505050505050505060405160208183030381529060405280519060200120905060006003600083815260200190815260200160002060006101000a81548160ff0219169083151502179055508573ffffffffffffffffffffffffffffffffffffffff16817f2fffc091a501fd91bfbff27141450d3acb40fb8e6d8382b243ec7a812a3aaf8787878787604051808581526020018060200180602001848152602001838103835286818151815260200191508051906020019080838360005b8381101561188e578082015181840152602081019050611873565b50505050905090810190601f1680156118bb5780820380516001836020036101000a031916815260200191505b50838103825285818151815260200191508051906020019080838360005b838110156118f45780820151818401526020810190506118d9565b50505050905090810190601f1680156119215780820380516001836020036101000a031916815260200191505b50965050505050505060405180910390a3505050505050565b60025481565b62278d0081565b6202a30081565b6212750081565b806000806101000a81548173ffffffffffffffffffffffffffffffffffffffff021916908373ffffffffffffffffffffffffffffffffffffffff1602179055506202a30060028190555050565b3073ffffffffffffffffffffffffffffffffffffffff163373ffffffffffffffffffffffffffffffffffffffff1614611a26576040517f08c379a0000000000000000000000000000000000000000000000000000000008152600401808060200182810382526031815260200180611ea96031913960400191505060405180910390fd5b6202a300811015611a82576040517f08c379a0000000000000000000000000000000000000000000000000000000008152600401808060200182810382526034815260200180611cd46034913960400191505060405180910390fd5b62278d00811115611ade576040517f08c379a0000000000000000000000000000000000000000000000000000000008152600401808060200182810382526038815260200180611d086038913960400191505060405180910390fd5b806002819055506002547f948b1f6a42ee138b7e34058ba85a37f716d55ff25ff05a763f15bed6a04c8d2c60405160405180910390a250565b60036020528060005260406000206000915054906101000a900460ff1681565b6000809054906101000a900473ffffffffffffffffffffffffffffffffffffffff1681565b600042905090565b600080828401905083811015611be2576040517f08c379a000000000000000000000000000000000000000000000000000000000815260040180806020018281038252601b8152602001807f536166654d6174683a206164646974696f6e206f766572666c6f77000000000081525060200191505060405180910390fd5b809150509291505056fe54696d656c6f636b3a3a657865637574655472616e73616374696f6e3a2043616c6c206d75737420636f6d652066726f6d2061646d696e2e54696d656c6f636b3a3a63616e63656c5472616e73616374696f6e3a2043616c6c206d75737420636f6d652066726f6d2061646d696e2e54696d656c6f636b3a3a657865637574655472616e73616374696f6e3a205472616e73616374696f6e206973207374616c652e54696d656c6f636b3a3a657865637574655472616e73616374696f6e3a205472616e73616374696f6e206861736e2774207375727061737365642074696d65206c6f636b2e54696d656c6f636b3a3a73657444656c61793a2044656c6179206d75737420657863656564206d696e696d756d2064656c61792e54696d656c6f636b3a3a73657444656c61793a2044656c6179206d757374206e6f7420657863656564206d6178696d756d2064656c61792e54696d656c6f636b3a3a657865637574655472616e73616374696f6e3a205472616e73616374696f6e206861736e2774206265656e207175657565642e54696d656c6f636b3a3a61636365707441646d696e3a2043616c6c206d75737420636f6d652066726f6d2070656e64696e6741646d696e2e54696d656c6f636b3a3a73657450656e64696e6741646d696e3a2043616c6c206d75737420636f6d652066726f6d2054696d656c6f636b2e54696d656c6f636b3a3a71756575655472616e73616374696f6e3a2043616c6c206d75737420636f6d652066726f6d2061646d696e2e54696d656c6f636b3a3a657865637574655472616e73616374696f6e3a205472616e73616374696f6e20657865637574696f6e2072657665727465642e54696d656c6f636b3a3a71756575655472616e73616374696f6e3a20457374696d6174656420657865637574696f6e20626c6f636b206d75737420736174697366792064656c61792e54696d656c6f636b3a3a73657444656c61793a2043616c6c206d75737420636f6d652066726f6d2054696d656c6f636b2ea264697066735822122080dc05f75f71a600f9e17ddec941aaf32cbc4ce827a2530506bb74e61c89711b64736f6c63430006000033",
  "source": "pragma solidity ^0.6.0;\n\nimport \"./libraries/SafeMath.sol\";\n\ncontract Timelock {\n\tusing SafeMath for uint256;\n\n\tevent NewAdmin(address indexed newAdmin);\n\tevent NewPendingAdmin(address indexed newPendingAdmin);\n\tevent NewDelay(uint256 indexed newDelay);\n\tevent CancelTransaction(\n\t\tbytes32 indexed txHash,\n\t\taddress indexed target,\n\t\tuint256 value,\n\t\tstring signature,\n\t\tbytes data,\n\t\tuint256 eta\n\t);\n\tevent ExecuteTransaction(\n\t\tbytes32 indexed txHash,\n\t\taddress indexed target,\n\t\tuint256 value,\n\t\tstring signature,\n\t\tbytes data,\n\t\tuint256 eta\n\t);\n\tevent QueueTransaction(\n\t\tbytes32 indexed txHash,\n\t\taddress indexed target,\n\t\tuint256 value,\n\t\tstring signature,\n\t\tbytes data,\n\t\tuint256 eta\n\t);\n\n\tuint256 public constant GRACE_PERIOD = 14 days;\n\tuint256 public constant MINIMUM_DELAY = 2 days;\n\tuint256 public constant MAXIMUM_DELAY = 30 days;\n\n\taddress public admin;\n\taddress public pendingAdmin;\n\tuint256 public delay;\n\n\tmapping(bytes32 => bool) public queuedTransactions;\n\n\tfunction initialize(address _admin) public {\n\t\tadmin = _admin;\n\t\tdelay = MINIMUM_DELAY;\n\t}\n\n\t/* solium-disable-next-line */\n\treceive() external payable {}\n\n\tfunction setDelay(uint256 _delay) public {\n\t\trequire(msg.sender == address(this), \"Timelock::setDelay: Call must come from Timelock.\");\n\t\trequire(_delay >= MINIMUM_DELAY, \"Timelock::setDelay: Delay must exceed minimum delay.\");\n\t\trequire(_delay <= MAXIMUM_DELAY, \"Timelock::setDelay: Delay must not exceed maximum delay.\");\n\t\tdelay = _delay;\n\n\t\temit NewDelay(delay);\n\t}\n\n\tfunction acceptAdmin() public {\n\t\trequire(msg.sender == pendingAdmin, \"Timelock::acceptAdmin: Call must come from pendingAdmin.\");\n\t\tadmin = msg.sender;\n\t\tpendingAdmin = address(0);\n\n\t\temit NewAdmin(admin);\n\t}\n\n\tfunction setPendingAdmin(address pendingAdmin_) public {\n\t\trequire(msg.sender == address(this), \"Timelock::setPendingAdmin: Call must come from Timelock.\");\n\t\tpendingAdmin = pendingAdmin_;\n\n\t\temit NewPendingAdmin(pendingAdmin);\n\t}\n\n\tfunction queueTransaction(\n\t\taddress target,\n\t\tuint256 value,\n\t\tstring memory signature,\n\t\tbytes memory data,\n\t\tuint256 eta\n\t) public returns (bytes32) {\n\t\trequire(msg.sender == admin, \"Timelock::queueTransaction: Call must come from admin.\");\n\t\trequire(\n\t\t\teta >= getBlockTimestamp().add(delay),\n\t\t\t\"Timelock::queueTransaction: Estimated execution block must satisfy delay.\"\n\t\t);\n\n\t\tbytes32 txHash = keccak256(abi.encode(target, value, signature, data, eta));\n\t\tqueuedTransactions[txHash] = true;\n\n\t\temit QueueTransaction(txHash, target, value, signature, data, eta);\n\t\treturn txHash;\n\t}\n\n\tfunction cancelTransaction(\n\t\taddress target,\n\t\tuint256 value,\n\t\tstring memory signature,\n\t\tbytes memory data,\n\t\tuint256 eta\n\t) public {\n\t\trequire(msg.sender == admin, \"Timelock::cancelTransaction: Call must come from admin.\");\n\n\t\tbytes32 txHash = keccak256(abi.encode(target, value, signature, data, eta));\n\t\tqueuedTransactions[txHash] = false;\n\n\t\temit CancelTransaction(txHash, target, value, signature, data, eta);\n\t}\n\n\tfunction executeTransaction(\n\t\taddress target,\n\t\tuint256 value,\n\t\tstring memory signature,\n\t\tbytes memory data,\n\t\tuint256 eta\n\t) public payable returns (bytes memory) {\n\t\trequire(msg.sender == admin, \"Timelock::executeTransaction: Call must come from admin.\");\n\n\t\tbytes32 txHash = keccak256(abi.encode(target, value, signature, data, eta));\n\t\trequire(queuedTransactions[txHash], \"Timelock::executeTransaction: Transaction hasn't been queued.\");\n\t\trequire(getBlockTimestamp() >= eta, \"Timelock::executeTransaction: Transaction hasn't surpassed time lock.\");\n\t\trequire(getBlockTimestamp() <= eta.add(GRACE_PERIOD), \"Timelock::executeTransaction: Transaction is stale.\");\n\n\t\tqueuedTransactions[txHash] = false;\n\n\t\tbytes memory callData;\n\n\t\tif (bytes(signature).length == 0) {\n\t\t\tcallData = data;\n\t\t} else {\n\t\t\tcallData = abi.encodePacked(bytes4(keccak256(bytes(signature))), data);\n\t\t}\n\n\t\t// solium-disable-next-line security/no-call-value\n\t\t(bool success, bytes memory returnData) = target.call.value(value)(callData);\n\t\trequire(success, \"Timelock::executeTransaction: Transaction execution reverted.\");\n\n\t\temit ExecuteTransaction(txHash, target, value, signature, data, eta);\n\n\t\treturn returnData;\n\t}\n\n\tfunction getBlockTimestamp() internal view returns (uint256) {\n\t\t// solium-disable-next-line security/no-block-members\n\t\treturn block.timestamp;\n\t}\n}\n",
  "sourcePath": "/hades/evm-contracts/src/Timelock.sol",
  "compiler": {
    "name": "solc",
    "version": "0.6.0+commit.26b70077.Emscripten.clang"
  },
  "schemaVersion": "3.2.4",
  "updatedAt": "2020-10-27T12:03:42.998Z",
  "networkType": "ethereum",
  "devdoc": {
    "methods": {}
  },
  "userdoc": {
    "methods": {}
  }
}